{
  "address": "0xF2DBbc1349922CD78b43755f66c2c91911840F89",
  "abi": [
    {
      "inputs": [
        {
          "internalType": "address",
          "name": "sloRegistry_",
          "type": "address"
        },
        {
          "internalType": "address",
          "name": "periodRegistry_",
          "type": "address"
        },
        {
          "internalType": "address",
          "name": "messengerRegistry_",
          "type": "address"
        },
        {
          "internalType": "address",
          "name": "stakeRegistry_",
          "type": "address"
        },
        {
          "internalType": "bool",
          "name": "checkPastPeriod_",
          "type": "bool"
        }
      ],
      "stateMutability": "nonpayable",
      "type": "constructor"
    },
    {
      "anonymous": false,
      "inputs": [
        {
          "indexed": true,
          "internalType": "address",
          "name": "sla",
          "type": "address"
        },
        {
          "indexed": true,
          "internalType": "address",
          "name": "caller",
          "type": "address"
        }
      ],
      "name": "ReturnLockedValue",
      "type": "event"
    },
    {
      "anonymous": false,
      "inputs": [
        {
          "indexed": true,
          "internalType": "contract SLA",
          "name": "sla",
          "type": "address"
        },
        {
          "indexed": true,
          "internalType": "address",
          "name": "owner",
          "type": "address"
        }
      ],
      "name": "SLACreated",
      "type": "event"
    },
    {
      "anonymous": false,
      "inputs": [
        {
          "indexed": false,
          "internalType": "uint256",
          "name": "periodId",
          "type": "uint256"
        },
        {
          "indexed": true,
          "internalType": "address",
          "name": "sla",
          "type": "address"
        },
        {
          "indexed": true,
          "internalType": "address",
          "name": "caller",
          "type": "address"
        }
      ],
      "name": "SLIRequested",
      "type": "event"
    },
    {
      "inputs": [
        {
          "internalType": "uint256",
          "name": "",
          "type": "uint256"
        }
      ],
      "name": "SLAs",
      "outputs": [
        {
          "internalType": "contract SLA",
          "name": "",
          "type": "address"
        }
      ],
      "stateMutability": "view",
      "type": "function"
    },
    {
      "inputs": [],
      "name": "allSLAs",
      "outputs": [
        {
          "internalType": "contract SLA[]",
          "name": "",
          "type": "address[]"
        }
      ],
      "stateMutability": "view",
      "type": "function"
    },
    {
      "inputs": [],
      "name": "checkPastPeriod",
      "outputs": [
        {
          "internalType": "bool",
          "name": "",
          "type": "bool"
        }
      ],
      "stateMutability": "view",
      "type": "function"
    },
    {
      "inputs": [
        {
          "internalType": "uint120",
          "name": "sloValue_",
          "type": "uint120"
        },
        {
          "internalType": "enum SLORegistry.SLOType",
          "name": "sloType_",
          "type": "uint8"
        },
        {
          "internalType": "bool",
          "name": "whitelisted_",
          "type": "bool"
        },
        {
          "internalType": "address",
          "name": "messengerAddress_",
          "type": "address"
        },
        {
          "internalType": "enum IPeriodRegistry.PeriodType",
          "name": "periodType_",
          "type": "uint8"
        },
        {
          "internalType": "uint128",
          "name": "initialPeriodId_",
          "type": "uint128"
        },
        {
          "internalType": "uint128",
          "name": "finalPeriodId_",
          "type": "uint128"
        },
        {
          "internalType": "string",
          "name": "ipfsHash_",
          "type": "string"
        },
        {
          "internalType": "uint256[]",
          "name": "severity_",
          "type": "uint256[]"
        },
        {
          "internalType": "uint256[]",
          "name": "penalty_",
          "type": "uint256[]"
        },
        {
          "internalType": "uint64",
          "name": "leverage_",
          "type": "uint64"
        }
      ],
      "name": "createSLA",
      "outputs": [],
      "stateMutability": "nonpayable",
      "type": "function"
    },
    {
      "inputs": [
        {
          "internalType": "address",
          "name": "_slaAddress",
          "type": "address"
        }
      ],
      "name": "isRegisteredSLA",
      "outputs": [
        {
          "internalType": "bool",
          "name": "",
          "type": "bool"
        }
      ],
      "stateMutability": "view",
      "type": "function"
    },
    {
      "inputs": [],
      "name": "messengerRegistry",
      "outputs": [
        {
          "internalType": "address",
          "name": "",
          "type": "address"
        }
      ],
      "stateMutability": "view",
      "type": "function"
    },
    {
      "inputs": [],
      "name": "periodRegistry",
      "outputs": [
        {
          "internalType": "address",
          "name": "",
          "type": "address"
        }
      ],
      "stateMutability": "view",
      "type": "function"
    },
    {
      "inputs": [
        {
          "internalType": "address",
          "name": "_messengerAddress",
          "type": "address"
        },
        {
          "internalType": "string",
          "name": "_specificationUrl",
          "type": "string"
        }
      ],
      "name": "registerMessenger",
      "outputs": [],
      "stateMutability": "nonpayable",
      "type": "function"
    },
    {
      "inputs": [
        {
          "internalType": "uint256",
          "name": "_periodId",
          "type": "uint256"
        },
        {
          "internalType": "contract SLA",
          "name": "_sla",
          "type": "address"
        },
        {
          "internalType": "bool",
          "name": "_ownerApproval",
          "type": "bool"
        }
      ],
      "name": "requestSLI",
      "outputs": [],
      "stateMutability": "nonpayable",
      "type": "function"
    },
    {
      "inputs": [
        {
          "internalType": "contract SLA",
          "name": "_sla",
          "type": "address"
        }
      ],
      "name": "returnLockedValue",
      "outputs": [],
      "stateMutability": "nonpayable",
      "type": "function"
    },
    {
      "inputs": [],
      "name": "sloRegistry",
      "outputs": [
        {
          "internalType": "address",
          "name": "",
          "type": "address"
        }
      ],
      "stateMutability": "view",
      "type": "function"
    },
    {
      "inputs": [],
      "name": "stakeRegistry",
      "outputs": [
        {
          "internalType": "address",
          "name": "",
          "type": "address"
        }
      ],
      "stateMutability": "view",
      "type": "function"
    },
    {
      "inputs": [
        {
          "internalType": "address",
          "name": "_user",
          "type": "address"
        }
      ],
      "name": "userSLAs",
      "outputs": [
        {
          "internalType": "contract SLA[]",
          "name": "SLAList",
          "type": "address[]"
        }
      ],
      "stateMutability": "view",
      "type": "function"
    }
  ],
  "transactionHash": "0x5c72ddfdeddde530dcb5cb12f28c4893f4a3d9670073378b5b4bf6df78e78ced",
  "args": [
    "0xF6f972F24218E9B575fF0BaA3cf8d896d94e5021",
    "0xd347dfD0A04FC13fCb175519Fad044E9d3277f10",
    "0x7928C03AB655a35fb975E82fea4205513C677297",
    "0xCe952191Fd641ec113bF56Fa6201Fc58bef5A752",
    true
  ],
  "solcInputHash": "b47b1da8947805f3b521fd14a441e1c8",
  "bytecode": "0x60a06040523480156200001157600080fd5b506040516200627e3803806200627e833981016040819052620000349162000332565b60016000556001600160a01b038516620000955760405162461bcd60e51b815260206004820152601b60248201527f696e76616c696420736c6f52656769737472792061646472657373000000000060448201526064015b60405180910390fd5b6001600160a01b038416620000ed5760405162461bcd60e51b815260206004820152601e60248201527f696e76616c696420706572696f6452656769737472792061646472657373000060448201526064016200008c565b6001600160a01b0383166200014f5760405162461bcd60e51b815260206004820152602160248201527f696e76616c6964206d657373656e6765725265676973747279206164647265736044820152607360f81b60648201526084016200008c565b6001600160a01b038216620001a75760405162461bcd60e51b815260206004820152601d60248201527f696e76616c6964207374616b655265676973747279206164647265737300000060448201526064016200008c565b600180546001600160a01b0319166001600160a01b0387169081179091556040805163f388158960e01b8152905163f38815899160048082019260009290919082900301818387803b158015620001fd57600080fd5b505af115801562000212573d6000803e3d6000fd5b5050600280546001600160a01b038089166001600160a01b0319928316179092556004805492871692909116821781556040805163f388158960e01b8152905192945063f3881589935080820192600092909182900301818387803b1580156200027b57600080fd5b505af115801562000290573d6000803e3d6000fd5b5050600380546001600160a01b0319166001600160a01b0387169081179091556040805163f388158960e01b8152905191935063f3881589925060048082019260009290919082900301818387803b158015620002ec57600080fd5b505af115801562000301573d6000803e3d6000fd5b50505050151560805250620003aa92505050565b80516001600160a01b03811681146200032d57600080fd5b919050565b600080600080600060a086880312156200034b57600080fd5b620003568662000315565b9450620003666020870162000315565b9350620003766040870162000315565b9250620003866060870162000315565b9150608086015180151581146200039c57600080fd5b809150509295509295909350565b608051615eb1620003cd600039600081816101da015261107c0152615eb16000f3fe60806040523480156200001157600080fd5b5060043610620000e05760003560e01c8063788164b111620000975780639fc4caa5116200006e5780639fc4caa514620001c6578063a9e43e7f14620001d8578063bb0cbccd146200020b578063c4277a7b146200022257600080fd5b8063788164b1146200018e5780638d2113ed14620001a557806396bddc1014620001bc57600080fd5b80632575d7ca14620000e557806350c5abfe14620000fe578063516c285714620001325780635a7d1e5d14620001585780635c4df332146200016a57806368304835146200017c575b600080fd5b620000fc620000f6366004620014d0565b62000251565b005b620001156200010f366004620014f7565b620004ee565b6040516001600160a01b0390911681526020015b60405180910390f35b6200014962000143366004620014d0565b62000519565b60405162000129919062001523565b6001546001600160a01b031662000115565b6003546001600160a01b031662000115565b6004546001600160a01b031662000115565b620000fc6200019f3660046200158e565b62000640565b620000fc620001b636600462001696565b62000c3d565b6200014962000d30565b6002546001600160a01b031662000115565b7f00000000000000000000000000000000000000000000000000000000000000005b604051901515815260200162000129565b620000fc6200021c366004620017d9565b62000d94565b620001fa62000233366004620014d0565b6001600160a01b031660009081526007602052604090205460ff1690565b6001600160a01b03811660009081526007602052604090205460ff16620002b85760405162461bcd60e51b81526020600482015260166024820152752a3434b99029a6209034b9903737ba103b30b634b21760511b60448201526064015b60405180910390fd5b806001600160a01b0316638da5cb5b6040518163ffffffff1660e01b815260040160206040518083038186803b158015620002f257600080fd5b505afa15801562000307573d6000803e3d6000fd5b505050506040513d601f19601f820116820180604052508101906200032d91906200190a565b6001600160a01b0316336001600160a01b0316146200038f5760405162461bcd60e51b815260206004820152601f60248201527f4f6e6c792074686520534c41206f776e65722063616e20646f20746869732e006044820152606401620002af565b806001600160a01b03166396f76f116040518163ffffffff1660e01b815260040160206040518083038186803b158015620003c957600080fd5b505afa158015620003de573d6000803e3d6000fd5b505050506040513d601f19601f820116820180604052508101906200040491906200192a565b620004525760405162461bcd60e51b815260206004820152601a60248201527f5468697320534c4120686173206e6f742066696e69736865642e0000000000006044820152606401620002af565b60405133906001600160a01b038316907f892dba94a39dc15a34a9767dc9a0e553ace780857b076507becf599634bfbb6790600090a3600480546040516312baebe560e11b81526001600160a01b0384811693820193909352911690632575d7ca90602401600060405180830381600087803b158015620004d257600080fd5b505af1158015620004e7573d6000803e3d6000fd5b5050505050565b60058181548110620004ff57600080fd5b6000918252602090912001546001600160a01b0316905081565b6001600160a01b0381166000908152600660205260409020546060908067ffffffffffffffff811115620005515762000551620015d5565b6040519080825280602002602001820160405280156200057b578160200160208202803683370190505b50915060005b8181101562000639576001600160a01b038416600090815260066020526040902080546005919083908110620005bb57620005bb6200194a565b906000526020600020015481548110620005d957620005d96200194a565b9060005260206000200160009054906101000a90046001600160a01b03168382815181106200060c576200060c6200194a565b6001600160a01b039092166020928302919091019091015280620006308162001976565b91505062000581565b5050919050565b60026000541415620006665760405162461bcd60e51b8152600401620002af9062001994565b600260009081556001600160a01b03831681526007602052604090205460ff16620006cd5760405162461bcd60e51b81526020600482015260166024820152752a3434b99029a6209034b9903737ba103b30b634b21760511b6044820152606401620002af565b816001600160a01b031663b1659bad6040518163ffffffff1660e01b815260040160206040518083038186803b1580156200070757600080fd5b505afa1580156200071c573d6000803e3d6000fd5b505050506040513d601f19601f82011682018060405250810190620007429190620019cb565b8314620007925760405162461bcd60e51b815260206004820152601860248201527f6e6f74206e65787456657269666961626c65506572696f6400000000000000006044820152606401620002af565b6040516320c876ef60e11b8152600481018490526000906001600160a01b03841690634190edde9060240160606040518083038186803b158015620007d657600080fd5b505afa158015620007eb573d6000803e3d6000fd5b505050506040513d601f19601f82011682018060405250810190620008119190620019e5565b9250600091506200081f9050565b81600281111562000834576200083462001a19565b146200088f5760405162461bcd60e51b815260206004820152602360248201527f5468697320534c412068617320616c7265616479206265656e2076657269666960448201526232b21760e91b6064820152608401620002af565b60405163021eef7f60e01b8152600481018590526001600160a01b0384169063021eef7f9060240160206040518083038186803b158015620008d057600080fd5b505afa158015620008e5573d6000803e3d6000fd5b505050506040513d601f19601f820116820180604052508101906200090b91906200192a565b6200094a5760405162461bcd60e51b815260206004820152600e60248201526d1a5b9d985b1a59081c195c9a5bd960921b6044820152606401620002af565b600260009054906101000a90046001600160a01b03166001600160a01b031663c7b6ceb4846001600160a01b03166346e0fbae6040518163ffffffff1660e01b815260040160206040518083038186803b158015620009a857600080fd5b505afa158015620009bd573d6000803e3d6000fd5b505050506040513d601f19601f82011682018060405250810190620009e3919062001a2f565b866040518363ffffffff1660e01b815260040162000a0392919062001a6e565b60206040518083038186803b15801562000a1c57600080fd5b505afa15801562000a31573d6000803e3d6000fd5b505050506040513d601f19601f8201168201806040525081019062000a5791906200192a565b62000a995760405162461bcd60e51b81526020600482015260116024820152701c195c9a5bd9081d5b999a5b9a5cda1959607a1b6044820152606401620002af565b60405184815233906001600160a01b038516907fa204d52d2c80fbd794029bca489fb7b1c4dd5f7d5967806277f579cc683431469060200160405180910390a3826001600160a01b031663a224ee9c6040518163ffffffff1660e01b815260040160206040518083038186803b15801562000b1357600080fd5b505afa15801562000b28573d6000803e3d6000fd5b505050506040513d601f19601f8201168201806040525081019062000b4e91906200190a565b604051634bd410c960e11b8152600481018690526001600160a01b038581166024830152841515604483015233606483015291909116906397a8219290608401600060405180830381600087803b15801562000ba957600080fd5b505af115801562000bbe573d6000803e3d6000fd5b5050600480546040516308bcf0cf60e21b81526001600160a01b038881169382019390935233602482015260448101899052911692506322f3c33c9150606401600060405180830381600087803b15801562000c1957600080fd5b505af115801562000c2e573d6000803e3d6000fd5b50506001600055505050505050565b6002600054141562000c635760405162461bcd60e51b8152600401620002af9062001994565b600260005560035460405163eabb8a7360e01b81526001600160a01b039091169063eabb8a739062000c9e9033908690869060040162001ad7565b600060405180830381600087803b15801562000cb957600080fd5b505af115801562000cce573d6000803e3d6000fd5b50505050816001600160a01b031663f38815896040518163ffffffff1660e01b8152600401600060405180830381600087803b15801562000d0e57600080fd5b505af115801562000d23573d6000803e3d6000fd5b5050600160005550505050565b6060600580548060200260200160405190810160405280929190818152602001828054801562000d8a57602002820191906000526020600020905b81546001600160a01b0316815260019091019060200180831162000d6b575b5050505050905090565b6002600054141562000dba5760405162461bcd60e51b8152600401620002af9062001994565b6002600081905554604051636efe27ef60e11b81526001600160a01b039091169063ddfc4fde9062000df3908a908a9060040162001b0e565b60206040518083038186803b15801562000e0c57600080fd5b505afa15801562000e21573d6000803e3d6000fd5b505050506040513d601f19601f8201168201806040525081019062000e4791906200192a565b62000e885760405162461bcd60e51b815260206004820152601060248201526f199a5c9cdd081a59081a5b9d985b1a5960821b6044820152606401620002af565b600254604051636efe27ef60e11b81526001600160a01b039091169063ddfc4fde9062000ebc908a90899060040162001b0e565b60206040518083038186803b15801562000ed557600080fd5b505afa15801562000eea573d6000803e3d6000fd5b505050506040513d601f19601f8201168201806040525081019062000f1091906200192a565b62000f515760405162461bcd60e51b815260206004820152601060248201526f199a5b985b081a59081a5b9d985b1a5960821b6044820152606401620002af565b6002546040516347ef60ed60e11b81526001600160a01b0390911690638fdec1da9062000f83908a9060040162001b35565b60206040518083038186803b15801562000f9c57600080fd5b505afa15801562000fb1573d6000803e3d6000fd5b505050506040513d601f19601f8201168201806040525081019062000fd791906200192a565b6200101e5760405162461bcd60e51b81526020600482015260166024820152751c195c9a5bd9081b9bdd081a5b9a5d1a585b1a5e995960521b6044820152606401620002af565b856001600160801b0316856001600160801b031610156200107a5760405162461bcd60e51b81526020600482015260156024820152741a5b9d985b1a5908199a5b985b0bda5b9a5d1a585b605a1b6044820152606401620002af565b7f0000000000000000000000000000000000000000000000000000000000000000156200116657600254604051631e8760ef60e21b81526001600160a01b0390911690637a1d83bc90620010d5908a908a9060040162001b0e565b60206040518083038186803b158015620010ee57600080fd5b505afa15801562001103573d6000803e3d6000fd5b505050506040513d601f19601f820116820180604052508101906200112991906200192a565b15620011665760405162461bcd60e51b815260206004820152600b60248201526a1c185cdd081c195c9a5bd960aa1b6044820152606401620002af565b60035460405163ef4003db60e01b81526001600160a01b038a811660048301529091169063ef4003db9060240160206040518083038186803b158015620011ac57600080fd5b505afa158015620011c1573d6000803e3d6000fd5b505050506040513d601f19601f82011682018060405250810190620011e791906200192a565b620012295760405162461bcd60e51b815260206004820152601160248201527034b73b30b634b21036b2b9b9b2b733b2b960791b6044820152606401620002af565b81518351146200128d5760405162461bcd60e51b815260206004820152602860248201527f736576657269747920616e642070656e616c7479206c656e6774682073686f756044820152670d8c840dac2e8c6d60c31b6064820152608401620002af565b6000338a898b8a8a6005805490508b8b8b8b604051620012ad90620014a9565b620012c39b9a9998979695949392919062001b87565b604051809103906000f080158015620012e0573d6000803e3d6000fd5b506001546040516358326f4960e01b81529192506001600160a01b0316906358326f499062001318908f908f90869060040162001c4f565b600060405180830381600087803b1580156200133357600080fd5b505af115801562001348573d6000803e3d6000fd5b50506004546001600160a01b03169150637afb4c0a905033836200136d8b8b62001c89565b6200137a90600162001cb4565b6040516001600160e01b031960e086901b1681526001600160a01b0393841660048201529290911660248301526001600160801b03166044820152606401600060405180830381600087803b158015620013d357600080fd5b505af1158015620013e8573d6000803e3d6000fd5b505033600081815260066020908152604080832060058054825460018082018555938752858720015580548083019091557f036b6384b5eca791c62761152d0c79bb0604c104a5fb6f4eb0703f3154bb3db00180546001600160a01b0319166001600160a01b038a169081179091558085526007909352818420805460ff191690911790555192945092507fb52f284a6c14f1a66ab5513b5b539066933e58e69e6432666f0e3c8c8a7d750391a35050600160005550505050505050505050565b6141998062001ce383390190565b6001600160a01b0381168114620014cd57600080fd5b50565b600060208284031215620014e357600080fd5b8135620014f081620014b7565b9392505050565b6000602082840312156200150a57600080fd5b5035919050565b80356200151e81620014b7565b919050565b6020808252825182820181905260009190848201906040850190845b81811015620015665783516001600160a01b0316835292840192918401916001016200153f565b50909695505050505050565b8015158114620014cd57600080fd5b80356200151e8162001572565b600080600060608486031215620015a457600080fd5b833592506020840135620015b881620014b7565b91506040840135620015ca8162001572565b809150509250925092565b634e487b7160e01b600052604160045260246000fd5b604051601f8201601f1916810167ffffffffffffffff81118282101715620016175762001617620015d5565b604052919050565b600082601f8301126200163157600080fd5b813567ffffffffffffffff8111156200164e576200164e620015d5565b62001663601f8201601f1916602001620015eb565b8181528460208386010111156200167957600080fd5b816020850160208301376000918101602001919091529392505050565b60008060408385031215620016aa57600080fd5b8235620016b781620014b7565b9150602083013567ffffffffffffffff811115620016d457600080fd5b620016e2858286016200161f565b9150509250929050565b80356001600160781b03811681146200151e57600080fd5b60068110620014cd57600080fd5b80356200151e8162001704565b80356001600160801b03811681146200151e57600080fd5b600082601f8301126200174957600080fd5b8135602067ffffffffffffffff821115620017685762001768620015d5565b8160051b62001779828201620015eb565b92835284810182019282810190878511156200179457600080fd5b83870192505b84831015620017b5578235825291830191908301906200179a565b979650505050505050565b803567ffffffffffffffff811681146200151e57600080fd5b60008060008060008060008060008060006101608c8e031215620017fc57600080fd5b620018078c620016ec565b9a506200181760208d0162001712565b99506200182760408d0162001581565b98506200183760608d0162001511565b97506200184760808d0162001712565b96506200185760a08d016200171f565b95506200186760c08d016200171f565b945067ffffffffffffffff8060e08e013511156200188457600080fd5b620018968e60e08f01358f016200161f565b9450806101008e01351115620018ab57600080fd5b620018be8e6101008f01358f0162001737565b9350806101208e01351115620018d357600080fd5b50620018e78d6101208e01358e0162001737565b9150620018f86101408d01620017c0565b90509295989b509295989b9093969950565b6000602082840312156200191d57600080fd5b8151620014f081620014b7565b6000602082840312156200193d57600080fd5b8151620014f08162001572565b634e487b7160e01b600052603260045260246000fd5b634e487b7160e01b600052601160045260246000fd5b60006000198214156200198d576200198d62001960565b5060010190565b6020808252601f908201527f5265656e7472616e637947756172643a207265656e7472616e742063616c6c00604082015260600190565b600060208284031215620019de57600080fd5b5051919050565b600080600060608486031215620019fb57600080fd5b8351925060208401519150604084015160038110620015ca57600080fd5b634e487b7160e01b600052602160045260246000fd5b60006020828403121562001a4257600080fd5b8151620014f08162001704565b60068110620014cd57634e487b7160e01b600052602160045260246000fd5b6040810162001a7d8462001a4f565b9281526020015290565b6000815180845260005b8181101562001aaf5760208185018101518683018201520162001a91565b8181111562001ac2576000602083870101525b50601f01601f19169290920160200192915050565b6001600160a01b0384811682528316602082015260606040820181905260009062001b059083018462001a87565b95945050505050565b6040810162001b1d8462001a4f565b9281526001600160801b039190911660209091015290565b6020810162001b448362001a4f565b91905290565b600081518084526020808501945080840160005b8381101562001b7c5781518752958201959082019060010162001b5e565b509495945050505050565b6001600160a01b038c811682528b151560208301526000906101609062001bae8d62001a4f565b604084018d90528b1660608401526001600160801b038a81166080850152891660a08401526001600160801b03881660c08401528060e084015262001bf68184018862001a87565b905082810361010084015262001c0d818762001b4a565b905082810361012084015262001c24818662001b4a565b91505062001c3f61014083018467ffffffffffffffff169052565b9c9b505050505050505050505050565b6001600160781b03841681526060810162001c6a8462001a4f565b60208201939093526001600160a01b0391909116604090910152919050565b60006001600160801b038381169083168181101562001cac5762001cac62001960565b039392505050565b60006001600160801b0380831681851680830382111562001cd95762001cd962001960565b0194935050505056fe6102006040526011805460ff191690553480156200001c57600080fd5b5060405162004199380380620041998339810160408190526200003f9162000933565b338a86838e8c62000050866200054f565b600180556001600160a01b038216620000b05760405162461bcd60e51b815260206004820152601560248201527f696e76616c6964206f776e65722061646472657373000000000000000000000060448201526064015b60405180910390fd5b6001600160a01b038116620001085760405162461bcd60e51b815260206004820152601960248201527f696e76616c6964206d657373656e6765722061646472657373000000000000006044820152606401620000a7565b856001600160a01b031663683048356040518163ffffffff1660e01b815260040160206040518083038186803b1580156200014257600080fd5b505afa15801562000157573d6000803e3d6000fd5b505050506040513d601f19601f820116820180604052508101906200017d919062000a6c565b600260006101000a8154816001600160a01b0302191690836001600160a01b03160217905550856001600160a01b0316639fc4caa56040518163ffffffff1660e01b815260040160206040518083038186803b158015620001dd57600080fd5b505afa158015620001f2573d6000803e3d6000fd5b505050506040513d601f19601f8201168201806040525081019062000218919062000a6c565b6001600160a01b0390811660805285151561012090815260025460408051637b8041cf60e11b81529051600094859493169263f700839e9260048082019391829003018186803b1580156200026c57600080fd5b505afa15801562000281573d6000803e3d6000fd5b505050506040513d601f19601f82011682018060405250810190620002a7919062000a91565b5097505050505050509150600260009054906101000a90046001600160a01b03166001600160a01b0316638b8e53096040518163ffffffff1660e01b815260040160206040518083038186803b1580156200030157600080fd5b505afa15801562000316573d6000803e3d6000fd5b505050506040513d601f19601f820116820180604052508101906200033c919062000a6c565b6001600160a01b0390811660a05261010083905284166000908152600c60205260409020805460ff191660011790556001600160801b03861660e0526001600160401b03808216908616118015906200039f57506001856001600160401b031610155b620003e25760405162461bcd60e51b8152602060048201526012602482015271696e636f7272656374206c6576657261676560701b6044820152606401620000a7565b50506001600160401b0390921661014052506001600160a01b031660c052506200041091508c90506200059f565b83516200042590600d9060208701906200067c565b50600e80546001600160a01b0319163390811790915560408051635a7d1e5d60e01b81529051635a7d1e5d91600480820192602092909190829003018186803b1580156200047257600080fd5b505afa15801562000487573d6000803e3d6000fd5b505050506040513d601f19601f82011682018060405250810190620004ad919062000a6c565b6001600160a01b03166101605243610180526001600160801b038088166101a05286166101c052886005811115620004e957620004e962000b0d565b6101e081600581111562000501576200050162000b0d565b90525082516200051990600f9060208601906200070b565b5081516200052f9060109060208501906200070b565b5050506001600160801b039094166012555062000b609650505050505050565b600080546001600160a01b038381166001600160a01b0319831681178455604051919092169283917f8be0079c531659141344cd1fd0a4f28419497f9722a3daafe3b4186f6b6457e09190a35050565b620005a96200061e565b6001600160a01b038116620006105760405162461bcd60e51b815260206004820152602660248201527f4f776e61626c653a206e6577206f776e657220697320746865207a65726f206160448201526564647265737360d01b6064820152608401620000a7565b6200061b816200054f565b50565b6000546001600160a01b031633146200067a5760405162461bcd60e51b815260206004820181905260248201527f4f776e61626c653a2063616c6c6572206973206e6f7420746865206f776e65726044820152606401620000a7565b565b8280546200068a9062000b23565b90600052602060002090601f016020900481019282620006ae5760008555620006f9565b82601f10620006c957805160ff1916838001178555620006f9565b82800160010185558215620006f9579182015b82811115620006f9578251825591602001919060010190620006dc565b506200070792915062000748565b5090565b828054828255906000526020600020908101928215620006f95791602002820182811115620006f9578251825591602001919060010190620006dc565b5b8082111562000707576000815560010162000749565b80516001600160a01b03811681146200077757600080fd5b919050565b805180151581146200077757600080fd5b8051600681106200077757600080fd5b80516001600160801b03811681146200077757600080fd5b634e487b7160e01b600052604160045260246000fd5b604051601f8201601f191681016001600160401b0381118282101715620007f657620007f6620007b5565b604052919050565b600082601f8301126200081057600080fd5b81516001600160401b038111156200082c576200082c620007b5565b602062000842601f8301601f19168201620007cb565b82815285828487010111156200085757600080fd5b60005b83811015620008775785810183015182820184015282016200085a565b83811115620008895760008385840101525b5095945050505050565b600082601f830112620008a557600080fd5b815160206001600160401b03821115620008c357620008c3620007b5565b8160051b620008d4828201620007cb565b9283528481018201928281019087851115620008ef57600080fd5b83870192505b848310156200091057825182529183019190830190620008f5565b979650505050505050565b80516001600160401b03811681146200077757600080fd5b60008060008060008060008060008060006101608c8e0312156200095657600080fd5b620009618c6200075f565b9a506200097160208d016200077c565b99506200098160408d016200078d565b98506200099160608d016200075f565b9750620009a160808d016200079d565b9650620009b160a08d016200079d565b9550620009c160c08d016200079d565b60e08d01519095506001600160401b03811115620009de57600080fd5b620009ec8e828f01620007fe565b6101008e015190955090506001600160401b0381111562000a0c57600080fd5b62000a1a8e828f0162000893565b6101208e015190945090506001600160401b0381111562000a3a57600080fd5b62000a488e828f0162000893565b92505062000a5a6101408d016200091b565b90509295989b509295989b9093969950565b60006020828403121562000a7f57600080fd5b62000a8a826200075f565b9392505050565b60008060008060008060008060006101208a8c03121562000ab157600080fd5b8951985060208a0151975060408a0151965060608a0151955060808a0151945060a08a0151935060c08a0151925062000aed60e08b016200091b565b915062000afe6101008b016200077c565b90509295985092959850929598565b634e487b7160e01b600052602160045260246000fd5b600181811c9082168062000b3857607f821691505b6020821081141562000b5a57634e487b7160e01b600052602260045260246000fd5b50919050565b60805160a05160c05160e05161010051610120516101405161016051610180516101a0516101c0516101e05161351062000c896000396000818161043901528181610ffb01526112840152600081816103d1015281816107270152818161101d015281816112a5015261134001526000818161033201526106f3015260006102eb01526000818161182b01526118d701526000818161038401528181611e0f0152818161238c015281816125b20152818161279001526128c00152600081816102c40152611d130152600061050a0152600081816106ba01528181610a450152610ba80152600081816105f10152818161099b01528181610a7a01528181610afe01528181610bdd015261170801526000505060008181610fce015261125501526135106000f3fe608060405234801561001057600080fd5b50600436106102535760003560e01c80635e5f2e2611610146578063a224ee9c116100c3578063c8b5c24811610087578063c8b5c2481461065c578063cbe230c31461066f578063d7a5c42214610682578063ded81d2b14610695578063f2db10fe146106b5578063f2fde38b146106dc57600080fd5b8063a224ee9c146105ec578063a7e8d8d414610613578063b1659bad14610636578063b7bc347e1461063f578063c623674f1461064757600080fd5b806396f76f111161010a57806396f76f11146105865780639939219d1461058e5780639b19251a146105a15780639eacc13b146105c45780639fabeb00146105e457600080fd5b80635e5f2e26146105345780636f9064d714610547578063715018a61461055a5780638d21c770146105625780638da5cb5b1461057557600080fd5b80632fd949ca116101d45780634e0c91f6116101985780634e0c91f6146104885780634fb2647e146104c95780635ae698ff146104f25780635c1c20de146105055780635d7655ca1461052c57600080fd5b80632fd949ca146103bf5780633385d334146103cc5780634190edde146103f357806346e0fbae14610434578063484fbf2b1461046857600080fd5b80631bf309291161021b5780631bf30929146102e657806325091a081461030d5780632526743a1461032d57806326db18ac1461036c5780632c86d98e1461037f57600080fd5b8063021eef7f1461025857806304dfda391461028057806308728f6e146102a1578063171e44ea146102aa57806318e45427146102bf575b600080fd5b61026b610266366004612d2d565b6106ef565b60405190151581526020015b60405180910390f35b61029361028e366004612d2d565b610759565b604051908152602001610277565b610293600a5481565b6102bd6102b8366004612d5b565b61077a565b005b61026b7f000000000000000000000000000000000000000000000000000000000000000081565b6102937f000000000000000000000000000000000000000000000000000000000000000081565b61029361031b366004612d5b565b60036020526000908152604090205481565b6103547f000000000000000000000000000000000000000000000000000000000000000081565b6040516001600160801b039091168152602001610277565b6102bd61037a366004612d78565b610e7d565b6103a67f000000000000000000000000000000000000000000000000000000000000000081565b60405167ffffffffffffffff9091168152602001610277565b60115461026b9060ff1681565b6103547f000000000000000000000000000000000000000000000000000000000000000081565b610425610401366004612d2d565b60136020526000908152604090208054600182015460029092015490919060ff1683565b60405161027793929190612dbe565b61045b7f000000000000000000000000000000000000000000000000000000000000000081565b6040516102779190612dfe565b610293610476366004612d5b565b60056020526000908152604090205481565b6104b1610496366004612d5b565b6007602052600090815260409020546001600160a01b031681565b6040516001600160a01b039091168152602001610277565b6104b16104d7366004612d5b565b6008602052600090815260409020546001600160a01b031681565b6102bd610500366004612e53565b610ee6565b6102937f000000000000000000000000000000000000000000000000000000000000000081565b6102bd610fa9565b6104b1610542366004612d2d565b611135565b610293610555366004612d2d565b61115f565b6102bd61116f565b6102bd610570366004612f05565b611183565b6000546001600160a01b03166104b1565b61026b611250565b6102bd61059c366004612f7a565b6113a5565b61026b6105af366004612d5b565b600c6020526000908152604090205460ff1681565b6102936105d2366004612d5b565b60046020526000908152604090205481565b600a54610293565b6104b17f000000000000000000000000000000000000000000000000000000000000000081565b61026b610621366004612d5b565b60096020526000908152604090205460ff1681565b61029360125481565b600b54610293565b61064f6115a8565b6040516102779190613018565b6102bd61066a366004612d78565b611636565b61026b61067d366004612d5b565b611693565b6102bd61069036600461302b565b6116fd565b6102936106a3366004612d5b565b60066020526000908152604090205481565b6103547f000000000000000000000000000000000000000000000000000000000000000081565b6102bd6106ea366004612d5b565b611996565b60007f00000000000000000000000000000000000000000000000000000000000000006001600160801b0316821015801561075357507f00000000000000000000000000000000000000000000000000000000000000006001600160801b03168211155b92915050565b600f818154811061076957600080fd5b600091825260209091200154905081565b610782611a0f565b60025460408051637b8041cf60e11b815290516000926001600160a01b03169163f700839e91600480830192610120929190829003018186803b1580156107c857600080fd5b505afa1580156107dc573d6000803e3d6000fd5b505050506040513d601f19601f820116820180604052508101906108009190613062565b5050965050505050505061081382611693565b156108715760405162461bcd60e51b8152602060048201526024808201527f5468697320746f6b656e20686173206265656e20616c6c6f77656420616c726560448201526330b23c9760e11b60648201526084015b60405180910390fd5b60025460405163cbe230c360e01b81526001600160a01b0384811660048301529091169063cbe230c39060240160206040518083038186803b1580156108b657600080fd5b505afa1580156108ca573d6000803e3d6000fd5b505050506040513d601f19601f820116820180604052508101906108ee91906130e8565b61090a5760405162461bcd60e51b815260040161086890613103565b600b805460018101825560008290527f0175b7a638427703f0dbe7bb9bbf987a2551717b34e79f33b5b1008d1fa01db90180546001600160a01b0319166001600160a01b038516179055548110156109975760405162461bcd60e51b815260206004820152601060248201526f0dac2f040e8ded6cadc40d8cadccee8d60831b6044820152606401610868565b60007f00000000000000000000000000000000000000000000000000000000000000006001600160a01b03166376ff294b6040518163ffffffff1660e01b815260040160006040518083038186803b1580156109f257600080fd5b505afa158015610a06573d6000803e3d6000fd5b505050506040513d6000823e601f3d908101601f19168201604052610a2e919081019061313a565b6040516308cb8e2360e11b81526001600160801b037f00000000000000000000000000000000000000000000000000000000000000001660048201529091506000906001600160a01b037f000000000000000000000000000000000000000000000000000000000000000016906311971c469060240160006040518083038186803b158015610abc57600080fd5b505afa158015610ad0573d6000803e3d6000fd5b505050506040513d6000823e601f3d908101601f19168201604052610af8919081019061313a565b905060007f00000000000000000000000000000000000000000000000000000000000000006001600160a01b03166346cd68016040518163ffffffff1660e01b815260040160006040518083038186803b158015610b5557600080fd5b505afa158015610b69573d6000803e3d6000fd5b505050506040513d6000823e601f3d908101601f19168201604052610b91919081019061313a565b60405163cb8d3fcf60e01b81526001600160801b037f00000000000000000000000000000000000000000000000000000000000000001660048201529091506000906001600160a01b037f0000000000000000000000000000000000000000000000000000000000000000169063cb8d3fcf9060240160006040518083038186803b158015610c1f57600080fd5b505afa158015610c33573d6000803e3d6000fd5b505050506040513d6000823e601f3d908101601f19168201604052610c5b919081019061313a565b90506000866001600160a01b031663313ce5676040518163ffffffff1660e01b815260040160206040518083038186803b158015610c9857600080fd5b505afa158015610cac573d6000803e3d6000fd5b505050506040513d601f19601f82011682018060405250810190610cd091906131ce565b6002546040516340c71f0f60e01b81529192506000916001600160a01b03909116906340c71f0f90610d0a908990899087906004016131f1565b602060405180830381600087803b158015610d2457600080fd5b505af1158015610d38573d6000803e3d6000fd5b505050506040513d601f19601f82011682018060405250810190610d5c919061322a565b6002546040516340c71f0f60e01b81529192506000916001600160a01b03909116906340c71f0f90610d96908890889088906004016131f1565b602060405180830381600087803b158015610db057600080fd5b505af1158015610dc4573d6000803e3d6000fd5b505050506040513d601f19601f82011682018060405250810190610de8919061322a565b6001600160a01b03808b16600081815260086020908152604080832080548688166001600160a01b0319918216811790925560079093529281902080549589169590921685179091555193945091927fce8c390dc55dbcd418078f1391fbb7d471c01c228fc4464926095354cb27c02990610e6a908a908a908e908e90613247565b60405180910390a4505050505050505050565b610e928282601254610e8d611250565b611a69565b336001600160a01b0316601254826001600160a01b03167f5d73c1b3aab5bae46e08e09668d192166389623bef76bbe8cdae8df8ad320fce85604051610eda91815260200190565b60405180910390a45050565b610eee611a0f565b60005b8151811015610fa557600c6000838381518110610f1057610f10613294565b6020908102919091018101516001600160a01b031682528101919091526040016000205460ff16610f93576001600c6000848481518110610f5357610f53613294565b60200260200101516001600160a01b03166001600160a01b0316815260200190815260200160002060006101000a81548160ff0219169083151502179055505b80610f9d816132c0565b915050610ef1565b5050565b610fb1611a0f565b60405160016259edcb60e01b031981526000906001600160a01b037f0000000000000000000000000000000000000000000000000000000000000000169063ffa6123590611045907f0000000000000000000000000000000000000000000000000000000000000000907f0000000000000000000000000000000000000000000000000000000000000000906004016132db565b604080518083038186803b15801561105c57600080fd5b505afa158015611070573d6000803e3d6000fd5b505050506040513d601f19601f8201168201806040525081019061109491906132ff565b915050804210156110e75760405162461bcd60e51b815260206004820152601a60248201527f5468697320534c4120686173206e6f742066696e69736865642e0000000000006044820152606401610868565b6011805460ff8082161560ff1990921682179092556040519116151581527f8259ff2e8d1f54e9c760a378e427d394a361d8b57fef4298a3c5b2094e61a7029060200160405180910390a150565b600b818154811061114557600080fd5b6000918252602090912001546001600160a01b0316905081565b6010818154811061076957600080fd5b611177611a0f565b6111816000611c9b565b565b61118b611a0f565b60005b8181101561124b57600c60008484848181106111ac576111ac613294565b90506020020160208101906111c19190612d5b565b6001600160a01b0316815260208101919091526040016000205460ff1615611239576000600c60008585858181106111fb576111fb613294565b90506020020160208101906112109190612d5b565b6001600160a01b031681526020810191909152604001600020805460ff19169115159190911790555b80611243816132c0565b91505061118e565b505050565b6000807f00000000000000000000000000000000000000000000000000000000000000006001600160a01b031663ffa612357f00000000000000000000000000000000000000000000000000000000000000007f00000000000000000000000000000000000000000000000000000000000000006040518363ffffffff1660e01b81526004016112e19291906132db565b604080518083038186803b1580156112f857600080fd5b505afa15801561130c573d6000803e3d6000fd5b505050506040513d601f19601f8201168201806040525081019061133091906132ff565b91505080421015801561139257507f00000000000000000000000000000000000000000000000000000000000000006001600160801b0316600090815260136020526040812060029081015460ff169081111561138f5761138f612da8565b14155b8061139f575060115460ff165b91505090565b6113ad611250565b156113f35760405162461bcd60e51b81526020600482015260166024820152752a3434b99029a620903430b9903334b734b9b432b21760511b6044820152606401610868565b600083116114435760405162461bcd60e51b815260206004820152601d60248201527f5374616b65206d7573742062652067726561746572207468616e20302e0000006044820152606401610868565b611451826012548584611ceb565b336001600160a01b0316601254836001600160a01b03167f0aeac0345c75d03926da69972a2eeeb3dcf7108d6fd4aa1bcc1c7bed84cc87578685604051611499929190613323565b60405180910390a4600e60009054906101000a90046001600160a01b03166001600160a01b031663683048356040518163ffffffff1660e01b815260040160206040518083038186803b1580156114ef57600080fd5b505afa158015611503573d6000803e3d6000fd5b505050506040513d601f19601f82011682018060405250810190611527919061322a565b604051635948284760e11b81523360048201526001600160a01b03919091169063b290508e90602401602060405180830381600087803b15801561156a57600080fd5b505af115801561157e573d6000803e3d6000fd5b505050506040513d601f19601f820116820180604052508101906115a291906130e8565b50505050565b600d80546115b590613347565b80601f01602080910402602001604051908101604052809291908181526020018280546115e190613347565b801561162e5780601f106116035761010080835404028352916020019161162e565b820191906000526020600020905b81548152906001019060200180831161161157829003601f168201915b505050505081565b61164b8282601254611646611250565b61229d565b336001600160a01b0316601254826001600160a01b03167fbd9be3d6449ecbdf4b3b9980b1631ec06c13d8cf9e09e2433075f123b348e3ba85604051610eda91815260200190565b6000805b600b548110156116f457826001600160a01b0316600b82815481106116be576116be613294565b6000918252602090912001546001600160a01b031614156116e25750600192915050565b806116ec816132c0565b915050611697565b50600092915050565b336001600160a01b037f000000000000000000000000000000000000000000000000000000000000000016146117655760405162461bcd60e51b815260206004820152600d60248201526c3737ba1036b2b9b9b2b733b2b960991b6044820152606401610868565b60125481146117aa5760405162461bcd60e51b81526020600482015260116024820152701a5b9d985b1a59081c195c9a5bd9081a59607a1b6044820152606401610868565b60408051428152602081018490529081018290527fc95987c1992805ee34bdc915e017cceae36ba1c156b9911fa7e691e6435eb46e9060600160405180910390a16117f6816001613382565b601255600081815260136020526040808220600181018590554281559051634c3fb26360e01b81529091906001600160a01b037f00000000000000000000000000000000000000000000000000000000000000001690634c3fb263906118689087903090600f906010906004016133da565b60206040518083038186803b15801561188057600080fd5b505afa158015611894573d6000803e3d6000fd5b505050506040513d601f19601f820116820180604052508101906118b89190613416565b604051631993b9df60e01b8152600481018690523060248201529091507f00000000000000000000000000000000000000000000000000000000000000006001600160a01b031690631993b9df9060440160206040518083038186803b15801561192157600080fd5b505afa158015611935573d6000803e3d6000fd5b505050506040513d601f19601f8201168201806040525081019061195991906130e8565b1561197c5760028201805460ff191660011790556119778382612568565b6115a2565b6002828101805460ff191690911790556115a28382612731565b61199e611a0f565b6001600160a01b038116611a035760405162461bcd60e51b815260206004820152602660248201527f4f776e61626c653a206e6577206f776e657220697320746865207a65726f206160448201526564647265737360d01b6064820152608401610868565b611a0c81611c9b565b50565b6000546001600160a01b031633146111815760405162461bcd60e51b815260206004820181905260248201527f4f776e61626c653a2063616c6c6572206973206e6f7420746865206f776e65726044820152606401610868565b82611a7381611693565b611a8f5760405162461bcd60e51b815260040161086890613103565b60026001541415611ab25760405162461bcd60e51b81526004016108689061342f565b600260015581611b2c57336000908152600660205260409020548311611b2c5760405162461bcd60e51b815260206004820152602960248201527f55736572206c6f636b2d757020756e74696c20746865206e65787420766572696044820152683334b1b0ba34b7b71760b91b6064820152608401610868565b6001600160a01b0380851660009081526007602090815260408083205460058352928190205481516318160ddd60e01b81529151939094169384936379cc679093339386926318160ddd92600480840193919291829003018186803b158015611b9457600080fd5b505afa158015611ba8573d6000803e3d6000fd5b505050506040513d601f19601f82011682018060405250810190611bcc9190613416565b611bd6908b613466565b611be09190613485565b6040516001600160e01b031960e085901b1681526001600160a01b0390921660048301526024820152604401600060405180830381600087803b158015611c2657600080fd5b505af1158015611c3a573d6000803e3d6000fd5b505050506001600160a01b03851660009081526005602052604081208054889290611c669084906134a7565b9091555060009050611c788787612931565b9050611c8e6001600160a01b0387163383612a3d565b5050600180555050505050565b600080546001600160a01b038381166001600160a01b0319831681178455604051919092169283917f8be0079c531659141344cd1fd0a4f28419497f9722a3daafe3b4186f6b6457e09190a35050565b83611cf581611693565b611d115760405162461bcd60e51b815260040161086890613103565b7f000000000000000000000000000000000000000000000000000000000000000015611d8857336000908152600c602052604090205460ff16611d885760405162461bcd60e51b815260206004820152600f60248201526e1b9bdd081dda1a5d195b1a5cdd1959608a1b6044820152606401610868565b60026001541415611dab5760405162461bcd60e51b81526004016108689061342f565b6002600155611dc56001600160a01b038616333086612aa0565b6001826001811115611dd957611dd9612da8565b1415612063576001600160a01b03851660009081526003602090815260408083205460059092529091205467ffffffffffffffff7f00000000000000000000000000000000000000000000000000000000000000001690611e3b908690613382565b611e459190613466565b1115611e935760405162461bcd60e51b815260206004820152601c60248201527f5374616b652065786365656473206c6576657261676564206361702e000000006044820152606401610868565b6001600160a01b0380861660009081526007602090815260408083205481516318160ddd60e01b8152915194169384926318160ddd9260048082019391829003018186803b158015611ee457600080fd5b505afa158015611ef8573d6000803e3d6000fd5b505050506040513d601f19601f82011682018060405250810190611f1c9190613416565b905080611f88576040516340c10f1960e01b8152336004820152602481018690526001600160a01b038316906340c10f1990604401600060405180830381600087803b158015611f6b57600080fd5b505af1158015611f7f573d6000803e3d6000fd5b50505050612021565b6001600160a01b03878116600090815260056020526040902054908316906340c10f19903390611fb8858a613466565b611fc29190613485565b6040516001600160e01b031960e085901b1681526001600160a01b0390921660048301526024820152604401600060405180830381600087803b15801561200857600080fd5b505af115801561201c573d6000803e3d6000fd5b505050505b6001600160a01b03871660009081526005602052604081208054879290612049908490613382565b909155505033600090815260066020526040902086905550505b600082600181111561207757612077612da8565b141561224d576001600160a01b0380861660009081526008602090815260408083205481516318160ddd60e01b8152915194169384926318160ddd9260048082019391829003018186803b1580156120ce57600080fd5b505afa1580156120e2573d6000803e3d6000fd5b505050506040513d601f19601f820116820180604052508101906121069190613416565b905080612172576040516340c10f1960e01b8152336004820152602481018690526001600160a01b038316906340c10f1990604401600060405180830381600087803b15801561215557600080fd5b505af1158015612169573d6000803e3d6000fd5b5050505061220b565b6001600160a01b03878116600090815260036020526040902054908316906340c10f199033906121a2858a613466565b6121ac9190613485565b6040516001600160e01b031960e085901b1681526001600160a01b0390921660048301526024820152604401600060405180830381600087803b1580156121f257600080fd5b505af1158015612206573d6000803e3d6000fd5b505050505b6001600160a01b03871660009081526003602052604081208054879290612233908490613382565b909155505033600090815260046020526040902086905550505b3360009081526009602052604090205460ff1661229257336000908152600960205260408120805460ff19166001179055600a80549161228c836132c0565b91905055505b505060018055505050565b826122a781611693565b6122c35760405162461bcd60e51b815260040161086890613103565b600260015414156122e65760405162461bcd60e51b81526004016108689061342f565b60026001558161242e573360009081526004602052604090205483116123645760405162461bcd60e51b815260206004820152602d60248201527f50726f7669646572206c6f636b2d757020756e74696c20746865206e6578742060448201526c3b32b934b334b1b0ba34b7b71760991b6064820152608401610868565b6001600160a01b0384166000908152600560205260409020546123b29067ffffffffffffffff7f00000000000000000000000000000000000000000000000000000000000000001690613466565b6001600160a01b0385166000908152600360205260409020546123d69087906134a7565b101561242e5760405162461bcd60e51b815260206004820152602160248201527f5769746864726177616c2065786365656473206c6576657261676564206361706044820152601760f91b6064820152608401610868565b6001600160a01b0380851660009081526008602090815260408083205460038352928190205481516318160ddd60e01b81529151939094169384936379cc679093339386926318160ddd92600480840193919291829003018186803b15801561249657600080fd5b505afa1580156124aa573d6000803e3d6000fd5b505050506040513d601f19601f820116820180604052508101906124ce9190613416565b6124d8908b613466565b6124e29190613485565b6040516001600160e01b031960e085901b1681526001600160a01b0390921660048301526024820152604401600060405180830381600087803b15801561252857600080fd5b505af115801561253c573d6000803e3d6000fd5b505050506001600160a01b03851660009081526003602052604081208054889290611c669084906134a7565b61271060005b600b548110156115a2576000600b828154811061258d5761258d613294565b60009182526020822001546001600160a01b031691506125d78467ffffffffffffffff7f000000000000000000000000000000000000000000000000000000000000000016613466565b6001600160a01b0383166000908152600360205260409020546125fb908790613466565b6126059190613485565b6001600160a01b0383166000908152600560205260409020549091508490612630906109c490613466565b61263a9190613485565b811115612674576001600160a01b0382166000908152600560205260409020548490612667908790613466565b6126719190613485565b90505b6001600160a01b0382166000908152600560205260408120805483929061269c9084906134a7565b90915550506001600160a01b038216600090815260036020526040812080548392906126c9908490613382565b909155505060408051868152602081018690529081018290526001600160a01b0383169087907f3173c1c4b679e2da86dbb0382bde749a6e16cd31912c5410e17985cd7d2b90529060600160405180910390a350508080612729906132c0565b91505061256e565b61271060005b600b548110156115a2576000600b828154811061275657612756613294565b60009182526020808320909101546001600160a01b031680835260059091526040822054909250849086906127b69067ffffffffffffffff7f00000000000000000000000000000000000000000000000000000000000000001690613466565b6127c09190613466565b6127ca9190613485565b6001600160a01b03831660009081526003602052604090205490915084906127f5906109c490613466565b6127ff9190613485565b811115612839576001600160a01b038216600090815260036020526040902054849061282c908790613466565b6128369190613485565b90505b6001600160a01b038216600090815260036020526040812080548392906128619084906134a7565b90915550506001600160a01b0382166000908152600560205260408120805483929061288e908490613382565b90915550506001600160a01b03821660008181526005602090815260409182902054825190815267ffffffffffffffff7f0000000000000000000000000000000000000000000000000000000000000000169181019190915290810183905287907f89385e9d619600da63726158403c0cfd9772b2cac90d3e093387a5456ee1a2479060600160405180910390a350508080612929906132c0565b915050612737565b600080612710612942601e86613466565b61294c9190613485565b9050600061271061295e600f87613466565b6129689190613485565b905061299061297f6000546001600160a01b031690565b6001600160a01b0386169084612a3d565b60025460408051638da5cb5b60e01b81529051612a1f926001600160a01b031691638da5cb5b916004808301926020929190829003018186803b1580156129d657600080fd5b505afa1580156129ea573d6000803e3d6000fd5b505050506040513d601f19601f82011682018060405250810190612a0e919061322a565b6001600160a01b0386169083612a3d565b80612a2a83876134a7565b612a3491906134a7565b95945050505050565b6040516001600160a01b03831660248201526044810182905261124b90849063a9059cbb60e01b906064015b60408051601f198184030181529190526020810180516001600160e01b03166001600160e01b031990931692909217909152612ad8565b6040516001600160a01b03808516602483015283166044820152606481018290526115a29085906323b872dd60e01b90608401612a69565b6000612b2d826040518060400160405280602081526020017f5361666545524332303a206c6f772d6c6576656c2063616c6c206661696c6564815250856001600160a01b0316612baa9092919063ffffffff16565b80519091501561124b5780806020019051810190612b4b91906130e8565b61124b5760405162461bcd60e51b815260206004820152602a60248201527f5361666545524332303a204552433230206f7065726174696f6e20646964206e6044820152691bdd081cdd58d8d9595960b21b6064820152608401610868565b6060612bb98484600085612bc3565b90505b9392505050565b606082471015612c245760405162461bcd60e51b815260206004820152602660248201527f416464726573733a20696e73756666696369656e742062616c616e636520666f6044820152651c8818d85b1b60d21b6064820152608401610868565b6001600160a01b0385163b612c7b5760405162461bcd60e51b815260206004820152601d60248201527f416464726573733a2063616c6c20746f206e6f6e2d636f6e74726163740000006044820152606401610868565b600080866001600160a01b03168587604051612c9791906134be565b60006040518083038185875af1925050503d8060008114612cd4576040519150601f19603f3d011682016040523d82523d6000602084013e612cd9565b606091505b5091509150612ce9828286612cf4565b979650505050505050565b60608315612d03575081612bbc565b825115612d135782518084602001fd5b8160405162461bcd60e51b81526004016108689190613018565b600060208284031215612d3f57600080fd5b5035919050565b6001600160a01b0381168114611a0c57600080fd5b600060208284031215612d6d57600080fd5b8135612bbc81612d46565b60008060408385031215612d8b57600080fd5b823591506020830135612d9d81612d46565b809150509250929050565b634e487b7160e01b600052602160045260246000fd5b838152602081018390526060810160038310612ddc57612ddc612da8565b826040830152949350505050565b60068110612dfa57612dfa612da8565b9052565b602081016107538284612dea565b634e487b7160e01b600052604160045260246000fd5b604051601f8201601f1916810167ffffffffffffffff81118282101715612e4b57612e4b612e0c565b604052919050565b60006020808385031215612e6657600080fd5b823567ffffffffffffffff80821115612e7e57600080fd5b818501915085601f830112612e9257600080fd5b813581811115612ea457612ea4612e0c565b8060051b9150612eb5848301612e22565b8181529183018401918481019088841115612ecf57600080fd5b938501935b83851015612ef95784359250612ee983612d46565b8282529385019390850190612ed4565b98975050505050505050565b60008060208385031215612f1857600080fd5b823567ffffffffffffffff80821115612f3057600080fd5b818501915085601f830112612f4457600080fd5b813581811115612f5357600080fd5b8660208260051b8501011115612f6857600080fd5b60209290920196919550909350505050565b600080600060608486031215612f8f57600080fd5b833592506020840135612fa181612d46565b9150604084013560028110612fb557600080fd5b809150509250925092565b60005b83811015612fdb578181015183820152602001612fc3565b838111156115a25750506000910152565b60008151808452613004816020860160208601612fc0565b601f01601f19169290920160200192915050565b602081526000612bbc6020830184612fec565b6000806040838503121561303e57600080fd5b50508035926020909101359150565b8051801515811461305d57600080fd5b919050565b60008060008060008060008060006101208a8c03121561308157600080fd5b8951985060208a0151975060408a0151965060608a0151955060808a0151945060a08a0151935060c08a0151925060e08a015167ffffffffffffffff811681146130ca57600080fd5b91506130d96101008b0161304d565b90509295985092959850929598565b6000602082840312156130fa57600080fd5b612bbc8261304d565b6020808252601a908201527f5468697320746f6b656e206973206e6f7420616c6c6f7765642e000000000000604082015260600190565b60006020828403121561314c57600080fd5b815167ffffffffffffffff8082111561316457600080fd5b818401915084601f83011261317857600080fd5b81518181111561318a5761318a612e0c565b61319d601f8201601f1916602001612e22565b91508082528560208285010111156131b457600080fd5b6131c5816020840160208601612fc0565b50949350505050565b6000602082840312156131e057600080fd5b815160ff81168114612bbc57600080fd5b6060815260006132046060830186612fec565b82810360208401526132168186612fec565b91505060ff83166040830152949350505050565b60006020828403121561323c57600080fd5b8151612bbc81612d46565b60808152600061325a6080830187612fec565b828103602084015261326c8187612fec565b905082810360408401526132808186612fec565b90508281036060840152612ce98185612fec565b634e487b7160e01b600052603260045260246000fd5b634e487b7160e01b600052601160045260246000fd5b60006000198214156132d4576132d46132aa565b5060010190565b604081016132e98285612dea565b6001600160801b03831660208301529392505050565b6000806040838503121561331257600080fd5b505080516020909101519092909150565b828152604081016002831061333a5761333a612da8565b8260208301529392505050565b600181811c9082168061335b57607f821691505b6020821081141561337c57634e487b7160e01b600052602260045260246000fd5b50919050565b60008219821115613395576133956132aa565b500190565b6000815480845260208085019450836000528060002060005b838110156133cf578154875295820195600191820191016133b3565b509495945050505050565b8481526001600160a01b03841660208201526080604082018190526000906134049083018561339a565b8281036060840152612ce9818561339a565b60006020828403121561342857600080fd5b5051919050565b6020808252601f908201527f5265656e7472616e637947756172643a207265656e7472616e742063616c6c00604082015260600190565b6000816000190483118215151615613480576134806132aa565b500290565b6000826134a257634e487b7160e01b600052601260045260246000fd5b500490565b6000828210156134b9576134b96132aa565b500390565b600082516134d0818460208701612fc0565b919091019291505056fea264697066735822122083d9ed6f903afe3af8234ec884cdb4217f0518fe39495ff03253ceda09048b4f64736f6c63430008090033a2646970667358221220e676ed5b60014f03642ea1c9295c4d388c55a8ccfbba17ae54038bff14e94a3f64736f6c63430008090033",
  "libraries": {
    "StringUtils": "0xc3247a8328a7299272f5897fe649667773b89e0c"
  },
  "devdoc": {
    "kind": "dev",
    "methods": {
      "allSLAs()": {
        "returns": {
          "_0": "array of SLAs"
        }
      },
      "checkPastPeriod()": {
        "returns": {
          "_0": "boolean that represent if it check the past periods or not"
        }
      },
      "constructor": {
        "params": {
          "checkPastPeriod_": "value to lock past periods on SLA deployment",
          "messengerRegistry_": "address of MessengerRegistry",
          "periodRegistry_": "address of PeriodRegistry",
          "sloRegistry_": "address of SLORegistry",
          "stakeRegistry_": "address of StakeRegistry"
        }
      },
      "createSLA(uint120,uint8,bool,address,uint8,uint128,uint128,string,uint256[],uint256[],uint64)": {
        "params": {
          "finalPeriodId_": "ending period id",
          "initialPeriodId_": "starting period id",
          "ipfsHash_": "ipfshash",
          "leverage_": "leverage",
          "messengerAddress_": "address of messenger",
          "penalty_": "penalty per severity level",
          "periodType_": "period type",
          "severity_": "severity",
          "sloType_": "slo type",
          "sloValue_": "slo value",
          "whitelisted_": "whitelist"
        }
      },
      "isRegisteredSLA(address)": {
        "params": {
          "_slaAddress": "address of SLA to check registration"
        },
        "returns": {
          "_0": "boolean of registration"
        }
      },
      "messengerRegistry()": {
        "returns": {
          "_0": "address of MessengerRegistry"
        }
      },
      "periodRegistry()": {
        "returns": {
          "_0": "address of PeriodRegistry"
        }
      },
      "registerMessenger(address,string)": {
        "params": {
          "_messengerAddress": "address of messenger to register",
          "_specificationUrl": "specification url of messenger"
        }
      },
      "requestSLI(uint256,address,bool)": {
        "details": "requested period should be finished && sla shouldn't be verified, and it distributes verification rewards to the caller",
        "params": {
          "_ownerApproval": "owner approval",
          "_periodId": "period id to request",
          "_sla": "address of SLA"
        }
      },
      "returnLockedValue(address)": {
        "details": "only SLA owner can call this function for only registered SLAs",
        "params": {
          "_sla": "address of SLA"
        }
      },
      "sloRegistry()": {
        "returns": {
          "_0": "address of SLORegistry"
        }
      },
      "stakeRegistry()": {
        "returns": {
          "_0": "address of StakeRegistry"
        }
      },
      "userSLAs(address)": {
        "params": {
          "_user": "user address"
        },
        "returns": {
          "SLAList": "an array of SLAs created by _user"
        }
      }
    },
    "title": "SLARegistry",
    "version": 1
  },
  "userdoc": {
    "events": {
      "ReturnLockedValue(address,address)": {
        "notice": "An event that is emitted when returning locked tokens back to sla owner"
      },
      "SLACreated(address,address)": {
        "notice": "An event that emitted when creating a new SLA"
      },
      "SLIRequested(uint256,address,address)": {
        "notice": "An event that is emitted when requesting SLI"
      }
    },
    "kind": "user",
    "methods": {
      "SLAs(uint256)": {
        "notice": "stores the addresses of created SLAs"
      },
      "allSLAs()": {
        "notice": "external view function that returns an array of all SLAs"
      },
      "checkPastPeriod()": {
        "notice": "external view function that returns the value to lock past periods on SLA deployment"
      },
      "constructor": {
        "notice": "Constructor"
      },
      "createSLA(uint120,uint8,bool,address,uint8,uint128,uint128,string,uint256[],uint256[],uint64)": {
        "notice": "function to create a new SLA"
      },
      "isRegisteredSLA(address)": {
        "notice": "public view function that returns if the sla is registered"
      },
      "messengerRegistry()": {
        "notice": "external view function that returns the address of MessengerRegistry"
      },
      "periodRegistry()": {
        "notice": "external view function that returns the address of PeriodRegistry"
      },
      "registerMessenger(address,string)": {
        "notice": "function to register a new messenger"
      },
      "requestSLI(uint256,address,bool)": {
        "notice": "function to request sli for specific period id"
      },
      "returnLockedValue(address)": {
        "notice": "function to return locked tokens back to sla owner"
      },
      "sloRegistry()": {
        "notice": "external view function that returns the address of SLORegistry"
      },
      "stakeRegistry()": {
        "notice": "external view function that returns the address of StakeRegistry"
      },
      "userSLAs(address)": {
        "notice": "external view function that returns SLAs created by user"
      }
    },
    "notice": "This is a registry contract that deploy SLAs and manage them",
    "version": 1
  },
  "storageLayout": {
    "storage": [
      {
        "astId": 8843,
        "contract": "@dsla-protocol/core/contracts/SLARegistry.sol:SLARegistry",
        "label": "_status",
        "offset": 0,
        "slot": "0",
        "type": "t_uint256"
      },
      {
        "astId": 4052,
        "contract": "@dsla-protocol/core/contracts/SLARegistry.sol:SLARegistry",
        "label": "_sloRegistry",
        "offset": 0,
        "slot": "1",
        "type": "t_address"
      },
      {
        "astId": 4055,
        "contract": "@dsla-protocol/core/contracts/SLARegistry.sol:SLARegistry",
        "label": "_periodRegistry",
        "offset": 0,
        "slot": "2",
        "type": "t_address"
      },
      {
        "astId": 4058,
        "contract": "@dsla-protocol/core/contracts/SLARegistry.sol:SLARegistry",
        "label": "_messengerRegistry",
        "offset": 0,
        "slot": "3",
        "type": "t_address"
      },
      {
        "astId": 4061,
        "contract": "@dsla-protocol/core/contracts/SLARegistry.sol:SLARegistry",
        "label": "_stakeRegistry",
        "offset": 0,
        "slot": "4",
        "type": "t_address"
      },
      {
        "astId": 4066,
        "contract": "@dsla-protocol/core/contracts/SLARegistry.sol:SLARegistry",
        "label": "SLAs",
        "offset": 0,
        "slot": "5",
        "type": "t_array(t_contract(SLA)4034)dyn_storage"
      },
      {
        "astId": 4072,
        "contract": "@dsla-protocol/core/contracts/SLARegistry.sol:SLARegistry",
        "label": "_userToSLAIndexes",
        "offset": 0,
        "slot": "6",
        "type": "t_mapping(t_address,t_array(t_uint256)dyn_storage)"
      },
      {
        "astId": 4077,
        "contract": "@dsla-protocol/core/contracts/SLARegistry.sol:SLARegistry",
        "label": "_registeredSLAs",
        "offset": 0,
        "slot": "7",
        "type": "t_mapping(t_address,t_bool)"
      }
    ],
    "types": {
      "t_address": {
        "encoding": "inplace",
        "label": "address",
        "numberOfBytes": "20"
      },
      "t_array(t_contract(SLA)4034)dyn_storage": {
        "base": "t_contract(SLA)4034",
        "encoding": "dynamic_array",
        "label": "contract SLA[]",
        "numberOfBytes": "32"
      },
      "t_array(t_uint256)dyn_storage": {
        "base": "t_uint256",
        "encoding": "dynamic_array",
        "label": "uint256[]",
        "numberOfBytes": "32"
      },
      "t_bool": {
        "encoding": "inplace",
        "label": "bool",
        "numberOfBytes": "1"
      },
      "t_contract(SLA)4034": {
        "encoding": "inplace",
        "label": "contract SLA",
        "numberOfBytes": "20"
      },
      "t_mapping(t_address,t_array(t_uint256)dyn_storage)": {
        "encoding": "mapping",
        "key": "t_address",
        "label": "mapping(address => uint256[])",
        "numberOfBytes": "32",
        "value": "t_array(t_uint256)dyn_storage"
      },
      "t_mapping(t_address,t_bool)": {
        "encoding": "mapping",
        "key": "t_address",
        "label": "mapping(address => bool)",
        "numberOfBytes": "32",
        "value": "t_bool"
      },
      "t_uint256": {
        "encoding": "inplace",
        "label": "uint256",
        "numberOfBytes": "32"
      }
    }
  }
}