{
  "address": "0xCe952191Fd641ec113bF56Fa6201Fc58bef5A752",
  "abi": [
    {
      "inputs": [
        {
          "internalType": "address",
          "name": "_dslaTokenAddress",
          "type": "address"
        }
      ],
      "stateMutability": "nonpayable",
      "type": "constructor"
    },
    {
      "anonymous": false,
      "inputs": [
        {
          "indexed": true,
          "internalType": "address",
          "name": "dTokenAddress",
          "type": "address"
        },
        {
          "indexed": true,
          "internalType": "address",
          "name": "sla",
          "type": "address"
        },
        {
          "indexed": false,
          "internalType": "string",
          "name": "name",
          "type": "string"
        },
        {
          "indexed": false,
          "internalType": "string",
          "name": "symbol",
          "type": "string"
        }
      ],
      "name": "DTokenCreated",
      "type": "event"
    },
    {
      "anonymous": false,
      "inputs": [
        {
          "indexed": true,
          "internalType": "address",
          "name": "sla",
          "type": "address"
        },
        {
          "indexed": true,
          "internalType": "address",
          "name": "owner",
          "type": "address"
        },
        {
          "indexed": false,
          "internalType": "uint256",
          "name": "amount",
          "type": "uint256"
        }
      ],
      "name": "LockedValueReturned",
      "type": "event"
    },
    {
      "anonymous": false,
      "inputs": [
        {
          "indexed": true,
          "internalType": "address",
          "name": "previousOwner",
          "type": "address"
        },
        {
          "indexed": true,
          "internalType": "address",
          "name": "newOwner",
          "type": "address"
        }
      ],
      "name": "OwnershipTransferred",
      "type": "event"
    },
    {
      "anonymous": false,
      "inputs": [
        {
          "indexed": false,
          "internalType": "uint256",
          "name": "DSLAburnRate",
          "type": "uint256"
        },
        {
          "indexed": false,
          "internalType": "uint256",
          "name": "dslaDepositByPeriod",
          "type": "uint256"
        },
        {
          "indexed": false,
          "internalType": "uint256",
          "name": "dslaPlatformReward",
          "type": "uint256"
        },
        {
          "indexed": false,
          "internalType": "uint256",
          "name": "dslaMessengerReward",
          "type": "uint256"
        },
        {
          "indexed": false,
          "internalType": "uint256",
          "name": "dslaUserReward",
          "type": "uint256"
        },
        {
          "indexed": false,
          "internalType": "uint256",
          "name": "dslaBurnedByVerification",
          "type": "uint256"
        },
        {
          "indexed": false,
          "internalType": "uint256",
          "name": "maxTokenLength",
          "type": "uint256"
        },
        {
          "indexed": false,
          "internalType": "uint64",
          "name": "maxLeverage",
          "type": "uint64"
        },
        {
          "indexed": false,
          "internalType": "bool",
          "name": "burnDSLA",
          "type": "bool"
        }
      ],
      "name": "StakingParametersModified",
      "type": "event"
    },
    {
      "anonymous": false,
      "inputs": [
        {
          "indexed": true,
          "internalType": "address",
          "name": "sla",
          "type": "address"
        },
        {
          "indexed": true,
          "internalType": "address",
          "name": "owner",
          "type": "address"
        },
        {
          "indexed": false,
          "internalType": "uint256",
          "name": "amount",
          "type": "uint256"
        }
      ],
      "name": "ValueLocked",
      "type": "event"
    },
    {
      "anonymous": false,
      "inputs": [
        {
          "indexed": true,
          "internalType": "address",
          "name": "sla",
          "type": "address"
        },
        {
          "indexed": true,
          "internalType": "address",
          "name": "requester",
          "type": "address"
        },
        {
          "indexed": false,
          "internalType": "uint256",
          "name": "userReward",
          "type": "uint256"
        },
        {
          "indexed": false,
          "internalType": "uint256",
          "name": "platformReward",
          "type": "uint256"
        },
        {
          "indexed": false,
          "internalType": "uint256",
          "name": "messengerReward",
          "type": "uint256"
        },
        {
          "indexed": false,
          "internalType": "uint256",
          "name": "burnedDSLA",
          "type": "uint256"
        }
      ],
      "name": "VerificationRewardDistributed",
      "type": "event"
    },
    {
      "inputs": [],
      "name": "DSLATokenAddress",
      "outputs": [
        {
          "internalType": "address",
          "name": "",
          "type": "address"
        }
      ],
      "stateMutability": "view",
      "type": "function"
    },
    {
      "inputs": [
        {
          "internalType": "address",
          "name": "_tokenAddress",
          "type": "address"
        }
      ],
      "name": "addAllowedTokens",
      "outputs": [],
      "stateMutability": "nonpayable",
      "type": "function"
    },
    {
      "inputs": [
        {
          "internalType": "uint256",
          "name": "",
          "type": "uint256"
        }
      ],
      "name": "allowedTokens",
      "outputs": [
        {
          "internalType": "address",
          "name": "",
          "type": "address"
        }
      ],
      "stateMutability": "view",
      "type": "function"
    },
    {
      "inputs": [
        {
          "internalType": "string",
          "name": "_name",
          "type": "string"
        },
        {
          "internalType": "string",
          "name": "_symbol",
          "type": "string"
        },
        {
          "internalType": "uint8",
          "name": "_decimals",
          "type": "uint8"
        }
      ],
      "name": "createDToken",
      "outputs": [
        {
          "internalType": "address",
          "name": "",
          "type": "address"
        }
      ],
      "stateMutability": "nonpayable",
      "type": "function"
    },
    {
      "inputs": [
        {
          "internalType": "address",
          "name": "_sla",
          "type": "address"
        },
        {
          "internalType": "address",
          "name": "_verificationRewardReceiver",
          "type": "address"
        },
        {
          "internalType": "uint256",
          "name": "_periodId",
          "type": "uint256"
        }
      ],
      "name": "distributeVerificationRewards",
      "outputs": [],
      "stateMutability": "nonpayable",
      "type": "function"
    },
    {
      "inputs": [],
      "name": "getStakingParameters",
      "outputs": [
        {
          "internalType": "uint256",
          "name": "DSLAburnRate",
          "type": "uint256"
        },
        {
          "internalType": "uint256",
          "name": "dslaDepositByPeriod",
          "type": "uint256"
        },
        {
          "internalType": "uint256",
          "name": "dslaPlatformReward",
          "type": "uint256"
        },
        {
          "internalType": "uint256",
          "name": "dslaMessengerReward",
          "type": "uint256"
        },
        {
          "internalType": "uint256",
          "name": "dslaUserReward",
          "type": "uint256"
        },
        {
          "internalType": "uint256",
          "name": "dslaBurnedByVerification",
          "type": "uint256"
        },
        {
          "internalType": "uint256",
          "name": "maxTokenLength",
          "type": "uint256"
        },
        {
          "internalType": "uint64",
          "name": "maxLeverage",
          "type": "uint64"
        },
        {
          "internalType": "bool",
          "name": "burnDSLA",
          "type": "bool"
        }
      ],
      "stateMutability": "view",
      "type": "function"
    },
    {
      "inputs": [
        {
          "internalType": "address",
          "name": "_tokenAddress",
          "type": "address"
        }
      ],
      "name": "isAllowedToken",
      "outputs": [
        {
          "internalType": "bool",
          "name": "",
          "type": "bool"
        }
      ],
      "stateMutability": "view",
      "type": "function"
    },
    {
      "inputs": [
        {
          "internalType": "address",
          "name": "_slaOwner",
          "type": "address"
        },
        {
          "internalType": "address",
          "name": "_sla",
          "type": "address"
        },
        {
          "internalType": "uint256",
          "name": "_periodIdsLength",
          "type": "uint256"
        }
      ],
      "name": "lockDSLAValue",
      "outputs": [],
      "stateMutability": "nonpayable",
      "type": "function"
    },
    {
      "inputs": [],
      "name": "owner",
      "outputs": [
        {
          "internalType": "address",
          "name": "",
          "type": "address"
        }
      ],
      "stateMutability": "view",
      "type": "function"
    },
    {
      "inputs": [
        {
          "internalType": "address",
          "name": "_sla",
          "type": "address"
        },
        {
          "internalType": "uint256",
          "name": "_periodId",
          "type": "uint256"
        }
      ],
      "name": "periodIsVerified",
      "outputs": [
        {
          "internalType": "bool",
          "name": "",
          "type": "bool"
        }
      ],
      "stateMutability": "view",
      "type": "function"
    },
    {
      "inputs": [
        {
          "internalType": "address",
          "name": "_owner",
          "type": "address"
        }
      ],
      "name": "registerStakedSla",
      "outputs": [
        {
          "internalType": "bool",
          "name": "",
          "type": "bool"
        }
      ],
      "stateMutability": "nonpayable",
      "type": "function"
    },
    {
      "inputs": [],
      "name": "renounceOwnership",
      "outputs": [],
      "stateMutability": "nonpayable",
      "type": "function"
    },
    {
      "inputs": [
        {
          "internalType": "address",
          "name": "_sla",
          "type": "address"
        }
      ],
      "name": "returnLockedValue",
      "outputs": [],
      "stateMutability": "nonpayable",
      "type": "function"
    },
    {
      "inputs": [],
      "name": "setSLARegistry",
      "outputs": [],
      "stateMutability": "nonpayable",
      "type": "function"
    },
    {
      "inputs": [
        {
          "internalType": "uint256",
          "name": "DSLAburnRate",
          "type": "uint256"
        },
        {
          "internalType": "uint256",
          "name": "dslaDepositByPeriod",
          "type": "uint256"
        },
        {
          "internalType": "uint256",
          "name": "dslaPlatformReward",
          "type": "uint256"
        },
        {
          "internalType": "uint256",
          "name": "dslaMessengerReward",
          "type": "uint256"
        },
        {
          "internalType": "uint256",
          "name": "dslaUserReward",
          "type": "uint256"
        },
        {
          "internalType": "uint256",
          "name": "dslaBurnedByVerification",
          "type": "uint256"
        },
        {
          "internalType": "uint256",
          "name": "maxTokenLength",
          "type": "uint256"
        },
        {
          "internalType": "uint64",
          "name": "maxLeverage",
          "type": "uint64"
        },
        {
          "internalType": "bool",
          "name": "burnDSLA",
          "type": "bool"
        }
      ],
      "name": "setStakingParameters",
      "outputs": [],
      "stateMutability": "nonpayable",
      "type": "function"
    },
    {
      "inputs": [
        {
          "internalType": "address",
          "name": "",
          "type": "address"
        }
      ],
      "name": "slaLockedValue",
      "outputs": [
        {
          "internalType": "uint256",
          "name": "lockedValue",
          "type": "uint256"
        },
        {
          "internalType": "uint256",
          "name": "slaPeriodIdsLength",
          "type": "uint256"
        },
        {
          "internalType": "uint256",
          "name": "dslaDepositByPeriod",
          "type": "uint256"
        },
        {
          "internalType": "uint256",
          "name": "dslaPlatformReward",
          "type": "uint256"
        },
        {
          "internalType": "uint256",
          "name": "dslaMessengerReward",
          "type": "uint256"
        },
        {
          "internalType": "uint256",
          "name": "dslaUserReward",
          "type": "uint256"
        },
        {
          "internalType": "uint256",
          "name": "dslaBurnedByVerification",
          "type": "uint256"
        }
      ],
      "stateMutability": "view",
      "type": "function"
    },
    {
      "inputs": [],
      "name": "slaRegistry",
      "outputs": [
        {
          "internalType": "contract ISLARegistry",
          "name": "",
          "type": "address"
        }
      ],
      "stateMutability": "view",
      "type": "function"
    },
    {
      "inputs": [
        {
          "internalType": "address",
          "name": "_user",
          "type": "address"
        },
        {
          "internalType": "address",
          "name": "_sla",
          "type": "address"
        }
      ],
      "name": "slaWasStakedByUser",
      "outputs": [
        {
          "internalType": "bool",
          "name": "",
          "type": "bool"
        }
      ],
      "stateMutability": "view",
      "type": "function"
    },
    {
      "inputs": [
        {
          "internalType": "address",
          "name": "newOwner",
          "type": "address"
        }
      ],
      "name": "transferOwnership",
      "outputs": [],
      "stateMutability": "nonpayable",
      "type": "function"
    },
    {
      "inputs": [
        {
          "internalType": "address",
          "name": "",
          "type": "address"
        },
        {
          "internalType": "address",
          "name": "",
          "type": "address"
        }
      ],
      "name": "userStakedSlas",
      "outputs": [
        {
          "internalType": "bool",
          "name": "",
          "type": "bool"
        }
      ],
      "stateMutability": "view",
      "type": "function"
    }
  ],
  "transactionHash": "0xcb7db51d2a4254256e97486a60d12c3a075f13d64c30cdd8cd748eb22344905b",
  "args": [
    "0xa0E390e9ceA0D0e8cd40048ced9fA9EA10D71639"
  ],
  "solcInputHash": "b47b1da8947805f3b521fd14a441e1c8",
  "bytecode": "0x60806040526003600455683635c9adc5dea00000600655680d8d726b7177a80000600781905560088190556009819055600a556001600b55600c80546001600160481b031916680100000000000000641790553480156200005f57600080fd5b5060405162003ca038038062003ca0833981016040819052620000829162000237565b60016000556200009233620001e5565b6001600160a01b038116620000ee5760405162461bcd60e51b815260206004820152601a60248201527f696e76616c69642044534c4120746f6b656e206164647265737300000000000060448201526064015b60405180910390fd5b600a5460095460085460075462000106919062000269565b62000112919062000269565b6200011e919062000269565b60065414620001855760405162461bcd60e51b815260206004820152602c60248201527f5374616b696e6720706172616d65746572732073686f756c64206d617463682060448201526b37b71039bab6b6b0ba34b7b760a11b6064820152608401620000e5565b600280546001600160a01b039092166001600160a01b03199283168117909155600d80546001810182556000919091527fd7b6990105719101dabeb77144f2a3385c8033acd3af97e9423a695e81ad1eb501805490921617905562000290565b600180546001600160a01b038381166001600160a01b0319831681179093556040519116919082907f8be0079c531659141344cd1fd0a4f28419497f9722a3daafe3b4186f6b6457e090600090a35050565b6000602082840312156200024a57600080fd5b81516001600160a01b03811681146200026257600080fd5b9392505050565b600082198211156200028b57634e487b7160e01b600052601160045260246000fd5b500190565b613a0080620002a06000396000f3fe60806040523480156200001157600080fd5b5060043610620001455760003560e01c80638b8e530911620000bb578063cbe230c3116200007a578063cbe230c31462000391578063db69a46214620003a8578063f2fde38b14620003bc578063f388158914620003d3578063f700839e14620003dd57600080fd5b80638b8e530914620003075780638d9cc7ed14620003195780638da5cb5b1462000330578063ab9a81a5146200033a578063b290508e146200037a57600080fd5b806340c71f0f116200010857806340c71f0f14620002165780635e5f2e2614620002465780635f635ce1146200025d578063715018a614620002e65780637afb4c0a14620002f057600080fd5b80630df0bfc6146200014a578063171e44ea146200019e57806322f3c33c14620001b75780632575d7ca14620001ce57806328eca2cf14620001e5575b600080fd5b620001896200015b3660046200167c565b6001600160a01b039182166000908152600e6020908152604080832093909416825291909152205460ff1690565b60405190151581526020015b60405180910390f35b620001b5620001af366004620016ba565b62000422565b005b620001b5620001c8366004620016da565b620004e8565b620001b5620001df366004620016ba565b620008da565b62000189620001f63660046200167c565b600e60209081526000928352604080842090915290825290205460ff1681565b6200022d620002273660046200176c565b62000af5565b6040516001600160a01b03909116815260200162000195565b6200022d62000257366004620017fe565b62000d3d565b620002b06200026e366004620016ba565b60056020528060005260406000206000915090508060000154908060010154908060020154908060030154908060040154908060050154908060060154905087565b604080519788526020880196909652948601939093526060850191909152608084015260a083015260c082015260e00162000195565b620001b562000d68565b620001b562000301366004620016da565b62000d80565b6002546001600160a01b03166200022d565b620001b56200032a36600462001827565b62000e9d565b6200022d62000fd5565b620001896200034b366004620018b5565b6001600160a01b0391909116600090815260056020908152604080832093835260079093019052205460ff1690565b620001896200038b366004620016ba565b62000fef565b62000189620003a2366004620016ba565b6200111b565b6003546200022d906001600160a01b031681565b620001b5620003cd366004620016ba565b6200118d565b620001b56200120c565b600454600654600754600854600954600a54600b54600c5467ffffffffffffffff811690600160401b900460ff166040516200019599989796959493929190620018e4565b6200042c6200128c565b62000437816200111b565b15620004965760405162461bcd60e51b8152602060048201526024808201527f5468697320746f6b656e20686173206265656e20616c6c6f77656420616c726560448201526330b23c9760e11b60648201526084015b60405180910390fd5b600d80546001810182556000919091527fd7b6990105719101dabeb77144f2a3385c8033acd3af97e9423a695e81ad1eb50180546001600160a01b0319166001600160a01b0392909216919091179055565b6003546001600160a01b03163314620005155760405162461bcd60e51b81526004016200048d906200192f565b600260005414156200053b5760405162461bcd60e51b81526004016200048d9062001970565b600260009081556001600160a01b0384168152600560209081526040808320848452600781019092529091205460ff1615620005c55760405162461bcd60e51b815260206004820152602260248201527f506572696f64207265776172647320616c726561647920646973747269627574604482015261195960f21b60648201526084016200048d565b60008281526007820160205260408120805460ff191660011790556002820154825490918391620005f8908490620019bd565b909155505060058101546002546200061e916001600160a01b03909116908590620012ef565b620006456200062c62000fd5565b60038301546002546001600160a01b03169190620012ef565b6200074b846001600160a01b031663a224ee9c6040518163ffffffff1660e01b815260040160206040518083038186803b1580156200068357600080fd5b505afa15801562000698573d6000803e3d6000fd5b505050506040513d601f19601f82011682018060405250810190620006be9190620019d7565b6001600160a01b0316638da5cb5b6040518163ffffffff1660e01b815260040160206040518083038186803b158015620006f757600080fd5b505afa1580156200070c573d6000803e3d6000fd5b505050506040513d601f19601f82011682018060405250810190620007329190620019d7565b60048301546002546001600160a01b03169190620012ef565b600c54600160401b900460ff16156200086657600254604080518082018252600d81526c6275726e2875696e743235362960981b6020918201526006840154825160248082019290925283518082039092018252604401835290810180516001600160e01b0316630852cd8d60e31b17905290516000926001600160a01b031691620007d79162001a26565b6000604051808303816000865af19150503d806000811462000816576040519150601f19603f3d011682016040523d82523d6000602084013e6200081b565b606091505b5050905080620008645760405162461bcd60e51b8152602060048201526013602482015272189d5c9b881c1c9bd8d95cdcc819985a5b1959606a1b60448201526064016200048d565b505b60058101546003820154600483015460068401546040805194855260208501939093529183015260608201526001600160a01b0380851691908616907f826cb0a7342bbb8cfd359b578a84d13c8d382259a596846313632ea4f8a9e0df9060800160405180910390a3505060016000555050565b6003546001600160a01b03163314620009075760405162461bcd60e51b81526004016200048d906200192f565b600260005414156200092d5760405162461bcd60e51b81526004016200048d9062001970565b600260009081556001600160a01b0382168152600560205260409020805480620009925760405162461bcd60e51b81526020600482015260156024820152746c6f636b65642076616c756520697320656d70747960581b60448201526064016200048d565b6000826000018190555062000a29836001600160a01b0316638da5cb5b6040518163ffffffff1660e01b815260040160206040518083038186803b158015620009da57600080fd5b505afa158015620009ef573d6000803e3d6000fd5b505050506040513d601f19601f8201168201806040525081019062000a159190620019d7565b6002546001600160a01b03169083620012ef565b826001600160a01b0316638da5cb5b6040518163ffffffff1660e01b815260040160206040518083038186803b15801562000a6357600080fd5b505afa15801562000a78573d6000803e3d6000fd5b505050506040513d601f19601f8201168201806040525081019062000a9e9190620019d7565b6001600160a01b0316836001600160a01b03167f526b43222b64bfcfeed3563208adb6adf96643dbe2b032bf8c1db565f648066b8360405162000ae391815260200190565b60405180910390a35050600160005550565b60035460405163c4277a7b60e01b81523360048201526000916001600160a01b03169063c4277a7b9060240160206040518083038186803b15801562000b3a57600080fd5b505afa15801562000b4f573d6000803e3d6000fd5b505050506040513d601f19601f8201168201806040525081019062000b75919062001a44565b62000bbe5760405162461bcd60e51b81526020600482015260186024820152774f6e6c7920666f72207265676973746572656420534c417360401b60448201526064016200048d565b6000868686868660405162000bd39062001658565b62000be395949392919062001a8d565b604051809103906000f08015801562000c00573d6000803e3d6000fd5b509050806001600160a01b0316632f2ff15d826001600160a01b031663d53913936040518163ffffffff1660e01b815260040160206040518083038186803b15801562000c4c57600080fd5b505afa15801562000c61573d6000803e3d6000fd5b505050506040513d601f19601f8201168201806040525081019062000c87919062001ace565b6040516001600160e01b031960e084901b1681526004810191909152336024820152604401600060405180830381600087803b15801562000cc757600080fd5b505af115801562000cdc573d6000803e3d6000fd5b50505050336001600160a01b0316816001600160a01b03167f775642c5d9d0b2d22469762e2d60401339c2c949c17073f300875b9d519542d58989898960405162000d2b949392919062001ae8565b60405180910390a39695505050505050565b600d818154811062000d4e57600080fd5b6000918252602090912001546001600160a01b0316905081565b62000d726200128c565b62000d7e600062001359565b565b6003546001600160a01b0316331462000dad5760405162461bcd60e51b81526004016200048d906200192f565b6002600054141562000dd35760405162461bcd60e51b81526004016200048d9062001970565b6002600090815560065462000dea90839062001b13565b60025490915062000e07906001600160a01b0316853084620013ab565b6001600160a01b03838116600081815260056020818152604092839020868155600181018890556006805460028301556007546003830155600854600483015560095493820193909355600a549281019290925591518581529093881692917fbed8b484d876a51d8bc97cdb1cf64b989bd09f01fa27c956ed58b2eebc7524d9910160405180910390a350506001600055505050565b62000ea76200128c565b60048990556006889055600787905560088690556009859055600a849055600b839055600c8054821515600160401b0268ffffffffffffffffff1990911667ffffffffffffffff851617179055838562000f02888a62001b35565b62000f0e919062001b35565b62000f1a919062001b35565b6006541462000f815760405162461bcd60e51b815260206004820152602c60248201527f5374616b696e6720706172616d65746572732073686f756c64206d617463682060448201526b37b71039bab6b6b0ba34b7b760a11b60648201526084016200048d565b7f6f8c694dce70811f9682da311aef04650917bf4c3dd5d6b925c37ceb49074c6f89898989898989898960405162000fc299989796959493929190620018e4565b60405180910390a1505050505050505050565b600062000fea6001546001600160a01b031690565b905090565b60035460405163c4277a7b60e01b81523360048201526000916001600160a01b03169063c4277a7b9060240160206040518083038186803b1580156200103457600080fd5b505afa15801562001049573d6000803e3d6000fd5b505050506040513d601f19601f820116820180604052508101906200106f919062001a44565b620010b85760405162461bcd60e51b81526020600482015260186024820152774f6e6c7920666f72207265676973746572656420534c417360401b60448201526064016200048d565b6001600160a01b0382166000908152600e6020908152604080832033845290915290205460ff1662001113576001600160a01b0382166000908152600e602090815260408083203384529091529020805460ff191660011790555b506001919050565b6000805b600d548110156200118457826001600160a01b0316600d82815481106200114a576200114a62001b50565b6000918252602090912001546001600160a01b031614156200116f5750600192915050565b806200117b8162001b66565b9150506200111f565b50600092915050565b620011976200128c565b6001600160a01b038116620011fe5760405162461bcd60e51b815260206004820152602660248201527f4f776e61626c653a206e6577206f776e657220697320746865207a65726f206160448201526564647265737360d01b60648201526084016200048d565b620012098162001359565b50565b6003546001600160a01b031615620012785760405162461bcd60e51b815260206004820152602860248201527f534c41526567697374727920616464726573732068617320616c7265616479206044820152671899595b881cd95d60c21b60648201526084016200048d565b600380546001600160a01b03191633179055565b336200129762000fd5565b6001600160a01b03161462000d7e5760405162461bcd60e51b815260206004820181905260248201527f4f776e61626c653a2063616c6c6572206973206e6f7420746865206f776e657260448201526064016200048d565b6040516001600160a01b0383166024820152604481018290526200135490849063a9059cbb60e01b906064015b60408051601f198184030181529190526020810180516001600160e01b03166001600160e01b031990931692909217909152620013eb565b505050565b600180546001600160a01b038381166001600160a01b0319831681179093556040519116919082907f8be0079c531659141344cd1fd0a4f28419497f9722a3daafe3b4186f6b6457e090600090a35050565b6040516001600160a01b0380851660248301528316604482015260648101829052620013e59085906323b872dd60e01b906084016200131c565b50505050565b600062001442826040518060400160405280602081526020017f5361666545524332303a206c6f772d6c6576656c2063616c6c206661696c6564815250856001600160a01b0316620014c49092919063ffffffff16565b80519091501562001354578080602001905181019062001463919062001a44565b620013545760405162461bcd60e51b815260206004820152602a60248201527f5361666545524332303a204552433230206f7065726174696f6e20646964206e6044820152691bdd081cdd58d8d9595960b21b60648201526084016200048d565b6060620014d58484600085620014df565b90505b9392505050565b606082471015620015425760405162461bcd60e51b815260206004820152602660248201527f416464726573733a20696e73756666696369656e742062616c616e636520666f6044820152651c8818d85b1b60d21b60648201526084016200048d565b6001600160a01b0385163b6200159b5760405162461bcd60e51b815260206004820152601d60248201527f416464726573733a2063616c6c20746f206e6f6e2d636f6e747261637400000060448201526064016200048d565b600080866001600160a01b03168587604051620015b9919062001a26565b60006040518083038185875af1925050503d8060008114620015f8576040519150601f19603f3d011682016040523d82523d6000602084013e620015fd565b606091505b50915091506200160f8282866200161a565b979650505050505050565b606083156200162b575081620014d8565b8251156200163c5782518084602001fd5b8160405162461bcd60e51b81526004016200048d919062001b84565b611e118062001bba83390190565b6001600160a01b03811681146200120957600080fd5b600080604083850312156200169057600080fd5b82356200169d8162001666565b91506020830135620016af8162001666565b809150509250929050565b600060208284031215620016cd57600080fd5b8135620014d88162001666565b600080600060608486031215620016f057600080fd5b8335620016fd8162001666565b925060208401356200170f8162001666565b929592945050506040919091013590565b60008083601f8401126200173357600080fd5b50813567ffffffffffffffff8111156200174c57600080fd5b6020830191508360208285010111156200176557600080fd5b9250929050565b6000806000806000606086880312156200178557600080fd5b853567ffffffffffffffff808211156200179e57600080fd5b620017ac89838a0162001720565b90975095506020880135915080821115620017c657600080fd5b50620017d58882890162001720565b909450925050604086013560ff81168114620017f057600080fd5b809150509295509295909350565b6000602082840312156200181157600080fd5b5035919050565b80151581146200120957600080fd5b60008060008060008060008060006101208a8c0312156200184757600080fd5b8935985060208a0135975060408a0135965060608a0135955060808a0135945060a08a0135935060c08a0135925060e08a013567ffffffffffffffff811681146200189157600080fd5b91506101008a0135620018a48162001818565b809150509295985092959850929598565b60008060408385031215620018c957600080fd5b8235620018d68162001666565b946020939093013593505050565b988952602089019790975260408801959095526060870193909352608086019190915260a085015260c084015267ffffffffffffffff1660e083015215156101008201526101200190565b60208082526021908201527f43616e206f6e6c792062652063616c6c656420627920534c41526567697374726040820152607960f81b606082015260800190565b6020808252601f908201527f5265656e7472616e637947756172643a207265656e7472616e742063616c6c00604082015260600190565b634e487b7160e01b600052601160045260246000fd5b600082821015620019d257620019d2620019a7565b500390565b600060208284031215620019ea57600080fd5b8151620014d88162001666565b60005b8381101562001a14578181015183820152602001620019fa565b83811115620013e55750506000910152565b6000825162001a3a818460208701620019f7565b9190910192915050565b60006020828403121562001a5757600080fd5b8151620014d88162001818565b81835281816020850137506000828201602090810191909152601f909101601f19169091010190565b60608152600062001aa360608301878962001a64565b828103602084015262001ab881868862001a64565b91505060ff831660408301529695505050505050565b60006020828403121562001ae157600080fd5b5051919050565b60408152600062001afe60408301868862001a64565b82810360208401526200160f81858762001a64565b600081600019048311821515161562001b305762001b30620019a7565b500290565b6000821982111562001b4b5762001b4b620019a7565b500190565b634e487b7160e01b600052603260045260246000fd5b600060001982141562001b7d5762001b7d620019a7565b5060010190565b602081526000825180602084015262001ba5816040850160208701620019f7565b601f01601f1916919091016040019291505056fe60806040523480156200001157600080fd5b5060405162001e1138038062001e118339810160408190526200003491620003f7565b8282818181600590805190602001906200005092919062000284565b5080516200006690600690602084019062000284565b50506007805460ff1916905550620000806000336200011f565b6200009b60008051602062001df1833981519152336200011f565b620000b660008051602062001dd1833981519152336200011f565b50620000c690506000336200011f565b620000e160008051602062001df1833981519152336200011f565b620000fc60008051602062001dd1833981519152336200011f565b6007805460ff9092166101000261ff001990921691909117905550620004b99050565b6200012b82826200012f565b5050565b6200014682826200017260201b6200094b1760201c565b60008281526001602090815260409091206200016d918390620009cf62000212821b17901c565b505050565b6000828152602081815260408083206001600160a01b038516845290915290205460ff166200012b576000828152602081815260408083206001600160a01b03851684529091529020805460ff19166001179055620001ce3390565b6001600160a01b0316816001600160a01b0316837f2f8788117e7eff1d82e926ec794901d17c78024a50270940304540a733656f0d60405160405180910390a45050565b600062000229836001600160a01b03841662000232565b90505b92915050565b60008181526001830160205260408120546200027b575081546001818101845560008481526020808220909301849055845484825282860190935260409020919091556200022c565b5060006200022c565b82805462000292906200047c565b90600052602060002090601f016020900481019282620002b6576000855562000301565b82601f10620002d157805160ff191683800117855562000301565b8280016001018555821562000301579182015b8281111562000301578251825591602001919060010190620002e4565b506200030f92915062000313565b5090565b5b808211156200030f576000815560010162000314565b634e487b7160e01b600052604160045260246000fd5b600082601f8301126200035257600080fd5b81516001600160401b03808211156200036f576200036f6200032a565b604051601f8301601f19908116603f011681019082821181831017156200039a576200039a6200032a565b81604052838152602092508683858801011115620003b757600080fd5b600091505b83821015620003db5785820183015181830184015290820190620003bc565b83821115620003ed5760008385830101525b9695505050505050565b6000806000606084860312156200040d57600080fd5b83516001600160401b03808211156200042557600080fd5b620004338783880162000340565b945060208601519150808211156200044a57600080fd5b50620004598682870162000340565b925050604084015160ff811681146200047157600080fd5b809150509250925092565b600181811c908216806200049157607f821691505b60208210811415620004b357634e487b7160e01b600052602260045260246000fd5b50919050565b61190880620004c96000396000f3fe608060405234801561001057600080fd5b50600436106101c45760003560e01c806370a08231116100f9578063a457c2d711610097578063d539139311610071578063d5391393146103bd578063d547741f146103e4578063dd62ed3e146103f7578063e63ab1e91461040a57600080fd5b8063a457c2d714610384578063a9059cbb14610397578063ca15c873146103aa57600080fd5b80639010d07c116100d35780639010d07c1461033657806391d148541461036157806395d89b4114610374578063a217fddf1461037c57600080fd5b806370a08231146102f257806379cc67901461031b5780638456cb591461032e57600080fd5b8063313ce567116101665780633f4ba83a116101405780633f4ba83a146102b957806340c10f19146102c157806342966c68146102d45780635c975abb146102e757600080fd5b8063313ce5671461027657806336568abe1461029357806339509351146102a657600080fd5b806318160ddd116101a257806318160ddd1461021957806323b872dd1461022b578063248a9ca31461023e5780632f2ff15d1461026157600080fd5b806301ffc9a7146101c957806306fdde03146101f1578063095ea7b314610206575b600080fd5b6101dc6101d73660046115ae565b610431565b60405190151581526020015b60405180910390f35b6101f961045c565b6040516101e89190611604565b6101dc610214366004611653565b6104ee565b6004545b6040519081526020016101e8565b6101dc61023936600461167d565b610506565b61021d61024c3660046116b9565b60009081526020819052604090206001015490565b61027461026f3660046116d2565b61052a565b005b600754610100900460ff1660405160ff90911681526020016101e8565b6102746102a13660046116d2565b610554565b6101dc6102b4366004611653565b6105d7565b6102746105f9565b6102746102cf366004611653565b61069f565b6102746102e23660046116b9565b61073e565b60075460ff166101dc565b61021d6103003660046116fe565b6001600160a01b031660009081526002602052604090205490565b610274610329366004611653565b61074b565b610274610760565b610349610344366004611719565b610804565b6040516001600160a01b0390911681526020016101e8565b6101dc61036f3660046116d2565b610823565b6101f961084c565b61021d600081565b6101dc610392366004611653565b61085b565b6101dc6103a5366004611653565b6108d6565b61021d6103b83660046116b9565b6108e4565b61021d7f9f2df0fed2c77648de5860a4cc508cd0818c85b8b8a1ab4ceeef8d981c8956a681565b6102746103f23660046116d2565b6108fb565b61021d61040536600461173b565b610920565b61021d7f65d7a28e3265b37a6474929f336521b332c1681b933f6cb9f3376673440d862a81565b60006001600160e01b03198216635a05180f60e01b14806104565750610456826109e4565b92915050565b60606005805461046b90611765565b80601f016020809104026020016040519081016040528092919081815260200182805461049790611765565b80156104e45780601f106104b9576101008083540402835291602001916104e4565b820191906000526020600020905b8154815290600101906020018083116104c757829003601f168201915b5050505050905090565b6000336104fc818585610a19565b5060019392505050565b600033610514858285610b3d565b61051f858585610bb7565b506001949350505050565b60008281526020819052604090206001015461054581610d90565b61054f8383610d9a565b505050565b6001600160a01b03811633146105c95760405162461bcd60e51b815260206004820152602f60248201527f416363657373436f6e74726f6c3a2063616e206f6e6c792072656e6f756e636560448201526e103937b632b9903337b91039b2b63360891b60648201526084015b60405180910390fd5b6105d38282610dbc565b5050565b6000336104fc8185856105ea8383610920565b6105f491906117b6565b610a19565b6106237f65d7a28e3265b37a6474929f336521b332c1681b933f6cb9f3376673440d862a33610823565b6106955760405162461bcd60e51b815260206004820152603960248201527f45524332305072657365744d696e7465725061757365723a206d75737420686160448201527f76652070617573657220726f6c6520746f20756e70617573650000000000000060648201526084016105c0565b61069d610dde565b565b6106c97f9f2df0fed2c77648de5860a4cc508cd0818c85b8b8a1ab4ceeef8d981c8956a633610823565b6107345760405162461bcd60e51b815260206004820152603660248201527f45524332305072657365744d696e7465725061757365723a206d7573742068616044820152751d99481b5a5b9d195c881c9bdb19481d1bc81b5a5b9d60521b60648201526084016105c0565b6105d38282610e30565b6107483382610f1b565b50565b610756823383610b3d565b6105d38282610f1b565b61078a7f65d7a28e3265b37a6474929f336521b332c1681b933f6cb9f3376673440d862a33610823565b6107fc5760405162461bcd60e51b815260206004820152603760248201527f45524332305072657365744d696e7465725061757365723a206d75737420686160448201527f76652070617573657220726f6c6520746f20706175736500000000000000000060648201526084016105c0565b61069d611075565b600082815260016020526040812061081c90836110b2565b9392505050565b6000918252602082815260408084206001600160a01b0393909316845291905290205460ff1690565b60606006805461046b90611765565b600033816108698286610920565b9050838110156108c95760405162461bcd60e51b815260206004820152602560248201527f45524332303a2064656372656173656420616c6c6f77616e63652062656c6f77604482015264207a65726f60d81b60648201526084016105c0565b61051f8286868403610a19565b6000336104fc818585610bb7565b6000818152600160205260408120610456906110be565b60008281526020819052604090206001015461091681610d90565b61054f8383610dbc565b6001600160a01b03918216600090815260036020908152604080832093909416825291909152205490565b6109558282610823565b6105d3576000828152602081815260408083206001600160a01b03851684529091529020805460ff1916600117905561098b3390565b6001600160a01b0316816001600160a01b0316837f2f8788117e7eff1d82e926ec794901d17c78024a50270940304540a733656f0d60405160405180910390a45050565b600061081c836001600160a01b0384166110c8565b60006001600160e01b03198216637965db0b60e01b148061045657506301ffc9a760e01b6001600160e01b0319831614610456565b6001600160a01b038316610a7b5760405162461bcd60e51b8152602060048201526024808201527f45524332303a20617070726f76652066726f6d20746865207a65726f206164646044820152637265737360e01b60648201526084016105c0565b6001600160a01b038216610adc5760405162461bcd60e51b815260206004820152602260248201527f45524332303a20617070726f766520746f20746865207a65726f206164647265604482015261737360f01b60648201526084016105c0565b6001600160a01b0383811660008181526003602090815260408083209487168084529482529182902085905590518481527f8c5be1e5ebec7d5bd14f71427d1e84f3dd0314c0f7b2291e5b200ac8c7c3b925910160405180910390a3505050565b6000610b498484610920565b90506000198114610bb15781811015610ba45760405162461bcd60e51b815260206004820152601d60248201527f45524332303a20696e73756666696369656e7420616c6c6f77616e636500000060448201526064016105c0565b610bb18484848403610a19565b50505050565b6001600160a01b038316610c1b5760405162461bcd60e51b815260206004820152602560248201527f45524332303a207472616e736665722066726f6d20746865207a65726f206164604482015264647265737360d81b60648201526084016105c0565b6001600160a01b038216610c7d5760405162461bcd60e51b815260206004820152602360248201527f45524332303a207472616e7366657220746f20746865207a65726f206164647260448201526265737360e81b60648201526084016105c0565b610c88838383611117565b6001600160a01b03831660009081526002602052604090205481811015610d005760405162461bcd60e51b815260206004820152602660248201527f45524332303a207472616e7366657220616d6f756e7420657863656564732062604482015265616c616e636560d01b60648201526084016105c0565b6001600160a01b03808516600090815260026020526040808220858503905591851681529081208054849290610d379084906117b6565b92505081905550826001600160a01b0316846001600160a01b03167fddf252ad1be2c89b69c2b068fc378daa952ba7f163c4a11628f55a4df523b3ef84604051610d8391815260200190565b60405180910390a3610bb1565b6107488133611122565b610da4828261094b565b600082815260016020526040902061054f90826109cf565b610dc68282611186565b600082815260016020526040902061054f90826111eb565b610de6611200565b6007805460ff191690557f5db9ee0a495bf2e6ff9c91a7834c1ba4fdd244a5e8aa4e537bd38aeae4b073aa335b6040516001600160a01b03909116815260200160405180910390a1565b6001600160a01b038216610e865760405162461bcd60e51b815260206004820152601f60248201527f45524332303a206d696e7420746f20746865207a65726f20616464726573730060448201526064016105c0565b610e9260008383611117565b8060046000828254610ea491906117b6565b90915550506001600160a01b03821660009081526002602052604081208054839290610ed19084906117b6565b90915550506040518181526001600160a01b038316906000907fddf252ad1be2c89b69c2b068fc378daa952ba7f163c4a11628f55a4df523b3ef9060200160405180910390a35050565b6001600160a01b038216610f7b5760405162461bcd60e51b815260206004820152602160248201527f45524332303a206275726e2066726f6d20746865207a65726f206164647265736044820152607360f81b60648201526084016105c0565b610f8782600083611117565b6001600160a01b03821660009081526002602052604090205481811015610ffb5760405162461bcd60e51b815260206004820152602260248201527f45524332303a206275726e20616d6f756e7420657863656564732062616c616e604482015261636560f01b60648201526084016105c0565b6001600160a01b038316600090815260026020526040812083830390556004805484929061102a9084906117ce565b90915550506040518281526000906001600160a01b038516907fddf252ad1be2c89b69c2b068fc378daa952ba7f163c4a11628f55a4df523b3ef9060200160405180910390a3505050565b61107d611249565b6007805460ff191660011790557f62e78cea01bee320cd4e420270b5ea74000d11b0c9f74754ebdbfc544b05a258610e133390565b600061081c838361128f565b6000610456825490565b600081815260018301602052604081205461110f57508154600181810184556000848152602080822090930184905584548482528286019093526040902091909155610456565b506000610456565b61054f8383836112b9565b61112c8282610823565b6105d357611144816001600160a01b0316601461131f565b61114f83602061131f565b6040516020016111609291906117e5565b60408051601f198184030181529082905262461bcd60e51b82526105c091600401611604565b6111908282610823565b156105d3576000828152602081815260408083206001600160a01b0385168085529252808320805460ff1916905551339285917ff6391f5c32d9c69d2a47ea670b442974b53935d1edc7fd64eb21e047a839171b9190a45050565b600061081c836001600160a01b0384166114bb565b60075460ff1661069d5760405162461bcd60e51b815260206004820152601460248201527314185d5cd8589b194e881b9bdd081c185d5cd95960621b60448201526064016105c0565b60075460ff161561069d5760405162461bcd60e51b815260206004820152601060248201526f14185d5cd8589b194e881c185d5cd95960821b60448201526064016105c0565b60008260000182815481106112a6576112a661185a565b9060005260206000200154905092915050565b60075460ff161561054f5760405162461bcd60e51b815260206004820152602a60248201527f45524332305061757361626c653a20746f6b656e207472616e736665722077686044820152691a5b19481c185d5cd95960b21b60648201526084016105c0565b6060600061132e836002611870565b6113399060026117b6565b67ffffffffffffffff8111156113515761135161188f565b6040519080825280601f01601f19166020018201604052801561137b576020820181803683370190505b509050600360fc1b816000815181106113965761139661185a565b60200101906001600160f81b031916908160001a905350600f60fb1b816001815181106113c5576113c561185a565b60200101906001600160f81b031916908160001a90535060006113e9846002611870565b6113f49060016117b6565b90505b600181111561146c576f181899199a1a9b1b9c1cb0b131b232b360811b85600f16601081106114285761142861185a565b1a60f81b82828151811061143e5761143e61185a565b60200101906001600160f81b031916908160001a90535060049490941c93611465816118a5565b90506113f7565b50831561081c5760405162461bcd60e51b815260206004820181905260248201527f537472696e67733a20686578206c656e67746820696e73756666696369656e7460448201526064016105c0565b600081815260018301602052604081205480156115a45760006114df6001836117ce565b85549091506000906114f3906001906117ce565b90508181146115585760008660000182815481106115135761151361185a565b90600052602060002001549050808760000184815481106115365761153661185a565b6000918252602080832090910192909255918252600188019052604090208390555b8554869080611569576115696118bc565b600190038181906000526020600020016000905590558560010160008681526020019081526020016000206000905560019350505050610456565b6000915050610456565b6000602082840312156115c057600080fd5b81356001600160e01b03198116811461081c57600080fd5b60005b838110156115f35781810151838201526020016115db565b83811115610bb15750506000910152565b60208152600082518060208401526116238160408501602087016115d8565b601f01601f19169190910160400192915050565b80356001600160a01b038116811461164e57600080fd5b919050565b6000806040838503121561166657600080fd5b61166f83611637565b946020939093013593505050565b60008060006060848603121561169257600080fd5b61169b84611637565b92506116a960208501611637565b9150604084013590509250925092565b6000602082840312156116cb57600080fd5b5035919050565b600080604083850312156116e557600080fd5b823591506116f560208401611637565b90509250929050565b60006020828403121561171057600080fd5b61081c82611637565b6000806040838503121561172c57600080fd5b50508035926020909101359150565b6000806040838503121561174e57600080fd5b61175783611637565b91506116f560208401611637565b600181811c9082168061177957607f821691505b6020821081141561179a57634e487b7160e01b600052602260045260246000fd5b50919050565b634e487b7160e01b600052601160045260246000fd5b600082198211156117c9576117c96117a0565b500190565b6000828210156117e0576117e06117a0565b500390565b7f416363657373436f6e74726f6c3a206163636f756e742000000000000000000081526000835161181d8160178501602088016115d8565b7001034b99036b4b9b9b4b733903937b6329607d1b601791840191820152835161184e8160288401602088016115d8565b01602801949350505050565b634e487b7160e01b600052603260045260246000fd5b600081600019048311821515161561188a5761188a6117a0565b500290565b634e487b7160e01b600052604160045260246000fd5b6000816118b4576118b46117a0565b506000190190565b634e487b7160e01b600052603160045260246000fdfea2646970667358221220796720e2d1ad7279827ef7428fbb1f6767dc4646b60dbafe7da98931b4a31b5364736f6c6343000809003365d7a28e3265b37a6474929f336521b332c1681b933f6cb9f3376673440d862a9f2df0fed2c77648de5860a4cc508cd0818c85b8b8a1ab4ceeef8d981c8956a6a2646970667358221220dd8e89d2a802c79226dd904580090fc02674a751247ffd92ab43fbbd4c39dcbc64736f6c63430008090033",
  "devdoc": {
    "details": "StakeRegistry is a contract to register the staking activity of the platform, along with controlling certain admin privileged parameters",
    "events": {
      "DTokenCreated(address,address,string,string)": {
        "details": "event to log modifications on the staking parameters",
        "params": {
          "dTokenAddress": "1. -",
          "name": "3. -",
          "sla": "2. -",
          "symbol": "4. -"
        }
      },
      "LockedValueReturned(address,address,uint256)": {
        "details": "event to log modifications on the staking parameters",
        "params": {
          "amount": "3. -",
          "owner": "2. -",
          "sla": "1. -"
        }
      },
      "StakingParametersModified(uint256,uint256,uint256,uint256,uint256,uint256,uint256,uint64,bool)": {
        "details": "event to log modifications on the staking parameters",
        "params": {
          "DSLAburnRate": "1. (DSLAburnRate/1000)% of DSLA to be burned after a reward/compensation is paid",
          "dslaBurnedByVerification": "5. DSLA burned after every period verification",
          "dslaDepositByPeriod": "2. DSLA deposit by period to create SLA",
          "dslaPlatformReward": "3. DSLA rewarded to Stacktical team",
          "dslaUserReward": "4. DSLA rewarded to user calling the period verification"
        }
      },
      "ValueLocked(address,address,uint256)": {
        "details": "event to log modifications on the staking parameters",
        "params": {
          "amount": "3. -",
          "owner": "2. -",
          "sla": "1. -"
        }
      },
      "VerificationRewardDistributed(address,address,uint256,uint256,uint256,uint256)": {
        "details": "event to log a verifiation reward distributed",
        "params": {
          "burnedDSLA": "6. -",
          "messengerReward": "5. -",
          "platformReward": "4. -",
          "requester": "2. -",
          "sla": "1. The address of the created service level agreement contract",
          "userReward": "3. -"
        }
      }
    },
    "kind": "dev",
    "methods": {
      "DSLATokenAddress()": {
        "returns": {
          "_0": "address of DSLA token"
        }
      },
      "addAllowedTokens(address)": {
        "details": "only owner can call this function for non-registered tokens",
        "params": {
          "_tokenAddress": "1. address of the new allowed token"
        }
      },
      "constructor": {
        "params": {
          "_dslaTokenAddress": "1. DSLA Token"
        }
      },
      "createDToken(string,string,uint8)": {
        "details": "only registered SLA can call this function",
        "params": {
          "_decimals": "3. token decimals",
          "_name": "1. token name",
          "_symbol": "2. token symbol"
        }
      },
      "distributeVerificationRewards(address,address,uint256)": {
        "details": "only SLARegistry can call this function",
        "params": {
          "_periodId": "verified period id by verifier",
          "_sla": "address of sla",
          "_verificationRewardReceiver": "verifier who verified the periodId"
        }
      },
      "isAllowedToken(address)": {
        "params": {
          "_tokenAddress": "token address to check"
        },
        "returns": {
          "_0": "true if registered"
        }
      },
      "lockDSLAValue(address,address,uint256)": {
        "details": "only SLARegistry can call this function",
        "params": {
          "_periodIdsLength": "number of periods to lock",
          "_sla": "address of sla",
          "_slaOwner": "owner address of sla"
        }
      },
      "periodIsVerified(address,uint256)": {
        "params": {
          "_periodId": "period id",
          "_sla": "address of SLA"
        },
        "returns": {
          "_0": "verified or not"
        }
      },
      "registerStakedSla(address)": {
        "details": "only registered SLA can call this function",
        "params": {
          "_owner": "1. SLA contract to stake"
        }
      },
      "renounceOwnership()": {
        "details": "Leaves the contract without owner. It will not be possible to call `onlyOwner` functions anymore. Can only be called by the current owner. NOTE: Renouncing ownership will leave the contract without an owner, thereby removing any functionality that is only available to the owner."
      },
      "returnLockedValue(address)": {
        "details": "only SLARegistry can call this function",
        "params": {
          "_sla": "address of SLA"
        }
      },
      "setSLARegistry()": {
        "details": "this function can only be called once"
      },
      "setStakingParameters(uint256,uint256,uint256,uint256,uint256,uint256,uint256,uint64,bool)": {
        "details": "only owner can call this function"
      },
      "slaWasStakedByUser(address,address)": {
        "details": "public view function that returns true if the _owner has staked on _sla",
        "params": {
          "_sla": "2. sla to check",
          "_user": "1. address to check"
        },
        "returns": {
          "_0": "bool, true if _sla was staked by _user"
        }
      },
      "transferOwnership(address)": {
        "details": "Transfers ownership of the contract to a new account (`newOwner`). Can only be called by the current owner."
      }
    },
    "stateVariables": {
      "_DSLAburnRate": {
        "details": "corresponds to the burn rate of DSLA tokens, but divided by 1000 i.e burn percentage = DSLAburnRate/1000 %"
      },
      "_burnDSLA": {
        "details": "burn DSLA after verification"
      },
      "_dslaBurnedByVerification": {
        "details": "DSLA burned after every period verification"
      },
      "_dslaDepositByPeriod": {
        "details": "DSLA deposit by period to create SLA"
      },
      "_dslaMessengerReward": {
        "details": "DSLA rewarded to the Messenger creator"
      },
      "_dslaPlatformReward": {
        "details": "DSLA rewarded to the foundation"
      },
      "_dslaUserReward": {
        "details": "DSLA rewarded to user calling the period verification"
      },
      "_maxLeverage": {
        "details": "max times of hedge leverage"
      },
      "_maxTokenLength": {
        "details": "max token length for allowedTokens array of Staking contracts"
      },
      "allowedTokens": {
        "details": "array with the allowed tokens addresses of the StakeRegistry"
      },
      "slaLockedValue": {
        "details": "(ownerAddress => slaAddress => LockedValue) stores the locked value by the staker"
      },
      "userStakedSlas": {
        "details": "(userAddress => (SLA address => registered)) with user staked SLAs to get tokenPool"
      }
    },
    "title": "StakeRegistry",
    "version": 1
  },
  "userdoc": {
    "kind": "user",
    "methods": {
      "DSLATokenAddress()": {
        "notice": "external view function that returns DSLA token address"
      },
      "addAllowedTokens(address)": {
        "notice": "add a token to ve allowed for staking"
      },
      "constructor": {
        "notice": "Constructor"
      },
      "createDToken(string,string,uint8)": {
        "notice": "function to create dTokens for staking"
      },
      "distributeVerificationRewards(address,address,uint256)": {
        "notice": "function to distribute verification rewards to verifier"
      },
      "getStakingParameters()": {
        "notice": "external view function that returns staking parameters"
      },
      "isAllowedToken(address)": {
        "notice": "function to check if the token is registered"
      },
      "lockDSLAValue(address,address,uint256)": {
        "notice": "function to lock DSLA"
      },
      "periodIsVerified(address,uint256)": {
        "notice": "external view function that checks the verification of period"
      },
      "registerStakedSla(address)": {
        "notice": "function to register the sending SLA contract as staked by _owner"
      },
      "returnLockedValue(address)": {
        "notice": "function to return locked tokens back to sla owner"
      },
      "setSLARegistry()": {
        "notice": "function to set the SLARegistry contract address"
      },
      "setStakingParameters(uint256,uint256,uint256,uint256,uint256,uint256,uint256,uint64,bool)": {
        "notice": "external function that sets staking parameters"
      }
    },
    "version": 1
  },
  "storageLayout": {
    "storage": [
      {
        "astId": 8843,
        "contract": "@dsla-protocol/core/contracts/StakeRegistry.sol:StakeRegistry",
        "label": "_status",
        "offset": 0,
        "slot": "0",
        "type": "t_uint256"
      },
      {
        "astId": 8619,
        "contract": "@dsla-protocol/core/contracts/StakeRegistry.sol:StakeRegistry",
        "label": "_owner",
        "offset": 0,
        "slot": "1",
        "type": "t_address"
      },
      {
        "astId": 5076,
        "contract": "@dsla-protocol/core/contracts/StakeRegistry.sol:StakeRegistry",
        "label": "_DSLATokenAddress",
        "offset": 0,
        "slot": "2",
        "type": "t_address"
      },
      {
        "astId": 5079,
        "contract": "@dsla-protocol/core/contracts/StakeRegistry.sol:StakeRegistry",
        "label": "slaRegistry",
        "offset": 0,
        "slot": "3",
        "type": "t_contract(ISLARegistry)7467"
      },
      {
        "astId": 5083,
        "contract": "@dsla-protocol/core/contracts/StakeRegistry.sol:StakeRegistry",
        "label": "_DSLAburnRate",
        "offset": 0,
        "slot": "4",
        "type": "t_uint256"
      },
      {
        "astId": 5089,
        "contract": "@dsla-protocol/core/contracts/StakeRegistry.sol:StakeRegistry",
        "label": "slaLockedValue",
        "offset": 0,
        "slot": "5",
        "type": "t_mapping(t_address,t_struct(LockedValue)5074_storage)"
      },
      {
        "astId": 5093,
        "contract": "@dsla-protocol/core/contracts/StakeRegistry.sol:StakeRegistry",
        "label": "_dslaDepositByPeriod",
        "offset": 0,
        "slot": "6",
        "type": "t_uint256"
      },
      {
        "astId": 5097,
        "contract": "@dsla-protocol/core/contracts/StakeRegistry.sol:StakeRegistry",
        "label": "_dslaPlatformReward",
        "offset": 0,
        "slot": "7",
        "type": "t_uint256"
      },
      {
        "astId": 5101,
        "contract": "@dsla-protocol/core/contracts/StakeRegistry.sol:StakeRegistry",
        "label": "_dslaMessengerReward",
        "offset": 0,
        "slot": "8",
        "type": "t_uint256"
      },
      {
        "astId": 5105,
        "contract": "@dsla-protocol/core/contracts/StakeRegistry.sol:StakeRegistry",
        "label": "_dslaUserReward",
        "offset": 0,
        "slot": "9",
        "type": "t_uint256"
      },
      {
        "astId": 5109,
        "contract": "@dsla-protocol/core/contracts/StakeRegistry.sol:StakeRegistry",
        "label": "_dslaBurnedByVerification",
        "offset": 0,
        "slot": "10",
        "type": "t_uint256"
      },
      {
        "astId": 5113,
        "contract": "@dsla-protocol/core/contracts/StakeRegistry.sol:StakeRegistry",
        "label": "_maxTokenLength",
        "offset": 0,
        "slot": "11",
        "type": "t_uint256"
      },
      {
        "astId": 5117,
        "contract": "@dsla-protocol/core/contracts/StakeRegistry.sol:StakeRegistry",
        "label": "_maxLeverage",
        "offset": 0,
        "slot": "12",
        "type": "t_uint64"
      },
      {
        "astId": 5121,
        "contract": "@dsla-protocol/core/contracts/StakeRegistry.sol:StakeRegistry",
        "label": "_burnDSLA",
        "offset": 8,
        "slot": "12",
        "type": "t_bool"
      },
      {
        "astId": 5125,
        "contract": "@dsla-protocol/core/contracts/StakeRegistry.sol:StakeRegistry",
        "label": "allowedTokens",
        "offset": 0,
        "slot": "13",
        "type": "t_array(t_address)dyn_storage"
      },
      {
        "astId": 5132,
        "contract": "@dsla-protocol/core/contracts/StakeRegistry.sol:StakeRegistry",
        "label": "userStakedSlas",
        "offset": 0,
        "slot": "14",
        "type": "t_mapping(t_address,t_mapping(t_address,t_bool))"
      }
    ],
    "types": {
      "t_address": {
        "encoding": "inplace",
        "label": "address",
        "numberOfBytes": "20"
      },
      "t_array(t_address)dyn_storage": {
        "base": "t_address",
        "encoding": "dynamic_array",
        "label": "address[]",
        "numberOfBytes": "32"
      },
      "t_bool": {
        "encoding": "inplace",
        "label": "bool",
        "numberOfBytes": "1"
      },
      "t_contract(ISLARegistry)7467": {
        "encoding": "inplace",
        "label": "contract ISLARegistry",
        "numberOfBytes": "20"
      },
      "t_mapping(t_address,t_bool)": {
        "encoding": "mapping",
        "key": "t_address",
        "label": "mapping(address => bool)",
        "numberOfBytes": "32",
        "value": "t_bool"
      },
      "t_mapping(t_address,t_mapping(t_address,t_bool))": {
        "encoding": "mapping",
        "key": "t_address",
        "label": "mapping(address => mapping(address => bool))",
        "numberOfBytes": "32",
        "value": "t_mapping(t_address,t_bool)"
      },
      "t_mapping(t_address,t_struct(LockedValue)5074_storage)": {
        "encoding": "mapping",
        "key": "t_address",
        "label": "mapping(address => struct StakeRegistry.LockedValue)",
        "numberOfBytes": "32",
        "value": "t_struct(LockedValue)5074_storage"
      },
      "t_mapping(t_uint256,t_bool)": {
        "encoding": "mapping",
        "key": "t_uint256",
        "label": "mapping(uint256 => bool)",
        "numberOfBytes": "32",
        "value": "t_bool"
      },
      "t_struct(LockedValue)5074_storage": {
        "encoding": "inplace",
        "label": "struct StakeRegistry.LockedValue",
        "members": [
          {
            "astId": 5057,
            "contract": "@dsla-protocol/core/contracts/StakeRegistry.sol:StakeRegistry",
            "label": "lockedValue",
            "offset": 0,
            "slot": "0",
            "type": "t_uint256"
          },
          {
            "astId": 5059,
            "contract": "@dsla-protocol/core/contracts/StakeRegistry.sol:StakeRegistry",
            "label": "slaPeriodIdsLength",
            "offset": 0,
            "slot": "1",
            "type": "t_uint256"
          },
          {
            "astId": 5061,
            "contract": "@dsla-protocol/core/contracts/StakeRegistry.sol:StakeRegistry",
            "label": "dslaDepositByPeriod",
            "offset": 0,
            "slot": "2",
            "type": "t_uint256"
          },
          {
            "astId": 5063,
            "contract": "@dsla-protocol/core/contracts/StakeRegistry.sol:StakeRegistry",
            "label": "dslaPlatformReward",
            "offset": 0,
            "slot": "3",
            "type": "t_uint256"
          },
          {
            "astId": 5065,
            "contract": "@dsla-protocol/core/contracts/StakeRegistry.sol:StakeRegistry",
            "label": "dslaMessengerReward",
            "offset": 0,
            "slot": "4",
            "type": "t_uint256"
          },
          {
            "astId": 5067,
            "contract": "@dsla-protocol/core/contracts/StakeRegistry.sol:StakeRegistry",
            "label": "dslaUserReward",
            "offset": 0,
            "slot": "5",
            "type": "t_uint256"
          },
          {
            "astId": 5069,
            "contract": "@dsla-protocol/core/contracts/StakeRegistry.sol:StakeRegistry",
            "label": "dslaBurnedByVerification",
            "offset": 0,
            "slot": "6",
            "type": "t_uint256"
          },
          {
            "astId": 5073,
            "contract": "@dsla-protocol/core/contracts/StakeRegistry.sol:StakeRegistry",
            "label": "verifiedPeriods",
            "offset": 0,
            "slot": "7",
            "type": "t_mapping(t_uint256,t_bool)"
          }
        ],
        "numberOfBytes": "256"
      },
      "t_uint256": {
        "encoding": "inplace",
        "label": "uint256",
        "numberOfBytes": "32"
      },
      "t_uint64": {
        "encoding": "inplace",
        "label": "uint64",
        "numberOfBytes": "8"
      }
    }
  }
}