{
  "address": "0x99F4e62a317cc666589c9e370c73c15B158f3c61",
  "abi": [
    {
      "inputs": [
        {
          "internalType": "address",
          "name": "_link",
          "type": "address"
        }
      ],
      "stateMutability": "nonpayable",
      "type": "constructor"
    },
    {
      "anonymous": false,
      "inputs": [
        {
          "indexed": true,
          "internalType": "bytes32",
          "name": "requestId",
          "type": "bytes32"
        }
      ],
      "name": "CancelOracleRequest",
      "type": "event"
    },
    {
      "anonymous": false,
      "inputs": [
        {
          "indexed": true,
          "internalType": "bytes32",
          "name": "specId",
          "type": "bytes32"
        },
        {
          "indexed": false,
          "internalType": "address",
          "name": "requester",
          "type": "address"
        },
        {
          "indexed": false,
          "internalType": "bytes32",
          "name": "requestId",
          "type": "bytes32"
        },
        {
          "indexed": false,
          "internalType": "uint256",
          "name": "payment",
          "type": "uint256"
        },
        {
          "indexed": false,
          "internalType": "address",
          "name": "callbackAddr",
          "type": "address"
        },
        {
          "indexed": false,
          "internalType": "bytes4",
          "name": "callbackFunctionId",
          "type": "bytes4"
        },
        {
          "indexed": false,
          "internalType": "uint256",
          "name": "cancelExpiration",
          "type": "uint256"
        },
        {
          "indexed": false,
          "internalType": "uint256",
          "name": "dataVersion",
          "type": "uint256"
        },
        {
          "indexed": false,
          "internalType": "bytes",
          "name": "data",
          "type": "bytes"
        }
      ],
      "name": "OracleRequest",
      "type": "event"
    },
    {
      "anonymous": false,
      "inputs": [
        {
          "indexed": true,
          "internalType": "address",
          "name": "previousOwner",
          "type": "address"
        },
        {
          "indexed": true,
          "internalType": "address",
          "name": "newOwner",
          "type": "address"
        }
      ],
      "name": "OwnershipTransferred",
      "type": "event"
    },
    {
      "inputs": [],
      "name": "EXPIRY_TIME",
      "outputs": [
        {
          "internalType": "uint256",
          "name": "",
          "type": "uint256"
        }
      ],
      "stateMutability": "view",
      "type": "function"
    },
    {
      "inputs": [
        {
          "internalType": "bytes32",
          "name": "_requestId",
          "type": "bytes32"
        },
        {
          "internalType": "uint256",
          "name": "_payment",
          "type": "uint256"
        },
        {
          "internalType": "bytes4",
          "name": "_callbackFunc",
          "type": "bytes4"
        },
        {
          "internalType": "uint256",
          "name": "_expiration",
          "type": "uint256"
        }
      ],
      "name": "cancelOracleRequest",
      "outputs": [],
      "stateMutability": "nonpayable",
      "type": "function"
    },
    {
      "inputs": [
        {
          "internalType": "bytes32",
          "name": "_requestId",
          "type": "bytes32"
        },
        {
          "internalType": "uint256",
          "name": "_payment",
          "type": "uint256"
        },
        {
          "internalType": "address",
          "name": "_callbackAddress",
          "type": "address"
        },
        {
          "internalType": "bytes4",
          "name": "_callbackFunctionId",
          "type": "bytes4"
        },
        {
          "internalType": "uint256",
          "name": "_expiration",
          "type": "uint256"
        },
        {
          "internalType": "bytes32",
          "name": "_data",
          "type": "bytes32"
        }
      ],
      "name": "fulfillOracleRequest",
      "outputs": [
        {
          "internalType": "bool",
          "name": "",
          "type": "bool"
        }
      ],
      "stateMutability": "nonpayable",
      "type": "function"
    },
    {
      "inputs": [
        {
          "internalType": "address",
          "name": "_node",
          "type": "address"
        }
      ],
      "name": "getAuthorizationStatus",
      "outputs": [
        {
          "internalType": "bool",
          "name": "",
          "type": "bool"
        }
      ],
      "stateMutability": "view",
      "type": "function"
    },
    {
      "inputs": [],
      "name": "getChainlinkToken",
      "outputs": [
        {
          "internalType": "address",
          "name": "",
          "type": "address"
        }
      ],
      "stateMutability": "view",
      "type": "function"
    },
    {
      "inputs": [],
      "name": "isOwner",
      "outputs": [
        {
          "internalType": "bool",
          "name": "",
          "type": "bool"
        }
      ],
      "stateMutability": "view",
      "type": "function"
    },
    {
      "inputs": [
        {
          "internalType": "address",
          "name": "_sender",
          "type": "address"
        },
        {
          "internalType": "uint256",
          "name": "_amount",
          "type": "uint256"
        },
        {
          "internalType": "bytes",
          "name": "_data",
          "type": "bytes"
        }
      ],
      "name": "onTokenTransfer",
      "outputs": [],
      "stateMutability": "nonpayable",
      "type": "function"
    },
    {
      "inputs": [
        {
          "internalType": "address",
          "name": "_sender",
          "type": "address"
        },
        {
          "internalType": "uint256",
          "name": "_payment",
          "type": "uint256"
        },
        {
          "internalType": "bytes32",
          "name": "_specId",
          "type": "bytes32"
        },
        {
          "internalType": "address",
          "name": "_callbackAddress",
          "type": "address"
        },
        {
          "internalType": "bytes4",
          "name": "_callbackFunctionId",
          "type": "bytes4"
        },
        {
          "internalType": "uint256",
          "name": "_nonce",
          "type": "uint256"
        },
        {
          "internalType": "uint256",
          "name": "_dataVersion",
          "type": "uint256"
        },
        {
          "internalType": "bytes",
          "name": "_data",
          "type": "bytes"
        }
      ],
      "name": "oracleRequest",
      "outputs": [],
      "stateMutability": "nonpayable",
      "type": "function"
    },
    {
      "inputs": [],
      "name": "owner",
      "outputs": [
        {
          "internalType": "address",
          "name": "",
          "type": "address"
        }
      ],
      "stateMutability": "view",
      "type": "function"
    },
    {
      "inputs": [
        {
          "internalType": "address",
          "name": "_node",
          "type": "address"
        },
        {
          "internalType": "bool",
          "name": "_allowed",
          "type": "bool"
        }
      ],
      "name": "setFulfillmentPermission",
      "outputs": [],
      "stateMutability": "nonpayable",
      "type": "function"
    },
    {
      "inputs": [
        {
          "internalType": "address",
          "name": "newOwner",
          "type": "address"
        }
      ],
      "name": "transferOwnership",
      "outputs": [],
      "stateMutability": "nonpayable",
      "type": "function"
    },
    {
      "inputs": [
        {
          "internalType": "address",
          "name": "_recipient",
          "type": "address"
        },
        {
          "internalType": "uint256",
          "name": "_amount",
          "type": "uint256"
        }
      ],
      "name": "withdraw",
      "outputs": [],
      "stateMutability": "nonpayable",
      "type": "function"
    },
    {
      "inputs": [],
      "name": "withdrawable",
      "outputs": [
        {
          "internalType": "uint256",
          "name": "",
          "type": "uint256"
        }
      ],
      "stateMutability": "view",
      "type": "function"
    }
  ],
  "transactionHash": "0x402eaa62a2c741c0297390eaae4393bffb55c0375b606ebf700be498ed421fe8",
  "args": [
    "0xf8a0bf9cf54bb92f17374d9e9a321e6a111a51bd"
  ],
  "solcInputHash": "b60ff3a3069df4f3117561968383abbc",
  "bytecode": "0x6080604052600160045534801561001557600080fd5b506040516113363803806113368339818101604052602081101561003857600080fd5b5051600080546001600160a01b03191633178082556040516001600160a01b039190911691907f8be0079c531659141344cd1fd0a4f28419497f9722a3daafe3b4186f6b6457e0908290a3600180546001600160a01b0319166001600160a01b0392909216919091179055611284806100b26000396000f3fe608060405234801561001057600080fd5b50600436106100cf5760003560e01c80637fcd56db1161008c578063a4c0ed3611610066578063a4c0ed36146102a6578063d3e9c31414610361578063f2fde38b14610387578063f3fef3a3146103ad576100cf565b80637fcd56db146102685780638da5cb5b146102965780638f32d59b1461029e576100cf565b8063165d35e1146100d457806340429946146100f85780634ab0d190146101ab5780634b6022821461020d57806350188301146102275780636ee4d5531461022f575b600080fd5b6100dc6103d9565b604080516001600160a01b039092168252519081900360200190f35b6101a9600480360361010081101561010f57600080fd5b6001600160a01b038235811692602081013592604082013592606083013516916001600160e01b03196080820135169160a08201359160c081013591810190610100810160e082013564010000000081111561016a57600080fd5b82018360208201111561017c57600080fd5b8035906020019184600183028401116401000000008311171561019e57600080fd5b5090925090506103e8565b005b6101f9600480360360c08110156101c157600080fd5b508035906020810135906001600160a01b03604082013516906001600160e01b03196060820135169060808101359060a001356106be565b604080519115158252519081900360200190f35b6102156109b8565b60408051918252519081900360200190f35b6102156109be565b6101a96004803603608081101561024557600080fd5b508035906020810135906001600160e01b03196040820135169060600135610a20565b6101a96004803603604081101561027e57600080fd5b506001600160a01b0381351690602001351515610bda565b6100dc610c4c565b6101f9610c5b565b6101a9600480360360608110156102bc57600080fd5b6001600160a01b03823516916020810135918101906060810160408201356401000000008111156102ec57600080fd5b8201836020820111156102fe57600080fd5b8035906020019184600183028401116401000000008311171561032057600080fd5b91908080601f016020809104026020016040519081016040528093929190818152602001838380828437600092019190915250929550610c6c945050505050565b6101f96004803603602081101561037757600080fd5b50356001600160a01b0316610e99565b6101a96004803603602081101561039d57600080fd5b50356001600160a01b0316610eb7565b6101a9600480360360408110156103c357600080fd5b506001600160a01b038135169060200135610f0a565b6001546001600160a01b031690565b6103f06103d9565b6001600160a01b0316336001600160a01b03161461044b576040805162461bcd60e51b815260206004820152601360248201527226bab9ba103ab9b2902624a725903a37b5b2b760691b604482015290519081900360640190fd5b60015486906001600160a01b03808316911614156104b0576040805162461bcd60e51b815260206004820152601760248201527f43616e6e6f742063616c6c6261636b20746f204c494e4b000000000000000000604482015290519081900360640190fd5b604080516bffffffffffffffffffffffff1960608d901b166020808301919091526034808301899052835180840390910181526054909201835281519181019190912060008181526002909252919020541561054a576040805162461bcd60e51b8152602060048201526014602482015273135d5cdd081d5cd94818481d5b9a5c5d5948125160621b604482015290519081900360640190fd5b600061055e4261012c63ffffffff61104b16565b90508a89898360405160200180858152602001846001600160a01b03166001600160a01b031660601b8152601401836001600160e01b0319166001600160e01b0319168152600401828152602001945050505050604051602081830303815290604052805190602001206002600084815260200190815260200160002081905550897fd8d7ecc4800d25fa53ce0372f13a416d98907a7ef3d8d3bdd79cf4fe75529c658d848e8d8d878d8d8d604051808a6001600160a01b03166001600160a01b03168152602001898152602001888152602001876001600160a01b03166001600160a01b03168152602001866001600160e01b0319166001600160e01b0319168152602001858152602001848152602001806020018281038252848482818152602001925080828437600083820152604051601f909101601f19169092018290039c50909a5050505050505050505050a2505050505050505050505050565b3360009081526003602052604081205460ff16806106f457506106df610c4c565b6001600160a01b0316336001600160a01b0316145b61072f5760405162461bcd60e51b815260040180806020018281038252602a815260200180611205602a913960400191505060405180910390fd5b6000878152600260205260409020548790610791576040805162461bcd60e51b815260206004820152601b60248201527f4d757374206861766520612076616c6964207265717565737449640000000000604482015290519081900360640190fd5b6040805160208082018a90526bffffffffffffffffffffffff1960608a901b16828401526001600160e01b0319881660548301526058808301889052835180840390910181526078909201835281519181019190912060008b81526002909252919020548114610848576040805162461bcd60e51b815260206004820152601e60248201527f506172616d7320646f206e6f74206d6174636820726571756573742049440000604482015290519081900360640190fd5b60045461085b908963ffffffff61104b16565b60045560008981526002602052604081205562061a805a10156108c5576040805162461bcd60e51b815260206004820181905260248201527f4d7573742070726f7669646520636f6e73756d657220656e6f75676820676173604482015290519081900360640190fd5b60408051602481018b9052604480820187905282518083039091018152606490910182526020810180516001600160e01b03166001600160e01b03198a16178152915181516000936001600160a01b038c169392918291908083835b602083106109405780518252601f199092019160209182019101610921565b6001836020036101000a0380198251168184511680821785525050505050509050019150506000604051808303816000865af19150503d80600081146109a2576040519150601f19603f3d011682016040523d82523d6000602084013e6109a7565b606091505b50909b9a5050505050505050505050565b61012c81565b60006109c8610c5b565b610a07576040805162461bcd60e51b8152602060048201819052602482015260008051602061122f833981519152604482015290519081900360640190fd5b600454610a1b90600163ffffffff6110ac16565b905090565b6040805160208082018690523360601b828401526001600160e01b0319851660548301526058808301859052835180840390910181526078909201835281519181019190912060008781526002909252919020548114610ac7576040805162461bcd60e51b815260206004820152601e60248201527f506172616d7320646f206e6f74206d6174636820726571756573742049440000604482015290519081900360640190fd5b42821115610b15576040805162461bcd60e51b815260206004820152601660248201527514995c5d595cdd081a5cc81b9bdd08195e1c1a5c995960521b604482015290519081900360640190fd5b6000858152600260205260408082208290555186917fa7842b9ec549398102c0d91b1b9919b2f20558aefdadf57528a95c6cd3292e9391a26001546040805163a9059cbb60e01b81523360048201526024810187905290516001600160a01b039092169163a9059cbb916044808201926020929091908290030181600087803b158015610ba157600080fd5b505af1158015610bb5573d6000803e3d6000fd5b505050506040513d6020811015610bcb57600080fd5b5051610bd357fe5b5050505050565b610be2610c5b565b610c21576040805162461bcd60e51b8152602060048201819052602482015260008051602061122f833981519152604482015290519081900360640190fd5b6001600160a01b03919091166000908152600360205260409020805460ff1916911515919091179055565b6000546001600160a01b031690565b6000546001600160a01b0316331490565b610c746103d9565b6001600160a01b0316336001600160a01b031614610ccf576040805162461bcd60e51b815260206004820152601360248201527226bab9ba103ab9b2902624a725903a37b5b2b760691b604482015290519081900360640190fd5b8051819060441115610d21576040805162461bcd60e51b8152602060048201526016602482015275092dcecc2d8d2c840e4cae2eacae6e840d8cadccee8d60531b604482015290519081900360640190fd5b602082015182906001600160e01b031981166320214ca360e11b14610d8d576040805162461bcd60e51b815260206004820152601e60248201527f4d757374207573652077686974656c69737465642066756e6374696f6e730000604482015290519081900360640190fd5b8560248501528460448501526000306001600160a01b0316856040518082805190602001908083835b60208310610dd55780518252601f199092019160209182019101610db6565b6001836020036101000a038019825116818451168082178552505050505050905001915050600060405180830381855af49150503d8060008114610e35576040519150601f19603f3d011682016040523d82523d6000602084013e610e3a565b606091505b5050905080610e90576040805162461bcd60e51b815260206004820152601860248201527f556e61626c6520746f2063726561746520726571756573740000000000000000604482015290519081900360640190fd5b50505050505050565b6001600160a01b031660009081526003602052604090205460ff1690565b610ebf610c5b565b610efe576040805162461bcd60e51b8152602060048201819052602482015260008051602061122f833981519152604482015290519081900360640190fd5b610f0781611109565b50565b610f12610c5b565b610f51576040805162461bcd60e51b8152602060048201819052602482015260008051602061122f833981519152604482015290519081900360640190fd5b80610f6381600163ffffffff61104b16565b6004541015610fa35760405162461bcd60e51b81526004018080602001828103825260358152602001806111d06035913960400191505060405180910390fd5b600454610fb6908363ffffffff6110ac16565b60049081556001546040805163a9059cbb60e01b81526001600160a01b0387811694820194909452602481018690529051929091169163a9059cbb916044808201926020929091908290030181600087803b15801561101457600080fd5b505af1158015611028573d6000803e3d6000fd5b505050506040513d602081101561103e57600080fd5b505161104657fe5b505050565b6000828201838110156110a5576040805162461bcd60e51b815260206004820152601b60248201527f536166654d6174683a206164646974696f6e206f766572666c6f770000000000604482015290519081900360640190fd5b9392505050565b600082821115611103576040805162461bcd60e51b815260206004820152601e60248201527f536166654d6174683a207375627472616374696f6e206f766572666c6f770000604482015290519081900360640190fd5b50900390565b6001600160a01b03811661114e5760405162461bcd60e51b81526004018080602001828103825260268152602001806111aa6026913960400191505060405180910390fd5b600080546040516001600160a01b03808516939216917f8be0079c531659141344cd1fd0a4f28419497f9722a3daafe3b4186f6b6457e091a3600080546001600160a01b0319166001600160a01b039290921691909117905556fe4f776e61626c653a206e6577206f776e657220697320746865207a65726f2061646472657373416d6f756e74207265717565737465642069732067726561746572207468616e20776974686472617761626c652062616c616e63654e6f7420616e20617574686f72697a6564206e6f646520746f2066756c66696c6c2072657175657374734f776e61626c653a2063616c6c6572206973206e6f7420746865206f776e6572a2646970667358221220ba3d888940e83965017b04c0f18dee0efb8c40122a95acab7baec88ca21c130064736f6c63430006060033",
  "devdoc": {
    "methods": {
      "cancelOracleRequest(bytes32,uint256,bytes4,uint256)": {
        "details": "Given params must hash to a commitment stored on the contract in order for the request to be valid Emits CancelOracleRequest event.",
        "params": {
          "_callbackFunc": "The requester's specified callback address",
          "_expiration": "The time of the expiration for the request",
          "_payment": "The amount of payment given (specified in wei)",
          "_requestId": "The request ID"
        }
      },
      "constructor": {
        "details": "Sets the LinkToken address for the imported LinkTokenInterface",
        "params": {
          "_link": "The address of the LINK token"
        }
      },
      "fulfillOracleRequest(bytes32,uint256,address,bytes4,uint256,bytes32)": {
        "details": "Given params must hash back to the commitment stored from `oracleRequest`. Will call the callback address' callback function without bubbling up error checking in a `require` so that the node can get paid.",
        "params": {
          "_callbackAddress": "The callback address to call for fulfillment",
          "_callbackFunctionId": "The callback function ID to use for fulfillment",
          "_data": "The data to return to the consuming contract",
          "_expiration": "The expiration that the node should respond by before the requester can cancel",
          "_payment": "The payment amount that will be released for the oracle (specified in wei)",
          "_requestId": "The fulfillment request ID that must match the requester's"
        },
        "returns": {
          "_0": "Status if the external call was successful"
        }
      },
      "getAuthorizationStatus(address)": {
        "params": {
          "_node": "The address of the Chainlink node"
        },
        "returns": {
          "_0": "The authorization status of the node"
        }
      },
      "getChainlinkToken()": {
        "details": "This is the public implementation for chainlinkTokenAddress, which is an internal method of the ChainlinkClient contract"
      },
      "isOwner()": {
        "details": "Returns true if the caller is the current owner."
      },
      "onTokenTransfer(address,uint256,bytes)": {
        "details": "The data payload's first 2 words will be overwritten by the `_sender` and `_amount` values to ensure correctness. Calls oracleRequest.",
        "params": {
          "_amount": "Amount of LINK sent (specified in wei)",
          "_data": "Payload of the transaction",
          "_sender": "Address of the sender"
        }
      },
      "oracleRequest(address,uint256,bytes32,address,bytes4,uint256,uint256,bytes)": {
        "details": "Stores the hash of the params as the on-chain commitment for the request. Emits OracleRequest event for the Chainlink node to detect.",
        "params": {
          "_callbackAddress": "The callback address for the response",
          "_callbackFunctionId": "The callback function ID for the response",
          "_data": "The CBOR payload of the request",
          "_dataVersion": "The specified data version",
          "_nonce": "The nonce sent by the requester",
          "_payment": "The amount of payment given (specified in wei)",
          "_sender": "The sender of the request",
          "_specId": "The Job Specification ID"
        }
      },
      "owner()": {
        "details": "Returns the address of the current owner."
      },
      "setFulfillmentPermission(address,bool)": {
        "params": {
          "_allowed": "Bool value to determine if the node can fulfill requests",
          "_node": "The address of the Chainlink node"
        }
      },
      "transferOwnership(address)": {
        "details": "Transfers ownership of the contract to a new account (`newOwner`). Can only be called by the current owner."
      },
      "withdraw(address,uint256)": {
        "details": "The owner of the contract can be another wallet and does not have to be a Chainlink node",
        "params": {
          "_amount": "The amount to send (specified in wei)",
          "_recipient": "The address to send the LINK token to"
        }
      },
      "withdrawable()": {
        "details": "We use `ONE_FOR_CONSISTENT_GAS_COST` in place of 0 in storage",
        "returns": {
          "_0": "The amount of withdrawable LINK on the contract"
        }
      }
    },
    "title": "The Chainlink Oracle contract"
  },
  "userdoc": {
    "methods": {
      "cancelOracleRequest(bytes32,uint256,bytes4,uint256)": {
        "notice": "Allows requesters to cancel requests sent to this oracle contract. Will transfer the LINK sent for the request back to the requester's address."
      },
      "constructor": "Deploy with the address of the LINK token",
      "fulfillOracleRequest(bytes32,uint256,address,bytes4,uint256,bytes32)": {
        "notice": "Called by the Chainlink node to fulfill requests"
      },
      "getAuthorizationStatus(address)": {
        "notice": "Use this to check if a node is authorized for fulfilling requests"
      },
      "getChainlinkToken()": {
        "notice": "Returns the address of the LINK token"
      },
      "onTokenTransfer(address,uint256,bytes)": {
        "notice": "Called when LINK is sent to the contract via `transferAndCall`"
      },
      "oracleRequest(address,uint256,bytes32,address,bytes4,uint256,uint256,bytes)": {
        "notice": "Creates the Chainlink request"
      },
      "setFulfillmentPermission(address,bool)": {
        "notice": "Sets the fulfillment permission for a given node. Use `true` to allow, `false` to disallow."
      },
      "withdraw(address,uint256)": {
        "notice": "Allows the node operator to withdraw earned LINK to a given address"
      },
      "withdrawable()": {
        "notice": "Displays the amount of LINK that is available for the node operator to withdraw"
      }
    },
    "notice": "Node operators can deploy this contract to fulfill requests sent to them"
  },
  "storageLayout": {
    "storage": [
      {
        "astId": 4309,
        "contract": "@chainlink/contracts/src/v0.6/Oracle.sol:Oracle",
        "label": "_owner",
        "offset": 0,
        "slot": "0",
        "type": "t_address"
      },
      {
        "astId": 1787,
        "contract": "@chainlink/contracts/src/v0.6/Oracle.sol:Oracle",
        "label": "LinkToken",
        "offset": 0,
        "slot": "1",
        "type": "t_contract(LinkTokenInterface)3421"
      },
      {
        "astId": 1791,
        "contract": "@chainlink/contracts/src/v0.6/Oracle.sol:Oracle",
        "label": "commitments",
        "offset": 0,
        "slot": "2",
        "type": "t_mapping(t_bytes32,t_bytes32)"
      },
      {
        "astId": 1795,
        "contract": "@chainlink/contracts/src/v0.6/Oracle.sol:Oracle",
        "label": "authorizedNodes",
        "offset": 0,
        "slot": "3",
        "type": "t_mapping(t_address,t_bool)"
      },
      {
        "astId": 1798,
        "contract": "@chainlink/contracts/src/v0.6/Oracle.sol:Oracle",
        "label": "withdrawableTokens",
        "offset": 0,
        "slot": "4",
        "type": "t_uint256"
      }
    ],
    "types": {
      "t_address": {
        "encoding": "inplace",
        "label": "address",
        "numberOfBytes": "20"
      },
      "t_bool": {
        "encoding": "inplace",
        "label": "bool",
        "numberOfBytes": "1"
      },
      "t_bytes32": {
        "encoding": "inplace",
        "label": "bytes32",
        "numberOfBytes": "32"
      },
      "t_contract(LinkTokenInterface)3421": {
        "encoding": "inplace",
        "label": "contract LinkTokenInterface",
        "numberOfBytes": "20"
      },
      "t_mapping(t_address,t_bool)": {
        "encoding": "mapping",
        "key": "t_address",
        "label": "mapping(address => bool)",
        "numberOfBytes": "32",
        "value": "t_bool"
      },
      "t_mapping(t_bytes32,t_bytes32)": {
        "encoding": "mapping",
        "key": "t_bytes32",
        "label": "mapping(bytes32 => bytes32)",
        "numberOfBytes": "32",
        "value": "t_bytes32"
      },
      "t_uint256": {
        "encoding": "inplace",
        "label": "uint256",
        "numberOfBytes": "32"
      }
    }
  }
}