{
  "_format": "hh-sol-artifact-1",
  "contractName": "Staking",
  "sourceName": "@stacktical/dsla-protocol/contracts/Staking.sol",
  "abi": [
    {
      "inputs": [
        {
          "internalType": "contract SLARegistry",
          "name": "_slaRegistry",
          "type": "address"
        },
        {
          "internalType": "enum PeriodRegistry.PeriodType",
          "name": "_periodType",
          "type": "uint8"
        },
        {
          "internalType": "bool",
          "name": "_whitelistedContract",
          "type": "bool"
        },
        {
          "internalType": "uint128",
          "name": "_slaID",
          "type": "uint128"
        },
        {
          "internalType": "uint64",
          "name": "_leverage",
          "type": "uint64"
        },
        {
          "internalType": "address",
          "name": "_contractOwner",
          "type": "address"
        }
      ],
      "stateMutability": "nonpayable",
      "type": "constructor"
    },
    {
      "anonymous": false,
      "inputs": [
        {
          "indexed": true,
          "internalType": "address",
          "name": "tokenAddress",
          "type": "address"
        },
        {
          "indexed": true,
          "internalType": "address",
          "name": "dpTokenAddress",
          "type": "address"
        },
        {
          "indexed": false,
          "internalType": "string",
          "name": "dpTokenName",
          "type": "string"
        },
        {
          "indexed": false,
          "internalType": "string",
          "name": "dpTokenSymbol",
          "type": "string"
        },
        {
          "indexed": true,
          "internalType": "address",
          "name": "duTokenAddress",
          "type": "address"
        },
        {
          "indexed": false,
          "internalType": "string",
          "name": "duTokenName",
          "type": "string"
        },
        {
          "indexed": false,
          "internalType": "string",
          "name": "duTokenSymbol",
          "type": "string"
        }
      ],
      "name": "DTokensCreated",
      "type": "event"
    },
    {
      "anonymous": false,
      "inputs": [
        {
          "indexed": true,
          "internalType": "address",
          "name": "previousOwner",
          "type": "address"
        },
        {
          "indexed": true,
          "internalType": "address",
          "name": "newOwner",
          "type": "address"
        }
      ],
      "name": "OwnershipTransferred",
      "type": "event"
    },
    {
      "anonymous": false,
      "inputs": [
        {
          "indexed": true,
          "internalType": "uint256",
          "name": "periodId",
          "type": "uint256"
        },
        {
          "indexed": true,
          "internalType": "address",
          "name": "tokenAddress",
          "type": "address"
        },
        {
          "indexed": false,
          "internalType": "uint256",
          "name": "rewardPercentage",
          "type": "uint256"
        },
        {
          "indexed": false,
          "internalType": "uint256",
          "name": "rewardPercentagePrecision",
          "type": "uint256"
        },
        {
          "indexed": false,
          "internalType": "uint256",
          "name": "rewardAmount",
          "type": "uint256"
        }
      ],
      "name": "ProviderRewardGenerated",
      "type": "event"
    },
    {
      "anonymous": false,
      "inputs": [
        {
          "indexed": true,
          "internalType": "uint256",
          "name": "periodId",
          "type": "uint256"
        },
        {
          "indexed": true,
          "internalType": "address",
          "name": "tokenAddress",
          "type": "address"
        },
        {
          "indexed": false,
          "internalType": "uint256",
          "name": "usersStake",
          "type": "uint256"
        },
        {
          "indexed": false,
          "internalType": "uint256",
          "name": "leverage",
          "type": "uint256"
        },
        {
          "indexed": false,
          "internalType": "uint256",
          "name": "compensation",
          "type": "uint256"
        }
      ],
      "name": "UserCompensationGenerated",
      "type": "event"
    },
    {
      "inputs": [],
      "name": "DSLAburnRate",
      "outputs": [
        {
          "internalType": "uint256",
          "name": "",
          "type": "uint256"
        }
      ],
      "stateMutability": "view",
      "type": "function"
    },
    {
      "inputs": [
        {
          "internalType": "address",
          "name": "_tokenAddress",
          "type": "address"
        }
      ],
      "name": "addAllowedTokens",
      "outputs": [],
      "stateMutability": "nonpayable",
      "type": "function"
    },
    {
      "inputs": [
        {
          "internalType": "address[]",
          "name": "_userAddresses",
          "type": "address[]"
        }
      ],
      "name": "addUsersToWhitelist",
      "outputs": [],
      "stateMutability": "nonpayable",
      "type": "function"
    },
    {
      "inputs": [
        {
          "internalType": "uint256",
          "name": "",
          "type": "uint256"
        }
      ],
      "name": "allowedTokens",
      "outputs": [
        {
          "internalType": "address",
          "name": "",
          "type": "address"
        }
      ],
      "stateMutability": "view",
      "type": "function"
    },
    {
      "inputs": [
        {
          "internalType": "address",
          "name": "",
          "type": "address"
        }
      ],
      "name": "dpTokenRegistry",
      "outputs": [
        {
          "internalType": "contract ERC20PresetMinterPauser",
          "name": "",
          "type": "address"
        }
      ],
      "stateMutability": "view",
      "type": "function"
    },
    {
      "inputs": [],
      "name": "dslaTokenAddress",
      "outputs": [
        {
          "internalType": "address",
          "name": "",
          "type": "address"
        }
      ],
      "stateMutability": "view",
      "type": "function"
    },
    {
      "inputs": [
        {
          "internalType": "address",
          "name": "",
          "type": "address"
        }
      ],
      "name": "duTokenRegistry",
      "outputs": [
        {
          "internalType": "contract ERC20PresetMinterPauser",
          "name": "",
          "type": "address"
        }
      ],
      "stateMutability": "view",
      "type": "function"
    },
    {
      "inputs": [],
      "name": "getAllowedTokensLength",
      "outputs": [
        {
          "internalType": "uint256",
          "name": "",
          "type": "uint256"
        }
      ],
      "stateMutability": "view",
      "type": "function"
    },
    {
      "inputs": [
        {
          "internalType": "address",
          "name": "_staker",
          "type": "address"
        },
        {
          "internalType": "uint256",
          "name": "_allowedTokenIndex",
          "type": "uint256"
        }
      ],
      "name": "getTokenStake",
      "outputs": [
        {
          "internalType": "address",
          "name": "tokenAddress",
          "type": "address"
        },
        {
          "internalType": "uint256",
          "name": "stake",
          "type": "uint256"
        }
      ],
      "stateMutability": "view",
      "type": "function"
    },
    {
      "inputs": [
        {
          "internalType": "address",
          "name": "_tokenAddress",
          "type": "address"
        }
      ],
      "name": "isAllowedToken",
      "outputs": [
        {
          "internalType": "bool",
          "name": "",
          "type": "bool"
        }
      ],
      "stateMutability": "view",
      "type": "function"
    },
    {
      "inputs": [],
      "name": "leverage",
      "outputs": [
        {
          "internalType": "uint64",
          "name": "",
          "type": "uint64"
        }
      ],
      "stateMutability": "view",
      "type": "function"
    },
    {
      "inputs": [],
      "name": "owner",
      "outputs": [
        {
          "internalType": "address",
          "name": "",
          "type": "address"
        }
      ],
      "stateMutability": "view",
      "type": "function"
    },
    {
      "inputs": [
        {
          "internalType": "address",
          "name": "",
          "type": "address"
        }
      ],
      "name": "providerPool",
      "outputs": [
        {
          "internalType": "uint256",
          "name": "",
          "type": "uint256"
        }
      ],
      "stateMutability": "view",
      "type": "function"
    },
    {
      "inputs": [
        {
          "internalType": "address",
          "name": "",
          "type": "address"
        }
      ],
      "name": "registeredStakers",
      "outputs": [
        {
          "internalType": "bool",
          "name": "",
          "type": "bool"
        }
      ],
      "stateMutability": "view",
      "type": "function"
    },
    {
      "inputs": [
        {
          "internalType": "address[]",
          "name": "_userAddresses",
          "type": "address[]"
        }
      ],
      "name": "removeUsersFromWhitelist",
      "outputs": [],
      "stateMutability": "nonpayable",
      "type": "function"
    },
    {
      "inputs": [],
      "name": "renounceOwnership",
      "outputs": [],
      "stateMutability": "nonpayable",
      "type": "function"
    },
    {
      "inputs": [],
      "name": "slaID",
      "outputs": [
        {
          "internalType": "uint128",
          "name": "",
          "type": "uint128"
        }
      ],
      "stateMutability": "view",
      "type": "function"
    },
    {
      "inputs": [
        {
          "internalType": "uint256",
          "name": "",
          "type": "uint256"
        }
      ],
      "name": "stakers",
      "outputs": [
        {
          "internalType": "address",
          "name": "",
          "type": "address"
        }
      ],
      "stateMutability": "view",
      "type": "function"
    },
    {
      "inputs": [
        {
          "internalType": "address",
          "name": "newOwner",
          "type": "address"
        }
      ],
      "name": "transferOwnership",
      "outputs": [],
      "stateMutability": "nonpayable",
      "type": "function"
    },
    {
      "inputs": [
        {
          "internalType": "address",
          "name": "",
          "type": "address"
        }
      ],
      "name": "usersPool",
      "outputs": [
        {
          "internalType": "uint256",
          "name": "",
          "type": "uint256"
        }
      ],
      "stateMutability": "view",
      "type": "function"
    },
    {
      "inputs": [
        {
          "internalType": "address",
          "name": "",
          "type": "address"
        }
      ],
      "name": "whitelist",
      "outputs": [
        {
          "internalType": "bool",
          "name": "",
          "type": "bool"
        }
      ],
      "stateMutability": "view",
      "type": "function"
    },
    {
      "inputs": [],
      "name": "whitelistedContract",
      "outputs": [
        {
          "internalType": "bool",
          "name": "",
          "type": "bool"
        }
      ],
      "stateMutability": "view",
      "type": "function"
    }
  ],
  "bytecode": "0x6101606040523480156200001257600080fd5b5060405162001d4938038062001d49833981810160405260c08110156200003857600080fd5b508051602082015160408301516060840151608085015160a09095015193949293919290916000620000726001600160e01b03620003bb16565b600080546001600160a01b0319166001600160a01b0383169081178255604051929350917f8be0079c531659141344cd1fd0a4f28419497f9722a3daafe3b4186f6b6457e0908290a350856001600160a01b031663683048356040518163ffffffff1660e01b815260040160206040518083038186803b158015620000f657600080fd5b505afa1580156200010b573d6000803e3d6000fd5b505050506040513d60208110156200012257600080fd5b5051600180546001600160a01b0319166001600160a01b0392831617905560408051639fc4caa560e01b8152905191881691639fc4caa591600480820192602092909190829003018186803b1580156200017b57600080fd5b505afa15801562000190573d6000803e3d6000fd5b505050506040513d6020811015620001a757600080fd5b505160601b6001600160601b031916608052846005811115620001c657fe5b610100816005811115620001d657fe5b60f890811b909152851515901b610120525060015460408051637b8041cf60e11b8152905160009283926001600160a01b039091169163f700839e9160048082019261010092909190829003018186803b1580156200023457600080fd5b505afa15801562000249573d6000803e3d6000fd5b505050506040513d6101008110156200026157600080fd5b50805160e09091015160015460408051638b8e530960e01b815290519395509193506001600160a01b031691638b8e530991600480820192602092909190829003018186803b158015620002b457600080fd5b505afa158015620002c9573d6000803e3d6000fd5b505050506040513d6020811015620002e057600080fd5b505160601b6001600160601b03191660c05260e08290526001600160a01b03831660009081526009602052604090208054600160ff19909116179055608085901b6001600160801b03191660a0526001600160401b03818116908516118015906200035557506001846001600160401b031610155b6200039c576040805162461bcd60e51b8152602060048201526012602482015271496e636f7272656374206c6576657261676560701b604482015290519081900360640190fd5b50505060c01b6001600160c01b0319166101405250620003bf92505050565b3390565b60805160601c60a05160801c60c05160601c60e0516101005160f81c6101205160f81c6101405160c01c6119296200042060003980611007525080610fe35250508061134f52508061173052508061077c528061160a5250506119296000f3fe608060405234801561001057600080fd5b50600436106101425760003560e01c8063715018a6116100b8578063b7bc347e1161007c578063b7bc347e14610459578063cbe230c314610461578063f2db10fe14610487578063f2fde38b146104ab578063f7e9dfff146104d1578063fd5e6dd1146104d957610142565b8063715018a61461038d5780638d21c770146103955780638da5cb5b146104055780639b19251a1461040d578063a7e8d8d41461043357610142565b80634fb2647e1161010a5780634fb2647e1461022a57806357ac94f0146102505780635ae698ff1461029f5780635c1c20de146103425780635e5f2e261461034a578063639b6fc31461036757610142565b8063171e44ea1461014757806318e454271461016f5780632c86d98e1461018b578063484fbf2b146101b05780634e0c91f6146101e8575b600080fd5b61016d6004803603602081101561015d57600080fd5b50356001600160a01b03166104f6565b005b610177610fe1565b604080519115158252519081900360200190f35b610193611005565b6040805167ffffffffffffffff9092168252519081900360200190f35b6101d6600480360360208110156101c657600080fd5b50356001600160a01b0316611029565b60408051918252519081900360200190f35b61020e600480360360208110156101fe57600080fd5b50356001600160a01b031661103b565b604080516001600160a01b039092168252519081900360200190f35b61020e6004803603602081101561024057600080fd5b50356001600160a01b0316611056565b61027c6004803603604081101561026657600080fd5b506001600160a01b038135169060200135611071565b604080516001600160a01b03909316835260208301919091528051918290030190f35b61016d600480360360208110156102b557600080fd5b8101906020810181356401000000008111156102d057600080fd5b8201836020820111156102e257600080fd5b8035906020019184602083028401116401000000008311171561030457600080fd5b919080806020026020016040519081016040528093929190818152602001838360200280828437600092019190915250929550611246945050505050565b6101d661134d565b61020e6004803603602081101561036057600080fd5b5035611371565b6101d66004803603602081101561037d57600080fd5b50356001600160a01b0316611398565b61016d6113aa565b61016d600480360360208110156103ab57600080fd5b8101906020810181356401000000008111156103c657600080fd5b8201836020820111156103d857600080fd5b803590602001918460208302840111640100000000831117156103fa57600080fd5b509092509050611456565b61020e61156c565b6101776004803603602081101561042357600080fd5b50356001600160a01b031661157b565b6101776004803603602081101561044957600080fd5b50356001600160a01b0316611590565b6101d66115a5565b6101776004803603602081101561047757600080fd5b50356001600160a01b03166115ab565b61048f611608565b604080516001600160801b039092168252519081900360200190f35b61016d600480360360208110156104c157600080fd5b50356001600160a01b031661162c565b61020e61172e565b61020e600480360360208110156104ef57600080fd5b5035611752565b6104fe61175f565b6001600160a01b031661050f61156c565b6001600160a01b031614610558576040805162461bcd60e51b815260206004820181905260248201526000805160206118d4833981519152604482015290519081900360640190fd5b60015460408051637b8041cf60e11b815290516000926001600160a01b03169163f700839e91600480830192610100929190829003018186803b15801561059e57600080fd5b505afa1580156105b2573d6000803e3d6000fd5b505050506040513d6101008110156105c957600080fd5b5060c0015190506105d9826115ab565b15610621576040805162461bcd60e51b8152602060048201526013602482015272151bdad95b88185b1c9958591e481859191959606a1b604482015290519081900360640190fd5b6001546040805163cbe230c360e01b81526001600160a01b0385811660048301529151919092169163cbe230c3916024808301926020929190829003018186803b15801561066e57600080fd5b505afa158015610682573d6000803e3d6000fd5b505050506040513d602081101561069857600080fd5b50516106d55760405162461bcd60e51b815260040180806020018281038252602d815260200180611886602d913960400191505060405180910390fd5b6008805460018101825560008290527ff3f7a9fe364faab93b216da50a3214154f22a0a2b415b23a84c8169e8b636ee30180546001600160a01b0319166001600160a01b0385161790555481101561075e5760405162461bcd60e51b815260040180806020018281038252603381526020018061182d6033913960400191505060405180910390fd5b606073__$89e48f3f2b1d5dfed70cd34b0db16ca79e$__63fc966d457f00000000000000000000000000000000000000000000000000000000000000006040518263ffffffff1660e01b815260040180826001600160801b0316815260200191505060006040518083038186803b1580156107d857600080fd5b505af41580156107ec573d6000803e3d6000fd5b505050506040513d6000823e601f3d908101601f19168201604052602081101561081557600080fd5b810190808051604051939291908464010000000082111561083557600080fd5b90830190602082018581111561084a57600080fd5b825164010000000081118282018810171561086457600080fd5b82525081516020918201929091019080838360005b83811015610891578181015183820152602001610879565b50505050905090810190601f1680156108be5780820380516001836020036101000a031916815260200191505b50604052505050905060608160405160200180806a44534c412d53484f52542d60a81b815250600b0182805190602001908083835b602083106109125780518252601f1990920191602091820191016108f3565b6001836020036101000a038019825116818451168082178552505050505050905001915050604051602081830303815290604052905060608260405160200180806744534c412d53502d60c01b81525060080182805190602001908083835b602083106109905780518252601f199092019160209182019101610971565b6001836020036101000a038019825116818451168082178552505050505050905001915050604051602081830303815290604052905060608360405160200180806944534c412d4c4f4e472d60b01b815250600a0182805190602001908083835b60208310610a105780518252601f1990920191602091820191016109f1565b6001836020036101000a038019825116818451168082178552505050505050905001915050604051602081830303815290604052905060608460405160200180806744534c412d4c502d60c01b81525060080182805190602001908083835b60208310610a8e5780518252601f199092019160209182019101610a6f565b51815160209384036101000a60001901801990921691161790526040805192909401828103601f19018352808552600154633350214760e11b8252600482019586528b5160448301528b51939850600097506001600160a01b031695506366a0428e948b94508a939092839260248101926064909101918701908083838d5b83811015610b25578181015183820152602001610b0d565b50505050905090810190601f168015610b525780820380516001836020036101000a031916815260200191505b50838103825284518152845160209182019186019080838360005b83811015610b85578181015183820152602001610b6d565b50505050905090810190601f168015610bb25780820380516001836020036101000a031916815260200191505b50945050505050602060405180830381600087803b158015610bd357600080fd5b505af1158015610be7573d6000803e3d6000fd5b505050506040513d6020811015610bfd57600080fd5b505160015460408051633350214760e11b8152600481019182528651604482015286519394506000936001600160a01b03909316926366a0428e92889288928291602481019160649091019060208701908083838d5b83811015610c6b578181015183820152602001610c53565b50505050905090810190601f168015610c985780820380516001836020036101000a031916815260200191505b50838103825284518152845160209182019186019080838360005b83811015610ccb578181015183820152602001610cb3565b50505050905090810190601f168015610cf85780820380516001836020036101000a031916815260200191505b50945050505050602060405180830381600087803b158015610d1957600080fd5b505af1158015610d2d573d6000803e3d6000fd5b505050506040513d6020811015610d4357600080fd5b8101908080519060200190929190505050905080600560008b6001600160a01b03166001600160a01b0316815260200190815260200160002060006101000a8154816001600160a01b0302191690836001600160a01b0316021790555081600460008b6001600160a01b03166001600160a01b0316815260200190815260200160002060006101000a8154816001600160a01b0302191690836001600160a01b03160217905550816001600160a01b0316816001600160a01b03168a6001600160a01b03167fce8c390dc55dbcd418078f1391fbb7d471c01c228fc4464926095354cb27c02987888b8c6040518080602001806020018060200180602001858103855289818151815260200191508051906020019080838360005b83811015610e76578181015183820152602001610e5e565b50505050905090810190601f168015610ea35780820380516001836020036101000a031916815260200191505b5085810384528851815288516020918201918a019080838360005b83811015610ed6578181015183820152602001610ebe565b50505050905090810190601f168015610f035780820380516001836020036101000a031916815260200191505b50858103835287518152875160209182019189019080838360005b83811015610f36578181015183820152602001610f1e565b50505050905090810190601f168015610f635780820380516001836020036101000a031916815260200191505b50858103825286518152865160209182019188019080838360005b83811015610f96578181015183820152602001610f7e565b50505050905090810190601f168015610fc35780820380516001836020036101000a031916815260200191505b509850505050505050505060405180910390a4505050505050505050565b7f000000000000000000000000000000000000000000000000000000000000000081565b7f000000000000000000000000000000000000000000000000000000000000000081565b60036020526000908152604090205481565b6004602052600090815260409020546001600160a01b031681565b6005602052600090815260409020546001600160a01b031681565b60008060006008848154811061108357fe5b6000918252602090912001546001600160a01b031690506110a261156c565b6001600160a01b0316856001600160a01b031614156110de576001600160a01b038116600090815260026020526040902054909250905061123f565b6001600160a01b0380821660009081526004602081815260408084205481516318160ddd60e01b8152915195169485936318160ddd938382019390929190829003018186803b15801561113057600080fd5b505afa158015611144573d6000803e3d6000fd5b505050506040513d602081101561115a57600080fd5b505190508061117257509092506000915061123f9050565b6000826001600160a01b03166370a08231896040518263ffffffff1660e01b815260040180826001600160a01b03166001600160a01b0316815260200191505060206040518083038186803b1580156111ca57600080fd5b505afa1580156111de573d6000803e3d6000fd5b505050506040513d60208110156111f457600080fd5b50516001600160a01b038516600090815260036020526040902054909150849061123690849061122a908563ffffffff61176316565b9063ffffffff6117c516565b95509550505050505b9250929050565b61124e61175f565b6001600160a01b031661125f61156c565b6001600160a01b0316146112a8576040805162461bcd60e51b815260206004820181905260248201526000805160206118d4833981519152604482015290519081900360640190fd5b60005b815181101561134957600960008383815181106112c457fe5b6020908102919091018101516001600160a01b031682528101919091526040016000205460ff166113415760016009600084848151811061130157fe5b60200260200101516001600160a01b03166001600160a01b0316815260200190815260200160002060006101000a81548160ff0219169083151502179055505b6001016112ab565b5050565b7f000000000000000000000000000000000000000000000000000000000000000081565b6008818154811061137e57fe5b6000918252602090912001546001600160a01b0316905081565b60026020526000908152604090205481565b6113b261175f565b6001600160a01b03166113c361156c565b6001600160a01b03161461140c576040805162461bcd60e51b815260206004820181905260248201526000805160206118d4833981519152604482015290519081900360640190fd5b600080546040516001600160a01b03909116907f8be0079c531659141344cd1fd0a4f28419497f9722a3daafe3b4186f6b6457e0908390a3600080546001600160a01b0319169055565b61145e61175f565b6001600160a01b031661146f61156c565b6001600160a01b0316146114b8576040805162461bcd60e51b815260206004820181905260248201526000805160206118d4833981519152604482015290519081900360640190fd5b60005b8181101561156757600960008484848181106114d357fe5b602090810292909201356001600160a01b031683525081019190915260400160002054600160ff9091161515141561155f5760006009600085858581811061151757fe5b905060200201356001600160a01b03166001600160a01b03166001600160a01b0316815260200190815260200160002060006101000a81548160ff0219169083151502179055505b6001016114bb565b505050565b6000546001600160a01b031690565b60096020526000908152604090205460ff1681565b60076020526000908152604090205460ff1681565b60085490565b6000805b6008548110156115fd57826001600160a01b0316600882815481106115d057fe5b6000918252602090912001546001600160a01b031614156115f5576001915050611603565b6001016115af565b50600090505b919050565b7f000000000000000000000000000000000000000000000000000000000000000081565b61163461175f565b6001600160a01b031661164561156c565b6001600160a01b03161461168e576040805162461bcd60e51b815260206004820181905260248201526000805160206118d4833981519152604482015290519081900360640190fd5b6001600160a01b0381166116d35760405162461bcd60e51b81526004018080602001828103825260268152602001806118606026913960400191505060405180910390fd5b600080546040516001600160a01b03808516939216917f8be0079c531659141344cd1fd0a4f28419497f9722a3daafe3b4186f6b6457e091a3600080546001600160a01b0319166001600160a01b0392909216919091179055565b7f000000000000000000000000000000000000000000000000000000000000000081565b6006818154811061137e57fe5b3390565b600082611772575060006117bf565b8282028284828161177f57fe5b04146117bc5760405162461bcd60e51b81526004018080602001828103825260218152602001806118b36021913960400191505060405180910390fd5b90505b92915050565b600080821161181b576040805162461bcd60e51b815260206004820152601a60248201527f536166654d6174683a206469766973696f6e206279207a65726f000000000000604482015290519081900360640190fd5b81838161182457fe5b04939250505056fe416c6c6f77656420746f6b656e73206c656e6774682067726561746572207468616e206d617820746f6b656e206c656e6774684f776e61626c653a206e6577206f776e657220697320746865207a65726f2061646472657373546f6b656e206e6f7420616c6c6f7765642062792074686520534c41526567697374727920636f6e7472616374536166654d6174683a206d756c7469706c69636174696f6e206f766572666c6f774f776e61626c653a2063616c6c6572206973206e6f7420746865206f776e6572a264697066735822122097a8c17738fa23eb91fd63b0231375e8bb69b7a5314baf0398a28eeeb0289ce764736f6c63430006060033",
  "linkReferences": {
    "@stacktical/dsla-protocol/contracts/StringUtils.sol": {
      "StringUtils": [
        {
          "length": 20,
          "start": 2946
        }
      ]
    }
  },
  "deployedLinkReferences": {
    "@stacktical/dsla-protocol/contracts/StringUtils.sol": {
      "StringUtils": [
        {
          "length": 20,
          "start": 1890
        }
      ]
    }
  }
}