{
  "address": "0x857533E7d9DE216E8BdBd1620018099B88cDD792",
  "abi": [
    {
      "anonymous": false,
      "inputs": [
        {
          "indexed": true,
          "internalType": "address",
          "name": "ownerAddress",
          "type": "address"
        },
        {
          "indexed": true,
          "internalType": "address",
          "name": "messengerAddress",
          "type": "address"
        },
        {
          "indexed": false,
          "internalType": "string",
          "name": "specificationUrl",
          "type": "string"
        },
        {
          "indexed": false,
          "internalType": "uint256",
          "name": "precision",
          "type": "uint256"
        },
        {
          "indexed": false,
          "internalType": "uint256",
          "name": "id",
          "type": "uint256"
        }
      ],
      "name": "MessengerModified",
      "type": "event"
    },
    {
      "anonymous": false,
      "inputs": [
        {
          "indexed": true,
          "internalType": "address",
          "name": "ownerAddress",
          "type": "address"
        },
        {
          "indexed": true,
          "internalType": "address",
          "name": "messengerAddress",
          "type": "address"
        },
        {
          "indexed": false,
          "internalType": "string",
          "name": "specificationUrl",
          "type": "string"
        },
        {
          "indexed": false,
          "internalType": "uint256",
          "name": "precision",
          "type": "uint256"
        },
        {
          "indexed": false,
          "internalType": "uint256",
          "name": "id",
          "type": "uint256"
        }
      ],
      "name": "MessengerRegistered",
      "type": "event"
    },
    {
      "inputs": [],
      "name": "getMessengers",
      "outputs": [
        {
          "components": [
            {
              "internalType": "address",
              "name": "ownerAddress",
              "type": "address"
            },
            {
              "internalType": "address",
              "name": "messengerAddress",
              "type": "address"
            },
            {
              "internalType": "string",
              "name": "specificationUrl",
              "type": "string"
            },
            {
              "internalType": "uint256",
              "name": "precision",
              "type": "uint256"
            },
            {
              "internalType": "uint256",
              "name": "requestsCounter",
              "type": "uint256"
            },
            {
              "internalType": "uint256",
              "name": "fulfillsCounter",
              "type": "uint256"
            },
            {
              "internalType": "uint256",
              "name": "id",
              "type": "uint256"
            }
          ],
          "internalType": "struct MessengerRegistry.Messenger[]",
          "name": "",
          "type": "tuple[]"
        }
      ],
      "stateMutability": "view",
      "type": "function"
    },
    {
      "inputs": [],
      "name": "getMessengersLength",
      "outputs": [
        {
          "internalType": "uint256",
          "name": "",
          "type": "uint256"
        }
      ],
      "stateMutability": "view",
      "type": "function"
    },
    {
      "inputs": [
        {
          "internalType": "string",
          "name": "_specificationUrl",
          "type": "string"
        },
        {
          "internalType": "uint256",
          "name": "_messengerId",
          "type": "uint256"
        }
      ],
      "name": "modifyMessenger",
      "outputs": [],
      "stateMutability": "nonpayable",
      "type": "function"
    },
    {
      "inputs": [
        {
          "internalType": "address",
          "name": "callerAddress_",
          "type": "address"
        },
        {
          "internalType": "address",
          "name": "messengerAddress_",
          "type": "address"
        },
        {
          "internalType": "string",
          "name": "specificationUrl_",
          "type": "string"
        }
      ],
      "name": "registerMessenger",
      "outputs": [],
      "stateMutability": "nonpayable",
      "type": "function"
    },
    {
      "inputs": [
        {
          "internalType": "address",
          "name": "messengerAddress_",
          "type": "address"
        }
      ],
      "name": "registeredMessengers",
      "outputs": [
        {
          "internalType": "bool",
          "name": "",
          "type": "bool"
        }
      ],
      "stateMutability": "view",
      "type": "function"
    },
    {
      "inputs": [],
      "name": "setSLARegistry",
      "outputs": [],
      "stateMutability": "nonpayable",
      "type": "function"
    }
  ],
  "transactionHash": "0xa8150152b42d7f6a1455adbfb32eabc1091d824440410bfc70b8055d4352834f",
  "args": [],
  "solcInputHash": "b60ff3a3069df4f3117561968383abbc",
  "bytecode": "0x608060405234801561001057600080fd5b50611008806100206000396000f3fe608060405234801561001057600080fd5b50600436106100625760003560e01c806369b5354b14610067578063822d332e146100855780639f69d7f81461009a578063eabb8a73146100af578063ef4003db146100c2578063f3881589146100e2575b600080fd5b61006f6100ea565b60405161007c9190610c75565b60405180910390f35b610098610093366004610c13565b610404565b005b6100a2610569565b60405161007c9190610fa5565b6100986100bd366004610bb0565b61056f565b6100d56100d0366004610b71565b61097a565b60405161007c9190610d67565b610098610998565b600054606090819067ffffffffffffffff8111801561010857600080fd5b5060405190808252806020026020018201604052801561014257816020015b61012f6109d5565b8152602001906001900390816101275790505b50905060005b6000548110156103fd57600080828154811061016057fe5b906000526020600020906007020160010160009054906101000a90046001600160a01b031690506000816001600160a01b031663663c22696040518163ffffffff1660e01b815260040160206040518083038186803b1580156101c257600080fd5b505afa1580156101d6573d6000803e3d6000fd5b505050506040513d601f19601f820116820180604052508101906101fa9190610c5d565b90506000826001600160a01b031663a50c54256040518163ffffffff1660e01b815260040160206040518083038186803b15801561023757600080fd5b505afa15801561024b573d6000803e3d6000fd5b505050506040513d601f19601f8201168201806040525081019061026f9190610c5d565b90506040518060e001604052806000868154811061028957fe5b600091825260208083206007909202909101546001600160a01b031683528154920191879081106102b657fe5b60009182526020808320600160079093020191909101546001600160a01b031683528154920191879081106102e757fe5b600091825260209182902060026007909202018101805460408051601f60001961010060018616150201909316949094049182018590048502840185019052808352919290919083018282801561037f5780601f106103545761010080835404028352916020019161037f565b820191906000526020600020905b81548152906001019060200180831161036257829003601f168201915b505050505081526020016000868154811061039657fe5b9060005260206000209060070201600301548152602001838152602001828152602001600086815481106103c657fe5b9060005260206000209060070201600601548152508585815181106103e757fe5b6020908102919091010152505050600101610148565b5090505b90565b600080828154811061041257fe5b9060005260206000209060070201905060008160010160009054906101000a90046001600160a01b03169050806001600160a01b0316638da5cb5b6040518163ffffffff1660e01b815260040160206040518083038186803b15801561047757600080fd5b505afa15801561048b573d6000803e3d6000fd5b505050506040513d601f19601f820116820180604052508101906104af9190610b94565b6001600160a01b0316336001600160a01b0316146104e85760405162461bcd60e51b81526004016104df90610e45565b60405180910390fd5b6104f6600283018686610a24565b5081546001600160a01b03191633178083556001830154600384015460068501546040516001600160a01b0393841694909316927f535c96772bc04bd66e3fc2bab24c455ef0b5bac77cc845b644482e89dce861129261055a926002890192610db1565b60405180910390a35050505050565b60005490565b6003546001600160a01b031633146105995760405162461bcd60e51b81526004016104df90610e86565b6001600160a01b03831660009081526001602052604090205460ff16156105d25760405162461bcd60e51b81526004016104df90610eda565b60008390506000816001600160a01b0316638da5cb5b6040518163ffffffff1660e01b815260040160206040518083038186803b15801561061257600080fd5b505afa158015610626573d6000803e3d6000fd5b505050506040513d601f19601f8201168201806040525081019061064a9190610b94565b9050856001600160a01b0316816001600160a01b03161461067d5760405162461bcd60e51b81526004016104df90610f59565b6000826001600160a01b031663c9b0cb226040518163ffffffff1660e01b815260040160206040518083038186803b1580156106b857600080fd5b505afa1580156106cc573d6000803e3d6000fd5b505050506040513d601f19601f820116820180604052508101906106f09190610c5d565b90506000836001600160a01b031663663c22696040518163ffffffff1660e01b815260040160206040518083038186803b15801561072d57600080fd5b505afa158015610741573d6000803e3d6000fd5b505050506040513d601f19601f820116820180604052508101906107659190610c5d565b90506000846001600160a01b031663a50c54256040518163ffffffff1660e01b815260040160206040518083038186803b1580156107a257600080fd5b505afa1580156107b6573d6000803e3d6000fd5b505050506040513d601f19601f820116820180604052508101906107da9190610c5d565b6001600160a01b03808a166000818152600160208181526040808420805460ff1916841790558354958b1680855260028352818520805494850181558552828520909301869055805160e081018252928352828201949094528351601f8d0182900482028101820185528c8152959650939491939092830191908c908c908190840183828082843760009201829052509385525050506020808301899052604080840189905260608401889052608090930186905284546001818101875595835291819020845160079093020180546001600160a01b039384166001600160a01b0319918216178255858301519682018054979094169616959095179091559082015180519293926108f29260028501920190610aa2565b50606082015181600301556080820151816004015560a0820151816005015560c082015181600601555050886001600160a01b0316856001600160a01b03167f65ec88813f8015e2d5de403d956ea4d6c79b88ad66a42ada93a9b4619e10fd888a8a88866040516109669493929190610d72565b60405180910390a350505050505050505050565b6001600160a01b031660009081526001602052604090205460ff1690565b6003546001600160a01b0316156109c15760405162461bcd60e51b81526004016104df90610f11565b600380546001600160a01b03191633179055565b6040518060e0016040528060006001600160a01b0316815260200160006001600160a01b0316815260200160608152602001600081526020016000815260200160008152602001600081525090565b828054600181600116156101000203166002900490600052602060002090601f016020900481019282601f10610a655782800160ff19823516178555610a92565b82800160010185558215610a92579182015b82811115610a92578235825591602001919060010190610a77565b50610a9e929150610b10565b5090565b828054600181600116156101000203166002900490600052602060002090601f016020900481019282601f10610ae357805160ff1916838001178555610a92565b82800160010185558215610a92579182015b82811115610a92578251825591602001919060010190610af5565b61040191905b80821115610a9e5760008155600101610b16565b60008083601f840112610b3b578182fd5b50813567ffffffffffffffff811115610b52578182fd5b602083019150836020828501011115610b6a57600080fd5b9250929050565b600060208284031215610b82578081fd5b8135610b8d81610fba565b9392505050565b600060208284031215610ba5578081fd5b8151610b8d81610fba565b60008060008060608587031215610bc5578283fd5b8435610bd081610fba565b93506020850135610be081610fba565b9250604085013567ffffffffffffffff811115610bfb578283fd5b610c0787828801610b2a565b95989497509550505050565b600080600060408486031215610c27578283fd5b833567ffffffffffffffff811115610c3d578384fd5b610c4986828701610b2a565b909790965060209590950135949350505050565b600060208284031215610c6e578081fd5b5051919050565b60208082528251828201819052600091906040908185019080840286018301878501865b83811015610d5957888303603f19018552815180516001600160a01b0390811685528882015116888501528681015160e088860181905281519086018190528a91905b80831015610cfb578183018b01518784016101000152918a0191610cdc565b80831115610d0d578b61010082890101525b606084810151908801526080808501519088015260a0808501519088015260c09384015193870193909352505094870194601f01601f1916909201610100019190860190600101610c99565b509098975050505050505050565b901515815260200190565b6000606082528460608301528486608084013780608086840101526080601f19601f870116830101905083602083015282604083015295945050505050565b60006060820160608352818654600180821660008114610dd85760018114610df657610e2f565b60028304607f16855260ff198316608088015260a087019350610e2f565b60028304808652610e068b610fae565b875b82811015610e255781548a82016080015290840190602001610e08565b8901608001955050505b5050506020840195909552505060400152919050565b60208082526021908201527f43616e206f6e6c79206265206d6f64696669656420627920746865206f776e656040820152603960f91b606082015260800190565b60208082526034908201527f53686f756c64206f6e6c792062652063616c6c6564207573696e67207468652060408201527314d310549959da5cdd1c9e4818dbdb9d1c9858dd60621b606082015260800190565b6020808252601c908201527f6d657373656e67657220616c7265616479207265676973746572656400000000604082015260600190565b60208082526028908201527f534c41526567697374727920616464726573732068617320616c7265616479206040820152671899595b881cd95d60c21b606082015260800190565b6020808252602c908201527f53686f756c64206f6e6c792062652063616c6c656420627920746865206d657360408201526b39b2b733b2b91037bbb732b960a11b606082015260800190565b90815260200190565b60009081526020902090565b6001600160a01b0381168114610fcf57600080fd5b5056fea26469706673582212201fcc18e9bd1c00d75f0c7ea9d65fd255484facb30ef9a17b151f27c0450495e464736f6c63430006060033",
  "devdoc": {
    "details": "MessengerRegistry is a contract to register openly distributed Messengers",
    "methods": {
      "modifyMessenger(string,uint256)": {
        "details": "function to modifyMessenger a Messenger"
      },
      "registerMessenger(address,address,string)": {
        "details": "function to register a new Messenger"
      },
      "setSLARegistry()": {
        "details": "sets the SLARegistry contract address and can only be called once"
      }
    },
    "title": "MessengerRegistry"
  },
  "userdoc": {
    "methods": {}
  },
  "storageLayout": {
    "storage": [
      {
        "astId": 7287,
        "contract": "@stacktical/dsla-contracts/contracts/MessengerRegistry.sol:MessengerRegistry",
        "label": "_messengers",
        "offset": 0,
        "slot": "0",
        "type": "t_array(t_struct(Messenger)7284_storage)dyn_storage"
      },
      {
        "astId": 7291,
        "contract": "@stacktical/dsla-contracts/contracts/MessengerRegistry.sol:MessengerRegistry",
        "label": "_registeredMessengers",
        "offset": 0,
        "slot": "1",
        "type": "t_mapping(t_address,t_bool)"
      },
      {
        "astId": 7296,
        "contract": "@stacktical/dsla-contracts/contracts/MessengerRegistry.sol:MessengerRegistry",
        "label": "_ownerMessengers",
        "offset": 0,
        "slot": "2",
        "type": "t_mapping(t_address,t_array(t_uint256)dyn_storage)"
      },
      {
        "astId": 7298,
        "contract": "@stacktical/dsla-contracts/contracts/MessengerRegistry.sol:MessengerRegistry",
        "label": "_slaRegistry",
        "offset": 0,
        "slot": "3",
        "type": "t_address"
      }
    ],
    "types": {
      "t_address": {
        "encoding": "inplace",
        "label": "address",
        "numberOfBytes": "20"
      },
      "t_array(t_struct(Messenger)7284_storage)dyn_storage": {
        "base": "t_struct(Messenger)7284_storage",
        "encoding": "dynamic_array",
        "label": "struct MessengerRegistry.Messenger[]",
        "numberOfBytes": "32"
      },
      "t_array(t_uint256)dyn_storage": {
        "base": "t_uint256",
        "encoding": "dynamic_array",
        "label": "uint256[]",
        "numberOfBytes": "32"
      },
      "t_bool": {
        "encoding": "inplace",
        "label": "bool",
        "numberOfBytes": "1"
      },
      "t_mapping(t_address,t_array(t_uint256)dyn_storage)": {
        "encoding": "mapping",
        "key": "t_address",
        "label": "mapping(address => uint256[])",
        "numberOfBytes": "32",
        "value": "t_array(t_uint256)dyn_storage"
      },
      "t_mapping(t_address,t_bool)": {
        "encoding": "mapping",
        "key": "t_address",
        "label": "mapping(address => bool)",
        "numberOfBytes": "32",
        "value": "t_bool"
      },
      "t_string_storage": {
        "encoding": "bytes",
        "label": "string",
        "numberOfBytes": "32"
      },
      "t_struct(Messenger)7284_storage": {
        "encoding": "inplace",
        "label": "struct MessengerRegistry.Messenger",
        "members": [
          {
            "astId": 7271,
            "contract": "@stacktical/dsla-contracts/contracts/MessengerRegistry.sol:MessengerRegistry",
            "label": "ownerAddress",
            "offset": 0,
            "slot": "0",
            "type": "t_address"
          },
          {
            "astId": 7273,
            "contract": "@stacktical/dsla-contracts/contracts/MessengerRegistry.sol:MessengerRegistry",
            "label": "messengerAddress",
            "offset": 0,
            "slot": "1",
            "type": "t_address"
          },
          {
            "astId": 7275,
            "contract": "@stacktical/dsla-contracts/contracts/MessengerRegistry.sol:MessengerRegistry",
            "label": "specificationUrl",
            "offset": 0,
            "slot": "2",
            "type": "t_string_storage"
          },
          {
            "astId": 7277,
            "contract": "@stacktical/dsla-contracts/contracts/MessengerRegistry.sol:MessengerRegistry",
            "label": "precision",
            "offset": 0,
            "slot": "3",
            "type": "t_uint256"
          },
          {
            "astId": 7279,
            "contract": "@stacktical/dsla-contracts/contracts/MessengerRegistry.sol:MessengerRegistry",
            "label": "requestsCounter",
            "offset": 0,
            "slot": "4",
            "type": "t_uint256"
          },
          {
            "astId": 7281,
            "contract": "@stacktical/dsla-contracts/contracts/MessengerRegistry.sol:MessengerRegistry",
            "label": "fulfillsCounter",
            "offset": 0,
            "slot": "5",
            "type": "t_uint256"
          },
          {
            "astId": 7283,
            "contract": "@stacktical/dsla-contracts/contracts/MessengerRegistry.sol:MessengerRegistry",
            "label": "id",
            "offset": 0,
            "slot": "6",
            "type": "t_uint256"
          }
        ],
        "numberOfBytes": "224"
      },
      "t_uint256": {
        "encoding": "inplace",
        "label": "uint256",
        "numberOfBytes": "32"
      }
    }
  }
}