{
  "_format": "hh-sol-artifact-1",
  "contractName": "SEMessenger",
  "sourceName": "contracts/messengers/staking-efficiency/SEMessenger.sol",
  "abi": [
    {
      "inputs": [
        {
          "internalType": "address",
          "name": "_messengerChainlinkOracle",
          "type": "address"
        },
        {
          "internalType": "address",
          "name": "_messengerChainlinkToken",
          "type": "address"
        },
        {
          "internalType": "bytes32",
          "name": "_messengerJobId",
          "type": "bytes32"
        },
        {
          "internalType": "uint256",
          "name": "_feeMultiplier",
          "type": "uint256"
        },
        {
          "internalType": "contract PeriodRegistry",
          "name": "_periodRegistry",
          "type": "address"
        },
        {
          "internalType": "contract StakeRegistry",
          "name": "_stakeRegistry",
          "type": "address"
        }
      ],
      "stateMutability": "nonpayable",
      "type": "constructor"
    },
    {
      "anonymous": false,
      "inputs": [
        {
          "indexed": true,
          "internalType": "bytes32",
          "name": "id",
          "type": "bytes32"
        }
      ],
      "name": "ChainlinkCancelled",
      "type": "event"
    },
    {
      "anonymous": false,
      "inputs": [
        {
          "indexed": true,
          "internalType": "bytes32",
          "name": "id",
          "type": "bytes32"
        }
      ],
      "name": "ChainlinkFulfilled",
      "type": "event"
    },
    {
      "anonymous": false,
      "inputs": [
        {
          "indexed": true,
          "internalType": "bytes32",
          "name": "id",
          "type": "bytes32"
        }
      ],
      "name": "ChainlinkRequested",
      "type": "event"
    },
    {
      "anonymous": false,
      "inputs": [
        {
          "indexed": true,
          "internalType": "address",
          "name": "owner",
          "type": "address"
        },
        {
          "indexed": false,
          "internalType": "bytes32",
          "name": "jobId",
          "type": "bytes32"
        },
        {
          "indexed": false,
          "internalType": "uint256",
          "name": "fee",
          "type": "uint256"
        }
      ],
      "name": "JobIdModified",
      "type": "event"
    },
    {
      "anonymous": false,
      "inputs": [
        {
          "indexed": true,
          "internalType": "address",
          "name": "previousOwner",
          "type": "address"
        },
        {
          "indexed": true,
          "internalType": "address",
          "name": "newOwner",
          "type": "address"
        }
      ],
      "name": "OwnershipTransferred",
      "type": "event"
    },
    {
      "anonymous": false,
      "inputs": [
        {
          "indexed": true,
          "internalType": "address",
          "name": "slaAddress",
          "type": "address"
        },
        {
          "indexed": false,
          "internalType": "uint256",
          "name": "periodId",
          "type": "uint256"
        },
        {
          "indexed": true,
          "internalType": "bytes32",
          "name": "requestId",
          "type": "bytes32"
        },
        {
          "indexed": false,
          "internalType": "bytes32",
          "name": "chainlinkResponse",
          "type": "bytes32"
        }
      ],
      "name": "SLIReceived",
      "type": "event"
    },
    {
      "anonymous": false,
      "inputs": [
        {
          "indexed": true,
          "internalType": "address",
          "name": "caller",
          "type": "address"
        },
        {
          "indexed": false,
          "internalType": "uint256",
          "name": "requestsCounter",
          "type": "uint256"
        },
        {
          "indexed": false,
          "internalType": "bytes32",
          "name": "requestId",
          "type": "bytes32"
        }
      ],
      "name": "SLIRequested",
      "type": "event"
    },
    {
      "inputs": [],
      "name": "fee",
      "outputs": [
        {
          "internalType": "uint256",
          "name": "",
          "type": "uint256"
        }
      ],
      "stateMutability": "view",
      "type": "function"
    },
    {
      "inputs": [
        {
          "internalType": "bytes32",
          "name": "_requestId",
          "type": "bytes32"
        },
        {
          "internalType": "uint256",
          "name": "_chainlinkResponseUint256",
          "type": "uint256"
        }
      ],
      "name": "fulfillSLI",
      "outputs": [],
      "stateMutability": "nonpayable",
      "type": "function"
    },
    {
      "inputs": [],
      "name": "fulfillsCounter",
      "outputs": [
        {
          "internalType": "uint256",
          "name": "",
          "type": "uint256"
        }
      ],
      "stateMutability": "view",
      "type": "function"
    },
    {
      "inputs": [],
      "name": "jobId",
      "outputs": [
        {
          "internalType": "bytes32",
          "name": "",
          "type": "bytes32"
        }
      ],
      "stateMutability": "view",
      "type": "function"
    },
    {
      "inputs": [],
      "name": "messengerPrecision",
      "outputs": [
        {
          "internalType": "uint256",
          "name": "",
          "type": "uint256"
        }
      ],
      "stateMutability": "view",
      "type": "function"
    },
    {
      "inputs": [],
      "name": "oracle",
      "outputs": [
        {
          "internalType": "address",
          "name": "",
          "type": "address"
        }
      ],
      "stateMutability": "view",
      "type": "function"
    },
    {
      "inputs": [],
      "name": "owner",
      "outputs": [
        {
          "internalType": "address",
          "name": "",
          "type": "address"
        }
      ],
      "stateMutability": "view",
      "type": "function"
    },
    {
      "inputs": [
        {
          "internalType": "bytes32",
          "name": "sliData",
          "type": "bytes32"
        }
      ],
      "name": "parseSLIData",
      "outputs": [
        {
          "internalType": "uint256",
          "name": "",
          "type": "uint256"
        },
        {
          "internalType": "uint256",
          "name": "",
          "type": "uint256"
        }
      ],
      "stateMutability": "pure",
      "type": "function"
    },
    {
      "inputs": [],
      "name": "renounceOwnership",
      "outputs": [],
      "stateMutability": "nonpayable",
      "type": "function"
    },
    {
      "inputs": [
        {
          "internalType": "bytes32",
          "name": "",
          "type": "bytes32"
        }
      ],
      "name": "requestIdToSLIRequest",
      "outputs": [
        {
          "internalType": "address",
          "name": "slaAddress",
          "type": "address"
        },
        {
          "internalType": "uint256",
          "name": "periodId",
          "type": "uint256"
        }
      ],
      "stateMutability": "view",
      "type": "function"
    },
    {
      "inputs": [
        {
          "internalType": "uint256",
          "name": "_periodId",
          "type": "uint256"
        },
        {
          "internalType": "address",
          "name": "_slaAddress",
          "type": "address"
        },
        {
          "internalType": "bool",
          "name": "_messengerOwnerApproval",
          "type": "bool"
        },
        {
          "internalType": "address",
          "name": "_callerAddress",
          "type": "address"
        }
      ],
      "name": "requestSLI",
      "outputs": [],
      "stateMutability": "nonpayable",
      "type": "function"
    },
    {
      "inputs": [
        {
          "internalType": "uint256",
          "name": "",
          "type": "uint256"
        }
      ],
      "name": "requests",
      "outputs": [
        {
          "internalType": "bytes32",
          "name": "",
          "type": "bytes32"
        }
      ],
      "stateMutability": "view",
      "type": "function"
    },
    {
      "inputs": [],
      "name": "requestsCounter",
      "outputs": [
        {
          "internalType": "uint256",
          "name": "",
          "type": "uint256"
        }
      ],
      "stateMutability": "view",
      "type": "function"
    },
    {
      "inputs": [
        {
          "internalType": "address",
          "name": "_slaAddress",
          "type": "address"
        },
        {
          "internalType": "uint256",
          "name": "_periodId",
          "type": "uint256"
        }
      ],
      "name": "retryRequest",
      "outputs": [],
      "stateMutability": "nonpayable",
      "type": "function"
    },
    {
      "inputs": [
        {
          "internalType": "bytes32",
          "name": "_newJobId",
          "type": "bytes32"
        },
        {
          "internalType": "uint256",
          "name": "_feeMultiplier",
          "type": "uint256"
        }
      ],
      "name": "setChainlinkJobID",
      "outputs": [],
      "stateMutability": "nonpayable",
      "type": "function"
    },
    {
      "inputs": [],
      "name": "setSLARegistry",
      "outputs": [],
      "stateMutability": "nonpayable",
      "type": "function"
    },
    {
      "inputs": [],
      "name": "slaRegistryAddress",
      "outputs": [
        {
          "internalType": "address",
          "name": "",
          "type": "address"
        }
      ],
      "stateMutability": "view",
      "type": "function"
    },
    {
      "inputs": [
        {
          "internalType": "address",
          "name": "newOwner",
          "type": "address"
        }
      ],
      "name": "transferOwnership",
      "outputs": [],
      "stateMutability": "nonpayable",
      "type": "function"
    }
  ],
  "bytecode": "0x60a060405260016004556010805460ff60a01b191690553480156200002357600080fd5b50604051620022ea380380620022ea833981016040819052620000469162000147565b60006200005b6001600160e01b036200012116565b600680546001600160a01b0319166001600160a01b038316908117909155604051919250906000907f8be0079c531659141344cd1fd0a4f28419497f9722a3daafe3b4186f6b6457e0908290a3506001600755600b849055620000c7856001600160e01b036200012516565b60609590951b6001600160601b03191660805267016345785d8a000091909102600c55600f80546001600160a01b03199081166001600160a01b039384161790915560108054909116919094161790925550620001dc9050565b3390565b600280546001600160a01b0319166001600160a01b0392909216919091179055565b60008060008060008060c0878903121562000160578182fd5b86516200016d81620001c3565b60208801519096506200018081620001c3565b8095505060408701519350606087015192506080870151620001a281620001c3565b60a0880151909250620001b581620001c3565b809150509295509295509295565b6001600160a01b0381168114620001d957600080fd5b50565b60805160601c6120eb620001ff600039806106b25280610ac152506120eb6000f3fe608060405234801561001057600080fd5b50600436106101165760003560e01c8063a50c5425116100a2578063c9b0cb2211610071578063c9b0cb2214610206578063ddca3f431461020e578063e450f06114610216578063f2fde38b14610229578063f38815891461023c57610116565b8063a50c5425146101c2578063ae401eb9146101ca578063bc0bfc00146101eb578063c2939d97146101fe57610116565b8063715018a6116100e9578063715018a6146101845780637dc0d1d01461018c57806381d12c58146101945780638da5cb5b146101a757806397a82192146101af57610116565b806304e4fc011461011b578063292733bf14610145578063663c22691461015a5780636e71890d1461016f575b600080fd5b61012e610129366004611979565b610244565b60405161013c929190611c90565b60405180910390f35b610158610153366004611991565b610577565b005b610162610612565b60405161013c9190611c87565b610177610618565b60405161013c9190611b9e565b610158610627565b6101776106b0565b6101626101a2366004611979565b6106d4565b6101776106f2565b6101586101bd366004611a84565b610701565b610162610bba565b6101dd6101d8366004611979565b610bc0565b60405161013c929190611bd6565b6101586101f9366004611991565b610be5565b610162610dcd565b610162610dd3565b610162610dd9565b610158610224366004611933565b610ddf565b610158610237366004611918565b610f66565b610158611027565b600080606073__$89e48f3f2b1d5dfed70cd34b0db16ca79e$__63ef0b2368856040518263ffffffff1660e01b81526004016102809190611c87565b60006040518083038186803b15801561029857600080fd5b505af41580156102ac573d6000803e3d6000fd5b505050506040513d6000823e601f3d908101601f191682016040526102d491908101906119d1565b805190915060608167ffffffffffffffff811180156102f257600080fd5b506040519080825280601f01601f19166020018201604052801561031d576020820181803683370190505b50905060608267ffffffffffffffff8111801561033957600080fd5b506040519080825280601f01601f191660200182016040528015610364576020820181803683370190505b50905060005b8381101561045157600b60fa1b6001600160f81b03191685828151811061038d57fe5b01602001516001600160f81b03191614156104495760005b818110156103ef578581815181106103b957fe5b602001015160f81c60f81b8482815181106103d057fe5b60200101906001600160f81b031916908160001a9053506001016103a5565b5060005b60018286030381101561044757858183600101018151811061041157fe5b602001015160f81c60f81b83828151811061042857fe5b60200101906001600160f81b031916908160001a9053506001016103f3565b505b60010161036a565b506040516302d06d0560e01b815260009073__$89e48f3f2b1d5dfed70cd34b0db16ca79e$__906302d06d059061048c908690600401611c9e565b60206040518083038186803b1580156104a457600080fd5b505af41580156104b8573d6000803e3d6000fd5b505050506040513d601f19601f820116820180604052508101906104dc9190611a6c565b9050600073__$89e48f3f2b1d5dfed70cd34b0db16ca79e$__6302d06d05846040518263ffffffff1660e01b81526004016105179190611c9e565b60206040518083038186803b15801561052f57600080fd5b505af4158015610543573d6000803e3d6000fd5b505050506040513d601f19601f820116820180604052508101906105679190611a6c565b9197509095505050505050915091565b61057f611064565b6001600160a01b03166105906106f2565b6001600160a01b0316146105bf5760405162461bcd60e51b81526004016105b690611f2e565b60405180910390fd5b600b82905567016345785d8a00008102600c81905560405133917f8e7e22d2820965fa1a8fa3ad76db76127e2f1baaf65f50c4e267f28b2254f7cb91610606918691611c90565b60405180910390a25050565b600d5490565b600a546001600160a01b031690565b61062f611064565b6001600160a01b03166106406106f2565b6001600160a01b0316146106665760405162461bcd60e51b81526004016105b690611f2e565b6006546040516000916001600160a01b0316907f8be0079c531659141344cd1fd0a4f28419497f9722a3daafe3b4186f6b6457e0908390a3600680546001600160a01b0319169055565b7f000000000000000000000000000000000000000000000000000000000000000090565b600981815481106106e157fe5b600091825260209091200154905081565b6006546001600160a01b031690565b601054600160a01b900460ff1661073c57600a546001600160a01b0316331461073c5760405162461bcd60e51b81526004016105b690611eac565b6002600754141561075f5760405162461bcd60e51b81526004016105b69061202c565b600260075582821561079e576107996107766106f2565b30600c54610782611068565b6001600160a01b031692919063ffffffff61107716565b6107ae565b6107ae8230600c54610782611068565b6107b661189b565b600b546107ca9030622f02ff60ea1b6110d5565b9050600080600f60009054906101000a90046001600160a01b03166001600160a01b031663ffa61235856001600160a01b03166346e0fbae6040518163ffffffff1660e01b815260040160206040518083038186803b15801561082c57600080fd5b505afa158015610840573d6000803e3d6000fd5b505050506040513d601f19601f8201168201806040525081019061086491906119b2565b8a6040518363ffffffff1660e01b8152600401610882929190611cb1565b604080518083038186803b15801561089957600080fd5b505afa1580156108ad573d6000803e3d6000fd5b505050506040513d601f19601f820116820180604052508101906108d19190611ad6565b91509150610934604051806040016040528060088152602001676a6f625f7479706560c01b815250604051806040016040528060128152602001717374616b696e675f656666696369656e637960701b815250856111029092919063ffffffff16565b60408051808201825260148152731cdb1857db5bdb9a5d1bdc9a5b99d7dcdd185c9d60621b6020820152905163fc966d4560e01b81526109fb919073__$89e48f3f2b1d5dfed70cd34b0db16ca79e$__9063fc966d4590610999908790600401611c87565b60006040518083038186803b1580156109b157600080fd5b505af41580156109c5573d6000803e3d6000fd5b505050506040513d6000823e601f3d908101601f191682016040526109ed91908101906119d1565b85919063ffffffff61110216565b60408051808201825260128152711cdb1857db5bdb9a5d1bdc9a5b99d7d95b9960721b6020820152905163fc966d4560e01b8152610a5e919073__$89e48f3f2b1d5dfed70cd34b0db16ca79e$__9063fc966d4590610999908690600401611c87565b604080518082018252600b81526a736c615f6164647265737360a81b60208201529051635e57966d60e01b8152610aba919073__$89e48f3f2b1d5dfed70cd34b0db16ca79e$__90635e57966d90610999908c90600401611b9e565b6000610ae97f000000000000000000000000000000000000000000000000000000000000000085600c54611131565b6009805460018082019092557f6e1540171b6c0c960b71a7020d9f60077f6af931a8bbf590da0223dacf75c7af018290556040805180820182526001600160a01b038c8116825260208083018f81526000878152600890925290849020925183546001600160a01b0319169083161783555191840191909155600d80549093019283905590519293508816917feab5eb77e722078f3fab7eb6a77c74f7001181e1e3a74d51b7b5747ee1b31cb991610ba2918590611c90565b60405180910390a25050600160075550505050505050565b600e5490565b600860205260009081526040902080546001909101546001600160a01b039091169082565b60026007541415610c085760405162461bcd60e51b81526004016105b69061202c565b600260075560008281526005602052604090205482906001600160a01b03163314610c455760405162461bcd60e51b81526004016105b690611f9a565b60008181526005602052604080822080546001600160a01b03191690555182917f7cc135e0cebb02c3480ae5d74d377283180a2601f8f644edf7987b009316c63a91a281610c916118d0565b506000848152600860209081526040918290208251808401845281546001600160a01b0316808252600190920154928101839052925187927f56514ef6e1ffd0f970ebf32dc181e476384e6e53a8351719040b4030318a933b91610cf791908790611c90565b60405180910390a3600080610d0b84610244565b90925090506000610d22838363ffffffff61127016565b90506000610d4982610d3d86620186a063ffffffff61129e16565b9063ffffffff6112d816565b85516020870151604051636bd2e21160e11b81529293506001600160a01b039091169163d7a5c42291610d8191859190600401611c90565b600060405180830381600087803b158015610d9b57600080fd5b505af1158015610daf573d6000803e3d6000fd5b5050600e805460019081019091556007555050505050505050505050565b600b5490565b6103e890565b600c5490565b6010805460ff60a01b1916600160a01b179081905560405163ab9a81a560e01b81526001600160a01b039091169063ab9a81a590610e239085908590600401611bd6565b60206040518083038186803b158015610e3b57600080fd5b505afa158015610e4f573d6000803e3d6000fd5b505050506040513d601f19601f82011682018060405250810190610e73919061195d565b610e8f5760405162461bcd60e51b81526004016105b690611d89565b6040516320c876ef60e11b815282906000906001600160a01b03831690634190edde90610ec0908690600401611c87565b60606040518083038186803b158015610ed857600080fd5b505afa158015610eec573d6000803e3d6000fd5b505050506040513d601f19601f82011682018060405250810190610f109190611af9565b925060009150610f1d9050565b816002811115610f2957fe5b14610f465760405162461bcd60e51b81526004016105b690611dc0565b610f538385600033610701565b50506010805460ff60a01b191690555050565b610f6e611064565b6001600160a01b0316610f7f6106f2565b6001600160a01b031614610fa55760405162461bcd60e51b81526004016105b690611f2e565b6001600160a01b038116610fcb5760405162461bcd60e51b81526004016105b690611cc9565b6006546040516001600160a01b038084169216907f8be0079c531659141344cd1fd0a4f28419497f9722a3daafe3b4186f6b6457e090600090a3600680546001600160a01b0319166001600160a01b0392909216919091179055565b600a546001600160a01b0316156110505760405162461bcd60e51b81526004016105b690611e64565b600a80546001600160a01b03191633179055565b3390565b6002546001600160a01b031690565b6110cf846323b872dd60e01b85858560405160240161109893929190611bb2565b60408051601f198184030181529190526020810180516001600160e01b03166001600160e01b03199093169290921790915261130d565b50505050565b6110dd61189b565b6110e561189b565b6110f78186868663ffffffff61139c16565b9150505b9392505050565b6080830151611117908363ffffffff6113d916565b608083015161112c908263ffffffff6113d916565b505050565b600030600454604051602001611148929190611b7c565b60408051808303601f19018152918152815160209283012060045460608701526000818152600590935281832080546001600160a01b0319166001600160a01b038916179055905190925082917fb5e6e01e79f91267dc17b4e6314d5d4d03593d2ceee0fbb452b750bd70ea5af991a26002546001600160a01b0316634000aea085846111d4876113f6565b6040518463ffffffff1660e01b81526004016111f293929190611c57565b602060405180830381600087803b15801561120c57600080fd5b505af1158015611220573d6000803e3d6000fd5b505050506040513d601f19601f82011682018060405250810190611244919061195d565b6112605760405162461bcd60e51b81526004016105b690611d46565b6004805460010190559392505050565b6000828201838110156112955760405162461bcd60e51b81526004016105b690611d0f565b90505b92915050565b6000826112ad57506000611298565b828202828482816112ba57fe5b04146112955760405162461bcd60e51b81526004016105b690611eed565b60008082116112f95760405162461bcd60e51b81526004016105b690611e2d565b600082848161130457fe5b04949350505050565b6060611362826040518060400160405280602081526020017f5361666545524332303a206c6f772d6c6576656c2063616c6c206661696c6564815250856001600160a01b03166114729092919063ffffffff16565b80519091501561112c5780806020019051810190611380919061195d565b61112c5760405162461bcd60e51b81526004016105b690611fe2565b6113a461189b565b6113b48560800151610100611489565b50509183526001600160a01b031660208301526001600160e01b031916604082015290565b6113e682600383516114c3565b61112c828263ffffffff6115cd16565b6060634042994660e01b60008084600001518560200151866040015187606001516001896080015160000151604051602401611439989796959493929190611bef565b60408051601f198184030181529190526020810180516001600160e01b03166001600160e01b0319909316929092179091529050919050565b606061148184846000856115e7565b949350505050565b6114916118e7565b60208206156114a65760208206602003820191505b506020828101829052604080518085526000815290920101905290565b601781116114ea576114e48360e0600585901b16831763ffffffff6116a816565b5061112c565b60ff81116115205761150d836018611fe0600586901b161763ffffffff6116a816565b506114e48382600163ffffffff6116c016565b61ffff811161155757611544836019611fe0600586901b161763ffffffff6116a816565b506114e48382600263ffffffff6116c016565b63ffffffff81116115905761157d83601a611fe0600586901b161763ffffffff6116a816565b506114e48382600463ffffffff6116c016565b67ffffffffffffffff811161112c576115ba83601b611fe0600586901b161763ffffffff6116a816565b506110cf8382600863ffffffff6116c016565b6115d56118e7565b611295838460000151518485516116d9565b6060824710156116095760405162461bcd60e51b81526004016105b690611de7565b61161285611785565b61162e5760405162461bcd60e51b81526004016105b690611f63565b60006060866001600160a01b0316858760405161164b9190611b60565b60006040518083038185875af1925050503d8060008114611688576040519150601f19603f3d011682016040523d82523d6000602084013e61168d565b606091505b509150915061169d82828661178b565b979650505050505050565b6116b06118e7565b61129583846000015151846117c4565b6116c86118e7565b61148184856000015151858561180f565b6116e16118e7565b82518211156116ef57600080fd5b846020015182850111156117195761171985611711876020015187860161186d565b600202611884565b6000808651805187602083010193508088870111156117385787860182525b505050602084015b6020841061175f5780518252601f199093019260209182019101611740565b51815160001960208690036101000a019081169019919091161790525083949350505050565b3b151590565b6060831561179a5750816110fb565b8251156117aa5782518084602001fd5b8160405162461bcd60e51b81526004016105b69190611c9e565b6117cc6118e7565b836020015183106117e8576117e8848560200151600202611884565b835180516020858301018481535080851415611805576001810182525b5093949350505050565b6118176118e7565b846020015184830111156118345761183485858401600202611884565b60006001836101000a0390508551838682010185831982511617815250805184870111156118625783860181525b509495945050505050565b60008183111561187e575081611298565b50919050565b81516118908383611489565b506110cf83826115cd565b6040805160a0810182526000808252602082018190529181018290526060810191909152608081016118cb6118e7565b905290565b604080518082019091526000808252602082015290565b604051806040016040528060608152602001600081525090565b80356001600160a01b038116811461129857600080fd5b600060208284031215611929578081fd5b6112958383611901565b60008060408385031215611945578081fd5b61194f8484611901565b946020939093013593505050565b60006020828403121561196e578081fd5b8151611295816120a7565b60006020828403121561198a578081fd5b5035919050565b600080604083850312156119a3578182fd5b50508035926020909101359150565b6000602082840312156119c3578081fd5b815160068110611295578182fd5b6000602082840312156119e2578081fd5b815167ffffffffffffffff808211156119f9578283fd5b81840185601f820112611a0a578384fd5b8051925081831115611a1a578384fd5b604051601f8401601f191681016020018381118282101715611a3a578586fd5b604052838152818401602001871015611a51578485fd5b611a62846020830160208501612063565b9695505050505050565b600060208284031215611a7d578081fd5b5051919050565b60008060008060808587031215611a99578182fd5b843593506020850135611aab8161208f565b92506040850135611abb816120a7565b91506060850135611acb8161208f565b939692955090935050565b60008060408385031215611ae8578182fd5b505080516020909101519092909150565b600080600060608486031215611b0d578283fd5b8351925060208401519150604084015160038110611b29578182fd5b809150509250925092565b60008151808452611b4c816020860160208601612063565b601f01601f19169290920160200192915050565b60008251611b72818460208701612063565b9190910192915050565b60609290921b6bffffffffffffffffffffffff19168252601482015260340190565b6001600160a01b0391909116815260200190565b6001600160a01b039384168152919092166020820152604081019190915260600190565b6001600160a01b03929092168252602082015260400190565b6001600160a01b0389811682526020820189905260408201889052861660608201526001600160e01b03198516608082015260a0810184905260c0810183905261010060e08201819052600090611c4883820185611b34565b9b9a5050505050505050505050565b600060018060a01b038516825283602083015260606040830152611c7e6060830184611b34565b95945050505050565b90815260200190565b918252602082015260400190565b6000602082526112956020830184611b34565b6040810160068410611cbf57fe5b9281526020015290565b60208082526026908201527f4f776e61626c653a206e6577206f776e657220697320746865207a65726f206160408201526564647265737360d01b606082015260800190565b6020808252601b908201527f536166654d6174683a206164646974696f6e206f766572666c6f770000000000604082015260600190565b60208082526023908201527f756e61626c6520746f207472616e73666572416e6443616c6c20746f206f7261604082015262636c6560e81b606082015260800190565b6020808252601b908201527f5374616b6552656769737472793a206e6f742076657269666965640000000000604082015260600190565b6020808252600d908201526c14d3104e881d995c9a599a5959609a1b604082015260600190565b60208082526026908201527f416464726573733a20696e73756666696369656e742062616c616e636520666f6040820152651c8818d85b1b60d21b606082015260800190565b6020808252601a908201527f536166654d6174683a206469766973696f6e206279207a65726f000000000000604082015260600190565b60208082526028908201527f534c41526567697374727920616464726573732068617320616c7265616479206040820152671899595b881cd95d60c21b606082015260800190565b60208082526021908201527f43616e206f6e6c792062652063616c6c656420627920534c41526567697374726040820152607960f81b606082015260800190565b60208082526021908201527f536166654d6174683a206d756c7469706c69636174696f6e206f766572666c6f6040820152607760f81b606082015260800190565b6020808252818101527f4f776e61626c653a2063616c6c6572206973206e6f7420746865206f776e6572604082015260600190565b6020808252601d908201527f416464726573733a2063616c6c20746f206e6f6e2d636f6e7472616374000000604082015260600190565b60208082526028908201527f536f75726365206d75737420626520746865206f7261636c65206f6620746865604082015267081c995c5d595cdd60c21b606082015260800190565b6020808252602a908201527f5361666545524332303a204552433230206f7065726174696f6e20646964206e6040820152691bdd081cdd58d8d9595960b21b606082015260800190565b6020808252601f908201527f5265656e7472616e637947756172643a207265656e7472616e742063616c6c00604082015260600190565b60005b8381101561207e578181015183820152602001612066565b838111156110cf5750506000910152565b6001600160a01b03811681146120a457600080fd5b50565b80151581146120a457600080fdfea2646970667358221220be1138e5e16755dbeb09faf107d72c051c7484ee288184c37ef28202f4bdd18164736f6c63430006060033",
  "linkReferences": {
    "@stacktical/dsla-protocol/contracts/StringUtils.sol": {
      "StringUtils": [
        {
          "length": 20,
          "start": 1098
        },
        {
          "length": 20,
          "start": 1635
        },
        {
          "length": 20,
          "start": 1761
        },
        {
          "length": 20,
          "start": 2928
        },
        {
          "length": 20,
          "start": 3125
        },
        {
          "length": 20,
          "start": 3217
        }
      ]
    }
  },
  "deployedLinkReferences": {
    "@stacktical/dsla-protocol/contracts/StringUtils.sol": {
      "StringUtils": [
        {
          "length": 20,
          "start": 587
        },
        {
          "length": 20,
          "start": 1124
        },
        {
          "length": 20,
          "start": 1250
        },
        {
          "length": 20,
          "start": 2417
        },
        {
          "length": 20,
          "start": 2614
        },
        {
          "length": 20,
          "start": 2706
        }
      ]
    }
  }
}