{
  "address": "0xd3AD8e22C96Fa8Cc7328A15B31d7f384fcC12616",
  "abi": [
    {
      "inputs": [
        {
          "internalType": "address",
          "name": "_slaAddress",
          "type": "address"
        },
        {
          "internalType": "address",
          "name": "_owner",
          "type": "address"
        }
      ],
      "name": "getDTokensDetails",
      "outputs": [
        {
          "components": [
            {
              "internalType": "address",
              "name": "tokenAddress",
              "type": "address"
            },
            {
              "internalType": "uint256",
              "name": "totalSupply",
              "type": "uint256"
            },
            {
              "internalType": "address",
              "name": "dTokenAddress",
              "type": "address"
            },
            {
              "internalType": "string",
              "name": "dTokenSymbol",
              "type": "string"
            },
            {
              "internalType": "string",
              "name": "dTokenName",
              "type": "string"
            },
            {
              "internalType": "uint256",
              "name": "balance",
              "type": "uint256"
            },
            {
              "internalType": "uint256",
              "name": "allowance",
              "type": "uint256"
            }
          ],
          "internalType": "struct Details.DtokenDetails[]",
          "name": "dpTokens",
          "type": "tuple[]"
        },
        {
          "components": [
            {
              "internalType": "address",
              "name": "tokenAddress",
              "type": "address"
            },
            {
              "internalType": "uint256",
              "name": "totalSupply",
              "type": "uint256"
            },
            {
              "internalType": "address",
              "name": "dTokenAddress",
              "type": "address"
            },
            {
              "internalType": "string",
              "name": "dTokenSymbol",
              "type": "string"
            },
            {
              "internalType": "string",
              "name": "dTokenName",
              "type": "string"
            },
            {
              "internalType": "uint256",
              "name": "balance",
              "type": "uint256"
            },
            {
              "internalType": "uint256",
              "name": "allowance",
              "type": "uint256"
            }
          ],
          "internalType": "struct Details.DtokenDetails[]",
          "name": "duTokens",
          "type": "tuple[]"
        }
      ],
      "stateMutability": "view",
      "type": "function"
    },
    {
      "inputs": [
        {
          "internalType": "address",
          "name": "_slaAddress",
          "type": "address"
        }
      ],
      "name": "getSLADetailsArrays",
      "outputs": [
        {
          "components": [
            {
              "internalType": "uint256",
              "name": "timestamp",
              "type": "uint256"
            },
            {
              "internalType": "uint256",
              "name": "sli",
              "type": "uint256"
            },
            {
              "internalType": "enum SLA.Status",
              "name": "status",
              "type": "uint8"
            }
          ],
          "internalType": "struct SLA.PeriodSLI[]",
          "name": "periodSLIs",
          "type": "tuple[]"
        },
        {
          "components": [
            {
              "internalType": "address",
              "name": "tokenAddress",
              "type": "address"
            },
            {
              "internalType": "uint256",
              "name": "totalStake",
              "type": "uint256"
            },
            {
              "internalType": "uint256",
              "name": "usersPool",
              "type": "uint256"
            },
            {
              "internalType": "uint256",
              "name": "providerPool",
              "type": "uint256"
            }
          ],
          "internalType": "struct Details.TokenStake[]",
          "name": "tokensStake",
          "type": "tuple[]"
        }
      ],
      "stateMutability": "view",
      "type": "function"
    },
    {
      "inputs": [
        {
          "internalType": "address",
          "name": "_slaAddress",
          "type": "address"
        }
      ],
      "name": "getSLADynamicDetails",
      "outputs": [
        {
          "internalType": "bool",
          "name": "breachedContract",
          "type": "bool"
        },
        {
          "internalType": "uint256",
          "name": "stakersCount",
          "type": "uint256"
        },
        {
          "internalType": "uint256",
          "name": "nextVerifiablePeriod",
          "type": "uint256"
        },
        {
          "internalType": "uint64",
          "name": "leverage",
          "type": "uint64"
        }
      ],
      "stateMutability": "view",
      "type": "function"
    },
    {
      "inputs": [
        {
          "internalType": "address",
          "name": "_slaAddress",
          "type": "address"
        },
        {
          "internalType": "contract SLORegistry",
          "name": "_sloRegistry",
          "type": "address"
        }
      ],
      "name": "getSLAStaticDetails",
      "outputs": [
        {
          "internalType": "address",
          "name": "slaOwner",
          "type": "address"
        },
        {
          "internalType": "address",
          "name": "messengerAddress",
          "type": "address"
        },
        {
          "internalType": "uint256",
          "name": "sloValue",
          "type": "uint256"
        },
        {
          "internalType": "uint256",
          "name": "creationBlockNumber",
          "type": "uint256"
        },
        {
          "internalType": "uint256",
          "name": "slaId",
          "type": "uint256"
        },
        {
          "internalType": "uint128",
          "name": "initialPeriodId",
          "type": "uint128"
        },
        {
          "internalType": "uint128",
          "name": "finalPeriodId",
          "type": "uint128"
        },
        {
          "internalType": "bool",
          "name": "whiteListed",
          "type": "bool"
        },
        {
          "internalType": "enum IPeriodRegistry.PeriodType",
          "name": "periodType",
          "type": "uint8"
        },
        {
          "internalType": "enum SLORegistry.SLOType",
          "name": "sloType",
          "type": "uint8"
        },
        {
          "internalType": "string",
          "name": "ipfsHash",
          "type": "string"
        }
      ],
      "stateMutability": "view",
      "type": "function"
    }
  ],
  "transactionHash": "0xc822ce3d255a24685e0d77bd01e3f2b48e05476bd3356f01cb26d1ac4548da7c",
  "args": [],
  "solcInputHash": "5d6fae9569f25bc74e59242f0ea93510",
  "bytecode": "0x608060405234801561001057600080fd5b50611e11806100206000396000f3fe608060405234801561001057600080fd5b506004361061004c5760003560e01c806330f1bef014610051578063431b7770146100845780637922f334146100a7578063afa029e4146100c8575b600080fd5b61006461005f3660046118d7565b6100e9565b60405161007b9b9a99989796959493929190611bdd565b60405180910390f35b610097610092366004611860565b6105ab565b60405161007b9493929190611d4c565b6100ba6100b536600461189f565b61078a565b60405161007b929190611c6f565b6100db6100d6366004611860565b610ff3565b60405161007b929190611c9d565b600080600080600080600080600080606060008d9050806001600160a01b0316638da5cb5b6040518163ffffffff1660e01b815260040160206040518083038186803b15801561013857600080fd5b505afa15801561014c573d6000803e3d6000fd5b505050506040513d601f19601f820116820180604052508101906101709190611883565b9b50806001600160a01b031663a224ee9c6040518163ffffffff1660e01b815260040160206040518083038186803b1580156101ab57600080fd5b505afa1580156101bf573d6000803e3d6000fd5b505050506040513d601f19601f820116820180604052508101906101e39190611883565b9a50806001600160a01b03166318e454276040518163ffffffff1660e01b815260040160206040518083038186803b15801561021e57600080fd5b505afa158015610232573d6000803e3d6000fd5b505050506040513d601f19601f8201168201806040525081019061025691906118e9565b9450806001600160a01b03166346e0fbae6040518163ffffffff1660e01b815260040160206040518083038186803b15801561029157600080fd5b505afa1580156102a5573d6000803e3d6000fd5b505050506040513d601f19601f820116820180604052508101906102c99190611909565b93508c6001600160a01b031663a7b72ac58f6040518263ffffffff1660e01b81526004016102f79190611baf565b604080518083038186803b15801561030e57600080fd5b505afa158015610322573d6000803e3d6000fd5b505050506040513d601f19601f8201168201806040525081019061034691906119ff565b809450819b505050806001600160a01b0316631bf309296040518163ffffffff1660e01b815260040160206040518083038186803b15801561038757600080fd5b505afa15801561039b573d6000803e3d6000fd5b505050506040513d601f19601f820116820180604052508101906103bf91906119e7565b9850806001600160a01b031663f2db10fe6040518163ffffffff1660e01b815260040160206040518083038186803b1580156103fa57600080fd5b505afa15801561040e573d6000803e3d6000fd5b505050506040513d601f19601f8201168201806040525081019061043291906119c0565b6001600160801b03169750806001600160a01b031663c623674f6040518163ffffffff1660e01b815260040160006040518083038186803b15801561047657600080fd5b505afa15801561048a573d6000803e3d6000fd5b505050506040513d6000823e601f3d908101601f191682016040526104b29190810190611925565b9150806001600160a01b0316632526743a6040518163ffffffff1660e01b815260040160206040518083038186803b1580156104ed57600080fd5b505afa158015610501573d6000803e3d6000fd5b505050506040513d601f19601f8201168201806040525081019061052591906119c0565b9650806001600160a01b0316633385d3346040518163ffffffff1660e01b815260040160206040518083038186803b15801561056057600080fd5b505afa158015610574573d6000803e3d6000fd5b505050506040513d601f19601f8201168201806040525081019061059891906119c0565b9550509295989b509295989b9093969950565b6000806000806000859050806001600160a01b0316637fd788aa6040518163ffffffff1660e01b815260040160206040518083038186803b1580156105ef57600080fd5b505afa158015610603573d6000803e3d6000fd5b505050506040513d601f19601f8201168201806040525081019061062791906118e9565b9450806001600160a01b0316639fabeb006040518163ffffffff1660e01b815260040160206040518083038186803b15801561066257600080fd5b505afa158015610676573d6000803e3d6000fd5b505050506040513d601f19601f8201168201806040525081019061069a91906119e7565b9350806001600160a01b031663b1659bad6040518163ffffffff1660e01b815260040160206040518083038186803b1580156106d557600080fd5b505afa1580156106e9573d6000803e3d6000fd5b505050506040513d601f19601f8201168201806040525081019061070d91906119e7565b9250806001600160a01b0316632c86d98e6040518163ffffffff1660e01b815260040160206040518083038186803b15801561074857600080fd5b505afa15801561075c573d6000803e3d6000fd5b505050506040513d601f19601f820116820180604052508101906107809190611a5e565b9150509193509193565b6060806000806001600160a01b0316846001600160a01b03161415905060008590506000816001600160a01b031663b7bc347e6040518163ffffffff1660e01b815260040160206040518083038186803b1580156107e757600080fd5b505afa1580156107fb573d6000803e3d6000fd5b505050506040513d601f19601f8201168201806040525081019061081f91906119e7565b90508067ffffffffffffffff8111801561083857600080fd5b5060405190808252806020026020018201604052801561087257816020015b61085f6117b5565b8152602001906001900390816108575790505b5094508067ffffffffffffffff8111801561088c57600080fd5b506040519080825280602002602001820160405280156108c657816020015b6108b36117b5565b8152602001906001900390816108ab5790505b50935060005b81811015610fe857604051632f2f971360e11b81526000906001600160a01b03851690635e5f2e2690610903908590600401611d73565b60206040518083038186803b15801561091b57600080fd5b505afa15801561092f573d6000803e3d6000fd5b505050506040513d601f19601f820116820180604052508101906109539190611883565b90506000846001600160a01b0316634fb2647e836040518263ffffffff1660e01b81526004016109839190611baf565b60206040518083038186803b15801561099b57600080fd5b505afa1580156109af573d6000803e3d6000fd5b505050506040513d601f19601f820116820180604052508101906109d39190611883565b90506040518060e00160405280836001600160a01b03168152602001826001600160a01b03166318160ddd6040518163ffffffff1660e01b815260040160206040518083038186803b158015610a2857600080fd5b505afa158015610a3c573d6000803e3d6000fd5b505050506040513d601f19601f82011682018060405250810190610a6091906119e7565b8152602001826001600160a01b03168152602001826001600160a01b03166395d89b416040518163ffffffff1660e01b815260040160006040518083038186803b158015610aad57600080fd5b505afa158015610ac1573d6000803e3d6000fd5b505050506040513d6000823e601f3d908101601f19168201604052610ae99190810190611925565b8152602001826001600160a01b03166306fdde036040518163ffffffff1660e01b815260040160006040518083038186803b158015610b2757600080fd5b505afa158015610b3b573d6000803e3d6000fd5b505050506040513d6000823e601f3d908101601f19168201604052610b639190810190611925565b815260200187610b74576000610bf0565b6040516370a0823160e01b81526001600160a01b038416906370a0823190610ba0908e90600401611baf565b60206040518083038186803b158015610bb857600080fd5b505afa158015610bcc573d6000803e3d6000fd5b505050506040513d601f19601f82011682018060405250810190610bf091906119e7565b815260200187610c01576000610c7f565b826001600160a01b031663dd62ed3e8c8e6040518363ffffffff1660e01b8152600401610c2f929190611bc3565b60206040518083038186803b158015610c4757600080fd5b505afa158015610c5b573d6000803e3d6000fd5b505050506040513d601f19601f82011682018060405250810190610c7f91906119e7565b815250888481518110610c8e57fe5b60200260200101819052506000856001600160a01b0316634e0c91f6846040518263ffffffff1660e01b8152600401610cc79190611baf565b60206040518083038186803b158015610cdf57600080fd5b505afa158015610cf3573d6000803e3d6000fd5b505050506040513d601f19601f82011682018060405250810190610d179190611883565b90506040518060e00160405280846001600160a01b03168152602001826001600160a01b03166318160ddd6040518163ffffffff1660e01b815260040160206040518083038186803b158015610d6c57600080fd5b505afa158015610d80573d6000803e3d6000fd5b505050506040513d601f19601f82011682018060405250810190610da491906119e7565b8152602001826001600160a01b03168152602001826001600160a01b03166395d89b416040518163ffffffff1660e01b815260040160006040518083038186803b158015610df157600080fd5b505afa158015610e05573d6000803e3d6000fd5b505050506040513d6000823e601f3d908101601f19168201604052610e2d9190810190611925565b8152602001826001600160a01b03166306fdde036040518163ffffffff1660e01b815260040160006040518083038186803b158015610e6b57600080fd5b505afa158015610e7f573d6000803e3d6000fd5b505050506040513d6000823e601f3d908101601f19168201604052610ea79190810190611925565b815260200188610eb8576000610f34565b6040516370a0823160e01b81526001600160a01b038416906370a0823190610ee4908f90600401611baf565b60206040518083038186803b158015610efc57600080fd5b505afa158015610f10573d6000803e3d6000fd5b505050506040513d601f19601f82011682018060405250810190610f3491906119e7565b815260200188610f45576000610fc3565b826001600160a01b031663dd62ed3e8d8f6040518363ffffffff1660e01b8152600401610f73929190611bc3565b60206040518083038186803b158015610f8b57600080fd5b505afa158015610f9f573d6000803e3d6000fd5b505050506040513d601f19601f82011682018060405250810190610fc391906119e7565b815250888581518110610fd257fe5b60209081029190910101525050506001016108cc565b505050509250929050565b60608060008390506000816001600160a01b0316632526743a6040518163ffffffff1660e01b815260040160206040518083038186803b15801561103657600080fd5b505afa15801561104a573d6000803e3d6000fd5b505050506040513d601f19601f8201168201806040525081019061106e91906119c0565b6001600160801b031690506000826001600160a01b0316633385d3346040518163ffffffff1660e01b815260040160206040518083038186803b1580156110b457600080fd5b505afa1580156110c8573d6000803e3d6000fd5b505050506040513d601f19601f820116820180604052508101906110ec91906119c0565b6001600160801b031690506001828203018067ffffffffffffffff8111801561111457600080fd5b5060405190808252806020026020018201604052801561114e57816020015b61113b611804565b8152602001906001900390816111335790505b50955060005b81811015611237576040516320c876ef60e11b815284820190600090819081906001600160a01b038a1690634190edde90611193908790600401611d73565b60606040518083038186803b1580156111ab57600080fd5b505afa1580156111bf573d6000803e3d6000fd5b505050506040513d601f19601f820116820180604052508101906111e39190611a23565b925092509250604051806060016040528084815260200183815260200182600281111561120c57fe5b8152508b868151811061121b57fe5b6020026020010181905250505050508080600101915050611154565b506000846001600160a01b031663b7bc347e6040518163ffffffff1660e01b815260040160206040518083038186803b15801561127357600080fd5b505afa158015611287573d6000803e3d6000fd5b505050506040513d601f19601f820116820180604052508101906112ab91906119e7565b90508067ffffffffffffffff811180156112c457600080fd5b506040519080825280602002602001820160405280156112fe57816020015b6112eb61182f565b8152602001906001900390816112e35790505b50955060005b818110156117aa57604051632f2f971360e11b81526000906001600160a01b03881690635e5f2e269061133b908590600401611d73565b60206040518083038186803b15801561135357600080fd5b505afa158015611367573d6000803e3d6000fd5b505050506040513d601f19601f8201168201806040525081019061138b9190611883565b90506040518060800160405280826001600160a01b03168152602001886001600160a01b031663639b6fc38a6001600160a01b0316635e5f2e26876040518263ffffffff1660e01b81526004016113e29190611d73565b60206040518083038186803b1580156113fa57600080fd5b505afa15801561140e573d6000803e3d6000fd5b505050506040513d601f19601f820116820180604052508101906114329190611883565b6040518263ffffffff1660e01b815260040161144e9190611baf565b60206040518083038186803b15801561146657600080fd5b505afa15801561147a573d6000803e3d6000fd5b505050506040513d601f19601f8201168201806040525081019061149e91906119e7565b604051632f2f971360e11b81526001600160a01b038b169063484fbf2b908290635e5f2e26906114d2908a90600401611d73565b60206040518083038186803b1580156114ea57600080fd5b505afa1580156114fe573d6000803e3d6000fd5b505050506040513d601f19601f820116820180604052508101906115229190611883565b6040518263ffffffff1660e01b815260040161153e9190611baf565b60206040518083038186803b15801561155657600080fd5b505afa15801561156a573d6000803e3d6000fd5b505050506040513d601f19601f8201168201806040525081019061158e91906119e7565b018152602001886001600160a01b031663484fbf2b8a6001600160a01b0316635e5f2e26876040518263ffffffff1660e01b81526004016115cf9190611d73565b60206040518083038186803b1580156115e757600080fd5b505afa1580156115fb573d6000803e3d6000fd5b505050506040513d601f19601f8201168201806040525081019061161f9190611883565b6040518263ffffffff1660e01b815260040161163b9190611baf565b60206040518083038186803b15801561165357600080fd5b505afa158015611667573d6000803e3d6000fd5b505050506040513d601f19601f8201168201806040525081019061168b91906119e7565b8152602001886001600160a01b031663639b6fc38a6001600160a01b0316635e5f2e26876040518263ffffffff1660e01b81526004016116cb9190611d73565b60206040518083038186803b1580156116e357600080fd5b505afa1580156116f7573d6000803e3d6000fd5b505050506040513d601f19601f8201168201806040525081019061171b9190611883565b6040518263ffffffff1660e01b81526004016117379190611baf565b60206040518083038186803b15801561174f57600080fd5b505afa158015611763573d6000803e3d6000fd5b505050506040513d601f19601f8201168201806040525081019061178791906119e7565b81525088838151811061179657fe5b602090810291909101015250600101611304565b505050505050915091565b6040518060e0016040528060006001600160a01b031681526020016000815260200160006001600160a01b03168152602001606081526020016060815260200160008152602001600081525090565b604051806060016040528060008152602001600081526020016000600281111561182a57fe5b905290565b604051806080016040528060006001600160a01b031681526020016000815260200160008152602001600081525090565b600060208284031215611871578081fd5b813561187c81611db9565b9392505050565b600060208284031215611894578081fd5b815161187c81611db9565b600080604083850312156118b1578081fd5b82356118bc81611db9565b915060208301356118cc81611db9565b809150509250929050565b600080604083850312156118b1578182fd5b6000602082840312156118fa578081fd5b8151801515811461187c578182fd5b60006020828403121561191a578081fd5b815161187c81611dce565b600060208284031215611936578081fd5b815167ffffffffffffffff8082111561194d578283fd5b81840185601f82011261195e578384fd5b805192508183111561196e578384fd5b604051601f8401601f19168101602001838111828210171561198e578586fd5b6040528381528184016020018710156119a5578485fd5b6119b6846020830160208501611d7c565b9695505050505050565b6000602082840312156119d1578081fd5b81516001600160801b038116811461187c578182fd5b6000602082840312156119f8578081fd5b5051919050565b60008060408385031215611a11578182fd5b8251915060208301516118cc81611dce565b600080600060608486031215611a37578081fd5b8351925060208401519150604084015160038110611a53578182fd5b809150509250925092565b600060208284031215611a6f578081fd5b815167ffffffffffffffff8116811461187c578182fd5b80516001600160a01b0316825260208082015190830152604080820151908301526060908101519082015260800190565b6001600160a01b03169052565b6000815180845260208085018081965082840281019150828601855b85811015611b76578284038952815160e0611afc868351611ab7565b8682015187870152604080830151611b1682890182611ab7565b50506060808301518282890152611b2f83890182611b83565b915050608091508183015187820383890152611b4b8282611b83565b60a085810151908a015260c09485015194909801939093525050509784019790840190600101611ae0565b5091979650505050505050565b60008151808452611b9b816020860160208601611d7c565b601f01601f19169290920160200192915050565b6001600160a01b0391909116815260200190565b6001600160a01b0392831681529116602082015260400190565b6001600160a01b038c811682528b166020820152604081018a905260608101899052608081018890526001600160801b0387811660a0830152861660c082015284151560e08201526000610160611c3386611dac565b85610100840152611c4385611dac565b8461012084015280610140840152611c5d81840185611b83565b9e9d5050505050505050505050505050565b600060408252611c826040830185611ac4565b8281036020840152611c948185611ac4565b95945050505050565b6040808252835182820181905260009190606090818501906020808901865b83811015611cf55781518051865283810151848701528781015160038110611ce057fe5b86890152509385019390820190600101611cbc565b50508683038188015282945087519350611d0f8484611d73565b945080880192508591505b83821015611d3f57611d2d858451611a86565b94508083019250600182019150611d1a565b5092979650505050505050565b93151584526020840192909252604083015267ffffffffffffffff16606082015260800190565b90815260200190565b60005b83811015611d97578181015183820152602001611d7f565b83811115611da6576000848401525b50505050565b60068110611db657fe5b50565b6001600160a01b0381168114611db657600080fd5b60068110611db657600080fdfea2646970667358221220e34f31fb27ab59cae3aa4377b3b3599dbf8cf0213ff0749b31640e0e1a11cea564736f6c63430006060033",
  "devdoc": {
    "details": "Details is a contract to fetch details of contracts with a single RPC endpoint",
    "methods": {
      "getSLADynamicDetails(address)": {
        "details": "external view function that returns all dynamic agreement information",
        "returns": {
          "breachedContract": "1. breached contract",
          "nextVerifiablePeriod": "3. amount of stakers",
          "stakersCount": "2. amount of stakers"
        }
      }
    },
    "title": "Details"
  },
  "userdoc": {
    "methods": {}
  },
  "storageLayout": {
    "storage": [],
    "types": null
  }
}