{
  "address": "0x1840438cd70e6fAFD53d6790844718d677De4a08",
  "abi": [
    {
      "inputs": [
        {
          "internalType": "address",
          "name": "_chainlinkOracle",
          "type": "address"
        },
        {
          "internalType": "address",
          "name": "_chainlinkToken",
          "type": "address"
        },
        {
          "internalType": "bytes32",
          "name": "_jobId",
          "type": "bytes32"
        },
        {
          "internalType": "contract PeriodRegistry",
          "name": "_periodRegistry",
          "type": "address"
        },
        {
          "internalType": "contract StakeRegistry",
          "name": "_stakeRegistry",
          "type": "address"
        },
        {
          "internalType": "uint256",
          "name": "_feeMultiplier",
          "type": "uint256"
        }
      ],
      "stateMutability": "nonpayable",
      "type": "constructor"
    },
    {
      "anonymous": false,
      "inputs": [
        {
          "indexed": false,
          "internalType": "bytes32",
          "name": "networkName",
          "type": "bytes32"
        },
        {
          "indexed": false,
          "internalType": "enum PeriodRegistry.PeriodType",
          "name": "periodType",
          "type": "uint8"
        },
        {
          "indexed": false,
          "internalType": "uint256",
          "name": "periodId",
          "type": "uint256"
        },
        {
          "indexed": false,
          "internalType": "bytes32",
          "name": "ipfsHash",
          "type": "bytes32"
        }
      ],
      "name": "AnalyticsReceived",
      "type": "event"
    },
    {
      "anonymous": false,
      "inputs": [
        {
          "indexed": true,
          "internalType": "address",
          "name": "owner",
          "type": "address"
        },
        {
          "indexed": false,
          "internalType": "uint256",
          "name": "newValue",
          "type": "uint256"
        }
      ],
      "name": "CallerRewardModified",
      "type": "event"
    },
    {
      "anonymous": false,
      "inputs": [
        {
          "indexed": true,
          "internalType": "bytes32",
          "name": "id",
          "type": "bytes32"
        }
      ],
      "name": "ChainlinkCancelled",
      "type": "event"
    },
    {
      "anonymous": false,
      "inputs": [
        {
          "indexed": true,
          "internalType": "bytes32",
          "name": "id",
          "type": "bytes32"
        }
      ],
      "name": "ChainlinkFulfilled",
      "type": "event"
    },
    {
      "anonymous": false,
      "inputs": [
        {
          "indexed": true,
          "internalType": "bytes32",
          "name": "id",
          "type": "bytes32"
        }
      ],
      "name": "ChainlinkRequested",
      "type": "event"
    },
    {
      "anonymous": false,
      "inputs": [
        {
          "indexed": true,
          "internalType": "address",
          "name": "owner",
          "type": "address"
        },
        {
          "indexed": false,
          "internalType": "bytes32",
          "name": "jobId",
          "type": "bytes32"
        },
        {
          "indexed": false,
          "internalType": "uint256",
          "name": "fee",
          "type": "uint256"
        }
      ],
      "name": "JobIdModified",
      "type": "event"
    },
    {
      "anonymous": false,
      "inputs": [
        {
          "indexed": true,
          "internalType": "address",
          "name": "previousOwner",
          "type": "address"
        },
        {
          "indexed": true,
          "internalType": "address",
          "name": "newOwner",
          "type": "address"
        }
      ],
      "name": "OwnershipTransferred",
      "type": "event"
    },
    {
      "inputs": [
        {
          "internalType": "bytes32[]",
          "name": "_networkNames",
          "type": "bytes32[]"
        }
      ],
      "name": "addMultipleNetworks",
      "outputs": [
        {
          "internalType": "bool",
          "name": "",
          "type": "bool"
        }
      ],
      "stateMutability": "nonpayable",
      "type": "function"
    },
    {
      "inputs": [
        {
          "internalType": "bytes32",
          "name": "_networkName",
          "type": "bytes32"
        }
      ],
      "name": "addNetwork",
      "outputs": [
        {
          "internalType": "bool",
          "name": "",
          "type": "bool"
        }
      ],
      "stateMutability": "nonpayable",
      "type": "function"
    },
    {
      "inputs": [],
      "name": "fee",
      "outputs": [
        {
          "internalType": "uint256",
          "name": "",
          "type": "uint256"
        }
      ],
      "stateMutability": "view",
      "type": "function"
    },
    {
      "inputs": [
        {
          "internalType": "bytes32",
          "name": "_requestId",
          "type": "bytes32"
        },
        {
          "internalType": "bytes32",
          "name": "_chainlinkResponse",
          "type": "bytes32"
        }
      ],
      "name": "fulFillAnalytics",
      "outputs": [],
      "stateMutability": "nonpayable",
      "type": "function"
    },
    {
      "inputs": [],
      "name": "getNetworkNames",
      "outputs": [
        {
          "internalType": "bytes32[]",
          "name": "networks",
          "type": "bytes32[]"
        }
      ],
      "stateMutability": "view",
      "type": "function"
    },
    {
      "inputs": [
        {
          "internalType": "bytes32",
          "name": "_networkName",
          "type": "bytes32"
        }
      ],
      "name": "isValidNetwork",
      "outputs": [
        {
          "internalType": "bool",
          "name": "",
          "type": "bool"
        }
      ],
      "stateMutability": "view",
      "type": "function"
    },
    {
      "inputs": [
        {
          "internalType": "uint256",
          "name": "",
          "type": "uint256"
        }
      ],
      "name": "networkNames",
      "outputs": [
        {
          "internalType": "bytes32",
          "name": "",
          "type": "bytes32"
        }
      ],
      "stateMutability": "view",
      "type": "function"
    },
    {
      "inputs": [],
      "name": "owner",
      "outputs": [
        {
          "internalType": "address",
          "name": "",
          "type": "address"
        }
      ],
      "stateMutability": "view",
      "type": "function"
    },
    {
      "inputs": [
        {
          "internalType": "bytes32",
          "name": "",
          "type": "bytes32"
        },
        {
          "internalType": "enum PeriodRegistry.PeriodType",
          "name": "",
          "type": "uint8"
        },
        {
          "internalType": "uint256",
          "name": "",
          "type": "uint256"
        }
      ],
      "name": "periodAnalytics",
      "outputs": [
        {
          "internalType": "bytes32",
          "name": "",
          "type": "bytes32"
        }
      ],
      "stateMutability": "view",
      "type": "function"
    },
    {
      "inputs": [
        {
          "internalType": "bytes32",
          "name": "",
          "type": "bytes32"
        },
        {
          "internalType": "enum PeriodRegistry.PeriodType",
          "name": "",
          "type": "uint8"
        },
        {
          "internalType": "uint256",
          "name": "",
          "type": "uint256"
        }
      ],
      "name": "periodAnalyticsRequested",
      "outputs": [
        {
          "internalType": "bool",
          "name": "",
          "type": "bool"
        }
      ],
      "stateMutability": "view",
      "type": "function"
    },
    {
      "inputs": [],
      "name": "renounceOwnership",
      "outputs": [],
      "stateMutability": "nonpayable",
      "type": "function"
    },
    {
      "inputs": [
        {
          "internalType": "uint256",
          "name": "_periodId",
          "type": "uint256"
        },
        {
          "internalType": "enum PeriodRegistry.PeriodType",
          "name": "_periodType",
          "type": "uint8"
        },
        {
          "internalType": "bytes32",
          "name": "_networkName",
          "type": "bytes32"
        },
        {
          "internalType": "bool",
          "name": "_ownerApproval",
          "type": "bool"
        }
      ],
      "name": "requestAnalytics",
      "outputs": [],
      "stateMutability": "nonpayable",
      "type": "function"
    },
    {
      "inputs": [
        {
          "internalType": "bytes32",
          "name": "",
          "type": "bytes32"
        }
      ],
      "name": "requestIdToAnalyticsRequest",
      "outputs": [
        {
          "internalType": "bytes32",
          "name": "networkName",
          "type": "bytes32"
        },
        {
          "internalType": "uint256",
          "name": "periodId",
          "type": "uint256"
        },
        {
          "internalType": "enum PeriodRegistry.PeriodType",
          "name": "periodType",
          "type": "uint8"
        }
      ],
      "stateMutability": "view",
      "type": "function"
    },
    {
      "inputs": [
        {
          "internalType": "uint256",
          "name": "",
          "type": "uint256"
        }
      ],
      "name": "requests",
      "outputs": [
        {
          "internalType": "bytes32",
          "name": "",
          "type": "bytes32"
        }
      ],
      "stateMutability": "view",
      "type": "function"
    },
    {
      "inputs": [
        {
          "internalType": "bytes32",
          "name": "_jobId",
          "type": "bytes32"
        },
        {
          "internalType": "uint256",
          "name": "_feeMultiplier",
          "type": "uint256"
        }
      ],
      "name": "setChainlinkJobID",
      "outputs": [],
      "stateMutability": "nonpayable",
      "type": "function"
    },
    {
      "inputs": [
        {
          "internalType": "address",
          "name": "newOwner",
          "type": "address"
        }
      ],
      "name": "transferOwnership",
      "outputs": [],
      "stateMutability": "nonpayable",
      "type": "function"
    }
  ],
  "transactionHash": "0x68984b9d8530f9dcc13bfa077e7187d68a286923bccbeb3d6b3a03a637cafd0b",
  "args": [
    "0xB3a0db0Fb3CfB0e2C5ABaa42842f9D7877AA52ba",
    "0x668178f77B7F928BDc9338bcABC12D2226b6E363",
    "0xf415c819aa64ef4034bfc92dce346dd5849f504fd31823e23790d9945d4ac5b6",
    "0x1655e7e54129D33034F4861aFcBbecdCA6ef4f2F",
    "0x476E975d3c55E6a26e6c23a3BD10542FCaD0FdD0",
    1
  ],
  "solcInputHash": "cd66808401903f8c6c16a85360926741",
  "bytecode": "0x6080604052600160055567016345785d8a00006011553480156200002257600080fd5b506040516200215e3803806200215e8339810160408190526200004591620001a4565b60006200005a6001600160e01b036200012c16565b600080546001600160a01b0319166001600160a01b0383169081178255604051929350917f8be0079c531659141344cd1fd0a4f28419497f9722a3daafe3b4186f6b6457e0908290a35060016007556010849055620000c2856001600160e01b036200013016565b600f80546001600160a01b03199081166001600160a01b0389811691909117909255600880548216868416179055600980549091169184169190911790556011546200011c90829062000152602090811b62000ec017901c565b6012555062000279945050505050565b3390565b600380546001600160a01b0319166001600160a01b0392909216919091179055565b60008262000163575060006200019e565b828202828482816200017157fe5b04146200019b5760405162461bcd60e51b815260040162000192906200021f565b60405180910390fd5b90505b92915050565b60008060008060008060c08789031215620001bd578182fd5b8651620001ca8162000260565b6020880151909650620001dd8162000260565b604088015160608901519196509450620001f78162000260565b60808801519093506200020a8162000260565b8092505060a087015190509295509295509295565b60208082526021908201527f536166654d6174683a206d756c7469706c69636174696f6e206f766572666c6f6040820152607760f81b606082015260800190565b6001600160a01b03811681146200027657600080fd5b50565b611ed580620002896000396000f3fe608060405234801561001057600080fd5b50600436106100ff5760003560e01c806381d12c5811610097578063ae382f4911610066578063ae382f4914610215578063ddca3f4314610228578063e1dd46a114610230578063f2fde38b14610243576100ff565b806381d12c58146101b85780638da5cb5b146101cb5780639b452323146101e0578063a0a2f05414610202576100ff565b806368fe2cdd116100d357806368fe2cdd14610168578063715018a61461017d5780637e0ce269146101855780638190f341146101a5576100ff565b80622135041461010457806317c6066f1461012d578063292733bf146101405780633e68ac6814610155575b600080fd5b610117610112366004611732565b610256565b6040516101249190611aa3565b60405180910390f35b61011761013b3660046117ba565b61030f565b61015361014e3660046117d2565b6103b1565b005b6101176101633660046117f3565b61044c565b610170610472565b6040516101249190611a5f565b6101536104ca565b6101986101933660046117f3565b610553565b6040516101249190611aae565b6101536101b33660046117d2565b610576565b6101986101c63660046117ba565b610718565b6101d3610736565b6040516101249190611998565b6101f36101ee3660046117ba565b610745565b60405161012493929190611aec565b6101986102103660046117ba565b610769565b6101536102233660046118c3565b610776565b610198610dae565b61011761023e3660046117ba565b610db4565b61015361025136600461170b565b610dfc565b6000610260610ebc565b6001600160a01b0316610271610736565b6001600160a01b0316146102a05760405162461bcd60e51b815260040161029790611cbd565b60405180910390fd5b60005b82811015610303576102c68484838181106102ba57fe5b90506020020135610db4565b6102fb57600a8484838181106102d857fe5b835460018101855560009485526020948590209190940292909201359190920155505b6001016102a3565b50600090505b92915050565b6000610319610ebc565b6001600160a01b031661032a610736565b6001600160a01b0316146103505760405162461bcd60e51b815260040161029790611cbd565b61035982610db4565b156103765760405162461bcd60e51b815260040161029790611bc8565b50600a805460018101825560009182527fc65a7bb8d6351c1cf70c95a316cc6a92839c986682d98bc35f958f4883f9d2a8018290555b919050565b6103b9610ebc565b6001600160a01b03166103ca610736565b6001600160a01b0316146103f05760405162461bcd60e51b815260040161029790611cbd565b601082905560115461040990829063ffffffff610ec016565b601281905560405133917f8e7e22d2820965fa1a8fa3ad76db76127e2f1baaf65f50c4e267f28b2254f7cb91610440918691611ade565b60405180910390a25050565b600c60209081526000938452604080852082529284528284209052825290205460ff1681565b6060600a8054806020026020016040519081016040528092919081815260200182805480156104c057602002820191906000526020600020905b8154815260200190600101908083116104ac575b5050505050905090565b6104d2610ebc565b6001600160a01b03166104e3610736565b6001600160a01b0316146105095760405162461bcd60e51b815260040161029790611cbd565b600080546040516001600160a01b03909116907f8be0079c531659141344cd1fd0a4f28419497f9722a3daafe3b4186f6b6457e0908390a3600080546001600160a01b0319169055565b600b60209081526000938452604080852082529284528284209052825290205481565b60008281526006602052604090205482906001600160a01b031633146105ae5760405162461bcd60e51b815260040161029790611d8e565b60008181526006602052604080822080546001600160a01b03191690555182917f7cc135e0cebb02c3480ae5d74d377283180a2601f8f644edf7987b009316c63a91a2600260075414156106145760405162461bcd60e51b815260040161029790611e20565b6002600755610621611695565b6000848152600d60209081526040918290208251606081018452815481526001820154928101929092526002810154919290919083019060ff16600581111561066657fe5b600581111561067157fe5b9052508051604080830151602084015191519394507fe2f11ee4299271d2204416b3f4f0ebd793470db5409b363f09f36ff3d0f09504936106b59392908890611ab7565b60405180910390a180516000908152600b60205260408082209083015185929060058111156106e057fe5b60058111156106eb57fe5b81526020808201929092526040908101600090812094830151815293909152909120555050600160075550565b600e818154811061072557fe5b600091825260209091200154905081565b6000546001600160a01b031690565b600d6020526000908152604090208054600182015460029092015490919060ff1683565b600a818154811061072557fe5b600260075414156107995760405162461bcd60e51b815260040161029790611e20565b60026007556107a782610db4565b6107c35760405162461bcd60e51b815260040161029790611d29565b6008546040516331edb3ad60e21b81526000916001600160a01b03169063c7b6ceb4906107f69087908990600401611b10565b60206040518083038186803b15801561080e57600080fd5b505afa158015610822573d6000803e3d6000fd5b505050506040513d601f19601f82011682018060405250810190610846919061179e565b905060018115151461086a5760405162461bcd60e51b815260040161029790611c45565b6000838152600c602052604081209085600581111561088557fe5b600581111561089057fe5b81526020808201929092526040908101600090812088825290925290205460ff16156108ce5760405162461bcd60e51b815260040161029790611cf2565b8115610907576109026108df610736565b306012546108eb610f01565b6001600160a01b031692919063ffffffff610f1016565b610917565b61091733306012546108eb610f01565b61091f6116b6565b6010546109349030638190f34160e01b610f6e565b60085460405160016259edcb60e01b0319815291925060009182916001600160a01b03169063ffa612359061096f908a908c90600401611b10565b604080518083038186803b15801561098657600080fd5b505afa15801561099a573d6000803e3d6000fd5b505050506040513d601f19601f820116820180604052508101906109be919061190b565b91509150610a2c604051806040016040528060088152602001676a6f625f7479706560c01b8152506040518060400160405280601c81526020017f7374616b696e675f656666696369656e63795f616e616c79746963730000000081525085610f999092919063ffffffff16565b604080518082018252600c81526b6e6574776f726b5f6e616d6560a01b60208201529051631de1646d60e31b8152610aeb919073E3D16baAfB51ee431Cd6e752f6A9e8A5234aE32a9063ef0b236890610a89908b90600401611aae565b60006040518083038186803b158015610aa157600080fd5b505af4158015610ab5573d6000803e3d6000fd5b505050506040513d6000823e601f3d908101601f19168201604052610add9190810190611828565b85919063ffffffff610f9916565b60408051808201825260098152681c195c9a5bd917da5960ba1b6020820152905163fc966d4560e01b8152610b45919073E3D16baAfB51ee431Cd6e752f6A9e8A5234aE32a9063fc966d4590610a89908d90600401611aae565b610bb16040518060400160405280600b81526020016a706572696f645f7479706560a81b81525073E3D16baAfB51ee431Cd6e752f6A9e8A5234aE32a63fc966d458a6005811115610b9257fe5b60ff166040518263ffffffff1660e01b8152600401610a899190611aae565b60408051808201825260148152731cdb1857db5bdb9a5d1bdc9a5b99d7dcdd185c9d60621b6020820152905163fc966d4560e01b8152610c16919073E3D16baAfB51ee431Cd6e752f6A9e8A5234aE32a9063fc966d4590610a89908790600401611aae565b60408051808201825260128152711cdb1857db5bdb9a5d1bdc9a5b99d7d95b9960721b6020820152905163fc966d4560e01b8152610c79919073E3D16baAfB51ee431Cd6e752f6A9e8A5234aE32a9063fc966d4590610a89908690600401611aae565b600f54601254600091610c99916001600160a01b03909116908690610fc8565b600e80546001810182556000919091527fbb7b4a454dc3493923482f07822329ed19e8244eff582cc204f8554c3620c3fd0181905560408051606081018252898152602081018c90529192508101896005811115610cf357fe5b815250600d6000838152602001908152602001600020600082015181600001556020820151816001015560408201518160020160006101000a81548160ff02191690836005811115610d4157fe5b021790555050506000878152600c602052604081206001918a6005811115610d6557fe5b6005811115610d7057fe5b8152602080820192909252604090810160009081209c81529b909152909920805460ff19169915159990991790985550506001600755505050505050565b60125481565b6000805b600a54811015610df35782600a8281548110610dd057fe5b90600052602060002001541415610deb5760019150506103ac565b600101610db8565b50600092915050565b610e04610ebc565b6001600160a01b0316610e15610736565b6001600160a01b031614610e3b5760405162461bcd60e51b815260040161029790611cbd565b6001600160a01b038116610e615760405162461bcd60e51b815260040161029790611b3f565b600080546040516001600160a01b03808516939216917f8be0079c531659141344cd1fd0a4f28419497f9722a3daafe3b4186f6b6457e091a3600080546001600160a01b0319166001600160a01b0392909216919091179055565b3390565b600082610ecf57506000610309565b82820282848281610edc57fe5b0414610efa5760405162461bcd60e51b815260040161029790611c7c565b9392505050565b6003546001600160a01b031690565b610f68846323b872dd60e01b858585604051602401610f31939291906119ac565b60408051601f198184030181529190526020810180516001600160e01b03166001600160e01b031990931692909217909152611107565b50505050565b610f766116b6565b610f7e6116b6565b610f908186868663ffffffff61119616565b95945050505050565b6080830151610fae908363ffffffff6111d316565b6080830151610fc3908263ffffffff6111d316565b505050565b600030600554604051602001610fdf929190611976565b60408051808303601f19018152918152815160209283012060055460608701526000818152600690935281832080546001600160a01b0319166001600160a01b038916179055905190925082917fb5e6e01e79f91267dc17b4e6314d5d4d03593d2ceee0fbb452b750bd70ea5af991a26003546001600160a01b0316634000aea0858461106b876111f0565b6040518463ffffffff1660e01b815260040161108993929190611a38565b602060405180830381600087803b1580156110a357600080fd5b505af11580156110b7573d6000803e3d6000fd5b505050506040513d601f19601f820116820180604052508101906110db919061179e565b6110f75760405162461bcd60e51b815260040161029790611b85565b6005805460010190559392505050565b606061115c826040518060400160405280602081526020017f5361666545524332303a206c6f772d6c6576656c2063616c6c206661696c6564815250856001600160a01b031661126c9092919063ffffffff16565b805190915015610fc3578080602001905181019061117a919061179e565b610fc35760405162461bcd60e51b815260040161029790611dd6565b61119e6116b6565b6111ae8560800151610100611283565b50509183526001600160a01b031660208301526001600160e01b031916604082015290565b6111e082600383516112bd565b610fc3828263ffffffff6113c716565b6060634042994660e01b600080846000015185602001518660400151876060015160018960800151600001516040516024016112339897969594939291906119d0565b60408051601f198184030181529190526020810180516001600160e01b03166001600160e01b0319909316929092179091529050919050565b606061127b84846000856113e1565b949350505050565b61128b6116e2565b60208206156112a05760208206602003820191505b506020828101829052604080518085526000815290920101905290565b601781116112e4576112de8360e0600585901b16831763ffffffff6114a216565b50610fc3565b60ff811161131a57611307836018611fe0600586901b161763ffffffff6114a216565b506112de8382600163ffffffff6114ba16565b61ffff81116113515761133e836019611fe0600586901b161763ffffffff6114a216565b506112de8382600263ffffffff6114ba16565b63ffffffff811161138a5761137783601a611fe0600586901b161763ffffffff6114a216565b506112de8382600463ffffffff6114ba16565b67ffffffffffffffff8111610fc3576113b483601b611fe0600586901b161763ffffffff6114a216565b50610f688382600863ffffffff6114ba16565b6113cf6116e2565b610efa838460000151518485516114d3565b6060824710156114035760405162461bcd60e51b815260040161029790611bff565b61140c8561157f565b6114285760405162461bcd60e51b815260040161029790611d57565b60006060866001600160a01b03168587604051611445919061195a565b60006040518083038185875af1925050503d8060008114611482576040519150601f19603f3d011682016040523d82523d6000602084013e611487565b606091505b5091509150611497828286611585565b979650505050505050565b6114aa6116e2565b610efa83846000015151846115be565b6114c26116e2565b61127b848560000151518585611609565b6114db6116e2565b82518211156114e957600080fd5b84602001518285011115611513576115138561150b8760200151878601611667565b60020261167e565b6000808651805187602083010193508088870111156115325787860182525b505050602084015b602084106115595780518252601f19909301926020918201910161153a565b51815160001960208690036101000a019081169019919091161790525083949350505050565b3b151590565b60608315611594575081610efa565b8251156115a45782518084602001fd5b8160405162461bcd60e51b81526004016102979190611b2c565b6115c66116e2565b836020015183106115e2576115e284856020015160020261167e565b8351805160208583010184815350808514156115ff576001810182525b5093949350505050565b6116116116e2565b8460200151848301111561162e5761162e8585840160020261167e565b60006001836101000a03905085518386820101858319825116178152508051848701111561165c5783860181525b509495945050505050565b600081831115611678575081610309565b50919050565b815161168a8383611283565b50610f6883826113c7565b6040805160608101825260008082526020820181905290918201905b905290565b6040805160a0810182526000808252602082018190529181018290526060810191909152608081016116b15b604051806040016040528060608152602001600081525090565b80356006811061030957600080fd5b60006020828403121561171c578081fd5b81356001600160a01b0381168114610efa578182fd5b60008060208385031215611744578081fd5b823567ffffffffffffffff8082111561175b578283fd5b81850186601f82011261176c578384fd5b803592508183111561177c578384fd5b866020808502830101111561178f578384fd5b60200196919550909350505050565b6000602082840312156117af578081fd5b8151610efa81611e8e565b6000602082840312156117cb578081fd5b5035919050565b600080604083850312156117e4578182fd5b50508035926020909101359150565b600080600060608486031215611807578081fd5b8335925061181885602086016116fc565b9150604084013590509250925092565b600060208284031215611839578081fd5b815167ffffffffffffffff80821115611850578283fd5b81840185601f820112611861578384fd5b8051925081831115611871578384fd5b604051601f8401601f191681016020018381118282101715611891578586fd5b6040528381528184016020018710156118a8578485fd5b6118b9846020830160208501611e62565b9695505050505050565b600080600080608085870312156118d8578081fd5b843593506118e986602087016116fc565b925060408501359150606085013561190081611e8e565b939692955090935050565b6000806040838503121561191d578182fd5b505080516020909101519092909150565b60008151808452611946816020860160208601611e62565b601f01601f19169290920160200192915050565b6000825161196c818460208701611e62565b9190910192915050565b60609290921b6bffffffffffffffffffffffff19168252601482015260340190565b6001600160a01b0391909116815260200190565b6001600160a01b039384168152919092166020820152604081019190915260600190565b6001600160a01b0389811682526020820189905260408201889052861660608201526001600160e01b03198516608082015260a0810184905260c0810183905261010060e08201819052600090611a298382018561192e565b9b9a5050505050505050505050565b600060018060a01b038516825283602083015260606040830152610f90606083018461192e565b6020808252825182820181905260009190848201906040850190845b81811015611a9757835183529284019291840191600101611a7b565b50909695505050505050565b901515815260200190565b90815260200190565b84815260808101611ac785611e57565b602083015260408201939093526060015292915050565b918252602082015260400190565b8381526020810183905260608101611b0383611e57565b6040830152949350505050565b60408101611b1d84611e57565b82528260208301529392505050565b600060208252610efa602083018461192e565b60208082526026908201527f4f776e61626c653a206e6577206f776e657220697320746865207a65726f206160408201526564647265737360d01b606082015260800190565b60208082526023908201527f756e61626c6520746f207472616e73666572416e6443616c6c20746f206f7261604082015262636c6560e81b606082015260800190565b6020808252601f908201527f4e6574776f726b206e616d6520616c7265616479207265676973746572656400604082015260600190565b60208082526026908201527f416464726573733a20696e73756666696369656e742062616c616e636520666f6040820152651c8818d85b1b60d21b606082015260800190565b6020808252601b908201527f506572696f6420686173206e6f742066696e6973686564207965740000000000604082015260600190565b60208082526021908201527f536166654d6174683a206d756c7469706c69636174696f6e206f766572666c6f6040820152607760f81b606082015260800190565b6020808252818101527f4f776e61626c653a2063616c6c6572206973206e6f7420746865206f776e6572604082015260600190565b6020808252601b908201527f416e616c797469637320616c7265616479207265717565737465640000000000604082015260600190565b602080825260149082015273496e76616c6964206e6574776f726b206e616d6560601b604082015260600190565b6020808252601d908201527f416464726573733a2063616c6c20746f206e6f6e2d636f6e7472616374000000604082015260600190565b60208082526028908201527f536f75726365206d75737420626520746865206f7261636c65206f6620746865604082015267081c995c5d595cdd60c21b606082015260800190565b6020808252602a908201527f5361666545524332303a204552433230206f7065726174696f6e20646964206e6040820152691bdd081cdd58d8d9595960b21b606082015260800190565b6020808252601f908201527f5265656e7472616e637947756172643a207265656e7472616e742063616c6c00604082015260600190565b80600681106103ac57fe5b60005b83811015611e7d578181015183820152602001611e65565b83811115610f685750506000910152565b8015158114611e9c57600080fd5b5056fea26469706673582212204d80828bc60c3ed5b64427417c5774ec027587c86f41568c0347ff8a60d70cf464736f6c63430006060033",
  "deployedBytecode": "0x608060405234801561001057600080fd5b50600436106100ff5760003560e01c806381d12c5811610097578063ae382f4911610066578063ae382f4914610215578063ddca3f4314610228578063e1dd46a114610230578063f2fde38b14610243576100ff565b806381d12c58146101b85780638da5cb5b146101cb5780639b452323146101e0578063a0a2f05414610202576100ff565b806368fe2cdd116100d357806368fe2cdd14610168578063715018a61461017d5780637e0ce269146101855780638190f341146101a5576100ff565b80622135041461010457806317c6066f1461012d578063292733bf146101405780633e68ac6814610155575b600080fd5b610117610112366004611732565b610256565b6040516101249190611aa3565b60405180910390f35b61011761013b3660046117ba565b61030f565b61015361014e3660046117d2565b6103b1565b005b6101176101633660046117f3565b61044c565b610170610472565b6040516101249190611a5f565b6101536104ca565b6101986101933660046117f3565b610553565b6040516101249190611aae565b6101536101b33660046117d2565b610576565b6101986101c63660046117ba565b610718565b6101d3610736565b6040516101249190611998565b6101f36101ee3660046117ba565b610745565b60405161012493929190611aec565b6101986102103660046117ba565b610769565b6101536102233660046118c3565b610776565b610198610dae565b61011761023e3660046117ba565b610db4565b61015361025136600461170b565b610dfc565b6000610260610ebc565b6001600160a01b0316610271610736565b6001600160a01b0316146102a05760405162461bcd60e51b815260040161029790611cbd565b60405180910390fd5b60005b82811015610303576102c68484838181106102ba57fe5b90506020020135610db4565b6102fb57600a8484838181106102d857fe5b835460018101855560009485526020948590209190940292909201359190920155505b6001016102a3565b50600090505b92915050565b6000610319610ebc565b6001600160a01b031661032a610736565b6001600160a01b0316146103505760405162461bcd60e51b815260040161029790611cbd565b61035982610db4565b156103765760405162461bcd60e51b815260040161029790611bc8565b50600a805460018101825560009182527fc65a7bb8d6351c1cf70c95a316cc6a92839c986682d98bc35f958f4883f9d2a8018290555b919050565b6103b9610ebc565b6001600160a01b03166103ca610736565b6001600160a01b0316146103f05760405162461bcd60e51b815260040161029790611cbd565b601082905560115461040990829063ffffffff610ec016565b601281905560405133917f8e7e22d2820965fa1a8fa3ad76db76127e2f1baaf65f50c4e267f28b2254f7cb91610440918691611ade565b60405180910390a25050565b600c60209081526000938452604080852082529284528284209052825290205460ff1681565b6060600a8054806020026020016040519081016040528092919081815260200182805480156104c057602002820191906000526020600020905b8154815260200190600101908083116104ac575b5050505050905090565b6104d2610ebc565b6001600160a01b03166104e3610736565b6001600160a01b0316146105095760405162461bcd60e51b815260040161029790611cbd565b600080546040516001600160a01b03909116907f8be0079c531659141344cd1fd0a4f28419497f9722a3daafe3b4186f6b6457e0908390a3600080546001600160a01b0319169055565b600b60209081526000938452604080852082529284528284209052825290205481565b60008281526006602052604090205482906001600160a01b031633146105ae5760405162461bcd60e51b815260040161029790611d8e565b60008181526006602052604080822080546001600160a01b03191690555182917f7cc135e0cebb02c3480ae5d74d377283180a2601f8f644edf7987b009316c63a91a2600260075414156106145760405162461bcd60e51b815260040161029790611e20565b6002600755610621611695565b6000848152600d60209081526040918290208251606081018452815481526001820154928101929092526002810154919290919083019060ff16600581111561066657fe5b600581111561067157fe5b9052508051604080830151602084015191519394507fe2f11ee4299271d2204416b3f4f0ebd793470db5409b363f09f36ff3d0f09504936106b59392908890611ab7565b60405180910390a180516000908152600b60205260408082209083015185929060058111156106e057fe5b60058111156106eb57fe5b81526020808201929092526040908101600090812094830151815293909152909120555050600160075550565b600e818154811061072557fe5b600091825260209091200154905081565b6000546001600160a01b031690565b600d6020526000908152604090208054600182015460029092015490919060ff1683565b600a818154811061072557fe5b600260075414156107995760405162461bcd60e51b815260040161029790611e20565b60026007556107a782610db4565b6107c35760405162461bcd60e51b815260040161029790611d29565b6008546040516331edb3ad60e21b81526000916001600160a01b03169063c7b6ceb4906107f69087908990600401611b10565b60206040518083038186803b15801561080e57600080fd5b505afa158015610822573d6000803e3d6000fd5b505050506040513d601f19601f82011682018060405250810190610846919061179e565b905060018115151461086a5760405162461bcd60e51b815260040161029790611c45565b6000838152600c602052604081209085600581111561088557fe5b600581111561089057fe5b81526020808201929092526040908101600090812088825290925290205460ff16156108ce5760405162461bcd60e51b815260040161029790611cf2565b8115610907576109026108df610736565b306012546108eb610f01565b6001600160a01b031692919063ffffffff610f1016565b610917565b61091733306012546108eb610f01565b61091f6116b6565b6010546109349030638190f34160e01b610f6e565b60085460405160016259edcb60e01b0319815291925060009182916001600160a01b03169063ffa612359061096f908a908c90600401611b10565b604080518083038186803b15801561098657600080fd5b505afa15801561099a573d6000803e3d6000fd5b505050506040513d601f19601f820116820180604052508101906109be919061190b565b91509150610a2c604051806040016040528060088152602001676a6f625f7479706560c01b8152506040518060400160405280601c81526020017f7374616b696e675f656666696369656e63795f616e616c79746963730000000081525085610f999092919063ffffffff16565b604080518082018252600c81526b6e6574776f726b5f6e616d6560a01b60208201529051631de1646d60e31b8152610aeb919073__$89e48f3f2b1d5dfed70cd34b0db16ca79e$__9063ef0b236890610a89908b90600401611aae565b60006040518083038186803b158015610aa157600080fd5b505af4158015610ab5573d6000803e3d6000fd5b505050506040513d6000823e601f3d908101601f19168201604052610add9190810190611828565b85919063ffffffff610f9916565b60408051808201825260098152681c195c9a5bd917da5960ba1b6020820152905163fc966d4560e01b8152610b45919073__$89e48f3f2b1d5dfed70cd34b0db16ca79e$__9063fc966d4590610a89908d90600401611aae565b610bb16040518060400160405280600b81526020016a706572696f645f7479706560a81b81525073__$89e48f3f2b1d5dfed70cd34b0db16ca79e$__63fc966d458a6005811115610b9257fe5b60ff166040518263ffffffff1660e01b8152600401610a899190611aae565b60408051808201825260148152731cdb1857db5bdb9a5d1bdc9a5b99d7dcdd185c9d60621b6020820152905163fc966d4560e01b8152610c16919073__$89e48f3f2b1d5dfed70cd34b0db16ca79e$__9063fc966d4590610a89908790600401611aae565b60408051808201825260128152711cdb1857db5bdb9a5d1bdc9a5b99d7d95b9960721b6020820152905163fc966d4560e01b8152610c79919073__$89e48f3f2b1d5dfed70cd34b0db16ca79e$__9063fc966d4590610a89908690600401611aae565b600f54601254600091610c99916001600160a01b03909116908690610fc8565b600e80546001810182556000919091527fbb7b4a454dc3493923482f07822329ed19e8244eff582cc204f8554c3620c3fd0181905560408051606081018252898152602081018c90529192508101896005811115610cf357fe5b815250600d6000838152602001908152602001600020600082015181600001556020820151816001015560408201518160020160006101000a81548160ff02191690836005811115610d4157fe5b021790555050506000878152600c602052604081206001918a6005811115610d6557fe5b6005811115610d7057fe5b8152602080820192909252604090810160009081209c81529b909152909920805460ff19169915159990991790985550506001600755505050505050565b60125481565b6000805b600a54811015610df35782600a8281548110610dd057fe5b90600052602060002001541415610deb5760019150506103ac565b600101610db8565b50600092915050565b610e04610ebc565b6001600160a01b0316610e15610736565b6001600160a01b031614610e3b5760405162461bcd60e51b815260040161029790611cbd565b6001600160a01b038116610e615760405162461bcd60e51b815260040161029790611b3f565b600080546040516001600160a01b03808516939216917f8be0079c531659141344cd1fd0a4f28419497f9722a3daafe3b4186f6b6457e091a3600080546001600160a01b0319166001600160a01b0392909216919091179055565b3390565b600082610ecf57506000610309565b82820282848281610edc57fe5b0414610efa5760405162461bcd60e51b815260040161029790611c7c565b9392505050565b6003546001600160a01b031690565b610f68846323b872dd60e01b858585604051602401610f31939291906119ac565b60408051601f198184030181529190526020810180516001600160e01b03166001600160e01b031990931692909217909152611107565b50505050565b610f766116b6565b610f7e6116b6565b610f908186868663ffffffff61119616565b95945050505050565b6080830151610fae908363ffffffff6111d316565b6080830151610fc3908263ffffffff6111d316565b505050565b600030600554604051602001610fdf929190611976565b60408051808303601f19018152918152815160209283012060055460608701526000818152600690935281832080546001600160a01b0319166001600160a01b038916179055905190925082917fb5e6e01e79f91267dc17b4e6314d5d4d03593d2ceee0fbb452b750bd70ea5af991a26003546001600160a01b0316634000aea0858461106b876111f0565b6040518463ffffffff1660e01b815260040161108993929190611a38565b602060405180830381600087803b1580156110a357600080fd5b505af11580156110b7573d6000803e3d6000fd5b505050506040513d601f19601f820116820180604052508101906110db919061179e565b6110f75760405162461bcd60e51b815260040161029790611b85565b6005805460010190559392505050565b606061115c826040518060400160405280602081526020017f5361666545524332303a206c6f772d6c6576656c2063616c6c206661696c6564815250856001600160a01b031661126c9092919063ffffffff16565b805190915015610fc3578080602001905181019061117a919061179e565b610fc35760405162461bcd60e51b815260040161029790611dd6565b61119e6116b6565b6111ae8560800151610100611283565b50509183526001600160a01b031660208301526001600160e01b031916604082015290565b6111e082600383516112bd565b610fc3828263ffffffff6113c716565b6060634042994660e01b600080846000015185602001518660400151876060015160018960800151600001516040516024016112339897969594939291906119d0565b60408051601f198184030181529190526020810180516001600160e01b03166001600160e01b0319909316929092179091529050919050565b606061127b84846000856113e1565b949350505050565b61128b6116e2565b60208206156112a05760208206602003820191505b506020828101829052604080518085526000815290920101905290565b601781116112e4576112de8360e0600585901b16831763ffffffff6114a216565b50610fc3565b60ff811161131a57611307836018611fe0600586901b161763ffffffff6114a216565b506112de8382600163ffffffff6114ba16565b61ffff81116113515761133e836019611fe0600586901b161763ffffffff6114a216565b506112de8382600263ffffffff6114ba16565b63ffffffff811161138a5761137783601a611fe0600586901b161763ffffffff6114a216565b506112de8382600463ffffffff6114ba16565b67ffffffffffffffff8111610fc3576113b483601b611fe0600586901b161763ffffffff6114a216565b50610f688382600863ffffffff6114ba16565b6113cf6116e2565b610efa838460000151518485516114d3565b6060824710156114035760405162461bcd60e51b815260040161029790611bff565b61140c8561157f565b6114285760405162461bcd60e51b815260040161029790611d57565b60006060866001600160a01b03168587604051611445919061195a565b60006040518083038185875af1925050503d8060008114611482576040519150601f19603f3d011682016040523d82523d6000602084013e611487565b606091505b5091509150611497828286611585565b979650505050505050565b6114aa6116e2565b610efa83846000015151846115be565b6114c26116e2565b61127b848560000151518585611609565b6114db6116e2565b82518211156114e957600080fd5b84602001518285011115611513576115138561150b8760200151878601611667565b60020261167e565b6000808651805187602083010193508088870111156115325787860182525b505050602084015b602084106115595780518252601f19909301926020918201910161153a565b51815160001960208690036101000a019081169019919091161790525083949350505050565b3b151590565b60608315611594575081610efa565b8251156115a45782518084602001fd5b8160405162461bcd60e51b81526004016102979190611b2c565b6115c66116e2565b836020015183106115e2576115e284856020015160020261167e565b8351805160208583010184815350808514156115ff576001810182525b5093949350505050565b6116116116e2565b8460200151848301111561162e5761162e8585840160020261167e565b60006001836101000a03905085518386820101858319825116178152508051848701111561165c5783860181525b509495945050505050565b600081831115611678575081610309565b50919050565b815161168a8383611283565b50610f6883826113c7565b6040805160608101825260008082526020820181905290918201905b905290565b6040805160a0810182526000808252602082018190529181018290526060810191909152608081016116b15b604051806040016040528060608152602001600081525090565b80356006811061030957600080fd5b60006020828403121561171c578081fd5b81356001600160a01b0381168114610efa578182fd5b60008060208385031215611744578081fd5b823567ffffffffffffffff8082111561175b578283fd5b81850186601f82011261176c578384fd5b803592508183111561177c578384fd5b866020808502830101111561178f578384fd5b60200196919550909350505050565b6000602082840312156117af578081fd5b8151610efa81611e8e565b6000602082840312156117cb578081fd5b5035919050565b600080604083850312156117e4578182fd5b50508035926020909101359150565b600080600060608486031215611807578081fd5b8335925061181885602086016116fc565b9150604084013590509250925092565b600060208284031215611839578081fd5b815167ffffffffffffffff80821115611850578283fd5b81840185601f820112611861578384fd5b8051925081831115611871578384fd5b604051601f8401601f191681016020018381118282101715611891578586fd5b6040528381528184016020018710156118a8578485fd5b6118b9846020830160208501611e62565b9695505050505050565b600080600080608085870312156118d8578081fd5b843593506118e986602087016116fc565b925060408501359150606085013561190081611e8e565b939692955090935050565b6000806040838503121561191d578182fd5b505080516020909101519092909150565b60008151808452611946816020860160208601611e62565b601f01601f19169290920160200192915050565b6000825161196c818460208701611e62565b9190910192915050565b60609290921b6bffffffffffffffffffffffff19168252601482015260340190565b6001600160a01b0391909116815260200190565b6001600160a01b039384168152919092166020820152604081019190915260600190565b6001600160a01b0389811682526020820189905260408201889052861660608201526001600160e01b03198516608082015260a0810184905260c0810183905261010060e08201819052600090611a298382018561192e565b9b9a5050505050505050505050565b600060018060a01b038516825283602083015260606040830152610f90606083018461192e565b6020808252825182820181905260009190848201906040850190845b81811015611a9757835183529284019291840191600101611a7b565b50909695505050505050565b901515815260200190565b90815260200190565b84815260808101611ac785611e57565b602083015260408201939093526060015292915050565b918252602082015260400190565b8381526020810183905260608101611b0383611e57565b6040830152949350505050565b60408101611b1d84611e57565b82528260208301529392505050565b600060208252610efa602083018461192e565b60208082526026908201527f4f776e61626c653a206e6577206f776e657220697320746865207a65726f206160408201526564647265737360d01b606082015260800190565b60208082526023908201527f756e61626c6520746f207472616e73666572416e6443616c6c20746f206f7261604082015262636c6560e81b606082015260800190565b6020808252601f908201527f4e6574776f726b206e616d6520616c7265616479207265676973746572656400604082015260600190565b60208082526026908201527f416464726573733a20696e73756666696369656e742062616c616e636520666f6040820152651c8818d85b1b60d21b606082015260800190565b6020808252601b908201527f506572696f6420686173206e6f742066696e6973686564207965740000000000604082015260600190565b60208082526021908201527f536166654d6174683a206d756c7469706c69636174696f6e206f766572666c6f6040820152607760f81b606082015260800190565b6020808252818101527f4f776e61626c653a2063616c6c6572206973206e6f7420746865206f776e6572604082015260600190565b6020808252601b908201527f416e616c797469637320616c7265616479207265717565737465640000000000604082015260600190565b602080825260149082015273496e76616c6964206e6574776f726b206e616d6560601b604082015260600190565b6020808252601d908201527f416464726573733a2063616c6c20746f206e6f6e2d636f6e7472616374000000604082015260600190565b60208082526028908201527f536f75726365206d75737420626520746865206f7261636c65206f6620746865604082015267081c995c5d595cdd60c21b606082015260800190565b6020808252602a908201527f5361666545524332303a204552433230206f7065726174696f6e20646964206e6040820152691bdd081cdd58d8d9595960b21b606082015260800190565b6020808252601f908201527f5265656e7472616e637947756172643a207265656e7472616e742063616c6c00604082015260600190565b80600681106103ac57fe5b60005b83811015611e7d578181015183820152602001611e65565b83811115610f685750506000910152565b8015158114611e9c57600080fd5b5056fea26469706673582212204d80828bc60c3ed5b64427417c5774ec027587c86f41568c0347ff8a60d70cf464736f6c63430006060033",
  "libraries": {
    "StringUtils": "0xE3D16baAfB51ee431Cd6e752f6A9e8A5234aE32a"
  },
  "devdoc": {
    "details": "contract to get the network analytics for the staking efficiency use case",
    "methods": {
      "addMultipleNetworks(bytes32[])": {
        "details": "function to add multiple valid network names",
        "params": {
          "_networkNames": "1. bytes32[] network names"
        }
      },
      "addNetwork(bytes32)": {
        "details": "function to add a valid network name",
        "params": {
          "_networkName": "1. bytes32 network name"
        }
      },
      "constructor": {
        "details": "parameterize the variables according to network",
        "params": {
          "_chainlinkOracle": "1. the address of the oracle to create requests to",
          "_chainlinkToken": "2. the address of LINK token contract",
          "_feeMultiplier": "6. states the amount of paid nodes running behind the precoordinator, to set the fee",
          "_jobId": "3. the job id for the HTTPGet job",
          "_periodRegistry": "4. period registry",
          "_stakeRegistry": "5. stake registry"
        }
      },
      "fulFillAnalytics(bytes32,bytes32)": {
        "details": "callback function for the Chainlink SLI request which stores the SLI in the SLA contract",
        "params": {
          "_chainlinkResponse": "response object from Chainlink Oracles",
          "_requestId": "the ID of the ChainLink request"
        }
      },
      "owner()": {
        "details": "Returns the address of the current owner."
      },
      "renounceOwnership()": {
        "details": "Leaves the contract without owner. It will not be possible to call `onlyOwner` functions anymore. Can only be called by the current owner.     * NOTE: Renouncing ownership will leave the contract without an owner, thereby removing any functionality that is only available to the owner."
      },
      "requestAnalytics(uint256,uint8,bytes32,bool)": {
        "details": "Request analytics object for the current period.",
        "params": {
          "_networkName": "3. network name to publish analytics",
          "_ownerApproval": "4. used to choose if the call is going to be funded by the contract owner, to avoid a block by contract owner",
          "_periodId": "1. id of the canonical period to be analyzed",
          "_periodType": "2. type of period to be queried"
        }
      },
      "setChainlinkJobID(bytes32,uint256)": {
        "details": "sets a new jobId, which is a agreement Id of a PreCoordinator contract",
        "params": {
          "_feeMultiplier": "how many Chainlink nodes would be paid on the agreement id, to set the fee value",
          "_jobId": "the id of the PreCoordinator agreement"
        }
      },
      "transferOwnership(address)": {
        "details": "Transfers ownership of the contract to a new account (`newOwner`). Can only be called by the current owner."
      }
    },
    "title": "NetworkAnalytics"
  },
  "userdoc": {
    "methods": {
      "constructor": "sets the Chainlink parameters (oracle address, token address, jobId) and sets the SLARegistry to 0x0 address"
    }
  },
  "storageLayout": {
    "storage": [
      {
        "astId": 4858,
        "contract": "@stacktical/dsla-protocol/contracts/use-cases/staking-efficiency/NetworkAnalytics.sol:NetworkAnalytics",
        "label": "_owner",
        "offset": 0,
        "slot": "0",
        "type": "t_address"
      },
      {
        "astId": 307,
        "contract": "@stacktical/dsla-protocol/contracts/use-cases/staking-efficiency/NetworkAnalytics.sol:NetworkAnalytics",
        "label": "ens",
        "offset": 0,
        "slot": "1",
        "type": "t_contract(ENSInterface)3349"
      },
      {
        "astId": 309,
        "contract": "@stacktical/dsla-protocol/contracts/use-cases/staking-efficiency/NetworkAnalytics.sol:NetworkAnalytics",
        "label": "ensNode",
        "offset": 0,
        "slot": "2",
        "type": "t_bytes32"
      },
      {
        "astId": 311,
        "contract": "@stacktical/dsla-protocol/contracts/use-cases/staking-efficiency/NetworkAnalytics.sol:NetworkAnalytics",
        "label": "link",
        "offset": 0,
        "slot": "3",
        "type": "t_contract(LinkTokenInterface)3444"
      },
      {
        "astId": 313,
        "contract": "@stacktical/dsla-protocol/contracts/use-cases/staking-efficiency/NetworkAnalytics.sol:NetworkAnalytics",
        "label": "oracle",
        "offset": 0,
        "slot": "4",
        "type": "t_contract(ChainlinkRequestInterface)3269"
      },
      {
        "astId": 316,
        "contract": "@stacktical/dsla-protocol/contracts/use-cases/staking-efficiency/NetworkAnalytics.sol:NetworkAnalytics",
        "label": "requestCount",
        "offset": 0,
        "slot": "5",
        "type": "t_uint256"
      },
      {
        "astId": 320,
        "contract": "@stacktical/dsla-protocol/contracts/use-cases/staking-efficiency/NetworkAnalytics.sol:NetworkAnalytics",
        "label": "pendingRequests",
        "offset": 0,
        "slot": "6",
        "type": "t_mapping(t_bytes32,t_address)"
      },
      {
        "astId": 7255,
        "contract": "@stacktical/dsla-protocol/contracts/use-cases/staking-efficiency/NetworkAnalytics.sol:NetworkAnalytics",
        "label": "_status",
        "offset": 0,
        "slot": "7",
        "type": "t_uint256"
      },
      {
        "astId": 12599,
        "contract": "@stacktical/dsla-protocol/contracts/use-cases/staking-efficiency/NetworkAnalytics.sol:NetworkAnalytics",
        "label": "periodRegistry",
        "offset": 0,
        "slot": "8",
        "type": "t_contract(PeriodRegistry)8731"
      },
      {
        "astId": 12601,
        "contract": "@stacktical/dsla-protocol/contracts/use-cases/staking-efficiency/NetworkAnalytics.sol:NetworkAnalytics",
        "label": "stakeRegistry",
        "offset": 0,
        "slot": "9",
        "type": "t_contract(StakeRegistry)11095"
      },
      {
        "astId": 12604,
        "contract": "@stacktical/dsla-protocol/contracts/use-cases/staking-efficiency/NetworkAnalytics.sol:NetworkAnalytics",
        "label": "networkNames",
        "offset": 0,
        "slot": "10",
        "type": "t_array(t_bytes32)dyn_storage"
      },
      {
        "astId": 12612,
        "contract": "@stacktical/dsla-protocol/contracts/use-cases/staking-efficiency/NetworkAnalytics.sol:NetworkAnalytics",
        "label": "periodAnalytics",
        "offset": 0,
        "slot": "11",
        "type": "t_mapping(t_bytes32,t_mapping(t_enum(PeriodType)8253,t_mapping(t_uint256,t_bytes32)))"
      },
      {
        "astId": 12620,
        "contract": "@stacktical/dsla-protocol/contracts/use-cases/staking-efficiency/NetworkAnalytics.sol:NetworkAnalytics",
        "label": "periodAnalyticsRequested",
        "offset": 0,
        "slot": "12",
        "type": "t_mapping(t_bytes32,t_mapping(t_enum(PeriodType)8253,t_mapping(t_uint256,t_bool)))"
      },
      {
        "astId": 12624,
        "contract": "@stacktical/dsla-protocol/contracts/use-cases/staking-efficiency/NetworkAnalytics.sol:NetworkAnalytics",
        "label": "requestIdToAnalyticsRequest",
        "offset": 0,
        "slot": "13",
        "type": "t_mapping(t_bytes32,t_struct(AnalyticsRequest)12597_storage)"
      },
      {
        "astId": 12627,
        "contract": "@stacktical/dsla-protocol/contracts/use-cases/staking-efficiency/NetworkAnalytics.sol:NetworkAnalytics",
        "label": "requests",
        "offset": 0,
        "slot": "14",
        "type": "t_array(t_bytes32)dyn_storage"
      },
      {
        "astId": 12629,
        "contract": "@stacktical/dsla-protocol/contracts/use-cases/staking-efficiency/NetworkAnalytics.sol:NetworkAnalytics",
        "label": "oracle",
        "offset": 0,
        "slot": "15",
        "type": "t_address"
      },
      {
        "astId": 12631,
        "contract": "@stacktical/dsla-protocol/contracts/use-cases/staking-efficiency/NetworkAnalytics.sol:NetworkAnalytics",
        "label": "jobId",
        "offset": 0,
        "slot": "16",
        "type": "t_bytes32"
      },
      {
        "astId": 12634,
        "contract": "@stacktical/dsla-protocol/contracts/use-cases/staking-efficiency/NetworkAnalytics.sol:NetworkAnalytics",
        "label": "baseFee",
        "offset": 0,
        "slot": "17",
        "type": "t_uint256"
      },
      {
        "astId": 12636,
        "contract": "@stacktical/dsla-protocol/contracts/use-cases/staking-efficiency/NetworkAnalytics.sol:NetworkAnalytics",
        "label": "fee",
        "offset": 0,
        "slot": "18",
        "type": "t_uint256"
      }
    ],
    "types": {
      "t_address": {
        "encoding": "inplace",
        "label": "address",
        "numberOfBytes": "20"
      },
      "t_array(t_bytes32)dyn_storage": {
        "base": "t_bytes32",
        "encoding": "dynamic_array",
        "label": "bytes32[]",
        "numberOfBytes": "32"
      },
      "t_bool": {
        "encoding": "inplace",
        "label": "bool",
        "numberOfBytes": "1"
      },
      "t_bytes32": {
        "encoding": "inplace",
        "label": "bytes32",
        "numberOfBytes": "32"
      },
      "t_contract(ChainlinkRequestInterface)3269": {
        "encoding": "inplace",
        "label": "contract ChainlinkRequestInterface",
        "numberOfBytes": "20"
      },
      "t_contract(ENSInterface)3349": {
        "encoding": "inplace",
        "label": "contract ENSInterface",
        "numberOfBytes": "20"
      },
      "t_contract(LinkTokenInterface)3444": {
        "encoding": "inplace",
        "label": "contract LinkTokenInterface",
        "numberOfBytes": "20"
      },
      "t_contract(PeriodRegistry)8731": {
        "encoding": "inplace",
        "label": "contract PeriodRegistry",
        "numberOfBytes": "20"
      },
      "t_contract(StakeRegistry)11095": {
        "encoding": "inplace",
        "label": "contract StakeRegistry",
        "numberOfBytes": "20"
      },
      "t_enum(PeriodType)8253": {
        "encoding": "inplace",
        "label": "enum PeriodRegistry.PeriodType",
        "numberOfBytes": "1"
      },
      "t_mapping(t_bytes32,t_address)": {
        "encoding": "mapping",
        "key": "t_bytes32",
        "label": "mapping(bytes32 => address)",
        "numberOfBytes": "32",
        "value": "t_address"
      },
      "t_mapping(t_bytes32,t_mapping(t_enum(PeriodType)8253,t_mapping(t_uint256,t_bool)))": {
        "encoding": "mapping",
        "key": "t_bytes32",
        "label": "mapping(bytes32 => mapping(enum PeriodRegistry.PeriodType => mapping(uint256 => bool)))",
        "numberOfBytes": "32",
        "value": "t_mapping(t_enum(PeriodType)8253,t_mapping(t_uint256,t_bool))"
      },
      "t_mapping(t_bytes32,t_mapping(t_enum(PeriodType)8253,t_mapping(t_uint256,t_bytes32)))": {
        "encoding": "mapping",
        "key": "t_bytes32",
        "label": "mapping(bytes32 => mapping(enum PeriodRegistry.PeriodType => mapping(uint256 => bytes32)))",
        "numberOfBytes": "32",
        "value": "t_mapping(t_enum(PeriodType)8253,t_mapping(t_uint256,t_bytes32))"
      },
      "t_mapping(t_bytes32,t_struct(AnalyticsRequest)12597_storage)": {
        "encoding": "mapping",
        "key": "t_bytes32",
        "label": "mapping(bytes32 => struct NetworkAnalytics.AnalyticsRequest)",
        "numberOfBytes": "32",
        "value": "t_struct(AnalyticsRequest)12597_storage"
      },
      "t_mapping(t_enum(PeriodType)8253,t_mapping(t_uint256,t_bool))": {
        "encoding": "mapping",
        "key": "t_enum(PeriodType)8253",
        "label": "mapping(enum PeriodRegistry.PeriodType => mapping(uint256 => bool))",
        "numberOfBytes": "32",
        "value": "t_mapping(t_uint256,t_bool)"
      },
      "t_mapping(t_enum(PeriodType)8253,t_mapping(t_uint256,t_bytes32))": {
        "encoding": "mapping",
        "key": "t_enum(PeriodType)8253",
        "label": "mapping(enum PeriodRegistry.PeriodType => mapping(uint256 => bytes32))",
        "numberOfBytes": "32",
        "value": "t_mapping(t_uint256,t_bytes32)"
      },
      "t_mapping(t_uint256,t_bool)": {
        "encoding": "mapping",
        "key": "t_uint256",
        "label": "mapping(uint256 => bool)",
        "numberOfBytes": "32",
        "value": "t_bool"
      },
      "t_mapping(t_uint256,t_bytes32)": {
        "encoding": "mapping",
        "key": "t_uint256",
        "label": "mapping(uint256 => bytes32)",
        "numberOfBytes": "32",
        "value": "t_bytes32"
      },
      "t_struct(AnalyticsRequest)12597_storage": {
        "encoding": "inplace",
        "label": "struct NetworkAnalytics.AnalyticsRequest",
        "members": [
          {
            "astId": 12592,
            "contract": "@stacktical/dsla-protocol/contracts/use-cases/staking-efficiency/NetworkAnalytics.sol:NetworkAnalytics",
            "label": "networkName",
            "offset": 0,
            "slot": "0",
            "type": "t_bytes32"
          },
          {
            "astId": 12594,
            "contract": "@stacktical/dsla-protocol/contracts/use-cases/staking-efficiency/NetworkAnalytics.sol:NetworkAnalytics",
            "label": "periodId",
            "offset": 0,
            "slot": "1",
            "type": "t_uint256"
          },
          {
            "astId": 12596,
            "contract": "@stacktical/dsla-protocol/contracts/use-cases/staking-efficiency/NetworkAnalytics.sol:NetworkAnalytics",
            "label": "periodType",
            "offset": 0,
            "slot": "2",
            "type": "t_enum(PeriodType)8253"
          }
        ],
        "numberOfBytes": "96"
      },
      "t_uint256": {
        "encoding": "inplace",
        "label": "uint256",
        "numberOfBytes": "32"
      }
    }
  }
}