{
  "address": "0xb2Cc4742cc238eAF3e2628CE34e6B949cA522712",
  "abi": [
    {
      "inputs": [
        {
          "internalType": "address",
          "name": "_dslaTokenAddress",
          "type": "address"
        }
      ],
      "stateMutability": "nonpayable",
      "type": "constructor"
    },
    {
      "anonymous": false,
      "inputs": [
        {
          "indexed": true,
          "internalType": "address",
          "name": "dTokenAddress",
          "type": "address"
        },
        {
          "indexed": true,
          "internalType": "address",
          "name": "sla",
          "type": "address"
        },
        {
          "indexed": false,
          "internalType": "string",
          "name": "name",
          "type": "string"
        },
        {
          "indexed": false,
          "internalType": "string",
          "name": "symbol",
          "type": "string"
        }
      ],
      "name": "DTokenCreated",
      "type": "event"
    },
    {
      "anonymous": false,
      "inputs": [
        {
          "indexed": true,
          "internalType": "address",
          "name": "sla",
          "type": "address"
        },
        {
          "indexed": true,
          "internalType": "address",
          "name": "owner",
          "type": "address"
        },
        {
          "indexed": false,
          "internalType": "uint256",
          "name": "amount",
          "type": "uint256"
        }
      ],
      "name": "LockedValueReturned",
      "type": "event"
    },
    {
      "anonymous": false,
      "inputs": [
        {
          "indexed": true,
          "internalType": "address",
          "name": "previousOwner",
          "type": "address"
        },
        {
          "indexed": true,
          "internalType": "address",
          "name": "newOwner",
          "type": "address"
        }
      ],
      "name": "OwnershipTransferred",
      "type": "event"
    },
    {
      "anonymous": false,
      "inputs": [
        {
          "indexed": false,
          "internalType": "uint256",
          "name": "DSLAburnRate",
          "type": "uint256"
        },
        {
          "indexed": false,
          "internalType": "uint256",
          "name": "dslaDepositByPeriod",
          "type": "uint256"
        },
        {
          "indexed": false,
          "internalType": "uint256",
          "name": "dslaPlatformReward",
          "type": "uint256"
        },
        {
          "indexed": false,
          "internalType": "uint256",
          "name": "dslaMessengerReward",
          "type": "uint256"
        },
        {
          "indexed": false,
          "internalType": "uint256",
          "name": "dslaUserReward",
          "type": "uint256"
        },
        {
          "indexed": false,
          "internalType": "uint256",
          "name": "dslaBurnedByVerification",
          "type": "uint256"
        },
        {
          "indexed": false,
          "internalType": "uint256",
          "name": "maxTokenLength",
          "type": "uint256"
        },
        {
          "indexed": false,
          "internalType": "uint64",
          "name": "maxLeverage",
          "type": "uint64"
        },
        {
          "indexed": false,
          "internalType": "bool",
          "name": "burnDSLA",
          "type": "bool"
        }
      ],
      "name": "StakingParametersModified",
      "type": "event"
    },
    {
      "anonymous": false,
      "inputs": [
        {
          "indexed": true,
          "internalType": "address",
          "name": "sla",
          "type": "address"
        },
        {
          "indexed": true,
          "internalType": "address",
          "name": "owner",
          "type": "address"
        },
        {
          "indexed": false,
          "internalType": "uint256",
          "name": "amount",
          "type": "uint256"
        }
      ],
      "name": "ValueLocked",
      "type": "event"
    },
    {
      "anonymous": false,
      "inputs": [
        {
          "indexed": true,
          "internalType": "address",
          "name": "sla",
          "type": "address"
        },
        {
          "indexed": true,
          "internalType": "address",
          "name": "requester",
          "type": "address"
        },
        {
          "indexed": false,
          "internalType": "uint256",
          "name": "userReward",
          "type": "uint256"
        },
        {
          "indexed": false,
          "internalType": "uint256",
          "name": "platformReward",
          "type": "uint256"
        },
        {
          "indexed": false,
          "internalType": "uint256",
          "name": "messengerReward",
          "type": "uint256"
        },
        {
          "indexed": false,
          "internalType": "uint256",
          "name": "burnedDSLA",
          "type": "uint256"
        }
      ],
      "name": "VerificationRewardDistributed",
      "type": "event"
    },
    {
      "inputs": [],
      "name": "DSLATokenAddress",
      "outputs": [
        {
          "internalType": "address",
          "name": "",
          "type": "address"
        }
      ],
      "stateMutability": "view",
      "type": "function"
    },
    {
      "inputs": [
        {
          "internalType": "address",
          "name": "_tokenAddress",
          "type": "address"
        }
      ],
      "name": "addAllowedTokens",
      "outputs": [],
      "stateMutability": "nonpayable",
      "type": "function"
    },
    {
      "inputs": [
        {
          "internalType": "uint256",
          "name": "",
          "type": "uint256"
        }
      ],
      "name": "allowedTokens",
      "outputs": [
        {
          "internalType": "address",
          "name": "",
          "type": "address"
        }
      ],
      "stateMutability": "view",
      "type": "function"
    },
    {
      "inputs": [
        {
          "internalType": "string",
          "name": "_name",
          "type": "string"
        },
        {
          "internalType": "string",
          "name": "_symbol",
          "type": "string"
        }
      ],
      "name": "createDToken",
      "outputs": [
        {
          "internalType": "address",
          "name": "",
          "type": "address"
        }
      ],
      "stateMutability": "nonpayable",
      "type": "function"
    },
    {
      "inputs": [
        {
          "internalType": "address",
          "name": "_sla",
          "type": "address"
        },
        {
          "internalType": "address",
          "name": "_verificationRewardReceiver",
          "type": "address"
        },
        {
          "internalType": "uint256",
          "name": "_periodId",
          "type": "uint256"
        }
      ],
      "name": "distributeVerificationRewards",
      "outputs": [],
      "stateMutability": "nonpayable",
      "type": "function"
    },
    {
      "inputs": [
        {
          "internalType": "address",
          "name": "_slaOwner",
          "type": "address"
        }
      ],
      "name": "getActivePool",
      "outputs": [
        {
          "components": [
            {
              "internalType": "address",
              "name": "SLAAddress",
              "type": "address"
            },
            {
              "internalType": "uint256",
              "name": "stake",
              "type": "uint256"
            },
            {
              "internalType": "string",
              "name": "assetName",
              "type": "string"
            },
            {
              "internalType": "address",
              "name": "assetAddress",
              "type": "address"
            }
          ],
          "internalType": "struct StakeRegistry.ActivePool[]",
          "name": "",
          "type": "tuple[]"
        }
      ],
      "stateMutability": "view",
      "type": "function"
    },
    {
      "inputs": [],
      "name": "getStakingParameters",
      "outputs": [
        {
          "internalType": "uint256",
          "name": "DSLAburnRate",
          "type": "uint256"
        },
        {
          "internalType": "uint256",
          "name": "dslaDepositByPeriod",
          "type": "uint256"
        },
        {
          "internalType": "uint256",
          "name": "dslaPlatformReward",
          "type": "uint256"
        },
        {
          "internalType": "uint256",
          "name": "dslaMessengerReward",
          "type": "uint256"
        },
        {
          "internalType": "uint256",
          "name": "dslaUserReward",
          "type": "uint256"
        },
        {
          "internalType": "uint256",
          "name": "dslaBurnedByVerification",
          "type": "uint256"
        },
        {
          "internalType": "uint256",
          "name": "maxTokenLength",
          "type": "uint256"
        },
        {
          "internalType": "uint64",
          "name": "maxLeverage",
          "type": "uint64"
        },
        {
          "internalType": "bool",
          "name": "burnDSLA",
          "type": "bool"
        }
      ],
      "stateMutability": "view",
      "type": "function"
    },
    {
      "inputs": [
        {
          "internalType": "address",
          "name": "_tokenAddress",
          "type": "address"
        }
      ],
      "name": "isAllowedToken",
      "outputs": [
        {
          "internalType": "bool",
          "name": "",
          "type": "bool"
        }
      ],
      "stateMutability": "view",
      "type": "function"
    },
    {
      "inputs": [
        {
          "internalType": "address",
          "name": "_slaOwner",
          "type": "address"
        },
        {
          "internalType": "address",
          "name": "_sla",
          "type": "address"
        },
        {
          "internalType": "uint256",
          "name": "_periodIdsLength",
          "type": "uint256"
        }
      ],
      "name": "lockDSLAValue",
      "outputs": [],
      "stateMutability": "nonpayable",
      "type": "function"
    },
    {
      "inputs": [],
      "name": "owner",
      "outputs": [
        {
          "internalType": "address",
          "name": "",
          "type": "address"
        }
      ],
      "stateMutability": "view",
      "type": "function"
    },
    {
      "inputs": [
        {
          "internalType": "address",
          "name": "_sla",
          "type": "address"
        },
        {
          "internalType": "uint256",
          "name": "_periodId",
          "type": "uint256"
        }
      ],
      "name": "periodIsVerified",
      "outputs": [
        {
          "internalType": "bool",
          "name": "",
          "type": "bool"
        }
      ],
      "stateMutability": "view",
      "type": "function"
    },
    {
      "inputs": [
        {
          "internalType": "address",
          "name": "_owner",
          "type": "address"
        }
      ],
      "name": "registerStakedSla",
      "outputs": [
        {
          "internalType": "bool",
          "name": "",
          "type": "bool"
        }
      ],
      "stateMutability": "nonpayable",
      "type": "function"
    },
    {
      "inputs": [],
      "name": "renounceOwnership",
      "outputs": [],
      "stateMutability": "nonpayable",
      "type": "function"
    },
    {
      "inputs": [
        {
          "internalType": "address",
          "name": "_sla",
          "type": "address"
        }
      ],
      "name": "returnLockedValue",
      "outputs": [],
      "stateMutability": "nonpayable",
      "type": "function"
    },
    {
      "inputs": [],
      "name": "setSLARegistry",
      "outputs": [],
      "stateMutability": "nonpayable",
      "type": "function"
    },
    {
      "inputs": [
        {
          "internalType": "uint256",
          "name": "DSLAburnRate",
          "type": "uint256"
        },
        {
          "internalType": "uint256",
          "name": "dslaDepositByPeriod",
          "type": "uint256"
        },
        {
          "internalType": "uint256",
          "name": "dslaPlatformReward",
          "type": "uint256"
        },
        {
          "internalType": "uint256",
          "name": "dslaMessengerReward",
          "type": "uint256"
        },
        {
          "internalType": "uint256",
          "name": "dslaUserReward",
          "type": "uint256"
        },
        {
          "internalType": "uint256",
          "name": "dslaBurnedByVerification",
          "type": "uint256"
        },
        {
          "internalType": "uint256",
          "name": "maxTokenLength",
          "type": "uint256"
        },
        {
          "internalType": "uint64",
          "name": "maxLeverage",
          "type": "uint64"
        },
        {
          "internalType": "bool",
          "name": "burnDSLA",
          "type": "bool"
        }
      ],
      "name": "setStakingParameters",
      "outputs": [],
      "stateMutability": "nonpayable",
      "type": "function"
    },
    {
      "inputs": [
        {
          "internalType": "address",
          "name": "",
          "type": "address"
        }
      ],
      "name": "slaLockedValue",
      "outputs": [
        {
          "internalType": "uint256",
          "name": "lockedValue",
          "type": "uint256"
        },
        {
          "internalType": "uint256",
          "name": "slaPeriodIdsLength",
          "type": "uint256"
        },
        {
          "internalType": "uint256",
          "name": "dslaDepositByPeriod",
          "type": "uint256"
        },
        {
          "internalType": "uint256",
          "name": "dslaPlatformReward",
          "type": "uint256"
        },
        {
          "internalType": "uint256",
          "name": "dslaMessengerReward",
          "type": "uint256"
        },
        {
          "internalType": "uint256",
          "name": "dslaUserReward",
          "type": "uint256"
        },
        {
          "internalType": "uint256",
          "name": "dslaBurnedByVerification",
          "type": "uint256"
        }
      ],
      "stateMutability": "view",
      "type": "function"
    },
    {
      "inputs": [],
      "name": "slaRegistry",
      "outputs": [
        {
          "internalType": "contract ISLARegistry",
          "name": "",
          "type": "address"
        }
      ],
      "stateMutability": "view",
      "type": "function"
    },
    {
      "inputs": [
        {
          "internalType": "address",
          "name": "_user",
          "type": "address"
        },
        {
          "internalType": "address",
          "name": "_sla",
          "type": "address"
        }
      ],
      "name": "slaWasStakedByUser",
      "outputs": [
        {
          "internalType": "bool",
          "name": "",
          "type": "bool"
        }
      ],
      "stateMutability": "view",
      "type": "function"
    },
    {
      "inputs": [
        {
          "internalType": "address",
          "name": "newOwner",
          "type": "address"
        }
      ],
      "name": "transferOwnership",
      "outputs": [],
      "stateMutability": "nonpayable",
      "type": "function"
    },
    {
      "inputs": [
        {
          "internalType": "address",
          "name": "",
          "type": "address"
        },
        {
          "internalType": "uint256",
          "name": "",
          "type": "uint256"
        }
      ],
      "name": "userStakedSlas",
      "outputs": [
        {
          "internalType": "contract SLA",
          "name": "",
          "type": "address"
        }
      ],
      "stateMutability": "view",
      "type": "function"
    }
  ],
  "transactionHash": "0x58f04a3a3f102b137a8fd145a0421fc672e6838e4e82bb480272473a7fd4d465",
  "args": [
    "0xdAe887D74b56600683010944Bb05b3EB8c69d69c"
  ],
  "solcInputHash": "d9786b6c3c1e6011eee5d5497a1a049f",
  "bytecode": "0x60806040526003600455683635c9adc5dea00000600655680d8d726b7177a80000600781905560088190556009819055600a556001600b55600c805460ff60401b196001600160401b031990911660641716680100000000000000001790553480156200006b57600080fd5b506040516200447a3803806200447a8339810160408190526200008e91620001f3565b6000620000a36001600160e01b03620001c016565b600080546001600160a01b0319166001600160a01b0383169081178255604051929350917f8be0079c531659141344cd1fd0a4f28419497f9722a3daafe3b4186f6b6457e0908290a3506001808190555062000134600a546200012060095462000120600854600754620001c460201b6200186a1790919060201c565b620001c460201b6200186a1790919060201c565b60065414620001605760405162461bcd60e51b8152600401620001579062000253565b60405180910390fd5b600280546001600160a01b039092166001600160a01b03199283168117909155600d80546001810182556000919091527fd7b6990105719101dabeb77144f2a3385c8033acd3af97e9423a695e81ad1eb50180549092161790556200029f565b3390565b600082820183811015620001ec5760405162461bcd60e51b815260040162000157906200021c565b9392505050565b60006020828403121562000205578081fd5b81516001600160a01b0381168114620001ec578182fd5b6020808252601b908201527f536166654d6174683a206164646974696f6e206f766572666c6f770000000000604082015260600190565b6020808252602c908201527f5374616b696e6720706172616d65746572732073686f756c64206d617463682060408201526b37b71039bab6b6b0ba34b7b760a11b606082015260800190565b6141cb80620002af6000396000f3fe60806040523480156200001157600080fd5b5060043610620001545760003560e01c80638d9cc7ed11620000c9578063cbe230c31162000087578063cbe230c314620002c9578063db69a46214620002e0578063f2c0dfd414620002ea578063f2fde38b1462000310578063f38815891462000327578063f700839e14620003315762000154565b80638d9cc7ed14620002635780638da5cb5b146200027a578063a3f5cadf1462000284578063ab9a81a5146200029b578063b290508e14620002b25762000154565b80635f635ce111620001175780635f635ce114620001f557806366a0428e1462000221578063715018a614620002385780637afb4c0a14620002425780638b8e530914620002595762000154565b80630df0bfc61462000159578063171e44ea146200018857806322f3c33c14620001a15780632575d7ca14620001b85780635e5f2e2614620001cf575b600080fd5b620001706200016a36600462001b25565b62000352565b6040516200017f919062001eb6565b60405180910390f35b6200019f6200019936600462001ae7565b620003dd565b005b6200019f620001b236600462001b62565b620004a9565b6200019f620001c936600462001ae7565b62000878565b620001e6620001e036600462001cad565b62000a71565b6040516200017f919062001dc8565b6200020c6200020636600462001ae7565b62000a99565b6040516200017f97969594939291906200233b565b620001e66200023236600462001c3d565b62000adb565b6200019f62000cf8565b6200019f6200025336600462001b62565b62000d88565b620001e662000ee0565b6200019f6200027436600462001cc6565b62000eef565b620001e662001022565b620001e66200029536600462001ba7565b62001031565b62000170620002ac36600462001ba7565b62001067565b62000170620002c336600462001ae7565b62001096565b62000170620002da36600462001ae7565b6200118f565b620001e6620011ef565b62000301620002fb36600462001ae7565b620011fe565b6040516200017f919062001e19565b6200019f6200032136600462001ae7565b62001622565b6200019f620016ec565b6200033b6200172c565b6040516200017f999897969594939291906200236b565b6000805b6001600160a01b0384166000908152600e6020526040902054811015620003d1576001600160a01b038481166000908152600e6020526040902080549185169183908110620003a157fe5b6000918252602090912001546001600160a01b03161415620003c8576001915050620003d7565b60010162000356565b50600090505b92915050565b620003e76200176b565b6001600160a01b0316620003fa62001022565b6001600160a01b0316146200042c5760405162461bcd60e51b81526004016200042390620021fb565b60405180910390fd5b62000437816200118f565b15620004575760405162461bcd60e51b8152600401620004239062002104565b600d80546001810182556000919091527fd7b6990105719101dabeb77144f2a3385c8033acd3af97e9423a695e81ad1eb50180546001600160a01b0319166001600160a01b0392909216919091179055565b6003546001600160a01b03163314620004d65760405162461bcd60e51b8152600401620004239062002179565b60026001541415620004fc5760405162461bcd60e51b81526004016200042390620022e0565b60026001556001600160a01b0383166000908152600560209081526040808320848452600781019092529091205460ff16156200054d5760405162461bcd60e51b8152600401620004239062001f95565b60008281526007820160205260409020805460ff1916600117905560028101548154620005809163ffffffff6200176f16565b81556005810154600254620005a9916001600160a01b0390911690859063ffffffff6200179a16565b620005d6620005b762001022565b60038301546002546001600160a01b0316919063ffffffff6200179a16565b620006e2846001600160a01b031663a224ee9c6040518163ffffffff1660e01b815260040160206040518083038186803b1580156200061457600080fd5b505afa15801562000629573d6000803e3d6000fd5b505050506040513d601f19601f820116820180604052508101906200064f919062001b06565b6001600160a01b0316638da5cb5b6040518163ffffffff1660e01b815260040160206040518083038186803b1580156200068857600080fd5b505afa1580156200069d573d6000803e3d6000fd5b505050506040513d601f19601f82011682018060405250810190620006c3919062001b06565b60048301546002546001600160a01b0316919063ffffffff6200179a16565b600c54600160401b900460ff16156200080b57600254604080518082018252600d81526c6275726e2875696e743235362960981b602090910152600683015490516000926001600160a01b0316917f42966c689b5afe9b9b3f8a7103b2a19980d59629bfd6a20a60972312ed41d8369162000761919060240162002317565b60408051601f198184030181529181526020820180516001600160e01b03166001600160e01b0319909416939093179092529051620007a1919062001daa565b6000604051808303816000865af19150503d8060008114620007e0576040519150601f19603f3d011682016040523d82523d6000602084013e620007e5565b606091505b5050905080620008095760405162461bcd60e51b815260040162000423906200200e565b505b826001600160a01b0316846001600160a01b03167f826cb0a7342bbb8cfd359b578a84d13c8d382259a596846313632ea4f8a9e0df836005015484600301548560040154866006015460405162000866949392919062002320565b60405180910390a35050600180555050565b6003546001600160a01b03163314620008a55760405162461bcd60e51b8152600401620004239062002179565b60026001541415620008cb5760405162461bcd60e51b81526004016200042390620022e0565b60026001556001600160a01b03811660009081526005602052604090208054806200090a5760405162461bcd60e51b8152600401620004239062002267565b60008260000181905550620009a7836001600160a01b0316638da5cb5b6040518163ffffffff1660e01b815260040160206040518083038186803b1580156200095257600080fd5b505afa15801562000967573d6000803e3d6000fd5b505050506040513d601f19601f820116820180604052508101906200098d919062001b06565b6002546001600160a01b0316908363ffffffff6200179a16565b826001600160a01b0316638da5cb5b6040518163ffffffff1660e01b815260040160206040518083038186803b158015620009e157600080fd5b505afa158015620009f6573d6000803e3d6000fd5b505050506040513d601f19601f8201168201806040525081019062000a1c919062001b06565b6001600160a01b0316836001600160a01b03167f526b43222b64bfcfeed3563208adb6adf96643dbe2b032bf8c1db565f648066b8360405162000a60919062002317565b60405180910390a350506001805550565b600d818154811062000a7f57fe5b6000918252602090912001546001600160a01b0316905081565b60056020528060005260406000206000915090508060000154908060010154908060020154908060030154908060040154908060050154908060060154905087565b60035460405163c4277a7b60e01b81526000916001600160a01b03169063c4277a7b9062000b0e90339060040162001dc8565b60206040518083038186803b15801562000b2757600080fd5b505afa15801562000b3c573d6000803e3d6000fd5b505050506040513d601f19601f8201168201806040525081019062000b62919062001c05565b62000b815760405162461bcd60e51b8152600401620004239062001f18565b60008585858560405162000b959062001a55565b62000ba4949392919062001ed8565b604051809103906000f08015801562000bc1573d6000803e3d6000fd5b509050806001600160a01b0316632f2ff15d826001600160a01b031663d53913936040518163ffffffff1660e01b815260040160206040518083038186803b15801562000c0d57600080fd5b505afa15801562000c22573d6000803e3d6000fd5b505050506040513d601f19601f8201168201806040525081019062000c48919062001c24565b336040518363ffffffff1660e01b815260040162000c6892919062001ec1565b600060405180830381600087803b15801562000c8357600080fd5b505af115801562000c98573d6000803e3d6000fd5b50505050336001600160a01b0316816001600160a01b03167f775642c5d9d0b2d22469762e2d60401339c2c949c17073f300875b9d519542d58888888860405162000ce7949392919062001ed8565b60405180910390a395945050505050565b62000d026200176b565b6001600160a01b031662000d1562001022565b6001600160a01b03161462000d3e5760405162461bcd60e51b81526004016200042390620021fb565b600080546040516001600160a01b03909116907f8be0079c531659141344cd1fd0a4f28419497f9722a3daafe3b4186f6b6457e0908390a3600080546001600160a01b0319169055565b6003546001600160a01b0316331462000db55760405162461bcd60e51b8152600401620004239062002179565b6002600154141562000ddb5760405162461bcd60e51b81526004016200042390620022e0565b600260015560065460009062000df8908363ffffffff620017f916565b60025490915062000e1b906001600160a01b031685308463ffffffff6200184016565b6040805160e081018252828152602080820185815260068054848601908152600754606086019081526008546080870190815260095460a08801908152600a5460c089019081526001600160a01b03808e16600081815260059a8b90528c90209a518b55975160018b0155945160028a01559251600389015590516004880155519486019490945592519301929092559151918616917fbed8b484d876a51d8bc97cdb1cf64b989bd09f01fa27c956ed58b2eebc7524d9906200086690859062002317565b6002546001600160a01b031690565b62000ef96200176b565b6001600160a01b031662000f0c62001022565b6001600160a01b03161462000f355760405162461bcd60e51b81526004016200042390620021fb565b60048990556006889055600787905560088690556009859055600a849055600b839055600c805467ffffffffffffffff191667ffffffffffffffff84161768ff00000000000000001916600160401b8315150217905562000fab8462000f9e87818b8b6200186a565b9063ffffffff6200186a16565b6006541462000fce5760405162461bcd60e51b81526004016200042390620020b8565b7f6f8c694dce70811f9682da311aef04650917bf4c3dd5d6b925c37ceb49074c6f8989898989898989896040516200100f999897969594939291906200236b565b60405180910390a1505050505050505050565b6000546001600160a01b031690565b600e60205281600052604060002081815481106200104b57fe5b6000918252602090912001546001600160a01b03169150829050565b6001600160a01b0391909116600090815260056020908152604080832093835260079093019052205460ff1690565b60035460405163c4277a7b60e01b81526000916001600160a01b03169063c4277a7b90620010c990339060040162001dc8565b60206040518083038186803b158015620010e257600080fd5b505afa158015620010f7573d6000803e3d6000fd5b505050506040513d601f19601f820116820180604052508101906200111d919062001c05565b6200113c5760405162461bcd60e51b8152600401620004239062001f18565b62001148823362000352565b62001186576001600160a01b0382166000908152600e602090815260408220805460018101825590835291200180546001600160a01b031916331790555b5060015b919050565b6000805b600d54811015620011e657826001600160a01b0316600d8281548110620011b657fe5b6000918252602090912001546001600160a01b03161415620011dd5760019150506200118a565b60010162001193565b50600092915050565b6003546001600160a01b031681565b6040805180820190915260068152656e616d65282960d01b60209091015260607f06fdde0383f15d582d1a74511486c9ddf862a882fb7904b3d9fe9b8b8e58a7966000805b6001600160a01b0385166000908152600e60205260409020548110156200133c576001600160a01b0385166000908152600e602052604081208054839081106200128957fe5b9060005260206000200160009054906101000a90046001600160a01b0316905062001330816001600160a01b031663b7bc347e6040518163ffffffff1660e01b815260040160206040518083038186803b158015620012e757600080fd5b505afa158015620012fc573d6000803e3d6000fd5b505050506040513d601f19601f8201168201806040525081019062001322919062001c24565b849063ffffffff6200186a16565b92505060010162001243565b5060608167ffffffffffffffff811180156200135757600080fd5b506040519080825280602002602001820160405280156200139557816020015b6200138162001a63565b815260200190600190039081620013775790505b5090506000805b6001600160a01b0387166000908152600e602052604090205481101562001617576001600160a01b0387166000908152600e60205260408120805483908110620013e257fe5b60009182526020822001546001600160a01b031691505b816001600160a01b031663b7bc347e6040518163ffffffff1660e01b815260040160206040518083038186803b1580156200143357600080fd5b505afa15801562001448573d6000803e3d6000fd5b505050506040513d601f19601f820116820180604052508101906200146e919062001c24565b8110156200160c57600080836001600160a01b03166357ac94f08c856040518363ffffffff1660e01b8152600401620014a992919062001e00565b604080518083038186803b158015620014c157600080fd5b505afa158015620014d6573d6000803e3d6000fd5b505050506040513d601f19601f82011682018060405250810190620014fc919062001bd5565b60408051600481526024810182526020810180516001600160e01b03166001600160e01b03198f1617905290519294509092506060916001600160a01b03851691620015489162001daa565b600060405180830381855afa9150503d806000811462001585576040519150601f19603f3d011682016040523d82523d6000602084013e6200158a565b606091505b509150506200159862001a63565b6040518060800160405280876001600160a01b03168152602001848152602001838152602001856001600160a01b0316815250905080898981518110620015db57fe5b6020908102919091010152620015f988600163ffffffff6200186a16565b97505060019093019250620013f9915050565b50506001016200139c565b509095945050505050565b6200162c6200176b565b6001600160a01b03166200163f62001022565b6001600160a01b031614620016685760405162461bcd60e51b81526004016200042390620021fb565b6001600160a01b038116620016915760405162461bcd60e51b8152600401620004239062001f4f565b600080546040516001600160a01b03808516939216917f8be0079c531659141344cd1fd0a4f28419497f9722a3daafe3b4186f6b6457e091a3600080546001600160a01b0319166001600160a01b0392909216919091179055565b6003546001600160a01b031615620017185760405162461bcd60e51b8152600401620004239062002131565b600380546001600160a01b03191633179055565b600454600654600754600854600954600a54600b54600c54969795969495939492939192909167ffffffffffffffff821691600160401b900460ff1690565b3390565b600082821115620017945760405162461bcd60e51b815260040162000423906200203b565b50900390565b620017f48363a9059cbb60e01b8484604051602401620017bc92919062001e00565b60408051601f198184030181529190526020810180516001600160e01b03166001600160e01b03199093169290921790915262001892565b505050565b6000826200180a57506000620003d7565b828202828482816200181857fe5b0414620018395760405162461bcd60e51b81526004016200042390620021ba565b9392505050565b62001864846323b872dd60e01b858585604051602401620017bc9392919062001ddc565b50505050565b600082820183811015620018395760405162461bcd60e51b8152600401620004239062001fd7565b6060620018e9826040518060400160405280602081526020017f5361666545524332303a206c6f772d6c6576656c2063616c6c206661696c6564815250856001600160a01b0316620019299092919063ffffffff16565b805190915015620017f457808060200190518101906200190a919062001c05565b620017f45760405162461bcd60e51b8152600401620004239062002296565b60606200193a848460008562001942565b949350505050565b606082471015620019675760405162461bcd60e51b8152600401620004239062002072565b620019728562001a11565b620019915760405162461bcd60e51b8152600401620004239062002230565b60006060866001600160a01b03168587604051620019b0919062001daa565b60006040518083038185875af1925050503d8060008114620019ef576040519150601f19603f3d011682016040523d82523d6000602084013e620019f4565b606091505b509150915062001a0682828662001a17565b979650505050505050565b3b151590565b6060831562001a2857508162001839565b82511562001a395782518084602001fd5b8160405162461bcd60e51b815260040162000423919062001f03565b611d88806200240e83390190565b604051806080016040528060006001600160a01b03168152602001600081526020016060815260200160006001600160a01b031681525090565b60008083601f84011262001aaf578182fd5b50813567ffffffffffffffff81111562001ac7578182fd5b60208301915083602082850101111562001ae057600080fd5b9250929050565b60006020828403121562001af9578081fd5b81356200183981620023e5565b60006020828403121562001b18578081fd5b81516200183981620023e5565b6000806040838503121562001b38578081fd5b823562001b4581620023e5565b9150602083013562001b5781620023e5565b809150509250929050565b60008060006060848603121562001b77578081fd5b833562001b8481620023e5565b9250602084013562001b9681620023e5565b929592945050506040919091013590565b6000806040838503121562001bba578182fd5b823562001bc781620023e5565b946020939093013593505050565b6000806040838503121562001be8578182fd5b825162001bf581620023e5565b6020939093015192949293505050565b60006020828403121562001c17578081fd5b81516200183981620023fe565b60006020828403121562001c36578081fd5b5051919050565b6000806000806040858703121562001c53578081fd5b843567ffffffffffffffff8082111562001c6b578283fd5b62001c798883890162001a9d565b9096509450602087013591508082111562001c92578283fd5b5062001ca18782880162001a9d565b95989497509550505050565b60006020828403121562001cbf578081fd5b5035919050565b60008060008060008060008060006101208a8c03121562001ce5578485fd5b8935985060208a0135975060408a0135965060608a0135955060808a0135945060a08a0135935060c08a0135925060e08a013567ffffffffffffffff8116811462001d2e578283fd5b91506101008a013562001d4181620023fe565b809150509295985092959850929598565b60008284528282602086013780602084860101526020601f19601f85011685010190509392505050565b6000815180845262001d96816020860160208601620023b6565b601f01601f19169290920160200192915050565b6000825162001dbe818460208701620023b6565b9190910192915050565b6001600160a01b0391909116815260200190565b6001600160a01b039384168152919092166020820152604081019190915260600190565b6001600160a01b03929092168252602082015260400190565b60208082528251828201819052600091906040908185019080840286018301878501865b8381101562001ea857888303603f19018552815180516001600160a01b0390811685528882015189860152878201516080898701819052919062001e848388018262001d7c565b60609485015190921696909301959095525050938601939086019060010162001e3d565b509098975050505050505050565b901515815260200190565b9182526001600160a01b0316602082015260400190565b60006040825262001eee60408301868862001d52565b828103602084015262001a0681858762001d52565b60006020825262001839602083018462001d7c565b60208082526018908201527f4f6e6c7920666f72207265676973746572656420534c41730000000000000000604082015260600190565b60208082526026908201527f4f776e61626c653a206e6577206f776e657220697320746865207a65726f206160408201526564647265737360d01b606082015260800190565b60208082526022908201527f506572696f64207265776172647320616c726561647920646973747269627574604082015261195960f21b606082015260800190565b6020808252601b908201527f536166654d6174683a206164646974696f6e206f766572666c6f770000000000604082015260600190565b602080825260139082015272189d5c9b881c1c9bd8d95cdcc819985a5b1959606a1b604082015260600190565b6020808252601e908201527f536166654d6174683a207375627472616374696f6e206f766572666c6f770000604082015260600190565b60208082526026908201527f416464726573733a20696e73756666696369656e742062616c616e636520666f6040820152651c8818d85b1b60d21b606082015260800190565b6020808252602c908201527f5374616b696e6720706172616d65746572732073686f756c64206d617463682060408201526b37b71039bab6b6b0ba34b7b760a11b606082015260800190565b6020808252601390820152721d1bdad95b88185b1c9958591e481859191959606a1b604082015260600190565b60208082526028908201527f534c41526567697374727920616464726573732068617320616c7265616479206040820152671899595b881cd95d60c21b606082015260800190565b60208082526021908201527f43616e206f6e6c792062652063616c6c656420627920534c41526567697374726040820152607960f81b606082015260800190565b60208082526021908201527f536166654d6174683a206d756c7469706c69636174696f6e206f766572666c6f6040820152607760f81b606082015260800190565b6020808252818101527f4f776e61626c653a2063616c6c6572206973206e6f7420746865206f776e6572604082015260600190565b6020808252601d908201527f416464726573733a2063616c6c20746f206e6f6e2d636f6e7472616374000000604082015260600190565b6020808252601590820152746c6f636b65642076616c756520697320656d70747960581b604082015260600190565b6020808252602a908201527f5361666545524332303a204552433230206f7065726174696f6e20646964206e6040820152691bdd081cdd58d8d9595960b21b606082015260800190565b6020808252601f908201527f5265656e7472616e637947756172643a207265656e7472616e742063616c6c00604082015260600190565b90815260200190565b93845260208401929092526040830152606082015260800190565b968752602087019590955260408601939093526060850191909152608084015260a083015260c082015260e00190565b988952602089019790975260408801959095526060870193909352608086019190915260a085015260c084015267ffffffffffffffff1660e083015215156101008201526101200190565b60005b83811015620023d3578181015183820152602001620023b9565b83811115620018645750506000910152565b6001600160a01b0381168114620023fb57600080fd5b50565b8015158114620023fb57600080fdfe60806040523480156200001157600080fd5b5060405162001d8838038062001d88833981810160405260408110156200003757600080fd5b81019080805160405193929190846401000000008211156200005857600080fd5b9083019060208201858111156200006e57600080fd5b82516401000000008111828201881017156200008957600080fd5b82525081516020918201929091019080838360005b83811015620000b85781810151838201526020016200009e565b50505050905090810190601f168015620000e65780820380516001836020036101000a031916815260200191505b50604052602001805160405193929190846401000000008211156200010a57600080fd5b9083019060208201858111156200012057600080fd5b82516401000000008111828201881017156200013b57600080fd5b82525081516020918201929091019080838360005b838110156200016a57818101518382015260200162000150565b50505050905090810190601f168015620001985780820380516001836020036101000a031916815260200191505b50604052505082518391508290620001b8906004906020850190620003be565b508051620001ce906005906020840190620003be565b50506006805461ff001960ff19909116601217169055506200020d6000620001fe6001600160e01b036200028516565b6001600160e01b036200028a16565b604080516a4d494e5445525f524f4c4560a81b8152905190819003600b0190206200024590620001fe6001600160e01b036200028516565b604080516a5041555345525f524f4c4560a81b8152905190819003600b0190206200027d90620001fe6001600160e01b036200028516565b505062000460565b335b90565b6200029f82826001600160e01b03620002a316565b5050565b600082815260208181526040909120620002c89183906200139462000325821b17901c565b156200029f57620002e16001600160e01b036200028516565b6001600160a01b0316816001600160a01b0316837f2f8788117e7eff1d82e926ec794901d17c78024a50270940304540a733656f0d60405160405180910390a45050565b600062000345836001600160a01b0384166001600160e01b036200034e16565b90505b92915050565b60006200036583836001600160e01b03620003a616565b6200039d5750815460018181018455600084815260208082209093018490558454848252828601909352604090209190915562000348565b50600062000348565b60009081526001919091016020526040902054151590565b828054600181600116156101000203166002900490600052602060002090601f016020900481019282601f106200040157805160ff191683800117855562000431565b8280016001018555821562000431579182015b828111156200043157825182559160200191906001019062000414565b506200043f92915062000443565b5090565b6200028791905b808211156200043f57600081556001016200044a565b61191880620004706000396000f3fe608060405234801561001057600080fd5b50600436106101a95760003560e01c806370a08231116100f9578063a457c2d711610097578063d539139311610071578063d53913931461051f578063d547741f14610527578063dd62ed3e14610553578063e63ab1e914610581576101a9565b8063a457c2d7146104aa578063a9059cbb146104d6578063ca15c87314610502576101a9565b80639010d07c116100d35780639010d07c1461042f57806391d148541461046e57806395d89b411461049a578063a217fddf146104a2576101a9565b806370a08231146103d557806379cc6790146103fb5780638456cb5914610427576101a9565b8063313ce567116101665780633f4ba83a116101405780633f4ba83a1461037c57806340c10f191461038457806342966c68146103b05780635c975abb146103cd576101a9565b8063313ce5671461030657806336568abe146103245780633950935114610350576101a9565b806306fdde03146101ae578063095ea7b31461022b57806318160ddd1461026b57806323b872dd14610285578063248a9ca3146102bb5780632f2ff15d146102d8575b600080fd5b6101b6610589565b6040805160208082528351818301528351919283929083019185019080838360005b838110156101f05781810151838201526020016101d8565b50505050905090810190601f16801561021d5780820380516001836020036101000a031916815260200191505b509250505060405180910390f35b6102576004803603604081101561024157600080fd5b506001600160a01b03813516906020013561061f565b604080519115158252519081900360200190f35b61027361063d565b60408051918252519081900360200190f35b6102576004803603606081101561029b57600080fd5b506001600160a01b03813581169160208101359091169060400135610643565b610273600480360360208110156102d157600080fd5b50356106d0565b610304600480360360408110156102ee57600080fd5b50803590602001356001600160a01b03166106e5565b005b61030e610751565b6040805160ff9092168252519081900360200190f35b6103046004803603604081101561033a57600080fd5b50803590602001356001600160a01b031661075a565b6102576004803603604081101561036657600080fd5b506001600160a01b0381351690602001356107bb565b61030461080f565b6103046004803603604081101561039a57600080fd5b506001600160a01b038135169060200135610880565b610304600480360360208110156103c657600080fd5b50356108f1565b610257610905565b610273600480360360208110156103eb57600080fd5b50356001600160a01b0316610913565b6103046004803603604081101561041157600080fd5b506001600160a01b03813516906020013561092e565b61030461098e565b6104526004803603604081101561044557600080fd5b50803590602001356109fd565b604080516001600160a01b039092168252519081900360200190f35b6102576004803603604081101561048457600080fd5b50803590602001356001600160a01b0316610a22565b6101b6610a40565b610273610aa1565b610257600480360360408110156104c057600080fd5b506001600160a01b038135169060200135610aa6565b610257600480360360408110156104ec57600080fd5b506001600160a01b038135169060200135610b14565b6102736004803603602081101561051857600080fd5b5035610b28565b610273610b3f565b6103046004803603604081101561053d57600080fd5b50803590602001356001600160a01b0316610b62565b6102736004803603604081101561056957600080fd5b506001600160a01b0381358116916020013516610bbb565b610273610be6565b60048054604080516020601f60026000196101006001881615020190951694909404938401819004810282018101909252828152606093909290918301828280156106155780601f106105ea57610100808354040283529160200191610615565b820191906000526020600020905b8154815290600101906020018083116105f857829003601f168201915b5050505050905090565b600061063361062c610c09565b8484610c0d565b5060015b92915050565b60035490565b6000610650848484610cf9565b6106c68461065c610c09565b6106c185604051806060016040528060288152602001611742602891396001600160a01b038a1660009081526002602052604081209061069a610c09565b6001600160a01b03168152602081019190915260400160002054919063ffffffff610e6216565b610c0d565b5060019392505050565b60009081526020819052604090206002015490565b60008281526020819052604090206002015461070890610703610c09565b610a22565b6107435760405162461bcd60e51b815260040180806020018281038252602f815260200180611640602f913960400191505060405180910390fd5b61074d8282610ef9565b5050565b60065460ff1690565b610762610c09565b6001600160a01b0316816001600160a01b0316146107b15760405162461bcd60e51b815260040180806020018281038252602f81526020018061188a602f913960400191505060405180910390fd5b61074d8282610f68565b60006106336107c8610c09565b846106c185600260006107d9610c09565b6001600160a01b03908116825260208083019390935260409182016000908120918c16815292529020549063ffffffff610fd716565b604080516a5041555345525f524f4c4560a81b8152905190819003600b01902061083b90610703610c09565b6108765760405162461bcd60e51b81526004018080602001828103825260398152602001806116916039913960400191505060405180910390fd5b61087e611031565b565b604080516a4d494e5445525f524f4c4560a81b8152905190819003600b0190206108ac90610703610c09565b6108e75760405162461bcd60e51b815260040180806020018281038252603681526020018061176a6036913960400191505060405180910390fd5b61074d82826110d2565b6109026108fc610c09565b826111d0565b50565b600654610100900460ff1690565b6001600160a01b031660009081526001602052604090205490565b600061096b826040518060600160405280602481526020016117a06024913961095e86610959610c09565b610bbb565b919063ffffffff610e6216565b905061097f83610979610c09565b83610c0d565b61098983836111d0565b505050565b604080516a5041555345525f524f4c4560a81b8152905190819003600b0190206109ba90610703610c09565b6109f55760405162461bcd60e51b815260040180806020018281038252603781526020018061182e6037913960400191505060405180910390fd5b61087e6112d8565b6000828152602081905260408120610a1b908363ffffffff61135d16565b9392505050565b6000828152602081905260408120610a1b908363ffffffff61136916565b60058054604080516020601f60026000196101006001881615020190951694909404938401819004810282018101909252828152606093909290918301828280156106155780601f106105ea57610100808354040283529160200191610615565b600081565b6000610633610ab3610c09565b846106c1856040518060600160405280602581526020016118656025913960026000610add610c09565b6001600160a01b03908116825260208083019390935260409182016000908120918d1681529252902054919063ffffffff610e6216565b6000610633610b21610c09565b8484610cf9565b60008181526020819052604081206106379061137e565b604080516a4d494e5445525f524f4c4560a81b8152905190819003600b01902081565b600082815260208190526040902060020154610b8090610703610c09565b6107b15760405162461bcd60e51b81526004018080602001828103825260308152602001806117126030913960400191505060405180910390fd5b6001600160a01b03918216600090815260026020908152604080832093909416825291909152205490565b604080516a5041555345525f524f4c4560a81b8152905190819003600b01902081565b3390565b6001600160a01b038316610c525760405162461bcd60e51b815260040180806020018281038252602481526020018061180a6024913960400191505060405180910390fd5b6001600160a01b038216610c975760405162461bcd60e51b81526004018080602001828103825260228152602001806116ca6022913960400191505060405180910390fd5b6001600160a01b03808416600081815260026020908152604080832094871680845294825291829020859055815185815291517f8c5be1e5ebec7d5bd14f71427d1e84f3dd0314c0f7b2291e5b200ac8c7c3b9259281900390910190a3505050565b6001600160a01b038316610d3e5760405162461bcd60e51b81526004018080602001828103825260258152602001806117e56025913960400191505060405180910390fd5b6001600160a01b038216610d835760405162461bcd60e51b815260040180806020018281038252602381526020018061161d6023913960400191505060405180910390fd5b610d8e838383611389565b610dd1816040518060600160405280602681526020016116ec602691396001600160a01b038616600090815260016020526040902054919063ffffffff610e6216565b6001600160a01b038085166000908152600160205260408082209390935590841681522054610e06908263ffffffff610fd716565b6001600160a01b0380841660008181526001602090815260409182902094909455805185815290519193928716927fddf252ad1be2c89b69c2b068fc378daa952ba7f163c4a11628f55a4df523b3ef92918290030190a3505050565b60008184841115610ef15760405162461bcd60e51b81526004018080602001828103825283818151815260200191508051906020019080838360005b83811015610eb6578181015183820152602001610e9e565b50505050905090810190601f168015610ee35780820380516001836020036101000a031916815260200191505b509250505060405180910390fd5b505050900390565b6000828152602081905260409020610f17908263ffffffff61139416565b1561074d57610f24610c09565b6001600160a01b0316816001600160a01b0316837f2f8788117e7eff1d82e926ec794901d17c78024a50270940304540a733656f0d60405160405180910390a45050565b6000828152602081905260409020610f86908263ffffffff6113a916565b1561074d57610f93610c09565b6001600160a01b0316816001600160a01b0316837ff6391f5c32d9c69d2a47ea670b442974b53935d1edc7fd64eb21e047a839171b60405160405180910390a45050565b600082820183811015610a1b576040805162461bcd60e51b815260206004820152601b60248201527f536166654d6174683a206164646974696f6e206f766572666c6f770000000000604482015290519081900360640190fd5b611039610905565b611081576040805162461bcd60e51b815260206004820152601460248201527314185d5cd8589b194e881b9bdd081c185d5cd95960621b604482015290519081900360640190fd5b6006805461ff00191690557f5db9ee0a495bf2e6ff9c91a7834c1ba4fdd244a5e8aa4e537bd38aeae4b073aa6110b5610c09565b604080516001600160a01b039092168252519081900360200190a1565b6001600160a01b03821661112d576040805162461bcd60e51b815260206004820152601f60248201527f45524332303a206d696e7420746f20746865207a65726f206164647265737300604482015290519081900360640190fd5b61113960008383611389565b60035461114c908263ffffffff610fd716565b6003556001600160a01b038216600090815260016020526040902054611178908263ffffffff610fd716565b6001600160a01b03831660008181526001602090815260408083209490945583518581529351929391927fddf252ad1be2c89b69c2b068fc378daa952ba7f163c4a11628f55a4df523b3ef9281900390910190a35050565b6001600160a01b0382166112155760405162461bcd60e51b81526004018080602001828103825260218152602001806117c46021913960400191505060405180910390fd5b61122182600083611389565b6112648160405180606001604052806022815260200161166f602291396001600160a01b038516600090815260016020526040902054919063ffffffff610e6216565b6001600160a01b038316600090815260016020526040902055600354611290908263ffffffff6113be16565b6003556040805182815290516000916001600160a01b038516917fddf252ad1be2c89b69c2b068fc378daa952ba7f163c4a11628f55a4df523b3ef9181900360200190a35050565b6112e0610905565b15611325576040805162461bcd60e51b815260206004820152601060248201526f14185d5cd8589b194e881c185d5cd95960821b604482015290519081900360640190fd5b6006805461ff0019166101001790557f62e78cea01bee320cd4e420270b5ea74000d11b0c9f74754ebdbfc544b05a2586110b5610c09565b6000610a1b838361141b565b6000610a1b836001600160a01b03841661147f565b600061063782611497565b61098983838361149b565b6000610a1b836001600160a01b0384166114ea565b6000610a1b836001600160a01b038416611534565b600082821115611415576040805162461bcd60e51b815260206004820152601e60248201527f536166654d6174683a207375627472616374696f6e206f766572666c6f770000604482015290519081900360640190fd5b50900390565b8154600090821061145d5760405162461bcd60e51b81526004018080602001828103825260228152602001806115fb6022913960400191505060405180910390fd5b82600001828154811061146c57fe5b9060005260206000200154905092915050565b60009081526001919091016020526040902054151590565b5490565b6114a6838383610989565b6114ae610905565b156109895760405162461bcd60e51b815260040180806020018281038252602a8152602001806118b9602a913960400191505060405180910390fd5b60006114f6838361147f565b61152c57508154600181810184556000848152602080822090930184905584548482528286019093526040902091909155610637565b506000610637565b600081815260018301602052604081205480156115f0578354600019808301919081019060009087908390811061156757fe5b906000526020600020015490508087600001848154811061158457fe5b6000918252602080832090910192909255828152600189810190925260409020908401905586548790806115b457fe5b60019003818190600052602060002001600090559055866001016000878152602001908152602001600020600090556001945050505050610637565b600091505061063756fe456e756d657261626c655365743a20696e646578206f7574206f6620626f756e647345524332303a207472616e7366657220746f20746865207a65726f2061646472657373416363657373436f6e74726f6c3a2073656e646572206d75737420626520616e2061646d696e20746f206772616e7445524332303a206275726e20616d6f756e7420657863656564732062616c616e636545524332305072657365744d696e7465725061757365723a206d75737420686176652070617573657220726f6c6520746f20756e706175736545524332303a20617070726f766520746f20746865207a65726f206164647265737345524332303a207472616e7366657220616d6f756e7420657863656564732062616c616e6365416363657373436f6e74726f6c3a2073656e646572206d75737420626520616e2061646d696e20746f207265766f6b6545524332303a207472616e7366657220616d6f756e74206578636565647320616c6c6f77616e636545524332305072657365744d696e7465725061757365723a206d7573742068617665206d696e74657220726f6c6520746f206d696e7445524332303a206275726e20616d6f756e74206578636565647320616c6c6f77616e636545524332303a206275726e2066726f6d20746865207a65726f206164647265737345524332303a207472616e736665722066726f6d20746865207a65726f206164647265737345524332303a20617070726f76652066726f6d20746865207a65726f206164647265737345524332305072657365744d696e7465725061757365723a206d75737420686176652070617573657220726f6c6520746f20706175736545524332303a2064656372656173656420616c6c6f77616e63652062656c6f77207a65726f416363657373436f6e74726f6c3a2063616e206f6e6c792072656e6f756e636520726f6c657320666f722073656c6645524332305061757361626c653a20746f6b656e207472616e73666572207768696c6520706175736564a2646970667358221220a7940aabb750dffcc33b85707513ba5d3f07c8757d379a26047ffd324dcfac7f64736f6c63430006060033a2646970667358221220c8f51cf250b6bc0731a34e575fb597b7b9eba8eac0521360364a325bba5fa69264736f6c63430006060033",
  "devdoc": {
    "details": "StakeRegistry is a contract to register the staking activity of the platform, along with controlling certain admin privileged parameters",
    "methods": {
      "constructor": {
        "params": {
          "_dslaTokenAddress": "1. DSLA Token"
        }
      },
      "getActivePool(address)": {
        "details": "returns the active pools owned by a user.",
        "params": {
          "_slaOwner": "1. owner of the active pool"
        },
        "returns": {
          "_0": "ActivePool[], array of structs: {SLAAddress,stake,assetName}"
        }
      },
      "owner()": {
        "details": "Returns the address of the current owner."
      },
      "renounceOwnership()": {
        "details": "Leaves the contract without owner. It will not be possible to call `onlyOwner` functions anymore. Can only be called by the current owner.     * NOTE: Renouncing ownership will leave the contract without an owner, thereby removing any functionality that is only available to the owner."
      },
      "setSLARegistry()": {
        "details": "sets the SLARegistry contract address and can only be called once"
      },
      "transferOwnership(address)": {
        "details": "Transfers ownership of the contract to a new account (`newOwner`). Can only be called by the current owner."
      }
    },
    "title": "StakeRegistry"
  },
  "userdoc": {
    "methods": {
      "addAllowedTokens(address)": {
        "notice": "dev add a token to ve allowed for staking param _tokenAddress 1. address of the new allowed token"
      },
      "createDToken(string,string)": {
        "notice": "dev to create dTokens for staking param _name 1. token name param _symbol 2. token symbol"
      },
      "registerStakedSla(address)": {
        "notice": "dev register the sending SLA contract as staked by _owner param _owner 1. SLA contract to stake"
      },
      "slaWasStakedByUser(address,address)": {
        "notice": "dev public view function that returns true if the _owner has staked on _sla param _user 1. address to check param _sla 2. sla to check return bool, true if _sla was staked by _user"
      }
    }
  },
  "storageLayout": {
    "storage": [
      {
        "astId": 4835,
        "contract": "@stacktical/dsla-contracts/contracts/StakeRegistry.sol:StakeRegistry",
        "label": "_owner",
        "offset": 0,
        "slot": "0",
        "type": "t_address"
      },
      {
        "astId": 7232,
        "contract": "@stacktical/dsla-contracts/contracts/StakeRegistry.sol:StakeRegistry",
        "label": "_status",
        "offset": 0,
        "slot": "1",
        "type": "t_uint256"
      },
      {
        "astId": 10216,
        "contract": "@stacktical/dsla-contracts/contracts/StakeRegistry.sol:StakeRegistry",
        "label": "_DSLATokenAddress",
        "offset": 0,
        "slot": "2",
        "type": "t_address"
      },
      {
        "astId": 10218,
        "contract": "@stacktical/dsla-contracts/contracts/StakeRegistry.sol:StakeRegistry",
        "label": "slaRegistry",
        "offset": 0,
        "slot": "3",
        "type": "t_contract(ISLARegistry)12742"
      },
      {
        "astId": 10221,
        "contract": "@stacktical/dsla-contracts/contracts/StakeRegistry.sol:StakeRegistry",
        "label": "_DSLAburnRate",
        "offset": 0,
        "slot": "4",
        "type": "t_uint256"
      },
      {
        "astId": 10225,
        "contract": "@stacktical/dsla-contracts/contracts/StakeRegistry.sol:StakeRegistry",
        "label": "slaLockedValue",
        "offset": 0,
        "slot": "5",
        "type": "t_mapping(t_address,t_struct(LockedValue)10214_storage)"
      },
      {
        "astId": 10228,
        "contract": "@stacktical/dsla-contracts/contracts/StakeRegistry.sol:StakeRegistry",
        "label": "_dslaDepositByPeriod",
        "offset": 0,
        "slot": "6",
        "type": "t_uint256"
      },
      {
        "astId": 10231,
        "contract": "@stacktical/dsla-contracts/contracts/StakeRegistry.sol:StakeRegistry",
        "label": "_dslaPlatformReward",
        "offset": 0,
        "slot": "7",
        "type": "t_uint256"
      },
      {
        "astId": 10234,
        "contract": "@stacktical/dsla-contracts/contracts/StakeRegistry.sol:StakeRegistry",
        "label": "_dslaMessengerReward",
        "offset": 0,
        "slot": "8",
        "type": "t_uint256"
      },
      {
        "astId": 10237,
        "contract": "@stacktical/dsla-contracts/contracts/StakeRegistry.sol:StakeRegistry",
        "label": "_dslaUserReward",
        "offset": 0,
        "slot": "9",
        "type": "t_uint256"
      },
      {
        "astId": 10240,
        "contract": "@stacktical/dsla-contracts/contracts/StakeRegistry.sol:StakeRegistry",
        "label": "_dslaBurnedByVerification",
        "offset": 0,
        "slot": "10",
        "type": "t_uint256"
      },
      {
        "astId": 10243,
        "contract": "@stacktical/dsla-contracts/contracts/StakeRegistry.sol:StakeRegistry",
        "label": "_maxTokenLength",
        "offset": 0,
        "slot": "11",
        "type": "t_uint256"
      },
      {
        "astId": 10246,
        "contract": "@stacktical/dsla-contracts/contracts/StakeRegistry.sol:StakeRegistry",
        "label": "_maxLeverage",
        "offset": 0,
        "slot": "12",
        "type": "t_uint64"
      },
      {
        "astId": 10249,
        "contract": "@stacktical/dsla-contracts/contracts/StakeRegistry.sol:StakeRegistry",
        "label": "_burnDSLA",
        "offset": 8,
        "slot": "12",
        "type": "t_bool"
      },
      {
        "astId": 10252,
        "contract": "@stacktical/dsla-contracts/contracts/StakeRegistry.sol:StakeRegistry",
        "label": "allowedTokens",
        "offset": 0,
        "slot": "13",
        "type": "t_array(t_address)dyn_storage"
      },
      {
        "astId": 10257,
        "contract": "@stacktical/dsla-contracts/contracts/StakeRegistry.sol:StakeRegistry",
        "label": "userStakedSlas",
        "offset": 0,
        "slot": "14",
        "type": "t_mapping(t_address,t_array(t_contract(SLA)9279)dyn_storage)"
      }
    ],
    "types": {
      "t_address": {
        "encoding": "inplace",
        "label": "address",
        "numberOfBytes": "20"
      },
      "t_array(t_address)dyn_storage": {
        "base": "t_address",
        "encoding": "dynamic_array",
        "label": "address[]",
        "numberOfBytes": "32"
      },
      "t_array(t_contract(SLA)9279)dyn_storage": {
        "base": "t_contract(SLA)9279",
        "encoding": "dynamic_array",
        "label": "contract SLA[]",
        "numberOfBytes": "32"
      },
      "t_bool": {
        "encoding": "inplace",
        "label": "bool",
        "numberOfBytes": "1"
      },
      "t_contract(ISLARegistry)12742": {
        "encoding": "inplace",
        "label": "contract ISLARegistry",
        "numberOfBytes": "20"
      },
      "t_contract(SLA)9279": {
        "encoding": "inplace",
        "label": "contract SLA",
        "numberOfBytes": "20"
      },
      "t_mapping(t_address,t_array(t_contract(SLA)9279)dyn_storage)": {
        "encoding": "mapping",
        "key": "t_address",
        "label": "mapping(address => contract SLA[])",
        "numberOfBytes": "32",
        "value": "t_array(t_contract(SLA)9279)dyn_storage"
      },
      "t_mapping(t_address,t_struct(LockedValue)10214_storage)": {
        "encoding": "mapping",
        "key": "t_address",
        "label": "mapping(address => struct StakeRegistry.LockedValue)",
        "numberOfBytes": "32",
        "value": "t_struct(LockedValue)10214_storage"
      },
      "t_mapping(t_uint256,t_bool)": {
        "encoding": "mapping",
        "key": "t_uint256",
        "label": "mapping(uint256 => bool)",
        "numberOfBytes": "32",
        "value": "t_bool"
      },
      "t_struct(LockedValue)10214_storage": {
        "encoding": "inplace",
        "label": "struct StakeRegistry.LockedValue",
        "members": [
          {
            "astId": 10197,
            "contract": "@stacktical/dsla-contracts/contracts/StakeRegistry.sol:StakeRegistry",
            "label": "lockedValue",
            "offset": 0,
            "slot": "0",
            "type": "t_uint256"
          },
          {
            "astId": 10199,
            "contract": "@stacktical/dsla-contracts/contracts/StakeRegistry.sol:StakeRegistry",
            "label": "slaPeriodIdsLength",
            "offset": 0,
            "slot": "1",
            "type": "t_uint256"
          },
          {
            "astId": 10201,
            "contract": "@stacktical/dsla-contracts/contracts/StakeRegistry.sol:StakeRegistry",
            "label": "dslaDepositByPeriod",
            "offset": 0,
            "slot": "2",
            "type": "t_uint256"
          },
          {
            "astId": 10203,
            "contract": "@stacktical/dsla-contracts/contracts/StakeRegistry.sol:StakeRegistry",
            "label": "dslaPlatformReward",
            "offset": 0,
            "slot": "3",
            "type": "t_uint256"
          },
          {
            "astId": 10205,
            "contract": "@stacktical/dsla-contracts/contracts/StakeRegistry.sol:StakeRegistry",
            "label": "dslaMessengerReward",
            "offset": 0,
            "slot": "4",
            "type": "t_uint256"
          },
          {
            "astId": 10207,
            "contract": "@stacktical/dsla-contracts/contracts/StakeRegistry.sol:StakeRegistry",
            "label": "dslaUserReward",
            "offset": 0,
            "slot": "5",
            "type": "t_uint256"
          },
          {
            "astId": 10209,
            "contract": "@stacktical/dsla-contracts/contracts/StakeRegistry.sol:StakeRegistry",
            "label": "dslaBurnedByVerification",
            "offset": 0,
            "slot": "6",
            "type": "t_uint256"
          },
          {
            "astId": 10213,
            "contract": "@stacktical/dsla-contracts/contracts/StakeRegistry.sol:StakeRegistry",
            "label": "verifiedPeriods",
            "offset": 0,
            "slot": "7",
            "type": "t_mapping(t_uint256,t_bool)"
          }
        ],
        "numberOfBytes": "256"
      },
      "t_uint256": {
        "encoding": "inplace",
        "label": "uint256",
        "numberOfBytes": "32"
      },
      "t_uint64": {
        "encoding": "inplace",
        "label": "uint64",
        "numberOfBytes": "8"
      }
    }
  }
}