{
  "_format": "hh-sol-artifact-1",
  "contractName": "SEMessenger",
  "sourceName": "contracts/dsla-use-cases/staking-efficiency/SEMessenger.sol",
  "abi": [
    {
      "inputs": [
        {
          "internalType": "address",
          "name": "_messengerChainlinkOracle",
          "type": "address"
        },
        {
          "internalType": "address",
          "name": "_messengerChainlinkToken",
          "type": "address"
        },
        {
          "internalType": "bytes32",
          "name": "_messengerJobId",
          "type": "bytes32"
        },
        {
          "internalType": "uint256",
          "name": "_feeMultiplier",
          "type": "uint256"
        },
        {
          "internalType": "contract PeriodRegistry",
          "name": "_periodRegistry",
          "type": "address"
        }
      ],
      "stateMutability": "nonpayable",
      "type": "constructor"
    },
    {
      "anonymous": false,
      "inputs": [
        {
          "indexed": true,
          "internalType": "bytes32",
          "name": "id",
          "type": "bytes32"
        }
      ],
      "name": "ChainlinkCancelled",
      "type": "event"
    },
    {
      "anonymous": false,
      "inputs": [
        {
          "indexed": true,
          "internalType": "bytes32",
          "name": "id",
          "type": "bytes32"
        }
      ],
      "name": "ChainlinkFulfilled",
      "type": "event"
    },
    {
      "anonymous": false,
      "inputs": [
        {
          "indexed": true,
          "internalType": "bytes32",
          "name": "id",
          "type": "bytes32"
        }
      ],
      "name": "ChainlinkRequested",
      "type": "event"
    },
    {
      "anonymous": false,
      "inputs": [
        {
          "indexed": true,
          "internalType": "address",
          "name": "owner",
          "type": "address"
        },
        {
          "indexed": false,
          "internalType": "bytes32",
          "name": "jobId",
          "type": "bytes32"
        },
        {
          "indexed": false,
          "internalType": "uint256",
          "name": "fee",
          "type": "uint256"
        }
      ],
      "name": "JobIdModified",
      "type": "event"
    },
    {
      "anonymous": false,
      "inputs": [
        {
          "indexed": true,
          "internalType": "address",
          "name": "previousOwner",
          "type": "address"
        },
        {
          "indexed": true,
          "internalType": "address",
          "name": "newOwner",
          "type": "address"
        }
      ],
      "name": "OwnershipTransferred",
      "type": "event"
    },
    {
      "anonymous": false,
      "inputs": [
        {
          "indexed": true,
          "internalType": "address",
          "name": "slaAddress",
          "type": "address"
        },
        {
          "indexed": false,
          "internalType": "uint256",
          "name": "periodId",
          "type": "uint256"
        },
        {
          "indexed": true,
          "internalType": "bytes32",
          "name": "requestId",
          "type": "bytes32"
        },
        {
          "indexed": false,
          "internalType": "bytes32",
          "name": "chainlinkResponse",
          "type": "bytes32"
        }
      ],
      "name": "SLIReceived",
      "type": "event"
    },
    {
      "anonymous": false,
      "inputs": [
        {
          "indexed": true,
          "internalType": "address",
          "name": "caller",
          "type": "address"
        },
        {
          "indexed": false,
          "internalType": "uint256",
          "name": "requestsCounter",
          "type": "uint256"
        },
        {
          "indexed": false,
          "internalType": "bytes32",
          "name": "requestId",
          "type": "bytes32"
        }
      ],
      "name": "SLIRequested",
      "type": "event"
    },
    {
      "inputs": [],
      "name": "fee",
      "outputs": [
        {
          "internalType": "uint256",
          "name": "",
          "type": "uint256"
        }
      ],
      "stateMutability": "view",
      "type": "function"
    },
    {
      "inputs": [
        {
          "internalType": "bytes32",
          "name": "_requestId",
          "type": "bytes32"
        },
        {
          "internalType": "uint256",
          "name": "_chainlinkResponseUint256",
          "type": "uint256"
        }
      ],
      "name": "fulfillSLI",
      "outputs": [],
      "stateMutability": "nonpayable",
      "type": "function"
    },
    {
      "inputs": [],
      "name": "fulfillsCounter",
      "outputs": [
        {
          "internalType": "uint256",
          "name": "",
          "type": "uint256"
        }
      ],
      "stateMutability": "view",
      "type": "function"
    },
    {
      "inputs": [],
      "name": "jobId",
      "outputs": [
        {
          "internalType": "bytes32",
          "name": "",
          "type": "bytes32"
        }
      ],
      "stateMutability": "view",
      "type": "function"
    },
    {
      "inputs": [],
      "name": "messengerPrecision",
      "outputs": [
        {
          "internalType": "uint256",
          "name": "",
          "type": "uint256"
        }
      ],
      "stateMutability": "view",
      "type": "function"
    },
    {
      "inputs": [],
      "name": "oracle",
      "outputs": [
        {
          "internalType": "address",
          "name": "",
          "type": "address"
        }
      ],
      "stateMutability": "view",
      "type": "function"
    },
    {
      "inputs": [],
      "name": "owner",
      "outputs": [
        {
          "internalType": "address",
          "name": "",
          "type": "address"
        }
      ],
      "stateMutability": "view",
      "type": "function"
    },
    {
      "inputs": [
        {
          "internalType": "bytes32",
          "name": "sliData",
          "type": "bytes32"
        }
      ],
      "name": "parseSLIData",
      "outputs": [
        {
          "internalType": "uint256",
          "name": "",
          "type": "uint256"
        },
        {
          "internalType": "uint256",
          "name": "",
          "type": "uint256"
        }
      ],
      "stateMutability": "pure",
      "type": "function"
    },
    {
      "inputs": [],
      "name": "renounceOwnership",
      "outputs": [],
      "stateMutability": "nonpayable",
      "type": "function"
    },
    {
      "inputs": [
        {
          "internalType": "bytes32",
          "name": "",
          "type": "bytes32"
        }
      ],
      "name": "requestIdToSLIRequest",
      "outputs": [
        {
          "internalType": "address",
          "name": "slaAddress",
          "type": "address"
        },
        {
          "internalType": "uint256",
          "name": "periodId",
          "type": "uint256"
        }
      ],
      "stateMutability": "view",
      "type": "function"
    },
    {
      "inputs": [
        {
          "internalType": "uint256",
          "name": "_periodId",
          "type": "uint256"
        },
        {
          "internalType": "address",
          "name": "_slaAddress",
          "type": "address"
        },
        {
          "internalType": "bool",
          "name": "_messengerOwnerApproval",
          "type": "bool"
        },
        {
          "internalType": "address",
          "name": "_callerAddress",
          "type": "address"
        }
      ],
      "name": "requestSLI",
      "outputs": [],
      "stateMutability": "nonpayable",
      "type": "function"
    },
    {
      "inputs": [
        {
          "internalType": "uint256",
          "name": "",
          "type": "uint256"
        }
      ],
      "name": "requests",
      "outputs": [
        {
          "internalType": "bytes32",
          "name": "",
          "type": "bytes32"
        }
      ],
      "stateMutability": "view",
      "type": "function"
    },
    {
      "inputs": [],
      "name": "requestsCounter",
      "outputs": [
        {
          "internalType": "uint256",
          "name": "",
          "type": "uint256"
        }
      ],
      "stateMutability": "view",
      "type": "function"
    },
    {
      "inputs": [
        {
          "internalType": "bytes32",
          "name": "_newJobId",
          "type": "bytes32"
        },
        {
          "internalType": "uint256",
          "name": "_feeMultiplier",
          "type": "uint256"
        }
      ],
      "name": "setChainlinkJobID",
      "outputs": [],
      "stateMutability": "nonpayable",
      "type": "function"
    },
    {
      "inputs": [],
      "name": "setSLARegistry",
      "outputs": [],
      "stateMutability": "nonpayable",
      "type": "function"
    },
    {
      "inputs": [],
      "name": "slaRegistryAddress",
      "outputs": [
        {
          "internalType": "address",
          "name": "",
          "type": "address"
        }
      ],
      "stateMutability": "view",
      "type": "function"
    },
    {
      "inputs": [
        {
          "internalType": "address",
          "name": "newOwner",
          "type": "address"
        }
      ],
      "name": "transferOwnership",
      "outputs": [],
      "stateMutability": "nonpayable",
      "type": "function"
    }
  ],
  "bytecode": "0x60a060405260016004553480156200001657600080fd5b506040516200203238038062002032833981016040819052620000399162000127565b60006200004e6001600160e01b036200010116565b600680546001600160a01b0319166001600160a01b038316908117909155604051919250906000907f8be0079c531659141344cd1fd0a4f28419497f9722a3daafe3b4186f6b6457e0908290a3506001600755600b839055620000ba846001600160e01b036200010516565b60609490941b6001600160601b03191660805267016345785d8a000002600c555050600f80546001600160a01b0319166001600160a01b03909216919091179055620001a8565b3390565b600280546001600160a01b0319166001600160a01b0392909216919091179055565b600080600080600060a086880312156200013f578081fd5b85516200014c816200018f565b60208701519095506200015f816200018f565b809450506040860151925060608601519150608086015162000181816200018f565b809150509295509295909350565b6001600160a01b0381168114620001a557600080fd5b50565b60805160601c611e67620001cb600039806106945280610a925250611e676000f3fe608060405234801561001057600080fd5b506004361061010b5760003560e01c806397a82192116100a2578063c2939d9711610071578063c2939d97146101f3578063c9b0cb22146101fb578063ddca3f4314610203578063f2fde38b1461020b578063f38815891461021e5761010b565b806397a82192146101a4578063a50c5425146101b7578063ae401eb9146101bf578063bc0bfc00146101e05761010b565b8063715018a6116100de578063715018a6146101795780637dc0d1d01461018157806381d12c58146101895780638da5cb5b1461019c5761010b565b806304e4fc0114610110578063292733bf1461013a578063663c22691461014f5780636e71890d14610164575b600080fd5b61012361011e36600461178e565b610226565b604051610131929190611a6a565b60405180910390f35b61014d6101483660046117a6565b610559565b005b6101576105f4565b6040516101319190611a61565b61016c6105fa565b6040516101319190611978565b61014d610609565b61016c610692565b61015761019736600461178e565b6106b6565b61016c6106d4565b61014d6101b2366004611899565b6106e3565b610157610b8b565b6101d26101cd36600461178e565b610b91565b6040516101319291906119b0565b61014d6101ee3660046117a6565b610bb6565b610157610d9e565b610157610da4565b610157610daa565b61014d61021936600461174b565b610db0565b61014d610e71565b600080606073__$89e48f3f2b1d5dfed70cd34b0db16ca79e$__63ef0b2368856040518263ffffffff1660e01b81526004016102629190611a61565b60006040518083038186803b15801561027a57600080fd5b505af415801561028e573d6000803e3d6000fd5b505050506040513d6000823e601f3d908101601f191682016040526102b691908101906117e6565b805190915060608167ffffffffffffffff811180156102d457600080fd5b506040519080825280601f01601f1916602001820160405280156102ff576020820181803683370190505b50905060608267ffffffffffffffff8111801561031b57600080fd5b506040519080825280601f01601f191660200182016040528015610346576020820181803683370190505b50905060005b8381101561043357600b60fa1b6001600160f81b03191685828151811061036f57fe5b01602001516001600160f81b031916141561042b5760005b818110156103d15785818151811061039b57fe5b602001015160f81c60f81b8482815181106103b257fe5b60200101906001600160f81b031916908160001a905350600101610387565b5060005b6001828603038110156104295785818360010101815181106103f357fe5b602001015160f81c60f81b83828151811061040a57fe5b60200101906001600160f81b031916908160001a9053506001016103d5565b505b60010161034c565b506040516302d06d0560e01b815260009073__$89e48f3f2b1d5dfed70cd34b0db16ca79e$__906302d06d059061046e908690600401611a78565b60206040518083038186803b15801561048657600080fd5b505af415801561049a573d6000803e3d6000fd5b505050506040513d601f19601f820116820180604052508101906104be9190611881565b9050600073__$89e48f3f2b1d5dfed70cd34b0db16ca79e$__6302d06d05846040518263ffffffff1660e01b81526004016104f99190611a78565b60206040518083038186803b15801561051157600080fd5b505af4158015610525573d6000803e3d6000fd5b505050506040513d601f19601f820116820180604052508101906105499190611881565b9197509095505050505050915091565b610561610eae565b6001600160a01b03166105726106d4565b6001600160a01b0316146105a15760405162461bcd60e51b815260040161059890611caa565b60405180910390fd5b600b82905567016345785d8a00008102600c81905560405133917f8e7e22d2820965fa1a8fa3ad76db76127e2f1baaf65f50c4e267f28b2254f7cb916105e8918691611a6a565b60405180910390a25050565b600d5490565b600a546001600160a01b031690565b610611610eae565b6001600160a01b03166106226106d4565b6001600160a01b0316146106485760405162461bcd60e51b815260040161059890611caa565b6006546040516000916001600160a01b0316907f8be0079c531659141344cd1fd0a4f28419497f9722a3daafe3b4186f6b6457e0908390a3600680546001600160a01b0319169055565b7f000000000000000000000000000000000000000000000000000000000000000090565b600981815481106106c357fe5b600091825260209091200154905081565b6006546001600160a01b031690565b600a546001600160a01b0316331461070d5760405162461bcd60e51b815260040161059890611c28565b600260075414156107305760405162461bcd60e51b815260040161059890611da8565b600260075582821561076f5761076a6107476106d4565b30600c54610753610eb2565b6001600160a01b031692919063ffffffff610ec116565b61077f565b61077f8230600c54610753610eb2565b6107876116e5565b600b5461079b9030622f02ff60ea1b610f1f565b9050600080600f60009054906101000a90046001600160a01b03166001600160a01b031663ffa61235856001600160a01b03166346e0fbae6040518163ffffffff1660e01b815260040160206040518083038186803b1580156107fd57600080fd5b505afa158015610811573d6000803e3d6000fd5b505050506040513d601f19601f8201168201806040525081019061083591906117c7565b8a6040518363ffffffff1660e01b8152600401610853929190611a8b565b604080518083038186803b15801561086a57600080fd5b505afa15801561087e573d6000803e3d6000fd5b505050506040513d601f19601f820116820180604052508101906108a291906118eb565b91509150610905604051806040016040528060088152602001676a6f625f7479706560c01b815250604051806040016040528060128152602001717374616b696e675f656666696369656e637960701b81525085610f4c9092919063ffffffff16565b60408051808201825260148152731cdb1857db5bdb9a5d1bdc9a5b99d7dcdd185c9d60621b6020820152905163fc966d4560e01b81526109cc919073__$89e48f3f2b1d5dfed70cd34b0db16ca79e$__9063fc966d459061096a908790600401611a61565b60006040518083038186803b15801561098257600080fd5b505af4158015610996573d6000803e3d6000fd5b505050506040513d6000823e601f3d908101601f191682016040526109be91908101906117e6565b85919063ffffffff610f4c16565b60408051808201825260128152711cdb1857db5bdb9a5d1bdc9a5b99d7d95b9960721b6020820152905163fc966d4560e01b8152610a2f919073__$89e48f3f2b1d5dfed70cd34b0db16ca79e$__9063fc966d459061096a908690600401611a61565b604080518082018252600b81526a736c615f6164647265737360a81b60208201529051635e57966d60e01b8152610a8b919073__$89e48f3f2b1d5dfed70cd34b0db16ca79e$__90635e57966d9061096a908c90600401611978565b6000610aba7f000000000000000000000000000000000000000000000000000000000000000085600c54610f7b565b6009805460018082019092557f6e1540171b6c0c960b71a7020d9f60077f6af931a8bbf590da0223dacf75c7af018290556040805180820182526001600160a01b038c8116825260208083018f81526000878152600890925290849020925183546001600160a01b0319169083161783555191840191909155600d80549093019283905590519293508816917feab5eb77e722078f3fab7eb6a77c74f7001181e1e3a74d51b7b5747ee1b31cb991610b73918590611a6a565b60405180910390a25050600160075550505050505050565b600e5490565b600860205260009081526040902080546001909101546001600160a01b039091169082565b60026007541415610bd95760405162461bcd60e51b815260040161059890611da8565b600260075560008281526005602052604090205482906001600160a01b03163314610c165760405162461bcd60e51b815260040161059890611d16565b60008181526005602052604080822080546001600160a01b03191690555182917f7cc135e0cebb02c3480ae5d74d377283180a2601f8f644edf7987b009316c63a91a281610c6261171a565b506000848152600860209081526040918290208251808401845281546001600160a01b0316808252600190920154928101839052925187927f56514ef6e1ffd0f970ebf32dc181e476384e6e53a8351719040b4030318a933b91610cc891908790611a6a565b60405180910390a3600080610cdc84610226565b90925090506000610cf3838363ffffffff6110ba16565b90506000610d1a82610d0e86620186a063ffffffff6110e816565b9063ffffffff61112216565b85516020870151604051636bd2e21160e11b81529293506001600160a01b039091169163d7a5c42291610d5291859190600401611a6a565b600060405180830381600087803b158015610d6c57600080fd5b505af1158015610d80573d6000803e3d6000fd5b5050600e805460019081019091556007555050505050505050505050565b600b5490565b6103e890565b600c5490565b610db8610eae565b6001600160a01b0316610dc96106d4565b6001600160a01b031614610def5760405162461bcd60e51b815260040161059890611caa565b6001600160a01b038116610e155760405162461bcd60e51b815260040161059890611aa3565b6006546040516001600160a01b038084169216907f8be0079c531659141344cd1fd0a4f28419497f9722a3daafe3b4186f6b6457e090600090a3600680546001600160a01b0319166001600160a01b0392909216919091179055565b600a546001600160a01b031615610e9a5760405162461bcd60e51b815260040161059890611be0565b600a80546001600160a01b03191633179055565b3390565b6002546001600160a01b031690565b610f19846323b872dd60e01b858585604051602401610ee29392919061198c565b60408051601f198184030181529190526020810180516001600160e01b03166001600160e01b031990931692909217909152611157565b50505050565b610f276116e5565b610f2f6116e5565b610f418186868663ffffffff6111e616565b9150505b9392505050565b6080830151610f61908363ffffffff61122316565b6080830151610f76908263ffffffff61122316565b505050565b600030600454604051602001610f92929190611956565b60408051808303601f19018152918152815160209283012060045460608701526000818152600590935281832080546001600160a01b0319166001600160a01b038916179055905190925082917fb5e6e01e79f91267dc17b4e6314d5d4d03593d2ceee0fbb452b750bd70ea5af991a26002546001600160a01b0316634000aea0858461101e87611240565b6040518463ffffffff1660e01b815260040161103c93929190611a31565b602060405180830381600087803b15801561105657600080fd5b505af115801561106a573d6000803e3d6000fd5b505050506040513d601f19601f8201168201806040525081019061108e9190611772565b6110aa5760405162461bcd60e51b815260040161059890611b20565b6004805460010190559392505050565b6000828201838110156110df5760405162461bcd60e51b815260040161059890611ae9565b90505b92915050565b6000826110f7575060006110e2565b8282028284828161110457fe5b04146110df5760405162461bcd60e51b815260040161059890611c69565b60008082116111435760405162461bcd60e51b815260040161059890611ba9565b600082848161114e57fe5b04949350505050565b60606111ac826040518060400160405280602081526020017f5361666545524332303a206c6f772d6c6576656c2063616c6c206661696c6564815250856001600160a01b03166112bc9092919063ffffffff16565b805190915015610f7657808060200190518101906111ca9190611772565b610f765760405162461bcd60e51b815260040161059890611d5e565b6111ee6116e5565b6111fe85608001516101006112d3565b50509183526001600160a01b031660208301526001600160e01b031916604082015290565b611230826003835161130d565b610f76828263ffffffff61141716565b6060634042994660e01b600080846000015185602001518660400151876060015160018960800151600001516040516024016112839897969594939291906119c9565b60408051601f198184030181529190526020810180516001600160e01b03166001600160e01b0319909316929092179091529050919050565b60606112cb8484600085611431565b949350505050565b6112db611731565b60208206156112f05760208206602003820191505b506020828101829052604080518085526000815290920101905290565b601781116113345761132e8360e0600585901b16831763ffffffff6114f216565b50610f76565b60ff811161136a57611357836018611fe0600586901b161763ffffffff6114f216565b5061132e8382600163ffffffff61150a16565b61ffff81116113a15761138e836019611fe0600586901b161763ffffffff6114f216565b5061132e8382600263ffffffff61150a16565b63ffffffff81116113da576113c783601a611fe0600586901b161763ffffffff6114f216565b5061132e8382600463ffffffff61150a16565b67ffffffffffffffff8111610f765761140483601b611fe0600586901b161763ffffffff6114f216565b50610f198382600863ffffffff61150a16565b61141f611731565b6110df83846000015151848551611523565b6060824710156114535760405162461bcd60e51b815260040161059890611b63565b61145c856115cf565b6114785760405162461bcd60e51b815260040161059890611cdf565b60006060866001600160a01b03168587604051611495919061193a565b60006040518083038185875af1925050503d80600081146114d2576040519150601f19603f3d011682016040523d82523d6000602084013e6114d7565b606091505b50915091506114e78282866115d5565b979650505050505050565b6114fa611731565b6110df838460000151518461160e565b611512611731565b6112cb848560000151518585611659565b61152b611731565b825182111561153957600080fd5b84602001518285011115611563576115638561155b87602001518786016116b7565b6002026116ce565b6000808651805187602083010193508088870111156115825787860182525b505050602084015b602084106115a95780518252601f19909301926020918201910161158a565b51815160001960208690036101000a019081169019919091161790525083949350505050565b3b151590565b606083156115e4575081610f45565b8251156115f45782518084602001fd5b8160405162461bcd60e51b81526004016105989190611a78565b611616611731565b83602001518310611632576116328485602001516002026116ce565b83518051602085830101848153508085141561164f576001810182525b5093949350505050565b611661611731565b8460200151848301111561167e5761167e858584016002026116ce565b60006001836101000a0390508551838682010185831982511617815250805184870111156116ac5783860181525b509495945050505050565b6000818311156116c85750816110e2565b50919050565b81516116da83836112d3565b50610f198382611417565b6040805160a081018252600080825260208201819052918101829052606081019190915260808101611715611731565b905290565b604080518082019091526000808252602082015290565b604051806040016040528060608152602001600081525090565b60006020828403121561175c578081fd5b81356001600160a01b03811681146110df578182fd5b600060208284031215611783578081fd5b81516110df81611e23565b60006020828403121561179f578081fd5b5035919050565b600080604083850312156117b8578081fd5b50508035926020909101359150565b6000602082840312156117d8578081fd5b8151600681106110df578182fd5b6000602082840312156117f7578081fd5b815167ffffffffffffffff8082111561180e578283fd5b81840185601f82011261181f578384fd5b805192508183111561182f578384fd5b604051601f8401601f19168101602001838111828210171561184f578586fd5b604052838152818401602001871015611866578485fd5b611877846020830160208501611ddf565b9695505050505050565b600060208284031215611892578081fd5b5051919050565b600080600080608085870312156118ae578182fd5b8435935060208501356118c081611e0b565b925060408501356118d081611e23565b915060608501356118e081611e0b565b939692955090935050565b600080604083850312156118fd578182fd5b505080516020909101519092909150565b60008151808452611926816020860160208601611ddf565b601f01601f19169290920160200192915050565b6000825161194c818460208701611ddf565b9190910192915050565b60609290921b6bffffffffffffffffffffffff19168252601482015260340190565b6001600160a01b0391909116815260200190565b6001600160a01b039384168152919092166020820152604081019190915260600190565b6001600160a01b03929092168252602082015260400190565b6001600160a01b0389811682526020820189905260408201889052861660608201526001600160e01b03198516608082015260a0810184905260c0810183905261010060e08201819052600090611a228382018561190e565b9b9a5050505050505050505050565b600060018060a01b038516825283602083015260606040830152611a58606083018461190e565b95945050505050565b90815260200190565b918252602082015260400190565b6000602082526110df602083018461190e565b6040810160068410611a9957fe5b9281526020015290565b60208082526026908201527f4f776e61626c653a206e6577206f776e657220697320746865207a65726f206160408201526564647265737360d01b606082015260800190565b6020808252601b908201527f536166654d6174683a206164646974696f6e206f766572666c6f770000000000604082015260600190565b60208082526023908201527f756e61626c6520746f207472616e73666572416e6443616c6c20746f206f7261604082015262636c6560e81b606082015260800190565b60208082526026908201527f416464726573733a20696e73756666696369656e742062616c616e636520666f6040820152651c8818d85b1b60d21b606082015260800190565b6020808252601a908201527f536166654d6174683a206469766973696f6e206279207a65726f000000000000604082015260600190565b60208082526028908201527f534c41526567697374727920616464726573732068617320616c7265616479206040820152671899595b881cd95d60c21b606082015260800190565b60208082526021908201527f43616e206f6e6c792062652063616c6c656420627920534c41526567697374726040820152607960f81b606082015260800190565b60208082526021908201527f536166654d6174683a206d756c7469706c69636174696f6e206f766572666c6f6040820152607760f81b606082015260800190565b6020808252818101527f4f776e61626c653a2063616c6c6572206973206e6f7420746865206f776e6572604082015260600190565b6020808252601d908201527f416464726573733a2063616c6c20746f206e6f6e2d636f6e7472616374000000604082015260600190565b60208082526028908201527f536f75726365206d75737420626520746865206f7261636c65206f6620746865604082015267081c995c5d595cdd60c21b606082015260800190565b6020808252602a908201527f5361666545524332303a204552433230206f7065726174696f6e20646964206e6040820152691bdd081cdd58d8d9595960b21b606082015260800190565b6020808252601f908201527f5265656e7472616e637947756172643a207265656e7472616e742063616c6c00604082015260600190565b60005b83811015611dfa578181015183820152602001611de2565b83811115610f195750506000910152565b6001600160a01b0381168114611e2057600080fd5b50565b8015158114611e2057600080fdfea2646970667358221220d0b1edde82d5c36dbee226549ad8cfbd6c78d8514b879ce9776a0f877cc0ec1064736f6c63430006060033",
  "linkReferences": {
    "@stacktical/dsla-protocol/contracts/StringUtils.sol": {
      "StringUtils": [
        {
          "length": 20,
          "start": 1016
        },
        {
          "length": 20,
          "start": 1553
        },
        {
          "length": 20,
          "start": 1679
        },
        {
          "length": 20,
          "start": 2829
        },
        {
          "length": 20,
          "start": 3026
        },
        {
          "length": 20,
          "start": 3118
        }
      ]
    }
  },
  "deployedLinkReferences": {
    "@stacktical/dsla-protocol/contracts/StringUtils.sol": {
      "StringUtils": [
        {
          "length": 20,
          "start": 557
        },
        {
          "length": 20,
          "start": 1094
        },
        {
          "length": 20,
          "start": 1220
        },
        {
          "length": 20,
          "start": 2370
        },
        {
          "length": 20,
          "start": 2567
        },
        {
          "length": 20,
          "start": 2659
        }
      ]
    }
  }
}