{
  "abi": [
    {
      "anonymous": false,
      "inputs": [
        {
          "indexed": true,
          "internalType": "address",
          "name": "ownerAddress",
          "type": "address"
        },
        {
          "indexed": true,
          "internalType": "address",
          "name": "messengerAddress",
          "type": "address"
        },
        {
          "indexed": false,
          "internalType": "string",
          "name": "specificationUrl",
          "type": "string"
        },
        {
          "indexed": false,
          "internalType": "uint256",
          "name": "precision",
          "type": "uint256"
        },
        {
          "indexed": false,
          "internalType": "uint256",
          "name": "id",
          "type": "uint256"
        }
      ],
      "name": "MessengerModified",
      "type": "event"
    },
    {
      "anonymous": false,
      "inputs": [
        {
          "indexed": true,
          "internalType": "address",
          "name": "ownerAddress",
          "type": "address"
        },
        {
          "indexed": true,
          "internalType": "address",
          "name": "messengerAddress",
          "type": "address"
        },
        {
          "indexed": false,
          "internalType": "string",
          "name": "specificationUrl",
          "type": "string"
        },
        {
          "indexed": false,
          "internalType": "uint256",
          "name": "precision",
          "type": "uint256"
        },
        {
          "indexed": false,
          "internalType": "uint256",
          "name": "id",
          "type": "uint256"
        }
      ],
      "name": "MessengerRegistered",
      "type": "event"
    },
    {
      "inputs": [],
      "name": "getMessengers",
      "outputs": [
        {
          "components": [
            {
              "internalType": "address",
              "name": "ownerAddress",
              "type": "address"
            },
            {
              "internalType": "address",
              "name": "messengerAddress",
              "type": "address"
            },
            {
              "internalType": "string",
              "name": "specificationUrl",
              "type": "string"
            },
            {
              "internalType": "uint256",
              "name": "precision",
              "type": "uint256"
            },
            {
              "internalType": "uint256",
              "name": "requestsCounter",
              "type": "uint256"
            },
            {
              "internalType": "uint256",
              "name": "fulfillsCounter",
              "type": "uint256"
            },
            {
              "internalType": "uint256",
              "name": "id",
              "type": "uint256"
            }
          ],
          "internalType": "struct MessengerRegistry.Messenger[]",
          "name": "",
          "type": "tuple[]"
        }
      ],
      "stateMutability": "view",
      "type": "function"
    },
    {
      "inputs": [],
      "name": "getMessengersLength",
      "outputs": [
        {
          "internalType": "uint256",
          "name": "",
          "type": "uint256"
        }
      ],
      "stateMutability": "view",
      "type": "function"
    },
    {
      "inputs": [
        {
          "internalType": "string",
          "name": "_specificationUrl",
          "type": "string"
        },
        {
          "internalType": "uint256",
          "name": "_messengerId",
          "type": "uint256"
        }
      ],
      "name": "modifyMessenger",
      "outputs": [],
      "stateMutability": "nonpayable",
      "type": "function"
    },
    {
      "inputs": [
        {
          "internalType": "address",
          "name": "callerAddress_",
          "type": "address"
        },
        {
          "internalType": "address",
          "name": "messengerAddress_",
          "type": "address"
        },
        {
          "internalType": "string",
          "name": "specificationUrl_",
          "type": "string"
        }
      ],
      "name": "registerMessenger",
      "outputs": [],
      "stateMutability": "nonpayable",
      "type": "function"
    },
    {
      "inputs": [
        {
          "internalType": "address",
          "name": "messengerAddress_",
          "type": "address"
        }
      ],
      "name": "registeredMessengers",
      "outputs": [
        {
          "internalType": "bool",
          "name": "",
          "type": "bool"
        }
      ],
      "stateMutability": "view",
      "type": "function"
    },
    {
      "inputs": [],
      "name": "setSLARegistry",
      "outputs": [],
      "stateMutability": "nonpayable",
      "type": "function"
    }
  ],
  "evm": {
    "bytecode": {
      "linkReferences": {},
      "object": "608060405234801561001057600080fd5b50611024806100206000396000f3fe608060405234801561001057600080fd5b50600436106100625760003560e01c806369b5354b14610067578063822d332e146100855780639f69d7f81461009a578063eabb8a73146100af578063ef4003db146100c2578063f3881589146100e2575b600080fd5b61006f6100ea565b60405161007c9190610c75565b60405180910390f35b610098610093366004610c13565b610404565b005b6100a2610569565b60405161007c9190610f85565b6100986100bd366004610bb0565b61056f565b6100d56100d0366004610b71565b61097a565b60405161007c9190610d47565b610098610998565b600054606090819067ffffffffffffffff8111801561010857600080fd5b5060405190808252806020026020018201604052801561014257816020015b61012f6109d5565b8152602001906001900390816101275790505b50905060005b6000548110156103fd57600080828154811061016057fe5b906000526020600020906007020160010160009054906101000a90046001600160a01b031690506000816001600160a01b031663663c22696040518163ffffffff1660e01b815260040160206040518083038186803b1580156101c257600080fd5b505afa1580156101d6573d6000803e3d6000fd5b505050506040513d601f19601f820116820180604052508101906101fa9190610c5d565b90506000826001600160a01b031663a50c54256040518163ffffffff1660e01b815260040160206040518083038186803b15801561023757600080fd5b505afa15801561024b573d6000803e3d6000fd5b505050506040513d601f19601f8201168201806040525081019061026f9190610c5d565b90506040518060e001604052806000868154811061028957fe5b600091825260208083206007909202909101546001600160a01b031683528154920191879081106102b657fe5b60009182526020808320600160079093020191909101546001600160a01b031683528154920191879081106102e757fe5b600091825260209182902060026007909202018101805460408051601f60001961010060018616150201909316949094049182018590048502840185019052808352919290919083018282801561037f5780601f106103545761010080835404028352916020019161037f565b820191906000526020600020905b81548152906001019060200180831161036257829003601f168201915b505050505081526020016000868154811061039657fe5b9060005260206000209060070201600301548152602001838152602001828152602001600086815481106103c657fe5b9060005260206000209060070201600601548152508585815181106103e757fe5b6020908102919091010152505050600101610148565b5090505b90565b600080828154811061041257fe5b9060005260206000209060070201905060008160010160009054906101000a90046001600160a01b03169050806001600160a01b0316638da5cb5b6040518163ffffffff1660e01b815260040160206040518083038186803b15801561047757600080fd5b505afa15801561048b573d6000803e3d6000fd5b505050506040513d601f19601f820116820180604052508101906104af9190610b94565b6001600160a01b0316336001600160a01b0316146104e85760405162461bcd60e51b81526004016104df90610e25565b60405180910390fd5b6104f6600283018686610a24565b5081546001600160a01b03191633178083556001830154600384015460068501546040516001600160a01b0393841694909316927f535c96772bc04bd66e3fc2bab24c455ef0b5bac77cc845b644482e89dce861129261055a926002890192610d91565b60405180910390a35050505050565b60005490565b6003546001600160a01b031633146105995760405162461bcd60e51b81526004016104df90610e66565b6001600160a01b03831660009081526001602052604090205460ff16156105d25760405162461bcd60e51b81526004016104df90610eba565b60008390506000816001600160a01b0316638da5cb5b6040518163ffffffff1660e01b815260040160206040518083038186803b15801561061257600080fd5b505afa158015610626573d6000803e3d6000fd5b505050506040513d601f19601f8201168201806040525081019061064a9190610b94565b9050856001600160a01b0316816001600160a01b03161461067d5760405162461bcd60e51b81526004016104df90610f39565b6000826001600160a01b031663c9b0cb226040518163ffffffff1660e01b815260040160206040518083038186803b1580156106b857600080fd5b505afa1580156106cc573d6000803e3d6000fd5b505050506040513d601f19601f820116820180604052508101906106f09190610c5d565b90506000836001600160a01b031663663c22696040518163ffffffff1660e01b815260040160206040518083038186803b15801561072d57600080fd5b505afa158015610741573d6000803e3d6000fd5b505050506040513d601f19601f820116820180604052508101906107659190610c5d565b90506000846001600160a01b031663a50c54256040518163ffffffff1660e01b815260040160206040518083038186803b1580156107a257600080fd5b505afa1580156107b6573d6000803e3d6000fd5b505050506040513d601f19601f820116820180604052508101906107da9190610c5d565b6001600160a01b03808a166000818152600160208181526040808420805460ff1916841790558354958b1680855260028352818520805494850181558552828520909301869055805160e081018252928352828201949094528351601f8d0182900482028101820185528c8152959650939491939092830191908c908c908190840183828082843760009201829052509385525050506020808301899052604080840189905260608401889052608090930186905284546001818101875595835291819020845160079093020180546001600160a01b039384166001600160a01b0319918216178255858301519682018054979094169616959095179091559082015180519293926108f29260028501920190610aa2565b50606082015181600301556080820151816004015560a0820151816005015560c082015181600601555050886001600160a01b0316856001600160a01b03167f65ec88813f8015e2d5de403d956ea4d6c79b88ad66a42ada93a9b4619e10fd888a8a88866040516109669493929190610d52565b60405180910390a350505050505050505050565b6001600160a01b031660009081526001602052604090205460ff1690565b6003546001600160a01b0316156109c15760405162461bcd60e51b81526004016104df90610ef1565b600380546001600160a01b03191633179055565b6040518060e0016040528060006001600160a01b0316815260200160006001600160a01b0316815260200160608152602001600081526020016000815260200160008152602001600081525090565b828054600181600116156101000203166002900490600052602060002090601f016020900481019282601f10610a655782800160ff19823516178555610a92565b82800160010185558215610a92579182015b82811115610a92578235825591602001919060010190610a77565b50610a9e929150610b10565b5090565b828054600181600116156101000203166002900490600052602060002090601f016020900481019282601f10610ae357805160ff1916838001178555610a92565b82800160010185558215610a92579182015b82811115610a92578251825591602001919060010190610af5565b61040191905b80821115610a9e5760008155600101610b16565b60008083601f840112610b3b578182fd5b50813567ffffffffffffffff811115610b52578182fd5b602083019150836020828501011115610b6a57600080fd5b9250929050565b600060208284031215610b82578081fd5b8135610b8d81610fd6565b9392505050565b600060208284031215610ba5578081fd5b8151610b8d81610fd6565b60008060008060608587031215610bc5578283fd5b8435610bd081610fd6565b93506020850135610be081610fd6565b9250604085013567ffffffffffffffff811115610bfb578283fd5b610c0787828801610b2a565b95989497509550505050565b600080600060408486031215610c27578283fd5b833567ffffffffffffffff811115610c3d578384fd5b610c4986828701610b2a565b909790965060209590950135949350505050565b600060208284031215610c6e578081fd5b5051919050565b60208082528251828201819052600091906040908185019080840286018301878501865b83811015610d3957603f19898403018552815160e0610cb88251610f9a565b8552818901516001600160a01b031689860152878201518886018290528051610ce381848901610f85565b610cf082828e8601610fa6565b606085810151908901526080808601519089015260a0808601519089015260c0948501519490970193909352505094870194601f01601f19169092019190860190600101610c99565b509098975050505050505050565b901515815260200190565b6000606082528460608301528486608084013780608086840101526080601f19601f870116830101905083602083015282604083015295945050505050565b60006060820160608352818654600180821660008114610db85760018114610dd657610e0f565b60028304607f16855260ff198316608088015260a087019350610e0f565b60028304808652610de68b610f8e565b875b82811015610e055781548a82016080015290840190602001610de8565b8901608001955050505b5050506020840195909552505060400152919050565b60208082526021908201527f43616e206f6e6c79206265206d6f64696669656420627920746865206f776e656040820152603960f91b606082015260800190565b60208082526034908201527f53686f756c64206f6e6c792062652063616c6c6564207573696e67207468652060408201527314d310549959da5cdd1c9e4818dbdb9d1c9858dd60621b606082015260800190565b6020808252601c908201527f6d657373656e67657220616c7265616479207265676973746572656400000000604082015260600190565b60208082526028908201527f534c41526567697374727920616464726573732068617320616c7265616479206040820152671899595b881cd95d60c21b606082015260800190565b6020808252602c908201527f53686f756c64206f6e6c792062652063616c6c656420627920746865206d657360408201526b39b2b733b2b91037bbb732b960a11b606082015260800190565b90815260200190565b60009081526020902090565b6001600160a01b031690565b60005b83811015610fc1578181015183820152602001610fa9565b83811115610fd0576000848401525b50505050565b6001600160a01b0381168114610feb57600080fd5b5056fea2646970667358221220ca4db16b8ae8d00c2a60e495aa1c8f381fed89b6110383a0b9f47c653616e24f64736f6c63430006060033",
      "opcodes": "PUSH1 0x80 PUSH1 0x40 MSTORE CALLVALUE DUP1 ISZERO PUSH2 0x10 JUMPI PUSH1 0x0 DUP1 REVERT JUMPDEST POP PUSH2 0x1024 DUP1 PUSH2 0x20 PUSH1 0x0 CODECOPY PUSH1 0x0 RETURN INVALID PUSH1 0x80 PUSH1 0x40 MSTORE CALLVALUE DUP1 ISZERO PUSH2 0x10 JUMPI PUSH1 0x0 DUP1 REVERT JUMPDEST POP PUSH1 0x4 CALLDATASIZE LT PUSH2 0x62 JUMPI PUSH1 0x0 CALLDATALOAD PUSH1 0xE0 SHR DUP1 PUSH4 0x69B5354B EQ PUSH2 0x67 JUMPI DUP1 PUSH4 0x822D332E EQ PUSH2 0x85 JUMPI DUP1 PUSH4 0x9F69D7F8 EQ PUSH2 0x9A JUMPI DUP1 PUSH4 0xEABB8A73 EQ PUSH2 0xAF JUMPI DUP1 PUSH4 0xEF4003DB EQ PUSH2 0xC2 JUMPI DUP1 PUSH4 0xF3881589 EQ PUSH2 0xE2 JUMPI JUMPDEST PUSH1 0x0 DUP1 REVERT JUMPDEST PUSH2 0x6F PUSH2 0xEA JUMP JUMPDEST PUSH1 0x40 MLOAD PUSH2 0x7C SWAP2 SWAP1 PUSH2 0xC75 JUMP JUMPDEST PUSH1 0x40 MLOAD DUP1 SWAP2 SUB SWAP1 RETURN JUMPDEST PUSH2 0x98 PUSH2 0x93 CALLDATASIZE PUSH1 0x4 PUSH2 0xC13 JUMP JUMPDEST PUSH2 0x404 JUMP JUMPDEST STOP JUMPDEST PUSH2 0xA2 PUSH2 0x569 JUMP JUMPDEST PUSH1 0x40 MLOAD PUSH2 0x7C SWAP2 SWAP1 PUSH2 0xF85 JUMP JUMPDEST PUSH2 0x98 PUSH2 0xBD CALLDATASIZE PUSH1 0x4 PUSH2 0xBB0 JUMP JUMPDEST PUSH2 0x56F JUMP JUMPDEST PUSH2 0xD5 PUSH2 0xD0 CALLDATASIZE PUSH1 0x4 PUSH2 0xB71 JUMP JUMPDEST PUSH2 0x97A JUMP JUMPDEST PUSH1 0x40 MLOAD PUSH2 0x7C SWAP2 SWAP1 PUSH2 0xD47 JUMP JUMPDEST PUSH2 0x98 PUSH2 0x998 JUMP JUMPDEST PUSH1 0x0 SLOAD PUSH1 0x60 SWAP1 DUP2 SWAP1 PUSH8 0xFFFFFFFFFFFFFFFF DUP2 GT DUP1 ISZERO PUSH2 0x108 JUMPI PUSH1 0x0 DUP1 REVERT JUMPDEST POP PUSH1 0x40 MLOAD SWAP1 DUP1 DUP3 MSTORE DUP1 PUSH1 0x20 MUL PUSH1 0x20 ADD DUP3 ADD PUSH1 0x40 MSTORE DUP1 ISZERO PUSH2 0x142 JUMPI DUP2 PUSH1 0x20 ADD JUMPDEST PUSH2 0x12F PUSH2 0x9D5 JUMP JUMPDEST DUP2 MSTORE PUSH1 0x20 ADD SWAP1 PUSH1 0x1 SWAP1 SUB SWAP1 DUP2 PUSH2 0x127 JUMPI SWAP1 POP JUMPDEST POP SWAP1 POP PUSH1 0x0 JUMPDEST PUSH1 0x0 SLOAD DUP2 LT ISZERO PUSH2 0x3FD JUMPI PUSH1 0x0 DUP1 DUP3 DUP2 SLOAD DUP2 LT PUSH2 0x160 JUMPI INVALID JUMPDEST SWAP1 PUSH1 0x0 MSTORE PUSH1 0x20 PUSH1 0x0 KECCAK256 SWAP1 PUSH1 0x7 MUL ADD PUSH1 0x1 ADD PUSH1 0x0 SWAP1 SLOAD SWAP1 PUSH2 0x100 EXP SWAP1 DIV PUSH1 0x1 PUSH1 0x1 PUSH1 0xA0 SHL SUB AND SWAP1 POP PUSH1 0x0 DUP2 PUSH1 0x1 PUSH1 0x1 PUSH1 0xA0 SHL SUB AND PUSH4 0x663C2269 PUSH1 0x40 MLOAD DUP2 PUSH4 0xFFFFFFFF AND PUSH1 0xE0 SHL DUP2 MSTORE PUSH1 0x4 ADD PUSH1 0x20 PUSH1 0x40 MLOAD DUP1 DUP4 SUB DUP2 DUP7 DUP1 EXTCODESIZE ISZERO DUP1 ISZERO PUSH2 0x1C2 JUMPI PUSH1 0x0 DUP1 REVERT JUMPDEST POP GAS STATICCALL ISZERO DUP1 ISZERO PUSH2 0x1D6 JUMPI RETURNDATASIZE PUSH1 0x0 DUP1 RETURNDATACOPY RETURNDATASIZE PUSH1 0x0 REVERT JUMPDEST POP POP POP POP PUSH1 0x40 MLOAD RETURNDATASIZE PUSH1 0x1F NOT PUSH1 0x1F DUP3 ADD AND DUP3 ADD DUP1 PUSH1 0x40 MSTORE POP DUP2 ADD SWAP1 PUSH2 0x1FA SWAP2 SWAP1 PUSH2 0xC5D JUMP JUMPDEST SWAP1 POP PUSH1 0x0 DUP3 PUSH1 0x1 PUSH1 0x1 PUSH1 0xA0 SHL SUB AND PUSH4 0xA50C5425 PUSH1 0x40 MLOAD DUP2 PUSH4 0xFFFFFFFF AND PUSH1 0xE0 SHL DUP2 MSTORE PUSH1 0x4 ADD PUSH1 0x20 PUSH1 0x40 MLOAD DUP1 DUP4 SUB DUP2 DUP7 DUP1 EXTCODESIZE ISZERO DUP1 ISZERO PUSH2 0x237 JUMPI PUSH1 0x0 DUP1 REVERT JUMPDEST POP GAS STATICCALL ISZERO DUP1 ISZERO PUSH2 0x24B JUMPI RETURNDATASIZE PUSH1 0x0 DUP1 RETURNDATACOPY RETURNDATASIZE PUSH1 0x0 REVERT JUMPDEST POP POP POP POP PUSH1 0x40 MLOAD RETURNDATASIZE PUSH1 0x1F NOT PUSH1 0x1F DUP3 ADD AND DUP3 ADD DUP1 PUSH1 0x40 MSTORE POP DUP2 ADD SWAP1 PUSH2 0x26F SWAP2 SWAP1 PUSH2 0xC5D JUMP JUMPDEST SWAP1 POP PUSH1 0x40 MLOAD DUP1 PUSH1 0xE0 ADD PUSH1 0x40 MSTORE DUP1 PUSH1 0x0 DUP7 DUP2 SLOAD DUP2 LT PUSH2 0x289 JUMPI INVALID JUMPDEST PUSH1 0x0 SWAP2 DUP3 MSTORE PUSH1 0x20 DUP1 DUP4 KECCAK256 PUSH1 0x7 SWAP1 SWAP3 MUL SWAP1 SWAP2 ADD SLOAD PUSH1 0x1 PUSH1 0x1 PUSH1 0xA0 SHL SUB AND DUP4 MSTORE DUP2 SLOAD SWAP3 ADD SWAP2 DUP8 SWAP1 DUP2 LT PUSH2 0x2B6 JUMPI INVALID JUMPDEST PUSH1 0x0 SWAP2 DUP3 MSTORE PUSH1 0x20 DUP1 DUP4 KECCAK256 PUSH1 0x1 PUSH1 0x7 SWAP1 SWAP4 MUL ADD SWAP2 SWAP1 SWAP2 ADD SLOAD PUSH1 0x1 PUSH1 0x1 PUSH1 0xA0 SHL SUB AND DUP4 MSTORE DUP2 SLOAD SWAP3 ADD SWAP2 DUP8 SWAP1 DUP2 LT PUSH2 0x2E7 JUMPI INVALID JUMPDEST PUSH1 0x0 SWAP2 DUP3 MSTORE PUSH1 0x20 SWAP2 DUP3 SWAP1 KECCAK256 PUSH1 0x2 PUSH1 0x7 SWAP1 SWAP3 MUL ADD DUP2 ADD DUP1 SLOAD PUSH1 0x40 DUP1 MLOAD PUSH1 0x1F PUSH1 0x0 NOT PUSH2 0x100 PUSH1 0x1 DUP7 AND ISZERO MUL ADD SWAP1 SWAP4 AND SWAP5 SWAP1 SWAP5 DIV SWAP2 DUP3 ADD DUP6 SWAP1 DIV DUP6 MUL DUP5 ADD DUP6 ADD SWAP1 MSTORE DUP1 DUP4 MSTORE SWAP2 SWAP3 SWAP1 SWAP2 SWAP1 DUP4 ADD DUP3 DUP3 DUP1 ISZERO PUSH2 0x37F JUMPI DUP1 PUSH1 0x1F LT PUSH2 0x354 JUMPI PUSH2 0x100 DUP1 DUP4 SLOAD DIV MUL DUP4 MSTORE SWAP2 PUSH1 0x20 ADD SWAP2 PUSH2 0x37F JUMP JUMPDEST DUP3 ADD SWAP2 SWAP1 PUSH1 0x0 MSTORE PUSH1 0x20 PUSH1 0x0 KECCAK256 SWAP1 JUMPDEST DUP2 SLOAD DUP2 MSTORE SWAP1 PUSH1 0x1 ADD SWAP1 PUSH1 0x20 ADD DUP1 DUP4 GT PUSH2 0x362 JUMPI DUP3 SWAP1 SUB PUSH1 0x1F AND DUP3 ADD SWAP2 JUMPDEST POP POP POP POP POP DUP2 MSTORE PUSH1 0x20 ADD PUSH1 0x0 DUP7 DUP2 SLOAD DUP2 LT PUSH2 0x396 JUMPI INVALID JUMPDEST SWAP1 PUSH1 0x0 MSTORE PUSH1 0x20 PUSH1 0x0 KECCAK256 SWAP1 PUSH1 0x7 MUL ADD PUSH1 0x3 ADD SLOAD DUP2 MSTORE PUSH1 0x20 ADD DUP4 DUP2 MSTORE PUSH1 0x20 ADD DUP3 DUP2 MSTORE PUSH1 0x20 ADD PUSH1 0x0 DUP7 DUP2 SLOAD DUP2 LT PUSH2 0x3C6 JUMPI INVALID JUMPDEST SWAP1 PUSH1 0x0 MSTORE PUSH1 0x20 PUSH1 0x0 KECCAK256 SWAP1 PUSH1 0x7 MUL ADD PUSH1 0x6 ADD SLOAD DUP2 MSTORE POP DUP6 DUP6 DUP2 MLOAD DUP2 LT PUSH2 0x3E7 JUMPI INVALID JUMPDEST PUSH1 0x20 SWAP1 DUP2 MUL SWAP2 SWAP1 SWAP2 ADD ADD MSTORE POP POP POP PUSH1 0x1 ADD PUSH2 0x148 JUMP JUMPDEST POP SWAP1 POP JUMPDEST SWAP1 JUMP JUMPDEST PUSH1 0x0 DUP1 DUP3 DUP2 SLOAD DUP2 LT PUSH2 0x412 JUMPI INVALID JUMPDEST SWAP1 PUSH1 0x0 MSTORE PUSH1 0x20 PUSH1 0x0 KECCAK256 SWAP1 PUSH1 0x7 MUL ADD SWAP1 POP PUSH1 0x0 DUP2 PUSH1 0x1 ADD PUSH1 0x0 SWAP1 SLOAD SWAP1 PUSH2 0x100 EXP SWAP1 DIV PUSH1 0x1 PUSH1 0x1 PUSH1 0xA0 SHL SUB AND SWAP1 POP DUP1 PUSH1 0x1 PUSH1 0x1 PUSH1 0xA0 SHL SUB AND PUSH4 0x8DA5CB5B PUSH1 0x40 MLOAD DUP2 PUSH4 0xFFFFFFFF AND PUSH1 0xE0 SHL DUP2 MSTORE PUSH1 0x4 ADD PUSH1 0x20 PUSH1 0x40 MLOAD DUP1 DUP4 SUB DUP2 DUP7 DUP1 EXTCODESIZE ISZERO DUP1 ISZERO PUSH2 0x477 JUMPI PUSH1 0x0 DUP1 REVERT JUMPDEST POP GAS STATICCALL ISZERO DUP1 ISZERO PUSH2 0x48B JUMPI RETURNDATASIZE PUSH1 0x0 DUP1 RETURNDATACOPY RETURNDATASIZE PUSH1 0x0 REVERT JUMPDEST POP POP POP POP PUSH1 0x40 MLOAD RETURNDATASIZE PUSH1 0x1F NOT PUSH1 0x1F DUP3 ADD AND DUP3 ADD DUP1 PUSH1 0x40 MSTORE POP DUP2 ADD SWAP1 PUSH2 0x4AF SWAP2 SWAP1 PUSH2 0xB94 JUMP JUMPDEST PUSH1 0x1 PUSH1 0x1 PUSH1 0xA0 SHL SUB AND CALLER PUSH1 0x1 PUSH1 0x1 PUSH1 0xA0 SHL SUB AND EQ PUSH2 0x4E8 JUMPI PUSH1 0x40 MLOAD PUSH3 0x461BCD PUSH1 0xE5 SHL DUP2 MSTORE PUSH1 0x4 ADD PUSH2 0x4DF SWAP1 PUSH2 0xE25 JUMP JUMPDEST PUSH1 0x40 MLOAD DUP1 SWAP2 SUB SWAP1 REVERT JUMPDEST PUSH2 0x4F6 PUSH1 0x2 DUP4 ADD DUP7 DUP7 PUSH2 0xA24 JUMP JUMPDEST POP DUP2 SLOAD PUSH1 0x1 PUSH1 0x1 PUSH1 0xA0 SHL SUB NOT AND CALLER OR DUP1 DUP4 SSTORE PUSH1 0x1 DUP4 ADD SLOAD PUSH1 0x3 DUP5 ADD SLOAD PUSH1 0x6 DUP6 ADD SLOAD PUSH1 0x40 MLOAD PUSH1 0x1 PUSH1 0x1 PUSH1 0xA0 SHL SUB SWAP4 DUP5 AND SWAP5 SWAP1 SWAP4 AND SWAP3 PUSH32 0x535C96772BC04BD66E3FC2BAB24C455EF0B5BAC77CC845B644482E89DCE86112 SWAP3 PUSH2 0x55A SWAP3 PUSH1 0x2 DUP10 ADD SWAP3 PUSH2 0xD91 JUMP JUMPDEST PUSH1 0x40 MLOAD DUP1 SWAP2 SUB SWAP1 LOG3 POP POP POP POP POP JUMP JUMPDEST PUSH1 0x0 SLOAD SWAP1 JUMP JUMPDEST PUSH1 0x3 SLOAD PUSH1 0x1 PUSH1 0x1 PUSH1 0xA0 SHL SUB AND CALLER EQ PUSH2 0x599 JUMPI PUSH1 0x40 MLOAD PUSH3 0x461BCD PUSH1 0xE5 SHL DUP2 MSTORE PUSH1 0x4 ADD PUSH2 0x4DF SWAP1 PUSH2 0xE66 JUMP JUMPDEST PUSH1 0x1 PUSH1 0x1 PUSH1 0xA0 SHL SUB DUP4 AND PUSH1 0x0 SWAP1 DUP2 MSTORE PUSH1 0x1 PUSH1 0x20 MSTORE PUSH1 0x40 SWAP1 KECCAK256 SLOAD PUSH1 0xFF AND ISZERO PUSH2 0x5D2 JUMPI PUSH1 0x40 MLOAD PUSH3 0x461BCD PUSH1 0xE5 SHL DUP2 MSTORE PUSH1 0x4 ADD PUSH2 0x4DF SWAP1 PUSH2 0xEBA JUMP JUMPDEST PUSH1 0x0 DUP4 SWAP1 POP PUSH1 0x0 DUP2 PUSH1 0x1 PUSH1 0x1 PUSH1 0xA0 SHL SUB AND PUSH4 0x8DA5CB5B PUSH1 0x40 MLOAD DUP2 PUSH4 0xFFFFFFFF AND PUSH1 0xE0 SHL DUP2 MSTORE PUSH1 0x4 ADD PUSH1 0x20 PUSH1 0x40 MLOAD DUP1 DUP4 SUB DUP2 DUP7 DUP1 EXTCODESIZE ISZERO DUP1 ISZERO PUSH2 0x612 JUMPI PUSH1 0x0 DUP1 REVERT JUMPDEST POP GAS STATICCALL ISZERO DUP1 ISZERO PUSH2 0x626 JUMPI RETURNDATASIZE PUSH1 0x0 DUP1 RETURNDATACOPY RETURNDATASIZE PUSH1 0x0 REVERT JUMPDEST POP POP POP POP PUSH1 0x40 MLOAD RETURNDATASIZE PUSH1 0x1F NOT PUSH1 0x1F DUP3 ADD AND DUP3 ADD DUP1 PUSH1 0x40 MSTORE POP DUP2 ADD SWAP1 PUSH2 0x64A SWAP2 SWAP1 PUSH2 0xB94 JUMP JUMPDEST SWAP1 POP DUP6 PUSH1 0x1 PUSH1 0x1 PUSH1 0xA0 SHL SUB AND DUP2 PUSH1 0x1 PUSH1 0x1 PUSH1 0xA0 SHL SUB AND EQ PUSH2 0x67D JUMPI PUSH1 0x40 MLOAD PUSH3 0x461BCD PUSH1 0xE5 SHL DUP2 MSTORE PUSH1 0x4 ADD PUSH2 0x4DF SWAP1 PUSH2 0xF39 JUMP JUMPDEST PUSH1 0x0 DUP3 PUSH1 0x1 PUSH1 0x1 PUSH1 0xA0 SHL SUB AND PUSH4 0xC9B0CB22 PUSH1 0x40 MLOAD DUP2 PUSH4 0xFFFFFFFF AND PUSH1 0xE0 SHL DUP2 MSTORE PUSH1 0x4 ADD PUSH1 0x20 PUSH1 0x40 MLOAD DUP1 DUP4 SUB DUP2 DUP7 DUP1 EXTCODESIZE ISZERO DUP1 ISZERO PUSH2 0x6B8 JUMPI PUSH1 0x0 DUP1 REVERT JUMPDEST POP GAS STATICCALL ISZERO DUP1 ISZERO PUSH2 0x6CC JUMPI RETURNDATASIZE PUSH1 0x0 DUP1 RETURNDATACOPY RETURNDATASIZE PUSH1 0x0 REVERT JUMPDEST POP POP POP POP PUSH1 0x40 MLOAD RETURNDATASIZE PUSH1 0x1F NOT PUSH1 0x1F DUP3 ADD AND DUP3 ADD DUP1 PUSH1 0x40 MSTORE POP DUP2 ADD SWAP1 PUSH2 0x6F0 SWAP2 SWAP1 PUSH2 0xC5D JUMP JUMPDEST SWAP1 POP PUSH1 0x0 DUP4 PUSH1 0x1 PUSH1 0x1 PUSH1 0xA0 SHL SUB AND PUSH4 0x663C2269 PUSH1 0x40 MLOAD DUP2 PUSH4 0xFFFFFFFF AND PUSH1 0xE0 SHL DUP2 MSTORE PUSH1 0x4 ADD PUSH1 0x20 PUSH1 0x40 MLOAD DUP1 DUP4 SUB DUP2 DUP7 DUP1 EXTCODESIZE ISZERO DUP1 ISZERO PUSH2 0x72D JUMPI PUSH1 0x0 DUP1 REVERT JUMPDEST POP GAS STATICCALL ISZERO DUP1 ISZERO PUSH2 0x741 JUMPI RETURNDATASIZE PUSH1 0x0 DUP1 RETURNDATACOPY RETURNDATASIZE PUSH1 0x0 REVERT JUMPDEST POP POP POP POP PUSH1 0x40 MLOAD RETURNDATASIZE PUSH1 0x1F NOT PUSH1 0x1F DUP3 ADD AND DUP3 ADD DUP1 PUSH1 0x40 MSTORE POP DUP2 ADD SWAP1 PUSH2 0x765 SWAP2 SWAP1 PUSH2 0xC5D JUMP JUMPDEST SWAP1 POP PUSH1 0x0 DUP5 PUSH1 0x1 PUSH1 0x1 PUSH1 0xA0 SHL SUB AND PUSH4 0xA50C5425 PUSH1 0x40 MLOAD DUP2 PUSH4 0xFFFFFFFF AND PUSH1 0xE0 SHL DUP2 MSTORE PUSH1 0x4 ADD PUSH1 0x20 PUSH1 0x40 MLOAD DUP1 DUP4 SUB DUP2 DUP7 DUP1 EXTCODESIZE ISZERO DUP1 ISZERO PUSH2 0x7A2 JUMPI PUSH1 0x0 DUP1 REVERT JUMPDEST POP GAS STATICCALL ISZERO DUP1 ISZERO PUSH2 0x7B6 JUMPI RETURNDATASIZE PUSH1 0x0 DUP1 RETURNDATACOPY RETURNDATASIZE PUSH1 0x0 REVERT JUMPDEST POP POP POP POP PUSH1 0x40 MLOAD RETURNDATASIZE PUSH1 0x1F NOT PUSH1 0x1F DUP3 ADD AND DUP3 ADD DUP1 PUSH1 0x40 MSTORE POP DUP2 ADD SWAP1 PUSH2 0x7DA SWAP2 SWAP1 PUSH2 0xC5D JUMP JUMPDEST PUSH1 0x1 PUSH1 0x1 PUSH1 0xA0 SHL SUB DUP1 DUP11 AND PUSH1 0x0 DUP2 DUP2 MSTORE PUSH1 0x1 PUSH1 0x20 DUP2 DUP2 MSTORE PUSH1 0x40 DUP1 DUP5 KECCAK256 DUP1 SLOAD PUSH1 0xFF NOT AND DUP5 OR SWAP1 SSTORE DUP4 SLOAD SWAP6 DUP12 AND DUP1 DUP6 MSTORE PUSH1 0x2 DUP4 MSTORE DUP2 DUP6 KECCAK256 DUP1 SLOAD SWAP5 DUP6 ADD DUP2 SSTORE DUP6 MSTORE DUP3 DUP6 KECCAK256 SWAP1 SWAP4 ADD DUP7 SWAP1 SSTORE DUP1 MLOAD PUSH1 0xE0 DUP2 ADD DUP3 MSTORE SWAP3 DUP4 MSTORE DUP3 DUP3 ADD SWAP5 SWAP1 SWAP5 MSTORE DUP4 MLOAD PUSH1 0x1F DUP14 ADD DUP3 SWAP1 DIV DUP3 MUL DUP2 ADD DUP3 ADD DUP6 MSTORE DUP13 DUP2 MSTORE SWAP6 SWAP7 POP SWAP4 SWAP5 SWAP2 SWAP4 SWAP1 SWAP3 DUP4 ADD SWAP2 SWAP1 DUP13 SWAP1 DUP13 SWAP1 DUP2 SWAP1 DUP5 ADD DUP4 DUP3 DUP1 DUP3 DUP5 CALLDATACOPY PUSH1 0x0 SWAP3 ADD DUP3 SWAP1 MSTORE POP SWAP4 DUP6 MSTORE POP POP POP PUSH1 0x20 DUP1 DUP4 ADD DUP10 SWAP1 MSTORE PUSH1 0x40 DUP1 DUP5 ADD DUP10 SWAP1 MSTORE PUSH1 0x60 DUP5 ADD DUP9 SWAP1 MSTORE PUSH1 0x80 SWAP1 SWAP4 ADD DUP7 SWAP1 MSTORE DUP5 SLOAD PUSH1 0x1 DUP2 DUP2 ADD DUP8 SSTORE SWAP6 DUP4 MSTORE SWAP2 DUP2 SWAP1 KECCAK256 DUP5 MLOAD PUSH1 0x7 SWAP1 SWAP4 MUL ADD DUP1 SLOAD PUSH1 0x1 PUSH1 0x1 PUSH1 0xA0 SHL SUB SWAP4 DUP5 AND PUSH1 0x1 PUSH1 0x1 PUSH1 0xA0 SHL SUB NOT SWAP2 DUP3 AND OR DUP3 SSTORE DUP6 DUP4 ADD MLOAD SWAP7 DUP3 ADD DUP1 SLOAD SWAP8 SWAP1 SWAP5 AND SWAP7 AND SWAP6 SWAP1 SWAP6 OR SWAP1 SWAP2 SSTORE SWAP1 DUP3 ADD MLOAD DUP1 MLOAD SWAP3 SWAP4 SWAP3 PUSH2 0x8F2 SWAP3 PUSH1 0x2 DUP6 ADD SWAP3 ADD SWAP1 PUSH2 0xAA2 JUMP JUMPDEST POP PUSH1 0x60 DUP3 ADD MLOAD DUP2 PUSH1 0x3 ADD SSTORE PUSH1 0x80 DUP3 ADD MLOAD DUP2 PUSH1 0x4 ADD SSTORE PUSH1 0xA0 DUP3 ADD MLOAD DUP2 PUSH1 0x5 ADD SSTORE PUSH1 0xC0 DUP3 ADD MLOAD DUP2 PUSH1 0x6 ADD SSTORE POP POP DUP9 PUSH1 0x1 PUSH1 0x1 PUSH1 0xA0 SHL SUB AND DUP6 PUSH1 0x1 PUSH1 0x1 PUSH1 0xA0 SHL SUB AND PUSH32 0x65EC88813F8015E2D5DE403D956EA4D6C79B88AD66A42ADA93A9B4619E10FD88 DUP11 DUP11 DUP9 DUP7 PUSH1 0x40 MLOAD PUSH2 0x966 SWAP5 SWAP4 SWAP3 SWAP2 SWAP1 PUSH2 0xD52 JUMP JUMPDEST PUSH1 0x40 MLOAD DUP1 SWAP2 SUB SWAP1 LOG3 POP POP POP POP POP POP POP POP POP POP JUMP JUMPDEST PUSH1 0x1 PUSH1 0x1 PUSH1 0xA0 SHL SUB AND PUSH1 0x0 SWAP1 DUP2 MSTORE PUSH1 0x1 PUSH1 0x20 MSTORE PUSH1 0x40 SWAP1 KECCAK256 SLOAD PUSH1 0xFF AND SWAP1 JUMP JUMPDEST PUSH1 0x3 SLOAD PUSH1 0x1 PUSH1 0x1 PUSH1 0xA0 SHL SUB AND ISZERO PUSH2 0x9C1 JUMPI PUSH1 0x40 MLOAD PUSH3 0x461BCD PUSH1 0xE5 SHL DUP2 MSTORE PUSH1 0x4 ADD PUSH2 0x4DF SWAP1 PUSH2 0xEF1 JUMP JUMPDEST PUSH1 0x3 DUP1 SLOAD PUSH1 0x1 PUSH1 0x1 PUSH1 0xA0 SHL SUB NOT AND CALLER OR SWAP1 SSTORE JUMP JUMPDEST PUSH1 0x40 MLOAD DUP1 PUSH1 0xE0 ADD PUSH1 0x40 MSTORE DUP1 PUSH1 0x0 PUSH1 0x1 PUSH1 0x1 PUSH1 0xA0 SHL SUB AND DUP2 MSTORE PUSH1 0x20 ADD PUSH1 0x0 PUSH1 0x1 PUSH1 0x1 PUSH1 0xA0 SHL SUB AND DUP2 MSTORE PUSH1 0x20 ADD PUSH1 0x60 DUP2 MSTORE PUSH1 0x20 ADD PUSH1 0x0 DUP2 MSTORE PUSH1 0x20 ADD PUSH1 0x0 DUP2 MSTORE PUSH1 0x20 ADD PUSH1 0x0 DUP2 MSTORE PUSH1 0x20 ADD PUSH1 0x0 DUP2 MSTORE POP SWAP1 JUMP JUMPDEST DUP3 DUP1 SLOAD PUSH1 0x1 DUP2 PUSH1 0x1 AND ISZERO PUSH2 0x100 MUL SUB AND PUSH1 0x2 SWAP1 DIV SWAP1 PUSH1 0x0 MSTORE PUSH1 0x20 PUSH1 0x0 KECCAK256 SWAP1 PUSH1 0x1F ADD PUSH1 0x20 SWAP1 DIV DUP2 ADD SWAP3 DUP3 PUSH1 0x1F LT PUSH2 0xA65 JUMPI DUP3 DUP1 ADD PUSH1 0xFF NOT DUP3 CALLDATALOAD AND OR DUP6 SSTORE PUSH2 0xA92 JUMP JUMPDEST DUP3 DUP1 ADD PUSH1 0x1 ADD DUP6 SSTORE DUP3 ISZERO PUSH2 0xA92 JUMPI SWAP2 DUP3 ADD JUMPDEST DUP3 DUP2 GT ISZERO PUSH2 0xA92 JUMPI DUP3 CALLDATALOAD DUP3 SSTORE SWAP2 PUSH1 0x20 ADD SWAP2 SWAP1 PUSH1 0x1 ADD SWAP1 PUSH2 0xA77 JUMP JUMPDEST POP PUSH2 0xA9E SWAP3 SWAP2 POP PUSH2 0xB10 JUMP JUMPDEST POP SWAP1 JUMP JUMPDEST DUP3 DUP1 SLOAD PUSH1 0x1 DUP2 PUSH1 0x1 AND ISZERO PUSH2 0x100 MUL SUB AND PUSH1 0x2 SWAP1 DIV SWAP1 PUSH1 0x0 MSTORE PUSH1 0x20 PUSH1 0x0 KECCAK256 SWAP1 PUSH1 0x1F ADD PUSH1 0x20 SWAP1 DIV DUP2 ADD SWAP3 DUP3 PUSH1 0x1F LT PUSH2 0xAE3 JUMPI DUP1 MLOAD PUSH1 0xFF NOT AND DUP4 DUP1 ADD OR DUP6 SSTORE PUSH2 0xA92 JUMP JUMPDEST DUP3 DUP1 ADD PUSH1 0x1 ADD DUP6 SSTORE DUP3 ISZERO PUSH2 0xA92 JUMPI SWAP2 DUP3 ADD JUMPDEST DUP3 DUP2 GT ISZERO PUSH2 0xA92 JUMPI DUP3 MLOAD DUP3 SSTORE SWAP2 PUSH1 0x20 ADD SWAP2 SWAP1 PUSH1 0x1 ADD SWAP1 PUSH2 0xAF5 JUMP JUMPDEST PUSH2 0x401 SWAP2 SWAP1 JUMPDEST DUP1 DUP3 GT ISZERO PUSH2 0xA9E JUMPI PUSH1 0x0 DUP2 SSTORE PUSH1 0x1 ADD PUSH2 0xB16 JUMP JUMPDEST PUSH1 0x0 DUP1 DUP4 PUSH1 0x1F DUP5 ADD SLT PUSH2 0xB3B JUMPI DUP2 DUP3 REVERT JUMPDEST POP DUP2 CALLDATALOAD PUSH8 0xFFFFFFFFFFFFFFFF DUP2 GT ISZERO PUSH2 0xB52 JUMPI DUP2 DUP3 REVERT JUMPDEST PUSH1 0x20 DUP4 ADD SWAP2 POP DUP4 PUSH1 0x20 DUP3 DUP6 ADD ADD GT ISZERO PUSH2 0xB6A JUMPI PUSH1 0x0 DUP1 REVERT JUMPDEST SWAP3 POP SWAP3 SWAP1 POP JUMP JUMPDEST PUSH1 0x0 PUSH1 0x20 DUP3 DUP5 SUB SLT ISZERO PUSH2 0xB82 JUMPI DUP1 DUP2 REVERT JUMPDEST DUP2 CALLDATALOAD PUSH2 0xB8D DUP2 PUSH2 0xFD6 JUMP JUMPDEST SWAP4 SWAP3 POP POP POP JUMP JUMPDEST PUSH1 0x0 PUSH1 0x20 DUP3 DUP5 SUB SLT ISZERO PUSH2 0xBA5 JUMPI DUP1 DUP2 REVERT JUMPDEST DUP2 MLOAD PUSH2 0xB8D DUP2 PUSH2 0xFD6 JUMP JUMPDEST PUSH1 0x0 DUP1 PUSH1 0x0 DUP1 PUSH1 0x60 DUP6 DUP8 SUB SLT ISZERO PUSH2 0xBC5 JUMPI DUP3 DUP4 REVERT JUMPDEST DUP5 CALLDATALOAD PUSH2 0xBD0 DUP2 PUSH2 0xFD6 JUMP JUMPDEST SWAP4 POP PUSH1 0x20 DUP6 ADD CALLDATALOAD PUSH2 0xBE0 DUP2 PUSH2 0xFD6 JUMP JUMPDEST SWAP3 POP PUSH1 0x40 DUP6 ADD CALLDATALOAD PUSH8 0xFFFFFFFFFFFFFFFF DUP2 GT ISZERO PUSH2 0xBFB JUMPI DUP3 DUP4 REVERT JUMPDEST PUSH2 0xC07 DUP8 DUP3 DUP9 ADD PUSH2 0xB2A JUMP JUMPDEST SWAP6 SWAP9 SWAP5 SWAP8 POP SWAP6 POP POP POP POP JUMP JUMPDEST PUSH1 0x0 DUP1 PUSH1 0x0 PUSH1 0x40 DUP5 DUP7 SUB SLT ISZERO PUSH2 0xC27 JUMPI DUP3 DUP4 REVERT JUMPDEST DUP4 CALLDATALOAD PUSH8 0xFFFFFFFFFFFFFFFF DUP2 GT ISZERO PUSH2 0xC3D JUMPI DUP4 DUP5 REVERT JUMPDEST PUSH2 0xC49 DUP7 DUP3 DUP8 ADD PUSH2 0xB2A JUMP JUMPDEST SWAP1 SWAP8 SWAP1 SWAP7 POP PUSH1 0x20 SWAP6 SWAP1 SWAP6 ADD CALLDATALOAD SWAP5 SWAP4 POP POP POP POP JUMP JUMPDEST PUSH1 0x0 PUSH1 0x20 DUP3 DUP5 SUB SLT ISZERO PUSH2 0xC6E JUMPI DUP1 DUP2 REVERT JUMPDEST POP MLOAD SWAP2 SWAP1 POP JUMP JUMPDEST PUSH1 0x20 DUP1 DUP3 MSTORE DUP3 MLOAD DUP3 DUP3 ADD DUP2 SWAP1 MSTORE PUSH1 0x0 SWAP2 SWAP1 PUSH1 0x40 SWAP1 DUP2 DUP6 ADD SWAP1 DUP1 DUP5 MUL DUP7 ADD DUP4 ADD DUP8 DUP6 ADD DUP7 JUMPDEST DUP4 DUP2 LT ISZERO PUSH2 0xD39 JUMPI PUSH1 0x3F NOT DUP10 DUP5 SUB ADD DUP6 MSTORE DUP2 MLOAD PUSH1 0xE0 PUSH2 0xCB8 DUP3 MLOAD PUSH2 0xF9A JUMP JUMPDEST DUP6 MSTORE DUP2 DUP10 ADD MLOAD PUSH1 0x1 PUSH1 0x1 PUSH1 0xA0 SHL SUB AND DUP10 DUP7 ADD MSTORE DUP8 DUP3 ADD MLOAD DUP9 DUP7 ADD DUP3 SWAP1 MSTORE DUP1 MLOAD PUSH2 0xCE3 DUP2 DUP5 DUP10 ADD PUSH2 0xF85 JUMP JUMPDEST PUSH2 0xCF0 DUP3 DUP3 DUP15 DUP7 ADD PUSH2 0xFA6 JUMP JUMPDEST PUSH1 0x60 DUP6 DUP2 ADD MLOAD SWAP1 DUP10 ADD MSTORE PUSH1 0x80 DUP1 DUP7 ADD MLOAD SWAP1 DUP10 ADD MSTORE PUSH1 0xA0 DUP1 DUP7 ADD MLOAD SWAP1 DUP10 ADD MSTORE PUSH1 0xC0 SWAP5 DUP6 ADD MLOAD SWAP5 SWAP1 SWAP8 ADD SWAP4 SWAP1 SWAP4 MSTORE POP POP SWAP5 DUP8 ADD SWAP5 PUSH1 0x1F ADD PUSH1 0x1F NOT AND SWAP1 SWAP3 ADD SWAP2 SWAP1 DUP7 ADD SWAP1 PUSH1 0x1 ADD PUSH2 0xC99 JUMP JUMPDEST POP SWAP1 SWAP9 SWAP8 POP POP POP POP POP POP POP POP JUMP JUMPDEST SWAP1 ISZERO ISZERO DUP2 MSTORE PUSH1 0x20 ADD SWAP1 JUMP JUMPDEST PUSH1 0x0 PUSH1 0x60 DUP3 MSTORE DUP5 PUSH1 0x60 DUP4 ADD MSTORE DUP5 DUP7 PUSH1 0x80 DUP5 ADD CALLDATACOPY DUP1 PUSH1 0x80 DUP7 DUP5 ADD ADD MSTORE PUSH1 0x80 PUSH1 0x1F NOT PUSH1 0x1F DUP8 ADD AND DUP4 ADD ADD SWAP1 POP DUP4 PUSH1 0x20 DUP4 ADD MSTORE DUP3 PUSH1 0x40 DUP4 ADD MSTORE SWAP6 SWAP5 POP POP POP POP POP JUMP JUMPDEST PUSH1 0x0 PUSH1 0x60 DUP3 ADD PUSH1 0x60 DUP4 MSTORE DUP2 DUP7 SLOAD PUSH1 0x1 DUP1 DUP3 AND PUSH1 0x0 DUP2 EQ PUSH2 0xDB8 JUMPI PUSH1 0x1 DUP2 EQ PUSH2 0xDD6 JUMPI PUSH2 0xE0F JUMP JUMPDEST PUSH1 0x2 DUP4 DIV PUSH1 0x7F AND DUP6 MSTORE PUSH1 0xFF NOT DUP4 AND PUSH1 0x80 DUP9 ADD MSTORE PUSH1 0xA0 DUP8 ADD SWAP4 POP PUSH2 0xE0F JUMP JUMPDEST PUSH1 0x2 DUP4 DIV DUP1 DUP7 MSTORE PUSH2 0xDE6 DUP12 PUSH2 0xF8E JUMP JUMPDEST DUP8 JUMPDEST DUP3 DUP2 LT ISZERO PUSH2 0xE05 JUMPI DUP2 SLOAD DUP11 DUP3 ADD PUSH1 0x80 ADD MSTORE SWAP1 DUP5 ADD SWAP1 PUSH1 0x20 ADD PUSH2 0xDE8 JUMP JUMPDEST DUP10 ADD PUSH1 0x80 ADD SWAP6 POP POP POP JUMPDEST POP POP POP PUSH1 0x20 DUP5 ADD SWAP6 SWAP1 SWAP6 MSTORE POP POP PUSH1 0x40 ADD MSTORE SWAP2 SWAP1 POP JUMP JUMPDEST PUSH1 0x20 DUP1 DUP3 MSTORE PUSH1 0x21 SWAP1 DUP3 ADD MSTORE PUSH32 0x43616E206F6E6C79206265206D6F64696669656420627920746865206F776E65 PUSH1 0x40 DUP3 ADD MSTORE PUSH1 0x39 PUSH1 0xF9 SHL PUSH1 0x60 DUP3 ADD MSTORE PUSH1 0x80 ADD SWAP1 JUMP JUMPDEST PUSH1 0x20 DUP1 DUP3 MSTORE PUSH1 0x34 SWAP1 DUP3 ADD MSTORE PUSH32 0x53686F756C64206F6E6C792062652063616C6C6564207573696E672074686520 PUSH1 0x40 DUP3 ADD MSTORE PUSH20 0x14D310549959DA5CDD1C9E4818DBDB9D1C9858DD PUSH1 0x62 SHL PUSH1 0x60 DUP3 ADD MSTORE PUSH1 0x80 ADD SWAP1 JUMP JUMPDEST PUSH1 0x20 DUP1 DUP3 MSTORE PUSH1 0x1C SWAP1 DUP3 ADD MSTORE PUSH32 0x6D657373656E67657220616C7265616479207265676973746572656400000000 PUSH1 0x40 DUP3 ADD MSTORE PUSH1 0x60 ADD SWAP1 JUMP JUMPDEST PUSH1 0x20 DUP1 DUP3 MSTORE PUSH1 0x28 SWAP1 DUP3 ADD MSTORE PUSH32 0x534C41526567697374727920616464726573732068617320616C726561647920 PUSH1 0x40 DUP3 ADD MSTORE PUSH8 0x1899595B881CD95D PUSH1 0xC2 SHL PUSH1 0x60 DUP3 ADD MSTORE PUSH1 0x80 ADD SWAP1 JUMP JUMPDEST PUSH1 0x20 DUP1 DUP3 MSTORE PUSH1 0x2C SWAP1 DUP3 ADD MSTORE PUSH32 0x53686F756C64206F6E6C792062652063616C6C656420627920746865206D6573 PUSH1 0x40 DUP3 ADD MSTORE PUSH12 0x39B2B733B2B91037BBB732B9 PUSH1 0xA1 SHL PUSH1 0x60 DUP3 ADD MSTORE PUSH1 0x80 ADD SWAP1 JUMP JUMPDEST SWAP1 DUP2 MSTORE PUSH1 0x20 ADD SWAP1 JUMP JUMPDEST PUSH1 0x0 SWAP1 DUP2 MSTORE PUSH1 0x20 SWAP1 KECCAK256 SWAP1 JUMP JUMPDEST PUSH1 0x1 PUSH1 0x1 PUSH1 0xA0 SHL SUB AND SWAP1 JUMP JUMPDEST PUSH1 0x0 JUMPDEST DUP4 DUP2 LT ISZERO PUSH2 0xFC1 JUMPI DUP2 DUP2 ADD MLOAD DUP4 DUP3 ADD MSTORE PUSH1 0x20 ADD PUSH2 0xFA9 JUMP JUMPDEST DUP4 DUP2 GT ISZERO PUSH2 0xFD0 JUMPI PUSH1 0x0 DUP5 DUP5 ADD MSTORE JUMPDEST POP POP POP POP JUMP JUMPDEST PUSH1 0x1 PUSH1 0x1 PUSH1 0xA0 SHL SUB DUP2 AND DUP2 EQ PUSH2 0xFEB JUMPI PUSH1 0x0 DUP1 REVERT JUMPDEST POP JUMP INVALID LOG2 PUSH5 0x6970667358 0x22 SLT KECCAK256 0xCA 0x4D 0xB1 PUSH12 0x8AE8D00C2A60E495AA1C8F38 0x1F 0xED DUP10 0xB6 GT SUB DUP4 LOG0 0xB9 DELEGATECALL PUSH29 0x653616E24F64736F6C6343000606003300000000000000000000000000 "
    }
  }
}