{
  "abi": [
    {
      "anonymous": false,
      "inputs": [
        {
          "indexed": true,
          "internalType": "address",
          "name": "sla",
          "type": "address"
        },
        {
          "indexed": false,
          "internalType": "uint256",
          "name": "sloValue",
          "type": "uint256"
        },
        {
          "indexed": false,
          "internalType": "enum SLORegistry.SLOType",
          "name": "sloType",
          "type": "uint8"
        }
      ],
      "name": "SLORegistered",
      "type": "event"
    },
    {
      "inputs": [
        {
          "internalType": "uint256",
          "name": "_sli",
          "type": "uint256"
        },
        {
          "internalType": "address",
          "name": "_slaAddress",
          "type": "address"
        },
        {
          "internalType": "uint256",
          "name": "_precision",
          "type": "uint256"
        }
      ],
      "name": "getDeviation",
      "outputs": [
        {
          "internalType": "uint256",
          "name": "",
          "type": "uint256"
        }
      ],
      "stateMutability": "view",
      "type": "function"
    },
    {
      "inputs": [
        {
          "internalType": "uint256",
          "name": "_value",
          "type": "uint256"
        },
        {
          "internalType": "address",
          "name": "_slaAddress",
          "type": "address"
        }
      ],
      "name": "isRespected",
      "outputs": [
        {
          "internalType": "bool",
          "name": "",
          "type": "bool"
        }
      ],
      "stateMutability": "view",
      "type": "function"
    },
    {
      "inputs": [
        {
          "internalType": "uint256",
          "name": "_sloValue",
          "type": "uint256"
        },
        {
          "internalType": "enum SLORegistry.SLOType",
          "name": "_sloType",
          "type": "uint8"
        },
        {
          "internalType": "address",
          "name": "_slaAddress",
          "type": "address"
        }
      ],
      "name": "registerSLO",
      "outputs": [],
      "stateMutability": "nonpayable",
      "type": "function"
    },
    {
      "inputs": [
        {
          "internalType": "address",
          "name": "",
          "type": "address"
        }
      ],
      "name": "registeredSLO",
      "outputs": [
        {
          "internalType": "uint256",
          "name": "sloValue",
          "type": "uint256"
        },
        {
          "internalType": "enum SLORegistry.SLOType",
          "name": "sloType",
          "type": "uint8"
        }
      ],
      "stateMutability": "view",
      "type": "function"
    },
    {
      "inputs": [],
      "name": "setSLARegistry",
      "outputs": [],
      "stateMutability": "nonpayable",
      "type": "function"
    }
  ],
  "evm": {
    "bytecode": {
      "linkReferences": {},
      "object": "608060405234801561001057600080fd5b50610927806100206000396000f3fe608060405234801561001057600080fd5b50600436106100575760003560e01c80630c7ad72b1461005c5780631993b9df1461007157806370c4c6c51461009a578063a7b72ac5146100ba578063f3881589146100db575b600080fd5b61006f61006a366004610673565b6100e3565b005b61008461007f366004610612565b6101c2565b60405161009191906106b4565b60405180910390f35b6100ad6100a836600461063e565b610304565b60405161009191906108ca565b6100cd6100c83660046105f7565b6104b7565b6040516100919291906108d3565b61006f6104d3565b6000546001600160a01b031633146101165760405162461bcd60e51b815260040161010d906106f6565b60405180910390fd5b604051806040016040528084815260200183600581111561013357fe5b90526001600160a01b0382166000908152600160208181526040909220835181559183015182820180549192909160ff19169083600581111561017257fe5b0217905550905050806001600160a01b03167fc382b63ab3cdf2c0a86390b2ea6449f63ca4135a3feb56acebddc929412d45a984846040516101b59291906108d3565b60405180910390a2505050565b60006101cc6105c9565b6001600160a01b038316600090815260016020818152604092839020835180850190945280548452918201549083019060ff16600581111561020a57fe5b600581111561021557fe5b9052506020810151815191925090600082600581111561023157fe5b141561024357851492506102fe915050565b600182600581111561025157fe5b14156102645785141592506102fe915050565b600282600581111561027257fe5b141561028457851092506102fe915050565b600382600581111561029257fe5b14156102a55785111592506102fe915050565b60048260058111156102b357fe5b14156102c557851192506102fe915050565b60058260058111156102d357fe5b14156102e65785101592506102fe915050565b60405162461bcd60e51b815260040161010d90610886565b92915050565b60008361030f6105c9565b6001600160a01b038516600090815260016020818152604092839020835180850190945280548452918201549083019060ff16600581111561034d57fe5b600581111561035857fe5b90525060208101518151919250908560006103ca61038d6002610381898763ffffffff61051016565b9063ffffffff61053516565b61038184868e10156103ae576103a9878f63ffffffff61056716565b6103be565b6103be8e8863ffffffff61056716565b9063ffffffff61058f16565b905060008460058111156103da57fe5b14156103f05750600195506104b0945050505050565b60018460058111156103fe57fe5b14156104145750600195506104b0945050505050565b600284600581111561042257fe5b14156104355795506104b0945050505050565b600384600581111561044357fe5b14156104565795506104b0945050505050565b600484600581111561046457fe5b14156104775795506104b0945050505050565b600584600581111561048557fe5b14156104985795506104b0945050505050565b60405162461bcd60e51b815260040161010d90610800565b9392505050565b6001602081905260009182526040909120805491015460ff1682565b6000546001600160a01b0316156104fc5760405162461bcd60e51b815260040161010d906107b8565b600080546001600160a01b03191633179055565b6000828201838110156104b05760405162461bcd60e51b815260040161010d906106bf565b60008082116105565760405162461bcd60e51b815260040161010d90610781565b81838161055f57fe5b049392505050565b6000828211156105895760405162461bcd60e51b815260040161010d9061074a565b50900390565b60008261059e575060006102fe565b828202828482816105ab57fe5b04146104b05760405162461bcd60e51b815260040161010d90610845565b604080518082019091526000808252602082015290565b80356001600160a01b03811681146102fe57600080fd5b600060208284031215610608578081fd5b6104b083836105e0565b60008060408385031215610624578081fd5b8235915061063584602085016105e0565b90509250929050565b600080600060608486031215610652578081fd5b8335925061066385602086016105e0565b9150604084013590509250925092565b600080600060608486031215610687578283fd5b8335925060208401356006811061069c578283fd5b91506106ab85604086016105e0565b90509250925092565b901515815260200190565b6020808252601b908201527f536166654d6174683a206164646974696f6e206f766572666c6f770000000000604082015260600190565b60208082526034908201527f53686f756c64206f6e6c792062652063616c6c6564207573696e67207468652060408201527314d310549959da5cdd1c9e4818dbdb9d1c9858dd60621b606082015260800190565b6020808252601e908201527f536166654d6174683a207375627472616374696f6e206f766572666c6f770000604082015260600190565b6020808252601a908201527f536166654d6174683a206469766973696f6e206279207a65726f000000000000604082015260600190565b60208082526028908201527f534c41526567697374727920616464726573732068617320616c7265616479206040820152671899595b881cd95d60c21b606082015260800190565b60208082526025908201527f676574446576696174696f6e207761736e27742065786563757465642070726f6040820152647065726c7960d81b606082015260800190565b60208082526021908201527f536166654d6174683a206d756c7469706c69636174696f6e206f766572666c6f6040820152607760f81b606082015260800190565b60208082526024908201527f6973526573706563746564207761736e27742065786563757465642070726f7060408201526365726c7960e01b606082015260800190565b90815260200190565b82815260408101600683106108e457fe5b826020830152939250505056fea264697066735822122019fbba3581058d65dede4bdc331afd70a5550d89bc8f090f7a36965bb5c46e7064736f6c63430006060033",
      "opcodes": "PUSH1 0x80 PUSH1 0x40 MSTORE CALLVALUE DUP1 ISZERO PUSH2 0x10 JUMPI PUSH1 0x0 DUP1 REVERT JUMPDEST POP PUSH2 0x927 DUP1 PUSH2 0x20 PUSH1 0x0 CODECOPY PUSH1 0x0 RETURN INVALID PUSH1 0x80 PUSH1 0x40 MSTORE CALLVALUE DUP1 ISZERO PUSH2 0x10 JUMPI PUSH1 0x0 DUP1 REVERT JUMPDEST POP PUSH1 0x4 CALLDATASIZE LT PUSH2 0x57 JUMPI PUSH1 0x0 CALLDATALOAD PUSH1 0xE0 SHR DUP1 PUSH4 0xC7AD72B EQ PUSH2 0x5C JUMPI DUP1 PUSH4 0x1993B9DF EQ PUSH2 0x71 JUMPI DUP1 PUSH4 0x70C4C6C5 EQ PUSH2 0x9A JUMPI DUP1 PUSH4 0xA7B72AC5 EQ PUSH2 0xBA JUMPI DUP1 PUSH4 0xF3881589 EQ PUSH2 0xDB JUMPI JUMPDEST PUSH1 0x0 DUP1 REVERT JUMPDEST PUSH2 0x6F PUSH2 0x6A CALLDATASIZE PUSH1 0x4 PUSH2 0x673 JUMP JUMPDEST PUSH2 0xE3 JUMP JUMPDEST STOP JUMPDEST PUSH2 0x84 PUSH2 0x7F CALLDATASIZE PUSH1 0x4 PUSH2 0x612 JUMP JUMPDEST PUSH2 0x1C2 JUMP JUMPDEST PUSH1 0x40 MLOAD PUSH2 0x91 SWAP2 SWAP1 PUSH2 0x6B4 JUMP JUMPDEST PUSH1 0x40 MLOAD DUP1 SWAP2 SUB SWAP1 RETURN JUMPDEST PUSH2 0xAD PUSH2 0xA8 CALLDATASIZE PUSH1 0x4 PUSH2 0x63E JUMP JUMPDEST PUSH2 0x304 JUMP JUMPDEST PUSH1 0x40 MLOAD PUSH2 0x91 SWAP2 SWAP1 PUSH2 0x8CA JUMP JUMPDEST PUSH2 0xCD PUSH2 0xC8 CALLDATASIZE PUSH1 0x4 PUSH2 0x5F7 JUMP JUMPDEST PUSH2 0x4B7 JUMP JUMPDEST PUSH1 0x40 MLOAD PUSH2 0x91 SWAP3 SWAP2 SWAP1 PUSH2 0x8D3 JUMP JUMPDEST PUSH2 0x6F PUSH2 0x4D3 JUMP JUMPDEST PUSH1 0x0 SLOAD PUSH1 0x1 PUSH1 0x1 PUSH1 0xA0 SHL SUB AND CALLER EQ PUSH2 0x116 JUMPI PUSH1 0x40 MLOAD PUSH3 0x461BCD PUSH1 0xE5 SHL DUP2 MSTORE PUSH1 0x4 ADD PUSH2 0x10D SWAP1 PUSH2 0x6F6 JUMP JUMPDEST PUSH1 0x40 MLOAD DUP1 SWAP2 SUB SWAP1 REVERT JUMPDEST PUSH1 0x40 MLOAD DUP1 PUSH1 0x40 ADD PUSH1 0x40 MSTORE DUP1 DUP5 DUP2 MSTORE PUSH1 0x20 ADD DUP4 PUSH1 0x5 DUP2 GT ISZERO PUSH2 0x133 JUMPI INVALID JUMPDEST SWAP1 MSTORE PUSH1 0x1 PUSH1 0x1 PUSH1 0xA0 SHL SUB DUP3 AND PUSH1 0x0 SWAP1 DUP2 MSTORE PUSH1 0x1 PUSH1 0x20 DUP2 DUP2 MSTORE PUSH1 0x40 SWAP1 SWAP3 KECCAK256 DUP4 MLOAD DUP2 SSTORE SWAP2 DUP4 ADD MLOAD DUP3 DUP3 ADD DUP1 SLOAD SWAP2 SWAP3 SWAP1 SWAP2 PUSH1 0xFF NOT AND SWAP1 DUP4 PUSH1 0x5 DUP2 GT ISZERO PUSH2 0x172 JUMPI INVALID JUMPDEST MUL OR SWAP1 SSTORE POP SWAP1 POP POP DUP1 PUSH1 0x1 PUSH1 0x1 PUSH1 0xA0 SHL SUB AND PUSH32 0xC382B63AB3CDF2C0A86390B2EA6449F63CA4135A3FEB56ACEBDDC929412D45A9 DUP5 DUP5 PUSH1 0x40 MLOAD PUSH2 0x1B5 SWAP3 SWAP2 SWAP1 PUSH2 0x8D3 JUMP JUMPDEST PUSH1 0x40 MLOAD DUP1 SWAP2 SUB SWAP1 LOG2 POP POP POP JUMP JUMPDEST PUSH1 0x0 PUSH2 0x1CC PUSH2 0x5C9 JUMP JUMPDEST PUSH1 0x1 PUSH1 0x1 PUSH1 0xA0 SHL SUB DUP4 AND PUSH1 0x0 SWAP1 DUP2 MSTORE PUSH1 0x1 PUSH1 0x20 DUP2 DUP2 MSTORE PUSH1 0x40 SWAP3 DUP4 SWAP1 KECCAK256 DUP4 MLOAD DUP1 DUP6 ADD SWAP1 SWAP5 MSTORE DUP1 SLOAD DUP5 MSTORE SWAP2 DUP3 ADD SLOAD SWAP1 DUP4 ADD SWAP1 PUSH1 0xFF AND PUSH1 0x5 DUP2 GT ISZERO PUSH2 0x20A JUMPI INVALID JUMPDEST PUSH1 0x5 DUP2 GT ISZERO PUSH2 0x215 JUMPI INVALID JUMPDEST SWAP1 MSTORE POP PUSH1 0x20 DUP2 ADD MLOAD DUP2 MLOAD SWAP2 SWAP3 POP SWAP1 PUSH1 0x0 DUP3 PUSH1 0x5 DUP2 GT ISZERO PUSH2 0x231 JUMPI INVALID JUMPDEST EQ ISZERO PUSH2 0x243 JUMPI DUP6 EQ SWAP3 POP PUSH2 0x2FE SWAP2 POP POP JUMP JUMPDEST PUSH1 0x1 DUP3 PUSH1 0x5 DUP2 GT ISZERO PUSH2 0x251 JUMPI INVALID JUMPDEST EQ ISZERO PUSH2 0x264 JUMPI DUP6 EQ ISZERO SWAP3 POP PUSH2 0x2FE SWAP2 POP POP JUMP JUMPDEST PUSH1 0x2 DUP3 PUSH1 0x5 DUP2 GT ISZERO PUSH2 0x272 JUMPI INVALID JUMPDEST EQ ISZERO PUSH2 0x284 JUMPI DUP6 LT SWAP3 POP PUSH2 0x2FE SWAP2 POP POP JUMP JUMPDEST PUSH1 0x3 DUP3 PUSH1 0x5 DUP2 GT ISZERO PUSH2 0x292 JUMPI INVALID JUMPDEST EQ ISZERO PUSH2 0x2A5 JUMPI DUP6 GT ISZERO SWAP3 POP PUSH2 0x2FE SWAP2 POP POP JUMP JUMPDEST PUSH1 0x4 DUP3 PUSH1 0x5 DUP2 GT ISZERO PUSH2 0x2B3 JUMPI INVALID JUMPDEST EQ ISZERO PUSH2 0x2C5 JUMPI DUP6 GT SWAP3 POP PUSH2 0x2FE SWAP2 POP POP JUMP JUMPDEST PUSH1 0x5 DUP3 PUSH1 0x5 DUP2 GT ISZERO PUSH2 0x2D3 JUMPI INVALID JUMPDEST EQ ISZERO PUSH2 0x2E6 JUMPI DUP6 LT ISZERO SWAP3 POP PUSH2 0x2FE SWAP2 POP POP JUMP JUMPDEST PUSH1 0x40 MLOAD PUSH3 0x461BCD PUSH1 0xE5 SHL DUP2 MSTORE PUSH1 0x4 ADD PUSH2 0x10D SWAP1 PUSH2 0x886 JUMP JUMPDEST SWAP3 SWAP2 POP POP JUMP JUMPDEST PUSH1 0x0 DUP4 PUSH2 0x30F PUSH2 0x5C9 JUMP JUMPDEST PUSH1 0x1 PUSH1 0x1 PUSH1 0xA0 SHL SUB DUP6 AND PUSH1 0x0 SWAP1 DUP2 MSTORE PUSH1 0x1 PUSH1 0x20 DUP2 DUP2 MSTORE PUSH1 0x40 SWAP3 DUP4 SWAP1 KECCAK256 DUP4 MLOAD DUP1 DUP6 ADD SWAP1 SWAP5 MSTORE DUP1 SLOAD DUP5 MSTORE SWAP2 DUP3 ADD SLOAD SWAP1 DUP4 ADD SWAP1 PUSH1 0xFF AND PUSH1 0x5 DUP2 GT ISZERO PUSH2 0x34D JUMPI INVALID JUMPDEST PUSH1 0x5 DUP2 GT ISZERO PUSH2 0x358 JUMPI INVALID JUMPDEST SWAP1 MSTORE POP PUSH1 0x20 DUP2 ADD MLOAD DUP2 MLOAD SWAP2 SWAP3 POP SWAP1 DUP6 PUSH1 0x0 PUSH2 0x3CA PUSH2 0x38D PUSH1 0x2 PUSH2 0x381 DUP10 DUP8 PUSH4 0xFFFFFFFF PUSH2 0x510 AND JUMP JUMPDEST SWAP1 PUSH4 0xFFFFFFFF PUSH2 0x535 AND JUMP JUMPDEST PUSH2 0x381 DUP5 DUP7 DUP15 LT ISZERO PUSH2 0x3AE JUMPI PUSH2 0x3A9 DUP8 DUP16 PUSH4 0xFFFFFFFF PUSH2 0x567 AND JUMP JUMPDEST PUSH2 0x3BE JUMP JUMPDEST PUSH2 0x3BE DUP15 DUP9 PUSH4 0xFFFFFFFF PUSH2 0x567 AND JUMP JUMPDEST SWAP1 PUSH4 0xFFFFFFFF PUSH2 0x58F AND JUMP JUMPDEST SWAP1 POP PUSH1 0x0 DUP5 PUSH1 0x5 DUP2 GT ISZERO PUSH2 0x3DA JUMPI INVALID JUMPDEST EQ ISZERO PUSH2 0x3F0 JUMPI POP PUSH1 0x1 SWAP6 POP PUSH2 0x4B0 SWAP5 POP POP POP POP POP JUMP JUMPDEST PUSH1 0x1 DUP5 PUSH1 0x5 DUP2 GT ISZERO PUSH2 0x3FE JUMPI INVALID JUMPDEST EQ ISZERO PUSH2 0x414 JUMPI POP PUSH1 0x1 SWAP6 POP PUSH2 0x4B0 SWAP5 POP POP POP POP POP JUMP JUMPDEST PUSH1 0x2 DUP5 PUSH1 0x5 DUP2 GT ISZERO PUSH2 0x422 JUMPI INVALID JUMPDEST EQ ISZERO PUSH2 0x435 JUMPI SWAP6 POP PUSH2 0x4B0 SWAP5 POP POP POP POP POP JUMP JUMPDEST PUSH1 0x3 DUP5 PUSH1 0x5 DUP2 GT ISZERO PUSH2 0x443 JUMPI INVALID JUMPDEST EQ ISZERO PUSH2 0x456 JUMPI SWAP6 POP PUSH2 0x4B0 SWAP5 POP POP POP POP POP JUMP JUMPDEST PUSH1 0x4 DUP5 PUSH1 0x5 DUP2 GT ISZERO PUSH2 0x464 JUMPI INVALID JUMPDEST EQ ISZERO PUSH2 0x477 JUMPI SWAP6 POP PUSH2 0x4B0 SWAP5 POP POP POP POP POP JUMP JUMPDEST PUSH1 0x5 DUP5 PUSH1 0x5 DUP2 GT ISZERO PUSH2 0x485 JUMPI INVALID JUMPDEST EQ ISZERO PUSH2 0x498 JUMPI SWAP6 POP PUSH2 0x4B0 SWAP5 POP POP POP POP POP JUMP JUMPDEST PUSH1 0x40 MLOAD PUSH3 0x461BCD PUSH1 0xE5 SHL DUP2 MSTORE PUSH1 0x4 ADD PUSH2 0x10D SWAP1 PUSH2 0x800 JUMP JUMPDEST SWAP4 SWAP3 POP POP POP JUMP JUMPDEST PUSH1 0x1 PUSH1 0x20 DUP2 SWAP1 MSTORE PUSH1 0x0 SWAP2 DUP3 MSTORE PUSH1 0x40 SWAP1 SWAP2 KECCAK256 DUP1 SLOAD SWAP2 ADD SLOAD PUSH1 0xFF AND DUP3 JUMP JUMPDEST PUSH1 0x0 SLOAD PUSH1 0x1 PUSH1 0x1 PUSH1 0xA0 SHL SUB AND ISZERO PUSH2 0x4FC JUMPI PUSH1 0x40 MLOAD PUSH3 0x461BCD PUSH1 0xE5 SHL DUP2 MSTORE PUSH1 0x4 ADD PUSH2 0x10D SWAP1 PUSH2 0x7B8 JUMP JUMPDEST PUSH1 0x0 DUP1 SLOAD PUSH1 0x1 PUSH1 0x1 PUSH1 0xA0 SHL SUB NOT AND CALLER OR SWAP1 SSTORE JUMP JUMPDEST PUSH1 0x0 DUP3 DUP3 ADD DUP4 DUP2 LT ISZERO PUSH2 0x4B0 JUMPI PUSH1 0x40 MLOAD PUSH3 0x461BCD PUSH1 0xE5 SHL DUP2 MSTORE PUSH1 0x4 ADD PUSH2 0x10D SWAP1 PUSH2 0x6BF JUMP JUMPDEST PUSH1 0x0 DUP1 DUP3 GT PUSH2 0x556 JUMPI PUSH1 0x40 MLOAD PUSH3 0x461BCD PUSH1 0xE5 SHL DUP2 MSTORE PUSH1 0x4 ADD PUSH2 0x10D SWAP1 PUSH2 0x781 JUMP JUMPDEST DUP2 DUP4 DUP2 PUSH2 0x55F JUMPI INVALID JUMPDEST DIV SWAP4 SWAP3 POP POP POP JUMP JUMPDEST PUSH1 0x0 DUP3 DUP3 GT ISZERO PUSH2 0x589 JUMPI PUSH1 0x40 MLOAD PUSH3 0x461BCD PUSH1 0xE5 SHL DUP2 MSTORE PUSH1 0x4 ADD PUSH2 0x10D SWAP1 PUSH2 0x74A JUMP JUMPDEST POP SWAP1 SUB SWAP1 JUMP JUMPDEST PUSH1 0x0 DUP3 PUSH2 0x59E JUMPI POP PUSH1 0x0 PUSH2 0x2FE JUMP JUMPDEST DUP3 DUP3 MUL DUP3 DUP5 DUP3 DUP2 PUSH2 0x5AB JUMPI INVALID JUMPDEST DIV EQ PUSH2 0x4B0 JUMPI PUSH1 0x40 MLOAD PUSH3 0x461BCD PUSH1 0xE5 SHL DUP2 MSTORE PUSH1 0x4 ADD PUSH2 0x10D SWAP1 PUSH2 0x845 JUMP JUMPDEST PUSH1 0x40 DUP1 MLOAD DUP1 DUP3 ADD SWAP1 SWAP2 MSTORE PUSH1 0x0 DUP1 DUP3 MSTORE PUSH1 0x20 DUP3 ADD MSTORE SWAP1 JUMP JUMPDEST DUP1 CALLDATALOAD PUSH1 0x1 PUSH1 0x1 PUSH1 0xA0 SHL SUB DUP2 AND DUP2 EQ PUSH2 0x2FE JUMPI PUSH1 0x0 DUP1 REVERT JUMPDEST PUSH1 0x0 PUSH1 0x20 DUP3 DUP5 SUB SLT ISZERO PUSH2 0x608 JUMPI DUP1 DUP2 REVERT JUMPDEST PUSH2 0x4B0 DUP4 DUP4 PUSH2 0x5E0 JUMP JUMPDEST PUSH1 0x0 DUP1 PUSH1 0x40 DUP4 DUP6 SUB SLT ISZERO PUSH2 0x624 JUMPI DUP1 DUP2 REVERT JUMPDEST DUP3 CALLDATALOAD SWAP2 POP PUSH2 0x635 DUP5 PUSH1 0x20 DUP6 ADD PUSH2 0x5E0 JUMP JUMPDEST SWAP1 POP SWAP3 POP SWAP3 SWAP1 POP JUMP JUMPDEST PUSH1 0x0 DUP1 PUSH1 0x0 PUSH1 0x60 DUP5 DUP7 SUB SLT ISZERO PUSH2 0x652 JUMPI DUP1 DUP2 REVERT JUMPDEST DUP4 CALLDATALOAD SWAP3 POP PUSH2 0x663 DUP6 PUSH1 0x20 DUP7 ADD PUSH2 0x5E0 JUMP JUMPDEST SWAP2 POP PUSH1 0x40 DUP5 ADD CALLDATALOAD SWAP1 POP SWAP3 POP SWAP3 POP SWAP3 JUMP JUMPDEST PUSH1 0x0 DUP1 PUSH1 0x0 PUSH1 0x60 DUP5 DUP7 SUB SLT ISZERO PUSH2 0x687 JUMPI DUP3 DUP4 REVERT JUMPDEST DUP4 CALLDATALOAD SWAP3 POP PUSH1 0x20 DUP5 ADD CALLDATALOAD PUSH1 0x6 DUP2 LT PUSH2 0x69C JUMPI DUP3 DUP4 REVERT JUMPDEST SWAP2 POP PUSH2 0x6AB DUP6 PUSH1 0x40 DUP7 ADD PUSH2 0x5E0 JUMP JUMPDEST SWAP1 POP SWAP3 POP SWAP3 POP SWAP3 JUMP JUMPDEST SWAP1 ISZERO ISZERO DUP2 MSTORE PUSH1 0x20 ADD SWAP1 JUMP JUMPDEST PUSH1 0x20 DUP1 DUP3 MSTORE PUSH1 0x1B SWAP1 DUP3 ADD MSTORE PUSH32 0x536166654D6174683A206164646974696F6E206F766572666C6F770000000000 PUSH1 0x40 DUP3 ADD MSTORE PUSH1 0x60 ADD SWAP1 JUMP JUMPDEST PUSH1 0x20 DUP1 DUP3 MSTORE PUSH1 0x34 SWAP1 DUP3 ADD MSTORE PUSH32 0x53686F756C64206F6E6C792062652063616C6C6564207573696E672074686520 PUSH1 0x40 DUP3 ADD MSTORE PUSH20 0x14D310549959DA5CDD1C9E4818DBDB9D1C9858DD PUSH1 0x62 SHL PUSH1 0x60 DUP3 ADD MSTORE PUSH1 0x80 ADD SWAP1 JUMP JUMPDEST PUSH1 0x20 DUP1 DUP3 MSTORE PUSH1 0x1E SWAP1 DUP3 ADD MSTORE PUSH32 0x536166654D6174683A207375627472616374696F6E206F766572666C6F770000 PUSH1 0x40 DUP3 ADD MSTORE PUSH1 0x60 ADD SWAP1 JUMP JUMPDEST PUSH1 0x20 DUP1 DUP3 MSTORE PUSH1 0x1A SWAP1 DUP3 ADD MSTORE PUSH32 0x536166654D6174683A206469766973696F6E206279207A65726F000000000000 PUSH1 0x40 DUP3 ADD MSTORE PUSH1 0x60 ADD SWAP1 JUMP JUMPDEST PUSH1 0x20 DUP1 DUP3 MSTORE PUSH1 0x28 SWAP1 DUP3 ADD MSTORE PUSH32 0x534C41526567697374727920616464726573732068617320616C726561647920 PUSH1 0x40 DUP3 ADD MSTORE PUSH8 0x1899595B881CD95D PUSH1 0xC2 SHL PUSH1 0x60 DUP3 ADD MSTORE PUSH1 0x80 ADD SWAP1 JUMP JUMPDEST PUSH1 0x20 DUP1 DUP3 MSTORE PUSH1 0x25 SWAP1 DUP3 ADD MSTORE PUSH32 0x676574446576696174696F6E207761736E27742065786563757465642070726F PUSH1 0x40 DUP3 ADD MSTORE PUSH5 0x7065726C79 PUSH1 0xD8 SHL PUSH1 0x60 DUP3 ADD MSTORE PUSH1 0x80 ADD SWAP1 JUMP JUMPDEST PUSH1 0x20 DUP1 DUP3 MSTORE PUSH1 0x21 SWAP1 DUP3 ADD MSTORE PUSH32 0x536166654D6174683A206D756C7469706C69636174696F6E206F766572666C6F PUSH1 0x40 DUP3 ADD MSTORE PUSH1 0x77 PUSH1 0xF8 SHL PUSH1 0x60 DUP3 ADD MSTORE PUSH1 0x80 ADD SWAP1 JUMP JUMPDEST PUSH1 0x20 DUP1 DUP3 MSTORE PUSH1 0x24 SWAP1 DUP3 ADD MSTORE PUSH32 0x6973526573706563746564207761736E27742065786563757465642070726F70 PUSH1 0x40 DUP3 ADD MSTORE PUSH4 0x65726C79 PUSH1 0xE0 SHL PUSH1 0x60 DUP3 ADD MSTORE PUSH1 0x80 ADD SWAP1 JUMP JUMPDEST SWAP1 DUP2 MSTORE PUSH1 0x20 ADD SWAP1 JUMP JUMPDEST DUP3 DUP2 MSTORE PUSH1 0x40 DUP2 ADD PUSH1 0x6 DUP4 LT PUSH2 0x8E4 JUMPI INVALID JUMPDEST DUP3 PUSH1 0x20 DUP4 ADD MSTORE SWAP4 SWAP3 POP POP POP JUMP INVALID LOG2 PUSH5 0x6970667358 0x22 SLT KECCAK256 NOT 0xFB 0xBA CALLDATALOAD DUP2 SDIV DUP14 PUSH6 0xDEDE4BDC331A REVERT PUSH17 0xA5550D89BC8F090F7A36965BB5C46E7064 PUSH20 0x6F6C634300060600330000000000000000000000 "
    }
  }
}