{
  "contractName": "Details",
  "abi": [
    {
      "inputs": [
        {
          "internalType": "address",
          "name": "_slaAddress",
          "type": "address"
        }
      ],
      "name": "getSLADynamicDetails",
      "outputs": [
        {
          "internalType": "bool",
          "name": "breachedContract",
          "type": "bool"
        },
        {
          "internalType": "uint256",
          "name": "stakersCount",
          "type": "uint256"
        },
        {
          "internalType": "uint256",
          "name": "nextVerifiablePeriod",
          "type": "uint256"
        },
        {
          "internalType": "uint64",
          "name": "leverage",
          "type": "uint64"
        }
      ],
      "stateMutability": "view",
      "type": "function",
      "constant": true
    },
    {
      "inputs": [
        {
          "internalType": "address",
          "name": "_slaAddress",
          "type": "address"
        },
        {
          "internalType": "contract SLORegistry",
          "name": "_sloRegistry",
          "type": "address"
        }
      ],
      "name": "getSLAStaticDetails",
      "outputs": [
        {
          "internalType": "address",
          "name": "slaOwner",
          "type": "address"
        },
        {
          "internalType": "address",
          "name": "messengerAddress",
          "type": "address"
        },
        {
          "internalType": "uint256",
          "name": "sloValue",
          "type": "uint256"
        },
        {
          "internalType": "uint256",
          "name": "creationBlockNumber",
          "type": "uint256"
        },
        {
          "internalType": "uint256",
          "name": "slaId",
          "type": "uint256"
        },
        {
          "internalType": "uint128",
          "name": "initialPeriodId",
          "type": "uint128"
        },
        {
          "internalType": "uint128",
          "name": "finalPeriodId",
          "type": "uint128"
        },
        {
          "internalType": "bool",
          "name": "whiteListed",
          "type": "bool"
        },
        {
          "internalType": "enum PeriodRegistry.PeriodType",
          "name": "periodType",
          "type": "uint8"
        },
        {
          "internalType": "enum SLORegistry.SLOType",
          "name": "sloType",
          "type": "uint8"
        },
        {
          "internalType": "string",
          "name": "ipfsHash",
          "type": "string"
        }
      ],
      "stateMutability": "view",
      "type": "function",
      "constant": true
    },
    {
      "inputs": [
        {
          "internalType": "address",
          "name": "_slaAddress",
          "type": "address"
        }
      ],
      "name": "getSLADetailsArrays",
      "outputs": [
        {
          "components": [
            {
              "internalType": "uint256",
              "name": "timestamp",
              "type": "uint256"
            },
            {
              "internalType": "uint256",
              "name": "sli",
              "type": "uint256"
            },
            {
              "internalType": "enum SLA.Status",
              "name": "status",
              "type": "uint8"
            }
          ],
          "internalType": "struct SLA.PeriodSLI[]",
          "name": "periodSLIs",
          "type": "tuple[]"
        },
        {
          "components": [
            {
              "internalType": "address",
              "name": "tokenAddress",
              "type": "address"
            },
            {
              "internalType": "uint256",
              "name": "totalStake",
              "type": "uint256"
            },
            {
              "internalType": "uint256",
              "name": "usersPool",
              "type": "uint256"
            },
            {
              "internalType": "uint256",
              "name": "providerPool",
              "type": "uint256"
            }
          ],
          "internalType": "struct Details.TokenStake[]",
          "name": "tokensStake",
          "type": "tuple[]"
        }
      ],
      "stateMutability": "view",
      "type": "function",
      "constant": true
    },
    {
      "inputs": [
        {
          "internalType": "address",
          "name": "_slaAddress",
          "type": "address"
        },
        {
          "internalType": "address",
          "name": "_owner",
          "type": "address"
        }
      ],
      "name": "getDTokensDetails",
      "outputs": [
        {
          "components": [
            {
              "internalType": "address",
              "name": "tokenAddress",
              "type": "address"
            },
            {
              "internalType": "uint256",
              "name": "totalSupply",
              "type": "uint256"
            },
            {
              "internalType": "address",
              "name": "dTokenAddress",
              "type": "address"
            },
            {
              "internalType": "string",
              "name": "dTokenSymbol",
              "type": "string"
            },
            {
              "internalType": "string",
              "name": "dTokenName",
              "type": "string"
            },
            {
              "internalType": "uint256",
              "name": "balance",
              "type": "uint256"
            },
            {
              "internalType": "uint256",
              "name": "allowance",
              "type": "uint256"
            }
          ],
          "internalType": "struct Details.DtokenDetails[]",
          "name": "dpTokens",
          "type": "tuple[]"
        },
        {
          "components": [
            {
              "internalType": "address",
              "name": "tokenAddress",
              "type": "address"
            },
            {
              "internalType": "uint256",
              "name": "totalSupply",
              "type": "uint256"
            },
            {
              "internalType": "address",
              "name": "dTokenAddress",
              "type": "address"
            },
            {
              "internalType": "string",
              "name": "dTokenSymbol",
              "type": "string"
            },
            {
              "internalType": "string",
              "name": "dTokenName",
              "type": "string"
            },
            {
              "internalType": "uint256",
              "name": "balance",
              "type": "uint256"
            },
            {
              "internalType": "uint256",
              "name": "allowance",
              "type": "uint256"
            }
          ],
          "internalType": "struct Details.DtokenDetails[]",
          "name": "duTokens",
          "type": "tuple[]"
        }
      ],
      "stateMutability": "view",
      "type": "function",
      "constant": true
    }
  ],
  "bytecode": "0x608060405234801561001057600080fd5b50611e0a806100206000396000f3fe608060405234801561001057600080fd5b506004361061004c5760003560e01c806330f1bef014610051578063431b7770146100845780637922f334146100a7578063afa029e4146100c8575b600080fd5b61006461005f3660046118d3565b6100e9565b60405161007b9b9a99989796959493929190611be5565b60405180910390f35b61009761009236600461185c565b6105ab565b60405161007b9493929190611d50565b6100ba6100b536600461189b565b61078a565b60405161007b929190611c73565b6100db6100d636600461185c565b610ff1565b60405161007b929190611ca1565b600080600080600080600080600080606060008d9050806001600160a01b0316638da5cb5b6040518163ffffffff1660e01b815260040160206040518083038186803b15801561013857600080fd5b505afa15801561014c573d6000803e3d6000fd5b505050506040513d601f19601f82011682018060405250810190610170919061187f565b9b50806001600160a01b031663a224ee9c6040518163ffffffff1660e01b815260040160206040518083038186803b1580156101ab57600080fd5b505afa1580156101bf573d6000803e3d6000fd5b505050506040513d601f19601f820116820180604052508101906101e3919061187f565b9a50806001600160a01b03166318e454276040518163ffffffff1660e01b815260040160206040518083038186803b15801561021e57600080fd5b505afa158015610232573d6000803e3d6000fd5b505050506040513d601f19601f8201168201806040525081019061025691906118e5565b9450806001600160a01b03166346e0fbae6040518163ffffffff1660e01b815260040160206040518083038186803b15801561029157600080fd5b505afa1580156102a5573d6000803e3d6000fd5b505050506040513d601f19601f820116820180604052508101906102c99190611905565b93508c6001600160a01b031663a7b72ac58f6040518263ffffffff1660e01b81526004016102f79190611bb7565b604080518083038186803b15801561030e57600080fd5b505afa158015610322573d6000803e3d6000fd5b505050506040513d601f19601f8201168201806040525081019061034691906119fa565b809450819b505050806001600160a01b0316631bf309296040518163ffffffff1660e01b815260040160206040518083038186803b15801561038757600080fd5b505afa15801561039b573d6000803e3d6000fd5b505050506040513d601f19601f820116820180604052508101906103bf91906119e2565b9850806001600160a01b031663f2db10fe6040518163ffffffff1660e01b815260040160206040518083038186803b1580156103fa57600080fd5b505afa15801561040e573d6000803e3d6000fd5b505050506040513d601f19601f8201168201806040525081019061043291906119bb565b6001600160801b03169750806001600160a01b031663c623674f6040518163ffffffff1660e01b815260040160006040518083038186803b15801561047657600080fd5b505afa15801561048a573d6000803e3d6000fd5b505050506040513d6000823e601f3d908101601f191682016040526104b29190810190611921565b9150806001600160a01b0316632526743a6040518163ffffffff1660e01b815260040160206040518083038186803b1580156104ed57600080fd5b505afa158015610501573d6000803e3d6000fd5b505050506040513d601f19601f8201168201806040525081019061052591906119bb565b9650806001600160a01b0316633385d3346040518163ffffffff1660e01b815260040160206040518083038186803b15801561056057600080fd5b505afa158015610574573d6000803e3d6000fd5b505050506040513d601f19601f8201168201806040525081019061059891906119bb565b9550509295989b509295989b9093969950565b6000806000806000859050806001600160a01b0316637fd788aa6040518163ffffffff1660e01b815260040160206040518083038186803b1580156105ef57600080fd5b505afa158015610603573d6000803e3d6000fd5b505050506040513d601f19601f8201168201806040525081019061062791906118e5565b9450806001600160a01b0316639fabeb006040518163ffffffff1660e01b815260040160206040518083038186803b15801561066257600080fd5b505afa158015610676573d6000803e3d6000fd5b505050506040513d601f19601f8201168201806040525081019061069a91906119e2565b9350806001600160a01b031663b1659bad6040518163ffffffff1660e01b815260040160206040518083038186803b1580156106d557600080fd5b505afa1580156106e9573d6000803e3d6000fd5b505050506040513d601f19601f8201168201806040525081019061070d91906119e2565b9250806001600160a01b0316632c86d98e6040518163ffffffff1660e01b815260040160206040518083038186803b15801561074857600080fd5b505afa15801561075c573d6000803e3d6000fd5b505050506040513d601f19601f820116820180604052508101906107809190611a59565b9150509193509193565b6060806000806001600160a01b0316846001600160a01b03161415905060008590506000816001600160a01b031663b7bc347e6040518163ffffffff1660e01b815260040160206040518083038186803b1580156107e757600080fd5b505afa1580156107fb573d6000803e3d6000fd5b505050506040513d601f19601f8201168201806040525081019061081f91906119e2565b9050806001600160401b038111801561083757600080fd5b5060405190808252806020026020018201604052801561087157816020015b61085e6117b1565b8152602001906001900390816108565790505b509450806001600160401b038111801561088a57600080fd5b506040519080825280602002602001820160405280156108c457816020015b6108b16117b1565b8152602001906001900390816108a95790505b50935060005b81811015610fe657604051632f2f971360e11b81526000906001600160a01b03851690635e5f2e2690610901908590600401611d76565b60206040518083038186803b15801561091957600080fd5b505afa15801561092d573d6000803e3d6000fd5b505050506040513d601f19601f82011682018060405250810190610951919061187f565b90506000846001600160a01b0316634fb2647e836040518263ffffffff1660e01b81526004016109819190611bb7565b60206040518083038186803b15801561099957600080fd5b505afa1580156109ad573d6000803e3d6000fd5b505050506040513d601f19601f820116820180604052508101906109d1919061187f565b90506040518060e00160405280836001600160a01b03168152602001826001600160a01b03166318160ddd6040518163ffffffff1660e01b815260040160206040518083038186803b158015610a2657600080fd5b505afa158015610a3a573d6000803e3d6000fd5b505050506040513d601f19601f82011682018060405250810190610a5e91906119e2565b8152602001826001600160a01b03168152602001826001600160a01b03166395d89b416040518163ffffffff1660e01b815260040160006040518083038186803b158015610aab57600080fd5b505afa158015610abf573d6000803e3d6000fd5b505050506040513d6000823e601f3d908101601f19168201604052610ae79190810190611921565b8152602001826001600160a01b03166306fdde036040518163ffffffff1660e01b815260040160006040518083038186803b158015610b2557600080fd5b505afa158015610b39573d6000803e3d6000fd5b505050506040513d6000823e601f3d908101601f19168201604052610b619190810190611921565b815260200187610b72576000610bee565b6040516370a0823160e01b81526001600160a01b038416906370a0823190610b9e908e90600401611bb7565b60206040518083038186803b158015610bb657600080fd5b505afa158015610bca573d6000803e3d6000fd5b505050506040513d601f19601f82011682018060405250810190610bee91906119e2565b815260200187610bff576000610c7d565b826001600160a01b031663dd62ed3e8c8e6040518363ffffffff1660e01b8152600401610c2d929190611bcb565b60206040518083038186803b158015610c4557600080fd5b505afa158015610c59573d6000803e3d6000fd5b505050506040513d601f19601f82011682018060405250810190610c7d91906119e2565b815250888481518110610c8c57fe5b60200260200101819052506000856001600160a01b0316634e0c91f6846040518263ffffffff1660e01b8152600401610cc59190611bb7565b60206040518083038186803b158015610cdd57600080fd5b505afa158015610cf1573d6000803e3d6000fd5b505050506040513d601f19601f82011682018060405250810190610d15919061187f565b90506040518060e00160405280846001600160a01b03168152602001826001600160a01b03166318160ddd6040518163ffffffff1660e01b815260040160206040518083038186803b158015610d6a57600080fd5b505afa158015610d7e573d6000803e3d6000fd5b505050506040513d601f19601f82011682018060405250810190610da291906119e2565b8152602001826001600160a01b03168152602001826001600160a01b03166395d89b416040518163ffffffff1660e01b815260040160006040518083038186803b158015610def57600080fd5b505afa158015610e03573d6000803e3d6000fd5b505050506040513d6000823e601f3d908101601f19168201604052610e2b9190810190611921565b8152602001826001600160a01b03166306fdde036040518163ffffffff1660e01b815260040160006040518083038186803b158015610e6957600080fd5b505afa158015610e7d573d6000803e3d6000fd5b505050506040513d6000823e601f3d908101601f19168201604052610ea59190810190611921565b815260200188610eb6576000610f32565b6040516370a0823160e01b81526001600160a01b038416906370a0823190610ee2908f90600401611bb7565b60206040518083038186803b158015610efa57600080fd5b505afa158015610f0e573d6000803e3d6000fd5b505050506040513d601f19601f82011682018060405250810190610f3291906119e2565b815260200188610f43576000610fc1565b826001600160a01b031663dd62ed3e8d8f6040518363ffffffff1660e01b8152600401610f71929190611bcb565b60206040518083038186803b158015610f8957600080fd5b505afa158015610f9d573d6000803e3d6000fd5b505050506040513d601f19601f82011682018060405250810190610fc191906119e2565b815250888581518110610fd057fe5b60209081029190910101525050506001016108ca565b505050509250929050565b60608060008390506000816001600160a01b0316632526743a6040518163ffffffff1660e01b815260040160206040518083038186803b15801561103457600080fd5b505afa158015611048573d6000803e3d6000fd5b505050506040513d601f19601f8201168201806040525081019061106c91906119bb565b6001600160801b031690506000826001600160a01b0316633385d3346040518163ffffffff1660e01b815260040160206040518083038186803b1580156110b257600080fd5b505afa1580156110c6573d6000803e3d6000fd5b505050506040513d601f19601f820116820180604052508101906110ea91906119bb565b6001600160801b03169050600182820301806001600160401b038111801561111157600080fd5b5060405190808252806020026020018201604052801561114b57816020015b611138611800565b8152602001906001900390816111305790505b50955060005b81811015611234576040516320c876ef60e11b815284820190600090819081906001600160a01b038a1690634190edde90611190908790600401611d76565b60606040518083038186803b1580156111a857600080fd5b505afa1580156111bc573d6000803e3d6000fd5b505050506040513d601f19601f820116820180604052508101906111e09190611a1e565b925092509250604051806060016040528084815260200183815260200182600281111561120957fe5b8152508b868151811061121857fe5b6020026020010181905250505050508080600101915050611151565b506000846001600160a01b031663b7bc347e6040518163ffffffff1660e01b815260040160206040518083038186803b15801561127057600080fd5b505afa158015611284573d6000803e3d6000fd5b505050506040513d601f19601f820116820180604052508101906112a891906119e2565b9050806001600160401b03811180156112c057600080fd5b506040519080825280602002602001820160405280156112fa57816020015b6112e761182b565b8152602001906001900390816112df5790505b50955060005b818110156117a657604051632f2f971360e11b81526000906001600160a01b03881690635e5f2e2690611337908590600401611d76565b60206040518083038186803b15801561134f57600080fd5b505afa158015611363573d6000803e3d6000fd5b505050506040513d601f19601f82011682018060405250810190611387919061187f565b90506040518060800160405280826001600160a01b03168152602001886001600160a01b031663639b6fc38a6001600160a01b0316635e5f2e26876040518263ffffffff1660e01b81526004016113de9190611d76565b60206040518083038186803b1580156113f657600080fd5b505afa15801561140a573d6000803e3d6000fd5b505050506040513d601f19601f8201168201806040525081019061142e919061187f565b6040518263ffffffff1660e01b815260040161144a9190611bb7565b60206040518083038186803b15801561146257600080fd5b505afa158015611476573d6000803e3d6000fd5b505050506040513d601f19601f8201168201806040525081019061149a91906119e2565b604051632f2f971360e11b81526001600160a01b038b169063484fbf2b908290635e5f2e26906114ce908a90600401611d76565b60206040518083038186803b1580156114e657600080fd5b505afa1580156114fa573d6000803e3d6000fd5b505050506040513d601f19601f8201168201806040525081019061151e919061187f565b6040518263ffffffff1660e01b815260040161153a9190611bb7565b60206040518083038186803b15801561155257600080fd5b505afa158015611566573d6000803e3d6000fd5b505050506040513d601f19601f8201168201806040525081019061158a91906119e2565b018152602001886001600160a01b031663484fbf2b8a6001600160a01b0316635e5f2e26876040518263ffffffff1660e01b81526004016115cb9190611d76565b60206040518083038186803b1580156115e357600080fd5b505afa1580156115f7573d6000803e3d6000fd5b505050506040513d601f19601f8201168201806040525081019061161b919061187f565b6040518263ffffffff1660e01b81526004016116379190611bb7565b60206040518083038186803b15801561164f57600080fd5b505afa158015611663573d6000803e3d6000fd5b505050506040513d601f19601f8201168201806040525081019061168791906119e2565b8152602001886001600160a01b031663639b6fc38a6001600160a01b0316635e5f2e26876040518263ffffffff1660e01b81526004016116c79190611d76565b60206040518083038186803b1580156116df57600080fd5b505afa1580156116f3573d6000803e3d6000fd5b505050506040513d601f19601f82011682018060405250810190611717919061187f565b6040518263ffffffff1660e01b81526004016117339190611bb7565b60206040518083038186803b15801561174b57600080fd5b505afa15801561175f573d6000803e3d6000fd5b505050506040513d601f19601f8201168201806040525081019061178391906119e2565b81525088838151811061179257fe5b602090810291909101015250600101611300565b505050505050915091565b6040518060e0016040528060006001600160a01b031681526020016000815260200160006001600160a01b03168152602001606081526020016060815260200160008152602001600081525090565b604051806060016040528060008152602001600081526020016000600281111561182657fe5b905290565b604051806080016040528060006001600160a01b031681526020016000815260200160008152602001600081525090565b60006020828403121561186d578081fd5b813561187881611daf565b9392505050565b600060208284031215611890578081fd5b815161187881611daf565b600080604083850312156118ad578081fd5b82356118b881611daf565b915060208301356118c881611daf565b809150509250929050565b600080604083850312156118ad578182fd5b6000602082840312156118f6578081fd5b81518015158114611878578182fd5b600060208284031215611916578081fd5b815161187881611dc7565b600060208284031215611932578081fd5b81516001600160401b0380821115611948578283fd5b81840185601f820112611959578384fd5b8051925081831115611969578384fd5b604051601f8401601f191681016020018381118282101715611989578586fd5b6040528381528184016020018710156119a0578485fd5b6119b1846020830160208501611d7f565b9695505050505050565b6000602082840312156119cc578081fd5b81516001600160801b0381168114611878578182fd5b6000602082840312156119f3578081fd5b5051919050565b60008060408385031215611a0c578182fd5b8251915060208301516118c881611dc7565b600080600060608486031215611a32578081fd5b8351925060208401519150604084015160038110611a4e578182fd5b809150509250925092565b600060208284031215611a6a578081fd5b81516001600160401b0381168114611878578182fd5b80516001600160a01b0316825260208082015190830152604080820151908301526060908101519082015260800190565b6001600160a01b03169052565b6000815180845260208085018081965082840281019150828601855b85811015611b70578284038952815160e0611af6868351611ab1565b8682015187870152604080830151611b1082890182611ab1565b50506060808301518282890152611b2983890182611b8b565b915050608091508183015187820383890152611b458282611b8b565b60a085810151908a015260c09485015194909801939093525050509784019790840190600101611ada565b5091979650505050505050565b60068110611b8757fe5b9052565b60008151808452611ba3816020860160208601611d7f565b601f01601f19169290920160200192915050565b6001600160a01b0391909116815260200190565b6001600160a01b0392831681529116602082015260400190565b6001600160a01b038c811682528b166020820152604081018a905260608101899052608081018890526001600160801b0387811660a0830152861660c082015284151560e08201526000610160611c40610100840187611b7d565b611c4e610120840186611b7d565b80610140840152611c6181840185611b8b565b9e9d5050505050505050505050505050565b600060408252611c866040830185611abe565b8281036020840152611c988185611abe565b95945050505050565b6040808252835182820181905260009190606090818501906020808901865b83811015611cf95781518051865283810151848701528781015160038110611ce457fe5b86890152509385019390820190600101611cc0565b50508683038188015282945087519350611d138484611d76565b945080880192508591505b83821015611d4357611d31858451611a80565b94508083019250600182019150611d1e565b5092979650505050505050565b9315158452602084019290925260408301526001600160401b0316606082015260800190565b90815260200190565b60005b83811015611d9a578181015183820152602001611d82565b83811115611da9576000848401525b50505050565b6001600160a01b0381168114611dc457600080fd5b50565b60068110611dc457600080fdfea264697066735822122087dba3587cbf2d03d7745f45fb1cc5a2af24253899091b12d050aeed02cfa6a964736f6c63430006060033",
  "immutableReferences": {},
  "source": "// SPDX-License-Identifier: MIT\npragma solidity 0.6.6;\npragma experimental ABIEncoderV2;\n\nimport \"./SLA.sol\";\nimport \"./SLARegistry.sol\";\nimport \"./SLORegistry.sol\";\nimport \"./StakeRegistry.sol\";\nimport \"./PeriodRegistry.sol\";\nimport \"./MessengerRegistry.sol\";\nimport \"./Staking.sol\";\nimport \"@openzeppelin/contracts/token/ERC20/ERC20.sol\";\n\n/**\n * @title Details\n * @dev Details is a contract to fetch details of contracts with a single RPC endpoint\n */\ncontract Details {\n    struct TokenStake {\n        address tokenAddress;\n        uint256 totalStake;\n        uint256 usersPool;\n        uint256 providerPool;\n    }\n\n    struct DtokenDetails {\n        address tokenAddress;\n        uint256 totalSupply;\n        address dTokenAddress;\n        string dTokenSymbol;\n        string dTokenName;\n        uint256 balance;\n        uint256 allowance;\n    }\n\n    /**\n     * @dev external view function that returns all dynamic agreement information\n     * @return breachedContract 1. breached contract\n     * @return stakersCount 2. amount of stakers\n     * @return nextVerifiablePeriod 3. amount of stakers\n     */\n\n    function getSLADynamicDetails(address _slaAddress)\n        external\n        view\n        returns (\n            bool breachedContract,\n            uint256 stakersCount,\n            uint256 nextVerifiablePeriod,\n            uint64 leverage\n        )\n    {\n        SLA sla = SLA(_slaAddress);\n        breachedContract = sla.breachedContract();\n        stakersCount = sla.getStakersLength();\n        nextVerifiablePeriod = sla.nextVerifiablePeriod();\n        leverage = sla.leverage();\n    }\n\n    function getSLAStaticDetails(address _slaAddress, SLORegistry _sloRegistry)\n        external\n        view\n        returns (\n            address slaOwner,\n            address messengerAddress,\n            uint256 sloValue,\n            uint256 creationBlockNumber,\n            uint256 slaId,\n            uint128 initialPeriodId,\n            uint128 finalPeriodId,\n            bool whiteListed,\n            PeriodRegistry.PeriodType periodType,\n            SLORegistry.SLOType sloType,\n            string memory ipfsHash\n        )\n    {\n        SLA sla = SLA(_slaAddress);\n        slaOwner = sla.owner();\n        messengerAddress = sla.messengerAddress();\n        whiteListed = sla.whitelistedContract();\n        periodType = sla.periodType();\n        (sloValue, sloType) = _sloRegistry.registeredSLO(_slaAddress);\n        creationBlockNumber = sla.creationBlockNumber();\n        slaId = sla.slaID();\n        ipfsHash = sla.ipfsHash();\n        initialPeriodId = sla.initialPeriodId();\n        finalPeriodId = sla.finalPeriodId();\n    }\n\n    function getSLADetailsArrays(address _slaAddress)\n        external\n        view\n        returns (\n            SLA.PeriodSLI[] memory periodSLIs,\n            TokenStake[] memory tokensStake\n        )\n    {\n        SLA sla = SLA(_slaAddress);\n        uint256 initialPeriodId = sla.initialPeriodId();\n        uint256 finalPeriodId = sla.finalPeriodId();\n        uint256 periodIdsLength = finalPeriodId - initialPeriodId + 1;\n        periodSLIs = new SLA.PeriodSLI[](periodIdsLength);\n        for (uint256 index = 0; index < periodIdsLength; index++) {\n            uint256 periodId = initialPeriodId + index;\n            (uint256 timestamp, uint256 sli, SLA.Status status) =\n                sla.periodSLIs(periodId);\n            periodSLIs[index] = SLA.PeriodSLI({\n                status: status,\n                sli: sli,\n                timestamp: timestamp\n            });\n        }\n        uint256 allowedTokensLength = sla.getAllowedTokensLength();\n        tokensStake = new TokenStake[](allowedTokensLength);\n        for (uint256 index = 0; index < allowedTokensLength; index++) {\n            address tokenAddress = sla.allowedTokens(index);\n            tokensStake[index] = TokenStake({\n                tokenAddress: tokenAddress,\n                totalStake: sla.usersPool(sla.allowedTokens(index)) +\n                    sla.providerPool(sla.allowedTokens(index)),\n                usersPool: sla.usersPool(sla.allowedTokens(index)),\n                providerPool: sla.providerPool(sla.allowedTokens(index))\n            });\n        }\n    }\n\n    function getDTokensDetails(address _slaAddress, address _owner)\n        public\n        view\n        returns (\n            DtokenDetails[] memory dpTokens,\n            DtokenDetails[] memory duTokens\n        )\n    {\n        bool fromOwner = _owner != address(0x0);\n        SLA sla = SLA(_slaAddress);\n        uint256 allowedTokensLength = sla.getAllowedTokensLength();\n        dpTokens = new DtokenDetails[](allowedTokensLength);\n        duTokens = new DtokenDetails[](allowedTokensLength);\n        for (uint256 index = 0; index < allowedTokensLength; index++) {\n            address tokenAddress = sla.allowedTokens(index);\n            address dpTokenAddress = address(sla.dpTokenRegistry(tokenAddress));\n            dpTokens[index] = DtokenDetails({\n                dTokenAddress: dpTokenAddress,\n                tokenAddress: tokenAddress,\n                totalSupply: ERC20(dpTokenAddress).totalSupply(),\n                dTokenSymbol: ERC20(dpTokenAddress).symbol(),\n                dTokenName: ERC20(dpTokenAddress).name(),\n                balance: fromOwner\n                    ? ERC20(dpTokenAddress).balanceOf(_owner)\n                    : 0,\n                allowance: fromOwner\n                    ? ERC20(dpTokenAddress).allowance(_owner, _slaAddress)\n                    : 0\n            });\n            address duTokenAddress = address(sla.duTokenRegistry(tokenAddress));\n            duTokens[index] = DtokenDetails({\n                dTokenAddress: duTokenAddress,\n                tokenAddress: tokenAddress,\n                totalSupply: ERC20(duTokenAddress).totalSupply(),\n                dTokenSymbol: ERC20(duTokenAddress).symbol(),\n                dTokenName: ERC20(duTokenAddress).name(),\n                balance: fromOwner\n                    ? ERC20(duTokenAddress).balanceOf(_owner)\n                    : 0,\n                allowance: fromOwner\n                    ? ERC20(duTokenAddress).allowance(_owner, _slaAddress)\n                    : 0\n            });\n        }\n    }\n\n    function _addressToString(address _address)\n        internal\n        pure\n        returns (string memory)\n    {\n        bytes32 _bytes = bytes32(uint256(_address));\n        bytes memory HEX = \"0123456789abcdef\";\n        bytes memory _string = new bytes(42);\n        _string[0] = \"0\";\n        _string[1] = \"x\";\n        for (uint256 i = 0; i < 20; i++) {\n            _string[2 + i * 2] = HEX[uint8(_bytes[i + 12] >> 4)];\n            _string[3 + i * 2] = HEX[uint8(_bytes[i + 12] & 0x0f)];\n        }\n        return string(_string);\n    }\n}\n",
  "sourcePath": "@stacktical/dsla-protocol/contracts/Details.sol",
  "compiler": {
    "name": "solc",
    "version": "0.6.6+commit.6c089d02.Emscripten.clang"
  },
  "schemaVersion": "3.3.4",
  "updatedAt": "2021-05-07T02:53:40.544Z",
  "networkType": "ethereum",
  "devdoc": {
    "details": "Details is a contract to fetch details of contracts with a single RPC endpoint",
    "methods": {
      "getSLADynamicDetails(address)": {
        "details": "external view function that returns all dynamic agreement information",
        "returns": {
          "breachedContract": "1. breached contract",
          "nextVerifiablePeriod": "3. amount of stakers",
          "stakersCount": "2. amount of stakers"
        }
      }
    },
    "title": "Details"
  },
  "userdoc": {
    "methods": {}
  }
}