{
  "contractName": "MessengerRegistry",
  "abi": [
    {
      "anonymous": false,
      "inputs": [
        {
          "indexed": true,
          "internalType": "address",
          "name": "ownerAddress",
          "type": "address"
        },
        {
          "indexed": true,
          "internalType": "address",
          "name": "messengerAddress",
          "type": "address"
        },
        {
          "indexed": false,
          "internalType": "string",
          "name": "specificationUrl",
          "type": "string"
        },
        {
          "indexed": false,
          "internalType": "uint256",
          "name": "precision",
          "type": "uint256"
        },
        {
          "indexed": false,
          "internalType": "uint256",
          "name": "id",
          "type": "uint256"
        }
      ],
      "name": "MessengerModified",
      "type": "event"
    },
    {
      "anonymous": false,
      "inputs": [
        {
          "indexed": true,
          "internalType": "address",
          "name": "ownerAddress",
          "type": "address"
        },
        {
          "indexed": true,
          "internalType": "address",
          "name": "messengerAddress",
          "type": "address"
        },
        {
          "indexed": false,
          "internalType": "string",
          "name": "specificationUrl",
          "type": "string"
        },
        {
          "indexed": false,
          "internalType": "uint256",
          "name": "precision",
          "type": "uint256"
        },
        {
          "indexed": false,
          "internalType": "uint256",
          "name": "id",
          "type": "uint256"
        }
      ],
      "name": "MessengerRegistered",
      "type": "event"
    },
    {
      "inputs": [
        {
          "internalType": "uint256",
          "name": "",
          "type": "uint256"
        }
      ],
      "name": "messengers",
      "outputs": [
        {
          "internalType": "address",
          "name": "ownerAddress",
          "type": "address"
        },
        {
          "internalType": "address",
          "name": "messengerAddress",
          "type": "address"
        },
        {
          "internalType": "string",
          "name": "specificationUrl",
          "type": "string"
        },
        {
          "internalType": "uint256",
          "name": "precision",
          "type": "uint256"
        },
        {
          "internalType": "uint256",
          "name": "requestsCounter",
          "type": "uint256"
        },
        {
          "internalType": "uint256",
          "name": "fulfillsCounter",
          "type": "uint256"
        },
        {
          "internalType": "uint256",
          "name": "id",
          "type": "uint256"
        }
      ],
      "stateMutability": "view",
      "type": "function"
    },
    {
      "inputs": [
        {
          "internalType": "address",
          "name": "",
          "type": "address"
        },
        {
          "internalType": "uint256",
          "name": "",
          "type": "uint256"
        }
      ],
      "name": "ownerMessengers",
      "outputs": [
        {
          "internalType": "uint256",
          "name": "",
          "type": "uint256"
        }
      ],
      "stateMutability": "view",
      "type": "function"
    },
    {
      "inputs": [
        {
          "internalType": "address",
          "name": "",
          "type": "address"
        }
      ],
      "name": "registeredMessengers",
      "outputs": [
        {
          "internalType": "bool",
          "name": "",
          "type": "bool"
        }
      ],
      "stateMutability": "view",
      "type": "function"
    },
    {
      "inputs": [],
      "name": "slaRegistry",
      "outputs": [
        {
          "internalType": "address",
          "name": "",
          "type": "address"
        }
      ],
      "stateMutability": "view",
      "type": "function"
    },
    {
      "inputs": [],
      "name": "setSLARegistry",
      "outputs": [],
      "stateMutability": "nonpayable",
      "type": "function"
    },
    {
      "inputs": [
        {
          "internalType": "address",
          "name": "_callerAddress",
          "type": "address"
        },
        {
          "internalType": "address",
          "name": "_messengerAddress",
          "type": "address"
        },
        {
          "internalType": "string",
          "name": "_specificationUrl",
          "type": "string"
        }
      ],
      "name": "registerMessenger",
      "outputs": [],
      "stateMutability": "nonpayable",
      "type": "function"
    },
    {
      "inputs": [
        {
          "internalType": "string",
          "name": "_specificationUrl",
          "type": "string"
        },
        {
          "internalType": "uint256",
          "name": "_messengerId",
          "type": "uint256"
        }
      ],
      "name": "modifyMessenger",
      "outputs": [],
      "stateMutability": "nonpayable",
      "type": "function"
    },
    {
      "inputs": [],
      "name": "getMessengers",
      "outputs": [
        {
          "components": [
            {
              "internalType": "address",
              "name": "ownerAddress",
              "type": "address"
            },
            {
              "internalType": "address",
              "name": "messengerAddress",
              "type": "address"
            },
            {
              "internalType": "string",
              "name": "specificationUrl",
              "type": "string"
            },
            {
              "internalType": "uint256",
              "name": "precision",
              "type": "uint256"
            },
            {
              "internalType": "uint256",
              "name": "requestsCounter",
              "type": "uint256"
            },
            {
              "internalType": "uint256",
              "name": "fulfillsCounter",
              "type": "uint256"
            },
            {
              "internalType": "uint256",
              "name": "id",
              "type": "uint256"
            }
          ],
          "internalType": "struct MessengerRegistry.Messenger[]",
          "name": "",
          "type": "tuple[]"
        }
      ],
      "stateMutability": "view",
      "type": "function"
    },
    {
      "inputs": [],
      "name": "getMessengersLength",
      "outputs": [
        {
          "internalType": "uint256",
          "name": "",
          "type": "uint256"
        }
      ],
      "stateMutability": "view",
      "type": "function"
    }
  ],
  "bytecode": "0x608060405234801561001057600080fd5b50611c85806100206000396000f3fe608060405234801561001057600080fd5b50600436106100935760003560e01c80639f69d7f8116100665780639f69d7f814610138578063db69a46214610156578063eabb8a7314610174578063ef4003db14610190578063f3881589146101c057610093565b806304fec8d21461009857806324ec66b3146100c857806369b5354b146100fe578063822d332e1461011c575b600080fd5b6100b260048036038101906100ad91906113a8565b6101ca565b6040516100bf9190611af0565b60405180910390f35b6100e260048036038101906100dd919061143c565b6101f8565b6040516100f5979695949392919061191f565b60405180910390f35b61010661031f565b6040516101139190611995565b60405180910390f35b610136600480360381019061013191906113e4565b6106d0565b005b61014061091c565b60405161014d9190611af0565b60405180910390f35b61015e610928565b60405161016b9190611904565b60405180910390f35b61018e6004803603810190610189919061133c565b61094e565b005b6101aa60048036038101906101a591906112ea565b610fca565b6040516101b791906119b7565b60405180910390f35b6101c8610fea565b005b600260205281600052604060002081815481106101e357fe5b90600052602060002001600091509150505481565b6000818154811061020557fe5b90600052602060002090600702016000915090508060000160009054906101000a900473ffffffffffffffffffffffffffffffffffffffff16908060010160009054906101000a900473ffffffffffffffffffffffffffffffffffffffff1690806002018054600181600116156101000203166002900480601f0160208091040260200160405190810160405280929190818152602001828054600181600116156101000203166002900480156102fd5780601f106102d2576101008083540402835291602001916102fd565b820191906000526020600020905b8154815290600101906020018083116102e057829003601f168201915b5050505050908060030154908060040154908060050154908060060154905087565b60608060008054905067ffffffffffffffff8111801561033e57600080fd5b5060405190808252806020026020018201604052801561037857816020015b6103656110be565b81526020019060019003908161035d5790505b50905060008090505b6000805490508110156106c857600080828154811061039c57fe5b906000526020600020906007020160010160009054906101000a900473ffffffffffffffffffffffffffffffffffffffff16905060008173ffffffffffffffffffffffffffffffffffffffff1663663c22696040518163ffffffff1660e01b815260040160206040518083038186803b15801561041857600080fd5b505afa15801561042c573d6000803e3d6000fd5b505050506040513d601f19601f820116820180604052508101906104509190611465565b905060008273ffffffffffffffffffffffffffffffffffffffff1663a50c54256040518163ffffffff1660e01b815260040160206040518083038186803b15801561049a57600080fd5b505afa1580156104ae573d6000803e3d6000fd5b505050506040513d601f19601f820116820180604052508101906104d29190611465565b90506040518060e00160405280600086815481106104ec57fe5b906000526020600020906007020160000160009054906101000a900473ffffffffffffffffffffffffffffffffffffffff1673ffffffffffffffffffffffffffffffffffffffff1681526020016000868154811061054657fe5b906000526020600020906007020160010160009054906101000a900473ffffffffffffffffffffffffffffffffffffffff1673ffffffffffffffffffffffffffffffffffffffff168152602001600086815481106105a057fe5b90600052602060002090600702016002018054600181600116156101000203166002900480601f0160208091040260200160405190810160405280929190818152602001828054600181600116156101000203166002900480156106455780601f1061061a57610100808354040283529160200191610645565b820191906000526020600020905b81548152906001019060200180831161062857829003601f168201915b505050505081526020016000868154811061065c57fe5b90600052602060002090600702016003015481526020018381526020018281526020016000868154811061068c57fe5b9060005260206000209060070201600601548152508585815181106106ad57fe5b60200260200101819052505050508080600101915050610381565b508091505090565b60008082815481106106de57fe5b9060005260206000209060070201905060008160010160009054906101000a900473ffffffffffffffffffffffffffffffffffffffff1690508073ffffffffffffffffffffffffffffffffffffffff16638da5cb5b6040518163ffffffff1660e01b815260040160206040518083038186803b15801561075d57600080fd5b505afa158015610771573d6000803e3d6000fd5b505050506040513d601f19601f820116820180604052508101906107959190611313565b73ffffffffffffffffffffffffffffffffffffffff163373ffffffffffffffffffffffffffffffffffffffff1614610802576040517f08c379a00000000000000000000000000000000000000000000000000000000081526004016107f990611a50565b60405180910390fd5b8484836002019190610815929190611127565b50338260000160006101000a81548173ffffffffffffffffffffffffffffffffffffffff021916908373ffffffffffffffffffffffffffffffffffffffff1602179055508160010160009054906101000a900473ffffffffffffffffffffffffffffffffffffffff1673ffffffffffffffffffffffffffffffffffffffff168260000160009054906101000a900473ffffffffffffffffffffffffffffffffffffffff1673ffffffffffffffffffffffffffffffffffffffff167f535c96772bc04bd66e3fc2bab24c455ef0b5bac77cc845b644482e89dce86112846002018560030154866006015460405161090d93929190611a12565b60405180910390a35050505050565b60008080549050905090565b600360009054906101000a900473ffffffffffffffffffffffffffffffffffffffff1681565b600360009054906101000a900473ffffffffffffffffffffffffffffffffffffffff1673ffffffffffffffffffffffffffffffffffffffff163373ffffffffffffffffffffffffffffffffffffffff16146109de576040517f08c379a00000000000000000000000000000000000000000000000000000000081526004016109d590611a70565b60405180910390fd5b600160008473ffffffffffffffffffffffffffffffffffffffff1673ffffffffffffffffffffffffffffffffffffffff16815260200190815260200160002060009054906101000a900460ff1615610a6b576040517f08c379a0000000000000000000000000000000000000000000000000000000008152600401610a6290611a90565b60405180910390fd5b600083905060008173ffffffffffffffffffffffffffffffffffffffff16638da5cb5b6040518163ffffffff1660e01b815260040160206040518083038186803b158015610ab857600080fd5b505afa158015610acc573d6000803e3d6000fd5b505050506040513d601f19601f82011682018060405250810190610af09190611313565b90508573ffffffffffffffffffffffffffffffffffffffff168173ffffffffffffffffffffffffffffffffffffffff1614610b60576040517f08c379a0000000000000000000000000000000000000000000000000000000008152600401610b5790611ad0565b60405180910390fd5b60008273ffffffffffffffffffffffffffffffffffffffff1663c9b0cb226040518163ffffffff1660e01b815260040160206040518083038186803b158015610ba857600080fd5b505afa158015610bbc573d6000803e3d6000fd5b505050506040513d601f19601f82011682018060405250810190610be09190611465565b905060008373ffffffffffffffffffffffffffffffffffffffff1663663c22696040518163ffffffff1660e01b815260040160206040518083038186803b158015610c2a57600080fd5b505afa158015610c3e573d6000803e3d6000fd5b505050506040513d601f19601f82011682018060405250810190610c629190611465565b905060008473ffffffffffffffffffffffffffffffffffffffff1663a50c54256040518163ffffffff1660e01b815260040160206040518083038186803b158015610cac57600080fd5b505afa158015610cc0573d6000803e3d6000fd5b505050506040513d601f19601f82011682018060405250810190610ce49190611465565b905060018060008a73ffffffffffffffffffffffffffffffffffffffff1673ffffffffffffffffffffffffffffffffffffffff16815260200190815260200160002060006101000a81548160ff02191690831515021790555060006001600080549050039050600260008673ffffffffffffffffffffffffffffffffffffffff1673ffffffffffffffffffffffffffffffffffffffff16815260200190815260200160002081908060018154018082558091505060019003906000526020600020016000909190919091505560006040518060e001604052808773ffffffffffffffffffffffffffffffffffffffff1681526020018b73ffffffffffffffffffffffffffffffffffffffff1681526020018a8a8080601f016020809104026020016040519081016040528093929190818152602001838380828437600081840152601f19601f82011690508083019250505050505050815260200186815260200185815260200184815260200183815250908060018154018082558091505060019003906000526020600020906007020160009091909190915060008201518160000160006101000a81548173ffffffffffffffffffffffffffffffffffffffff021916908373ffffffffffffffffffffffffffffffffffffffff16021790555060208201518160010160006101000a81548173ffffffffffffffffffffffffffffffffffffffff021916908373ffffffffffffffffffffffffffffffffffffffff1602179055506040820151816002019080519060200190610f289291906111a7565b50606082015181600301556080820151816004015560a0820151816005015560c0820151816006015550508873ffffffffffffffffffffffffffffffffffffffff168573ffffffffffffffffffffffffffffffffffffffff167f65ec88813f8015e2d5de403d956ea4d6c79b88ad66a42ada93a9b4619e10fd888a8a8886604051610fb694939291906119d2565b60405180910390a350505050505050505050565b60016020528060005260406000206000915054906101000a900460ff1681565b600073ffffffffffffffffffffffffffffffffffffffff16600360009054906101000a900473ffffffffffffffffffffffffffffffffffffffff1673ffffffffffffffffffffffffffffffffffffffff161461107b576040517f08c379a000000000000000000000000000000000000000000000000000000000815260040161107290611ab0565b60405180910390fd5b33600360006101000a81548173ffffffffffffffffffffffffffffffffffffffff021916908373ffffffffffffffffffffffffffffffffffffffff160217905550565b6040518060e00160405280600073ffffffffffffffffffffffffffffffffffffffff168152602001600073ffffffffffffffffffffffffffffffffffffffff16815260200160608152602001600081526020016000815260200160008152602001600081525090565b828054600181600116156101000203166002900490600052602060002090601f016020900481019282601f1061116857803560ff1916838001178555611196565b82800160010185558215611196579182015b8281111561119557823582559160200191906001019061117a565b5b5090506111a39190611227565b5090565b828054600181600116156101000203166002900490600052602060002090601f016020900481019282601f106111e857805160ff1916838001178555611216565b82800160010185558215611216579182015b828111156112155782518255916020019190600101906111fa565b5b5090506112239190611227565b5090565b61124991905b8082111561124557600081600090555060010161122d565b5090565b90565b60008135905061125b81611c21565b92915050565b60008151905061127081611c21565b92915050565b60008083601f84011261128857600080fd5b8235905067ffffffffffffffff8111156112a157600080fd5b6020830191508360018202830111156112b957600080fd5b9250929050565b6000813590506112cf81611c38565b92915050565b6000815190506112e481611c38565b92915050565b6000602082840312156112fc57600080fd5b600061130a8482850161124c565b91505092915050565b60006020828403121561132557600080fd5b600061133384828501611261565b91505092915050565b6000806000806060858703121561135257600080fd5b60006113608782880161124c565b94505060206113718782880161124c565b935050604085013567ffffffffffffffff81111561138e57600080fd5b61139a87828801611276565b925092505092959194509250565b600080604083850312156113bb57600080fd5b60006113c98582860161124c565b92505060206113da858286016112c0565b9150509250929050565b6000806000604084860312156113f957600080fd5b600084013567ffffffffffffffff81111561141357600080fd5b61141f86828701611276565b93509350506020611432868287016112c0565b9150509250925092565b60006020828403121561144e57600080fd5b600061145c848285016112c0565b91505092915050565b60006020828403121561147757600080fd5b6000611485848285016112d5565b91505092915050565b600061149a838361184a565b905092915050565b6114ab81611b86565b82525050565b6114ba81611b86565b82525050565b60006114cb82611b30565b6114d58185611b53565b9350836020820285016114e785611b0b565b8060005b858110156115235784840389528151611504858261148e565b945061150f83611b46565b925060208a019950506001810190506114eb565b50829750879550505050505092915050565b61153e81611b98565b82525050565b60006115508385611b75565b935061155d838584611bce565b61156683611c10565b840190509392505050565b600061157c82611b3b565b6115868185611b64565b9350611596818560208601611bdd565b61159f81611c10565b840191505092915050565b60006115b582611b3b565b6115bf8185611b75565b93506115cf818560208601611bdd565b6115d881611c10565b840191505092915050565b60008154600181166000811461160057600181146116265761166a565b607f60028304166116118187611b75565b955060ff19831686526020860193505061166a565b600282046116348187611b75565b955061163f85611b1b565b60005b8281101561166157815481890152600182019150602081019050611642565b80880195505050505b505092915050565b600061167f602183611b75565b91507f43616e206f6e6c79206265206d6f64696669656420627920746865206f776e6560008301527f72000000000000000000000000000000000000000000000000000000000000006020830152604082019050919050565b60006116e5603483611b75565b91507f53686f756c64206f6e6c792062652063616c6c6564207573696e67207468652060008301527f534c41526567697374727920636f6e74726163740000000000000000000000006020830152604082019050919050565b600061174b601c83611b75565b91507f6d657373656e67657220616c72656164792072656769737465726564000000006000830152602082019050919050565b600061178b602883611b75565b91507f534c41526567697374727920616464726573732068617320616c72656164792060008301527f6265656e207365740000000000000000000000000000000000000000000000006020830152604082019050919050565b60006117f1602c83611b75565b91507f53686f756c64206f6e6c792062652063616c6c656420627920746865206d657360008301527f73656e676572206f776e657200000000000000000000000000000000000000006020830152604082019050919050565b600060e08301600083015161186260008601826114a2565b50602083015161187560208601826114a2565b506040830151848203604086015261188d8282611571565b91505060608301516118a260608601826118e6565b5060808301516118b560808601826118e6565b5060a08301516118c860a08601826118e6565b5060c08301516118db60c08601826118e6565b508091505092915050565b6118ef81611bc4565b82525050565b6118fe81611bc4565b82525050565b600060208201905061191960008301846114b1565b92915050565b600060e082019050611934600083018a6114b1565b61194160208301896114b1565b818103604083015261195381886115aa565b905061196260608301876118f5565b61196f60808301866118f5565b61197c60a08301856118f5565b61198960c08301846118f5565b98975050505050505050565b600060208201905081810360008301526119af81846114c0565b905092915050565b60006020820190506119cc6000830184611535565b92915050565b600060608201905081810360008301526119ed818688611544565b90506119fc60208301856118f5565b611a0960408301846118f5565b95945050505050565b60006060820190508181036000830152611a2c81866115e3565b9050611a3b60208301856118f5565b611a4860408301846118f5565b949350505050565b60006020820190508181036000830152611a6981611672565b9050919050565b60006020820190508181036000830152611a89816116d8565b9050919050565b60006020820190508181036000830152611aa98161173e565b9050919050565b60006020820190508181036000830152611ac98161177e565b9050919050565b60006020820190508181036000830152611ae9816117e4565b9050919050565b6000602082019050611b0560008301846118f5565b92915050565b6000819050602082019050919050565b60008190508160005260206000209050919050565b600081519050919050565b600081519050919050565b6000602082019050919050565b600082825260208201905092915050565b600082825260208201905092915050565b600082825260208201905092915050565b6000611b9182611ba4565b9050919050565b60008115159050919050565b600073ffffffffffffffffffffffffffffffffffffffff82169050919050565b6000819050919050565b82818337600083830152505050565b60005b83811015611bfb578082015181840152602081019050611be0565b83811115611c0a576000848401525b50505050565b6000601f19601f8301169050919050565b611c2a81611b86565b8114611c3557600080fd5b50565b611c4181611bc4565b8114611c4c57600080fd5b5056fea2646970667358221220cc3442c020c61ba9127daadb0c46af72b7a86398bc83b1fd5f4136f771d4ee5564736f6c63430006060033",
  "immutableReferences": {},
  "source": "// SPDX-License-Identifier: MIT\npragma solidity 0.6.6;\npragma experimental ABIEncoderV2;\n\nimport \"./messenger/IMessenger.sol\";\n\n/**\n * @title MessengerRegistry\n * @dev MessengerRegistry is a contract to register openly distributed Messengers\n */\ncontract MessengerRegistry {\n    struct Messenger {\n        address ownerAddress;\n        address messengerAddress;\n        string specificationUrl;\n        uint256 precision;\n        uint256 requestsCounter;\n        uint256 fulfillsCounter;\n        uint256 id;\n    }\n\n    /// @dev array to store the messengers\n    Messenger[] public messengers;\n    /// @dev (messengerAddress=>bool) to check if the Messenger was\n    mapping(address => bool) public registeredMessengers;\n    /// @dev (userAddress=>messengerAddress[]) to register the messengers of an owner\n    mapping(address => uint256[]) public ownerMessengers;\n    /// @dev (userAddress=>messengerAddress[]) to register the owner of a Messenger\n    address public slaRegistry;\n\n    event MessengerRegistered(\n        address indexed ownerAddress,\n        address indexed messengerAddress,\n        string specificationUrl,\n        uint256 precision,\n        uint256 id\n    );\n\n    event MessengerModified(\n        address indexed ownerAddress,\n        address indexed messengerAddress,\n        string specificationUrl,\n        uint256 precision,\n        uint256 id\n    );\n\n    /**\n     * @dev sets the SLARegistry contract address and can only be called\n     * once\n     */\n    function setSLARegistry() external {\n        // Only able to trigger this function once\n        require(\n            address(slaRegistry) == address(0),\n            \"SLARegistry address has already been set\"\n        );\n\n        slaRegistry = msg.sender;\n    }\n\n    /**\n     * @dev function to register a new Messenger\n     */\n    function registerMessenger(\n        address _callerAddress,\n        address _messengerAddress,\n        string calldata _specificationUrl\n    ) external {\n        require(\n            msg.sender == slaRegistry,\n            \"Should only be called using the SLARegistry contract\"\n        );\n        require(\n            !registeredMessengers[_messengerAddress],\n            \"messenger already registered\"\n        );\n\n        IMessenger messenger = IMessenger(_messengerAddress);\n        address messengerOwner = messenger.owner();\n        require(\n            messengerOwner == _callerAddress,\n            \"Should only be called by the messenger owner\"\n        );\n        uint256 precision = messenger.messengerPrecision();\n        uint256 requestsCounter = messenger.requestsCounter();\n        uint256 fulfillsCounter = messenger.fulfillsCounter();\n        registeredMessengers[_messengerAddress] = true;\n        uint256 id = messengers.length - 1;\n        ownerMessengers[messengerOwner].push(id);\n\n        messengers.push(\n            Messenger({\n                ownerAddress: messengerOwner,\n                messengerAddress: _messengerAddress,\n                specificationUrl: _specificationUrl,\n                precision: precision,\n                requestsCounter: requestsCounter,\n                fulfillsCounter: fulfillsCounter,\n                id: id\n            })\n        );\n\n        emit MessengerRegistered(\n            messengerOwner,\n            _messengerAddress,\n            _specificationUrl,\n            precision,\n            id\n        );\n    }\n\n    /**\n     * @dev function to modifyMessenger a Messenger\n     */\n    function modifyMessenger(\n        string calldata _specificationUrl,\n        uint256 _messengerId\n    ) external {\n        Messenger storage storedMessenger = messengers[_messengerId];\n        IMessenger messenger = IMessenger(storedMessenger.messengerAddress);\n        require(\n            msg.sender == messenger.owner(),\n            \"Can only be modified by the owner\"\n        );\n        storedMessenger.specificationUrl = _specificationUrl;\n        storedMessenger.ownerAddress = msg.sender;\n        emit MessengerModified(\n            storedMessenger.ownerAddress,\n            storedMessenger.messengerAddress,\n            storedMessenger.specificationUrl,\n            storedMessenger.precision,\n            storedMessenger.id\n        );\n    }\n\n    function getMessengers() external view returns (Messenger[] memory) {\n        Messenger[] memory returnMessengers =\n            new Messenger[](messengers.length);\n        for (uint256 index = 0; index < messengers.length; index++) {\n            IMessenger messenger =\n                IMessenger(messengers[index].messengerAddress);\n            uint256 requestsCounter = messenger.requestsCounter();\n            uint256 fulfillsCounter = messenger.fulfillsCounter();\n            returnMessengers[index] = Messenger({\n                ownerAddress: messengers[index].ownerAddress,\n                messengerAddress: messengers[index].messengerAddress,\n                specificationUrl: messengers[index].specificationUrl,\n                precision: messengers[index].precision,\n                requestsCounter: requestsCounter,\n                fulfillsCounter: fulfillsCounter,\n                id: messengers[index].id\n            });\n        }\n        return returnMessengers;\n    }\n\n    function getMessengersLength() external view returns (uint256) {\n        return messengers.length;\n    }\n}\n",
  "sourcePath": "@stacktical/dsla-protocol/contracts/MessengerRegistry.sol",
  "compiler": {
    "name": "solc",
    "version": "0.6.6+commit.6c089d02.Emscripten.clang"
  },
  "schemaVersion": "3.3.4",
  "updatedAt": "2021-05-05T23:57:45.188Z",
  "devdoc": {
    "details": "MessengerRegistry is a contract to register openly distributed Messengers",
    "methods": {
      "modifyMessenger(string,uint256)": {
        "details": "function to modifyMessenger a Messenger"
      },
      "registerMessenger(address,address,string)": {
        "details": "function to register a new Messenger"
      },
      "setSLARegistry()": {
        "details": "sets the SLARegistry contract address and can only be called once"
      }
    },
    "title": "MessengerRegistry"
  },
  "userdoc": {
    "methods": {}
  }
}