{
  "contractName": "NetworkAnalytics",
  "abi": [
    {
      "inputs": [
        {
          "internalType": "address",
          "name": "_chainlinkOracle",
          "type": "address"
        },
        {
          "internalType": "address",
          "name": "_chainlinkToken",
          "type": "address"
        },
        {
          "internalType": "bytes32",
          "name": "_jobId",
          "type": "bytes32"
        },
        {
          "internalType": "contract PeriodRegistry",
          "name": "_periodRegistry",
          "type": "address"
        },
        {
          "internalType": "contract StakeRegistry",
          "name": "_stakeRegistry",
          "type": "address"
        },
        {
          "internalType": "uint256",
          "name": "_feeMultiplier",
          "type": "uint256"
        }
      ],
      "stateMutability": "nonpayable",
      "type": "constructor"
    },
    {
      "anonymous": false,
      "inputs": [
        {
          "indexed": false,
          "internalType": "bytes32",
          "name": "networkName",
          "type": "bytes32"
        },
        {
          "indexed": false,
          "internalType": "enum PeriodRegistry.PeriodType",
          "name": "periodType",
          "type": "uint8"
        },
        {
          "indexed": false,
          "internalType": "uint256",
          "name": "periodId",
          "type": "uint256"
        },
        {
          "indexed": false,
          "internalType": "bytes32",
          "name": "ipfsHash",
          "type": "bytes32"
        }
      ],
      "name": "AnalyticsReceived",
      "type": "event"
    },
    {
      "anonymous": false,
      "inputs": [
        {
          "indexed": true,
          "internalType": "address",
          "name": "owner",
          "type": "address"
        },
        {
          "indexed": false,
          "internalType": "uint256",
          "name": "newValue",
          "type": "uint256"
        }
      ],
      "name": "CallerRewardModified",
      "type": "event"
    },
    {
      "anonymous": false,
      "inputs": [
        {
          "indexed": true,
          "internalType": "bytes32",
          "name": "id",
          "type": "bytes32"
        }
      ],
      "name": "ChainlinkCancelled",
      "type": "event"
    },
    {
      "anonymous": false,
      "inputs": [
        {
          "indexed": true,
          "internalType": "bytes32",
          "name": "id",
          "type": "bytes32"
        }
      ],
      "name": "ChainlinkFulfilled",
      "type": "event"
    },
    {
      "anonymous": false,
      "inputs": [
        {
          "indexed": true,
          "internalType": "bytes32",
          "name": "id",
          "type": "bytes32"
        }
      ],
      "name": "ChainlinkRequested",
      "type": "event"
    },
    {
      "anonymous": false,
      "inputs": [
        {
          "indexed": true,
          "internalType": "address",
          "name": "owner",
          "type": "address"
        },
        {
          "indexed": false,
          "internalType": "bytes32",
          "name": "jobId",
          "type": "bytes32"
        },
        {
          "indexed": false,
          "internalType": "uint256",
          "name": "fee",
          "type": "uint256"
        }
      ],
      "name": "JobIdModified",
      "type": "event"
    },
    {
      "anonymous": false,
      "inputs": [
        {
          "indexed": true,
          "internalType": "address",
          "name": "previousOwner",
          "type": "address"
        },
        {
          "indexed": true,
          "internalType": "address",
          "name": "newOwner",
          "type": "address"
        }
      ],
      "name": "OwnershipTransferred",
      "type": "event"
    },
    {
      "inputs": [],
      "name": "fee",
      "outputs": [
        {
          "internalType": "uint256",
          "name": "",
          "type": "uint256"
        }
      ],
      "stateMutability": "view",
      "type": "function"
    },
    {
      "inputs": [
        {
          "internalType": "uint256",
          "name": "",
          "type": "uint256"
        }
      ],
      "name": "networkNames",
      "outputs": [
        {
          "internalType": "bytes32",
          "name": "",
          "type": "bytes32"
        }
      ],
      "stateMutability": "view",
      "type": "function"
    },
    {
      "inputs": [],
      "name": "owner",
      "outputs": [
        {
          "internalType": "address",
          "name": "",
          "type": "address"
        }
      ],
      "stateMutability": "view",
      "type": "function"
    },
    {
      "inputs": [
        {
          "internalType": "bytes32",
          "name": "",
          "type": "bytes32"
        },
        {
          "internalType": "enum PeriodRegistry.PeriodType",
          "name": "",
          "type": "uint8"
        },
        {
          "internalType": "uint256",
          "name": "",
          "type": "uint256"
        }
      ],
      "name": "periodAnalytics",
      "outputs": [
        {
          "internalType": "bytes32",
          "name": "",
          "type": "bytes32"
        }
      ],
      "stateMutability": "view",
      "type": "function"
    },
    {
      "inputs": [
        {
          "internalType": "bytes32",
          "name": "",
          "type": "bytes32"
        },
        {
          "internalType": "enum PeriodRegistry.PeriodType",
          "name": "",
          "type": "uint8"
        },
        {
          "internalType": "uint256",
          "name": "",
          "type": "uint256"
        }
      ],
      "name": "periodAnalyticsRequested",
      "outputs": [
        {
          "internalType": "bool",
          "name": "",
          "type": "bool"
        }
      ],
      "stateMutability": "view",
      "type": "function"
    },
    {
      "inputs": [],
      "name": "renounceOwnership",
      "outputs": [],
      "stateMutability": "nonpayable",
      "type": "function"
    },
    {
      "inputs": [
        {
          "internalType": "bytes32",
          "name": "",
          "type": "bytes32"
        }
      ],
      "name": "requestIdToAnalyticsRequest",
      "outputs": [
        {
          "internalType": "bytes32",
          "name": "networkName",
          "type": "bytes32"
        },
        {
          "internalType": "uint256",
          "name": "periodId",
          "type": "uint256"
        },
        {
          "internalType": "enum PeriodRegistry.PeriodType",
          "name": "periodType",
          "type": "uint8"
        }
      ],
      "stateMutability": "view",
      "type": "function"
    },
    {
      "inputs": [
        {
          "internalType": "uint256",
          "name": "",
          "type": "uint256"
        }
      ],
      "name": "requests",
      "outputs": [
        {
          "internalType": "bytes32",
          "name": "",
          "type": "bytes32"
        }
      ],
      "stateMutability": "view",
      "type": "function"
    },
    {
      "inputs": [
        {
          "internalType": "address",
          "name": "newOwner",
          "type": "address"
        }
      ],
      "name": "transferOwnership",
      "outputs": [],
      "stateMutability": "nonpayable",
      "type": "function"
    },
    {
      "inputs": [
        {
          "internalType": "bytes32",
          "name": "_networkName",
          "type": "bytes32"
        }
      ],
      "name": "isValidNetwork",
      "outputs": [
        {
          "internalType": "bool",
          "name": "",
          "type": "bool"
        }
      ],
      "stateMutability": "view",
      "type": "function"
    },
    {
      "inputs": [
        {
          "internalType": "bytes32",
          "name": "_networkName",
          "type": "bytes32"
        }
      ],
      "name": "addNetwork",
      "outputs": [
        {
          "internalType": "bool",
          "name": "",
          "type": "bool"
        }
      ],
      "stateMutability": "nonpayable",
      "type": "function"
    },
    {
      "inputs": [
        {
          "internalType": "bytes32[]",
          "name": "_networkNames",
          "type": "bytes32[]"
        }
      ],
      "name": "addMultipleNetworks",
      "outputs": [
        {
          "internalType": "bool",
          "name": "",
          "type": "bool"
        }
      ],
      "stateMutability": "nonpayable",
      "type": "function"
    },
    {
      "inputs": [
        {
          "internalType": "uint256",
          "name": "_periodId",
          "type": "uint256"
        },
        {
          "internalType": "enum PeriodRegistry.PeriodType",
          "name": "_periodType",
          "type": "uint8"
        },
        {
          "internalType": "bytes32",
          "name": "_networkName",
          "type": "bytes32"
        },
        {
          "internalType": "bool",
          "name": "_ownerApproval",
          "type": "bool"
        }
      ],
      "name": "requestAnalytics",
      "outputs": [],
      "stateMutability": "nonpayable",
      "type": "function"
    },
    {
      "inputs": [
        {
          "internalType": "bytes32",
          "name": "_requestId",
          "type": "bytes32"
        },
        {
          "internalType": "bytes32",
          "name": "_chainlinkResponse",
          "type": "bytes32"
        }
      ],
      "name": "fulFillAnalytics",
      "outputs": [],
      "stateMutability": "nonpayable",
      "type": "function"
    },
    {
      "inputs": [
        {
          "internalType": "bytes32",
          "name": "_jobId",
          "type": "bytes32"
        },
        {
          "internalType": "uint256",
          "name": "_feeMultiplier",
          "type": "uint256"
        }
      ],
      "name": "setChainlinkJobID",
      "outputs": [],
      "stateMutability": "nonpayable",
      "type": "function"
    },
    {
      "inputs": [],
      "name": "getNetworkNames",
      "outputs": [
        {
          "internalType": "bytes32[]",
          "name": "networks",
          "type": "bytes32[]"
        }
      ],
      "stateMutability": "view",
      "type": "function"
    }
  ],
  "bytecode": "0x6080604052600160055567016345785d8a00006011553480156200002257600080fd5b506040516200213d3803806200213d8339810160408190526200004591620001a4565b60006200005a6001600160e01b036200012c16565b600080546001600160a01b0319166001600160a01b0383169081178255604051929350917f8be0079c531659141344cd1fd0a4f28419497f9722a3daafe3b4186f6b6457e0908290a35060016007556010849055620000c2856001600160e01b036200013016565b600f80546001600160a01b03199081166001600160a01b0389811691909117909255600880548216868416179055600980549091169184169190911790556011546200011c90829062000152602090811b62000ea017901c565b6012555062000279945050505050565b3390565b600380546001600160a01b0319166001600160a01b0392909216919091179055565b60008262000163575060006200019e565b828202828482816200017157fe5b04146200019b5760405162461bcd60e51b815260040162000192906200021f565b60405180910390fd5b90505b92915050565b60008060008060008060c08789031215620001bd578182fd5b8651620001ca8162000260565b6020880151909650620001dd8162000260565b604088015160608901519196509450620001f78162000260565b60808801519093506200020a8162000260565b8092505060a087015190509295509295509295565b60208082526021908201527f536166654d6174683a206d756c7469706c69636174696f6e206f766572666c6f6040820152607760f81b606082015260800190565b6001600160a01b03811681146200027657600080fd5b50565b611eb480620002896000396000f3fe608060405234801561001057600080fd5b50600436106100df5760003560e01c806381d12c581161008757806381d12c58146101985780638da5cb5b146101ab5780639b452323146101c0578063a0a2f054146101e2578063ae382f49146101f5578063ddca3f4314610208578063e1dd46a114610210578063f2fde38b14610223576100df565b8062213504146100e457806317c6066f1461010d578063292733bf146101205780633e68ac681461013557806368fe2cdd14610148578063715018a61461015d5780637e0ce269146101655780638190f34114610185575b600080fd5b6100f76100f2366004611712565b610236565b6040516101049190611a83565b60405180910390f35b6100f761011b36600461179a565b6102ef565b61013361012e3660046117b2565b610391565b005b6100f76101433660046117d3565b61042c565b610150610452565b6040516101049190611a3f565b6101336104aa565b6101786101733660046117d3565b610533565b6040516101049190611a8e565b6101336101933660046117b2565b610556565b6101786101a636600461179a565b6106f8565b6101b3610716565b6040516101049190611978565b6101d36101ce36600461179a565b610725565b60405161010493929190611ad0565b6101786101f036600461179a565b610749565b6101336102033660046118a3565b610756565b610178610d8e565b6100f761021e36600461179a565b610d94565b6101336102313660046116eb565b610ddc565b6000610240610e9c565b6001600160a01b0316610251610716565b6001600160a01b0316146102805760405162461bcd60e51b815260040161027790611c9d565b60405180910390fd5b60005b828110156102e3576102a684848381811061029a57fe5b90506020020135610d94565b6102db57600a8484838181106102b857fe5b835460018101855560009485526020948590209190940292909201359190920155505b600101610283565b50600090505b92915050565b60006102f9610e9c565b6001600160a01b031661030a610716565b6001600160a01b0316146103305760405162461bcd60e51b815260040161027790611c9d565b61033982610d94565b156103565760405162461bcd60e51b815260040161027790611ba8565b50600a805460018101825560009182527fc65a7bb8d6351c1cf70c95a316cc6a92839c986682d98bc35f958f4883f9d2a8018290555b919050565b610399610e9c565b6001600160a01b03166103aa610716565b6001600160a01b0316146103d05760405162461bcd60e51b815260040161027790611c9d565b60108290556011546103e990829063ffffffff610ea016565b601281905560405133917f8e7e22d2820965fa1a8fa3ad76db76127e2f1baaf65f50c4e267f28b2254f7cb91610420918691611ac2565b60405180910390a25050565b600c60209081526000938452604080852082529284528284209052825290205460ff1681565b6060600a8054806020026020016040519081016040528092919081815260200182805480156104a057602002820191906000526020600020905b81548152602001906001019080831161048c575b5050505050905090565b6104b2610e9c565b6001600160a01b03166104c3610716565b6001600160a01b0316146104e95760405162461bcd60e51b815260040161027790611c9d565b600080546040516001600160a01b03909116907f8be0079c531659141344cd1fd0a4f28419497f9722a3daafe3b4186f6b6457e0908390a3600080546001600160a01b0319169055565b600b60209081526000938452604080852082529284528284209052825290205481565b60008281526006602052604090205482906001600160a01b0316331461058e5760405162461bcd60e51b815260040161027790611d6e565b60008181526006602052604080822080546001600160a01b03191690555182917f7cc135e0cebb02c3480ae5d74d377283180a2601f8f644edf7987b009316c63a91a2600260075414156105f45760405162461bcd60e51b815260040161027790611e00565b6002600755610601611675565b6000848152600d60209081526040918290208251606081018452815481526001820154928101929092526002810154919290919083019060ff16600581111561064657fe5b600581111561065157fe5b9052508051604080830151602084015191519394507fe2f11ee4299271d2204416b3f4f0ebd793470db5409b363f09f36ff3d0f09504936106959392908890611a97565b60405180910390a180516000908152600b60205260408082209083015185929060058111156106c057fe5b60058111156106cb57fe5b81526020808201929092526040908101600090812094830151815293909152909120555050600160075550565b600e818154811061070557fe5b600091825260209091200154905081565b6000546001600160a01b031690565b600d6020526000908152604090208054600182015460029092015490919060ff1683565b600a818154811061070557fe5b600260075414156107795760405162461bcd60e51b815260040161027790611e00565b600260075561078782610d94565b6107a35760405162461bcd60e51b815260040161027790611d09565b6008546040516331edb3ad60e21b81526000916001600160a01b03169063c7b6ceb4906107d69087908990600401611af5565b60206040518083038186803b1580156107ee57600080fd5b505afa158015610802573d6000803e3d6000fd5b505050506040513d601f19601f82011682018060405250810190610826919061177e565b905060018115151461084a5760405162461bcd60e51b815260040161027790611c25565b6000838152600c602052604081209085600581111561086557fe5b600581111561087057fe5b81526020808201929092526040908101600090812088825290925290205460ff16156108ae5760405162461bcd60e51b815260040161027790611cd2565b81156108e7576108e26108bf610716565b306012546108cb610ee1565b6001600160a01b031692919063ffffffff610ef016565b6108f7565b6108f733306012546108cb610ee1565b6108ff611696565b6010546109149030638190f34160e01b610f4e565b60085460405160016259edcb60e01b0319815291925060009182916001600160a01b03169063ffa612359061094f908a908c90600401611af5565b604080518083038186803b15801561096657600080fd5b505afa15801561097a573d6000803e3d6000fd5b505050506040513d601f19601f8201168201806040525081019061099e91906118eb565b91509150610a0c604051806040016040528060088152602001676a6f625f7479706560c01b8152506040518060400160405280601c81526020017f7374616b696e675f656666696369656e63795f616e616c79746963730000000081525085610f799092919063ffffffff16565b604080518082018252600c81526b6e6574776f726b5f6e616d6560a01b60208201529051631de1646d60e31b8152610acb919073__StringUtils___________________________9063ef0b236890610a69908b90600401611a8e565b60006040518083038186803b158015610a8157600080fd5b505af4158015610a95573d6000803e3d6000fd5b505050506040513d6000823e601f3d908101601f19168201604052610abd9190810190611808565b85919063ffffffff610f7916565b60408051808201825260098152681c195c9a5bd917da5960ba1b6020820152905163fc966d4560e01b8152610b25919073__StringUtils___________________________9063fc966d4590610a69908d90600401611a8e565b610b916040518060400160405280600b81526020016a706572696f645f7479706560a81b81525073__StringUtils___________________________63fc966d458a6005811115610b7257fe5b60ff166040518263ffffffff1660e01b8152600401610a699190611a8e565b60408051808201825260148152731cdb1857db5bdb9a5d1bdc9a5b99d7dcdd185c9d60621b6020820152905163fc966d4560e01b8152610bf6919073__StringUtils___________________________9063fc966d4590610a69908790600401611a8e565b60408051808201825260128152711cdb1857db5bdb9a5d1bdc9a5b99d7d95b9960721b6020820152905163fc966d4560e01b8152610c59919073__StringUtils___________________________9063fc966d4590610a69908690600401611a8e565b600f54601254600091610c79916001600160a01b03909116908690610fa8565b600e80546001810182556000919091527fbb7b4a454dc3493923482f07822329ed19e8244eff582cc204f8554c3620c3fd0181905560408051606081018252898152602081018c90529192508101896005811115610cd357fe5b815250600d6000838152602001908152602001600020600082015181600001556020820151816001015560408201518160020160006101000a81548160ff02191690836005811115610d2157fe5b021790555050506000878152600c602052604081206001918a6005811115610d4557fe5b6005811115610d5057fe5b8152602080820192909252604090810160009081209c81529b909152909920805460ff19169915159990991790985550506001600755505050505050565b60125481565b6000805b600a54811015610dd35782600a8281548110610db057fe5b90600052602060002001541415610dcb57600191505061038c565b600101610d98565b50600092915050565b610de4610e9c565b6001600160a01b0316610df5610716565b6001600160a01b031614610e1b5760405162461bcd60e51b815260040161027790611c9d565b6001600160a01b038116610e415760405162461bcd60e51b815260040161027790611b1f565b600080546040516001600160a01b03808516939216917f8be0079c531659141344cd1fd0a4f28419497f9722a3daafe3b4186f6b6457e091a3600080546001600160a01b0319166001600160a01b0392909216919091179055565b3390565b600082610eaf575060006102e9565b82820282848281610ebc57fe5b0414610eda5760405162461bcd60e51b815260040161027790611c5c565b9392505050565b6003546001600160a01b031690565b610f48846323b872dd60e01b858585604051602401610f119392919061198c565b60408051601f198184030181529190526020810180516001600160e01b03166001600160e01b0319909316929092179091526110e7565b50505050565b610f56611696565b610f5e611696565b610f708186868663ffffffff61117616565b95945050505050565b6080830151610f8e908363ffffffff6111b316565b6080830151610fa3908263ffffffff6111b316565b505050565b600030600554604051602001610fbf929190611956565b60408051808303601f19018152918152815160209283012060055460608701526000818152600690935281832080546001600160a01b0319166001600160a01b038916179055905190925082917fb5e6e01e79f91267dc17b4e6314d5d4d03593d2ceee0fbb452b750bd70ea5af991a26003546001600160a01b0316634000aea0858461104b876111d0565b6040518463ffffffff1660e01b815260040161106993929190611a18565b602060405180830381600087803b15801561108357600080fd5b505af1158015611097573d6000803e3d6000fd5b505050506040513d601f19601f820116820180604052508101906110bb919061177e565b6110d75760405162461bcd60e51b815260040161027790611b65565b6005805460010190559392505050565b606061113c826040518060400160405280602081526020017f5361666545524332303a206c6f772d6c6576656c2063616c6c206661696c6564815250856001600160a01b031661124c9092919063ffffffff16565b805190915015610fa3578080602001905181019061115a919061177e565b610fa35760405162461bcd60e51b815260040161027790611db6565b61117e611696565b61118e8560800151610100611263565b50509183526001600160a01b031660208301526001600160e01b031916604082015290565b6111c0826003835161129d565b610fa3828263ffffffff6113a716565b6060634042994660e01b600080846000015185602001518660400151876060015160018960800151600001516040516024016112139897969594939291906119b0565b60408051601f198184030181529190526020810180516001600160e01b03166001600160e01b0319909316929092179091529050919050565b606061125b84846000856113c1565b949350505050565b61126b6116c2565b60208206156112805760208206602003820191505b506020828101829052604080518085526000815290920101905290565b601781116112c4576112be8360e0600585901b16831763ffffffff61148216565b50610fa3565b60ff81116112fa576112e7836018611fe0600586901b161763ffffffff61148216565b506112be8382600163ffffffff61149a16565b61ffff81116113315761131e836019611fe0600586901b161763ffffffff61148216565b506112be8382600263ffffffff61149a16565b63ffffffff811161136a5761135783601a611fe0600586901b161763ffffffff61148216565b506112be8382600463ffffffff61149a16565b67ffffffffffffffff8111610fa35761139483601b611fe0600586901b161763ffffffff61148216565b50610f488382600863ffffffff61149a16565b6113af6116c2565b610eda838460000151518485516114b3565b6060824710156113e35760405162461bcd60e51b815260040161027790611bdf565b6113ec8561155f565b6114085760405162461bcd60e51b815260040161027790611d37565b60006060866001600160a01b03168587604051611425919061193a565b60006040518083038185875af1925050503d8060008114611462576040519150601f19603f3d011682016040523d82523d6000602084013e611467565b606091505b5091509150611477828286611565565b979650505050505050565b61148a6116c2565b610eda838460000151518461159e565b6114a26116c2565b61125b8485600001515185856115e9565b6114bb6116c2565b82518211156114c957600080fd5b846020015182850111156114f3576114f3856114eb8760200151878601611647565b60020261165e565b6000808651805187602083010193508088870111156115125787860182525b505050602084015b602084106115395780518252601f19909301926020918201910161151a565b51815160001960208690036101000a019081169019919091161790525083949350505050565b3b151590565b60608315611574575081610eda565b8251156115845782518084602001fd5b8160405162461bcd60e51b81526004016102779190611b0c565b6115a66116c2565b836020015183106115c2576115c284856020015160020261165e565b8351805160208583010184815350808514156115df576001810182525b5093949350505050565b6115f16116c2565b8460200151848301111561160e5761160e8585840160020261165e565b60006001836101000a03905085518386820101858319825116178152508051848701111561163c5783860181525b509495945050505050565b6000818311156116585750816102e9565b50919050565b815161166a8383611263565b50610f4883826113a7565b6040805160608101825260008082526020820181905290918201905b905290565b6040805160a0810182526000808252602082018190529181018290526060810191909152608081016116915b604051806040016040528060608152602001600081525090565b8035600681106102e957600080fd5b6000602082840312156116fc578081fd5b81356001600160a01b0381168114610eda578182fd5b60008060208385031215611724578081fd5b823567ffffffffffffffff8082111561173b578283fd5b81850186601f82011261174c578384fd5b803592508183111561175c578384fd5b866020808502830101111561176f578384fd5b60200196919550909350505050565b60006020828403121561178f578081fd5b8151610eda81611e70565b6000602082840312156117ab578081fd5b5035919050565b600080604083850312156117c4578182fd5b50508035926020909101359150565b6000806000606084860312156117e7578081fd5b833592506117f885602086016116dc565b9150604084013590509250925092565b600060208284031215611819578081fd5b815167ffffffffffffffff80821115611830578283fd5b81840185601f820112611841578384fd5b8051925081831115611851578384fd5b604051601f8401601f191681016020018381118282101715611871578586fd5b604052838152818401602001871015611888578485fd5b611899846020830160208501611e37565b9695505050505050565b600080600080608085870312156118b8578081fd5b843593506118c986602087016116dc565b92506040850135915060608501356118e081611e70565b939692955090935050565b600080604083850312156118fd578182fd5b505080516020909101519092909150565b60008151808452611926816020860160208601611e37565b601f01601f19169290920160200192915050565b6000825161194c818460208701611e37565b9190910192915050565b60609290921b6bffffffffffffffffffffffff19168252601482015260340190565b6001600160a01b0391909116815260200190565b6001600160a01b039384168152919092166020820152604081019190915260600190565b6001600160a01b0389811682526020820189905260408201889052861660608201526001600160e01b03198516608082015260a0810184905260c0810183905261010060e08201819052600090611a098382018561190e565b9b9a5050505050505050505050565b600060018060a01b038516825283602083015260606040830152610f70606083018461190e565b6020808252825182820181905260009190848201906040850190845b81811015611a7757835183529284019291840191600101611a5b565b50909695505050505050565b901515815260200190565b90815260200190565b84815260808101611aa785611e63565b84602083015283604083015282606083015295945050505050565b918252602082015260400190565b8381526020810183905260608101611ae783611e63565b826040830152949350505050565b60408101611b0284611e63565b9281526020015290565b600060208252610eda602083018461190e565b60208082526026908201527f4f776e61626c653a206e6577206f776e657220697320746865207a65726f206160408201526564647265737360d01b606082015260800190565b60208082526023908201527f756e61626c6520746f207472616e73666572416e6443616c6c20746f206f7261604082015262636c6560e81b606082015260800190565b6020808252601f908201527f4e6574776f726b206e616d6520616c7265616479207265676973746572656400604082015260600190565b60208082526026908201527f416464726573733a20696e73756666696369656e742062616c616e636520666f6040820152651c8818d85b1b60d21b606082015260800190565b6020808252601b908201527f506572696f6420686173206e6f742066696e6973686564207965740000000000604082015260600190565b60208082526021908201527f536166654d6174683a206d756c7469706c69636174696f6e206f766572666c6f6040820152607760f81b606082015260800190565b6020808252818101527f4f776e61626c653a2063616c6c6572206973206e6f7420746865206f776e6572604082015260600190565b6020808252601b908201527f416e616c797469637320616c7265616479207265717565737465640000000000604082015260600190565b602080825260149082015273496e76616c6964206e6574776f726b206e616d6560601b604082015260600190565b6020808252601d908201527f416464726573733a2063616c6c20746f206e6f6e2d636f6e7472616374000000604082015260600190565b60208082526028908201527f536f75726365206d75737420626520746865206f7261636c65206f6620746865604082015267081c995c5d595cdd60c21b606082015260800190565b6020808252602a908201527f5361666545524332303a204552433230206f7065726174696f6e20646964206e6040820152691bdd081cdd58d8d9595960b21b606082015260800190565b6020808252601f908201527f5265656e7472616e637947756172643a207265656e7472616e742063616c6c00604082015260600190565b60005b83811015611e52578181015183820152602001611e3a565b83811115610f485750506000910152565b60068110611e6d57fe5b50565b8015158114611e6d57600080fdfea264697066735822122042bf652ea8d789edccb35e114d47012680d29531390df207e4b9158db8789a0164736f6c63430006060033",
  "immutableReferences": {},
  "source": "pragma solidity 0.6.6;\npragma experimental ABIEncoderV2;\n\nimport \"@chainlink/contracts/src/v0.6/ChainlinkClient.sol\";\nimport \"@openzeppelin/contracts/access/Ownable.sol\";\nimport \"@openzeppelin/contracts/token/ERC20/ERC20.sol\";\nimport \"@openzeppelin/contracts/token/ERC20/SafeERC20.sol\";\nimport \"@openzeppelin/contracts/utils/ReentrancyGuard.sol\";\nimport \"../../StringUtils.sol\";\nimport \"../../PeriodRegistry.sol\";\nimport \"../../StakeRegistry.sol\";\n\n/**\n * @title NetworkAnalytics\n * @dev contract to get the network analytics for the staking efficiency use case\n */\n\ncontract NetworkAnalytics is Ownable, ChainlinkClient, ReentrancyGuard {\n    using SafeERC20 for ERC20;\n\n    struct AnalyticsRequest {\n        bytes32 networkName;\n        uint256 periodId;\n        PeriodRegistry.PeriodType periodType;\n    }\n\n    /// @dev Period registry\n    PeriodRegistry private periodRegistry;\n    /// @dev StakeRegistry\n    StakeRegistry private stakeRegistry;\n\n    /// @dev bytes32 to store the available network names\n    bytes32[] public networkNames;\n    /// @dev (networkName=>periodType=>periodId=>bytes32) to store ipfsHash of the analytics corresponding to periodId\n    mapping(bytes32 => mapping(PeriodRegistry.PeriodType => mapping(uint256 => bytes32)))\n        public periodAnalytics;\n    /// @dev (networkName=>periodType=>periodId=>bool) to state if a network-periodType-periodId was already requested\n    mapping(bytes32 => mapping(PeriodRegistry.PeriodType => mapping(uint256 => bool)))\n        public periodAnalyticsRequested;\n\n    /// @dev Mapping that stores chainlink analytics request information\n    mapping(bytes32 => AnalyticsRequest) public requestIdToAnalyticsRequest;\n    /// @dev Array with all request IDs\n    bytes32[] public requests;\n    /// @dev Chainlink oracle address\n    address private oracle;\n    /// @dev chainlink jobId\n    bytes32 private jobId;\n    /// @dev fee for Chainlink querys. Currently 0.1 LINK\n    uint256 private baseFee = 0.1 ether;\n    /// @dev fee for Chainlink querys. Currently 0.1 LINK\n    uint256 public fee;\n\n    /**\n     * @dev event emitted when modifying the callerReward\n     * @param owner 1. -\n     * @param newValue 2. -\n     */\n    event CallerRewardModified(address indexed owner, uint256 newValue);\n\n    /**\n     * @dev event emitted when modifying the jobId\n     * @param owner 1. -\n     * @param jobId 2. -\n     * @param fee 3. -\n     */\n    event JobIdModified(address indexed owner, bytes32 jobId, uint256 fee);\n\n    /**\n     * @dev event emitted when having a response from Chainlink with the SLI\n     * @param networkName 1. network name\n     * @param periodType 2. id of the period\n     * @param periodId 3. id of the period\n     * @param ipfsHash 4. hash of the ipfs object\n     */\n    event AnalyticsReceived(\n        bytes32 networkName,\n        PeriodRegistry.PeriodType periodType,\n        uint256 periodId,\n        bytes32 ipfsHash\n    );\n\n    /**\n     * @dev parameterize the variables according to network\n     * @notice sets the Chainlink parameters (oracle address, token address, jobId) and sets the SLARegistry to 0x0 address\n     * @param _chainlinkOracle 1. the address of the oracle to create requests to\n     * @param _chainlinkToken 2. the address of LINK token contract\n     * @param _jobId 3. the job id for the HTTPGet job\n     * @param _periodRegistry 4. period registry\n     * @param _stakeRegistry 5. stake registry\n     * @param _feeMultiplier 6. states the amount of paid nodes running behind the precoordinator, to set the fee\n     */\n    constructor(\n        address _chainlinkOracle,\n        address _chainlinkToken,\n        bytes32 _jobId,\n        PeriodRegistry _periodRegistry,\n        StakeRegistry _stakeRegistry,\n        uint256 _feeMultiplier\n    ) public {\n        jobId = _jobId;\n        setChainlinkToken(_chainlinkToken);\n        oracle = _chainlinkOracle;\n        periodRegistry = _periodRegistry;\n        stakeRegistry = _stakeRegistry;\n        fee = _feeMultiplier.mul(baseFee);\n    }\n\n    function isValidNetwork(bytes32 _networkName) public view returns (bool) {\n        for (uint256 index; index < networkNames.length; index++) {\n            if (networkNames[index] == _networkName) return true;\n        }\n        return false;\n    }\n\n    /**\n     * @dev function to add a valid network name\n     * @param _networkName 1. bytes32 network name\n     */\n    function addNetwork(bytes32 _networkName)\n        external\n        onlyOwner\n        returns (bool)\n    {\n        require(\n            isValidNetwork(_networkName) == false,\n            \"Network name already registered\"\n        );\n        networkNames.push(_networkName);\n        return false;\n    }\n\n    /**\n     * @dev function to add multiple valid network names\n     * @param _networkNames 1. bytes32[] network names\n     */\n    function addMultipleNetworks(bytes32[] calldata _networkNames)\n        external\n        onlyOwner\n        returns (bool)\n    {\n        for (uint256 index = 0; index < _networkNames.length; index++) {\n            if (!isValidNetwork(_networkNames[index])) {\n                networkNames.push(_networkNames[index]);\n            }\n        }\n        return false;\n    }\n\n    /**\n     * @dev Request analytics object for the current period.\n     * @param _periodId 1. id of the canonical period to be analyzed\n     * @param _periodType 2. type of period to be queried\n     * @param _networkName 3. network name to publish analytics\n     * @param _ownerApproval 4. used to choose if the call is going to be funded by the contract owner, to avoid a block by contract owner\n     */\n    function requestAnalytics(\n        uint256 _periodId,\n        PeriodRegistry.PeriodType _periodType,\n        bytes32 _networkName,\n        bool _ownerApproval\n    ) public nonReentrant {\n        require(isValidNetwork(_networkName), \"Invalid network name\");\n        bool periodIsFinished =\n            periodRegistry.periodIsFinished(_periodType, _periodId);\n        require(periodIsFinished == true, \"Period has not finished yet\");\n        require(\n            periodAnalyticsRequested[_networkName][_periodType][_periodId] ==\n                false,\n            \"Analytics already requested\"\n        );\n        if (_ownerApproval) {\n            ERC20(chainlinkTokenAddress()).safeTransferFrom(\n                owner(),\n                address(this),\n                fee\n            );\n        } else {\n            ERC20(chainlinkTokenAddress()).safeTransferFrom(\n                msg.sender,\n                address(this),\n                fee\n            );\n        }\n\n        Chainlink.Request memory request =\n            buildChainlinkRequest(\n                jobId,\n                address(this),\n                this.fulFillAnalytics.selector\n            );\n\n        (uint256 start, uint256 end) =\n            periodRegistry.getPeriodStartAndEnd(_periodType, _periodId);\n\n        request.add(\"job_type\", \"staking_efficiency_analytics\");\n        request.add(\"network_name\", StringUtils.bytes32ToStr(_networkName));\n        request.add(\"period_id\", StringUtils.uintToStr(_periodId));\n        request.add(\n            \"period_type\",\n            StringUtils.uintToStr(uint256(uint8(_periodType)))\n        );\n        request.add(\"sla_monitoring_start\", StringUtils.uintToStr(start));\n        request.add(\"sla_monitoring_end\", StringUtils.uintToStr(end));\n\n        bytes32 requestId = sendChainlinkRequestTo(oracle, request, fee);\n        requests.push(requestId);\n        requestIdToAnalyticsRequest[requestId] = AnalyticsRequest({\n            networkName: _networkName,\n            periodId: _periodId,\n            periodType: _periodType\n        });\n        periodAnalyticsRequested[_networkName][_periodType][_periodId] = true;\n    }\n\n    /**\n     * @dev callback function for the Chainlink SLI request which stores\n     * the SLI in the SLA contract\n     * @param _requestId the ID of the ChainLink request\n     * @param _chainlinkResponse response object from Chainlink Oracles\n     */\n    function fulFillAnalytics(bytes32 _requestId, bytes32 _chainlinkResponse)\n        external\n        recordChainlinkFulfillment(_requestId)\n        nonReentrant\n    {\n        AnalyticsRequest memory request =\n            requestIdToAnalyticsRequest[_requestId];\n\n        emit AnalyticsReceived(\n            request.networkName,\n            request.periodType,\n            request.periodId,\n            _chainlinkResponse\n        );\n\n        periodAnalytics[request.networkName][request.periodType][\n            request.periodId\n        ] = _chainlinkResponse;\n    }\n\n    /**\n     * @dev sets a new jobId, which is a agreement Id of a PreCoordinator contract\n     * @param _jobId the id of the PreCoordinator agreement\n     * @param _feeMultiplier how many Chainlink nodes would be paid on the agreement id, to set the fee value\n     */\n    function setChainlinkJobID(bytes32 _jobId, uint256 _feeMultiplier)\n        external\n        onlyOwner\n    {\n        jobId = _jobId;\n        fee = _feeMultiplier.mul(baseFee);\n        emit JobIdModified(msg.sender, _jobId, fee);\n    }\n\n    function getNetworkNames()\n        external\n        view\n        returns (bytes32[] memory networks)\n    {\n        networks = networkNames;\n    }\n}\n",
  "sourcePath": "@stacktical/dsla-protocol/contracts/use-cases/staking-efficiency/NetworkAnalytics.sol",
  "compiler": {
    "name": "solc",
    "version": "0.6.6+commit.6c089d02.Emscripten.clang"
  },
  "schemaVersion": "3.3.4",
  "updatedAt": "2021-05-06T22:43:19.092Z",
  "devdoc": {
    "details": "contract to get the network analytics for the staking efficiency use case",
    "methods": {
      "addMultipleNetworks(bytes32[])": {
        "details": "function to add multiple valid network names",
        "params": {
          "_networkNames": "1. bytes32[] network names"
        }
      },
      "addNetwork(bytes32)": {
        "details": "function to add a valid network name",
        "params": {
          "_networkName": "1. bytes32 network name"
        }
      },
      "constructor": {
        "details": "parameterize the variables according to network",
        "params": {
          "_chainlinkOracle": "1. the address of the oracle to create requests to",
          "_chainlinkToken": "2. the address of LINK token contract",
          "_feeMultiplier": "6. states the amount of paid nodes running behind the precoordinator, to set the fee",
          "_jobId": "3. the job id for the HTTPGet job",
          "_periodRegistry": "4. period registry",
          "_stakeRegistry": "5. stake registry"
        }
      },
      "fulFillAnalytics(bytes32,bytes32)": {
        "details": "callback function for the Chainlink SLI request which stores the SLI in the SLA contract",
        "params": {
          "_chainlinkResponse": "response object from Chainlink Oracles",
          "_requestId": "the ID of the ChainLink request"
        }
      },
      "owner()": {
        "details": "Returns the address of the current owner."
      },
      "renounceOwnership()": {
        "details": "Leaves the contract without owner. It will not be possible to call `onlyOwner` functions anymore. Can only be called by the current owner.     * NOTE: Renouncing ownership will leave the contract without an owner, thereby removing any functionality that is only available to the owner."
      },
      "requestAnalytics(uint256,uint8,bytes32,bool)": {
        "details": "Request analytics object for the current period.",
        "params": {
          "_networkName": "3. network name to publish analytics",
          "_ownerApproval": "4. used to choose if the call is going to be funded by the contract owner, to avoid a block by contract owner",
          "_periodId": "1. id of the canonical period to be analyzed",
          "_periodType": "2. type of period to be queried"
        }
      },
      "setChainlinkJobID(bytes32,uint256)": {
        "details": "sets a new jobId, which is a agreement Id of a PreCoordinator contract",
        "params": {
          "_feeMultiplier": "how many Chainlink nodes would be paid on the agreement id, to set the fee value",
          "_jobId": "the id of the PreCoordinator agreement"
        }
      },
      "transferOwnership(address)": {
        "details": "Transfers ownership of the contract to a new account (`newOwner`). Can only be called by the current owner."
      }
    },
    "title": "NetworkAnalytics"
  },
  "userdoc": {
    "methods": {
      "constructor": "sets the Chainlink parameters (oracle address, token address, jobId) and sets the SLARegistry to 0x0 address"
    }
  }
}