{
  "contractName": "SEMessenger",
  "abi": [
    {
      "inputs": [
        {
          "internalType": "address",
          "name": "_messengerChainlinkOracle",
          "type": "address"
        },
        {
          "internalType": "address",
          "name": "_messengerChainlinkToken",
          "type": "address"
        },
        {
          "internalType": "bytes32",
          "name": "_messengerJobId",
          "type": "bytes32"
        },
        {
          "internalType": "address",
          "name": "_networkAnalyticsAddress",
          "type": "address"
        },
        {
          "internalType": "uint256",
          "name": "_feeMultiplier",
          "type": "uint256"
        }
      ],
      "stateMutability": "nonpayable",
      "type": "constructor"
    },
    {
      "anonymous": false,
      "inputs": [
        {
          "indexed": true,
          "internalType": "bytes32",
          "name": "id",
          "type": "bytes32"
        }
      ],
      "name": "ChainlinkCancelled",
      "type": "event"
    },
    {
      "anonymous": false,
      "inputs": [
        {
          "indexed": true,
          "internalType": "bytes32",
          "name": "id",
          "type": "bytes32"
        }
      ],
      "name": "ChainlinkFulfilled",
      "type": "event"
    },
    {
      "anonymous": false,
      "inputs": [
        {
          "indexed": true,
          "internalType": "bytes32",
          "name": "id",
          "type": "bytes32"
        }
      ],
      "name": "ChainlinkRequested",
      "type": "event"
    },
    {
      "anonymous": false,
      "inputs": [
        {
          "indexed": true,
          "internalType": "address",
          "name": "owner",
          "type": "address"
        },
        {
          "indexed": false,
          "internalType": "bytes32",
          "name": "jobId",
          "type": "bytes32"
        },
        {
          "indexed": false,
          "internalType": "uint256",
          "name": "fee",
          "type": "uint256"
        }
      ],
      "name": "JobIdModified",
      "type": "event"
    },
    {
      "anonymous": false,
      "inputs": [
        {
          "indexed": true,
          "internalType": "address",
          "name": "previousOwner",
          "type": "address"
        },
        {
          "indexed": true,
          "internalType": "address",
          "name": "newOwner",
          "type": "address"
        }
      ],
      "name": "OwnershipTransferred",
      "type": "event"
    },
    {
      "anonymous": false,
      "inputs": [
        {
          "indexed": true,
          "internalType": "address",
          "name": "slaAddress",
          "type": "address"
        },
        {
          "indexed": false,
          "internalType": "uint256",
          "name": "periodId",
          "type": "uint256"
        },
        {
          "indexed": true,
          "internalType": "bytes32",
          "name": "requestId",
          "type": "bytes32"
        },
        {
          "indexed": false,
          "internalType": "bytes32",
          "name": "chainlinkResponse",
          "type": "bytes32"
        }
      ],
      "name": "SLIReceived",
      "type": "event"
    },
    {
      "anonymous": false,
      "inputs": [
        {
          "indexed": true,
          "internalType": "address",
          "name": "caller",
          "type": "address"
        },
        {
          "indexed": false,
          "internalType": "uint256",
          "name": "requestsCounter",
          "type": "uint256"
        },
        {
          "indexed": false,
          "internalType": "bytes32",
          "name": "requestId",
          "type": "bytes32"
        }
      ],
      "name": "SLIRequested",
      "type": "event"
    },
    {
      "inputs": [],
      "name": "networkAnalyticsAddress",
      "outputs": [
        {
          "internalType": "address",
          "name": "",
          "type": "address"
        }
      ],
      "stateMutability": "view",
      "type": "function"
    },
    {
      "inputs": [],
      "name": "owner",
      "outputs": [
        {
          "internalType": "address",
          "name": "",
          "type": "address"
        }
      ],
      "stateMutability": "view",
      "type": "function"
    },
    {
      "inputs": [],
      "name": "renounceOwnership",
      "outputs": [],
      "stateMutability": "nonpayable",
      "type": "function"
    },
    {
      "inputs": [
        {
          "internalType": "bytes32",
          "name": "",
          "type": "bytes32"
        }
      ],
      "name": "requestIdToSLIRequest",
      "outputs": [
        {
          "internalType": "address",
          "name": "slaAddress",
          "type": "address"
        },
        {
          "internalType": "uint256",
          "name": "periodId",
          "type": "uint256"
        }
      ],
      "stateMutability": "view",
      "type": "function"
    },
    {
      "inputs": [
        {
          "internalType": "uint256",
          "name": "",
          "type": "uint256"
        }
      ],
      "name": "requests",
      "outputs": [
        {
          "internalType": "bytes32",
          "name": "",
          "type": "bytes32"
        }
      ],
      "stateMutability": "view",
      "type": "function"
    },
    {
      "inputs": [
        {
          "internalType": "address",
          "name": "newOwner",
          "type": "address"
        }
      ],
      "name": "transferOwnership",
      "outputs": [],
      "stateMutability": "nonpayable",
      "type": "function"
    },
    {
      "inputs": [],
      "name": "setSLARegistry",
      "outputs": [],
      "stateMutability": "nonpayable",
      "type": "function"
    },
    {
      "inputs": [
        {
          "internalType": "uint256",
          "name": "_periodId",
          "type": "uint256"
        },
        {
          "internalType": "address",
          "name": "_slaAddress",
          "type": "address"
        },
        {
          "internalType": "bool",
          "name": "_messengerOwnerApproval",
          "type": "bool"
        },
        {
          "internalType": "address",
          "name": "_callerAddress",
          "type": "address"
        }
      ],
      "name": "requestSLI",
      "outputs": [],
      "stateMutability": "nonpayable",
      "type": "function"
    },
    {
      "inputs": [
        {
          "internalType": "bytes32",
          "name": "_requestId",
          "type": "bytes32"
        },
        {
          "internalType": "uint256",
          "name": "_chainlinkResponseUint256",
          "type": "uint256"
        }
      ],
      "name": "fulfillSLI",
      "outputs": [],
      "stateMutability": "nonpayable",
      "type": "function"
    },
    {
      "inputs": [
        {
          "internalType": "bytes32",
          "name": "sliData",
          "type": "bytes32"
        }
      ],
      "name": "parseSLIData",
      "outputs": [
        {
          "internalType": "uint256",
          "name": "",
          "type": "uint256"
        },
        {
          "internalType": "uint256",
          "name": "",
          "type": "uint256"
        }
      ],
      "stateMutability": "pure",
      "type": "function"
    },
    {
      "inputs": [
        {
          "internalType": "bytes32",
          "name": "_newJobId",
          "type": "bytes32"
        },
        {
          "internalType": "uint256",
          "name": "_feeMultiplier",
          "type": "uint256"
        }
      ],
      "name": "setChainlinkJobID",
      "outputs": [],
      "stateMutability": "nonpayable",
      "type": "function"
    },
    {
      "inputs": [],
      "name": "slaRegistryAddress",
      "outputs": [
        {
          "internalType": "address",
          "name": "",
          "type": "address"
        }
      ],
      "stateMutability": "view",
      "type": "function"
    },
    {
      "inputs": [],
      "name": "messengerPrecision",
      "outputs": [
        {
          "internalType": "uint256",
          "name": "",
          "type": "uint256"
        }
      ],
      "stateMutability": "view",
      "type": "function"
    },
    {
      "inputs": [],
      "name": "oracle",
      "outputs": [
        {
          "internalType": "address",
          "name": "",
          "type": "address"
        }
      ],
      "stateMutability": "view",
      "type": "function"
    },
    {
      "inputs": [],
      "name": "jobId",
      "outputs": [
        {
          "internalType": "bytes32",
          "name": "",
          "type": "bytes32"
        }
      ],
      "stateMutability": "view",
      "type": "function"
    },
    {
      "inputs": [],
      "name": "fee",
      "outputs": [
        {
          "internalType": "uint256",
          "name": "",
          "type": "uint256"
        }
      ],
      "stateMutability": "view",
      "type": "function"
    },
    {
      "inputs": [],
      "name": "requestsCounter",
      "outputs": [
        {
          "internalType": "uint256",
          "name": "",
          "type": "uint256"
        }
      ],
      "stateMutability": "view",
      "type": "function"
    },
    {
      "inputs": [],
      "name": "fulfillsCounter",
      "outputs": [
        {
          "internalType": "uint256",
          "name": "",
          "type": "uint256"
        }
      ],
      "stateMutability": "view",
      "type": "function"
    }
  ],
  "bytecode": "0x60c060405260016004553480156200001657600080fd5b50604051620021993803806200219983398101604081905262000039916200012e565b60006200004e6001600160e01b03620000ea16565b600680546001600160a01b0319166001600160a01b038316908117909155604051919250906000907f8be0079c531659141344cd1fd0a4f28419497f9722a3daafe3b4186f6b6457e0908290a3506001600755600b839055620000ba846001600160e01b03620000ee16565b6001600160601b0319606095861b811660a0529190941b16608052505067016345785d8a000002600c556200018e565b3390565b600280546001600160a01b0319166001600160a01b0392909216919091179055565b80516001600160a01b03811681146200012857600080fd5b92915050565b600080600080600060a0868803121562000146578081fd5b62000152878762000110565b945062000163876020880162000110565b9350604086015192506200017b876060880162000110565b9150608086015190509295509295909350565b60805160601c60a05160601c611fd2620001c7600039806106a75280610b9e5250806106e9528061086e5280610b6f5250611fd26000f3fe608060405234801561001057600080fd5b50600436106101165760003560e01c806397a82192116100a2578063c2939d9711610071578063c2939d9714610206578063c9b0cb221461020e578063ddca3f4314610216578063f2fde38b1461021e578063f38815891461023157610116565b806397a82192146101b7578063a50c5425146101ca578063ae401eb9146101d2578063bc0bfc00146101f357610116565b8063715018a6116100e9578063715018a6146101845780637dc0d1d01461018c57806381d12c58146101945780638acb09a0146101a75780638da5cb5b146101af57610116565b806304e4fc011461011b578063292733bf14610145578063663c22691461015a5780636e71890d1461016f575b600080fd5b61012e6101293660046118c6565b610239565b60405161013c929190611ba1565b60405180910390f35b6101586101533660046118f6565b61056c565b005b610162610607565b60405161013c9190611b76565b61017761060d565b60405161013c9190611a8d565b61015861061c565b6101776106a5565b6101626101a23660046118c6565b6106c9565b6101776106e7565b61017761070b565b6101586101c53660046119d1565b61071a565b610162610cc3565b6101e56101e03660046118c6565b610cc9565b60405161013c929190611ac5565b6101586102013660046118f6565b610cee565b610162610ed6565b610162610edc565b610162610ee2565b61015861022c366004611883565b610ee8565b610158610fa9565b600080606073__StringUtils___________________________63ef0b2368856040518263ffffffff1660e01b81526004016102759190611b76565b60006040518083038186803b15801561028d57600080fd5b505af41580156102a1573d6000803e3d6000fd5b505050506040513d6000823e601f3d908101601f191682016040526102c99190810190611936565b805190915060608167ffffffffffffffff811180156102e757600080fd5b506040519080825280601f01601f191660200182016040528015610312576020820181803683370190505b50905060608267ffffffffffffffff8111801561032e57600080fd5b506040519080825280601f01601f191660200182016040528015610359576020820181803683370190505b50905060005b8381101561044657600b60fa1b6001600160f81b03191685828151811061038257fe5b01602001516001600160f81b031916141561043e5760005b818110156103e4578581815181106103ae57fe5b602001015160f81c60f81b8482815181106103c557fe5b60200101906001600160f81b031916908160001a90535060010161039a565b5060005b60018286030381101561043c57858183600101018151811061040657fe5b602001015160f81c60f81b83828151811061041d57fe5b60200101906001600160f81b031916908160001a9053506001016103e8565b505b60010161035f565b506040516302d06d0560e01b815260009073__StringUtils___________________________906302d06d0590610481908690600401611baf565b60206040518083038186803b15801561049957600080fd5b505af41580156104ad573d6000803e3d6000fd5b505050506040513d601f19601f820116820180604052508101906104d191906118de565b9050600073__StringUtils___________________________6302d06d05846040518263ffffffff1660e01b815260040161050c9190611baf565b60206040518083038186803b15801561052457600080fd5b505af4158015610538573d6000803e3d6000fd5b505050506040513d601f19601f8201168201806040525081019061055c91906118de565b9197509095505050505050915091565b610574610fe6565b6001600160a01b031661058561070b565b6001600160a01b0316146105b45760405162461bcd60e51b81526004016105ab90611e15565b60405180910390fd5b600b82905567016345785d8a00008102600c81905560405133917f8e7e22d2820965fa1a8fa3ad76db76127e2f1baaf65f50c4e267f28b2254f7cb916105fb918691611ba1565b60405180910390a25050565b600d5490565b600a546001600160a01b031690565b610624610fe6565b6001600160a01b031661063561070b565b6001600160a01b03161461065b5760405162461bcd60e51b81526004016105ab90611e15565b6006546040516000916001600160a01b0316907f8be0079c531659141344cd1fd0a4f28419497f9722a3daafe3b4186f6b6457e0908390a3600680546001600160a01b0319169055565b7f000000000000000000000000000000000000000000000000000000000000000090565b600981815481106106d657fe5b600091825260209091200154905081565b7f000000000000000000000000000000000000000000000000000000000000000081565b6006546001600160a01b031690565b600a546001600160a01b031633146107445760405162461bcd60e51b81526004016105ab90611d93565b600260075414156107675760405162461bcd60e51b81526004016105ab90611f13565b600260078190555060008390506000816001600160a01b03166346e0fbae6040518163ffffffff1660e01b815260040160206040518083038186803b1580156107af57600080fd5b505afa1580156107c3573d6000803e3d6000fd5b505050506040513d601f19601f820116820180604052508101906107e79190611917565b90506000826001600160a01b03166378025ec460006040518263ffffffff1660e01b81526004016108189190611b76565b60206040518083038186803b15801561083057600080fd5b505afa158015610844573d6000803e3d6000fd5b505050506040513d601f19601f8201168201806040525081019061086891906118de565b905060007f00000000000000000000000000000000000000000000000000000000000000006001600160a01b0316637e0ce26983858b6040518463ffffffff1660e01b81526004016108bc93929190611b7f565b60206040518083038186803b1580156108d457600080fd5b505afa1580156108e8573d6000803e3d6000fd5b505050506040513d601f19601f8201168201806040525081019061090c91906118de565b90508061092b5760405162461bcd60e51b81526004016105ab90611d47565b85156109645761095f61093c61070b565b30600c54610948610fea565b6001600160a01b031692919063ffffffff610ff916565b610974565b6109748530600c54610948610fea565b61097c61181d565b600b546109909030622f02ff60ea1b611057565b90506109f1604051806040016040528060088152602001676a6f625f7479706560c01b815250604051806040016040528060128152602001717374616b696e675f656666696369656e637960701b815250836110849092919063ffffffff16565b60408051808201825260098152681c195c9a5bd917da5960ba1b6020820152905163fc966d4560e01b8152610aad919073__StringUtils___________________________9063fc966d4590610a4b908e90600401611b76565b60006040518083038186803b158015610a6357600080fd5b505af4158015610a77573d6000803e3d6000fd5b505050506040513d6000823e601f3d908101601f19168201604052610a9f9190810190611936565b83919063ffffffff61108416565b604080518082018252600b81526a736c615f6164647265737360a81b60208201529051635e57966d60e01b8152610b09919073__StringUtils___________________________90635e57966d90610a4b908d90600401611a8d565b604080518082018252601981527f6e6574776f726b5f616e616c79746963735f616464726573730000000000000060208201529051635e57966d60e01b8152610b97919073__StringUtils___________________________90635e57966d90610a4b907f000000000000000000000000000000000000000000000000000000000000000090600401611a8d565b6000610bc67f000000000000000000000000000000000000000000000000000000000000000083600c546110b3565b9050600981908060018154018082558091505060019003906000526020600020016000909190919091505560405180604001604052808a6001600160a01b031681526020018b8152506008600083815260200190815260200160002060008201518160000160006101000a8154816001600160a01b0302191690836001600160a01b03160217905550602082015181600101559050506001600d60008282540192505081905550866001600160a01b03167feab5eb77e722078f3fab7eb6a77c74f7001181e1e3a74d51b7b5747ee1b31cb9600d5483604051610caa929190611ba1565b60405180910390a2505060016007555050505050505050565b600e5490565b600860205260009081526040902080546001909101546001600160a01b039091169082565b60026007541415610d115760405162461bcd60e51b81526004016105ab90611f13565b600260075560008281526005602052604090205482906001600160a01b03163314610d4e5760405162461bcd60e51b81526004016105ab90611e81565b60008181526005602052604080822080546001600160a01b03191690555182917f7cc135e0cebb02c3480ae5d74d377283180a2601f8f644edf7987b009316c63a91a281610d9a611852565b506000848152600860209081526040918290208251808401845281546001600160a01b0316808252600190920154928101839052925187927f56514ef6e1ffd0f970ebf32dc181e476384e6e53a8351719040b4030318a933b91610e0091908790611ba1565b60405180910390a3600080610e1484610239565b90925090506000610e2b838363ffffffff6111f216565b90506000610e5282610e4686620186a063ffffffff61122016565b9063ffffffff61125a16565b85516020870151604051636bd2e21160e11b81529293506001600160a01b039091169163d7a5c42291610e8a91859190600401611ba1565b600060405180830381600087803b158015610ea457600080fd5b505af1158015610eb8573d6000803e3d6000fd5b5050600e805460019081019091556007555050505050505050505050565b600b5490565b6103e890565b600c5490565b610ef0610fe6565b6001600160a01b0316610f0161070b565b6001600160a01b031614610f275760405162461bcd60e51b81526004016105ab90611e15565b6001600160a01b038116610f4d5760405162461bcd60e51b81526004016105ab90611bc2565b6006546040516001600160a01b038084169216907f8be0079c531659141344cd1fd0a4f28419497f9722a3daafe3b4186f6b6457e090600090a3600680546001600160a01b0319166001600160a01b0392909216919091179055565b600a546001600160a01b031615610fd25760405162461bcd60e51b81526004016105ab90611cff565b600a80546001600160a01b03191633179055565b3390565b6002546001600160a01b031690565b611051846323b872dd60e01b85858560405160240161101a93929190611aa1565b60408051601f198184030181529190526020810180516001600160e01b03166001600160e01b03199093169290921790915261128f565b50505050565b61105f61181d565b61106761181d565b6110798186868663ffffffff61131e16565b9150505b9392505050565b6080830151611099908363ffffffff61135b16565b60808301516110ae908263ffffffff61135b16565b505050565b6000306004546040516020016110ca929190611a6b565b60408051808303601f19018152918152815160209283012060045460608701526000818152600590935281832080546001600160a01b0319166001600160a01b038916179055905190925082917fb5e6e01e79f91267dc17b4e6314d5d4d03593d2ceee0fbb452b750bd70ea5af991a26002546001600160a01b0316634000aea0858461115687611378565b6040518463ffffffff1660e01b815260040161117493929190611b46565b602060405180830381600087803b15801561118e57600080fd5b505af11580156111a2573d6000803e3d6000fd5b505050506040513d601f19601f820116820180604052508101906111c691906118aa565b6111e25760405162461bcd60e51b81526004016105ab90611c3f565b6004805460010190559392505050565b6000828201838110156112175760405162461bcd60e51b81526004016105ab90611c08565b90505b92915050565b60008261122f5750600061121a565b8282028284828161123c57fe5b04146112175760405162461bcd60e51b81526004016105ab90611dd4565b600080821161127b5760405162461bcd60e51b81526004016105ab90611cc8565b600082848161128657fe5b04949350505050565b60606112e4826040518060400160405280602081526020017f5361666545524332303a206c6f772d6c6576656c2063616c6c206661696c6564815250856001600160a01b03166113f49092919063ffffffff16565b8051909150156110ae578080602001905181019061130291906118aa565b6110ae5760405162461bcd60e51b81526004016105ab90611ec9565b61132661181d565b611336856080015161010061140b565b50509183526001600160a01b031660208301526001600160e01b031916604082015290565b6113688260038351611445565b6110ae828263ffffffff61154f16565b6060634042994660e01b600080846000015185602001518660400151876060015160018960800151600001516040516024016113bb989796959493929190611ade565b60408051601f198184030181529190526020810180516001600160e01b03166001600160e01b0319909316929092179091529050919050565b60606114038484600085611569565b949350505050565b611413611869565b60208206156114285760208206602003820191505b506020828101829052604080518085526000815290920101905290565b6017811161146c576114668360e0600585901b16831763ffffffff61162a16565b506110ae565b60ff81116114a25761148f836018611fe0600586901b161763ffffffff61162a16565b506114668382600163ffffffff61164216565b61ffff81116114d9576114c6836019611fe0600586901b161763ffffffff61162a16565b506114668382600263ffffffff61164216565b63ffffffff8111611512576114ff83601a611fe0600586901b161763ffffffff61162a16565b506114668382600463ffffffff61164216565b67ffffffffffffffff81116110ae5761153c83601b611fe0600586901b161763ffffffff61162a16565b506110518382600863ffffffff61164216565b611557611869565b6112178384600001515184855161165b565b60608247101561158b5760405162461bcd60e51b81526004016105ab90611c82565b61159485611707565b6115b05760405162461bcd60e51b81526004016105ab90611e4a565b60006060866001600160a01b031685876040516115cd9190611a4f565b60006040518083038185875af1925050503d806000811461160a576040519150601f19603f3d011682016040523d82523d6000602084013e61160f565b606091505b509150915061161f82828661170d565b979650505050505050565b611632611869565b6112178384600001515184611746565b61164a611869565b611403848560000151518585611791565b611663611869565b825182111561167157600080fd5b8460200151828501111561169b5761169b8561169387602001518786016117ef565b600202611806565b6000808651805187602083010193508088870111156116ba5787860182525b505050602084015b602084106116e15780518252601f1990930192602091820191016116c2565b51815160001960208690036101000a019081169019919091161790525083949350505050565b3b151590565b6060831561171c57508161107d565b82511561172c5782518084602001fd5b8160405162461bcd60e51b81526004016105ab9190611baf565b61174e611869565b8360200151831061176a5761176a848560200151600202611806565b835180516020858301018481535080851415611787576001810182525b5093949350505050565b611799611869565b846020015184830111156117b6576117b685858401600202611806565b60006001836101000a0390508551838682010185831982511617815250805184870111156117e45783860181525b509495945050505050565b60008183111561180057508161121a565b50919050565b8151611812838361140b565b50611051838261154f565b6040805160a08101825260008082526020820181905291810182905260608101919091526080810161184d611869565b905290565b604080518082019091526000808252602082015290565b604051806040016040528060608152602001600081525090565b600060208284031215611894578081fd5b81356001600160a01b0381168114611217578182fd5b6000602082840312156118bb578081fd5b815161121781611f8e565b6000602082840312156118d7578081fd5b5035919050565b6000602082840312156118ef578081fd5b5051919050565b60008060408385031215611908578081fd5b50508035926020909101359150565b600060208284031215611928578081fd5b815160068110611217578182fd5b600060208284031215611947578081fd5b815167ffffffffffffffff8082111561195e578283fd5b81840185601f82011261196f578384fd5b805192508183111561197f578384fd5b604051601f8401601f19168101602001838111828210171561199f578586fd5b6040528381528184016020018710156119b6578485fd5b6119c7846020830160208501611f4a565b9695505050505050565b600080600080608085870312156119e6578182fd5b8435935060208501356119f881611f76565b92506040850135611a0881611f8e565b91506060850135611a1881611f76565b939692955090935050565b60008151808452611a3b816020860160208601611f4a565b601f01601f19169290920160200192915050565b60008251611a61818460208701611f4a565b9190910192915050565b60609290921b6bffffffffffffffffffffffff19168252601482015260340190565b6001600160a01b0391909116815260200190565b6001600160a01b039384168152919092166020820152604081019190915260600190565b6001600160a01b03929092168252602082015260400190565b6001600160a01b0389811682526020820189905260408201889052861660608201526001600160e01b03198516608082015260a0810184905260c0810183905261010060e08201819052600090611b3783820185611a23565b9b9a5050505050505050505050565b600060018060a01b038516825283602083015260606040830152611b6d6060830184611a23565b95945050505050565b90815260200190565b8381526060810160068410611b9057fe5b602082019390935260400152919050565b918252602082015260400190565b6000602082526112176020830184611a23565b60208082526026908201527f4f776e61626c653a206e6577206f776e657220697320746865207a65726f206160408201526564647265737360d01b606082015260800190565b6020808252601b908201527f536166654d6174683a206164646974696f6e206f766572666c6f770000000000604082015260600190565b60208082526023908201527f756e61626c6520746f207472616e73666572416e6443616c6c20746f206f7261604082015262636c6560e81b606082015260800190565b60208082526026908201527f416464726573733a20696e73756666696369656e742062616c616e636520666f6040820152651c8818d85b1b60d21b606082015260800190565b6020808252601a908201527f536166654d6174683a206469766973696f6e206279207a65726f000000000000604082015260600190565b60208082526028908201527f534c41526567697374727920616464726573732068617320616c7265616479206040820152671899595b881cd95d60c21b606082015260800190565b6020808252602c908201527f4e6574776f726b20616e616c7974696373206f626a656374206973206e6f742060408201526b185cdcda59db9959081e595d60a21b606082015260800190565b60208082526021908201527f43616e206f6e6c792062652063616c6c656420627920534c41526567697374726040820152607960f81b606082015260800190565b60208082526021908201527f536166654d6174683a206d756c7469706c69636174696f6e206f766572666c6f6040820152607760f81b606082015260800190565b6020808252818101527f4f776e61626c653a2063616c6c6572206973206e6f7420746865206f776e6572604082015260600190565b6020808252601d908201527f416464726573733a2063616c6c20746f206e6f6e2d636f6e7472616374000000604082015260600190565b60208082526028908201527f536f75726365206d75737420626520746865206f7261636c65206f6620746865604082015267081c995c5d595cdd60c21b606082015260800190565b6020808252602a908201527f5361666545524332303a204552433230206f7065726174696f6e20646964206e6040820152691bdd081cdd58d8d9595960b21b606082015260800190565b6020808252601f908201527f5265656e7472616e637947756172643a207265656e7472616e742063616c6c00604082015260600190565b60005b83811015611f65578181015183820152602001611f4d565b838111156110515750506000910152565b6001600160a01b0381168114611f8b57600080fd5b50565b8015158114611f8b57600080fdfea264697066735822122038f03dc8e3af9fc411df1220eed2675a668614e9191f0d57297b34e189e4d40664736f6c63430006060033",
  "immutableReferences": {
    "10637": [
      {
        "length": 32,
        "start": 1769
      },
      {
        "length": 32,
        "start": 2158
      },
      {
        "length": 32,
        "start": 2927
      }
    ],
    "10639": [
      {
        "length": 32,
        "start": 1703
      },
      {
        "length": 32,
        "start": 2974
      }
    ]
  },
  "source": "pragma solidity 0.6.6;\n\npragma experimental ABIEncoderV2;\n\nimport \"@chainlink/contracts/src/v0.6/ChainlinkClient.sol\";\nimport \"../../SLA.sol\";\nimport \"../../PeriodRegistry.sol\";\nimport \"../../StringUtils.sol\";\nimport \"./NetworkAnalytics.sol\";\nimport \"../../messenger/IMessenger.sol\";\nimport \"@openzeppelin/contracts/token/ERC20/ERC20.sol\";\nimport \"@openzeppelin/contracts/token/ERC20/SafeERC20.sol\";\n\n/**\n * @title SEMessenger\n * @dev Staking efficiency Messenger\n */\n\ncontract SEMessenger is ChainlinkClient, IMessenger, ReentrancyGuard {\n    using SafeERC20 for ERC20;\n\n    /// @dev Mapping that stores chainlink sli request information\n    mapping(bytes32 => SLIRequest) public requestIdToSLIRequest;\n    /// @dev Array with all request IDs\n    bytes32[] public requests;\n    /// @dev The address of the SLARegistry contract\n    address private _slaRegistryAddress;\n    /// @dev Network analytics contract address\n    address public immutable networkAnalyticsAddress;\n    /// @dev Chainlink oracle address\n    address private immutable _oracle;\n    /// @dev chainlink jobId\n    bytes32 private _jobId;\n    // @dev fee for Chainlink querys. Currently 0.1 LINK\n    uint256 private constant _baseFee = 0.1 ether;\n    /// @dev fee for Chainlink querys. Currently 0.1 LINK\n    uint256 private _fee;\n    /// @dev to multiply the SLI value and get better precision. Useful to deploy SLO correctly\n    uint256 private constant _messengerPrecision = 10**3;\n\n    uint256 private _requestsCounter;\n    uint256 private _fulfillsCounter;\n\n    /**\n     * @dev parameterize the variables according to network\n     * @notice sets the Chainlink parameters (oracle address, token address, jobId) and sets the SLARegistry to 0x0 address\n     * @param _messengerChainlinkOracle 1. the address of the oracle to create requests to\n     * @param _messengerChainlinkToken 2. the address of LINK token contract\n     * @param _messengerJobId 3. the job id for Staking efficiency job\n     * @param _networkAnalyticsAddress 4. Network analytics contract address\n     * @param _feeMultiplier 6. states the amount of paid nodes running behind the precoordinator, to set the fee\n     */\n    constructor(\n        address _messengerChainlinkOracle,\n        address _messengerChainlinkToken,\n        bytes32 _messengerJobId,\n        address _networkAnalyticsAddress,\n        uint256 _feeMultiplier\n    ) public {\n        _jobId = _messengerJobId;\n        setChainlinkToken(_messengerChainlinkToken);\n        _oracle = _messengerChainlinkOracle;\n        networkAnalyticsAddress = _networkAnalyticsAddress;\n        _fee = _feeMultiplier * _baseFee;\n    }\n\n    /**\n     * @dev event emitted when modifying the jobId\n     * @param owner 1. -\n     * @param jobId 2. -\n     * @param fee 3. -\n     */\n    event JobIdModified(address indexed owner, bytes32 jobId, uint256 fee);\n\n    /**\n     * @dev event emitted when modifying the jobId\n     * @param caller 1. -\n     * @param requestsCounter 2. -\n     * @param requestId 3. -\n     */\n    event SLIRequested(\n        address indexed caller,\n        uint256 requestsCounter,\n        bytes32 requestId\n    );\n\n    /// @dev Throws if called by any address other than the SLARegistry contract or Chainlink Oracle.\n    modifier onlySLARegistry() {\n        require(\n            msg.sender == _slaRegistryAddress,\n            \"Can only be called by SLARegistry\"\n        );\n        _;\n    }\n\n    /**\n     * @dev sets the SLARegistry contract address and can only be called\n     * once\n     */\n    function setSLARegistry() public override {\n        // Only able to trigger this function once\n        require(\n            _slaRegistryAddress == address(0),\n            \"SLARegistry address has already been set\"\n        );\n\n        _slaRegistryAddress = msg.sender;\n    }\n\n    /**\n     * @dev creates a ChainLink request to get a new SLI value for the\n     * given params. Can only be called by the SLARegistry contract or Chainlink Oracle.\n     * @param _periodId 1. value of the period id\n     * @param _slaAddress 2. SLA Address\n     * @param _messengerOwnerApproval 3. if approval by owner or msg sender\n     */\n    function requestSLI(\n        uint256 _periodId,\n        address _slaAddress,\n        bool _messengerOwnerApproval,\n        address _callerAddress\n    ) public override onlySLARegistry nonReentrant {\n        SLA sla = SLA(_slaAddress);\n        PeriodRegistry.PeriodType periodType = sla.periodType();\n        // extraData[0] is the networkName for StakingEfficiency use case\n        bytes32 networkName = sla.extraData(0);\n        bytes32 ipfsAnalytics =\n            NetworkAnalytics(networkAnalyticsAddress).periodAnalytics(\n                networkName,\n                periodType,\n                _periodId\n            );\n        require(\n            ipfsAnalytics != 0,\n            \"Network analytics object is not assigned yet\"\n        );\n        if (_messengerOwnerApproval) {\n            ERC20(chainlinkTokenAddress()).safeTransferFrom(\n                owner(),\n                address(this),\n                _fee\n            );\n        } else {\n            ERC20(chainlinkTokenAddress()).safeTransferFrom(\n                _callerAddress,\n                address(this),\n                _fee\n            );\n        }\n        Chainlink.Request memory request =\n            buildChainlinkRequest(\n                _jobId,\n                address(this),\n                this.fulfillSLI.selector\n            );\n        request.add(\"job_type\", \"staking_efficiency\");\n        request.add(\"period_id\", StringUtils.uintToStr(_periodId));\n        request.add(\"sla_address\", StringUtils.addressToString(_slaAddress));\n        request.add(\n            \"network_analytics_address\",\n            StringUtils.addressToString(networkAnalyticsAddress)\n        );\n\n        // Sends the request with 0.1 LINK to the oracle contract\n        bytes32 requestId = sendChainlinkRequestTo(_oracle, request, _fee);\n\n        requests.push(requestId);\n\n        requestIdToSLIRequest[requestId] = SLIRequest({\n            slaAddress: _slaAddress,\n            periodId: _periodId\n        });\n\n        _requestsCounter += 1;\n        emit SLIRequested(_callerAddress, _requestsCounter, requestId);\n    }\n\n    /**\n     * @dev callback function for the Chainlink SLI request which stores\n     * the SLI in the SLA contract\n     * @param _requestId the ID of the ChainLink request\n     * @param _chainlinkResponseUint256 response object from Chainlink Oracles\n     */\n    function fulfillSLI(bytes32 _requestId, uint256 _chainlinkResponseUint256)\n        external\n        override\n        nonReentrant\n        recordChainlinkFulfillment(_requestId)\n    {\n        bytes32 _chainlinkResponse = bytes32(_chainlinkResponseUint256);\n        SLIRequest memory request = requestIdToSLIRequest[_requestId];\n        emit SLIReceived(\n            request.slaAddress,\n            request.periodId,\n            _requestId,\n            _chainlinkResponse\n        );\n        (uint256 hits, uint256 misses) = parseSLIData(_chainlinkResponse);\n        uint256 total = hits.add(misses);\n        uint256 stakingEfficiency =\n            hits.mul(100 * _messengerPrecision).div(total);\n        SLA(request.slaAddress).registerSLI(\n            stakingEfficiency,\n            request.periodId\n        );\n\n        _fulfillsCounter += 1;\n    }\n\n    /**\n     * @dev recieves a string of \"hits,misses\" data and returns hits and misses as uint256\n     * @param sliData the ID of the ChainLink request\n     */\n    function parseSLIData(bytes32 sliData)\n        public\n        pure\n        returns (uint256, uint256)\n    {\n        bytes memory bytesSLIData = bytes(StringUtils.bytes32ToStr(sliData));\n        uint256 sliDataLength = bytesSLIData.length;\n        bytes memory bytesHits = new bytes(sliDataLength);\n        bytes memory bytesMisses = new bytes(sliDataLength);\n        for (uint256 index; index < sliDataLength; index++) {\n            if (bytesSLIData[index] == bytes1(\",\")) {\n                for (uint256 index2 = 0; index2 < index; index2++) {\n                    bytesHits[index2] = bytesSLIData[index2];\n                }\n                for (\n                    uint256 index3 = 0;\n                    index3 < sliDataLength - index - 1;\n                    index3++\n                ) {\n                    bytesMisses[index3] = bytesSLIData[index + 1 + index3];\n                }\n            }\n        }\n        uint256 hits = StringUtils.bytesToUint(bytesHits);\n        uint256 misses = StringUtils.bytesToUint(bytesMisses);\n        return (hits, misses);\n    }\n\n    /**\n     * @dev sets a new jobId, which is a agreement Id of a PreCoordinator contract\n     * @param _newJobId the id of the PreCoordinator agreement\n     * @param _feeMultiplier how many Chainlink nodes would be paid on the agreement id, to set the fee value\n     */\n    function setChainlinkJobID(bytes32 _newJobId, uint256 _feeMultiplier)\n        external\n        onlyOwner\n    {\n        _jobId = _newJobId;\n        _fee = _feeMultiplier * _baseFee;\n        emit JobIdModified(msg.sender, _newJobId, _fee);\n    }\n\n    /**\n     * @dev returns the value of the sla registry address\n     */\n    function slaRegistryAddress() external view override returns (address) {\n        return _slaRegistryAddress;\n    }\n\n    /**\n     * @dev returns the value of the messenger precision\n     */\n    function messengerPrecision() external view override returns (uint256) {\n        return _messengerPrecision;\n    }\n\n    /**\n     * @dev returns the chainlink oracle contract address\n     */\n    function oracle() external view override returns (address) {\n        return _oracle;\n    }\n\n    /**\n     * @dev returns the chainlink job id\n     */\n    function jobId() external view override returns (bytes32) {\n        return _jobId;\n    }\n\n    /**\n     * @dev returns the chainlink fee value on LINK tokens\n     */\n    function fee() external view override returns (uint256) {\n        return _fee;\n    }\n\n    /**\n     * @dev returns the requestsCounter\n     */\n    function requestsCounter() external view override returns (uint256) {\n        return _requestsCounter;\n    }\n\n    /**\n     * @dev returns the fulfillsCounter\n     */\n    function fulfillsCounter() external view override returns (uint256) {\n        return _fulfillsCounter;\n    }\n}\n",
  "sourcePath": "@stacktical/dsla-protocol/contracts/use-cases/staking-efficiency/SEMessenger.sol",
  "compiler": {
    "name": "solc",
    "version": "0.6.6+commit.6c089d02.Emscripten.clang"
  },
  "schemaVersion": "3.3.4",
  "updatedAt": "2021-05-06T00:34:10.886Z",
  "devdoc": {
    "details": "Staking efficiency Messenger",
    "methods": {
      "constructor": {
        "details": "parameterize the variables according to network",
        "params": {
          "_feeMultiplier": "6. states the amount of paid nodes running behind the precoordinator, to set the fee",
          "_messengerChainlinkOracle": "1. the address of the oracle to create requests to",
          "_messengerChainlinkToken": "2. the address of LINK token contract",
          "_messengerJobId": "3. the job id for Staking efficiency job",
          "_networkAnalyticsAddress": "4. Network analytics contract address"
        }
      },
      "fee()": {
        "details": "returns the chainlink fee value on LINK tokens"
      },
      "fulfillSLI(bytes32,uint256)": {
        "details": "callback function for the Chainlink SLI request which stores the SLI in the SLA contract",
        "params": {
          "_chainlinkResponseUint256": "response object from Chainlink Oracles",
          "_requestId": "the ID of the ChainLink request"
        }
      },
      "fulfillsCounter()": {
        "details": "returns the fulfillsCounter"
      },
      "jobId()": {
        "details": "returns the chainlink job id"
      },
      "messengerPrecision()": {
        "details": "returns the value of the messenger precision"
      },
      "oracle()": {
        "details": "returns the chainlink oracle contract address"
      },
      "owner()": {
        "details": "Returns the address of the current owner."
      },
      "parseSLIData(bytes32)": {
        "details": "recieves a string of \"hits,misses\" data and returns hits and misses as uint256",
        "params": {
          "sliData": "the ID of the ChainLink request"
        }
      },
      "renounceOwnership()": {
        "details": "Leaves the contract without owner. It will not be possible to call `onlyOwner` functions anymore. Can only be called by the current owner.     * NOTE: Renouncing ownership will leave the contract without an owner, thereby removing any functionality that is only available to the owner."
      },
      "requestSLI(uint256,address,bool,address)": {
        "details": "creates a ChainLink request to get a new SLI value for the given params. Can only be called by the SLARegistry contract or Chainlink Oracle.",
        "params": {
          "_messengerOwnerApproval": "3. if approval by owner or msg sender",
          "_periodId": "1. value of the period id",
          "_slaAddress": "2. SLA Address"
        }
      },
      "requestsCounter()": {
        "details": "returns the requestsCounter"
      },
      "setChainlinkJobID(bytes32,uint256)": {
        "details": "sets a new jobId, which is a agreement Id of a PreCoordinator contract",
        "params": {
          "_feeMultiplier": "how many Chainlink nodes would be paid on the agreement id, to set the fee value",
          "_newJobId": "the id of the PreCoordinator agreement"
        }
      },
      "setSLARegistry()": {
        "details": "sets the SLARegistry contract address and can only be called once"
      },
      "slaRegistryAddress()": {
        "details": "returns the value of the sla registry address"
      },
      "transferOwnership(address)": {
        "details": "Transfers ownership of the contract to a new account (`newOwner`). Can only be called by the current owner."
      }
    },
    "title": "SEMessenger"
  },
  "userdoc": {
    "methods": {
      "constructor": "sets the Chainlink parameters (oracle address, token address, jobId) and sets the SLARegistry to 0x0 address"
    }
  }
}