{
  "contractName": "SLA",
  "abi": [
    {
      "inputs": [
        {
          "internalType": "address",
          "name": "_owner",
          "type": "address"
        },
        {
          "internalType": "bool",
          "name": "_whitelisted",
          "type": "bool"
        },
        {
          "internalType": "enum PeriodRegistry.PeriodType",
          "name": "_periodType",
          "type": "uint8"
        },
        {
          "internalType": "address",
          "name": "_messengerAddress",
          "type": "address"
        },
        {
          "internalType": "uint128",
          "name": "_initialPeriodId",
          "type": "uint128"
        },
        {
          "internalType": "uint128",
          "name": "_finalPeriodId",
          "type": "uint128"
        },
        {
          "internalType": "uint128",
          "name": "_slaID",
          "type": "uint128"
        },
        {
          "internalType": "string",
          "name": "_ipfsHash",
          "type": "string"
        },
        {
          "internalType": "bytes32[]",
          "name": "_extraData",
          "type": "bytes32[]"
        },
        {
          "internalType": "uint64",
          "name": "_leverage",
          "type": "uint64"
        }
      ],
      "stateMutability": "nonpayable",
      "type": "constructor"
    },
    {
      "anonymous": false,
      "inputs": [
        {
          "indexed": true,
          "internalType": "address",
          "name": "tokenAddress",
          "type": "address"
        },
        {
          "indexed": true,
          "internalType": "address",
          "name": "dpTokenAddress",
          "type": "address"
        },
        {
          "indexed": false,
          "internalType": "string",
          "name": "dpTokenName",
          "type": "string"
        },
        {
          "indexed": false,
          "internalType": "string",
          "name": "dpTokenSymbol",
          "type": "string"
        },
        {
          "indexed": true,
          "internalType": "address",
          "name": "duTokenAddress",
          "type": "address"
        },
        {
          "indexed": false,
          "internalType": "string",
          "name": "duTokenName",
          "type": "string"
        },
        {
          "indexed": false,
          "internalType": "string",
          "name": "duTokenSymbol",
          "type": "string"
        }
      ],
      "name": "DTokensCreated",
      "type": "event"
    },
    {
      "anonymous": false,
      "inputs": [
        {
          "indexed": true,
          "internalType": "address",
          "name": "previousOwner",
          "type": "address"
        },
        {
          "indexed": true,
          "internalType": "address",
          "name": "newOwner",
          "type": "address"
        }
      ],
      "name": "OwnershipTransferred",
      "type": "event"
    },
    {
      "anonymous": false,
      "inputs": [
        {
          "indexed": true,
          "internalType": "uint256",
          "name": "periodId",
          "type": "uint256"
        },
        {
          "indexed": true,
          "internalType": "address",
          "name": "tokenAddress",
          "type": "address"
        },
        {
          "indexed": false,
          "internalType": "uint256",
          "name": "rewardPercentage",
          "type": "uint256"
        },
        {
          "indexed": false,
          "internalType": "uint256",
          "name": "rewardPercentagePrecision",
          "type": "uint256"
        },
        {
          "indexed": false,
          "internalType": "uint256",
          "name": "rewardAmount",
          "type": "uint256"
        }
      ],
      "name": "ProviderRewardGenerated",
      "type": "event"
    },
    {
      "anonymous": false,
      "inputs": [
        {
          "indexed": true,
          "internalType": "address",
          "name": "tokenAddress",
          "type": "address"
        },
        {
          "indexed": true,
          "internalType": "uint256",
          "name": "periodId",
          "type": "uint256"
        },
        {
          "indexed": true,
          "internalType": "address",
          "name": "caller",
          "type": "address"
        },
        {
          "indexed": false,
          "internalType": "uint256",
          "name": "amount",
          "type": "uint256"
        }
      ],
      "name": "ProviderWithdraw",
      "type": "event"
    },
    {
      "anonymous": false,
      "inputs": [
        {
          "indexed": false,
          "internalType": "uint256",
          "name": "timestamp",
          "type": "uint256"
        },
        {
          "indexed": false,
          "internalType": "uint256",
          "name": "sli",
          "type": "uint256"
        },
        {
          "indexed": false,
          "internalType": "uint256",
          "name": "periodId",
          "type": "uint256"
        }
      ],
      "name": "SLICreated",
      "type": "event"
    },
    {
      "anonymous": false,
      "inputs": [
        {
          "indexed": true,
          "internalType": "address",
          "name": "tokenAddress",
          "type": "address"
        },
        {
          "indexed": true,
          "internalType": "uint256",
          "name": "periodId",
          "type": "uint256"
        },
        {
          "indexed": true,
          "internalType": "address",
          "name": "caller",
          "type": "address"
        },
        {
          "indexed": false,
          "internalType": "uint256",
          "name": "amount",
          "type": "uint256"
        }
      ],
      "name": "Stake",
      "type": "event"
    },
    {
      "anonymous": false,
      "inputs": [
        {
          "indexed": true,
          "internalType": "uint256",
          "name": "periodId",
          "type": "uint256"
        },
        {
          "indexed": true,
          "internalType": "address",
          "name": "tokenAddress",
          "type": "address"
        },
        {
          "indexed": false,
          "internalType": "uint256",
          "name": "usersStake",
          "type": "uint256"
        },
        {
          "indexed": false,
          "internalType": "uint256",
          "name": "leverage",
          "type": "uint256"
        },
        {
          "indexed": false,
          "internalType": "uint256",
          "name": "compensation",
          "type": "uint256"
        }
      ],
      "name": "UserCompensationGenerated",
      "type": "event"
    },
    {
      "anonymous": false,
      "inputs": [
        {
          "indexed": true,
          "internalType": "address",
          "name": "tokenAddress",
          "type": "address"
        },
        {
          "indexed": true,
          "internalType": "uint256",
          "name": "periodId",
          "type": "uint256"
        },
        {
          "indexed": true,
          "internalType": "address",
          "name": "caller",
          "type": "address"
        },
        {
          "indexed": false,
          "internalType": "uint256",
          "name": "amount",
          "type": "uint256"
        }
      ],
      "name": "UserWithdraw",
      "type": "event"
    },
    {
      "inputs": [],
      "name": "DSLAburnRate",
      "outputs": [
        {
          "internalType": "uint256",
          "name": "",
          "type": "uint256"
        }
      ],
      "stateMutability": "view",
      "type": "function"
    },
    {
      "inputs": [
        {
          "internalType": "address",
          "name": "_tokenAddress",
          "type": "address"
        }
      ],
      "name": "addAllowedTokens",
      "outputs": [],
      "stateMutability": "nonpayable",
      "type": "function"
    },
    {
      "inputs": [
        {
          "internalType": "address[]",
          "name": "_userAddresses",
          "type": "address[]"
        }
      ],
      "name": "addUsersToWhitelist",
      "outputs": [],
      "stateMutability": "nonpayable",
      "type": "function"
    },
    {
      "inputs": [
        {
          "internalType": "uint256",
          "name": "",
          "type": "uint256"
        }
      ],
      "name": "allowedTokens",
      "outputs": [
        {
          "internalType": "address",
          "name": "",
          "type": "address"
        }
      ],
      "stateMutability": "view",
      "type": "function"
    },
    {
      "inputs": [],
      "name": "creationBlockNumber",
      "outputs": [
        {
          "internalType": "uint256",
          "name": "",
          "type": "uint256"
        }
      ],
      "stateMutability": "view",
      "type": "function"
    },
    {
      "inputs": [
        {
          "internalType": "address",
          "name": "",
          "type": "address"
        }
      ],
      "name": "dpTokenRegistry",
      "outputs": [
        {
          "internalType": "contract ERC20PresetMinterPauser",
          "name": "",
          "type": "address"
        }
      ],
      "stateMutability": "view",
      "type": "function"
    },
    {
      "inputs": [],
      "name": "dslaTokenAddress",
      "outputs": [
        {
          "internalType": "address",
          "name": "",
          "type": "address"
        }
      ],
      "stateMutability": "view",
      "type": "function"
    },
    {
      "inputs": [
        {
          "internalType": "address",
          "name": "",
          "type": "address"
        }
      ],
      "name": "duTokenRegistry",
      "outputs": [
        {
          "internalType": "contract ERC20PresetMinterPauser",
          "name": "",
          "type": "address"
        }
      ],
      "stateMutability": "view",
      "type": "function"
    },
    {
      "inputs": [
        {
          "internalType": "uint256",
          "name": "",
          "type": "uint256"
        }
      ],
      "name": "extraData",
      "outputs": [
        {
          "internalType": "bytes32",
          "name": "",
          "type": "bytes32"
        }
      ],
      "stateMutability": "view",
      "type": "function"
    },
    {
      "inputs": [],
      "name": "finalPeriodId",
      "outputs": [
        {
          "internalType": "uint128",
          "name": "",
          "type": "uint128"
        }
      ],
      "stateMutability": "view",
      "type": "function"
    },
    {
      "inputs": [],
      "name": "getAllowedTokensLength",
      "outputs": [
        {
          "internalType": "uint256",
          "name": "",
          "type": "uint256"
        }
      ],
      "stateMutability": "view",
      "type": "function"
    },
    {
      "inputs": [
        {
          "internalType": "address",
          "name": "_staker",
          "type": "address"
        },
        {
          "internalType": "uint256",
          "name": "_allowedTokenIndex",
          "type": "uint256"
        }
      ],
      "name": "getTokenStake",
      "outputs": [
        {
          "internalType": "address",
          "name": "tokenAddress",
          "type": "address"
        },
        {
          "internalType": "uint256",
          "name": "stake",
          "type": "uint256"
        }
      ],
      "stateMutability": "view",
      "type": "function"
    },
    {
      "inputs": [],
      "name": "initialPeriodId",
      "outputs": [
        {
          "internalType": "uint128",
          "name": "",
          "type": "uint128"
        }
      ],
      "stateMutability": "view",
      "type": "function"
    },
    {
      "inputs": [],
      "name": "ipfsHash",
      "outputs": [
        {
          "internalType": "string",
          "name": "",
          "type": "string"
        }
      ],
      "stateMutability": "view",
      "type": "function"
    },
    {
      "inputs": [
        {
          "internalType": "address",
          "name": "_tokenAddress",
          "type": "address"
        }
      ],
      "name": "isAllowedToken",
      "outputs": [
        {
          "internalType": "bool",
          "name": "",
          "type": "bool"
        }
      ],
      "stateMutability": "view",
      "type": "function"
    },
    {
      "inputs": [],
      "name": "leverage",
      "outputs": [
        {
          "internalType": "uint64",
          "name": "",
          "type": "uint64"
        }
      ],
      "stateMutability": "view",
      "type": "function"
    },
    {
      "inputs": [],
      "name": "messengerAddress",
      "outputs": [
        {
          "internalType": "address",
          "name": "",
          "type": "address"
        }
      ],
      "stateMutability": "view",
      "type": "function"
    },
    {
      "inputs": [],
      "name": "nextVerifiablePeriod",
      "outputs": [
        {
          "internalType": "uint256",
          "name": "",
          "type": "uint256"
        }
      ],
      "stateMutability": "view",
      "type": "function"
    },
    {
      "inputs": [],
      "name": "owner",
      "outputs": [
        {
          "internalType": "address",
          "name": "",
          "type": "address"
        }
      ],
      "stateMutability": "view",
      "type": "function"
    },
    {
      "inputs": [
        {
          "internalType": "uint256",
          "name": "",
          "type": "uint256"
        }
      ],
      "name": "periodSLIs",
      "outputs": [
        {
          "internalType": "uint256",
          "name": "timestamp",
          "type": "uint256"
        },
        {
          "internalType": "uint256",
          "name": "sli",
          "type": "uint256"
        },
        {
          "internalType": "enum SLA.Status",
          "name": "status",
          "type": "uint8"
        }
      ],
      "stateMutability": "view",
      "type": "function"
    },
    {
      "inputs": [],
      "name": "periodType",
      "outputs": [
        {
          "internalType": "enum PeriodRegistry.PeriodType",
          "name": "",
          "type": "uint8"
        }
      ],
      "stateMutability": "view",
      "type": "function"
    },
    {
      "inputs": [
        {
          "internalType": "address",
          "name": "",
          "type": "address"
        }
      ],
      "name": "providerPool",
      "outputs": [
        {
          "internalType": "uint256",
          "name": "",
          "type": "uint256"
        }
      ],
      "stateMutability": "view",
      "type": "function"
    },
    {
      "inputs": [
        {
          "internalType": "address",
          "name": "",
          "type": "address"
        }
      ],
      "name": "registeredStakers",
      "outputs": [
        {
          "internalType": "bool",
          "name": "",
          "type": "bool"
        }
      ],
      "stateMutability": "view",
      "type": "function"
    },
    {
      "inputs": [
        {
          "internalType": "address[]",
          "name": "_userAddresses",
          "type": "address[]"
        }
      ],
      "name": "removeUsersFromWhitelist",
      "outputs": [],
      "stateMutability": "nonpayable",
      "type": "function"
    },
    {
      "inputs": [],
      "name": "renounceOwnership",
      "outputs": [],
      "stateMutability": "nonpayable",
      "type": "function"
    },
    {
      "inputs": [],
      "name": "slaID",
      "outputs": [
        {
          "internalType": "uint128",
          "name": "",
          "type": "uint128"
        }
      ],
      "stateMutability": "view",
      "type": "function"
    },
    {
      "inputs": [],
      "name": "slaRegistry",
      "outputs": [
        {
          "internalType": "contract SLARegistry",
          "name": "",
          "type": "address"
        }
      ],
      "stateMutability": "view",
      "type": "function"
    },
    {
      "inputs": [
        {
          "internalType": "uint256",
          "name": "",
          "type": "uint256"
        }
      ],
      "name": "stakers",
      "outputs": [
        {
          "internalType": "address",
          "name": "",
          "type": "address"
        }
      ],
      "stateMutability": "view",
      "type": "function"
    },
    {
      "inputs": [
        {
          "internalType": "address",
          "name": "newOwner",
          "type": "address"
        }
      ],
      "name": "transferOwnership",
      "outputs": [],
      "stateMutability": "nonpayable",
      "type": "function"
    },
    {
      "inputs": [
        {
          "internalType": "address",
          "name": "",
          "type": "address"
        }
      ],
      "name": "usersPool",
      "outputs": [
        {
          "internalType": "uint256",
          "name": "",
          "type": "uint256"
        }
      ],
      "stateMutability": "view",
      "type": "function"
    },
    {
      "inputs": [
        {
          "internalType": "address",
          "name": "",
          "type": "address"
        }
      ],
      "name": "whitelist",
      "outputs": [
        {
          "internalType": "bool",
          "name": "",
          "type": "bool"
        }
      ],
      "stateMutability": "view",
      "type": "function"
    },
    {
      "inputs": [],
      "name": "whitelistedContract",
      "outputs": [
        {
          "internalType": "bool",
          "name": "",
          "type": "bool"
        }
      ],
      "stateMutability": "view",
      "type": "function"
    },
    {
      "inputs": [
        {
          "internalType": "uint256",
          "name": "_sli",
          "type": "uint256"
        },
        {
          "internalType": "uint256",
          "name": "_periodId",
          "type": "uint256"
        }
      ],
      "name": "registerSLI",
      "outputs": [],
      "stateMutability": "nonpayable",
      "type": "function"
    },
    {
      "inputs": [
        {
          "internalType": "uint256",
          "name": "_periodId",
          "type": "uint256"
        }
      ],
      "name": "isAllowedPeriod",
      "outputs": [
        {
          "internalType": "bool",
          "name": "",
          "type": "bool"
        }
      ],
      "stateMutability": "view",
      "type": "function"
    },
    {
      "inputs": [],
      "name": "contractFinished",
      "outputs": [
        {
          "internalType": "bool",
          "name": "",
          "type": "bool"
        }
      ],
      "stateMutability": "view",
      "type": "function"
    },
    {
      "inputs": [
        {
          "internalType": "uint256",
          "name": "_amount",
          "type": "uint256"
        },
        {
          "internalType": "address",
          "name": "_token",
          "type": "address"
        }
      ],
      "name": "stakeTokens",
      "outputs": [],
      "stateMutability": "nonpayable",
      "type": "function"
    },
    {
      "inputs": [
        {
          "internalType": "uint256",
          "name": "_amount",
          "type": "uint256"
        },
        {
          "internalType": "address",
          "name": "_tokenAddress",
          "type": "address"
        }
      ],
      "name": "withdrawProviderTokens",
      "outputs": [],
      "stateMutability": "nonpayable",
      "type": "function"
    },
    {
      "inputs": [
        {
          "internalType": "uint256",
          "name": "_amount",
          "type": "uint256"
        },
        {
          "internalType": "address",
          "name": "_tokenAddress",
          "type": "address"
        }
      ],
      "name": "withdrawUserTokens",
      "outputs": [],
      "stateMutability": "nonpayable",
      "type": "function"
    },
    {
      "inputs": [],
      "name": "getStakersLength",
      "outputs": [
        {
          "internalType": "uint256",
          "name": "",
          "type": "uint256"
        }
      ],
      "stateMutability": "view",
      "type": "function"
    },
    {
      "inputs": [],
      "name": "breachedContract",
      "outputs": [
        {
          "internalType": "bool",
          "name": "",
          "type": "bool"
        }
      ],
      "stateMutability": "view",
      "type": "function"
    }
  ],
  "bytecode": "0x610240604052600d805460ff191690553480156200001c57600080fd5b50604051620040e5380380620040e58339810160408190526200003f91620008f3565b33888a86848e60006200005a6001600160e01b036200059616565b600080546001600160a01b0319166001600160a01b038316908117825560405192935091600080516020620040c5833981519152908290a350856001600160a01b031663683048356040518163ffffffff1660e01b815260040160206040518083038186803b158015620000cd57600080fd5b505afa158015620000e2573d6000803e3d6000fd5b505050506040513d601f19601f82011682018060405250810190620001089190620008cd565b600160006101000a8154816001600160a01b0302191690836001600160a01b03160217905550856001600160a01b0316639fc4caa56040518163ffffffff1660e01b815260040160206040518083038186803b1580156200016857600080fd5b505afa1580156200017d573d6000803e3d6000fd5b505050506040513d601f19601f82011682018060405250810190620001a39190620008cd565b60601b6001600160601b031916608052846005811115620001c057fe5b610100816005811115620001d057fe5b60f890811b909152851515901b610120525060015460408051637b8041cf60e11b8152905160009283926001600160a01b039091169163f700839e9160048082019261010092909190829003018186803b1580156200022e57600080fd5b505afa15801562000243573d6000803e3d6000fd5b505050506040513d601f19601f82011682018060405250810190620002699190620009fa565b97505050505050509150600160009054906101000a90046001600160a01b03166001600160a01b0316638b8e53096040518163ffffffff1660e01b815260040160206040518083038186803b158015620002c257600080fd5b505afa158015620002d7573d6000803e3d6000fd5b505050506040513d601f19601f82011682018060405250810190620002fd9190620008cd565b60601b6001600160601b03191660c05260e08290526001600160a01b03831660009081526009602052604090208054600160ff19909116179055608085901b6001600160801b03191660a0526001600160401b03818116908516118015906200037057506001846001600160401b031610155b620003985760405162461bcd60e51b81526004016200038f9062000aa9565b60405180910390fd5b50505060c01b6001600160c01b0319166101405250620003bd92508c9150506200059b565b8251620003d290600a90602086019062000675565b506001600160601b0319606088901b1661016052600b80546001600160a01b03191633179081905560408051639fc4caa560e01b815290516001600160a01b039290921691639fc4caa591600480820192602092909190829003018186803b1580156200043e57600080fd5b505afa15801562000453573d6000803e3d6000fd5b505050506040513d601f19601f82011682018060405250810190620004799190620008cd565b60601b6001600160601b03191661018052600b5460408051635a7d1e5d60e01b815290516001600160a01b0390921691635a7d1e5d91600480820192602092909190829003018186803b158015620004d057600080fd5b505afa158015620004e5573d6000803e3d6000fd5b505050506040513d601f19601f820116820180604052508101906200050b9190620008cd565b60601b6001600160601b0319166101a052436101c052608086811b6001600160801b03199081166101e0529086901b16610200528760058111156200054c57fe5b6102208160058111156200055c57fe5b60f81b90525081516200057790600c906020850190620006fa565b5050506001600160801b03909316600e555062000b4a95505050505050565b335b90565b620005ae6001600160e01b036200059616565b6001600160a01b0316620005ca6001600160e01b036200066616565b6001600160a01b031614620005f35760405162461bcd60e51b81526004016200038f9062000ad5565b6001600160a01b0381166200061c5760405162461bcd60e51b81526004016200038f9062000a63565b600080546040516001600160a01b0380851693921691600080516020620040c583398151915291a3600080546001600160a01b0319166001600160a01b0392909216919091179055565b6000546001600160a01b031690565b828054600181600116156101000203166002900490600052602060002090601f016020900481019282601f10620006b857805160ff1916838001178555620006e8565b82800160010185558215620006e8579182015b82811115620006e8578251825591602001919060010190620006cb565b50620006f692915062000737565b5090565b828054828255906000526020600020908101928215620006e85791602002820182811115620006e8578251825591602001919060010190620006cb565b6200059891905b80821115620006f657600081556001016200073e565b8051620007618162000b31565b92915050565b600082601f83011262000778578081fd5b81516001600160401b038111156200078e578182fd5b6020808202620007a082820162000b0a565b83815293508184018583018287018401881015620007bd57600080fd5b600092505b84831015620007e2578051825260019290920191908301908301620007c2565b505050505092915050565b805180151581146200076157600080fd5b8051600681106200076157600080fd5b600082601f8301126200081f578081fd5b81516001600160401b0381111562000835578182fd5b60206200084b601f8301601f1916820162000b0a565b925081835284818386010111156200086257600080fd5b60005b828110156200088257848101820151848201830152810162000865565b82811115620008945760008284860101525b50505092915050565b80516001600160801b03811681146200076157600080fd5b80516001600160401b03811681146200076157600080fd5b600060208284031215620008df578081fd5b8151620008ec8162000b31565b9392505050565b6000806000806000806000806000806101408b8d03121562000913578586fd5b6200091f8c8c62000754565b9950620009308c60208d01620007ed565b9850620009418c60408d01620007fe565b9750620009528c60608d0162000754565b9650620009638c60808d016200089d565b9550620009748c60a08d016200089d565b9450620009858c60c08d016200089d565b60e08c01519094506001600160401b0380821115620009a2578485fd5b620009b08e838f016200080e565b94506101008d0151915080821115620009c7578384fd5b50620009d68d828e0162000767565b925050620009e98c6101208d01620008b5565b90509295989b9194979a5092959850565b600080600080600080600080610100898b03121562000a17578384fd5b885197506020890151965060408901519550606089015194506080890151935060a0890151925060c0890151915062000a548a60e08b01620008b5565b90509295985092959890939650565b60208082526026908201527f4f776e61626c653a206e6577206f776e657220697320746865207a65726f206160408201526564647265737360d01b606082015260800190565b602080825260129082015271496e636f7272656374206c6576657261676560701b604082015260600190565b6020808252818101527f4f776e61626c653a2063616c6c6572206973206e6f7420746865206f776e6572604082015260600190565b6040518181016001600160401b038111828210171562000b2957600080fd5b604052919050565b6001600160a01b038116811462000b4757600080fd5b50565b60805160601c60a05160801c60c05160601c60e0516101005160f81c6101205160f81c6101405160c01c6101605160601c6101805160601c6101a05160601c6101c0516101e05160801c6102005160801c6102205160f81c61347762000c4e60003980610da152806113095250806105345280610d59528061132a52806113d852806118ad5250806104fb5280610c485280611842528061188c525080610c245250806116b752806117565250806112da525080611447528061160a525080610d355280611b3e528061222c52806125c2528061269a525080610c005280611a74525050806110cd525080611a1652508061094a52806119325250506134776000f3fe608060405234801561001057600080fd5b50600436106102485760003560e01c806378025ec41161013b578063b7bc347e116100b8578063db69a4621161007c578063db69a462146104b9578063f2db10fe146104c1578063f2fde38b146104c9578063f7e9dfff146104dc578063fd5e6dd1146104e457610248565b8063b7bc347e14610463578063c623674f1461046b578063c8b5c24814610480578063cbe230c314610493578063d7a5c422146104a657610248565b80639b19251a116100ff5780639b19251a146104255780639fabeb0014610438578063a224ee9c14610440578063a7e8d8d414610448578063b1659bad1461045b57610248565b806378025ec4146103e75780637fd788aa146103fa5780638d21c770146104025780638da5cb5b1461041557806396f76f111461041d57610248565b806346e0fbae116101c95780635ae698ff1161018d5780635ae698ff1461039e5780635c1c20de146103b15780635e5f2e26146103b9578063639b6fc3146103cc578063715018a6146103df57610248565b806346e0fbae14610322578063484fbf2b146103375780634e0c91f61461034a5780634fb2647e1461036a57806357ac94f01461037d57610248565b80632526743a116102105780632526743a146102bb57806326db18ac146102d05780632c86d98e146102e35780633385d334146102f85780634190edde1461030057610248565b8063021eef7f1461024d5780630bea440d14610276578063171e44ea1461028b57806318e454271461029e5780631bf30929146102a6575b600080fd5b61026061025b366004612b19565b6104f7565b60405161026d9190612da9565b60405180910390f35b610289610284366004612b49565b610574565b005b6102896102993660046128fe565b610726565b610260610bfe565b6102ae610c22565b60405161026d9190612db4565b6102c3610c46565b60405161026d919061331a565b6102896102de366004612b49565b610c6a565b6102eb610d33565b60405161026d91906133a1565b6102c3610d57565b61031361030e366004612b19565b610d7b565b60405161026d93929190613345565b61032a610d9f565b60405161026d9190612dbd565b6102ae6103453660046128fe565b610dc3565b61035d6103583660046128fe565b610dd5565b60405161026d9190612d58565b61035d6103783660046128fe565b610df0565b61039061038b366004612936565b610e0b565b60405161026d929190612d6c565b6102896103ac3660046129cd565b610fe7565b6102ae6110cb565b61035d6103c7366004612b19565b6110ef565b6102ae6103da3660046128fe565b611116565b610289611128565b6102ae6103f5366004612b19565b6111b1565b6102606111cf565b610289610410366004612961565b6111d8565b61035d6112c6565b6102606112d5565b6102606104333660046128fe565b61142a565b6102ae61143f565b61035d611445565b6102606104563660046128fe565b611469565b6102ae61147e565b6102ae611484565b61047361148a565b60405161026d9190612df7565b61028961048e366004612b49565b611518565b6102606104a13660046128fe565b6115a4565b6102896104b4366004612b9f565b6115ff565b61035d611921565b6102c3611930565b6102896104d73660046128fe565b611954565b61035d611a14565b61035d6104f2366004612b19565b611a38565b60007f00000000000000000000000000000000000000000000000000000000000000006001600160801b03168210156105325750600061056f565b7f00000000000000000000000000000000000000000000000000000000000000006001600160801b031682111561056b5750600061056f565b5060015b919050565b816000811161059e5760405162461bcd60e51b8152600401610595906132a4565b60405180910390fd5b60006105a86112d5565b905080156105c85760405162461bcd60e51b8152600401610595906130c3565b6105d28484611a45565b336001600160a01b0316600e54846001600160a01b03167f1bd1eb6b4fd3f08e718d7a241c54c4641c9f36004b6949383f48d15a2fcc8f52876040516106189190612db4565b60405180910390a4600b5460408051636830483560e01b815290516000926001600160a01b0316916368304835916004808301926020929190829003018186803b15801561066557600080fd5b505afa158015610679573d6000803e3d6000fd5b505050506040513d601f19601f8201168201806040525081019061069d919061291a565b604051635948284760e11b81529091506001600160a01b0382169063b290508e906106cc903390600401612d58565b602060405180830381600087803b1580156106e657600080fd5b505af11580156106fa573d6000803e3d6000fd5b505050506040513d601f19601f8201168201806040525081019061071e9190612a6d565b505050505050565b61072e611fa8565b6001600160a01b031661073f6112c6565b6001600160a01b0316146107655760405162461bcd60e51b8152600401610595906131a8565b60015460408051637b8041cf60e11b815290516000926001600160a01b03169163f700839e91600480830192610100929190829003018186803b1580156107ab57600080fd5b505afa1580156107bf573d6000803e3d6000fd5b505050506040513d601f19601f820116820180604052508101906107e39190612be3565b5096505050505050506107f5826115a4565b156108125760405162461bcd60e51b815260040161059590613214565b60015460405163cbe230c360e01b81526001600160a01b039091169063cbe230c390610842908590600401612d58565b60206040518083038186803b15801561085a57600080fd5b505afa15801561086e573d6000803e3d6000fd5b505050506040513d601f19601f820116820180604052508101906108929190612a6d565b6108ae5760405162461bcd60e51b815260040161059590612f54565b6008805460018101825560008290527ff3f7a9fe364faab93b216da50a3214154f22a0a2b415b23a84c8169e8b636ee30180546001600160a01b0319166001600160a01b038516179055548110156109185760405162461bcd60e51b815260040161059590612e84565b60405163fc966d4560e01b815260609073__StringUtils___________________________9063fc966d4590610972907f00000000000000000000000000000000000000000000000000000000000000009060040161331a565b60006040518083038186803b15801561098a57600080fd5b505af415801561099e573d6000803e3d6000fd5b505050506040513d6000823e601f3d908101601f191682016040526109c69190810190612a8d565b90506060816040516020016109db9190612ca0565b60405160208183030381529060405290506060826040516020016109ff9190612cd3565b6040516020818303038152906040529050606083604051602001610a239190612d03565b6040516020818303038152906040529050606084604051602001610a479190612d35565b60408051601f1981840301815290829052600154633350214760e11b83529092506000916001600160a01b03909116906366a0428e90610a8d9088908890600401612e0a565b602060405180830381600087803b158015610aa757600080fd5b505af1158015610abb573d6000803e3d6000fd5b505050506040513d601f19601f82011682018060405250810190610adf919061291a565b600154604051633350214760e11b81529192506000916001600160a01b03909116906366a0428e90610b179087908790600401612e0a565b602060405180830381600087803b158015610b3157600080fd5b505af1158015610b45573d6000803e3d6000fd5b505050506040513d601f19601f82011682018060405250810190610b69919061291a565b6001600160a01b03808b16600081815260056020908152604080832080548688166001600160a01b0319918216811790925560049093529281902080549589169590921685179091555193945091927fce8c390dc55dbcd418078f1391fbb7d471c01c228fc4464926095354cb27c02990610beb90899081908d908190612e38565b60405180910390a4505050505050505050565b7f000000000000000000000000000000000000000000000000000000000000000081565b7f000000000000000000000000000000000000000000000000000000000000000081565b7f000000000000000000000000000000000000000000000000000000000000000081565b8160008111610c8b5760405162461bcd60e51b8152600401610595906132a4565b610c936112c6565b6001600160a01b0316336001600160a01b031614610cd6576000610cb56112d5565b905080610cd45760405162461bcd60e51b8152600401610595906131dd565b505b336001600160a01b0316600e54836001600160a01b03167f5d73c1b3aab5bae46e08e09668d192166389623bef76bbe8cdae8df8ad320fce86604051610d1c9190612db4565b60405180910390a4610d2e8383611fac565b505050565b7f000000000000000000000000000000000000000000000000000000000000000081565b7f000000000000000000000000000000000000000000000000000000000000000081565b600f6020526000908152604090208054600182015460029092015490919060ff1683565b7f000000000000000000000000000000000000000000000000000000000000000081565b60036020526000908152604090205481565b6004602052600090815260409020546001600160a01b031681565b6005602052600090815260409020546001600160a01b031681565b600080600060088481548110610e1d57fe5b6000918252602090912001546001600160a01b03169050610e3c6112c6565b6001600160a01b0316856001600160a01b03161415610e78576001600160a01b0381166000908152600260205260409020549092509050610fe0565b6001600160a01b0380821660009081526004602081815260408084205481516318160ddd60e01b8152915195169485936318160ddd938382019390929190829003018186803b158015610eca57600080fd5b505afa158015610ede573d6000803e3d6000fd5b505050506040513d601f19601f82011682018060405250810190610f029190612b31565b905080610f18575090925060009150610fe09050565b6040516370a0823160e01b81526000906001600160a01b038416906370a0823190610f47908b90600401612d58565b60206040518083038186803b158015610f5f57600080fd5b505afa158015610f73573d6000803e3d6000fd5b505050506040513d601f19601f82011682018060405250810190610f979190612b31565b6001600160a01b0385166000908152600360205260409020549091508490610fd7908490610fcb908563ffffffff61215316565b9063ffffffff61219616565b95509550505050505b9250929050565b610fef611fa8565b6001600160a01b03166110006112c6565b6001600160a01b0316146110265760405162461bcd60e51b8152600401610595906131a8565b60005b81518110156110c7576009600083838151811061104257fe5b6020908102919091018101516001600160a01b031682528101919091526040016000205460ff166110bf5760016009600084848151811061107f57fe5b60200260200101516001600160a01b03166001600160a01b0316815260200190815260200160002060006101000a81548160ff0219169083151502179055505b600101611029565b5050565b7f000000000000000000000000000000000000000000000000000000000000000081565b600881815481106110fc57fe5b6000918252602090912001546001600160a01b0316905081565b60026020526000908152604090205481565b611130611fa8565b6001600160a01b03166111416112c6565b6001600160a01b0316146111675760405162461bcd60e51b8152600401610595906131a8565b600080546040516001600160a01b03909116907f8be0079c531659141344cd1fd0a4f28419497f9722a3daafe3b4186f6b6457e0908390a3600080546001600160a01b0319169055565b600c81815481106111be57fe5b600091825260209091200154905081565b600d5460ff1690565b6111e0611fa8565b6001600160a01b03166111f16112c6565b6001600160a01b0316146112175760405162461bcd60e51b8152600401610595906131a8565b60005b81811015610d2e576009600084848481811061123257fe5b905060200201602081019061124791906128fe565b6001600160a01b0316815260208101919091526040016000205460ff161515600114156112be5760006009600085858581811061128057fe5b905060200201602081019061129591906128fe565b6001600160a01b031681526020810191909152604001600020805460ff19169115159190911790555b60010161121a565b6000546001600160a01b031690565b6000807f00000000000000000000000000000000000000000000000000000000000000006001600160a01b031663ffa612357f00000000000000000000000000000000000000000000000000000000000000007f00000000000000000000000000000000000000000000000000000000000000006040518363ffffffff1660e01b8152600401611366929190612dd1565b604080518083038186803b15801561137d57600080fd5b505afa158015611391573d6000803e3d6000fd5b505050506040513d601f19601f820116820180604052508101906113b59190612bc0565b600d5490925060ff161515600114905080611424575080421015801561142457507f00000000000000000000000000000000000000000000000000000000000000006001600160801b03166000908152600f6020526040812060029081015460ff169081111561142157fe5b14155b91505090565b60096020526000908152604090205460ff1681565b60065490565b7f000000000000000000000000000000000000000000000000000000000000000081565b60076020526000908152604090205460ff1681565b600e5481565b60085490565b600a805460408051602060026001851615610100026000190190941693909304601f810184900484028201840190925281815292918301828280156115105780601f106114e557610100808354040283529160200191611510565b820191906000526020600020905b8154815290600101906020018083116114f357829003601f168201915b505050505081565b81600081116115395760405162461bcd60e51b8152600401610595906132a4565b60006115436112d5565b9050336001600160a01b0316600e54846001600160a01b03167fbd9be3d6449ecbdf4b3b9980b1631ec06c13d8cf9e09e2433075f123b348e3ba8760405161158b9190612db4565b60405180910390a461159e8484836121c8565b50505050565b6000805b6008548110156115f657826001600160a01b0316600882815481106115c957fe5b6000918252602090912001546001600160a01b031614156115ee57600191505061056f565b6001016115a8565b50600092915050565b336001600160a01b037f000000000000000000000000000000000000000000000000000000000000000016146116475760405162461bcd60e51b815260040161059590612fa1565b7fc95987c1992805ee34bdc915e017cceae36ba1c156b9911fa7e691e6435eb46e42838360405161167a9392919061336b565b60405180910390a16001808201600e556000828152600f60205260408082209283018590554283555163a7b72ac560e01b81526001600160a01b037f0000000000000000000000000000000000000000000000000000000000000000169063a7b72ac5906116ec903090600401612d58565b604080518083038186803b15801561170357600080fd5b505afa158015611717573d6000803e3d6000fd5b505050506040513d601f19601f8201168201806040525081019061173b9190612b78565b50604051631993b9df60e01b81529091506001600160a01b037f00000000000000000000000000000000000000000000000000000000000000001690631993b9df9061178d908790309060040161332e565b60206040518083038186803b1580156117a557600080fd5b505afa1580156117b9573d6000803e3d6000fd5b505050506040513d601f19601f820116820180604052508101906117dd9190612a6d565b156118f5576002828101805460ff191660011790556127109060009061182b9061180b90610fcb8987612403565b610fcb8461181f8a8863ffffffff61242816565b9063ffffffff61215316565b90506000611879600161186d886001600160801b037f00000000000000000000000000000000000000000000000000000000000000001663ffffffff61242816565b9063ffffffff61240316565b905060006118df6001600160801b0360017f00000000000000000000000000000000000000000000000000000000000000007f0000000000000000000000000000000000000000000000000000000000000000030116610fcb858563ffffffff61215316565b90506118ec878286612450565b5050505061159e565b6002828101805460ff1916909117905561190e8361256f565b600d805460ff1916600117905550505050565b600b546001600160a01b031681565b7f000000000000000000000000000000000000000000000000000000000000000081565b61195c611fa8565b6001600160a01b031661196d6112c6565b6001600160a01b0316146119935760405162461bcd60e51b8152600401610595906131a8565b6001600160a01b0381166119b95760405162461bcd60e51b815260040161059590612ed7565b600080546040516001600160a01b03808516939216917f8be0079c531659141344cd1fd0a4f28419497f9722a3daafe3b4186f6b6457e091a3600080546001600160a01b0319166001600160a01b0392909216919091179055565b7f000000000000000000000000000000000000000000000000000000000000000081565b600681815481106110fc57fe5b80611a4f816115a4565b1515600114611a705760405162461bcd60e51b81526004016105959061317a565b60017f000000000000000000000000000000000000000000000000000000000000000015151415611acf573360009081526009602052604090205460ff161515600114611acf5760405162461bcd60e51b81526004016105959061309a565b611aea6001600160a01b03831633308663ffffffff6126d416565b611af26112c6565b6001600160a01b0316336001600160a01b031614611d62576001600160a01b03821660009081526002602090815260408083205460039092529091205481611b6e67ffffffffffffffff7f00000000000000000000000000000000000000000000000000000000000000001661181f848963ffffffff61240316565b1115611b8c5760405162461bcd60e51b81526004016105959061310b565b6001600160a01b0380851660009081526004602081815260408084205481516318160ddd60e01b8152915195169485936318160ddd938382019390929190829003018186803b158015611bde57600080fd5b505afa158015611bf2573d6000803e3d6000fd5b505050506040513d601f19601f82011682018060405250810190611c169190612b31565b905080611c82576040516340c10f1960e01b81526001600160a01b038316906340c10f1990611c4b9033908b90600401612d6c565b600060405180830381600087803b158015611c6557600080fd5b505af1158015611c79573d6000803e3d6000fd5b50505050611d16565b6001600160a01b03861660009081526003602052604081205490611cb082610fcb8b8663ffffffff61215316565b6040516340c10f1960e01b81529091506001600160a01b038516906340c10f1990611ce19033908590600401612d6c565b600060405180830381600087803b158015611cfb57600080fd5b505af1158015611d0f573d6000803e3d6000fd5b5050505050505b6001600160a01b038616600090815260036020526040902054611d3f908863ffffffff61240316565b6001600160a01b03871660009081526003602052604090205550611f3092505050565b6001600160a01b0380831660009081526005602090815260408083205481516318160ddd60e01b8152915194169384926318160ddd9260048082019391829003018186803b158015611db357600080fd5b505afa158015611dc7573d6000803e3d6000fd5b505050506040513d601f19601f82011682018060405250810190611deb9190612b31565b905080611e57576040516340c10f1960e01b81526001600160a01b038316906340c10f1990611e209033908990600401612d6c565b600060405180830381600087803b158015611e3a57600080fd5b505af1158015611e4e573d6000803e3d6000fd5b50505050611eeb565b6001600160a01b03841660009081526002602052604081205490611e8582610fcb898663ffffffff61215316565b6040516340c10f1960e01b81529091506001600160a01b038516906340c10f1990611eb69033908590600401612d6c565b600060405180830381600087803b158015611ed057600080fd5b505af1158015611ee4573d6000803e3d6000fd5b5050505050505b6001600160a01b038416600090815260026020526040902054611f14908663ffffffff61240316565b6001600160a01b03851660009081526002602052604090205550505b3360009081526007602052604090205460ff16610d2e57336000818152600760205260408120805460ff191660019081179091556006805491820181559091527ff652222313e28459528d920b65115c16c04f3efc82aaedc97be59f3f377c0d3f0180546001600160a01b0319169091179055505050565b3390565b80611fb6816115a4565b1515600114611fd75760405162461bcd60e51b81526004016105959061317a565b6001600160a01b0380831660009081526004602081815260408084205481516318160ddd60e01b8152915195169485936318160ddd938382019390929190829003018186803b15801561202957600080fd5b505afa15801561203d573d6000803e3d6000fd5b505050506040513d601f19601f820116820180604052508101906120619190612b31565b6001600160a01b03851660009081526003602052604081205491925061209182610fcb898663ffffffff61215316565b60405163079cc67960e41b81529091506001600160a01b038516906379cc6790906120c29033908590600401612d6c565b600060405180830381600087803b1580156120dc57600080fd5b505af11580156120f0573d6000803e3d6000fd5b5050506001600160a01b03871660009081526003602052604090205461211d91508863ffffffff61242816565b6001600160a01b03871660008181526003602052604090209190915561214a90338963ffffffff61272c16565b50505050505050565b60008261216257506000612190565b8282028284828161216f57fe5b041461218d5760405162461bcd60e51b815260040161059590613139565b90505b92915050565b60008082116121b75760405162461bcd60e51b815260040161059590613063565b8183816121c057fe5b049392505050565b816121d2816115a4565b15156001146121f35760405162461bcd60e51b81526004016105959061317a565b6001600160a01b03831660009081526002602090815260408083205460039092529091205483612285576122578167ffffffffffffffff7f00000000000000000000000000000000000000000000000000000000000000001663ffffffff61215316565b612267838863ffffffff61242816565b10156122855760405162461bcd60e51b815260040161059590613241565b6001600160a01b0380861660009081526005602090815260408083205481516318160ddd60e01b8152915194169384926318160ddd9260048082019391829003018186803b1580156122d657600080fd5b505afa1580156122ea573d6000803e3d6000fd5b505050506040513d601f19601f8201168201806040525081019061230e9190612b31565b6001600160a01b03881660009081526002602052604081205491925061233e82610fcb8c8663ffffffff61215316565b60405163079cc67960e41b81529091506001600160a01b038516906379cc67909061236f9033908590600401612d6c565b600060405180830381600087803b15801561238957600080fd5b505af115801561239d573d6000803e3d6000fd5b5050506001600160a01b038a166000908152600260205260409020546123ca91508b63ffffffff61242816565b6001600160a01b038a166000818152600260205260409020919091556123f790338c63ffffffff61272c16565b50505050505050505050565b60008282018381101561218d5760405162461bcd60e51b815260040161059590612f1d565b60008282111561244a5760405162461bcd60e51b815260040161059590612fe6565b50900390565b60005b60085481101561159e5760006008828154811061246c57fe5b60009182526020808320909101546001600160a01b031680835260039091526040822054909250906124a885610fcb848963ffffffff61215316565b6001600160a01b0384166000908152600360205260409020549091506124d4908263ffffffff61242816565b6001600160a01b038416600090815260036020908152604080832093909355600290522054612509908263ffffffff61240316565b6001600160a01b0384166000818152600260205260409081902092909255905188907f3173c1c4b679e2da86dbb0382bde749a6e16cd31912c5410e17985cd7d2b90529061255c908a908a90879061336b565b60405180910390a3505050600101612453565b60005b6008548110156110c75760006008828154811061258b57fe5b60009182526020808320909101546001600160a01b031680835260039091526040822054909250906125ed8267ffffffffffffffff7f00000000000000000000000000000000000000000000000000000000000000001663ffffffff61215316565b6001600160a01b038416600090815260026020526040902054909150612619908263ffffffff61242816565b6001600160a01b03841660009081526002602090815260408083209390935560039052205461264e908263ffffffff61240316565b6001600160a01b0384166000818152600360205260409081902092909255905186907f89385e9d619600da63726158403c0cfd9772b2cac90d3e093387a5456ee1a247906126c19086907f0000000000000000000000000000000000000000000000000000000000000000908790613381565b60405180910390a3505050600101612572565b61159e846323b872dd60e01b8585856040516024016126f593929190612d85565b60408051601f198184030181529190526020810180516001600160e01b03166001600160e01b03199093169290921790915261274b565b610d2e8363a9059cbb60e01b84846040516024016126f5929190612d6c565b60606127a0826040518060400160405280602081526020017f5361666545524332303a206c6f772d6c6576656c2063616c6c206661696c6564815250856001600160a01b03166127da9092919063ffffffff16565b805190915015610d2e57808060200190518101906127be9190612a6d565b610d2e5760405162461bcd60e51b8152600401610595906132d0565b60606127e984846000856127f3565b90505b9392505050565b6060824710156128155760405162461bcd60e51b81526004016105959061301d565b61281e856128b4565b61283a5760405162461bcd60e51b81526004016105959061326d565b60006060866001600160a01b031685876040516128579190612c84565b60006040518083038185875af1925050503d8060008114612894576040519150601f19603f3d011682016040523d82523d6000602084013e612899565b606091505b50915091506128a98282866128ba565b979650505050505050565b3b151590565b606083156128c95750816127ec565b8251156128d95782518084602001fd5b8160405162461bcd60e51b81526004016105959190612df7565b803561219081613429565b60006020828403121561290f578081fd5b813561218d81613429565b60006020828403121561292b578081fd5b815161218d81613429565b60008060408385031215612948578081fd5b823561295381613429565b946020939093013593505050565b60008060208385031215612973578182fd5b823567ffffffffffffffff8082111561298a578384fd5b81850186601f82011261299b578485fd5b80359250818311156129ab578485fd5b86602080850283010111156129be578485fd5b60200196919550909350505050565b600060208083850312156129df578182fd5b823567ffffffffffffffff8111156129f5578283fd5b80840185601f820112612a06578384fd5b80359150612a1b612a16836133dd565b6133b6565b8281528381019082850185850284018601891015612a37578687fd5b8693505b84841015612a6157612a4d89826128f3565b835260019390930192918501918501612a3b565b50979650505050505050565b600060208284031215612a7e578081fd5b8151801515811461218d578182fd5b600060208284031215612a9e578081fd5b815167ffffffffffffffff80821115612ab5578283fd5b81840185601f820112612ac6578384fd5b8051925081831115612ad6578384fd5b612ae9601f8401601f19166020016133b6565b9150828252856020848301011115612aff578384fd5b612b108360208401602084016133fd565b50949350505050565b600060208284031215612b2a578081fd5b5035919050565b600060208284031215612b42578081fd5b5051919050565b60008060408385031215612b5b578182fd5b823591506020830135612b6d81613429565b809150509250929050565b60008060408385031215612b8a578182fd5b82519150602083015160068110612b6d578182fd5b60008060408385031215612bb1578182fd5b50508035926020909101359150565b60008060408385031215612bd2578182fd5b505080516020909101519092909150565b600080600080600080600080610100898b031215612bff578384fd5b885197506020890151965060408901519550606089015194506080890151935060a0890151925060c0890151915060e089015167ffffffffffffffff81168114612c47578182fd5b809150509295985092959890939650565b60008151808452612c708160208601602086016133fd565b601f01601f19169290920160200192915050565b60008251612c968184602087016133fd565b9190910192915050565b60006a44534c412d53484f52542d60a81b82528251612cc681600b8501602087016133fd565b91909101600b0192915050565b60006744534c412d53502d60c01b82528251612cf68160088501602087016133fd565b9190910160080192915050565b60006944534c412d4c4f4e472d60b01b82528251612d2881600a8501602087016133fd565b91909101600a0192915050565b60006744534c412d4c502d60c01b82528251612cf68160088501602087016133fd565b6001600160a01b0391909116815260200190565b6001600160a01b03929092168252602082015260400190565b6001600160a01b039384168152919092166020820152604081019190915260600190565b901515815260200190565b90815260200190565b6020810160068310612dcb57fe5b91905290565b6040810160068410612ddf57fe5b9281526001600160801b039190911660209091015290565b6000602082526127ec6020830184612c58565b600060408252612e1d6040830185612c58565b8281036020840152612e2f8185612c58565b95945050505050565b600060808252612e4b6080830187612c58565b8281036020840152612e5d8187612c58565b8381036040850152612e6f8187612c58565b91505082810360608401526128a98185612c58565b60208082526033908201527f416c6c6f77656420746f6b656e73206c656e67746820677265617465722074686040820152720c2dc40dac2f040e8ded6cadc40d8cadccee8d606b1b606082015260800190565b60208082526026908201527f4f776e61626c653a206e6577206f776e657220697320746865207a65726f206160408201526564647265737360d01b606082015260800190565b6020808252601b908201527f536166654d6174683a206164646974696f6e206f766572666c6f770000000000604082015260600190565b6020808252602d908201527f546f6b656e206e6f7420616c6c6f7765642062792074686520534c415265676960408201526c1cdd1c9e4818dbdb9d1c9858dd609a1b606082015260800190565b60208082526025908201527f4f6e6c79204d657373656e6765722063616e2063616c6c20746869732066756e60408201526431ba34b7b760d91b606082015260800190565b6020808252601e908201527f536166654d6174683a207375627472616374696f6e206f766572666c6f770000604082015260600190565b60208082526026908201527f416464726573733a20696e73756666696369656e742062616c616e636520666f6040820152651c8818d85b1b60d21b606082015260800190565b6020808252601a908201527f536166654d6174683a206469766973696f6e206279207a65726f000000000000604082015260600190565b6020808252600f908201526e139bdd081dda1a5d195b1a5cdd1959608a1b604082015260600190565b60208082526028908201527f43616e206f6e6c79207374616b65206f6e206e6f742066696e697368656420636040820152676f6e74726163747360c01b606082015260800190565b602080825260149082015273496e636f72726563742075736572207374616b6560601b604082015260600190565b60208082526021908201527f536166654d6174683a206d756c7469706c69636174696f6e206f766572666c6f6040820152607760f81b606082015260800190565b6020808252601490820152731d1bdad95b881a5cc81b9bdd08185b1b1bddd95960621b604082015260600190565b6020808252818101527f4f776e61626c653a2063616c6c6572206973206e6f7420746865206f776e6572604082015260600190565b6020808252601a908201527f4f6e6c7920666f722066696e697368656420636f6e7472616374000000000000604082015260600190565b602080825260139082015272151bdad95b88185b1c9958591e481859191959606a1b604082015260600190565b602080825260129082015271496e636f727265637420776974686472617760701b604082015260600190565b6020808252601d908201527f416464726573733a2063616c6c20746f206e6f6e2d636f6e7472616374000000604082015260600190565b6020808252601290820152710616d6f756e742063616e6e6f7420626520360741b604082015260600190565b6020808252602a908201527f5361666545524332303a204552433230206f7065726174696f6e20646964206e6040820152691bdd081cdd58d8d9595960b21b606082015260800190565b6001600160801b0391909116815260200190565b9182526001600160a01b0316602082015260400190565b83815260208101839052606081016003831061335d57fe5b826040830152949350505050565b9283526020830191909152604082015260600190565b92835267ffffffffffffffff919091166020830152604082015260600190565b67ffffffffffffffff91909116815260200190565b60405181810167ffffffffffffffff811182821017156133d557600080fd5b604052919050565b600067ffffffffffffffff8211156133f3578081fd5b5060209081020190565b60005b83811015613418578181015183820152602001613400565b8381111561159e5750506000910152565b6001600160a01b038116811461343e57600080fd5b5056fea26469706673582212209ecbb90f0fb62c83835d43cf7a4c03e6441266c0fdb95210e1f91cc6ee0ccb3c64736f6c634300060600338be0079c531659141344cd1fd0a4f28419497f9722a3daafe3b4186f6b6457e0",
  "immutableReferences": {
    "6272": [
      {
        "length": 32,
        "start": 5191
      },
      {
        "length": 32,
        "start": 5642
      }
    ],
    "6276": [
      {
        "length": 32,
        "start": 4826
      }
    ],
    "6278": [
      {
        "length": 32,
        "start": 5815
      },
      {
        "length": 32,
        "start": 5974
      }
    ],
    "6280": [
      {
        "length": 32,
        "start": 3108
      }
    ],
    "6282": [
      {
        "length": 32,
        "start": 1275
      },
      {
        "length": 32,
        "start": 3144
      },
      {
        "length": 32,
        "start": 6210
      },
      {
        "length": 32,
        "start": 6284
      }
    ],
    "6284": [
      {
        "length": 32,
        "start": 1332
      },
      {
        "length": 32,
        "start": 3417
      },
      {
        "length": 32,
        "start": 4906
      },
      {
        "length": 32,
        "start": 5080
      },
      {
        "length": 32,
        "start": 6317
      }
    ],
    "6286": [
      {
        "length": 32,
        "start": 3489
      },
      {
        "length": 32,
        "start": 4873
      }
    ],
    "8629": [
      {
        "length": 32,
        "start": 2378
      },
      {
        "length": 32,
        "start": 6450
      }
    ],
    "8654": [
      {
        "length": 32,
        "start": 6678
      }
    ],
    "8659": [
      {
        "length": 32,
        "start": 4301
      }
    ],
    "8663": [
      {
        "length": 32,
        "start": 3072
      },
      {
        "length": 32,
        "start": 6772
      }
    ],
    "8669": [
      {
        "length": 32,
        "start": 3381
      },
      {
        "length": 32,
        "start": 6974
      },
      {
        "length": 32,
        "start": 8748
      },
      {
        "length": 32,
        "start": 9666
      },
      {
        "length": 32,
        "start": 9882
      }
    ]
  },
  "source": "// SPDX-License-Identifier: MIT\npragma solidity 0.6.6;\npragma experimental ABIEncoderV2;\n\nimport \"@openzeppelin/contracts/access/Ownable.sol\";\nimport \"@openzeppelin/contracts/token/ERC20/IERC20.sol\";\nimport \"@openzeppelin/contracts/math/SafeMath.sol\";\nimport \"./SLARegistry.sol\";\nimport \"./SLORegistry.sol\";\nimport \"./StakeRegistry.sol\";\nimport \"./PeriodRegistry.sol\";\nimport \"./Staking.sol\";\n\n/**\n * @title SLA\n * @dev SLA is a service level agreement contract used for service downtime\n * compensation\n */\ncontract SLA is Staking {\n    using SafeMath for uint256;\n\n    enum Status {NotVerified, Respected, NotRespected}\n\n    struct PeriodSLI {\n        uint256 timestamp;\n        uint256 sli;\n        Status status;\n    }\n\n    //\n    string public ipfsHash;\n    address public immutable messengerAddress;\n    SLARegistry public slaRegistry;\n    PeriodRegistry private immutable periodRegistry;\n    SLORegistry private immutable sloRegistry;\n    uint256 public immutable creationBlockNumber;\n    uint128 public immutable initialPeriodId;\n    uint128 public immutable finalPeriodId;\n    PeriodRegistry.PeriodType public immutable periodType;\n    /// @dev extra data for customized workflows\n    bytes32[] public extraData;\n\n    bool private _breachedContract = false;\n    uint256 public nextVerifiablePeriod;\n\n    /// @dev periodId=>PeriodSLI mapping\n    mapping(uint256 => PeriodSLI) public periodSLIs;\n\n    /**\n     * @dev event for SLI creation logging\n     * @param timestamp 1. the time the SLI has been registered\n     * @param sli 2. the value of the SLI\n     * @param periodId 3. the id of the given period\n     */\n    event SLICreated(uint256 timestamp, uint256 sli, uint256 periodId);\n\n    /**\n     * @dev event for Stake loging\n     * @param tokenAddress 1. -\n     * @param periodId 2. -\n     * @param amount 3. -\n     * @param caller 4. -\n     */\n    event Stake(\n        address indexed tokenAddress,\n        uint256 indexed periodId,\n        address indexed caller,\n        uint256 amount\n    );\n    /**\n     * @dev event for Stake loging\n     * @param tokenAddress 1. -\n     * @param periodId 2. -\n     * @param amount 3. -\n     * @param caller 4. -\n     */\n    event ProviderWithdraw(\n        address indexed tokenAddress,\n        uint256 indexed periodId,\n        address indexed caller,\n        uint256 amount\n    );\n    /**\n     * @dev event for Stake loging\n     * @param tokenAddress 1. -\n     * @param periodId 2. -\n     * @param amount 3. -\n     * @param caller 4. -\n     */\n    event UserWithdraw(\n        address indexed tokenAddress,\n        uint256 indexed periodId,\n        address indexed caller,\n        uint256 amount\n    );\n\n    /**\n     * @dev throws if called by any address other than the messenger contract.\n     */\n    modifier onlyMessenger() {\n        require(\n            msg.sender == messengerAddress,\n            \"Only Messenger can call this function\"\n        );\n        _;\n    }\n\n    /**\n     * @dev throws if called by any address other than the messenger contract.\n     */\n    modifier onlySLARegistry() {\n        require(\n            msg.sender == address(slaRegistry),\n            \"Only SLARegistry can call this function\"\n        );\n        _;\n    }\n\n    /**\n     * @dev throws if called with an amount less or equal to zero.\n     */\n    modifier notZero(uint256 _amount) {\n        require(_amount > 0, \"amount cannot be 0\");\n        _;\n    }\n\n    /**\n     * @param _owner 1. -\n     * @param _ipfsHash 3. -\n     * @param _messengerAddress 3. -\n     * @param _initialPeriodId 4. -\n     * @param _finalPeriodId 4. -\n     * @param _periodType 5. -\n     * @param _whitelisted 8. -\n     * @param _extraData 9. -\n     * @param _slaID 10. -\n     */\n    constructor(\n        address _owner,\n        bool _whitelisted,\n        PeriodRegistry.PeriodType _periodType,\n        address _messengerAddress,\n        uint128 _initialPeriodId,\n        uint128 _finalPeriodId,\n        uint128 _slaID,\n        string memory _ipfsHash,\n        bytes32[] memory _extraData,\n        uint64 _leverage\n    )\n        public\n        Staking(\n            SLARegistry(msg.sender),\n            _periodType,\n            _whitelisted,\n            _slaID,\n            _leverage,\n            _owner\n        )\n    {\n        transferOwnership(_owner);\n        ipfsHash = _ipfsHash;\n        messengerAddress = _messengerAddress;\n        slaRegistry = SLARegistry(msg.sender);\n        periodRegistry = slaRegistry.periodRegistry();\n        sloRegistry = slaRegistry.sloRegistry();\n        creationBlockNumber = block.number;\n        initialPeriodId = _initialPeriodId;\n        finalPeriodId = _finalPeriodId;\n        periodType = _periodType;\n        extraData = _extraData;\n        nextVerifiablePeriod = _initialPeriodId;\n    }\n\n    /**\n     * @dev external function to register SLI's and check them against the SLORegistry\n     * @param _sli 1. the value of the SLI to check\n     * @param _periodId 2. the id of the given period\n     */\n    function registerSLI(uint256 _sli, uint256 _periodId)\n        external\n        onlyMessenger\n    {\n        emit SLICreated(block.timestamp, _sli, _periodId);\n        nextVerifiablePeriod = _periodId + 1;\n        PeriodSLI storage periodSLI = periodSLIs[_periodId];\n        periodSLI.sli = _sli;\n        periodSLI.timestamp = block.timestamp;\n        (uint256 sloValue, ) = sloRegistry.registeredSLO(address(this));\n        if (sloRegistry.isRespected(_sli, address(this))) {\n            periodSLI.status = Status.Respected;\n            uint256 precision = 10000;\n            uint256 deviation =\n                _sli.sub(sloValue).mul(precision).div(\n                    _sli.add(sloValue).div(2)\n                );\n            uint256 normalizedPeriodId = _periodId.sub(initialPeriodId).add(1);\n            uint256 rewardPercentage =\n                deviation.mul(normalizedPeriodId).div(\n                    finalPeriodId - initialPeriodId + 1\n                );\n            _setRespectedPeriodReward(_periodId, rewardPercentage, precision);\n        } else {\n            periodSLI.status = Status.NotRespected;\n            _setUsersCompensation(_periodId);\n            _breachedContract = true;\n        }\n    }\n\n    function isAllowedPeriod(uint256 _periodId) external view returns (bool) {\n        if (_periodId < initialPeriodId) return false;\n        if (_periodId > finalPeriodId) return false;\n        return true;\n    }\n\n    function contractFinished() public view returns (bool) {\n        (, uint256 endOfLastValidPeriod) =\n            periodRegistry.getPeriodStartAndEnd(periodType, finalPeriodId);\n        return\n            _breachedContract == true ||\n            (block.timestamp >= endOfLastValidPeriod &&\n                periodSLIs[finalPeriodId].status != Status.NotVerified);\n    }\n\n    /**\n     *@dev stake _amount tokens into the _token contract\n     *@param _amount 1. amount to be staked\n     *@param _token 2. address of the ERC to be staked\n     */\n\n    function stakeTokens(uint256 _amount, address _token)\n        external\n        notZero(_amount)\n    {\n        bool isContractFinished = contractFinished();\n        require(\n            !isContractFinished,\n            \"Can only stake on not finished contracts\"\n        );\n        _stake(_amount, _token);\n        emit Stake(_token, nextVerifiablePeriod, msg.sender, _amount);\n        StakeRegistry stakeRegistry = slaRegistry.stakeRegistry();\n        stakeRegistry.registerStakedSla(msg.sender);\n    }\n\n    function withdrawProviderTokens(uint256 _amount, address _tokenAddress)\n        external\n        notZero(_amount)\n    {\n        bool isContractFinished = contractFinished();\n        emit ProviderWithdraw(\n            _tokenAddress,\n            nextVerifiablePeriod,\n            msg.sender,\n            _amount\n        );\n        _withdrawProviderTokens(_amount, _tokenAddress, isContractFinished);\n    }\n\n    /**\n     *@dev withdraw _amount tokens from the _token contract\n     *@param _amount 1. amount to be staked\n     *@param _tokenAddress 2. address of the ERC to be staked\n     */\n\n    function withdrawUserTokens(uint256 _amount, address _tokenAddress)\n        external\n        notZero(_amount)\n    {\n        if (msg.sender != owner()) {\n            bool isContractFinished = contractFinished();\n            require(isContractFinished, \"Only for finished contract\");\n        }\n        emit UserWithdraw(\n            _tokenAddress,\n            nextVerifiablePeriod,\n            msg.sender,\n            _amount\n        );\n        _withdrawUserTokens(_amount, _tokenAddress);\n    }\n\n    function getStakersLength() external view returns (uint256) {\n        return stakers.length;\n    }\n\n    function breachedContract() external view returns (bool) {\n        return _breachedContract;\n    }\n}\n",
  "sourcePath": "@stacktical/dsla-protocol/contracts/SLA.sol",
  "compiler": {
    "name": "solc",
    "version": "0.6.6+commit.6c089d02.Emscripten.clang"
  },
  "schemaVersion": "3.3.4",
  "updatedAt": "2021-05-06T00:34:10.847Z",
  "devdoc": {
    "details": "SLA is a service level agreement contract used for service downtime compensation",
    "methods": {
      "constructor": {
        "params": {
          "_extraData": "9. -",
          "_finalPeriodId": "4. -",
          "_initialPeriodId": "4. -",
          "_ipfsHash": "3. -",
          "_messengerAddress": "3. -",
          "_owner": "1. -",
          "_periodType": "5. -",
          "_slaID": "10. -",
          "_whitelisted": "8. -"
        }
      },
      "owner()": {
        "details": "Returns the address of the current owner."
      },
      "registerSLI(uint256,uint256)": {
        "details": "external function to register SLI's and check them against the SLORegistry",
        "params": {
          "_periodId": "2. the id of the given period",
          "_sli": "1. the value of the SLI to check"
        }
      },
      "renounceOwnership()": {
        "details": "Leaves the contract without owner. It will not be possible to call `onlyOwner` functions anymore. Can only be called by the current owner.     * NOTE: Renouncing ownership will leave the contract without an owner, thereby removing any functionality that is only available to the owner."
      },
      "transferOwnership(address)": {
        "details": "Transfers ownership of the contract to a new account (`newOwner`). Can only be called by the current owner."
      }
    },
    "title": "SLA"
  },
  "userdoc": {
    "methods": {
      "addAllowedTokens(address)": {
        "notice": "dev add a token to ve allowed for staking param _tokenAddress 1. address of the new allowed token"
      },
      "getAllowedTokensLength()": {
        "notice": "dev use this function to evaluate the length of the allowed tokens length return allowedTokens.length"
      },
      "isAllowedToken(address)": {
        "notice": "dev checks in the allowedTokens array if there's a token with _tokenAddress value param _tokenAddress 1. token address to check exixtence return true if _tokenAddress exists in the allowedTokens array"
      },
      "stakeTokens(uint256,address)": {
        "notice": "dev stake _amount tokens into the _token contract param _amount 1. amount to be staked param _token 2. address of the ERC to be staked"
      },
      "withdrawUserTokens(uint256,address)": {
        "notice": "dev withdraw _amount tokens from the _token contract param _amount 1. amount to be staked param _tokenAddress 2. address of the ERC to be staked"
      }
    }
  }
}