{
  "contractName": "SLARegistry",
  "abi": [
    {
      "inputs": [
        {
          "internalType": "contract SLORegistry",
          "name": "_sloRegistry",
          "type": "address"
        },
        {
          "internalType": "contract PeriodRegistry",
          "name": "_periodRegistry",
          "type": "address"
        },
        {
          "internalType": "contract MessengerRegistry",
          "name": "_messengerRegistry",
          "type": "address"
        },
        {
          "internalType": "contract StakeRegistry",
          "name": "_stakeRegistry",
          "type": "address"
        },
        {
          "internalType": "bool",
          "name": "_checkPastPeriod",
          "type": "bool"
        }
      ],
      "stateMutability": "nonpayable",
      "type": "constructor"
    },
    {
      "anonymous": false,
      "inputs": [
        {
          "indexed": true,
          "internalType": "address",
          "name": "sla",
          "type": "address"
        },
        {
          "indexed": true,
          "internalType": "address",
          "name": "caller",
          "type": "address"
        }
      ],
      "name": "ReturnLockedValue",
      "type": "event"
    },
    {
      "anonymous": false,
      "inputs": [
        {
          "indexed": true,
          "internalType": "contract SLA",
          "name": "sla",
          "type": "address"
        },
        {
          "indexed": true,
          "internalType": "address",
          "name": "owner",
          "type": "address"
        }
      ],
      "name": "SLACreated",
      "type": "event"
    },
    {
      "anonymous": false,
      "inputs": [
        {
          "indexed": false,
          "internalType": "uint256",
          "name": "periodId",
          "type": "uint256"
        },
        {
          "indexed": true,
          "internalType": "address",
          "name": "sla",
          "type": "address"
        },
        {
          "indexed": true,
          "internalType": "address",
          "name": "caller",
          "type": "address"
        }
      ],
      "name": "SLIRequested",
      "type": "event"
    },
    {
      "inputs": [
        {
          "internalType": "uint256",
          "name": "",
          "type": "uint256"
        }
      ],
      "name": "SLAs",
      "outputs": [
        {
          "internalType": "contract SLA",
          "name": "",
          "type": "address"
        }
      ],
      "stateMutability": "view",
      "type": "function",
      "constant": true
    },
    {
      "inputs": [],
      "name": "checkPastPeriod",
      "outputs": [
        {
          "internalType": "bool",
          "name": "",
          "type": "bool"
        }
      ],
      "stateMutability": "view",
      "type": "function",
      "constant": true
    },
    {
      "inputs": [],
      "name": "messengerRegistry",
      "outputs": [
        {
          "internalType": "contract MessengerRegistry",
          "name": "",
          "type": "address"
        }
      ],
      "stateMutability": "view",
      "type": "function",
      "constant": true
    },
    {
      "inputs": [],
      "name": "periodRegistry",
      "outputs": [
        {
          "internalType": "contract PeriodRegistry",
          "name": "",
          "type": "address"
        }
      ],
      "stateMutability": "view",
      "type": "function",
      "constant": true
    },
    {
      "inputs": [],
      "name": "sloRegistry",
      "outputs": [
        {
          "internalType": "contract SLORegistry",
          "name": "",
          "type": "address"
        }
      ],
      "stateMutability": "view",
      "type": "function",
      "constant": true
    },
    {
      "inputs": [],
      "name": "stakeRegistry",
      "outputs": [
        {
          "internalType": "contract StakeRegistry",
          "name": "",
          "type": "address"
        }
      ],
      "stateMutability": "view",
      "type": "function",
      "constant": true
    },
    {
      "inputs": [
        {
          "internalType": "uint256",
          "name": "_sloValue",
          "type": "uint256"
        },
        {
          "internalType": "enum SLORegistry.SLOType",
          "name": "_sloType",
          "type": "uint8"
        },
        {
          "internalType": "bool",
          "name": "_whitelisted",
          "type": "bool"
        },
        {
          "internalType": "address",
          "name": "_messengerAddress",
          "type": "address"
        },
        {
          "internalType": "enum PeriodRegistry.PeriodType",
          "name": "_periodType",
          "type": "uint8"
        },
        {
          "internalType": "uint128",
          "name": "_initialPeriodId",
          "type": "uint128"
        },
        {
          "internalType": "uint128",
          "name": "_finalPeriodId",
          "type": "uint128"
        },
        {
          "internalType": "string",
          "name": "_ipfsHash",
          "type": "string"
        },
        {
          "internalType": "bytes32[]",
          "name": "_extraData",
          "type": "bytes32[]"
        },
        {
          "internalType": "uint64",
          "name": "_leverage",
          "type": "uint64"
        }
      ],
      "name": "createSLA",
      "outputs": [],
      "stateMutability": "nonpayable",
      "type": "function"
    },
    {
      "inputs": [
        {
          "internalType": "uint256",
          "name": "_periodId",
          "type": "uint256"
        },
        {
          "internalType": "contract SLA",
          "name": "_sla",
          "type": "address"
        },
        {
          "internalType": "bool",
          "name": "_ownerApproval",
          "type": "bool"
        }
      ],
      "name": "requestSLI",
      "outputs": [],
      "stateMutability": "nonpayable",
      "type": "function"
    },
    {
      "inputs": [
        {
          "internalType": "contract SLA",
          "name": "_sla",
          "type": "address"
        }
      ],
      "name": "returnLockedValue",
      "outputs": [],
      "stateMutability": "nonpayable",
      "type": "function"
    },
    {
      "inputs": [
        {
          "internalType": "address",
          "name": "_messengerAddress",
          "type": "address"
        },
        {
          "internalType": "string",
          "name": "_specificationUrl",
          "type": "string"
        }
      ],
      "name": "registerMessenger",
      "outputs": [],
      "stateMutability": "nonpayable",
      "type": "function"
    },
    {
      "inputs": [
        {
          "internalType": "address",
          "name": "_user",
          "type": "address"
        }
      ],
      "name": "userSLAs",
      "outputs": [
        {
          "internalType": "contract SLA[]",
          "name": "",
          "type": "address[]"
        }
      ],
      "stateMutability": "view",
      "type": "function",
      "constant": true
    },
    {
      "inputs": [],
      "name": "allSLAs",
      "outputs": [
        {
          "internalType": "contract SLA[]",
          "name": "",
          "type": "address[]"
        }
      ],
      "stateMutability": "view",
      "type": "function",
      "constant": true
    },
    {
      "inputs": [
        {
          "internalType": "address",
          "name": "_slaAddress",
          "type": "address"
        }
      ],
      "name": "isRegisteredSLA",
      "outputs": [
        {
          "internalType": "bool",
          "name": "",
          "type": "bool"
        }
      ],
      "stateMutability": "view",
      "type": "function",
      "constant": true
    }
  ],
  "bytecode": "0x60a06040523480156200001157600080fd5b50604051620061fc380380620061fc8339810160408190526200003491620001b4565b600080546001600160a01b0319166001600160a01b03878116919091178083556040805163f388158960e01b81529051919092169263f3881589926004808201939182900301818387803b1580156200008c57600080fd5b505af1158015620000a1573d6000803e3d6000fd5b5050600180546001600160a01b038089166001600160a01b03199283161790925560038054878416921691909117908190556040805163f388158960e01b8152905191909216935063f38815899250600480830192600092919082900301818387803b1580156200011157600080fd5b505af115801562000126573d6000803e3d6000fd5b5050600280546001600160a01b0319166001600160a01b0387811691909117918290556040805163f388158960e01b8152905192909116935063f3881589925060048082019260009290919082900301818387803b1580156200018857600080fd5b505af11580156200019d573d6000803e3d6000fd5b50505050151560f81b608052506200024f92505050565b600080600080600060a08688031215620001cc578081fd5b8551620001d98162000236565b6020870151909550620001ec8162000236565b6040870151909450620001ff8162000236565b6060870151909350620002128162000236565b6080870151909250801515811462000228578182fd5b809150509295509295909350565b6001600160a01b03811681146200024c57600080fd5b50565b60805160f81c615f8a620002726000398061042852806114705250615f8a6000f3fe60806040523480156200001157600080fd5b5060043610620000d05760003560e01c806368304835116200008757806368304835146200016e578063788164b114620001785780638d2113ed146200018f57806396bddc1014620001a65780639fc4caa514620001b0578063a9e43e7f14620001ba578063c4277a7b14620001d357620000d0565b80630d0f4db714620000d55780632575d7ca14620000ee57806350c5abfe1462000105578063516c285714620001345780635a7d1e5d146200015a5780635c4df3321462000164575b600080fd5b620000ec620000e63660046200179a565b620001ea565b005b620000ec620000ff3660046200162d565b620007c3565b6200011c6200011636600462001722565b62000c05565b6040516200012b919062001947565b60405180910390f35b6200014b620001453660046200162d565b62000c2d565b6040516200012b919062001aab565b6200011c62000d80565b6200011c62000d8f565b6200011c62000d9e565b620000ec6200018936600462001754565b62000dad565b620000ec620001a036600462001672565b62001338565b6200014b620013fb565b6200011c6200145f565b620001c46200146e565b6040516200012b919062001afa565b620001c4620001e43660046200162d565b62001492565b600154604051636efe27ef60e11b81526000916001600160a01b03169063ddfc4fde906200021f908a908a9060040162001b1a565b60206040518083038186803b1580156200023857600080fd5b505afa1580156200024d573d6000803e3d6000fd5b505050506040513d601f19601f82011682018060405250810190620002739190620016c5565b9050806200029e5760405162461bcd60e51b8152600401620002959062001b91565b60405180910390fd5b600154604051636efe27ef60e11b81526001600160a01b039091169063ddfc4fde90620002d2908a90899060040162001b1a565b60206040518083038186803b158015620002eb57600080fd5b505afa15801562000300573d6000803e3d6000fd5b505050506040513d601f19601f82011682018060405250810190620003269190620016c5565b905080620003485760405162461bcd60e51b8152600401620002959062001dcb565b6001546040516347ef60ed60e11b81526000916001600160a01b031690638fdec1da906200037b908b9060040162001b05565b60206040518083038186803b1580156200039457600080fd5b505afa158015620003a9573d6000803e3d6000fd5b505050506040513d601f19601f82011682018060405250810190620003cf9190620016c5565b905080620003f15760405162461bcd60e51b8152600401620002959062001b5a565b866001600160801b0316866001600160801b03161015620004265760405162461bcd60e51b8152600401620002959062001d5b565b7f000000000000000000000000000000000000000000000000000000000000000015620004fb57600154604051631e8760ef60e21b81526000916001600160a01b031690637a1d83bc9062000482908c908c9060040162001b1a565b60206040518083038186803b1580156200049b57600080fd5b505afa158015620004b0573d6000803e3d6000fd5b505050506040513d601f19601f82011682018060405250810190620004d69190620016c5565b90508015620004f95760405162461bcd60e51b8152600401620002959062001ca6565b505b60025460405163ef4003db60e01b81526000916001600160a01b03169063ef4003db906200052e908d9060040162001947565b60206040518083038186803b1580156200054757600080fd5b505afa1580156200055c573d6000803e3d6000fd5b505050506040513d601f19601f82011682018060405250810190620005829190620016c5565b9050600181151514620005a95760405162461bcd60e51b8152600401620002959062001ccb565b6000338c8b8d8c8c6004805490508d8d8d604051620005c890620014e0565b620005dd9a99989796959493929190620019be565b604051809103906000f080158015620005fa573d6000803e3d6000fd5b5090506000809054906101000a90046001600160a01b03166001600160a01b0316630c7ad72b8f8f846040518463ffffffff1660e01b8152600401620006439392919062001e57565b600060405180830381600087803b1580156200065e57600080fd5b505af115801562000673573d6000803e3d6000fd5b5050600354604051633d7da60560e11b81526001600160a01b039091169250637afb4c0a9150620006b290339085908e8e036001019060040162001992565b600060405180830381600087803b158015620006cd57600080fd5b505af1158015620006e2573d6000803e3d6000fd5b505060048054600180820183557f8a35acfbc15ff81a39ae7d344fd709f28e8600b4aa8c65c6b64bfe7fe36bd19b90910180546001600160a01b0319166001600160a01b0387169081179091556000908152600660205260408120805460ff1916831790559154919350620007589250620014b0565b33600081815260056020908152604080832080546001810182559084529183209091018490555192935090916001600160a01b038516917fb52f284a6c14f1a66ab5513b5b539066933e58e69e6432666f0e3c8c8a7d750391a3505050505050505050505050505050565b620007ce8162001492565b620007ed5760405162461bcd60e51b8152600401620002959062001bf9565b806001600160a01b0316638da5cb5b6040518163ffffffff1660e01b815260040160206040518083038186803b1580156200082757600080fd5b505afa1580156200083c573d6000803e3d6000fd5b505050506040513d601f19601f8201168201806040525081019062000862919062001653565b6001600160a01b0316336001600160a01b031614620008955760405162461bcd60e51b8152600401620002959062001c4d565b6000816001600160a01b0316633385d3346040518163ffffffff1660e01b815260040160206040518083038186803b158015620008d157600080fd5b505afa158015620008e6573d6000803e3d6000fd5b505050506040513d601f19601f820116820180604052508101906200090c919062001703565b6001600160801b031690506000826001600160a01b03166346e0fbae6040518163ffffffff1660e01b815260040160206040518083038186803b1580156200095357600080fd5b505afa15801562000968573d6000803e3d6000fd5b505050506040513d601f19601f820116820180604052508101906200098e9190620016e4565b60015460405160016259edcb60e01b031981529192506000916001600160a01b039091169063ffa6123590620009cb908590879060040162001b41565b604080518083038186803b158015620009e357600080fd5b505afa158015620009f8573d6000803e3d6000fd5b505050506040513d601f19601f8201168201806040525081019062000a1e919062001896565b9150506000846001600160a01b0316634190edde856040518263ffffffff1660e01b815260040162000a51919062001e27565b60606040518083038186803b15801562000a6a57600080fd5b505afa15801562000a7f573d6000803e3d6000fd5b505050506040513d601f19601f8201168201806040525081019062000aa59190620018ba565b92505050846001600160a01b0316637fd788aa6040518163ffffffff1660e01b815260040160206040518083038186803b15801562000ae357600080fd5b505afa15801562000af8573d6000803e3d6000fd5b505050506040513d601f19601f8201168201806040525081019062000b1e9190620016c5565b8062000b43575081421015801562000b435750600081600281111562000b4057fe5b14155b62000b625760405162461bcd60e51b8152600401620002959062001c1e565b60405133906001600160a01b038716907f892dba94a39dc15a34a9767dc9a0e553ace780857b076507becf599634bfbb6790600090a36003546040516312baebe560e11b81526001600160a01b0390911690632575d7ca9062000bca90889060040162001947565b600060405180830381600087803b15801562000be557600080fd5b505af115801562000bfa573d6000803e3d6000fd5b505050505050505050565b6004818154811062000c1357fe5b6000918252602090912001546001600160a01b0316905081565b6001600160a01b03811660009081526005602052604090205460609081816001600160401b038111801562000c6157600080fd5b5060405190808252806020026020018201604052801562000c8c578160200160208202803683370190505b506001600160a01b0385166000908152600560209081526040918290208054835181840281018401909452808452939450606093909183018282801562000cf357602002820191906000526020600020905b81548152602001906001019080831162000cde575b50939450600093505050505b8381101562000d7657600482828151811062000d1757fe5b60200260200101518154811062000d2a57fe5b9060005260206000200160009054906101000a90046001600160a01b031683828151811062000d5557fe5b6001600160a01b039092166020928302919091019091015260010162000cff565b5090949350505050565b6000546001600160a01b031681565b6002546001600160a01b031681565b6003546001600160a01b031681565b62000db88262001492565b62000dd75760405162461bcd60e51b8152600401620002959062001bf9565b816001600160a01b031663b1659bad6040518163ffffffff1660e01b815260040160206040518083038186803b15801562000e1157600080fd5b505afa15801562000e26573d6000803e3d6000fd5b505050506040513d601f19601f8201168201806040525081019062000e4c91906200173b565b831462000e6d5760405162461bcd60e51b8152600401620002959062001d29565b6040516320c876ef60e11b81526000906001600160a01b03841690634190edde9062000e9e90879060040162001e27565b60606040518083038186803b15801562000eb757600080fd5b505afa15801562000ecc573d6000803e3d6000fd5b505050506040513d601f19601f8201168201806040525081019062000ef29190620018ba565b92506000915062000f009050565b81600281111562000f0d57fe5b1462000f2d5760405162461bcd60e51b8152600401620002959062001cfd565b6000836001600160a01b0316637fd788aa6040518163ffffffff1660e01b815260040160206040518083038186803b15801562000f6957600080fd5b505afa15801562000f7e573d6000803e3d6000fd5b505050506040513d601f19601f8201168201806040525081019062000fa49190620016c5565b9050801562000fc75760405162461bcd60e51b8152600401620002959062001dfc565b60405163021eef7f60e01b81526000906001600160a01b0386169063021eef7f9062000ff890899060040162001e27565b60206040518083038186803b1580156200101157600080fd5b505afa15801562001026573d6000803e3d6000fd5b505050506040513d601f19601f820116820180604052508101906200104c9190620016c5565b9050806200106e5760405162461bcd60e51b8152600401620002959062001da0565b6000856001600160a01b03166346e0fbae6040518163ffffffff1660e01b815260040160206040518083038186803b158015620010aa57600080fd5b505afa158015620010bf573d6000803e3d6000fd5b505050506040513d601f19601f82011682018060405250810190620010e59190620016e4565b6001546040516331edb3ad60e21b81529192506000916001600160a01b039091169063c7b6ceb4906200111f9085908c9060040162001b41565b60206040518083038186803b1580156200113857600080fd5b505afa1580156200114d573d6000803e3d6000fd5b505050506040513d601f19601f82011682018060405250810190620011739190620016c5565b905080620011955760405162461bcd60e51b8152600401620002959062001c7b565b6000876001600160a01b031663a224ee9c6040518163ffffffff1660e01b815260040160206040518083038186803b158015620011d157600080fd5b505afa158015620011e6573d6000803e3d6000fd5b505050506040513d601f19601f820116820180604052508101906200120c919062001653565b9050336001600160a01b0316886001600160a01b03167fa204d52d2c80fbd794029bca489fb7b1c4dd5f7d5967806277f579cc683431468b60405162001253919062001e27565b60405180910390a3604051634bd410c960e11b81526001600160a01b038216906397a82192906200128f908c908c908c90339060040162001e30565b600060405180830381600087803b158015620012aa57600080fd5b505af1158015620012bf573d6000803e3d6000fd5b50506003546040516308bcf0cf60e21b81526001600160a01b0390911692506322f3c33c9150620012f9908b9033908e9060040162001a87565b600060405180830381600087803b1580156200131457600080fd5b505af115801562001329573d6000803e3d6000fd5b50505050505050505050505050565b816001600160a01b031663f38815896040518163ffffffff1660e01b8152600401600060405180830381600087803b1580156200137457600080fd5b505af115801562001389573d6000803e3d6000fd5b505060025460405163eabb8a7360e01b81526001600160a01b03909116925063eabb8a739150620013c3903390869086906004016200195b565b600060405180830381600087803b158015620013de57600080fd5b505af1158015620013f3573d6000803e3d6000fd5b505050505050565b606060048054806020026020016040519081016040528092919081815260200182805480156200145557602002820191906000526020600020905b81546001600160a01b0316815260019091019060200180831162001436575b5050505050905090565b6001546001600160a01b031681565b7f000000000000000000000000000000000000000000000000000000000000000081565b6001600160a01b031660009081526006602052604090205460ff1690565b600082821115620014d55760405162461bcd60e51b8152600401620002959062001bc2565b508082035b92915050565b61404e8062001f0783390190565b8035620014da8162001ebd565b600082601f8301126200150c578081fd5b81356001600160401b0381111562001522578182fd5b60208082026200153482820162001e88565b838152935081840185830182870184018810156200155157600080fd5b600092505b848310156200157657803582526001929092019190830190830162001556565b505050505092915050565b8035620014da8162001ed3565b8035620014da8162001ee2565b600082601f830112620015ac578081fd5b81356001600160401b03811115620015c2578182fd5b620015d7601f8201601f191660200162001e88565b9150808252836020828501011115620015ef57600080fd5b8060208401602084013760009082016020015292915050565b8035620014da8162001ef0565b80356001600160401b0381168114620014da57600080fd5b6000602082840312156200163f578081fd5b81356200164c8162001ebd565b9392505050565b60006020828403121562001665578081fd5b81516200164c8162001ebd565b6000806040838503121562001685578081fd5b8235620016928162001ebd565b915060208301356001600160401b03811115620016ad578182fd5b620016bb858286016200159b565b9150509250929050565b600060208284031215620016d7578081fd5b81516200164c8162001ed3565b600060208284031215620016f6578081fd5b81516200164c8162001ee2565b60006020828403121562001715578081fd5b81516200164c8162001ef0565b60006020828403121562001734578081fd5b5035919050565b6000602082840312156200174d578081fd5b5051919050565b60008060006060848603121562001769578081fd5b8335925060208401356200177d8162001ebd565b915060408401356200178f8162001ed3565b809150509250925092565b6000806000806000806000806000806101408b8d031215620017ba578586fd5b8a359950620017cd8c60208d016200158e565b9850620017de8c60408d0162001581565b9750620017ef8c60608d01620014ee565b9650620018008c60808d016200158e565b9550620018118c60a08d0162001608565b9450620018228c60c08d0162001608565b935060e08b01356001600160401b03808211156200183e578485fd5b6200184c8e838f016200159b565b94506101008d013591508082111562001863578384fd5b50620018728d828e01620014fb565b925050620018858c6101208d0162001615565b90509295989b9194979a5092959850565b60008060408385031215620018a9578182fd5b505080516020909101519092909150565b600080600060608486031215620018cf578081fd5b83519250602084015191506040840151600381106200178f578182fd5b60008151808452815b818110156200191357602081850181015186830182015201620018f5565b81811115620019255782602083870101525b50601f01601f19169290920160200192915050565b6001600160401b03169052565b6001600160a01b0391909116815260200190565b6001600160a01b038481168252831660208201526060604082018190526000906200198990830184620018ec565b95945050505050565b6001600160a01b0393841681529190921660208201526001600160801b03909116604082015260600190565b600061014060018060a01b03808e16845260208d151581860152620019e38d62001eaf565b604085018d9052908b1660608501526001600160801b038a8116608086015289811660a086015288811660c086015260e085018390529062001a2883860189620018ec565b858103610100870152875180825290820193508188019250845b8181101562001a605783518552938201939282019260010162001a42565b505050508091505062001a786101208301846200193a565b9b9a5050505050505050505050565b6001600160a01b039384168152919092166020820152604081019190915260600190565b6020808252825182820181905260009190848201906040850190845b8181101562001aee5783516001600160a01b03168352928401929184019160010162001ac7565b50909695505050505050565b901515815260200190565b6020810162001b148362001eaf565b91905290565b6040810162001b298462001eaf565b9281526001600160801b039190911660209091015290565b6040810162001b508462001eaf565b9281526020015290565b6020808252601b908201527f706572696f642074797065206e6f7420696e697469616c697a65640000000000604082015260600190565b602080825260179082015276199a5c9cdd081c195c9a5bd9081a59081a5b9d985b1a59604a1b604082015260600190565b6020808252601e908201527f536166654d6174683a207375627472616374696f6e206f766572666c6f770000604082015260600190565b6020808252600b908201526a696e76616c696420534c4160a81b604082015260600190565b6020808252601590820152741b9bdd08199a5b9a5cda19590818dbdb9d1c9858dd605a1b604082015260600190565b60208082526014908201527336b9b39739b2b73232b9103737ba1037bbb732b960611b604082015260600190565b6020808252601190820152701c195c9a5bd9081d5b999a5b9a5cda1959607a1b604082015260600190565b6020808252600b908201526a1c185cdd081c195c9a5bd960aa1b604082015260600190565b6020808252601890820152771b595cdcd95b99d95c881b9bdd081c9959da5cdd195c995960421b604082015260600190565b602080825260129082015271696e76616c696420534c412073746174757360701b604082015260600190565b6020808252601890820152771b9bdd081b995e1d15995c9a599a58589b1954195c9a5bd960421b604082015260600190565b60208082526025908201527f696e76616c69642066696e616c506572696f6449642f696e697469616c5065726040820152641a5bd9125960da1b606082015260800190565b6020808252601190820152701a5b9d985b1a59081c195c9a5bd9081259607a1b604082015260600190565b602080825260179082015276199a5b985b081c195c9a5bd9081a59081a5b9d985b1a59604a1b604082015260600190565b602080825260119082015270189c995858da19590818dbdb9d1c9858dd607a1b604082015260600190565b90815260200190565b9384526001600160a01b039283166020850152901515604084015216606082015260800190565b8381526060810162001e698462001eaf565b60208201939093526001600160a01b0391909116604090910152919050565b6040518181016001600160401b038111828210171562001ea757600080fd5b604052919050565b6006811062001eba57fe5b50565b6001600160a01b038116811462001eba57600080fd5b801515811462001eba57600080fd5b6006811062001eba57600080fd5b6001600160801b038116811462001eba57600080fdfe610240604052600d805460ff191690553480156200001c57600080fd5b506040516200404e3803806200404e8339810160408190526200003f91620008f3565b33888a86848e60006200005a6001600160e01b036200059616565b600080546001600160a01b0319166001600160a01b0383169081178255604051929350916000805160206200402e833981519152908290a350856001600160a01b031663683048356040518163ffffffff1660e01b815260040160206040518083038186803b158015620000cd57600080fd5b505afa158015620000e2573d6000803e3d6000fd5b505050506040513d601f19601f82011682018060405250810190620001089190620008cd565b600160006101000a8154816001600160a01b0302191690836001600160a01b03160217905550856001600160a01b0316639fc4caa56040518163ffffffff1660e01b815260040160206040518083038186803b1580156200016857600080fd5b505afa1580156200017d573d6000803e3d6000fd5b505050506040513d601f19601f82011682018060405250810190620001a39190620008cd565b60601b6001600160601b031916608052846005811115620001c057fe5b610100816005811115620001d057fe5b60f890811b909152851515901b610120525060015460408051637b8041cf60e11b8152905160009283926001600160a01b039091169163f700839e9160048082019261010092909190829003018186803b1580156200022e57600080fd5b505afa15801562000243573d6000803e3d6000fd5b505050506040513d601f19601f82011682018060405250810190620002699190620009fa565b97505050505050509150600160009054906101000a90046001600160a01b03166001600160a01b0316638b8e53096040518163ffffffff1660e01b815260040160206040518083038186803b158015620002c257600080fd5b505afa158015620002d7573d6000803e3d6000fd5b505050506040513d601f19601f82011682018060405250810190620002fd9190620008cd565b60601b6001600160601b03191660c05260e08290526001600160a01b03831660009081526009602052604090208054600160ff19909116179055608085901b6001600160801b03191660a0526001600160401b03818116908516118015906200037057506001846001600160401b031610155b620003985760405162461bcd60e51b81526004016200038f9062000aa9565b60405180910390fd5b50505060c01b6001600160c01b0319166101405250620003bd92508c9150506200059b565b8251620003d290600a90602086019062000675565b506001600160601b0319606088901b1661016052600b80546001600160a01b03191633179081905560408051639fc4caa560e01b815290516001600160a01b039290921691639fc4caa591600480820192602092909190829003018186803b1580156200043e57600080fd5b505afa15801562000453573d6000803e3d6000fd5b505050506040513d601f19601f82011682018060405250810190620004799190620008cd565b60601b6001600160601b03191661018052600b5460408051635a7d1e5d60e01b815290516001600160a01b0390921691635a7d1e5d91600480820192602092909190829003018186803b158015620004d057600080fd5b505afa158015620004e5573d6000803e3d6000fd5b505050506040513d601f19601f820116820180604052508101906200050b9190620008cd565b60601b6001600160601b0319166101a052436101c052608086811b6001600160801b03199081166101e0529086901b16610200528760058111156200054c57fe5b6102208160058111156200055c57fe5b60f81b90525081516200057790600c906020850190620006fa565b5050506001600160801b03909316600e555062000b4a95505050505050565b335b90565b620005ae6001600160e01b036200059616565b6001600160a01b0316620005ca6001600160e01b036200066616565b6001600160a01b031614620005f35760405162461bcd60e51b81526004016200038f9062000ad5565b6001600160a01b0381166200061c5760405162461bcd60e51b81526004016200038f9062000a63565b600080546040516001600160a01b03808516939216916000805160206200402e83398151915291a3600080546001600160a01b0319166001600160a01b0392909216919091179055565b6000546001600160a01b031690565b828054600181600116156101000203166002900490600052602060002090601f016020900481019282601f10620006b857805160ff1916838001178555620006e8565b82800160010185558215620006e8579182015b82811115620006e8578251825591602001919060010190620006cb565b50620006f692915062000737565b5090565b828054828255906000526020600020908101928215620006e85791602002820182811115620006e8578251825591602001919060010190620006cb565b6200059891905b80821115620006f657600081556001016200073e565b8051620007618162000b31565b92915050565b600082601f83011262000778578081fd5b81516001600160401b038111156200078e578182fd5b6020808202620007a082820162000b0a565b83815293508184018583018287018401881015620007bd57600080fd5b600092505b84831015620007e2578051825260019290920191908301908301620007c2565b505050505092915050565b805180151581146200076157600080fd5b8051600681106200076157600080fd5b600082601f8301126200081f578081fd5b81516001600160401b0381111562000835578182fd5b60206200084b601f8301601f1916820162000b0a565b925081835284818386010111156200086257600080fd5b60005b828110156200088257848101820151848201830152810162000865565b82811115620008945760008284860101525b50505092915050565b80516001600160801b03811681146200076157600080fd5b80516001600160401b03811681146200076157600080fd5b600060208284031215620008df578081fd5b8151620008ec8162000b31565b9392505050565b6000806000806000806000806000806101408b8d03121562000913578586fd5b6200091f8c8c62000754565b9950620009308c60208d01620007ed565b9850620009418c60408d01620007fe565b9750620009528c60608d0162000754565b9650620009638c60808d016200089d565b9550620009748c60a08d016200089d565b9450620009858c60c08d016200089d565b60e08c01519094506001600160401b0380821115620009a2578485fd5b620009b08e838f016200080e565b94506101008d0151915080821115620009c7578384fd5b50620009d68d828e0162000767565b925050620009e98c6101208d01620008b5565b90509295989b9194979a5092959850565b600080600080600080600080610100898b03121562000a17578384fd5b885197506020890151965060408901519550606089015194506080890151935060a0890151925060c0890151915062000a548a60e08b01620008b5565b90509295985092959890939650565b60208082526026908201527f4f776e61626c653a206e6577206f776e657220697320746865207a65726f206160408201526564647265737360d01b606082015260800190565b602080825260129082015271696e636f7272656374206c6576657261676560701b604082015260600190565b6020808252818101527f4f776e61626c653a2063616c6c6572206973206e6f7420746865206f776e6572604082015260600190565b6040518181016001600160401b038111828210171562000b2957600080fd5b604052919050565b6001600160a01b038116811462000b4757600080fd5b50565b60805160601c60a05160801c60c05160601c60e0516101005160f81c6101205160f81c6101405160c01c6101605160601c6101805160601c6101a05160601c6101c0516101e05160801c6102005160801c6102205160f81c6133e062000c4e60003980610da152806113095250806105345280610d59528061132a52806113d852806118ad5250806104fb5280610c485280611842528061188c525080610c245250806116b752806117565250806112da525080611447528061160a525080610d355280611b3d528061222a52806125bf5280612697525080610c005280611a74525050806110cd525080611a1652508061094a52806119325250506133e06000f3fe608060405234801561001057600080fd5b50600436106102485760003560e01c806378025ec41161013b578063b7bc347e116100b8578063db69a4621161007c578063db69a462146104b9578063f2db10fe146104c1578063f2fde38b146104c9578063f7e9dfff146104dc578063fd5e6dd1146104e457610248565b8063b7bc347e14610463578063c623674f1461046b578063c8b5c24814610480578063cbe230c314610493578063d7a5c422146104a657610248565b80639b19251a116100ff5780639b19251a146104255780639fabeb0014610438578063a224ee9c14610440578063a7e8d8d414610448578063b1659bad1461045b57610248565b806378025ec4146103e75780637fd788aa146103fa5780638d21c770146104025780638da5cb5b1461041557806396f76f111461041d57610248565b806346e0fbae116101c95780635ae698ff1161018d5780635ae698ff1461039e5780635c1c20de146103b15780635e5f2e26146103b9578063639b6fc3146103cc578063715018a6146103df57610248565b806346e0fbae14610322578063484fbf2b146103375780634e0c91f61461034a5780634fb2647e1461036a57806357ac94f01461037d57610248565b80632526743a116102105780632526743a146102bb57806326db18ac146102d05780632c86d98e146102e35780633385d334146102f85780634190edde1461030057610248565b8063021eef7f1461024d5780630bea440d14610276578063171e44ea1461028b57806318e454271461029e5780631bf30929146102a6575b600080fd5b61026061025b366004612b13565b6104f7565b60405161026d9190612da2565b60405180910390f35b610289610284366004612b43565b610574565b005b6102896102993660046128fb565b610726565b610260610bfe565b6102ae610c22565b60405161026d9190612dad565b6102c3610c46565b60405161026d9190613287565b6102896102de366004612b43565b610c6a565b6102eb610d33565b60405161026d919061330d565b6102c3610d57565b61031361030e366004612b13565b610d7b565b60405161026d939291906132b2565b61032a610d9f565b60405161026d9190612db6565b6102ae6103453660046128fb565b610dc3565b61035d6103583660046128fb565b610dd5565b60405161026d9190612d51565b61035d6103783660046128fb565b610df0565b61039061038b366004612933565b610e0b565b60405161026d929190612d65565b6102896103ac3660046129c9565b610fe7565b6102ae6110cb565b61035d6103c7366004612b13565b6110ef565b6102ae6103da3660046128fb565b611116565b610289611128565b6102ae6103f5366004612b13565b6111b1565b6102606111cf565b61028961041036600461295e565b6111d8565b61035d6112c6565b6102606112d5565b6102606104333660046128fb565b61142a565b6102ae61143f565b61035d611445565b6102606104563660046128fb565b611469565b6102ae61147e565b6102ae611484565b61047361148a565b60405161026d9190612df0565b61028961048e366004612b43565b611518565b6102606104a13660046128fb565b6115a4565b6102896104b4366004612b99565b6115ff565b61035d611921565b6102c3611930565b6102896104d73660046128fb565b611954565b61035d611a14565b61035d6104f2366004612b13565b611a38565b60007f00000000000000000000000000000000000000000000000000000000000000006001600160801b03168210156105325750600061056f565b7f00000000000000000000000000000000000000000000000000000000000000006001600160801b031682111561056b5750600061056f565b5060015b919050565b816000811161059e5760405162461bcd60e51b8152600401610595906131e7565b60405180910390fd5b60006105a86112d5565b905080156105c85760405162461bcd60e51b81526004016105959061312e565b6105d28484611a45565b336001600160a01b0316600e54846001600160a01b03167f1bd1eb6b4fd3f08e718d7a241c54c4641c9f36004b6949383f48d15a2fcc8f52876040516106189190612dad565b60405180910390a4600b5460408051636830483560e01b815290516000926001600160a01b0316916368304835916004808301926020929190829003018186803b15801561066557600080fd5b505afa158015610679573d6000803e3d6000fd5b505050506040513d601f19601f8201168201806040525081019061069d9190612917565b604051635948284760e11b81529091506001600160a01b0382169063b290508e906106cc903390600401612d51565b602060405180830381600087803b1580156106e657600080fd5b505af11580156106fa573d6000803e3d6000fd5b505050506040513d601f19601f8201168201806040525081019061071e9190612a68565b505050505050565b61072e611fa7565b6001600160a01b031661073f6112c6565b6001600160a01b0316146107655760405162461bcd60e51b8152600401610595906130a7565b60015460408051637b8041cf60e11b815290516000926001600160a01b03169163f700839e91600480830192610100929190829003018186803b1580156107ab57600080fd5b505afa1580156107bf573d6000803e3d6000fd5b505050506040513d601f19601f820116820180604052508101906107e39190612bdd565b5096505050505050506107f5826115a4565b156108125760405162461bcd60e51b815260040161059590613010565b60015460405163cbe230c360e01b81526001600160a01b039091169063cbe230c390610842908590600401612d51565b60206040518083038186803b15801561085a57600080fd5b505afa15801561086e573d6000803e3d6000fd5b505050506040513d601f19601f820116820180604052508101906108929190612a68565b6108ae5760405162461bcd60e51b815260040161059590612efa565b6008805460018101825560008290527ff3f7a9fe364faab93b216da50a3214154f22a0a2b415b23a84c8169e8b636ee30180546001600160a01b0319166001600160a01b038516179055548110156109185760405162461bcd60e51b8152600401610595906130dc565b60405163fc966d4560e01b815260609073__StringUtils___________________________9063fc966d4590610972907f000000000000000000000000000000000000000000000000000000000000000090600401613287565b60006040518083038186803b15801561098a57600080fd5b505af415801561099e573d6000803e3d6000fd5b505050506040513d6000823e601f3d908101601f191682016040526109c69190810190612a88565b90506060816040516020016109db9190612c99565b60405160208183030381529060405290506060826040516020016109ff9190612ccc565b6040516020818303038152906040529050606083604051602001610a239190612cfc565b6040516020818303038152906040529050606084604051602001610a479190612d2e565b60408051601f1981840301815290829052600154633350214760e11b83529092506000916001600160a01b03909116906366a0428e90610a8d9088908890600401612e03565b602060405180830381600087803b158015610aa757600080fd5b505af1158015610abb573d6000803e3d6000fd5b505050506040513d601f19601f82011682018060405250810190610adf9190612917565b600154604051633350214760e11b81529192506000916001600160a01b03909116906366a0428e90610b179087908790600401612e03565b602060405180830381600087803b158015610b3157600080fd5b505af1158015610b45573d6000803e3d6000fd5b505050506040513d601f19601f82011682018060405250810190610b699190612917565b6001600160a01b03808b16600081815260056020908152604080832080548688166001600160a01b0319918216811790925560049093529281902080549589169590921685179091555193945091927fce8c390dc55dbcd418078f1391fbb7d471c01c228fc4464926095354cb27c02990610beb90899081908d908190612e31565b60405180910390a4505050505050505050565b7f000000000000000000000000000000000000000000000000000000000000000081565b7f000000000000000000000000000000000000000000000000000000000000000081565b7f000000000000000000000000000000000000000000000000000000000000000081565b8160008111610c8b5760405162461bcd60e51b8152600401610595906131e7565b610c936112c6565b6001600160a01b0316336001600160a01b031614610cd6576000610cb56112d5565b905080610cd45760405162461bcd60e51b815260040161059590613037565b505b336001600160a01b0316600e54836001600160a01b03167f5d73c1b3aab5bae46e08e09668d192166389623bef76bbe8cdae8df8ad320fce86604051610d1c9190612dad565b60405180910390a4610d2e8383611fab565b505050565b7f000000000000000000000000000000000000000000000000000000000000000081565b7f000000000000000000000000000000000000000000000000000000000000000081565b600f6020526000908152604090208054600182015460029092015490919060ff1683565b7f000000000000000000000000000000000000000000000000000000000000000081565b60036020526000908152604090205481565b6004602052600090815260409020546001600160a01b031681565b6005602052600090815260409020546001600160a01b031681565b600080600060088481548110610e1d57fe5b6000918252602090912001546001600160a01b03169050610e3c6112c6565b6001600160a01b0316856001600160a01b03161415610e78576001600160a01b0381166000908152600260205260409020549092509050610fe0565b6001600160a01b0380821660009081526004602081815260408084205481516318160ddd60e01b8152915195169485936318160ddd938382019390929190829003018186803b158015610eca57600080fd5b505afa158015610ede573d6000803e3d6000fd5b505050506040513d601f19601f82011682018060405250810190610f029190612b2b565b905080610f18575090925060009150610fe09050565b6040516370a0823160e01b81526000906001600160a01b038416906370a0823190610f47908b90600401612d51565b60206040518083038186803b158015610f5f57600080fd5b505afa158015610f73573d6000803e3d6000fd5b505050506040513d601f19601f82011682018060405250810190610f979190612b2b565b6001600160a01b0385166000908152600360205260409020549091508490610fd7908490610fcb908563ffffffff61215216565b9063ffffffff61219516565b95509550505050505b9250929050565b610fef611fa7565b6001600160a01b03166110006112c6565b6001600160a01b0316146110265760405162461bcd60e51b8152600401610595906130a7565b60005b81518110156110c7576009600083838151811061104257fe5b6020908102919091018101516001600160a01b031682528101919091526040016000205460ff166110bf5760016009600084848151811061107f57fe5b60200260200101516001600160a01b03166001600160a01b0316815260200190815260200160002060006101000a81548160ff0219169083151502179055505b600101611029565b5050565b7f000000000000000000000000000000000000000000000000000000000000000081565b600881815481106110fc57fe5b6000918252602090912001546001600160a01b0316905081565b60026020526000908152604090205481565b611130611fa7565b6001600160a01b03166111416112c6565b6001600160a01b0316146111675760405162461bcd60e51b8152600401610595906130a7565b600080546040516001600160a01b03909116907f8be0079c531659141344cd1fd0a4f28419497f9722a3daafe3b4186f6b6457e0908390a3600080546001600160a01b0319169055565b600c81815481106111be57fe5b600091825260209091200154905081565b600d5460ff1690565b6111e0611fa7565b6001600160a01b03166111f16112c6565b6001600160a01b0316146112175760405162461bcd60e51b8152600401610595906130a7565b60005b81811015610d2e576009600084848481811061123257fe5b905060200201602081019061124791906128fb565b6001600160a01b0316815260208101919091526040016000205460ff161515600114156112be5760006009600085858581811061128057fe5b905060200201602081019061129591906128fb565b6001600160a01b031681526020810191909152604001600020805460ff19169115159190911790555b60010161121a565b6000546001600160a01b031690565b6000807f00000000000000000000000000000000000000000000000000000000000000006001600160a01b031663ffa612357f00000000000000000000000000000000000000000000000000000000000000007f00000000000000000000000000000000000000000000000000000000000000006040518363ffffffff1660e01b8152600401611366929190612dca565b604080518083038186803b15801561137d57600080fd5b505afa158015611391573d6000803e3d6000fd5b505050506040513d601f19601f820116820180604052508101906113b59190612bba565b600d5490925060ff161515600114905080611424575080421015801561142457507f00000000000000000000000000000000000000000000000000000000000000006001600160801b03166000908152600f6020526040812060029081015460ff169081111561142157fe5b14155b91505090565b60096020526000908152604090205460ff1681565b60065490565b7f000000000000000000000000000000000000000000000000000000000000000081565b60076020526000908152604090205460ff1681565b600e5481565b60085490565b600a805460408051602060026001851615610100026000190190941693909304601f810184900484028201840190925281815292918301828280156115105780601f106114e557610100808354040283529160200191611510565b820191906000526020600020905b8154815290600101906020018083116114f357829003601f168201915b505050505081565b81600081116115395760405162461bcd60e51b8152600401610595906131e7565b60006115436112d5565b9050336001600160a01b0316600e54846001600160a01b03167fbd9be3d6449ecbdf4b3b9980b1631ec06c13d8cf9e09e2433075f123b348e3ba8760405161158b9190612dad565b60405180910390a461159e8484836121c7565b50505050565b6000805b6008548110156115f657826001600160a01b0316600882815481106115c957fe5b6000918252602090912001546001600160a01b031614156115ee57600191505061056f565b6001016115a8565b50600092915050565b336001600160a01b037f000000000000000000000000000000000000000000000000000000000000000016146116475760405162461bcd60e51b815260040161059590613106565b7fc95987c1992805ee34bdc915e017cceae36ba1c156b9911fa7e691e6435eb46e42838360405161167a939291906132d8565b60405180910390a16001808201600e556000828152600f60205260408082209283018590554283555163a7b72ac560e01b81526001600160a01b037f0000000000000000000000000000000000000000000000000000000000000000169063a7b72ac5906116ec903090600401612d51565b604080518083038186803b15801561170357600080fd5b505afa158015611717573d6000803e3d6000fd5b505050506040513d601f19601f8201168201806040525081019061173b9190612b72565b50604051631993b9df60e01b81529091506001600160a01b037f00000000000000000000000000000000000000000000000000000000000000001690631993b9df9061178d908790309060040161329b565b60206040518083038186803b1580156117a557600080fd5b505afa1580156117b9573d6000803e3d6000fd5b505050506040513d601f19601f820116820180604052508101906117dd9190612a68565b156118f5576002828101805460ff191660011790556127109060009061182b9061180b90610fcb8987612401565b610fcb8461181f8a8863ffffffff61242616565b9063ffffffff61215216565b90506000611879600161186d886001600160801b037f00000000000000000000000000000000000000000000000000000000000000001663ffffffff61242616565b9063ffffffff61240116565b905060006118df6001600160801b0360017f00000000000000000000000000000000000000000000000000000000000000007f0000000000000000000000000000000000000000000000000000000000000000030116610fcb858563ffffffff61215216565b90506118ec87828661244e565b5050505061159e565b6002828101805460ff1916909117905561190e8361256d565b600d805460ff1916600117905550505050565b600b546001600160a01b031681565b7f000000000000000000000000000000000000000000000000000000000000000081565b61195c611fa7565b6001600160a01b031661196d6112c6565b6001600160a01b0316146119935760405162461bcd60e51b8152600401610595906130a7565b6001600160a01b0381166119b95760405162461bcd60e51b815260040161059590612e7d565b600080546040516001600160a01b03808516939216917f8be0079c531659141344cd1fd0a4f28419497f9722a3daafe3b4186f6b6457e091a3600080546001600160a01b0319166001600160a01b0392909216919091179055565b7f000000000000000000000000000000000000000000000000000000000000000081565b600681815481106110fc57fe5b80611a4f816115a4565b1515600114611a705760405162461bcd60e51b815260040161059590612f31565b60017f000000000000000000000000000000000000000000000000000000000000000015151415611acf573360009081526009602052604090205460ff161515600114611acf5760405162461bcd60e51b8152600401610595906131be565b611aea6001600160a01b03831633308663ffffffff6126d116565b611af26112c6565b6001600160a01b0316336001600160a01b031614611d61576001600160a01b03821660009081526002602090815260408083205460039092529091205481611b6d6001600160401b037f00000000000000000000000000000000000000000000000000000000000000001661181f848963ffffffff61240116565b1115611b8b5760405162461bcd60e51b815260040161059590613190565b6001600160a01b0380851660009081526004602081815260408084205481516318160ddd60e01b8152915195169485936318160ddd938382019390929190829003018186803b158015611bdd57600080fd5b505afa158015611bf1573d6000803e3d6000fd5b505050506040513d601f19601f82011682018060405250810190611c159190612b2b565b905080611c81576040516340c10f1960e01b81526001600160a01b038316906340c10f1990611c4a9033908b90600401612d65565b600060405180830381600087803b158015611c6457600080fd5b505af1158015611c78573d6000803e3d6000fd5b50505050611d15565b6001600160a01b03861660009081526003602052604081205490611caf82610fcb8b8663ffffffff61215216565b6040516340c10f1960e01b81529091506001600160a01b038516906340c10f1990611ce09033908590600401612d65565b600060405180830381600087803b158015611cfa57600080fd5b505af1158015611d0e573d6000803e3d6000fd5b5050505050505b6001600160a01b038616600090815260036020526040902054611d3e908863ffffffff61240116565b6001600160a01b03871660009081526003602052604090205550611f2f92505050565b6001600160a01b0380831660009081526005602090815260408083205481516318160ddd60e01b8152915194169384926318160ddd9260048082019391829003018186803b158015611db257600080fd5b505afa158015611dc6573d6000803e3d6000fd5b505050506040513d601f19601f82011682018060405250810190611dea9190612b2b565b905080611e56576040516340c10f1960e01b81526001600160a01b038316906340c10f1990611e1f9033908990600401612d65565b600060405180830381600087803b158015611e3957600080fd5b505af1158015611e4d573d6000803e3d6000fd5b50505050611eea565b6001600160a01b03841660009081526002602052604081205490611e8482610fcb898663ffffffff61215216565b6040516340c10f1960e01b81529091506001600160a01b038516906340c10f1990611eb59033908590600401612d65565b600060405180830381600087803b158015611ecf57600080fd5b505af1158015611ee3573d6000803e3d6000fd5b5050505050505b6001600160a01b038416600090815260026020526040902054611f13908663ffffffff61240116565b6001600160a01b03851660009081526002602052604090205550505b3360009081526007602052604090205460ff16610d2e57336000818152600760205260408120805460ff191660019081179091556006805491820181559091527ff652222313e28459528d920b65115c16c04f3efc82aaedc97be59f3f377c0d3f0180546001600160a01b0319169091179055505050565b3390565b80611fb5816115a4565b1515600114611fd65760405162461bcd60e51b815260040161059590612f31565b6001600160a01b0380831660009081526004602081815260408084205481516318160ddd60e01b8152915195169485936318160ddd938382019390929190829003018186803b15801561202857600080fd5b505afa15801561203c573d6000803e3d6000fd5b505050506040513d601f19601f820116820180604052508101906120609190612b2b565b6001600160a01b03851660009081526003602052604081205491925061209082610fcb898663ffffffff61215216565b60405163079cc67960e41b81529091506001600160a01b038516906379cc6790906120c19033908590600401612d65565b600060405180830381600087803b1580156120db57600080fd5b505af11580156120ef573d6000803e3d6000fd5b5050506001600160a01b03871660009081526003602052604090205461211c91508863ffffffff61242616565b6001600160a01b03871660008181526003602052604090209190915561214990338963ffffffff61272916565b50505050505050565b6000826121615750600061218f565b8282028284828161216e57fe5b041461218c5760405162461bcd60e51b815260040161059590613066565b90505b92915050565b60008082116121b65760405162461bcd60e51b815260040161059590612fd9565b8183816121bf57fe5b049392505050565b816121d1816115a4565b15156001146121f25760405162461bcd60e51b815260040161059590612f31565b6001600160a01b0383166000908152600260209081526040808320546003909252909120548361228357612255816001600160401b037f00000000000000000000000000000000000000000000000000000000000000001663ffffffff61215216565b612265838863ffffffff61242616565b10156122835760405162461bcd60e51b81526004016105959061325b565b6001600160a01b0380861660009081526005602090815260408083205481516318160ddd60e01b8152915194169384926318160ddd9260048082019391829003018186803b1580156122d457600080fd5b505afa1580156122e8573d6000803e3d6000fd5b505050506040513d601f19601f8201168201806040525081019061230c9190612b2b565b6001600160a01b03881660009081526002602052604081205491925061233c82610fcb8c8663ffffffff61215216565b60405163079cc67960e41b81529091506001600160a01b038516906379cc67909061236d9033908590600401612d65565b600060405180830381600087803b15801561238757600080fd5b505af115801561239b573d6000803e3d6000fd5b5050506001600160a01b038a166000908152600260205260409020546123c891508b63ffffffff61242616565b6001600160a01b038a166000818152600260205260409020919091556123f590338c63ffffffff61272916565b50505050505050505050565b60008282018381101561218c5760405162461bcd60e51b815260040161059590612ec3565b6000828211156124485760405162461bcd60e51b815260040161059590612f5c565b50900390565b60005b60085481101561159e5760006008828154811061246a57fe5b60009182526020808320909101546001600160a01b031680835260039091526040822054909250906124a685610fcb848963ffffffff61215216565b6001600160a01b0384166000908152600360205260409020549091506124d2908263ffffffff61242616565b6001600160a01b038416600090815260036020908152604080832093909355600290522054612507908263ffffffff61240116565b6001600160a01b0384166000818152600260205260409081902092909255905188907f3173c1c4b679e2da86dbb0382bde749a6e16cd31912c5410e17985cd7d2b90529061255a908a908a9087906132d8565b60405180910390a3505050600101612451565b60005b6008548110156110c75760006008828154811061258957fe5b60009182526020808320909101546001600160a01b031680835260039091526040822054909250906125ea826001600160401b037f00000000000000000000000000000000000000000000000000000000000000001663ffffffff61215216565b6001600160a01b038416600090815260026020526040902054909150612616908263ffffffff61242616565b6001600160a01b03841660009081526002602090815260408083209390935560039052205461264b908263ffffffff61240116565b6001600160a01b0384166000818152600360205260409081902092909255905186907f89385e9d619600da63726158403c0cfd9772b2cac90d3e093387a5456ee1a247906126be9086907f00000000000000000000000000000000000000000000000000000000000000009087906132ee565b60405180910390a3505050600101612570565b61159e846323b872dd60e01b8585856040516024016126f293929190612d7e565b60408051601f198184030181529190526020810180516001600160e01b03166001600160e01b031990931692909217909152612748565b610d2e8363a9059cbb60e01b84846040516024016126f2929190612d65565b606061279d826040518060400160405280602081526020017f5361666545524332303a206c6f772d6c6576656c2063616c6c206661696c6564815250856001600160a01b03166127d79092919063ffffffff16565b805190915015610d2e57808060200190518101906127bb9190612a68565b610d2e5760405162461bcd60e51b815260040161059590613211565b60606127e684846000856127f0565b90505b9392505050565b6060824710156128125760405162461bcd60e51b815260040161059590612f93565b61281b856128b1565b6128375760405162461bcd60e51b815260040161059590613159565b60006060866001600160a01b031685876040516128549190612c7d565b60006040518083038185875af1925050503d8060008114612891576040519150601f19603f3d011682016040523d82523d6000602084013e612896565b606091505b50915091506128a68282866128b7565b979650505050505050565b3b151590565b606083156128c65750816127e9565b8251156128d65782518084602001fd5b8160405162461bcd60e51b81526004016105959190612df0565b803561218f81613392565b60006020828403121561290c578081fd5b813561218c81613392565b600060208284031215612928578081fd5b815161218c81613392565b60008060408385031215612945578081fd5b823561295081613392565b946020939093013593505050565b60008060208385031215612970578182fd5b82356001600160401b0380821115612986578384fd5b81850186601f820112612997578485fd5b80359250818311156129a7578485fd5b86602080850283010111156129ba578485fd5b60200196919550909350505050565b600060208083850312156129db578182fd5b82356001600160401b038111156129f0578283fd5b80840185601f820112612a01578384fd5b80359150612a16612a1183613347565b613321565b8281528381019082850185850284018601891015612a32578687fd5b8693505b84841015612a5c57612a4889826128f0565b835260019390930192918501918501612a36565b50979650505050505050565b600060208284031215612a79578081fd5b8151801515811461218c578182fd5b600060208284031215612a99578081fd5b81516001600160401b0380821115612aaf578283fd5b81840185601f820112612ac0578384fd5b8051925081831115612ad0578384fd5b612ae3601f8401601f1916602001613321565b9150828252856020848301011115612af9578384fd5b612b0a836020840160208401613366565b50949350505050565b600060208284031215612b24578081fd5b5035919050565b600060208284031215612b3c578081fd5b5051919050565b60008060408385031215612b55578182fd5b823591506020830135612b6781613392565b809150509250929050565b60008060408385031215612b84578182fd5b82519150602083015160068110612b67578182fd5b60008060408385031215612bab578182fd5b50508035926020909101359150565b60008060408385031215612bcc578182fd5b505080516020909101519092909150565b600080600080600080600080610100898b031215612bf9578384fd5b885197506020890151965060408901519550606089015194506080890151935060a0890151925060c0890151915060e08901516001600160401b0381168114612c40578182fd5b809150509295985092959890939650565b60008151808452612c69816020860160208601613366565b601f01601f19169290920160200192915050565b60008251612c8f818460208701613366565b9190910192915050565b60006a44534c412d53484f52542d60a81b82528251612cbf81600b850160208701613366565b91909101600b0192915050565b60006744534c412d53502d60c01b82528251612cef816008850160208701613366565b9190910160080192915050565b60006944534c412d4c4f4e472d60b01b82528251612d2181600a850160208701613366565b91909101600a0192915050565b60006744534c412d4c502d60c01b82528251612cef816008850160208701613366565b6001600160a01b0391909116815260200190565b6001600160a01b03929092168252602082015260400190565b6001600160a01b039384168152919092166020820152604081019190915260600190565b901515815260200190565b90815260200190565b6020810160068310612dc457fe5b91905290565b6040810160068410612dd857fe5b9281526001600160801b039190911660209091015290565b6000602082526127e96020830184612c51565b600060408252612e166040830185612c51565b8281036020840152612e288185612c51565b95945050505050565b600060808252612e446080830187612c51565b8281036020840152612e568187612c51565b8381036040850152612e688187612c51565b91505082810360608401526128a68185612c51565b60208082526026908201527f4f776e61626c653a206e6577206f776e657220697320746865207a65726f206160408201526564647265737360d01b606082015260800190565b6020808252601b908201527f536166654d6174683a206164646974696f6e206f766572666c6f770000000000604082015260600190565b6020808252601a908201527f6e6f7420616c6c6f77656420627920534c415265676973747279000000000000604082015260600190565b6020808252601190820152701d1bdad95b881b9bdd08185b1b1bddd959607a1b604082015260600190565b6020808252601e908201527f536166654d6174683a207375627472616374696f6e206f766572666c6f770000604082015260600190565b60208082526026908201527f416464726573733a20696e73756666696369656e742062616c616e636520666f6040820152651c8818d85b1b60d21b606082015260800190565b6020808252601a908201527f536166654d6174683a206469766973696f6e206279207a65726f000000000000604082015260600190565b6020808252600d908201526c185b1c9958591e481859191959609a1b604082015260600190565b6020808252601590820152741b9bdd08199a5b9a5cda19590818dbdb9d1c9858dd605a1b604082015260600190565b60208082526021908201527f536166654d6174683a206d756c7469706c69636174696f6e206f766572666c6f6040820152607760f81b606082015260800190565b6020808252818101527f4f776e61626c653a2063616c6c6572206973206e6f7420746865206f776e6572604082015260600190565b60208082526010908201526f0dac2f040e8ded6cadc40d8cadccee8d60831b604082015260600190565b6020808252600e908201526d37b7363c9036b2b9b9b2b733b2b960911b604082015260600190565b602080825260119082015270199a5b9a5cda19590818dbdb9d1c9858dd607a1b604082015260600190565b6020808252601d908201527f416464726573733a2063616c6c20746f206e6f6e2d636f6e7472616374000000604082015260600190565b602080825260149082015273696e636f72726563742075736572207374616b6560601b604082015260600190565b6020808252600f908201526e1b9bdd081dda1a5d195b1a5cdd1959608a1b604082015260600190565b60208082526010908201526f0616d6f756e742063616e7420626520360841b604082015260600190565b6020808252602a908201527f5361666545524332303a204552433230206f7065726174696f6e20646964206e6040820152691bdd081cdd58d8d9595960b21b606082015260800190565b602080825260129082015271696e636f727265637420776974686472617760701b604082015260600190565b6001600160801b0391909116815260200190565b9182526001600160a01b0316602082015260400190565b8381526020810183905260608101600383106132ca57fe5b826040830152949350505050565b9283526020830191909152604082015260600190565b9283526001600160401b03919091166020830152604082015260600190565b6001600160401b0391909116815260200190565b6040518181016001600160401b038111828210171561333f57600080fd5b604052919050565b60006001600160401b0382111561335c578081fd5b5060209081020190565b60005b83811015613381578181015183820152602001613369565b8381111561159e5750506000910152565b6001600160a01b03811681146133a757600080fd5b5056fea2646970667358221220fe3df4bc3d15009309fe4478894748e170d996b92d6e5d3e30355d735dab9a1564736f6c634300060600338be0079c531659141344cd1fd0a4f28419497f9722a3daafe3b4186f6b6457e0a26469706673582212203c1efcea9b130eaec964b617f78ec6da5803c7fcf65b5d04cd53ec313098db1a64736f6c63430006060033",
  "immutableReferences": {
    "9471": [
      {
        "length": 32,
        "start": 1064
      },
      {
        "length": 32,
        "start": 5232
      }
    ]
  },
  "source": "// SPDX-License-Identifier: MIT\npragma solidity 0.6.6;\npragma experimental ABIEncoderV2;\n\nimport \"@openzeppelin/contracts/math/SafeMath.sol\";\nimport \"./SLA.sol\";\nimport \"./SLORegistry.sol\";\nimport \"./PeriodRegistry.sol\";\nimport \"./MessengerRegistry.sol\";\nimport \"./StakeRegistry.sol\";\nimport \"./messenger/IMessenger.sol\";\n\n/**\n * @title SLARegistry\n * @dev SLARegistry is a contract for handling creation of service level\n * agreements and keeping track of the created agreements\n */\ncontract SLARegistry {\n    using SafeMath for uint256;\n\n    /// @dev SLO registry\n    SLORegistry public sloRegistry;\n    /// @dev Periods registry\n    PeriodRegistry public periodRegistry;\n    /// @dev Messengers registry\n    MessengerRegistry public messengerRegistry;\n    /// @dev Stake registry\n    StakeRegistry public stakeRegistry;\n    /// @dev stores the addresses of created SLAs\n    SLA[] public SLAs;\n    /// @dev stores the indexes of service level agreements owned by an user\n    mapping(address => uint256[]) private userToSLAIndexes;\n    /// @dev to check if registered SLA\n    mapping(address => bool) private registeredSLAs;\n    // value to lock past periods on SLA deployment\n    bool public immutable checkPastPeriod;\n\n    /**\n     * @dev event for service level agreement creation logging\n     * @param sla 1. The address of the created service level agreement contract\n     * @param owner 2. The address of the owner of the service level agreement\n     */\n    event SLACreated(SLA indexed sla, address indexed owner);\n\n    /**\n     * @dev event for service level agreement creation logging\n     * @param periodId 1. -\n     * @param sla 2. -\n     * @param caller 3. -\n     */\n    event SLIRequested(\n        uint256 periodId,\n        address indexed sla,\n        address indexed caller\n    );\n\n    /**\n     * @dev event for service level agreement creation logging\n     * @param sla 1. -\n     * @param caller 2. -\n     */\n    event ReturnLockedValue(address indexed sla, address indexed caller);\n\n    /**\n     * @dev constructor\n     * @param _sloRegistry 1. SLO Registry\n     * @param _periodRegistry 2. Periods registry\n     * @param _messengerRegistry 3. Messenger registry\n     * @param _stakeRegistry 4. Stake registry\n     * @param _checkPastPeriod 5. -\n     */\n    constructor(\n        SLORegistry _sloRegistry,\n        PeriodRegistry _periodRegistry,\n        MessengerRegistry _messengerRegistry,\n        StakeRegistry _stakeRegistry,\n        bool _checkPastPeriod\n    ) public {\n        sloRegistry = _sloRegistry;\n        sloRegistry.setSLARegistry();\n        periodRegistry = _periodRegistry;\n        stakeRegistry = _stakeRegistry;\n        stakeRegistry.setSLARegistry();\n        messengerRegistry = _messengerRegistry;\n        messengerRegistry.setSLARegistry();\n        checkPastPeriod = _checkPastPeriod;\n    }\n\n    /**\n     * @dev public function for creating canonical service level agreements\n     * @param _sloValue 1. -\n     * @param _sloType 2. -\n     * @param _ipfsHash 3. -\n     * @param _periodType 4. -\n     * @param _initialPeriodId 5. -\n     * @param _finalPeriodId 6. -\n     * @param _messengerAddress 7. -\n     * @param _whitelisted 8. -\n     * @param _extraData 9. -\n     * @param _leverage 10. -\n     */\n    function createSLA(\n        uint256 _sloValue,\n        SLORegistry.SLOType _sloType,\n        bool _whitelisted,\n        address _messengerAddress,\n        PeriodRegistry.PeriodType _periodType,\n        uint128 _initialPeriodId,\n        uint128 _finalPeriodId,\n        string memory _ipfsHash,\n        bytes32[] memory _extraData,\n        uint64 _leverage\n    ) public {\n        bool validPeriod =\n            periodRegistry.isValidPeriod(_periodType, _initialPeriodId);\n        require(validPeriod, \"first period id invalid\");\n        validPeriod = periodRegistry.isValidPeriod(_periodType, _finalPeriodId);\n        require(validPeriod, \"final period id invalid\");\n        bool initializedPeriod =\n            periodRegistry.isInitializedPeriod(_periodType);\n        require(initializedPeriod, \"period type not initialized\");\n        require(\n            _finalPeriodId >= _initialPeriodId,\n            \"invalid finalPeriodId/initialPeriodId\"\n        );\n\n        if (checkPastPeriod) {\n            bool periodHasStarted =\n                periodRegistry.periodHasStarted(_periodType, _initialPeriodId);\n            require(!periodHasStarted, \"past period\");\n        }\n        bool registeredMessenger =\n            messengerRegistry.registeredMessengers(_messengerAddress);\n        require(registeredMessenger == true, \"messenger not registered\");\n\n        SLA sla =\n            new SLA(\n                msg.sender,\n                _whitelisted,\n                _periodType,\n                _messengerAddress,\n                _initialPeriodId,\n                _finalPeriodId,\n                uint128(SLAs.length),\n                _ipfsHash,\n                _extraData,\n                _leverage\n            );\n\n        sloRegistry.registerSLO(_sloValue, _sloType, address(sla));\n        stakeRegistry.lockDSLAValue(\n            msg.sender,\n            address(sla),\n            _finalPeriodId - _initialPeriodId + 1\n        );\n        SLAs.push(sla);\n        registeredSLAs[address(sla)] = true;\n        uint256 index = SLAs.length.sub(1);\n        userToSLAIndexes[msg.sender].push(index);\n        emit SLACreated(sla, msg.sender);\n    }\n\n    /**\n     * @dev Gets SLI information for the specified SLA and SLO\n     * @param _periodId 1. id of the period\n     * @param _sla 2. SLA Address\n     * @param _ownerApproval 3. if approval by owner or msg.sender\n     */\n    function requestSLI(\n        uint256 _periodId,\n        SLA _sla,\n        bool _ownerApproval\n    ) public {\n        require(isRegisteredSLA(address(_sla)), \"invalid SLA\");\n        require(_periodId == _sla.nextVerifiablePeriod(), \"not nextVerifiablePeriod\");\n        (, , SLA.Status status) = _sla.periodSLIs(_periodId);\n        require(status == SLA.Status.NotVerified, \"invalid SLA status\");\n        bool breachedContract = _sla.breachedContract();\n        require(!breachedContract, \"breached contract\");\n        bool slaAllowedPeriodId = _sla.isAllowedPeriod(_periodId);\n        require(slaAllowedPeriodId, \"invalid period Id\");\n        PeriodRegistry.PeriodType slaPeriodType = _sla.periodType();\n        bool periodFinished =\n            periodRegistry.periodIsFinished(slaPeriodType, _periodId);\n        require(periodFinished, \"period unfinished\");\n        address slaMessenger = _sla.messengerAddress();\n        SLIRequested(_periodId, address(_sla), msg.sender);\n        IMessenger(slaMessenger).requestSLI(\n            _periodId,\n            address(_sla),\n            _ownerApproval,\n            msg.sender\n        );\n        stakeRegistry.distributeVerificationRewards(\n            address(_sla),\n            msg.sender,\n            _periodId\n        );\n    }\n\n    function returnLockedValue(SLA _sla) public {\n        require(isRegisteredSLA(address(_sla)), \"invalid SLA\");\n        require(msg.sender == _sla.owner(), \"msg.sender not owner\");\n        uint256 lastValidPeriodId = _sla.finalPeriodId();\n        PeriodRegistry.PeriodType periodType = _sla.periodType();\n        (, uint256 endOfLastValidPeriod) =\n            periodRegistry.getPeriodStartAndEnd(periodType, lastValidPeriodId);\n\n        (, , SLA.Status lastPeriodStatus) = _sla.periodSLIs(lastValidPeriodId);\n        require(\n            _sla.breachedContract() ||\n                (block.timestamp >= endOfLastValidPeriod &&\n                    lastPeriodStatus != SLA.Status.NotVerified),\n            \"not finished contract\"\n        );\n        ReturnLockedValue(address(_sla), msg.sender);\n        stakeRegistry.returnLockedValue(address(_sla));\n    }\n\n    /**\n     * @dev function to declare this SLARegistry contract as SLARegistry of _messengerAddress\n     * @param _messengerAddress 1. address of the messenger\n     */\n\n    function registerMessenger(\n        address _messengerAddress,\n        string memory _specificationUrl\n    ) public {\n        IMessenger(_messengerAddress).setSLARegistry();\n        messengerRegistry.registerMessenger(\n            msg.sender,\n            _messengerAddress,\n            _specificationUrl\n        );\n    }\n\n    /**\n     * @dev public view function that returns the service level agreements that\n     * the given user is the owner of\n     * @param _user Address of the user for which to return the service level\n     * agreements\n     * @return array of SLAs\n     */\n    function userSLAs(address _user) public view returns (SLA[] memory) {\n        uint256 count = userToSLAIndexes[_user].length;\n        SLA[] memory SLAList = new SLA[](count);\n        uint256[] memory userSLAIndexes = userToSLAIndexes[_user];\n\n        for (uint256 i = 0; i < count; i++) {\n            SLAList[i] = (SLAs[userSLAIndexes[i]]);\n        }\n\n        return (SLAList);\n    }\n\n    /**\n     * @dev public view function that returns all the service level agreements\n     * @return SLA[] array of SLAs\n     */\n    function allSLAs() public view returns (SLA[] memory) {\n        return (SLAs);\n    }\n\n    /**\n     * @dev public view function that returns true if _slaAddress was deployed using this SLARegistry\n     * @param _slaAddress address of the SLA to be checked\n     */\n    function isRegisteredSLA(address _slaAddress) public view returns (bool) {\n        return registeredSLAs[_slaAddress];\n    }\n}\n",
  "sourcePath": "@stacktical/dsla-protocol/contracts/SLARegistry.sol",
  "compiler": {
    "name": "solc",
    "version": "0.6.6+commit.6c089d02.Emscripten.clang"
  },
  "schemaVersion": "3.3.4",
  "updatedAt": "2021-05-08T01:00:15.225Z",
  "networkType": "ethereum",
  "devdoc": {
    "details": "SLARegistry is a contract for handling creation of service level agreements and keeping track of the created agreements",
    "methods": {
      "allSLAs()": {
        "details": "public view function that returns all the service level agreements",
        "returns": {
          "_0": "SLA[] array of SLAs"
        }
      },
      "constructor": {
        "details": "constructor",
        "params": {
          "_checkPastPeriod": "5. -",
          "_messengerRegistry": "3. Messenger registry",
          "_periodRegistry": "2. Periods registry",
          "_sloRegistry": "1. SLO Registry",
          "_stakeRegistry": "4. Stake registry"
        }
      },
      "createSLA(uint256,uint8,bool,address,uint8,uint128,uint128,string,bytes32[],uint64)": {
        "details": "public function for creating canonical service level agreements",
        "params": {
          "_extraData": "9. -",
          "_finalPeriodId": "6. -",
          "_initialPeriodId": "5. -",
          "_ipfsHash": "3. -",
          "_leverage": "10. -",
          "_messengerAddress": "7. -",
          "_periodType": "4. -",
          "_sloType": "2. -",
          "_sloValue": "1. -",
          "_whitelisted": "8. -"
        }
      },
      "isRegisteredSLA(address)": {
        "details": "public view function that returns true if _slaAddress was deployed using this SLARegistry",
        "params": {
          "_slaAddress": "address of the SLA to be checked"
        }
      },
      "registerMessenger(address,string)": {
        "details": "function to declare this SLARegistry contract as SLARegistry of _messengerAddress",
        "params": {
          "_messengerAddress": "1. address of the messenger"
        }
      },
      "requestSLI(uint256,address,bool)": {
        "details": "Gets SLI information for the specified SLA and SLO",
        "params": {
          "_ownerApproval": "3. if approval by owner or msg.sender",
          "_periodId": "1. id of the period",
          "_sla": "2. SLA Address"
        }
      },
      "userSLAs(address)": {
        "details": "public view function that returns the service level agreements that the given user is the owner of",
        "params": {
          "_user": "Address of the user for which to return the service level agreements"
        },
        "returns": {
          "_0": "array of SLAs"
        }
      }
    },
    "title": "SLARegistry"
  },
  "userdoc": {
    "methods": {}
  }
}