{
  "contractName": "SLARegistry",
  "abi": [
    {
      "inputs": [
        {
          "internalType": "contract SLORegistry",
          "name": "_sloRegistry",
          "type": "address"
        },
        {
          "internalType": "contract PeriodRegistry",
          "name": "_periodRegistry",
          "type": "address"
        },
        {
          "internalType": "contract MessengerRegistry",
          "name": "_messengerRegistry",
          "type": "address"
        },
        {
          "internalType": "contract StakeRegistry",
          "name": "_stakeRegistry",
          "type": "address"
        },
        {
          "internalType": "bool",
          "name": "_checkPastPeriod",
          "type": "bool"
        }
      ],
      "stateMutability": "nonpayable",
      "type": "constructor"
    },
    {
      "anonymous": false,
      "inputs": [
        {
          "indexed": true,
          "internalType": "address",
          "name": "sla",
          "type": "address"
        },
        {
          "indexed": true,
          "internalType": "address",
          "name": "caller",
          "type": "address"
        }
      ],
      "name": "ReturnLockedValue",
      "type": "event"
    },
    {
      "anonymous": false,
      "inputs": [
        {
          "indexed": true,
          "internalType": "contract SLA",
          "name": "sla",
          "type": "address"
        },
        {
          "indexed": true,
          "internalType": "address",
          "name": "owner",
          "type": "address"
        }
      ],
      "name": "SLACreated",
      "type": "event"
    },
    {
      "anonymous": false,
      "inputs": [
        {
          "indexed": false,
          "internalType": "uint256",
          "name": "periodId",
          "type": "uint256"
        },
        {
          "indexed": true,
          "internalType": "address",
          "name": "sla",
          "type": "address"
        },
        {
          "indexed": true,
          "internalType": "address",
          "name": "caller",
          "type": "address"
        }
      ],
      "name": "SLIRequested",
      "type": "event"
    },
    {
      "inputs": [
        {
          "internalType": "uint256",
          "name": "",
          "type": "uint256"
        }
      ],
      "name": "SLAs",
      "outputs": [
        {
          "internalType": "contract SLA",
          "name": "",
          "type": "address"
        }
      ],
      "stateMutability": "view",
      "type": "function"
    },
    {
      "inputs": [],
      "name": "checkPastPeriod",
      "outputs": [
        {
          "internalType": "bool",
          "name": "",
          "type": "bool"
        }
      ],
      "stateMutability": "view",
      "type": "function"
    },
    {
      "inputs": [],
      "name": "messengerRegistry",
      "outputs": [
        {
          "internalType": "contract MessengerRegistry",
          "name": "",
          "type": "address"
        }
      ],
      "stateMutability": "view",
      "type": "function"
    },
    {
      "inputs": [],
      "name": "periodRegistry",
      "outputs": [
        {
          "internalType": "contract PeriodRegistry",
          "name": "",
          "type": "address"
        }
      ],
      "stateMutability": "view",
      "type": "function"
    },
    {
      "inputs": [],
      "name": "sloRegistry",
      "outputs": [
        {
          "internalType": "contract SLORegistry",
          "name": "",
          "type": "address"
        }
      ],
      "stateMutability": "view",
      "type": "function"
    },
    {
      "inputs": [],
      "name": "stakeRegistry",
      "outputs": [
        {
          "internalType": "contract StakeRegistry",
          "name": "",
          "type": "address"
        }
      ],
      "stateMutability": "view",
      "type": "function"
    },
    {
      "inputs": [
        {
          "internalType": "uint256",
          "name": "_sloValue",
          "type": "uint256"
        },
        {
          "internalType": "enum SLORegistry.SLOType",
          "name": "_sloType",
          "type": "uint8"
        },
        {
          "internalType": "bool",
          "name": "_whitelisted",
          "type": "bool"
        },
        {
          "internalType": "address",
          "name": "_messengerAddress",
          "type": "address"
        },
        {
          "internalType": "enum PeriodRegistry.PeriodType",
          "name": "_periodType",
          "type": "uint8"
        },
        {
          "internalType": "uint128",
          "name": "_initialPeriodId",
          "type": "uint128"
        },
        {
          "internalType": "uint128",
          "name": "_finalPeriodId",
          "type": "uint128"
        },
        {
          "internalType": "string",
          "name": "_ipfsHash",
          "type": "string"
        },
        {
          "internalType": "bytes32[]",
          "name": "_extraData",
          "type": "bytes32[]"
        },
        {
          "internalType": "uint64",
          "name": "_leverage",
          "type": "uint64"
        }
      ],
      "name": "createSLA",
      "outputs": [],
      "stateMutability": "nonpayable",
      "type": "function"
    },
    {
      "inputs": [
        {
          "internalType": "uint256",
          "name": "_periodId",
          "type": "uint256"
        },
        {
          "internalType": "contract SLA",
          "name": "_sla",
          "type": "address"
        },
        {
          "internalType": "bool",
          "name": "_ownerApproval",
          "type": "bool"
        }
      ],
      "name": "requestSLI",
      "outputs": [],
      "stateMutability": "nonpayable",
      "type": "function"
    },
    {
      "inputs": [
        {
          "internalType": "contract SLA",
          "name": "_sla",
          "type": "address"
        }
      ],
      "name": "returnLockedValue",
      "outputs": [],
      "stateMutability": "nonpayable",
      "type": "function"
    },
    {
      "inputs": [
        {
          "internalType": "address",
          "name": "_messengerAddress",
          "type": "address"
        },
        {
          "internalType": "string",
          "name": "_specificationUrl",
          "type": "string"
        }
      ],
      "name": "registerMessenger",
      "outputs": [],
      "stateMutability": "nonpayable",
      "type": "function"
    },
    {
      "inputs": [
        {
          "internalType": "address",
          "name": "_user",
          "type": "address"
        }
      ],
      "name": "userSLAs",
      "outputs": [
        {
          "internalType": "contract SLA[]",
          "name": "",
          "type": "address[]"
        }
      ],
      "stateMutability": "view",
      "type": "function"
    },
    {
      "inputs": [],
      "name": "allSLAs",
      "outputs": [
        {
          "internalType": "contract SLA[]",
          "name": "",
          "type": "address[]"
        }
      ],
      "stateMutability": "view",
      "type": "function"
    },
    {
      "inputs": [
        {
          "internalType": "address",
          "name": "_slaAddress",
          "type": "address"
        }
      ],
      "name": "isRegisteredSLA",
      "outputs": [
        {
          "internalType": "bool",
          "name": "",
          "type": "bool"
        }
      ],
      "stateMutability": "view",
      "type": "function"
    }
  ],
  "bytecode": "0x60a06040523480156200001157600080fd5b506040516200a6e03803806200a6e0833981810160405281019062000037919062000352565b846000806101000a81548173ffffffffffffffffffffffffffffffffffffffff021916908373ffffffffffffffffffffffffffffffffffffffff1602179055506000809054906101000a900473ffffffffffffffffffffffffffffffffffffffff1673ffffffffffffffffffffffffffffffffffffffff1663f38815896040518163ffffffff1660e01b8152600401600060405180830381600087803b158015620000e157600080fd5b505af1158015620000f6573d6000803e3d6000fd5b5050505083600160006101000a81548173ffffffffffffffffffffffffffffffffffffffff021916908373ffffffffffffffffffffffffffffffffffffffff16021790555081600360006101000a81548173ffffffffffffffffffffffffffffffffffffffff021916908373ffffffffffffffffffffffffffffffffffffffff160217905550600360009054906101000a900473ffffffffffffffffffffffffffffffffffffffff1673ffffffffffffffffffffffffffffffffffffffff1663f38815896040518163ffffffff1660e01b8152600401600060405180830381600087803b158015620001e757600080fd5b505af1158015620001fc573d6000803e3d6000fd5b5050505082600260006101000a81548173ffffffffffffffffffffffffffffffffffffffff021916908373ffffffffffffffffffffffffffffffffffffffff160217905550600260009054906101000a900473ffffffffffffffffffffffffffffffffffffffff1673ffffffffffffffffffffffffffffffffffffffff1663f38815896040518163ffffffff1660e01b8152600401600060405180830381600087803b158015620002ac57600080fd5b505af1158015620002c1573d6000803e3d6000fd5b50505050801515608081151560f81b815250505050505050620004e6565b600081519050620002f08162000464565b92915050565b60008151905062000307816200047e565b92915050565b6000815190506200031e8162000498565b92915050565b6000815190506200033581620004b2565b92915050565b6000815190506200034c81620004cc565b92915050565b600080600080600060a086880312156200036b57600080fd5b60006200037b8882890162000324565b95505060206200038e888289016200030d565b9450506040620003a188828901620002f6565b9350506060620003b4888289016200033b565b9250506080620003c788828901620002df565b9150509295509295909350565b6000620003e18262000444565b9050919050565b60008115159050919050565b60006200040182620003d4565b9050919050565b60006200041582620003d4565b9050919050565b60006200042982620003d4565b9050919050565b60006200043d82620003d4565b9050919050565b600073ffffffffffffffffffffffffffffffffffffffff82169050919050565b6200046f81620003e8565b81146200047b57600080fd5b50565b6200048981620003f4565b81146200049557600080fd5b50565b620004a38162000408565b8114620004af57600080fd5b50565b620004bd816200041c565b8114620004c957600080fd5b50565b620004d78162000430565b8114620004e357600080fd5b50565b60805160f81c61a1d7620005096000398061062b5280611c7a525061a1d76000f3fe60806040523480156200001157600080fd5b5060043610620000e25760003560e01c806368304835116200009957806396bddc10116200006f57806396bddc1014620002395780639fc4caa5146200025b578063a9e43e7f146200027d578063c4277a7b146200029f57620000e2565b80636830483514620001d7578063788164b114620001f95780638d2113ed146200021957620000e2565b80630d0f4db714620000e75780632575d7ca146200010757806350c5abfe1462000127578063516c2857146200015d5780635a7d1e5d14620001935780635c4df33214620001b5575b600080fd5b620001056004803603810190620000ff9190620021a5565b620002d5565b005b6200012560048036038101906200011f919062002073565b62000b79565b005b6200014560048036038101906200013f9190620020f7565b6200110a565b60405162000154919062002bf5565b60405180910390f35b6200017b600480360381019062000175919062001f95565b62001147565b6040516200018a919062002b7a565b60405180910390f35b6200019d6200132e565b604051620001ac919062002c12565b60405180910390f35b620001bf62001353565b604051620001ce919062002bbb565b60405180910390f35b620001e162001379565b604051620001f0919062002c2f565b60405180910390f35b6200021760048036038101906200021191906200214f565b6200139f565b005b62000237600480360381019062000231919062001fed565b62001ac7565b005b6200024362001bc2565b60405162000252919062002b7a565b60405180910390f35b6200026562001c52565b60405162000274919062002bd8565b60405180910390f35b6200028762001c78565b60405162000296919062002b9e565b60405180910390f35b620002bd6004803603810190620002b7919062001f95565b62001c9c565b604051620002cc919062002b9e565b60405180910390f35b6000600160009054906101000a900473ffffffffffffffffffffffffffffffffffffffff1673ffffffffffffffffffffffffffffffffffffffff1663ddfc4fde88886040518363ffffffff1660e01b81526004016200033692919062002c69565b60206040518083038186803b1580156200034f57600080fd5b505afa15801562000364573d6000803e3d6000fd5b505050506040513d601f19601f820116820180604052508101906200038a919062002047565b905080620003cf576040517f08c379a0000000000000000000000000000000000000000000000000000000008152600401620003c69062002d4b565b60405180910390fd5b600160009054906101000a900473ffffffffffffffffffffffffffffffffffffffff1673ffffffffffffffffffffffffffffffffffffffff1663ddfc4fde88876040518363ffffffff1660e01b81526004016200042e92919062002c69565b60206040518083038186803b1580156200044757600080fd5b505afa1580156200045c573d6000803e3d6000fd5b505050506040513d601f19601f8201168201806040525081019062000482919062002047565b905080620004c7576040517f08c379a0000000000000000000000000000000000000000000000000000000008152600401620004be9062002d07565b60405180910390fd5b6000600160009054906101000a900473ffffffffffffffffffffffffffffffffffffffff1673ffffffffffffffffffffffffffffffffffffffff16638fdec1da896040518263ffffffff1660e01b815260040162000526919062002c4c565b60206040518083038186803b1580156200053f57600080fd5b505afa15801562000554573d6000803e3d6000fd5b505050506040513d601f19601f820116820180604052508101906200057a919062002047565b905080620005bf576040517f08c379a0000000000000000000000000000000000000000000000000000000008152600401620005b69062002cc3565b60405180910390fd5b866fffffffffffffffffffffffffffffffff16866fffffffffffffffffffffffffffffffff16101562000629576040517f08c379a0000000000000000000000000000000000000000000000000000000008152600401620006209062002ce5565b60405180910390fd5b7f0000000000000000000000000000000000000000000000000000000000000000156200074d576000600160009054906101000a900473ffffffffffffffffffffffffffffffffffffffff1673ffffffffffffffffffffffffffffffffffffffff16637a1d83bc8a8a6040518363ffffffff1660e01b8152600401620006b192919062002c69565b60206040518083038186803b158015620006ca57600080fd5b505afa158015620006df573d6000803e3d6000fd5b505050506040513d601f19601f8201168201806040525081019062000705919062002047565b905080156200074b576040517f08c379a0000000000000000000000000000000000000000000000000000000008152600401620007429062002dd3565b60405180910390fd5b505b6000600260009054906101000a900473ffffffffffffffffffffffffffffffffffffffff1673ffffffffffffffffffffffffffffffffffffffff1663ef4003db8b6040518263ffffffff1660e01b8152600401620007ac9190620029e1565b60206040518083038186803b158015620007c557600080fd5b505afa158015620007da573d6000803e3d6000fd5b505050506040513d601f19601f8201168201806040525081019062000800919062002047565b905060011515811515146200084c576040517f08c379a0000000000000000000000000000000000000000000000000000000008152600401620008439062002e17565b60405180910390fd5b6000338c8b8d8c8c6004805490508d8d8d6040516200086b9062001d45565b620008809a9998979695949392919062002a7f565b604051809103906000f0801580156200089d573d6000803e3d6000fd5b5090506000809054906101000a900473ffffffffffffffffffffffffffffffffffffffff1673ffffffffffffffffffffffffffffffffffffffff16630c7ad72b8f8f846040518463ffffffff1660e01b8152600401620009009392919062002f2b565b600060405180830381600087803b1580156200091b57600080fd5b505af115801562000930573d6000803e3d6000fd5b50505050600360009054906101000a900473ffffffffffffffffffffffffffffffffffffffff1673ffffffffffffffffffffffffffffffffffffffff16637afb4c0a338360018d8d03016040518463ffffffff1660e01b81526004016200099a9392919062002a42565b600060405180830381600087803b158015620009b557600080fd5b505af1158015620009ca573d6000803e3d6000fd5b505050506004819080600181540180825580915050600190039060005260206000200160009091909190916101000a81548173ffffffffffffffffffffffffffffffffffffffff021916908373ffffffffffffffffffffffffffffffffffffffff1602179055506001600660008373ffffffffffffffffffffffffffffffffffffffff1673ffffffffffffffffffffffffffffffffffffffff16815260200190815260200160002060006101000a81548160ff021916908315150217905550600062000aa6600160048054905062001cf290919063ffffffff16565b9050600560003373ffffffffffffffffffffffffffffffffffffffff1673ffffffffffffffffffffffffffffffffffffffff1681526020019081526020016000208190806001815401808255809150506001900390600052602060002001600090919091909150553373ffffffffffffffffffffffffffffffffffffffff168273ffffffffffffffffffffffffffffffffffffffff167fb52f284a6c14f1a66ab5513b5b539066933e58e69e6432666f0e3c8c8a7d750360405160405180910390a3505050505050505050505050505050565b62000b848162001c9c565b62000bc6576040517f08c379a000000000000000000000000000000000000000000000000000000000815260040162000bbd9062002db1565b60405180910390fd5b8073ffffffffffffffffffffffffffffffffffffffff16638da5cb5b6040518163ffffffff1660e01b815260040160206040518083038186803b15801562000c0d57600080fd5b505afa15801562000c22573d6000803e3d6000fd5b505050506040513d601f19601f8201168201806040525081019062000c48919062001fc1565b73ffffffffffffffffffffffffffffffffffffffff163373ffffffffffffffffffffffffffffffffffffffff161462000cb8576040517f08c379a000000000000000000000000000000000000000000000000000000000815260040162000caf9062002df5565b60405180910390fd5b60008173ffffffffffffffffffffffffffffffffffffffff16633385d3346040518163ffffffff1660e01b815260040160206040518083038186803b15801562000d0157600080fd5b505afa15801562000d16573d6000803e3d6000fd5b505050506040513d601f19601f8201168201806040525081019062000d3c9190620020cb565b6fffffffffffffffffffffffffffffffff16905060008273ffffffffffffffffffffffffffffffffffffffff166346e0fbae6040518163ffffffff1660e01b815260040160206040518083038186803b15801562000d9957600080fd5b505afa15801562000dae573d6000803e3d6000fd5b505050506040513d601f19601f8201168201806040525081019062000dd491906200209f565b90506000600160009054906101000a900473ffffffffffffffffffffffffffffffffffffffff1673ffffffffffffffffffffffffffffffffffffffff1663ffa6123583856040518363ffffffff1660e01b815260040162000e3792919062002c96565b604080518083038186803b15801562000e4f57600080fd5b505afa15801562000e64573d6000803e3d6000fd5b505050506040513d601f19601f8201168201806040525081019062000e8a9190620022c7565b91505060008473ffffffffffffffffffffffffffffffffffffffff16634190edde856040518263ffffffff1660e01b815260040162000eca919062002ec1565b60606040518083038186803b15801562000ee357600080fd5b505afa15801562000ef8573d6000803e3d6000fd5b505050506040513d601f19601f8201168201806040525081019062000f1e919062002308565b925050508473ffffffffffffffffffffffffffffffffffffffff16637fd788aa6040518163ffffffff1660e01b815260040160206040518083038186803b15801562000f6957600080fd5b505afa15801562000f7e573d6000803e3d6000fd5b505050506040513d601f19601f8201168201806040525081019062000fa4919062002047565b8062000fd6575081421015801562000fd557506000600281111562000fc557fe5b81600281111562000fd257fe5b14155b5b62001018576040517f08c379a00000000000000000000000000000000000000000000000000000000081526004016200100f9062002e39565b60405180910390fd5b3373ffffffffffffffffffffffffffffffffffffffff168573ffffffffffffffffffffffffffffffffffffffff167f892dba94a39dc15a34a9767dc9a0e553ace780857b076507becf599634bfbb6760405160405180910390a3600360009054906101000a900473ffffffffffffffffffffffffffffffffffffffff1673ffffffffffffffffffffffffffffffffffffffff16632575d7ca866040518263ffffffff1660e01b8152600401620010cf9190620029e1565b600060405180830381600087803b158015620010ea57600080fd5b505af1158015620010ff573d6000803e3d6000fd5b505050505050505050565b600481815481106200111857fe5b906000526020600020016000915054906101000a900473ffffffffffffffffffffffffffffffffffffffff1681565b60606000600560008473ffffffffffffffffffffffffffffffffffffffff1673ffffffffffffffffffffffffffffffffffffffff16815260200190815260200160002080549050905060608167ffffffffffffffff81118015620011aa57600080fd5b50604051908082528060200260200182016040528015620011da5781602001602082028036833780820191505090505b5090506060600560008673ffffffffffffffffffffffffffffffffffffffff1673ffffffffffffffffffffffffffffffffffffffff1681526020019081526020016000208054806020026020016040519081016040528092919081815260200182805480156200126a57602002820191906000526020600020905b81548152602001906001019080831162001255575b5050505050905060008090505b83811015620013225760048282815181106200128f57fe5b602002602001015181548110620012a257fe5b9060005260206000200160009054906101000a900473ffffffffffffffffffffffffffffffffffffffff16838281518110620012da57fe5b602002602001019073ffffffffffffffffffffffffffffffffffffffff16908173ffffffffffffffffffffffffffffffffffffffff1681525050808060010191505062001277565b50819350505050919050565b6000809054906101000a900473ffffffffffffffffffffffffffffffffffffffff1681565b600260009054906101000a900473ffffffffffffffffffffffffffffffffffffffff1681565b600360009054906101000a900473ffffffffffffffffffffffffffffffffffffffff1681565b620013aa8262001c9c565b620013ec576040517f08c379a0000000000000000000000000000000000000000000000000000000008152600401620013e39062002db1565b60405180910390fd5b8173ffffffffffffffffffffffffffffffffffffffff1663b1659bad6040518163ffffffff1660e01b815260040160206040518083038186803b1580156200143357600080fd5b505afa15801562001448573d6000803e3d6000fd5b505050506040513d601f19601f820116820180604052508101906200146e919062002123565b8314620014b2576040517f08c379a0000000000000000000000000000000000000000000000000000000008152600401620014a99062002d8f565b60405180910390fd5b60008273ffffffffffffffffffffffffffffffffffffffff16634190edde856040518263ffffffff1660e01b8152600401620014ef919062002ec1565b60606040518083038186803b1580156200150857600080fd5b505afa1580156200151d573d6000803e3d6000fd5b505050506040513d601f19601f8201168201806040525081019062001543919062002308565b92505050600060028111156200155557fe5b8160028111156200156257fe5b14620015a5576040517f08c379a00000000000000000000000000000000000000000000000000000000081526004016200159c9062002e5b565b60405180910390fd5b60008373ffffffffffffffffffffffffffffffffffffffff16637fd788aa6040518163ffffffff1660e01b815260040160206040518083038186803b158015620015ee57600080fd5b505afa15801562001603573d6000803e3d6000fd5b505050506040513d601f19601f8201168201806040525081019062001629919062002047565b905080156200166f576040517f08c379a0000000000000000000000000000000000000000000000000000000008152600401620016669062002e9f565b60405180910390fd5b60008473ffffffffffffffffffffffffffffffffffffffff1663021eef7f876040518263ffffffff1660e01b8152600401620016ac919062002ec1565b60206040518083038186803b158015620016c557600080fd5b505afa158015620016da573d6000803e3d6000fd5b505050506040513d601f19601f8201168201806040525081019062001700919062002047565b90508062001745576040517f08c379a00000000000000000000000000000000000000000000000000000000081526004016200173c9062002e7d565b60405180910390fd5b60008573ffffffffffffffffffffffffffffffffffffffff166346e0fbae6040518163ffffffff1660e01b815260040160206040518083038186803b1580156200178e57600080fd5b505afa158015620017a3573d6000803e3d6000fd5b505050506040513d601f19601f82011682018060405250810190620017c991906200209f565b90506000600160009054906101000a900473ffffffffffffffffffffffffffffffffffffffff1673ffffffffffffffffffffffffffffffffffffffff1663c7b6ceb4838a6040518363ffffffff1660e01b81526004016200182c92919062002c96565b60206040518083038186803b1580156200184557600080fd5b505afa1580156200185a573d6000803e3d6000fd5b505050506040513d601f19601f8201168201806040525081019062001880919062002047565b905080620018c5576040517f08c379a0000000000000000000000000000000000000000000000000000000008152600401620018bc9062002d29565b60405180910390fd5b60008773ffffffffffffffffffffffffffffffffffffffff1663a224ee9c6040518163ffffffff1660e01b815260040160206040518083038186803b1580156200190e57600080fd5b505afa15801562001923573d6000803e3d6000fd5b505050506040513d601f19601f8201168201806040525081019062001949919062001fc1565b90503373ffffffffffffffffffffffffffffffffffffffff168873ffffffffffffffffffffffffffffffffffffffff167fa204d52d2c80fbd794029bca489fb7b1c4dd5f7d5967806277f579cc683431468b604051620019aa919062002ec1565b60405180910390a38073ffffffffffffffffffffffffffffffffffffffff166397a821928a8a8a336040518563ffffffff1660e01b8152600401620019f3949392919062002ede565b600060405180830381600087803b15801562001a0e57600080fd5b505af115801562001a23573d6000803e3d6000fd5b50505050600360009054906101000a900473ffffffffffffffffffffffffffffffffffffffff1673ffffffffffffffffffffffffffffffffffffffff166322f3c33c89338c6040518463ffffffff1660e01b815260040162001a889392919062002b3d565b600060405180830381600087803b15801562001aa357600080fd5b505af115801562001ab8573d6000803e3d6000fd5b50505050505050505050505050565b8173ffffffffffffffffffffffffffffffffffffffff1663f38815896040518163ffffffff1660e01b8152600401600060405180830381600087803b15801562001b1057600080fd5b505af115801562001b25573d6000803e3d6000fd5b50505050600260009054906101000a900473ffffffffffffffffffffffffffffffffffffffff1673ffffffffffffffffffffffffffffffffffffffff1663eabb8a733384846040518463ffffffff1660e01b815260040162001b8a93929190620029fe565b600060405180830381600087803b15801562001ba557600080fd5b505af115801562001bba573d6000803e3d6000fd5b505050505050565b6060600480548060200260200160405190810160405280929190818152602001828054801562001c4857602002820191906000526020600020905b8160009054906101000a900473ffffffffffffffffffffffffffffffffffffffff1673ffffffffffffffffffffffffffffffffffffffff168152602001906001019080831162001bfd575b5050505050905090565b600160009054906101000a900473ffffffffffffffffffffffffffffffffffffffff1681565b7f000000000000000000000000000000000000000000000000000000000000000081565b6000600660008373ffffffffffffffffffffffffffffffffffffffff1673ffffffffffffffffffffffffffffffffffffffff16815260200190815260200160002060009054906101000a900460ff169050919050565b60008282111562001d3a576040517f08c379a000000000000000000000000000000000000000000000000000000000815260040162001d319062002d6d565b60405180910390fd5b818303905092915050565b616dca80620033d883390190565b60008135905062001d6481620032ee565b92915050565b60008151905062001d7b81620032ee565b92915050565b600082601f83011262001d9357600080fd5b813562001daa62001da48262002f96565b62002f68565b9150818183526020840193506020810190508385602084028201111562001dd057600080fd5b60005b8381101562001e04578162001de9888262001e3c565b84526020840193506020830192505060018101905062001dd3565b5050505092915050565b60008135905062001e1f8162003308565b92915050565b60008151905062001e368162003308565b92915050565b60008135905062001e4d8162003322565b92915050565b60008135905062001e64816200333c565b92915050565b60008135905062001e7b8162003356565b92915050565b60008151905062001e928162003356565b92915050565b60008135905062001ea98162003367565b92915050565b60008151905062001ec08162003378565b92915050565b600082601f83011262001ed857600080fd5b813562001eef62001ee98262002fbf565b62002f68565b9150808252602083016020830185838301111562001f0c57600080fd5b62001f198382846200327c565b50505092915050565b60008135905062001f338162003389565b92915050565b60008151905062001f4a8162003389565b92915050565b60008135905062001f6181620033a3565b92915050565b60008151905062001f7881620033a3565b92915050565b60008135905062001f8f81620033bd565b92915050565b60006020828403121562001fa857600080fd5b600062001fb88482850162001d53565b91505092915050565b60006020828403121562001fd457600080fd5b600062001fe48482850162001d6a565b91505092915050565b600080604083850312156200200157600080fd5b6000620020118582860162001d53565b925050602083013567ffffffffffffffff8111156200202f57600080fd5b6200203d8582860162001ec6565b9150509250929050565b6000602082840312156200205a57600080fd5b60006200206a8482850162001e25565b91505092915050565b6000602082840312156200208657600080fd5b6000620020968482850162001e53565b91505092915050565b600060208284031215620020b257600080fd5b6000620020c28482850162001e81565b91505092915050565b600060208284031215620020de57600080fd5b6000620020ee8482850162001f39565b91505092915050565b6000602082840312156200210a57600080fd5b60006200211a8482850162001f50565b91505092915050565b6000602082840312156200213657600080fd5b6000620021468482850162001f67565b91505092915050565b6000806000606084860312156200216557600080fd5b6000620021758682870162001f50565b9350506020620021888682870162001e53565b92505060406200219b8682870162001e0e565b9150509250925092565b6000806000806000806000806000806101408b8d031215620021c657600080fd5b6000620021d68d828e0162001f50565b9a50506020620021e98d828e0162001e98565b9950506040620021fc8d828e0162001e0e565b98505060606200220f8d828e0162001d53565b9750506080620022228d828e0162001e6a565b96505060a0620022358d828e0162001f22565b95505060c0620022488d828e0162001f22565b94505060e08b013567ffffffffffffffff8111156200226657600080fd5b620022748d828e0162001ec6565b9350506101008b013567ffffffffffffffff8111156200229357600080fd5b620022a18d828e0162001d81565b925050610120620022b58d828e0162001f7e565b9150509295989b9194979a5092959850565b60008060408385031215620022db57600080fd5b6000620022eb8582860162001f67565b9250506020620022fe8582860162001f67565b9150509250929050565b6000806000606084860312156200231e57600080fd5b60006200232e8682870162001f67565b9350506020620023418682870162001f67565b9250506040620023548682870162001eaf565b9150509250925092565b60006200236c838362002499565b60208301905092915050565b6000620023868383620024cc565b60208301905092915050565b6200239d816200313c565b82525050565b620023ae816200307a565b82525050565b6000620023c1826200300c565b620023cd818562003058565b9350620023da8362002fec565b8060005b8381101562002411578151620023f588826200235e565b975062002402836200302d565b925050600181019050620023de565b5085935050505092915050565b60006200242b8262003017565b62002437818562003047565b9350620024448362002ffc565b8060005b838110156200247b5781516200245f888262002378565b97506200246c836200303a565b92505060018101905062002448565b5085935050505092915050565b62002493816200308e565b82525050565b620024a4816200309a565b82525050565b620024b58162003150565b82525050565b620024c68162003178565b82525050565b620024d781620031a0565b82525050565b620024e881620031a0565b82525050565b620024f981620031c8565b82525050565b6200250a81620031f0565b82525050565b6200251b8162003218565b82525050565b6200252c816200322c565b82525050565b60006200253f8262003022565b6200254b818562003069565b93506200255d8185602086016200328b565b6200256881620032c1565b840191505092915050565b600062002582601f8362003069565b91507f506572696f642074797065206e6f7420696e697469616c697a656420796574006000830152602082019050919050565b6000620025c460298362003069565b91507f696e76616c69642066696e616c506572696f64496420616e6420696e6974696160008301527f6c506572696f64496400000000000000000000000000000000000000000000006020830152604082019050919050565b60006200262c60198362003069565b91507f46696e616c20706572696f64206964206e6f742076616c6964000000000000006000830152602082019050919050565b60006200266e60138362003069565b91507f706572696f64206e6f742066696e6973686564000000000000000000000000006000830152602082019050919050565b6000620026b060198362003069565b91507f466972737420706572696f64206964206e6f742076616c6964000000000000006000830152602082019050919050565b6000620026f2601e8362003069565b91507f536166654d6174683a207375627472616374696f6e206f766572666c6f7700006000830152602082019050919050565b60006200273460108362003069565b91507f696e76616c696420706572696f644964000000000000000000000000000000006000830152602082019050919050565b600062002776600b8362003069565b91507f696e76616c696420534c410000000000000000000000000000000000000000006000830152602082019050919050565b6000620027b860128362003069565b91507f506572696f6420686173207374617274656400000000000000000000000000006000830152602082019050919050565b6000620027fa60148362003069565b91507f6d73672e73656e646572206e6f74206f776e65720000000000000000000000006000830152602082019050919050565b60006200283c60188362003069565b91507f6d657373656e676572206e6f74207265676973746572656400000000000000006000830152602082019050919050565b60006200287e602b8362003069565b91507f53686f756c64206f6e6c7920776974686472617720666f722066696e6973686560008301527f6420636f6e7472616374730000000000000000000000000000000000000000006020830152604082019050919050565b6000620028e660128362003069565b91507f696e76616c696420534c412073746174757300000000000000000000000000006000830152602082019050919050565b60006200292860118362003069565b91507f696e76616c696420706572696f642049640000000000000000000000000000006000830152602082019050919050565b60006200296a60118362003069565b91507f627265616368656420636f6e74726163740000000000000000000000000000006000830152602082019050919050565b620029a881620030e2565b82525050565b620029b98162003240565b82525050565b620029ca816200311e565b82525050565b620029db8162003128565b82525050565b6000602082019050620029f86000830184620023a3565b92915050565b600060608201905062002a15600083018662002392565b62002a246020830185620023a3565b818103604083015262002a38818462002532565b9050949350505050565b600060608201905062002a59600083018662002392565b62002a686020830185620023a3565b62002a776040830184620029ae565b949350505050565b60006101408201905062002a97600083018d62002392565b62002aa6602083018c62002488565b62002ab5604083018b62002510565b62002ac4606083018a620023a3565b62002ad360808301896200299d565b62002ae260a08301886200299d565b62002af160c08301876200299d565b81810360e083015262002b05818662002532565b905081810361010083015262002b1c8185620023b4565b905062002b2e610120830184620029d0565b9b9a5050505050505050505050565b600060608201905062002b546000830186620023a3565b62002b63602083018562002392565b62002b726040830184620029bf565b949350505050565b6000602082019050818103600083015262002b9681846200241e565b905092915050565b600060208201905062002bb5600083018462002488565b92915050565b600060208201905062002bd26000830184620024aa565b92915050565b600060208201905062002bef6000830184620024bb565b92915050565b600060208201905062002c0c6000830184620024dd565b92915050565b600060208201905062002c296000830184620024ee565b92915050565b600060208201905062002c466000830184620024ff565b92915050565b600060208201905062002c63600083018462002510565b92915050565b600060408201905062002c80600083018562002510565b62002c8f6020830184620029ae565b9392505050565b600060408201905062002cad600083018562002510565b62002cbc6020830184620029bf565b9392505050565b6000602082019050818103600083015262002cde8162002573565b9050919050565b6000602082019050818103600083015262002d0081620025b5565b9050919050565b6000602082019050818103600083015262002d22816200261d565b9050919050565b6000602082019050818103600083015262002d44816200265f565b9050919050565b6000602082019050818103600083015262002d6681620026a1565b9050919050565b6000602082019050818103600083015262002d8881620026e3565b9050919050565b6000602082019050818103600083015262002daa8162002725565b9050919050565b6000602082019050818103600083015262002dcc8162002767565b9050919050565b6000602082019050818103600083015262002dee81620027a9565b9050919050565b6000602082019050818103600083015262002e1081620027eb565b9050919050565b6000602082019050818103600083015262002e32816200282d565b9050919050565b6000602082019050818103600083015262002e54816200286f565b9050919050565b6000602082019050818103600083015262002e7681620028d7565b9050919050565b6000602082019050818103600083015262002e988162002919565b9050919050565b6000602082019050818103600083015262002eba816200295b565b9050919050565b600060208201905062002ed86000830184620029bf565b92915050565b600060808201905062002ef56000830187620029bf565b62002f046020830186620023a3565b62002f13604083018562002488565b62002f22606083018462002392565b95945050505050565b600060608201905062002f426000830186620029bf565b62002f51602083018562002521565b62002f606040830184620023a3565b949350505050565b6000604051905081810181811067ffffffffffffffff8211171562002f8c57600080fd5b8060405250919050565b600067ffffffffffffffff82111562002fae57600080fd5b602082029050602081019050919050565b600067ffffffffffffffff82111562002fd757600080fd5b601f19601f8301169050602081019050919050565b6000819050602082019050919050565b6000819050602082019050919050565b600081519050919050565b600081519050919050565b600081519050919050565b6000602082019050919050565b6000602082019050919050565b600082825260208201905092915050565b600082825260208201905092915050565b600082825260208201905092915050565b60006200308782620030fe565b9050919050565b60008115159050919050565b6000819050919050565b6000620030b1826200307a565b9050919050565b6000819050620030c882620032d2565b919050565b6000819050620030dd82620032e0565b919050565b60006fffffffffffffffffffffffffffffffff82169050919050565b600073ffffffffffffffffffffffffffffffffffffffff82169050919050565b6000819050919050565b600067ffffffffffffffff82169050919050565b6000620031498262003254565b9050919050565b60006200315d8262003164565b9050919050565b60006200317182620030fe565b9050919050565b600062003185826200318c565b9050919050565b60006200319982620030fe565b9050919050565b6000620031ad82620031b4565b9050919050565b6000620031c182620030fe565b9050919050565b6000620031d582620031dc565b9050919050565b6000620031e982620030fe565b9050919050565b6000620031fd8262003204565b9050919050565b60006200321182620030fe565b9050919050565b60006200322582620030b8565b9050919050565b60006200323982620030cd565b9050919050565b60006200324d82620030e2565b9050919050565b6000620032618262003268565b9050919050565b60006200327582620030fe565b9050919050565b82818337600083830152505050565b60005b83811015620032ab5780820151818401526020810190506200328e565b83811115620032bb576000848401525b50505050565b6000601f19601f8301169050919050565b60068110620032dd57fe5b50565b60068110620032eb57fe5b50565b620032f9816200307a565b81146200330557600080fd5b50565b62003313816200308e565b81146200331f57600080fd5b50565b6200332d816200309a565b81146200333957600080fd5b50565b6200334781620030a4565b81146200335357600080fd5b50565b600681106200336457600080fd5b50565b600681106200337557600080fd5b50565b600381106200338657600080fd5b50565b6200339481620030e2565b8114620033a057600080fd5b50565b620033ae816200311e565b8114620033ba57600080fd5b50565b620033c88162003128565b8114620033d457600080fd5b5056fe6102406040526000600d60006101000a81548160ff0219169083151502179055503480156200002d57600080fd5b5060405162006dca38038062006dca833981810160405281019062000053919062000da9565b33888a86848e60006200006b6200089460201b60201c565b9050806000806101000a81548173ffffffffffffffffffffffffffffffffffffffff021916908373ffffffffffffffffffffffffffffffffffffffff1602179055508073ffffffffffffffffffffffffffffffffffffffff16600073ffffffffffffffffffffffffffffffffffffffff167f8be0079c531659141344cd1fd0a4f28419497f9722a3daafe3b4186f6b6457e060405160405180910390a3508573ffffffffffffffffffffffffffffffffffffffff1663683048356040518163ffffffff1660e01b815260040160206040518083038186803b1580156200015057600080fd5b505afa15801562000165573d6000803e3d6000fd5b505050506040513d601f19601f820116820180604052508101906200018b919062000f23565b600160006101000a81548173ffffffffffffffffffffffffffffffffffffffff021916908373ffffffffffffffffffffffffffffffffffffffff1602179055508573ffffffffffffffffffffffffffffffffffffffff16639fc4caa56040518163ffffffff1660e01b815260040160206040518083038186803b1580156200021257600080fd5b505afa15801562000227573d6000803e3d6000fd5b505050506040513d601f19601f820116820180604052508101906200024d919062000ecb565b73ffffffffffffffffffffffffffffffffffffffff1660808173ffffffffffffffffffffffffffffffffffffffff1660601b815250508460058111156200029057fe5b610100816005811115620002a057fe5b60f81b8152505083151561012081151560f81b81525050600080600160009054906101000a900473ffffffffffffffffffffffffffffffffffffffff1673ffffffffffffffffffffffffffffffffffffffff1663f700839e6040518163ffffffff1660e01b81526004016101006040518083038186803b1580156200032457600080fd5b505afa15801562000339573d6000803e3d6000fd5b505050506040513d601f19601f820116820180604052508101906200035f919062000f4f565b97505050505050509150600160009054906101000a900473ffffffffffffffffffffffffffffffffffffffff1673ffffffffffffffffffffffffffffffffffffffff16638b8e53096040518163ffffffff1660e01b815260040160206040518083038186803b158015620003d257600080fd5b505afa158015620003e7573d6000803e3d6000fd5b505050506040513d601f19601f820116820180604052508101906200040d919062000d7d565b73ffffffffffffffffffffffffffffffffffffffff1660c08173ffffffffffffffffffffffffffffffffffffffff1660601b815250508160e081815250506001600960008573ffffffffffffffffffffffffffffffffffffffff1673ffffffffffffffffffffffffffffffffffffffff16815260200190815260200160002060006101000a81548160ff021916908315150217905550846fffffffffffffffffffffffffffffffff1660a0816fffffffffffffffffffffffffffffffff1660801b815250508067ffffffffffffffff168467ffffffffffffffff161115801562000502575060018467ffffffffffffffff1610155b62000544576040517f08c379a00000000000000000000000000000000000000000000000000000000081526004016200053b9062001120565b60405180910390fd5b8367ffffffffffffffff166101408167ffffffffffffffff1660c01b8152505050505050505050506200057d8a6200089c60201b60201c565b82600a90805190602001906200059592919062000a85565b508673ffffffffffffffffffffffffffffffffffffffff166101608173ffffffffffffffffffffffffffffffffffffffff1660601b8152505033600b60006101000a81548173ffffffffffffffffffffffffffffffffffffffff021916908373ffffffffffffffffffffffffffffffffffffffff160217905550600b60009054906101000a900473ffffffffffffffffffffffffffffffffffffffff1673ffffffffffffffffffffffffffffffffffffffff16639fc4caa56040518163ffffffff1660e01b815260040160206040518083038186803b1580156200067857600080fd5b505afa1580156200068d573d6000803e3d6000fd5b505050506040513d601f19601f82011682018060405250810190620006b3919062000ecb565b73ffffffffffffffffffffffffffffffffffffffff166101808173ffffffffffffffffffffffffffffffffffffffff1660601b81525050600b60009054906101000a900473ffffffffffffffffffffffffffffffffffffffff1673ffffffffffffffffffffffffffffffffffffffff16635a7d1e5d6040518163ffffffff1660e01b815260040160206040518083038186803b1580156200075357600080fd5b505afa15801562000768573d6000803e3d6000fd5b505050506040513d601f19601f820116820180604052508101906200078e919062000ef7565b73ffffffffffffffffffffffffffffffffffffffff166101a08173ffffffffffffffffffffffffffffffffffffffff1660601b81525050436101c08181525050856fffffffffffffffffffffffffffffffff166101e0816fffffffffffffffffffffffffffffffff1660801b81525050846fffffffffffffffffffffffffffffffff16610200816fffffffffffffffffffffffffffffffff1660801b815250508760058111156200083b57fe5b6102208160058111156200084b57fe5b60f81b8152505081600c90805190602001906200086a92919062000b0c565b50856fffffffffffffffffffffffffffffffff16600e8190555050505050505050505050620013ea565b600033905090565b620008ac6200089460201b60201c565b73ffffffffffffffffffffffffffffffffffffffff16620008d262000a5c60201b60201c565b73ffffffffffffffffffffffffffffffffffffffff16146200092b576040517f08c379a0000000000000000000000000000000000000000000000000000000008152600401620009229062001142565b60405180910390fd5b600073ffffffffffffffffffffffffffffffffffffffff168173ffffffffffffffffffffffffffffffffffffffff1614156200099e576040517f08c379a00000000000000000000000000000000000000000000000000000000081526004016200099590620010fe565b60405180910390fd5b8073ffffffffffffffffffffffffffffffffffffffff166000809054906101000a900473ffffffffffffffffffffffffffffffffffffffff1673ffffffffffffffffffffffffffffffffffffffff167f8be0079c531659141344cd1fd0a4f28419497f9722a3daafe3b4186f6b6457e060405160405180910390a3806000806101000a81548173ffffffffffffffffffffffffffffffffffffffff021916908373ffffffffffffffffffffffffffffffffffffffff16021790555050565b60008060009054906101000a900473ffffffffffffffffffffffffffffffffffffffff16905090565b828054600181600116156101000203166002900490600052602060002090601f016020900481019282601f1062000ac857805160ff191683800117855562000af9565b8280016001018555821562000af9579182015b8281111562000af857825182559160200191906001019062000adb565b5b50905062000b08919062000b5e565b5090565b82805482825590600052602060002090810192821562000b4b579160200282015b8281111562000b4a57825182559160200191906001019062000b2d565b5b50905062000b5a919062000b86565b5090565b62000b8391905b8082111562000b7f57600081600090555060010162000b65565b5090565b90565b62000bab91905b8082111562000ba757600081600090555060010162000b8d565b5090565b90565b60008151905062000bbf81620012ef565b92915050565b600082601f83011262000bd757600080fd5b815162000bee62000be88262001192565b62001164565b9150818183526020840193506020810190508385602084028201111562000c1457600080fd5b60005b8381101562000c48578162000c2d888262000c69565b84526020840193506020830192505060018101905062000c17565b5050505092915050565b60008151905062000c638162001309565b92915050565b60008151905062000c7a8162001323565b92915050565b60008151905062000c91816200133d565b92915050565b60008151905062000ca88162001357565b92915050565b60008151905062000cbf8162001371565b92915050565b60008151905062000cd6816200138b565b92915050565b600082601f83011262000cee57600080fd5b815162000d0562000cff82620011bb565b62001164565b9150808252602083016020830185838301111562000d2257600080fd5b62000d2f838284620012b9565b50505092915050565b60008151905062000d49816200139c565b92915050565b60008151905062000d6081620013b6565b92915050565b60008151905062000d7781620013d0565b92915050565b60006020828403121562000d9057600080fd5b600062000da08482850162000bae565b91505092915050565b6000806000806000806000806000806101408b8d03121562000dca57600080fd5b600062000dda8d828e0162000bae565b9a5050602062000ded8d828e0162000c52565b995050604062000e008d828e0162000cc5565b985050606062000e138d828e0162000bae565b975050608062000e268d828e0162000d38565b96505060a062000e398d828e0162000d38565b95505060c062000e4c8d828e0162000d38565b94505060e08b015167ffffffffffffffff81111562000e6a57600080fd5b62000e788d828e0162000cdc565b9350506101008b015167ffffffffffffffff81111562000e9757600080fd5b62000ea58d828e0162000bc5565b92505061012062000eb98d828e0162000d66565b9150509295989b9194979a5092959850565b60006020828403121562000ede57600080fd5b600062000eee8482850162000c80565b91505092915050565b60006020828403121562000f0a57600080fd5b600062000f1a8482850162000c97565b91505092915050565b60006020828403121562000f3657600080fd5b600062000f468482850162000cae565b91505092915050565b600080600080600080600080610100898b03121562000f6d57600080fd5b600062000f7d8b828c0162000d4f565b985050602062000f908b828c0162000d4f565b975050604062000fa38b828c0162000d4f565b965050606062000fb68b828c0162000d4f565b955050608062000fc98b828c0162000d4f565b94505060a062000fdc8b828c0162000d4f565b93505060c062000fef8b828c0162000d4f565b92505060e0620010028b828c0162000d66565b9150509295985092959890939650565b600062001021602683620011e8565b91507f4f776e61626c653a206e6577206f776e657220697320746865207a65726f206160008301527f64647265737300000000000000000000000000000000000000000000000000006020830152604082019050919050565b600062001089601283620011e8565b91507f496e636f7272656374206c6576657261676500000000000000000000000000006000830152602082019050919050565b6000620010cb602083620011e8565b91507f4f776e61626c653a2063616c6c6572206973206e6f7420746865206f776e65726000830152602082019050919050565b60006020820190508181036000830152620011198162001012565b9050919050565b600060208201905081810360008301526200113b816200107a565b9050919050565b600060208201905081810360008301526200115d81620010bc565b9050919050565b6000604051905081810181811067ffffffffffffffff821117156200118857600080fd5b8060405250919050565b600067ffffffffffffffff821115620011aa57600080fd5b602082029050602081019050919050565b600067ffffffffffffffff821115620011d357600080fd5b601f19601f8301169050602081019050919050565b600082825260208201905092915050565b600062001206826200127b565b9050919050565b60008115159050919050565b6000819050919050565b60006200123082620011f9565b9050919050565b60006200124482620011f9565b9050919050565b60006200125882620011f9565b9050919050565b60006fffffffffffffffffffffffffffffffff82169050919050565b600073ffffffffffffffffffffffffffffffffffffffff82169050919050565b6000819050919050565b600067ffffffffffffffff82169050919050565b60005b83811015620012d9578082015181840152602081019050620012bc565b83811115620012e9576000848401525b50505050565b620012fa81620011f9565b81146200130657600080fd5b50565b62001314816200120d565b81146200132057600080fd5b50565b6200132e8162001219565b81146200133a57600080fd5b50565b620013488162001223565b81146200135457600080fd5b50565b620013628162001237565b81146200136e57600080fd5b50565b6200137c816200124b565b81146200138857600080fd5b50565b600681106200139957600080fd5b50565b620013a7816200125f565b8114620013b357600080fd5b50565b620013c1816200129b565b8114620013cd57600080fd5b50565b620013db81620012a5565b8114620013e757600080fd5b50565b60805160601c60a05160801c60c05160601c60e0516101005160f81c6101205160f81c6101405160c01c6101605160601c6101805160601c6101a05160601c6101c0516101e05160801c6102005160801c6102205160f81c6158dc620014ee600039806113f75280611cb952508061080d528061139c5280611cda5280611da352806124015250806107ca5280611211528061238752806123e05250806111ed5250806121955280612240525080611c7d525080611e375280612097525080611378528061291552806134f55280613b9c5280613d3c5250806111c95280612766525050806118d55250806126b2525080610db652806124e45250506158dc6000f3fe608060405234801561001057600080fd5b50600436106102485760003560e01c806378025ec41161013b578063b7bc347e116100b8578063db69a4621161007c578063db69a46214610720578063f2db10fe1461073e578063f2fde38b1461075c578063f7e9dfff14610778578063fd5e6dd11461079657610248565b8063b7bc347e1461067c578063c623674f1461069a578063c8b5c248146106b8578063cbe230c3146106d4578063d7a5c4221461070457610248565b80639b19251a116100ff5780639b19251a146105c25780639fabeb00146105f2578063a224ee9c14610610578063a7e8d8d41461062e578063b1659bad1461065e57610248565b806378025ec41461051c5780637fd788aa1461054c5780638d21c7701461056a5780638da5cb5b1461058657806396f76f11146105a457610248565b806346e0fbae116101c95780635ae698ff1161018d5780635ae698ff146104785780635c1c20de146104945780635e5f2e26146104b2578063639b6fc3146104e2578063715018a61461051257610248565b806346e0fbae14610399578063484fbf2b146103b75780634e0c91f6146103e75780634fb2647e1461041757806357ac94f01461044757610248565b80632526743a116102105780632526743a146102f157806326db18ac1461030f5780632c86d98e1461032b5780633385d334146103495780634190edde1461036757610248565b8063021eef7f1461024d5780630bea440d1461027d578063171e44ea1461029957806318e45427146102b55780631bf30929146102d3575b600080fd5b61026760048036038101906102629190614474565b6107c6565b6040516102749190615063565b60405180910390f35b610297600480360381019061029291906144c6565b610858565b005b6102b360048036038101906102ae91906142cd565b610a92565b005b6102bd6111c7565b6040516102ca9190615063565b60405180910390f35b6102db6111eb565b6040516102e89190615483565b60405180910390f35b6102f961120f565b604051610306919061544d565b60405180910390f35b610329600480360381019061032491906144c6565b611233565b005b610333611376565b604051610340919061556c565b60405180910390f35b61035161139a565b60405161035e919061544d565b60405180910390f35b610381600480360381019061037c9190614474565b6113be565b604051610390939291906154c7565b60405180910390f35b6103a16113f5565b6040516103ae91906150cf565b60405180910390f35b6103d160048036038101906103cc91906142cd565b611419565b6040516103de9190615483565b60405180910390f35b61040160048036038101906103fc91906142cd565b611431565b60405161040e9190615099565b60405180910390f35b610431600480360381019061042c91906142cd565b611464565b60405161043e9190615099565b60405180910390f35b610461600480360381019061045c919061431f565b611497565b60405161046f92919061503a565b60405180910390f35b610492600480360381019061048d91906143a0565b61175f565b005b61049c6118d3565b6040516104a99190615483565b60405180910390f35b6104cc60048036038101906104c79190614474565b6118f7565b6040516104d99190614fa4565b60405180910390f35b6104fc60048036038101906104f791906142cd565b611933565b6040516105099190615483565b60405180910390f35b61051a61194b565b005b61053660048036038101906105319190614474565b611a86565b604051610543919061507e565b60405180910390f35b610554611aa7565b6040516105619190615063565b60405180910390f35b610584600480360381019061057f919061435b565b611abe565b005b61058e611c4f565b60405161059b9190614fa4565b60405180910390f35b6105ac611c78565b6040516105b99190615063565b60405180910390f35b6105dc60048036038101906105d791906142cd565b611e08565b6040516105e99190615063565b60405180910390f35b6105fa611e28565b6040516106079190615483565b60405180910390f35b610618611e35565b6040516106259190614fa4565b60405180910390f35b610648600480360381019061064391906142cd565b611e59565b6040516106559190615063565b60405180910390f35b610666611e79565b6040516106739190615483565b60405180910390f35b610684611e7f565b6040516106919190615483565b60405180910390f35b6106a2611e8c565b6040516106af9190615113565b60405180910390f35b6106d260048036038101906106cd91906144c6565b611f2a565b005b6106ee60048036038101906106e991906142cd565b611ff3565b6040516106fb9190615063565b60405180910390f35b61071e6004803603810190610719919061453e565b612095565b005b6107286124bc565b60405161073591906150b4565b60405180910390f35b6107466124e2565b604051610753919061544d565b60405180910390f35b610776600480360381019061077191906142cd565b612506565b005b6107806126b0565b60405161078d9190614fa4565b60405180910390f35b6107b060048036038101906107ab9190614474565b6126d4565b6040516107bd9190614fa4565b60405180910390f35b60007f00000000000000000000000000000000000000000000000000000000000000006fffffffffffffffffffffffffffffffff1682101561080b5760009050610853565b7f00000000000000000000000000000000000000000000000000000000000000006fffffffffffffffffffffffffffffffff1682111561084e5760009050610853565b600190505b919050565b816000811161089c576040517f08c379a00000000000000000000000000000000000000000000000000000000081526004016108939061540d565b60405180910390fd5b60006108a6611c78565b905080156108e9576040517f08c379a00000000000000000000000000000000000000000000000000000000081526004016108e0906152ed565b60405180910390fd5b6108f38484612710565b3373ffffffffffffffffffffffffffffffffffffffff16600e548473ffffffffffffffffffffffffffffffffffffffff167f1bd1eb6b4fd3f08e718d7a241c54c4641c9f36004b6949383f48d15a2fcc8f52876040516109539190615483565b60405180910390a46000600b60009054906101000a900473ffffffffffffffffffffffffffffffffffffffff1673ffffffffffffffffffffffffffffffffffffffff1663683048356040518163ffffffff1660e01b815260040160206040518083038186803b1580156109c557600080fd5b505afa1580156109d9573d6000803e3d6000fd5b505050506040513d601f19601f820116820180604052508101906109fd919061440a565b90508073ffffffffffffffffffffffffffffffffffffffff1663b290508e336040518263ffffffff1660e01b8152600401610a389190614fbf565b602060405180830381600087803b158015610a5257600080fd5b505af1158015610a66573d6000803e3d6000fd5b505050506040513d601f19601f82011682018060405250810190610a8a91906143e1565b505050505050565b610a9a61306c565b73ffffffffffffffffffffffffffffffffffffffff16610ab8611c4f565b73ffffffffffffffffffffffffffffffffffffffff1614610b0e576040517f08c379a0000000000000000000000000000000000000000000000000000000008152600401610b059061536d565b60405180910390fd5b6000600160009054906101000a900473ffffffffffffffffffffffffffffffffffffffff1673ffffffffffffffffffffffffffffffffffffffff1663f700839e6040518163ffffffff1660e01b81526004016101006040518083038186803b158015610b7957600080fd5b505afa158015610b8d573d6000803e3d6000fd5b505050506040513d601f19601f82011682018060405250810190610bb191906145b6565b509650505050505050610bc382611ff3565b15610c03576040517f08c379a0000000000000000000000000000000000000000000000000000000008152600401610bfa906153ad565b60405180910390fd5b600160009054906101000a900473ffffffffffffffffffffffffffffffffffffffff1673ffffffffffffffffffffffffffffffffffffffff1663cbe230c3836040518263ffffffff1660e01b8152600401610c5e9190614fa4565b60206040518083038186803b158015610c7657600080fd5b505afa158015610c8a573d6000803e3d6000fd5b505050506040513d601f19601f82011682018060405250810190610cae91906143e1565b610ced576040517f08c379a0000000000000000000000000000000000000000000000000000000008152600401610ce49061522d565b60405180910390fd5b6008829080600181540180825580915050600190039060005260206000200160009091909190916101000a81548173ffffffffffffffffffffffffffffffffffffffff021916908373ffffffffffffffffffffffffffffffffffffffff160217905550600880549050811015610d98576040517f08c379a0000000000000000000000000000000000000000000000000000000008152600401610d8f906151cd565b60405180910390fd5b606073__StringUtils___________________________63fc966d457f00000000000000000000000000000000000000000000000000000000000000006040518263ffffffff1660e01b8152600401610df19190615468565b60006040518083038186803b158015610e0957600080fd5b505af4158015610e1d573d6000803e3d6000fd5b505050506040513d6000823e3d601f19601f82011682018060405250810190610e469190614433565b9050606081604051602001610e5b9190614f1c565b6040516020818303038152906040529050606082604051602001610e7f9190614f3e565b6040516020818303038152906040529050606083604051602001610ea39190614f60565b6040516020818303038152906040529050606084604051602001610ec79190614f82565b60405160208183030381529060405290506000600160009054906101000a900473ffffffffffffffffffffffffffffffffffffffff1673ffffffffffffffffffffffffffffffffffffffff166366a0428e86866040518363ffffffff1660e01b8152600401610f37929190615135565b602060405180830381600087803b158015610f5157600080fd5b505af1158015610f65573d6000803e3d6000fd5b505050506040513d601f19601f82011682018060405250810190610f8991906142f6565b90506000600160009054906101000a900473ffffffffffffffffffffffffffffffffffffffff1673ffffffffffffffffffffffffffffffffffffffff166366a0428e85856040518363ffffffff1660e01b8152600401610fea929190615135565b602060405180830381600087803b15801561100457600080fd5b505af1158015611018573d6000803e3d6000fd5b505050506040513d601f19601f8201168201806040525081019061103c91906142f6565b905080600560008b73ffffffffffffffffffffffffffffffffffffffff1673ffffffffffffffffffffffffffffffffffffffff16815260200190815260200160002060006101000a81548173ffffffffffffffffffffffffffffffffffffffff021916908373ffffffffffffffffffffffffffffffffffffffff16021790555081600460008b73ffffffffffffffffffffffffffffffffffffffff1673ffffffffffffffffffffffffffffffffffffffff16815260200190815260200160002060006101000a81548173ffffffffffffffffffffffffffffffffffffffff021916908373ffffffffffffffffffffffffffffffffffffffff1602179055508173ffffffffffffffffffffffffffffffffffffffff168173ffffffffffffffffffffffffffffffffffffffff168a73ffffffffffffffffffffffffffffffffffffffff167fce8c390dc55dbcd418078f1391fbb7d471c01c228fc4464926095354cb27c02987888b8c6040516111b4949392919061516c565b60405180910390a4505050505050505050565b7f000000000000000000000000000000000000000000000000000000000000000081565b7f000000000000000000000000000000000000000000000000000000000000000081565b7f000000000000000000000000000000000000000000000000000000000000000081565b8160008111611277576040517f08c379a000000000000000000000000000000000000000000000000000000000815260040161126e9061540d565b60405180910390fd5b61127f611c4f565b73ffffffffffffffffffffffffffffffffffffffff163373ffffffffffffffffffffffffffffffffffffffff16146112ff5760006112bb611c78565b9050806112fd576040517f08c379a00000000000000000000000000000000000000000000000000000000081526004016112f49061538d565b60405180910390fd5b505b3373ffffffffffffffffffffffffffffffffffffffff16600e548373ffffffffffffffffffffffffffffffffffffffff167f5d73c1b3aab5bae46e08e09668d192166389623bef76bbe8cdae8df8ad320fce8660405161135f9190615483565b60405180910390a46113718383613074565b505050565b7f000000000000000000000000000000000000000000000000000000000000000081565b7f000000000000000000000000000000000000000000000000000000000000000081565b600f6020528060005260406000206000915090508060000154908060010154908060020160009054906101000a900460ff16905083565b7f000000000000000000000000000000000000000000000000000000000000000081565b60036020528060005260406000206000915090505481565b60046020528060005260406000206000915054906101000a900473ffffffffffffffffffffffffffffffffffffffff1681565b60056020528060005260406000206000915054906101000a900473ffffffffffffffffffffffffffffffffffffffff1681565b6000806000600884815481106114a957fe5b9060005260206000200160009054906101000a900473ffffffffffffffffffffffffffffffffffffffff1690506114de611c4f565b73ffffffffffffffffffffffffffffffffffffffff168573ffffffffffffffffffffffffffffffffffffffff16141561155c5780600260008373ffffffffffffffffffffffffffffffffffffffff1673ffffffffffffffffffffffffffffffffffffffff168152602001908152602001600020549250925050611758565b6000600460008373ffffffffffffffffffffffffffffffffffffffff1673ffffffffffffffffffffffffffffffffffffffff16815260200190815260200160002060009054906101000a900473ffffffffffffffffffffffffffffffffffffffff16905060008173ffffffffffffffffffffffffffffffffffffffff166318160ddd6040518163ffffffff1660e01b815260040160206040518083038186803b15801561160857600080fd5b505afa15801561161c573d6000803e3d6000fd5b505050506040513d601f19601f82011682018060405250810190611640919061449d565b9050600081141561165d5782600080905094509450505050611758565b60008273ffffffffffffffffffffffffffffffffffffffff166370a08231896040518263ffffffff1660e01b81526004016116989190614fa4565b60206040518083038186803b1580156116b057600080fd5b505afa1580156116c4573d6000803e3d6000fd5b505050506040513d601f19601f820116820180604052508101906116e8919061449d565b90508361174f8361174184600360008a73ffffffffffffffffffffffffffffffffffffffff1673ffffffffffffffffffffffffffffffffffffffff1681526020019081526020016000205461334d90919063ffffffff16565b6133bd90919063ffffffff16565b95509550505050505b9250929050565b61176761306c565b73ffffffffffffffffffffffffffffffffffffffff16611785611c4f565b73ffffffffffffffffffffffffffffffffffffffff16146117db576040517f08c379a00000000000000000000000000000000000000000000000000000000081526004016117d29061536d565b60405180910390fd5b60008090505b81518110156118cf5760001515600960008484815181106117fe57fe5b602002602001015173ffffffffffffffffffffffffffffffffffffffff1673ffffffffffffffffffffffffffffffffffffffff16815260200190815260200160002060009054906101000a900460ff16151514156118c25760016009600084848151811061186857fe5b602002602001015173ffffffffffffffffffffffffffffffffffffffff1673ffffffffffffffffffffffffffffffffffffffff16815260200190815260200160002060006101000a81548160ff0219169083151502179055505b80806001019150506117e1565b5050565b7f000000000000000000000000000000000000000000000000000000000000000081565b6008818154811061190457fe5b906000526020600020016000915054906101000a900473ffffffffffffffffffffffffffffffffffffffff1681565b60026020528060005260406000206000915090505481565b61195361306c565b73ffffffffffffffffffffffffffffffffffffffff16611971611c4f565b73ffffffffffffffffffffffffffffffffffffffff16146119c7576040517f08c379a00000000000000000000000000000000000000000000000000000000081526004016119be9061536d565b60405180910390fd5b600073ffffffffffffffffffffffffffffffffffffffff166000809054906101000a900473ffffffffffffffffffffffffffffffffffffffff1673ffffffffffffffffffffffffffffffffffffffff167f8be0079c531659141344cd1fd0a4f28419497f9722a3daafe3b4186f6b6457e060405160405180910390a360008060006101000a81548173ffffffffffffffffffffffffffffffffffffffff021916908373ffffffffffffffffffffffffffffffffffffffff160217905550565b600c8181548110611a9357fe5b906000526020600020016000915090505481565b6000600d60009054906101000a900460ff16905090565b611ac661306c565b73ffffffffffffffffffffffffffffffffffffffff16611ae4611c4f565b73ffffffffffffffffffffffffffffffffffffffff1614611b3a576040517f08c379a0000000000000000000000000000000000000000000000000000000008152600401611b319061536d565b60405180910390fd5b60008090505b82829050811015611c4a576001151560096000858585818110611b5f57fe5b9050602002016020810190611b7491906142cd565b73ffffffffffffffffffffffffffffffffffffffff1673ffffffffffffffffffffffffffffffffffffffff16815260200190815260200160002060009054906101000a900460ff1615151415611c3d57600060096000858585818110611bd657fe5b9050602002016020810190611beb91906142cd565b73ffffffffffffffffffffffffffffffffffffffff1673ffffffffffffffffffffffffffffffffffffffff16815260200190815260200160002060006101000a81548160ff0219169083151502179055505b8080600101915050611b40565b505050565b60008060009054906101000a900473ffffffffffffffffffffffffffffffffffffffff16905090565b6000807f000000000000000000000000000000000000000000000000000000000000000073ffffffffffffffffffffffffffffffffffffffff1663ffa612357f00000000000000000000000000000000000000000000000000000000000000007f00000000000000000000000000000000000000000000000000000000000000006040518363ffffffff1660e01b8152600401611d169291906150ea565b604080518083038186803b158015611d2d57600080fd5b505afa158015611d41573d6000803e3d6000fd5b505050506040513d601f19601f82011682018060405250810190611d65919061457a565b91505060011515600d60009054906101000a900460ff1615151480611e025750804210158015611e01575060006002811115611d9d57fe5b600f60007f00000000000000000000000000000000000000000000000000000000000000006fffffffffffffffffffffffffffffffff16815260200190815260200160002060020160009054906101000a900460ff166002811115611dfe57fe5b14155b5b91505090565b60096020528060005260406000206000915054906101000a900460ff1681565b6000600680549050905090565b7f000000000000000000000000000000000000000000000000000000000000000081565b60076020528060005260406000206000915054906101000a900460ff1681565b600e5481565b6000600880549050905090565b600a8054600181600116156101000203166002900480601f016020809104026020016040519081016040528092919081815260200182805460018160011615610100020316600290048015611f225780601f10611ef757610100808354040283529160200191611f22565b820191906000526020600020905b815481529060010190602001808311611f0557829003601f168201915b505050505081565b8160008111611f6e576040517f08c379a0000000000000000000000000000000000000000000000000000000008152600401611f659061540d565b60405180910390fd5b6000611f78611c78565b90503373ffffffffffffffffffffffffffffffffffffffff16600e548473ffffffffffffffffffffffffffffffffffffffff167fbd9be3d6449ecbdf4b3b9980b1631ec06c13d8cf9e09e2433075f123b348e3ba87604051611fda9190615483565b60405180910390a4611fed848483613413565b50505050565b600080600090505b60088054905081101561208a578273ffffffffffffffffffffffffffffffffffffffff166008828154811061202c57fe5b9060005260206000200160009054906101000a900473ffffffffffffffffffffffffffffffffffffffff1673ffffffffffffffffffffffffffffffffffffffff16141561207d576001915050612090565b8080600101915050611ffb565b50600090505b919050565b7f000000000000000000000000000000000000000000000000000000000000000073ffffffffffffffffffffffffffffffffffffffff163373ffffffffffffffffffffffffffffffffffffffff1614612123576040517f08c379a000000000000000000000000000000000000000000000000000000000815260040161211a9061524d565b60405180910390fd5b7fc95987c1992805ee34bdc915e017cceae36ba1c156b9911fa7e691e6435eb46e428383604051612156939291906154fe565b60405180910390a160018101600e819055506000600f6000838152602001908152602001600020905082816001018190555042816000018190555060007f000000000000000000000000000000000000000000000000000000000000000073ffffffffffffffffffffffffffffffffffffffff1663a7b72ac5306040518263ffffffff1660e01b81526004016121ec9190614fa4565b604080518083038186803b15801561220357600080fd5b505afa158015612217573d6000803e3d6000fd5b505050506040513d601f19601f8201168201806040525081019061223b9190614502565b5090507f000000000000000000000000000000000000000000000000000000000000000073ffffffffffffffffffffffffffffffffffffffff16631993b9df85306040518363ffffffff1660e01b815260040161229992919061549e565b60206040518083038186803b1580156122b157600080fd5b505afa1580156122c5573d6000803e3d6000fd5b505050506040513d601f19601f820116820180604052508101906122e991906143e1565b1561246b5760018260020160006101000a81548160ff0219169083600281111561230f57fe5b02179055506000612710905060006123796123466002612338868a61380e90919063ffffffff16565b6133bd90919063ffffffff16565b61236b8461235d878b61386390919063ffffffff16565b61334d90919063ffffffff16565b6133bd90919063ffffffff16565b905060006123d560016123c77f00000000000000000000000000000000000000000000000000000000000000006fffffffffffffffffffffffffffffffff168961386390919063ffffffff16565b61380e90919063ffffffff16565b9050600061245560017f00000000000000000000000000000000000000000000000000000000000000007f000000000000000000000000000000000000000000000000000000000000000003016fffffffffffffffffffffffffffffffff16612447848661334d90919063ffffffff16565b6133bd90919063ffffffff16565b90506124628782866138b3565b505050506124b6565b60028260020160006101000a81548160ff0219169083600281111561248c57fe5b021790555061249a83613b02565b6001600d60006101000a81548160ff0219169083151502179055505b50505050565b600b60009054906101000a900473ffffffffffffffffffffffffffffffffffffffff1681565b7f000000000000000000000000000000000000000000000000000000000000000081565b61250e61306c565b73ffffffffffffffffffffffffffffffffffffffff1661252c611c4f565b73ffffffffffffffffffffffffffffffffffffffff1614612582576040517f08c379a00000000000000000000000000000000000000000000000000000000081526004016125799061536d565b60405180910390fd5b600073ffffffffffffffffffffffffffffffffffffffff168173ffffffffffffffffffffffffffffffffffffffff1614156125f2576040517f08c379a00000000000000000000000000000000000000000000000000000000081526004016125e9906151ed565b60405180910390fd5b8073ffffffffffffffffffffffffffffffffffffffff166000809054906101000a900473ffffffffffffffffffffffffffffffffffffffff1673ffffffffffffffffffffffffffffffffffffffff167f8be0079c531659141344cd1fd0a4f28419497f9722a3daafe3b4186f6b6457e060405160405180910390a3806000806101000a81548173ffffffffffffffffffffffffffffffffffffffff021916908373ffffffffffffffffffffffffffffffffffffffff16021790555050565b7f000000000000000000000000000000000000000000000000000000000000000081565b600681815481106126e157fe5b906000526020600020016000915054906101000a900473ffffffffffffffffffffffffffffffffffffffff1681565b806001151561271e82611ff3565b151514612760576040517f08c379a00000000000000000000000000000000000000000000000000000000081526004016127579061534d565b60405180910390fd5b600115157f0000000000000000000000000000000000000000000000000000000000000000151514156128215760011515600960003373ffffffffffffffffffffffffffffffffffffffff1673ffffffffffffffffffffffffffffffffffffffff16815260200190815260200160002060009054906101000a900460ff16151514612820576040517f08c379a0000000000000000000000000000000000000000000000000000000008152600401612817906152cd565b60405180910390fd5b5b61284e3330858573ffffffffffffffffffffffffffffffffffffffff16613d87909392919063ffffffff16565b612856611c4f565b73ffffffffffffffffffffffffffffffffffffffff163373ffffffffffffffffffffffffffffffffffffffff1614612c7c57600080600260008573ffffffffffffffffffffffffffffffffffffffff1673ffffffffffffffffffffffffffffffffffffffff16815260200190815260200160002054600360008673ffffffffffffffffffffffffffffffffffffffff1673ffffffffffffffffffffffffffffffffffffffff16815260200190815260200160002054915091508161295f7f000000000000000000000000000000000000000000000000000000000000000067ffffffffffffffff16612951888561380e90919063ffffffff16565b61334d90919063ffffffff16565b11156129a0576040517f08c379a00000000000000000000000000000000000000000000000000000000081526004016129979061530d565b60405180910390fd5b6000600460008673ffffffffffffffffffffffffffffffffffffffff1673ffffffffffffffffffffffffffffffffffffffff16815260200190815260200160002060009054906101000a900473ffffffffffffffffffffffffffffffffffffffff16905060008173ffffffffffffffffffffffffffffffffffffffff166318160ddd6040518163ffffffff1660e01b815260040160206040518083038186803b158015612a4c57600080fd5b505afa158015612a60573d6000803e3d6000fd5b505050506040513d601f19601f82011682018060405250810190612a84919061449d565b90506000811415612b01578173ffffffffffffffffffffffffffffffffffffffff166340c10f1933896040518363ffffffff1660e01b8152600401612aca929190614fda565b600060405180830381600087803b158015612ae457600080fd5b505af1158015612af8573d6000803e3d6000fd5b50505050612bde565b6000600360008873ffffffffffffffffffffffffffffffffffffffff1673ffffffffffffffffffffffffffffffffffffffff1681526020019081526020016000205490506000612b6c82612b5e858c61334d90919063ffffffff16565b6133bd90919063ffffffff16565b90508373ffffffffffffffffffffffffffffffffffffffff166340c10f1933836040518363ffffffff1660e01b8152600401612ba9929190614fda565b600060405180830381600087803b158015612bc357600080fd5b505af1158015612bd7573d6000803e3d6000fd5b5050505050505b612c3087600360008973ffffffffffffffffffffffffffffffffffffffff1673ffffffffffffffffffffffffffffffffffffffff1681526020019081526020016000205461380e90919063ffffffff16565b600360008873ffffffffffffffffffffffffffffffffffffffff1673ffffffffffffffffffffffffffffffffffffffff1681526020019081526020016000208190555050505050612f52565b6000600560008473ffffffffffffffffffffffffffffffffffffffff1673ffffffffffffffffffffffffffffffffffffffff16815260200190815260200160002060009054906101000a900473ffffffffffffffffffffffffffffffffffffffff16905060008173ffffffffffffffffffffffffffffffffffffffff166318160ddd6040518163ffffffff1660e01b815260040160206040518083038186803b158015612d2857600080fd5b505afa158015612d3c573d6000803e3d6000fd5b505050506040513d601f19601f82011682018060405250810190612d60919061449d565b90506000811415612ddd578173ffffffffffffffffffffffffffffffffffffffff166340c10f1933876040518363ffffffff1660e01b8152600401612da6929190614fda565b600060405180830381600087803b158015612dc057600080fd5b505af1158015612dd4573d6000803e3d6000fd5b50505050612eba565b6000600260008673ffffffffffffffffffffffffffffffffffffffff1673ffffffffffffffffffffffffffffffffffffffff1681526020019081526020016000205490506000612e4882612e3a858a61334d90919063ffffffff16565b6133bd90919063ffffffff16565b90508373ffffffffffffffffffffffffffffffffffffffff166340c10f1933836040518363ffffffff1660e01b8152600401612e85929190614fda565b600060405180830381600087803b158015612e9f57600080fd5b505af1158015612eb3573d6000803e3d6000fd5b5050505050505b612f0c85600260008773ffffffffffffffffffffffffffffffffffffffff1673ffffffffffffffffffffffffffffffffffffffff1681526020019081526020016000205461380e90919063ffffffff16565b600260008673ffffffffffffffffffffffffffffffffffffffff1673ffffffffffffffffffffffffffffffffffffffff1681526020019081526020016000208190555050505b60001515600760003373ffffffffffffffffffffffffffffffffffffffff1673ffffffffffffffffffffffffffffffffffffffff16815260200190815260200160002060009054906101000a900460ff1615151415613067576001600760003373ffffffffffffffffffffffffffffffffffffffff1673ffffffffffffffffffffffffffffffffffffffff16815260200190815260200160002060006101000a81548160ff0219169083151502179055506006339080600181540180825580915050600190039060005260206000200160009091909190916101000a81548173ffffffffffffffffffffffffffffffffffffffff021916908373ffffffffffffffffffffffffffffffffffffffff1602179055505b505050565b600033905090565b806001151561308282611ff3565b1515146130c4576040517f08c379a00000000000000000000000000000000000000000000000000000000081526004016130bb9061534d565b60405180910390fd5b6000600460008473ffffffffffffffffffffffffffffffffffffffff1673ffffffffffffffffffffffffffffffffffffffff16815260200190815260200160002060009054906101000a900473ffffffffffffffffffffffffffffffffffffffff16905060008173ffffffffffffffffffffffffffffffffffffffff166318160ddd6040518163ffffffff1660e01b815260040160206040518083038186803b15801561317057600080fd5b505afa158015613184573d6000803e3d6000fd5b505050506040513d601f19601f820116820180604052508101906131a8919061449d565b90506000600360008673ffffffffffffffffffffffffffffffffffffffff1673ffffffffffffffffffffffffffffffffffffffff168152602001908152602001600020549050600061321582613207858a61334d90919063ffffffff16565b6133bd90919063ffffffff16565b90508373ffffffffffffffffffffffffffffffffffffffff166379cc679033836040518363ffffffff1660e01b8152600401613252929190614fda565b600060405180830381600087803b15801561326c57600080fd5b505af1158015613280573d6000803e3d6000fd5b505050506132d687600360008973ffffffffffffffffffffffffffffffffffffffff1673ffffffffffffffffffffffffffffffffffffffff1681526020019081526020016000205461386390919063ffffffff16565b600360008873ffffffffffffffffffffffffffffffffffffffff1673ffffffffffffffffffffffffffffffffffffffff1681526020019081526020016000208190555061334433888873ffffffffffffffffffffffffffffffffffffffff16613e109092919063ffffffff16565b50505050505050565b60008083141561336057600090506133b7565b600082840290508284828161337157fe5b04146133b2576040517f08c379a00000000000000000000000000000000000000000000000000000000081526004016133a99061532d565b60405180910390fd5b809150505b92915050565b6000808211613401576040517f08c379a00000000000000000000000000000000000000000000000000000000081526004016133f8906152ad565b60405180910390fd5b81838161340a57fe5b04905092915050565b816001151561342182611ff3565b151514613463576040517f08c379a000000000000000000000000000000000000000000000000000000000815260040161345a9061534d565b60405180910390fd5b6000600260008573ffffffffffffffffffffffffffffffffffffffff1673ffffffffffffffffffffffffffffffffffffffff1681526020019081526020016000205490506000600360008673ffffffffffffffffffffffffffffffffffffffff1673ffffffffffffffffffffffffffffffffffffffff168152602001908152602001600020549050836135825761352d7f000000000000000000000000000000000000000000000000000000000000000067ffffffffffffffff168261334d90919063ffffffff16565b613540878461386390919063ffffffff16565b1015613581576040517f08c379a0000000000000000000000000000000000000000000000000000000008152600401613578906153cd565b60405180910390fd5b5b6000600560008773ffffffffffffffffffffffffffffffffffffffff1673ffffffffffffffffffffffffffffffffffffffff16815260200190815260200160002060009054906101000a900473ffffffffffffffffffffffffffffffffffffffff16905060008173ffffffffffffffffffffffffffffffffffffffff166318160ddd6040518163ffffffff1660e01b815260040160206040518083038186803b15801561362e57600080fd5b505afa158015613642573d6000803e3d6000fd5b505050506040513d601f19601f82011682018060405250810190613666919061449d565b90506000600260008973ffffffffffffffffffffffffffffffffffffffff1673ffffffffffffffffffffffffffffffffffffffff16815260200190815260200160002054905060006136d3826136c5858d61334d90919063ffffffff16565b6133bd90919063ffffffff16565b90508373ffffffffffffffffffffffffffffffffffffffff166379cc679033836040518363ffffffff1660e01b8152600401613710929190614fda565b600060405180830381600087803b15801561372a57600080fd5b505af115801561373e573d6000803e3d6000fd5b505050506137948a600260008c73ffffffffffffffffffffffffffffffffffffffff1673ffffffffffffffffffffffffffffffffffffffff1681526020019081526020016000205461386390919063ffffffff16565b600260008b73ffffffffffffffffffffffffffffffffffffffff1673ffffffffffffffffffffffffffffffffffffffff16815260200190815260200160002081905550613802338b8b73ffffffffffffffffffffffffffffffffffffffff16613e109092919063ffffffff16565b50505050505050505050565b600080828401905083811015613859576040517f08c379a00000000000000000000000000000000000000000000000000000000081526004016138509061520d565b60405180910390fd5b8091505092915050565b6000828211156138a8576040517f08c379a000000000000000000000000000000000000000000000000000000000815260040161389f9061526d565b60405180910390fd5b818303905092915050565b60008090505b600880549050811015613afc576000600882815481106138d557fe5b9060005260206000200160009054906101000a900473ffffffffffffffffffffffffffffffffffffffff1690506000600360008373ffffffffffffffffffffffffffffffffffffffff1673ffffffffffffffffffffffffffffffffffffffff168152602001908152602001600020549050600061396d8561395f888561334d90919063ffffffff16565b6133bd90919063ffffffff16565b90506139c181600360008673ffffffffffffffffffffffffffffffffffffffff1673ffffffffffffffffffffffffffffffffffffffff1681526020019081526020016000205461386390919063ffffffff16565b600360008573ffffffffffffffffffffffffffffffffffffffff1673ffffffffffffffffffffffffffffffffffffffff16815260200190815260200160002081905550613a5681600260008673ffffffffffffffffffffffffffffffffffffffff1673ffffffffffffffffffffffffffffffffffffffff1681526020019081526020016000205461380e90919063ffffffff16565b600260008573ffffffffffffffffffffffffffffffffffffffff1673ffffffffffffffffffffffffffffffffffffffff168152602001908152602001600020819055508273ffffffffffffffffffffffffffffffffffffffff16877f3173c1c4b679e2da86dbb0382bde749a6e16cd31912c5410e17985cd7d2b9052888885604051613ae4939291906154fe565b60405180910390a350505080806001019150506138b9565b50505050565b60008090505b600880549050811015613d8357600060088281548110613b2457fe5b9060005260206000200160009054906101000a900473ffffffffffffffffffffffffffffffffffffffff1690506000600360008373ffffffffffffffffffffffffffffffffffffffff1673ffffffffffffffffffffffffffffffffffffffff1681526020019081526020016000205490506000613bd47f000000000000000000000000000000000000000000000000000000000000000067ffffffffffffffff168361334d90919063ffffffff16565b9050613c2881600260008673ffffffffffffffffffffffffffffffffffffffff1673ffffffffffffffffffffffffffffffffffffffff1681526020019081526020016000205461386390919063ffffffff16565b600260008573ffffffffffffffffffffffffffffffffffffffff1673ffffffffffffffffffffffffffffffffffffffff16815260200190815260200160002081905550613cbd81600360008673ffffffffffffffffffffffffffffffffffffffff1673ffffffffffffffffffffffffffffffffffffffff1681526020019081526020016000205461380e90919063ffffffff16565b600360008573ffffffffffffffffffffffffffffffffffffffff1673ffffffffffffffffffffffffffffffffffffffff168152602001908152602001600020819055508273ffffffffffffffffffffffffffffffffffffffff16857f89385e9d619600da63726158403c0cfd9772b2cac90d3e093387a5456ee1a247847f000000000000000000000000000000000000000000000000000000000000000085604051613d6b93929190615535565b60405180910390a35050508080600101915050613b08565b5050565b613e0a846323b872dd60e01b858585604051602401613da893929190615003565b604051602081830303815290604052907bffffffffffffffffffffffffffffffffffffffffffffffffffffffff19166020820180517bffffffffffffffffffffffffffffffffffffffffffffffffffffffff8381831617835250505050613e96565b50505050565b613e918363a9059cbb60e01b8484604051602401613e2f92919061503a565b604051602081830303815290604052907bffffffffffffffffffffffffffffffffffffffffffffffffffffffff19166020820180517bffffffffffffffffffffffffffffffffffffffffffffffffffffffff8381831617835250505050613e96565b505050565b6060613ef8826040518060400160405280602081526020017f5361666545524332303a206c6f772d6c6576656c2063616c6c206661696c65648152508573ffffffffffffffffffffffffffffffffffffffff16613f5d9092919063ffffffff16565b9050600081511115613f585780806020019051810190613f1891906143e1565b613f57576040517f08c379a0000000000000000000000000000000000000000000000000000000008152600401613f4e9061542d565b60405180910390fd5b5b505050565b6060613f6c8484600085613f75565b90509392505050565b606082471015613fba576040517f08c379a0000000000000000000000000000000000000000000000000000000008152600401613fb19061528d565b60405180910390fd5b613fc38561408a565b614002576040517f08c379a0000000000000000000000000000000000000000000000000000000008152600401613ff9906153ed565b60405180910390fd5b600060608673ffffffffffffffffffffffffffffffffffffffff16858760405161402c9190614f05565b60006040518083038185875af1925050503d8060008114614069576040519150601f19603f3d011682016040523d82523d6000602084013e61406e565b606091505b509150915061407e82828661409d565b92505050949350505050565b600080823b905060008111915050919050565b606083156140ad578290506140fd565b6000835111156140c05782518084602001fd5b816040517f08c379a00000000000000000000000000000000000000000000000000000000081526004016140f49190615113565b60405180910390fd5b9392505050565b60008135905061411381615823565b92915050565b60008151905061412881615823565b92915050565b60008083601f84011261414057600080fd5b8235905067ffffffffffffffff81111561415957600080fd5b60208301915083602082028301111561417157600080fd5b9250929050565b600082601f83011261418957600080fd5b813561419c614197826155b4565b615587565b915081818352602084019350602081019050838560208402820111156141c157600080fd5b60005b838110156141f157816141d78882614104565b8452602084019350602083019250506001810190506141c4565b5050505092915050565b60008151905061420a8161583a565b92915050565b60008151905061421f81615851565b92915050565b60008151905061423481615868565b92915050565b600082601f83011261424b57600080fd5b815161425e614259826155dc565b615587565b9150808252602083016020830185838301111561427a57600080fd5b6142858382846157c5565b50505092915050565b60008135905061429d81615878565b92915050565b6000815190506142b281615878565b92915050565b6000815190506142c78161588f565b92915050565b6000602082840312156142df57600080fd5b60006142ed84828501614104565b91505092915050565b60006020828403121561430857600080fd5b600061431684828501614119565b91505092915050565b6000806040838503121561433257600080fd5b600061434085828601614104565b92505060206143518582860161428e565b9150509250929050565b6000806020838503121561436e57600080fd5b600083013567ffffffffffffffff81111561438857600080fd5b6143948582860161412e565b92509250509250929050565b6000602082840312156143b257600080fd5b600082013567ffffffffffffffff8111156143cc57600080fd5b6143d884828501614178565b91505092915050565b6000602082840312156143f357600080fd5b6000614401848285016141fb565b91505092915050565b60006020828403121561441c57600080fd5b600061442a84828501614210565b91505092915050565b60006020828403121561444557600080fd5b600082015167ffffffffffffffff81111561445f57600080fd5b61446b8482850161423a565b91505092915050565b60006020828403121561448657600080fd5b60006144948482850161428e565b91505092915050565b6000602082840312156144af57600080fd5b60006144bd848285016142a3565b91505092915050565b600080604083850312156144d957600080fd5b60006144e78582860161428e565b92505060206144f885828601614104565b9150509250929050565b6000806040838503121561451557600080fd5b6000614523858286016142a3565b925050602061453485828601614225565b9150509250929050565b6000806040838503121561455157600080fd5b600061455f8582860161428e565b92505060206145708582860161428e565b9150509250929050565b6000806040838503121561458d57600080fd5b600061459b858286016142a3565b92505060206145ac858286016142a3565b9150509250929050565b600080600080600080600080610100898b0312156145d357600080fd5b60006145e18b828c016142a3565b98505060206145f28b828c016142a3565b97505060406146038b828c016142a3565b96505060606146148b828c016142a3565b95505060806146258b828c016142a3565b94505060a06146368b828c016142a3565b93505060c06146478b828c016142a3565b92505060e06146588b828c016142b8565b9150509295985092959890939650565b614671816156ff565b82525050565b61468081615645565b82525050565b61468f81615657565b82525050565b61469e81615663565b82525050565b60006146af82615608565b6146b9818561561e565b93506146c98185602086016157c5565b80840191505092915050565b6146de81615711565b82525050565b6146ed81615735565b82525050565b6146fc81615759565b82525050565b61470b8161576b565b82525050565b600061471c82615613565b6147268185615629565b93506147368185602086016157c5565b61473f816157f8565b840191505092915050565b600061475582615613565b61475f818561563a565b935061476f8185602086016157c5565b80840191505092915050565b6000614788603383615629565b91507f416c6c6f77656420746f6b656e73206c656e677468206772656174657220746860008301527f616e206d617820746f6b656e206c656e677468000000000000000000000000006020830152604082019050919050565b60006147ee600b8361563a565b91507f44534c412d53484f52542d0000000000000000000000000000000000000000006000830152600b82019050919050565b600061482e602683615629565b91507f4f776e61626c653a206e6577206f776e657220697320746865207a65726f206160008301527f64647265737300000000000000000000000000000000000000000000000000006020830152604082019050919050565b6000614894601b83615629565b91507f536166654d6174683a206164646974696f6e206f766572666c6f7700000000006000830152602082019050919050565b60006148d460088361563a565b91507f44534c412d53502d0000000000000000000000000000000000000000000000006000830152600882019050919050565b6000614914602d83615629565b91507f546f6b656e206e6f7420616c6c6f7765642062792074686520534c415265676960008301527f7374727920636f6e7472616374000000000000000000000000000000000000006020830152604082019050919050565b600061497a602583615629565b91507f4f6e6c79204d657373656e6765722063616e2063616c6c20746869732066756e60008301527f6374696f6e0000000000000000000000000000000000000000000000000000006020830152604082019050919050565b60006149e0601e83615629565b91507f536166654d6174683a207375627472616374696f6e206f766572666c6f7700006000830152602082019050919050565b6000614a20602683615629565b91507f416464726573733a20696e73756666696369656e742062616c616e636520666f60008301527f722063616c6c00000000000000000000000000000000000000000000000000006020830152604082019050919050565b6000614a86601a83615629565b91507f536166654d6174683a206469766973696f6e206279207a65726f0000000000006000830152602082019050919050565b6000614ac6600f83615629565b91507f4e6f742077686974656c697374656400000000000000000000000000000000006000830152602082019050919050565b6000614b06600a8361563a565b91507f44534c412d4c4f4e472d000000000000000000000000000000000000000000006000830152600a82019050919050565b6000614b4660088361563a565b91507f44534c412d4c502d0000000000000000000000000000000000000000000000006000830152600882019050919050565b6000614b86602883615629565b91507f43616e206f6e6c79207374616b65206f6e206e6f742066696e6973686564206360008301527f6f6e7472616374730000000000000000000000000000000000000000000000006020830152604082019050919050565b6000614bec601483615629565b91507f496e636f72726563742075736572207374616b650000000000000000000000006000830152602082019050919050565b6000614c2c602183615629565b91507f536166654d6174683a206d756c7469706c69636174696f6e206f766572666c6f60008301527f77000000000000000000000000000000000000000000000000000000000000006020830152604082019050919050565b6000614c92601483615629565b91507f746f6b656e206973206e6f7420616c6c6f7765640000000000000000000000006000830152602082019050919050565b6000614cd2602083615629565b91507f4f776e61626c653a2063616c6c6572206973206e6f7420746865206f776e65726000830152602082019050919050565b6000614d12601a83615629565b91507f4f6e6c7920666f722066696e697368656420636f6e74726163740000000000006000830152602082019050919050565b6000614d52601383615629565b91507f546f6b656e20616c7265616479206164646564000000000000000000000000006000830152602082019050919050565b6000614d92601283615629565b91507f496e636f727265637420776974686472617700000000000000000000000000006000830152602082019050919050565b6000614dd2601d83615629565b91507f416464726573733a2063616c6c20746f206e6f6e2d636f6e74726163740000006000830152602082019050919050565b6000614e12601283615629565b91507f616d6f756e742063616e6e6f74206265203000000000000000000000000000006000830152602082019050919050565b6000614e52602a83615629565b91507f5361666545524332303a204552433230206f7065726174696f6e20646964206e60008301527f6f742073756363656564000000000000000000000000000000000000000000006020830152604082019050919050565b614eb4816156a5565b82525050565b614ec38161577d565b82525050565b614ed28161577d565b82525050565b614ee1816156e1565b82525050565b614ef0816157b3565b82525050565b614eff816156eb565b82525050565b6000614f1182846146a4565b915081905092915050565b6000614f27826147e1565b9150614f33828461474a565b915081905092915050565b6000614f49826148c7565b9150614f55828461474a565b915081905092915050565b6000614f6b82614af9565b9150614f77828461474a565b915081905092915050565b6000614f8d82614b39565b9150614f99828461474a565b915081905092915050565b6000602082019050614fb96000830184614677565b92915050565b6000602082019050614fd46000830184614668565b92915050565b6000604082019050614fef6000830185614668565b614ffc6020830184614ed8565b9392505050565b60006060820190506150186000830186614677565b6150256020830185614677565b6150326040830184614ed8565b949350505050565b600060408201905061504f6000830185614677565b61505c6020830184614ed8565b9392505050565b60006020820190506150786000830184614686565b92915050565b60006020820190506150936000830184614695565b92915050565b60006020820190506150ae60008301846146d5565b92915050565b60006020820190506150c960008301846146e4565b92915050565b60006020820190506150e460008301846146f3565b92915050565b60006040820190506150ff60008301856146f3565b61510c6020830184614eba565b9392505050565b6000602082019050818103600083015261512d8184614711565b905092915050565b6000604082019050818103600083015261514f8185614711565b905081810360208301526151638184614711565b90509392505050565b600060808201905081810360008301526151868187614711565b9050818103602083015261519a8186614711565b905081810360408301526151ae8185614711565b905081810360608301526151c28184614711565b905095945050505050565b600060208201905081810360008301526151e68161477b565b9050919050565b6000602082019050818103600083015261520681614821565b9050919050565b6000602082019050818103600083015261522681614887565b9050919050565b6000602082019050818103600083015261524681614907565b9050919050565b600060208201905081810360008301526152668161496d565b9050919050565b60006020820190508181036000830152615286816149d3565b9050919050565b600060208201905081810360008301526152a681614a13565b9050919050565b600060208201905081810360008301526152c681614a79565b9050919050565b600060208201905081810360008301526152e681614ab9565b9050919050565b6000602082019050818103600083015261530681614b79565b9050919050565b6000602082019050818103600083015261532681614bdf565b9050919050565b6000602082019050818103600083015261534681614c1f565b9050919050565b6000602082019050818103600083015261536681614c85565b9050919050565b6000602082019050818103600083015261538681614cc5565b9050919050565b600060208201905081810360008301526153a681614d05565b9050919050565b600060208201905081810360008301526153c681614d45565b9050919050565b600060208201905081810360008301526153e681614d85565b9050919050565b6000602082019050818103600083015261540681614dc5565b9050919050565b6000602082019050818103600083015261542681614e05565b9050919050565b6000602082019050818103600083015261544681614e45565b9050919050565b60006020820190506154626000830184614eab565b92915050565b600060208201905061547d6000830184614ec9565b92915050565b60006020820190506154986000830184614ed8565b92915050565b60006040820190506154b36000830185614ed8565b6154c06020830184614677565b9392505050565b60006060820190506154dc6000830186614ed8565b6154e96020830185614ed8565b6154f66040830184614702565b949350505050565b60006060820190506155136000830186614ed8565b6155206020830185614ed8565b61552d6040830184614ed8565b949350505050565b600060608201905061554a6000830186614ed8565b6155576020830185614ee7565b6155646040830184614ed8565b949350505050565b60006020820190506155816000830184614ef6565b92915050565b6000604051905081810181811067ffffffffffffffff821117156155aa57600080fd5b8060405250919050565b600067ffffffffffffffff8211156155cb57600080fd5b602082029050602081019050919050565b600067ffffffffffffffff8211156155f357600080fd5b601f19601f8301169050602081019050919050565b600081519050919050565b600081519050919050565b600081905092915050565b600082825260208201905092915050565b600081905092915050565b6000615650826156c1565b9050919050565b60008115159050919050565b6000819050919050565b600061567882615645565b9050919050565b600081905061568d82615809565b919050565b60008190506156a082615816565b919050565b60006fffffffffffffffffffffffffffffffff82169050919050565b600073ffffffffffffffffffffffffffffffffffffffff82169050919050565b6000819050919050565b600067ffffffffffffffff82169050919050565b600061570a8261578f565b9050919050565b600061571c82615723565b9050919050565b600061572e826156c1565b9050919050565b600061574082615747565b9050919050565b6000615752826156c1565b9050919050565b60006157648261567f565b9050919050565b600061577682615692565b9050919050565b6000615788826156a5565b9050919050565b600061579a826157a1565b9050919050565b60006157ac826156c1565b9050919050565b60006157be826156eb565b9050919050565b60005b838110156157e35780820151818401526020810190506157c8565b838111156157f2576000848401525b50505050565b6000601f19601f8301169050919050565b6006811061581357fe5b50565b6003811061582057fe5b50565b61582c81615645565b811461583757600080fd5b50565b61584381615657565b811461584e57600080fd5b50565b61585a8161566d565b811461586557600080fd5b50565b6006811061587557600080fd5b50565b615881816156e1565b811461588c57600080fd5b50565b615898816156eb565b81146158a357600080fd5b5056fea2646970667358221220901cc8190ebe52e446a111063cf6f81d6518562860e49265598bb4b06976d79564736f6c63430006060033a26469706673582212207e21cca1e5118698cceccf582dea74a49736c66b27654066cef28a0a8740be1764736f6c63430006060033",
  "immutableReferences": {
    "5223": [
      {
        "length": 32,
        "start": 1579
      },
      {
        "length": 32,
        "start": 7290
      }
    ]
  },
  "source": "// SPDX-License-Identifier: MIT\npragma solidity 0.6.6;\npragma experimental ABIEncoderV2;\n\nimport \"@openzeppelin/contracts/math/SafeMath.sol\";\nimport \"./SLA.sol\";\nimport \"./SLORegistry.sol\";\nimport \"./PeriodRegistry.sol\";\nimport \"./MessengerRegistry.sol\";\nimport \"./StakeRegistry.sol\";\nimport \"./messenger/IMessenger.sol\";\n\n/**\n * @title SLARegistry\n * @dev SLARegistry is a contract for handling creation of service level\n * agreements and keeping track of the created agreements\n */\ncontract SLARegistry {\n    using SafeMath for uint256;\n\n    /// @dev SLO registry\n    SLORegistry public sloRegistry;\n    /// @dev Periods registry\n    PeriodRegistry public periodRegistry;\n    /// @dev Messengers registry\n    MessengerRegistry public messengerRegistry;\n    /// @dev Stake registry\n    StakeRegistry public stakeRegistry;\n    /// @dev stores the addresses of created SLAs\n    SLA[] public SLAs;\n    /// @dev stores the indexes of service level agreements owned by an user\n    mapping(address => uint256[]) private userToSLAIndexes;\n    /// @dev to check if registered SLA\n    mapping(address => bool) private registeredSLAs;\n    // value to lock past periods on SLA deployment\n    bool public immutable checkPastPeriod;\n\n    /**\n     * @dev event for service level agreement creation logging\n     * @param sla 1. The address of the created service level agreement contract\n     * @param owner 2. The address of the owner of the service level agreement\n     */\n    event SLACreated(SLA indexed sla, address indexed owner);\n\n    /**\n     * @dev event for service level agreement creation logging\n     * @param periodId 1. -\n     * @param sla 2. -\n     * @param caller 3. -\n     */\n    event SLIRequested(\n        uint256 periodId,\n        address indexed sla,\n        address indexed caller\n    );\n\n    /**\n     * @dev event for service level agreement creation logging\n     * @param sla 1. -\n     * @param caller 2. -\n     */\n    event ReturnLockedValue(address indexed sla, address indexed caller);\n\n    /**\n     * @dev constructor\n     * @param _sloRegistry 1. SLO Registry\n     * @param _periodRegistry 2. Periods registry\n     * @param _messengerRegistry 3. Messenger registry\n     * @param _stakeRegistry 4. Stake registry\n     * @param _checkPastPeriod 5. -\n     */\n    constructor(\n        SLORegistry _sloRegistry,\n        PeriodRegistry _periodRegistry,\n        MessengerRegistry _messengerRegistry,\n        StakeRegistry _stakeRegistry,\n        bool _checkPastPeriod\n    ) public {\n        sloRegistry = _sloRegistry;\n        sloRegistry.setSLARegistry();\n        periodRegistry = _periodRegistry;\n        stakeRegistry = _stakeRegistry;\n        stakeRegistry.setSLARegistry();\n        messengerRegistry = _messengerRegistry;\n        messengerRegistry.setSLARegistry();\n        checkPastPeriod = _checkPastPeriod;\n    }\n\n    /**\n     * @dev public function for creating canonical service level agreements\n     * @param _sloValue 1. -\n     * @param _sloType 2. -\n     * @param _ipfsHash 3. -\n     * @param _periodType 4. -\n     * @param _initialPeriodId 5. -\n     * @param _finalPeriodId 6. -\n     * @param _messengerAddress 7. -\n     * @param _whitelisted 8. -\n     * @param _extraData 9. -\n     * @param _leverage 10. -\n     */\n    function createSLA(\n        uint256 _sloValue,\n        SLORegistry.SLOType _sloType,\n        bool _whitelisted,\n        address _messengerAddress,\n        PeriodRegistry.PeriodType _periodType,\n        uint128 _initialPeriodId,\n        uint128 _finalPeriodId,\n        string memory _ipfsHash,\n        bytes32[] memory _extraData,\n        uint64 _leverage\n    ) public {\n        bool validPeriod =\n            periodRegistry.isValidPeriod(_periodType, _initialPeriodId);\n        require(validPeriod, \"First period id not valid\");\n        validPeriod = periodRegistry.isValidPeriod(_periodType, _finalPeriodId);\n        require(validPeriod, \"Final period id not valid\");\n        bool initializedPeriod =\n            periodRegistry.isInitializedPeriod(_periodType);\n        require(initializedPeriod, \"Period type not initialized yet\");\n        require(\n            _finalPeriodId >= _initialPeriodId,\n            \"invalid finalPeriodId and initialPeriodId\"\n        );\n\n        if (checkPastPeriod) {\n            bool periodHasStarted =\n                periodRegistry.periodHasStarted(_periodType, _initialPeriodId);\n            require(!periodHasStarted, \"Period has started\");\n        }\n        bool registeredMessenger =\n            messengerRegistry.registeredMessengers(_messengerAddress);\n        require(registeredMessenger == true, \"messenger not registered\");\n\n        SLA sla =\n            new SLA(\n                msg.sender,\n                _whitelisted,\n                _periodType,\n                _messengerAddress,\n                _initialPeriodId,\n                _finalPeriodId,\n                uint128(SLAs.length),\n                _ipfsHash,\n                _extraData,\n                _leverage\n            );\n\n        sloRegistry.registerSLO(_sloValue, _sloType, address(sla));\n        stakeRegistry.lockDSLAValue(\n            msg.sender,\n            address(sla),\n            _finalPeriodId - _initialPeriodId + 1\n        );\n        SLAs.push(sla);\n        registeredSLAs[address(sla)] = true;\n        uint256 index = SLAs.length.sub(1);\n        userToSLAIndexes[msg.sender].push(index);\n        emit SLACreated(sla, msg.sender);\n    }\n\n    /**\n     * @dev Gets SLI information for the specified SLA and SLO\n     * @param _periodId 1. id of the period\n     * @param _sla 2. SLA Address\n     * @param _ownerApproval 3. if approval by owner or msg.sender\n     */\n    function requestSLI(\n        uint256 _periodId,\n        SLA _sla,\n        bool _ownerApproval\n    ) public {\n        require(isRegisteredSLA(address(_sla)), \"invalid SLA\");\n        require(_periodId == _sla.nextVerifiablePeriod(), \"invalid periodId\");\n        (, , SLA.Status status) = _sla.periodSLIs(_periodId);\n        require(status == SLA.Status.NotVerified, \"invalid SLA status\");\n        bool breachedContract = _sla.breachedContract();\n        require(!breachedContract, \"breached contract\");\n        bool slaAllowedPeriodId = _sla.isAllowedPeriod(_periodId);\n        require(slaAllowedPeriodId, \"invalid period Id\");\n        PeriodRegistry.PeriodType slaPeriodType = _sla.periodType();\n        bool periodFinished =\n            periodRegistry.periodIsFinished(slaPeriodType, _periodId);\n        require(periodFinished, \"period not finished\");\n        address slaMessenger = _sla.messengerAddress();\n        SLIRequested(_periodId, address(_sla), msg.sender);\n        IMessenger(slaMessenger).requestSLI(\n            _periodId,\n            address(_sla),\n            _ownerApproval,\n            msg.sender\n        );\n        stakeRegistry.distributeVerificationRewards(\n            address(_sla),\n            msg.sender,\n            _periodId\n        );\n    }\n\n    function returnLockedValue(SLA _sla) public {\n        require(isRegisteredSLA(address(_sla)), \"invalid SLA\");\n        require(msg.sender == _sla.owner(), \"msg.sender not owner\");\n        uint256 lastValidPeriodId = _sla.finalPeriodId();\n        PeriodRegistry.PeriodType periodType = _sla.periodType();\n        (, uint256 endOfLastValidPeriod) =\n            periodRegistry.getPeriodStartAndEnd(periodType, lastValidPeriodId);\n\n        (, , SLA.Status lastPeriodStatus) = _sla.periodSLIs(lastValidPeriodId);\n        require(\n            _sla.breachedContract() ||\n                (block.timestamp >= endOfLastValidPeriod &&\n                    lastPeriodStatus != SLA.Status.NotVerified),\n            \"Should only withdraw for finished contracts\"\n        );\n        ReturnLockedValue(address(_sla), msg.sender);\n        stakeRegistry.returnLockedValue(address(_sla));\n    }\n\n    /**\n     * @dev function to declare this SLARegistry contract as SLARegistry of _messengerAddress\n     * @param _messengerAddress 1. address of the messenger\n     */\n\n    function registerMessenger(\n        address _messengerAddress,\n        string memory _specificationUrl\n    ) public {\n        IMessenger(_messengerAddress).setSLARegistry();\n        messengerRegistry.registerMessenger(\n            msg.sender,\n            _messengerAddress,\n            _specificationUrl\n        );\n    }\n\n    /**\n     * @dev public view function that returns the service level agreements that\n     * the given user is the owner of\n     * @param _user Address of the user for which to return the service level\n     * agreements\n     * @return array of SLAs\n     */\n    function userSLAs(address _user) public view returns (SLA[] memory) {\n        uint256 count = userToSLAIndexes[_user].length;\n        SLA[] memory SLAList = new SLA[](count);\n        uint256[] memory userSLAIndexes = userToSLAIndexes[_user];\n\n        for (uint256 i = 0; i < count; i++) {\n            SLAList[i] = (SLAs[userSLAIndexes[i]]);\n        }\n\n        return (SLAList);\n    }\n\n    /**\n     * @dev public view function that returns all the service level agreements\n     * @return SLA[] array of SLAs\n     */\n    function allSLAs() public view returns (SLA[] memory) {\n        return (SLAs);\n    }\n\n    /**\n     * @dev public view function that returns true if _slaAddress was deployed using this SLARegistry\n     * @param _slaAddress address of the SLA to be checked\n     */\n    function isRegisteredSLA(address _slaAddress) public view returns (bool) {\n        return registeredSLAs[_slaAddress];\n    }\n}\n",
  "sourcePath": "@stacktical/dsla-protocol/contracts/SLARegistry.sol",
  "compiler": {
    "name": "solc",
    "version": "0.6.6+commit.6c089d02.Emscripten.clang"
  },
  "schemaVersion": "3.3.4",
  "updatedAt": "2021-05-05T23:57:45.203Z",
  "devdoc": {
    "details": "SLARegistry is a contract for handling creation of service level agreements and keeping track of the created agreements",
    "methods": {
      "allSLAs()": {
        "details": "public view function that returns all the service level agreements",
        "returns": {
          "_0": "SLA[] array of SLAs"
        }
      },
      "constructor": {
        "details": "constructor",
        "params": {
          "_checkPastPeriod": "5. -",
          "_messengerRegistry": "3. Messenger registry",
          "_periodRegistry": "2. Periods registry",
          "_sloRegistry": "1. SLO Registry",
          "_stakeRegistry": "4. Stake registry"
        }
      },
      "createSLA(uint256,uint8,bool,address,uint8,uint128,uint128,string,bytes32[],uint64)": {
        "details": "public function for creating canonical service level agreements",
        "params": {
          "_extraData": "9. -",
          "_finalPeriodId": "6. -",
          "_initialPeriodId": "5. -",
          "_ipfsHash": "3. -",
          "_leverage": "10. -",
          "_messengerAddress": "7. -",
          "_periodType": "4. -",
          "_sloType": "2. -",
          "_sloValue": "1. -",
          "_whitelisted": "8. -"
        }
      },
      "isRegisteredSLA(address)": {
        "details": "public view function that returns true if _slaAddress was deployed using this SLARegistry",
        "params": {
          "_slaAddress": "address of the SLA to be checked"
        }
      },
      "registerMessenger(address,string)": {
        "details": "function to declare this SLARegistry contract as SLARegistry of _messengerAddress",
        "params": {
          "_messengerAddress": "1. address of the messenger"
        }
      },
      "requestSLI(uint256,address,bool)": {
        "details": "Gets SLI information for the specified SLA and SLO",
        "params": {
          "_ownerApproval": "3. if approval by owner or msg.sender",
          "_periodId": "1. id of the period",
          "_sla": "2. SLA Address"
        }
      },
      "userSLAs(address)": {
        "details": "public view function that returns the service level agreements that the given user is the owner of",
        "params": {
          "_user": "Address of the user for which to return the service level agreements"
        },
        "returns": {
          "_0": "array of SLAs"
        }
      }
    },
    "title": "SLARegistry"
  },
  "userdoc": {
    "methods": {}
  }
}