{
  "contractName": "SLORegistry",
  "abi": [
    {
      "anonymous": false,
      "inputs": [
        {
          "indexed": true,
          "internalType": "address",
          "name": "sla",
          "type": "address"
        },
        {
          "indexed": false,
          "internalType": "uint256",
          "name": "sloValue",
          "type": "uint256"
        },
        {
          "indexed": false,
          "internalType": "enum SLORegistry.SLOType",
          "name": "sloType",
          "type": "uint8"
        }
      ],
      "name": "SLORegistered",
      "type": "event"
    },
    {
      "inputs": [
        {
          "internalType": "address",
          "name": "",
          "type": "address"
        }
      ],
      "name": "registeredSLO",
      "outputs": [
        {
          "internalType": "uint256",
          "name": "sloValue",
          "type": "uint256"
        },
        {
          "internalType": "enum SLORegistry.SLOType",
          "name": "sloType",
          "type": "uint8"
        }
      ],
      "stateMutability": "view",
      "type": "function"
    },
    {
      "inputs": [],
      "name": "setSLARegistry",
      "outputs": [],
      "stateMutability": "nonpayable",
      "type": "function"
    },
    {
      "inputs": [
        {
          "internalType": "uint256",
          "name": "_sloValue",
          "type": "uint256"
        },
        {
          "internalType": "enum SLORegistry.SLOType",
          "name": "_sloType",
          "type": "uint8"
        },
        {
          "internalType": "address",
          "name": "_slaAddress",
          "type": "address"
        }
      ],
      "name": "registerSLO",
      "outputs": [],
      "stateMutability": "nonpayable",
      "type": "function"
    },
    {
      "inputs": [
        {
          "internalType": "uint256",
          "name": "_value",
          "type": "uint256"
        },
        {
          "internalType": "address",
          "name": "_slaAddress",
          "type": "address"
        }
      ],
      "name": "isRespected",
      "outputs": [
        {
          "internalType": "bool",
          "name": "",
          "type": "bool"
        }
      ],
      "stateMutability": "view",
      "type": "function"
    }
  ],
  "bytecode": "0x608060405234801561001057600080fd5b50610958806100206000396000f3fe608060405234801561001057600080fd5b506004361061004c5760003560e01c80630c7ad72b146100515780631993b9df1461006d578063a7b72ac51461009d578063f3881589146100ce575b600080fd5b61006b60048036038101906100669190610607565b6100d8565b005b610087600480360381019061008291906105cb565b610251565b60405161009491906107b5565b60405180910390f35b6100b760048036038101906100b291906105a2565b61043b565b6040516100c5929190610830565b60405180910390f35b6100d661046c565b005b6000809054906101000a900473ffffffffffffffffffffffffffffffffffffffff1673ffffffffffffffffffffffffffffffffffffffff163373ffffffffffffffffffffffffffffffffffffffff1614610167576040517f08c379a000000000000000000000000000000000000000000000000000000000815260040161015e906107d0565b60405180910390fd5b604051806040016040528084815260200183600581111561018457fe5b815250600160008373ffffffffffffffffffffffffffffffffffffffff1673ffffffffffffffffffffffffffffffffffffffff1681526020019081526020016000206000820151816000015560208201518160010160006101000a81548160ff021916908360058111156101f457fe5b02179055509050508073ffffffffffffffffffffffffffffffffffffffff167fc382b63ab3cdf2c0a86390b2ea6449f63ca4135a3feb56acebddc929412d45a98484604051610244929190610830565b60405180910390a2505050565b600061025b61053e565b600160008473ffffffffffffffffffffffffffffffffffffffff1673ffffffffffffffffffffffffffffffffffffffff168152602001908152602001600020604051806040016040529081600082015481526020016001820160009054906101000a900460ff1660058111156102cd57fe5b60058111156102d857fe5b815250509050600081602001519050600082600001519050600060058111156102fd57fe5b82600581111561030957fe5b141561031c578086149350505050610435565b6001600581111561032957fe5b82600581111561033557fe5b141561034957808614159350505050610435565b6002600581111561035657fe5b82600581111561036257fe5b1415610375578086109350505050610435565b6003600581111561038257fe5b82600581111561038e57fe5b14156103a257808611159350505050610435565b600460058111156103af57fe5b8260058111156103bb57fe5b14156103ce578086119350505050610435565b6005808111156103da57fe5b8260058111156103e657fe5b14156103fa57808610159350505050610435565b6040517f08c379a000000000000000000000000000000000000000000000000000000000815260040161042c90610810565b60405180910390fd5b92915050565b60016020528060005260406000206000915090508060000154908060010160009054906101000a900460ff16905082565b600073ffffffffffffffffffffffffffffffffffffffff166000809054906101000a900473ffffffffffffffffffffffffffffffffffffffff1673ffffffffffffffffffffffffffffffffffffffff16146104fc576040517f08c379a00000000000000000000000000000000000000000000000000000000081526004016104f3906107f0565b60405180910390fd5b336000806101000a81548173ffffffffffffffffffffffffffffffffffffffff021916908373ffffffffffffffffffffffffffffffffffffffff160217905550565b6040518060400160405280600081526020016000600581111561055d57fe5b81525090565b600081359050610572816108e4565b92915050565b600081359050610587816108fb565b92915050565b60008135905061059c8161090b565b92915050565b6000602082840312156105b457600080fd5b60006105c284828501610563565b91505092915050565b600080604083850312156105de57600080fd5b60006105ec8582860161058d565b92505060206105fd85828601610563565b9150509250929050565b60008060006060848603121561061c57600080fd5b600061062a8682870161058d565b935050602061063b86828701610578565b925050604061064c86828701610563565b9150509250925092565b61065f8161087c565b82525050565b61066e816108c5565b82525050565b6000610681603483610859565b91507f53686f756c64206f6e6c792062652063616c6c6564207573696e67207468652060008301527f534c41526567697374727920636f6e74726163740000000000000000000000006020830152604082019050919050565b60006106e7602883610859565b91507f534c41526567697374727920616464726573732068617320616c72656164792060008301527f6265656e207365740000000000000000000000000000000000000000000000006020830152604082019050919050565b600061074d602483610859565b91507f6973526573706563746564207761736e27742065786563757465642070726f7060008301527f65726c79000000000000000000000000000000000000000000000000000000006020830152604082019050919050565b6107af816108bb565b82525050565b60006020820190506107ca6000830184610656565b92915050565b600060208201905081810360008301526107e981610674565b9050919050565b60006020820190508181036000830152610809816106da565b9050919050565b6000602082019050818103600083015261082981610740565b9050919050565b600060408201905061084560008301856107a6565b6108526020830184610665565b9392505050565b600082825260208201905092915050565b60006108758261089b565b9050919050565b60008115159050919050565b6000819050610896826108d7565b919050565b600073ffffffffffffffffffffffffffffffffffffffff82169050919050565b6000819050919050565b60006108d082610888565b9050919050565b600681106108e157fe5b50565b6108ed8161086a565b81146108f857600080fd5b50565b6006811061090857600080fd5b50565b610914816108bb565b811461091f57600080fd5b5056fea264697066735822122048ae243dabaf91df08f640bfd93272c82efa821771a657d1aa9e813c4f76106b64736f6c63430006060033",
  "immutableReferences": {},
  "source": "// SPDX-License-Identifier: MIT\npragma solidity 0.6.6;\npragma experimental ABIEncoderV2;\n\n/**\n * @title SLORegistry\n * @dev SLORegistry is a contract for handling creation of service level\n * objectives and querying those service level objectives\n */\ncontract SLORegistry {\n    enum SLOType {\n        EqualTo,\n        NotEqualTo,\n        SmallerThan,\n        SmallerOrEqualTo,\n        GreaterThan,\n        GreaterOrEqualTo\n    }\n\n    struct SLO {\n        uint256 sloValue;\n        SLOType sloType;\n    }\n    /**\n     * @dev SLO Registered event\n     * @param sla 1. -\n     * @param sloValue 2. -\n     * @param sloType 3. -\n     */\n    event SLORegistered(address indexed sla, uint256 sloValue, SLOType sloType);\n\n    address private slaRegistry;\n    mapping(address => SLO) public registeredSLO;\n\n    modifier onlySLARegistry {\n        require(\n            msg.sender == slaRegistry,\n            \"Should only be called using the SLARegistry contract\"\n        );\n        _;\n    }\n\n    function setSLARegistry() public {\n        // Only able to trigger this function once\n        require(\n            address(slaRegistry) == address(0),\n            \"SLARegistry address has already been set\"\n        );\n        slaRegistry = msg.sender;\n    }\n\n    /**\n     * @dev public function for creating service level objectives\n     * @param _sloValue 1. -\n     * @param _sloType 2. -\n     * @param _slaAddress 3. -\n     */\n    function registerSLO(\n        uint256 _sloValue,\n        SLOType _sloType,\n        address _slaAddress\n    ) public onlySLARegistry {\n        registeredSLO[_slaAddress] = SLO({\n            sloValue: _sloValue,\n            sloType: _sloType\n        });\n        emit SLORegistered(_slaAddress, _sloValue, _sloType);\n    }\n\n    /**\n     * @dev external view function to check a value against the SLO\n     * @param _value The SLI value to check against the SL\n     * @return boolean with the SLO honored state\n     */\n    function isRespected(uint256 _value, address _slaAddress)\n        public\n        view\n        returns (bool)\n    {\n        SLO memory slo = registeredSLO[_slaAddress];\n        SLOType sloType = slo.sloType;\n        uint256 sloValue = slo.sloValue;\n\n        if (sloType == SLOType.EqualTo) {\n            return _value == sloValue;\n        }\n\n        if (sloType == SLOType.NotEqualTo) {\n            return _value != sloValue;\n        }\n\n        if (sloType == SLOType.SmallerThan) {\n            return _value < sloValue;\n        }\n\n        if (sloType == SLOType.SmallerOrEqualTo) {\n            return _value <= sloValue;\n        }\n\n        if (sloType == SLOType.GreaterThan) {\n            return _value > sloValue;\n        }\n\n        if (sloType == SLOType.GreaterOrEqualTo) {\n            return _value >= sloValue;\n        }\n        revert(\"isRespected wasn't executed properly\");\n    }\n}\n",
  "sourcePath": "@stacktical/dsla-protocol/contracts/SLORegistry.sol",
  "compiler": {
    "name": "solc",
    "version": "0.6.6+commit.6c089d02.Emscripten.clang"
  },
  "schemaVersion": "3.3.4",
  "updatedAt": "2021-05-05T23:57:45.212Z",
  "devdoc": {
    "details": "SLORegistry is a contract for handling creation of service level objectives and querying those service level objectives",
    "methods": {
      "isRespected(uint256,address)": {
        "details": "external view function to check a value against the SLO",
        "params": {
          "_value": "The SLI value to check against the SL"
        },
        "returns": {
          "_0": "boolean with the SLO honored state"
        }
      },
      "registerSLO(uint256,uint8,address)": {
        "details": "public function for creating service level objectives",
        "params": {
          "_slaAddress": "3. -",
          "_sloType": "2. -",
          "_sloValue": "1. -"
        }
      }
    },
    "title": "SLORegistry"
  },
  "userdoc": {
    "methods": {}
  }
}