{
  "contractName": "StakeRegistry",
  "abi": [
    {
      "inputs": [
        {
          "internalType": "address",
          "name": "_dslaTokenAddress",
          "type": "address"
        }
      ],
      "stateMutability": "nonpayable",
      "type": "constructor"
    },
    {
      "anonymous": false,
      "inputs": [
        {
          "indexed": true,
          "internalType": "address",
          "name": "dTokenAddress",
          "type": "address"
        },
        {
          "indexed": true,
          "internalType": "address",
          "name": "sla",
          "type": "address"
        },
        {
          "indexed": false,
          "internalType": "string",
          "name": "name",
          "type": "string"
        },
        {
          "indexed": false,
          "internalType": "string",
          "name": "symbol",
          "type": "string"
        }
      ],
      "name": "DTokenCreated",
      "type": "event"
    },
    {
      "anonymous": false,
      "inputs": [
        {
          "indexed": true,
          "internalType": "address",
          "name": "sla",
          "type": "address"
        },
        {
          "indexed": true,
          "internalType": "address",
          "name": "owner",
          "type": "address"
        },
        {
          "indexed": false,
          "internalType": "uint256",
          "name": "amount",
          "type": "uint256"
        }
      ],
      "name": "LockedValueReturned",
      "type": "event"
    },
    {
      "anonymous": false,
      "inputs": [
        {
          "indexed": true,
          "internalType": "address",
          "name": "previousOwner",
          "type": "address"
        },
        {
          "indexed": true,
          "internalType": "address",
          "name": "newOwner",
          "type": "address"
        }
      ],
      "name": "OwnershipTransferred",
      "type": "event"
    },
    {
      "anonymous": false,
      "inputs": [
        {
          "indexed": false,
          "internalType": "uint256",
          "name": "DSLAburnRate",
          "type": "uint256"
        },
        {
          "indexed": false,
          "internalType": "uint256",
          "name": "dslaDepositByPeriod",
          "type": "uint256"
        },
        {
          "indexed": false,
          "internalType": "uint256",
          "name": "dslaPlatformReward",
          "type": "uint256"
        },
        {
          "indexed": false,
          "internalType": "uint256",
          "name": "dslaMessengerReward",
          "type": "uint256"
        },
        {
          "indexed": false,
          "internalType": "uint256",
          "name": "dslaUserReward",
          "type": "uint256"
        },
        {
          "indexed": false,
          "internalType": "uint256",
          "name": "dslaBurnedByVerification",
          "type": "uint256"
        },
        {
          "indexed": false,
          "internalType": "uint256",
          "name": "maxTokenLength",
          "type": "uint256"
        },
        {
          "indexed": false,
          "internalType": "uint64",
          "name": "maxLeverage",
          "type": "uint64"
        }
      ],
      "name": "StakingParametersModified",
      "type": "event"
    },
    {
      "anonymous": false,
      "inputs": [
        {
          "indexed": true,
          "internalType": "address",
          "name": "sla",
          "type": "address"
        },
        {
          "indexed": true,
          "internalType": "address",
          "name": "owner",
          "type": "address"
        },
        {
          "indexed": false,
          "internalType": "uint256",
          "name": "amount",
          "type": "uint256"
        }
      ],
      "name": "ValueLocked",
      "type": "event"
    },
    {
      "anonymous": false,
      "inputs": [
        {
          "indexed": true,
          "internalType": "address",
          "name": "sla",
          "type": "address"
        },
        {
          "indexed": true,
          "internalType": "address",
          "name": "requester",
          "type": "address"
        },
        {
          "indexed": false,
          "internalType": "uint256",
          "name": "userReward",
          "type": "uint256"
        },
        {
          "indexed": false,
          "internalType": "uint256",
          "name": "platformReward",
          "type": "uint256"
        },
        {
          "indexed": false,
          "internalType": "uint256",
          "name": "messengerReward",
          "type": "uint256"
        },
        {
          "indexed": false,
          "internalType": "uint256",
          "name": "burnedDSLA",
          "type": "uint256"
        }
      ],
      "name": "VerificationRewardDistributed",
      "type": "event"
    },
    {
      "inputs": [],
      "name": "DSLATokenAddress",
      "outputs": [
        {
          "internalType": "address",
          "name": "",
          "type": "address"
        }
      ],
      "stateMutability": "view",
      "type": "function"
    },
    {
      "inputs": [
        {
          "internalType": "uint256",
          "name": "",
          "type": "uint256"
        }
      ],
      "name": "allowedTokens",
      "outputs": [
        {
          "internalType": "address",
          "name": "",
          "type": "address"
        }
      ],
      "stateMutability": "view",
      "type": "function"
    },
    {
      "inputs": [],
      "name": "owner",
      "outputs": [
        {
          "internalType": "address",
          "name": "",
          "type": "address"
        }
      ],
      "stateMutability": "view",
      "type": "function"
    },
    {
      "inputs": [],
      "name": "renounceOwnership",
      "outputs": [],
      "stateMutability": "nonpayable",
      "type": "function"
    },
    {
      "inputs": [
        {
          "internalType": "address",
          "name": "",
          "type": "address"
        }
      ],
      "name": "slaLockedValue",
      "outputs": [
        {
          "internalType": "uint256",
          "name": "lockedValue",
          "type": "uint256"
        },
        {
          "internalType": "uint256",
          "name": "slaPeriodIdsLength",
          "type": "uint256"
        },
        {
          "internalType": "uint256",
          "name": "dslaDepositByPeriod",
          "type": "uint256"
        },
        {
          "internalType": "uint256",
          "name": "dslaPlatformReward",
          "type": "uint256"
        },
        {
          "internalType": "uint256",
          "name": "dslaMessengerReward",
          "type": "uint256"
        },
        {
          "internalType": "uint256",
          "name": "dslaUserReward",
          "type": "uint256"
        },
        {
          "internalType": "uint256",
          "name": "dslaBurnedByVerification",
          "type": "uint256"
        }
      ],
      "stateMutability": "view",
      "type": "function"
    },
    {
      "inputs": [],
      "name": "slaRegistry",
      "outputs": [
        {
          "internalType": "contract SLARegistry",
          "name": "",
          "type": "address"
        }
      ],
      "stateMutability": "view",
      "type": "function"
    },
    {
      "inputs": [
        {
          "internalType": "address",
          "name": "newOwner",
          "type": "address"
        }
      ],
      "name": "transferOwnership",
      "outputs": [],
      "stateMutability": "nonpayable",
      "type": "function"
    },
    {
      "inputs": [
        {
          "internalType": "address",
          "name": "",
          "type": "address"
        },
        {
          "internalType": "uint256",
          "name": "",
          "type": "uint256"
        }
      ],
      "name": "userStakedSlas",
      "outputs": [
        {
          "internalType": "contract SLA",
          "name": "",
          "type": "address"
        }
      ],
      "stateMutability": "view",
      "type": "function"
    },
    {
      "inputs": [],
      "name": "setSLARegistry",
      "outputs": [],
      "stateMutability": "nonpayable",
      "type": "function"
    },
    {
      "inputs": [
        {
          "internalType": "address",
          "name": "_tokenAddress",
          "type": "address"
        }
      ],
      "name": "addAllowedTokens",
      "outputs": [],
      "stateMutability": "nonpayable",
      "type": "function"
    },
    {
      "inputs": [
        {
          "internalType": "address",
          "name": "_tokenAddress",
          "type": "address"
        }
      ],
      "name": "isAllowedToken",
      "outputs": [
        {
          "internalType": "bool",
          "name": "",
          "type": "bool"
        }
      ],
      "stateMutability": "view",
      "type": "function"
    },
    {
      "inputs": [
        {
          "internalType": "address",
          "name": "_user",
          "type": "address"
        },
        {
          "internalType": "address",
          "name": "_sla",
          "type": "address"
        }
      ],
      "name": "slaWasStakedByUser",
      "outputs": [
        {
          "internalType": "bool",
          "name": "",
          "type": "bool"
        }
      ],
      "stateMutability": "view",
      "type": "function"
    },
    {
      "inputs": [
        {
          "internalType": "address",
          "name": "_owner",
          "type": "address"
        }
      ],
      "name": "registerStakedSla",
      "outputs": [
        {
          "internalType": "bool",
          "name": "",
          "type": "bool"
        }
      ],
      "stateMutability": "nonpayable",
      "type": "function"
    },
    {
      "inputs": [
        {
          "internalType": "string",
          "name": "_name",
          "type": "string"
        },
        {
          "internalType": "string",
          "name": "_symbol",
          "type": "string"
        }
      ],
      "name": "createDToken",
      "outputs": [
        {
          "internalType": "address",
          "name": "",
          "type": "address"
        }
      ],
      "stateMutability": "nonpayable",
      "type": "function"
    },
    {
      "inputs": [
        {
          "internalType": "address",
          "name": "_slaOwner",
          "type": "address"
        },
        {
          "internalType": "address",
          "name": "_sla",
          "type": "address"
        },
        {
          "internalType": "uint256",
          "name": "_periodIdsLength",
          "type": "uint256"
        }
      ],
      "name": "lockDSLAValue",
      "outputs": [],
      "stateMutability": "nonpayable",
      "type": "function"
    },
    {
      "inputs": [
        {
          "internalType": "address",
          "name": "_sla",
          "type": "address"
        },
        {
          "internalType": "address",
          "name": "_verificationRewardReceiver",
          "type": "address"
        },
        {
          "internalType": "uint256",
          "name": "_periodId",
          "type": "uint256"
        }
      ],
      "name": "distributeVerificationRewards",
      "outputs": [],
      "stateMutability": "nonpayable",
      "type": "function"
    },
    {
      "inputs": [
        {
          "internalType": "address",
          "name": "_sla",
          "type": "address"
        }
      ],
      "name": "returnLockedValue",
      "outputs": [],
      "stateMutability": "nonpayable",
      "type": "function"
    },
    {
      "inputs": [
        {
          "internalType": "address",
          "name": "_slaOwner",
          "type": "address"
        }
      ],
      "name": "getActivePool",
      "outputs": [
        {
          "components": [
            {
              "internalType": "address",
              "name": "SLAAddress",
              "type": "address"
            },
            {
              "internalType": "uint256",
              "name": "stake",
              "type": "uint256"
            },
            {
              "internalType": "string",
              "name": "assetName",
              "type": "string"
            },
            {
              "internalType": "address",
              "name": "assetAddress",
              "type": "address"
            }
          ],
          "internalType": "struct StakeRegistry.ActivePool[]",
          "name": "",
          "type": "tuple[]"
        }
      ],
      "stateMutability": "view",
      "type": "function"
    },
    {
      "inputs": [
        {
          "internalType": "uint256",
          "name": "DSLAburnRate",
          "type": "uint256"
        },
        {
          "internalType": "uint256",
          "name": "dslaDepositByPeriod",
          "type": "uint256"
        },
        {
          "internalType": "uint256",
          "name": "dslaPlatformReward",
          "type": "uint256"
        },
        {
          "internalType": "uint256",
          "name": "dslaMessengerReward",
          "type": "uint256"
        },
        {
          "internalType": "uint256",
          "name": "dslaUserReward",
          "type": "uint256"
        },
        {
          "internalType": "uint256",
          "name": "dslaBurnedByVerification",
          "type": "uint256"
        },
        {
          "internalType": "uint256",
          "name": "maxTokenLength",
          "type": "uint256"
        },
        {
          "internalType": "uint64",
          "name": "maxLeverage",
          "type": "uint64"
        }
      ],
      "name": "setStakingParameters",
      "outputs": [],
      "stateMutability": "nonpayable",
      "type": "function"
    },
    {
      "inputs": [],
      "name": "getStakingParameters",
      "outputs": [
        {
          "internalType": "uint256",
          "name": "DSLAburnRate",
          "type": "uint256"
        },
        {
          "internalType": "uint256",
          "name": "dslaDepositByPeriod",
          "type": "uint256"
        },
        {
          "internalType": "uint256",
          "name": "dslaPlatformReward",
          "type": "uint256"
        },
        {
          "internalType": "uint256",
          "name": "dslaMessengerReward",
          "type": "uint256"
        },
        {
          "internalType": "uint256",
          "name": "dslaUserReward",
          "type": "uint256"
        },
        {
          "internalType": "uint256",
          "name": "dslaBurnedByVerification",
          "type": "uint256"
        },
        {
          "internalType": "uint256",
          "name": "maxTokenLength",
          "type": "uint256"
        },
        {
          "internalType": "uint64",
          "name": "maxLeverage",
          "type": "uint64"
        }
      ],
      "stateMutability": "view",
      "type": "function"
    },
    {
      "inputs": [
        {
          "internalType": "address",
          "name": "_sla",
          "type": "address"
        },
        {
          "internalType": "uint256",
          "name": "_periodId",
          "type": "uint256"
        }
      ],
      "name": "periodIsVerified",
      "outputs": [
        {
          "internalType": "bool",
          "name": "",
          "type": "bool"
        }
      ],
      "stateMutability": "view",
      "type": "function"
    }
  ],
  "bytecode": "0x60806040526003600455683635c9adc5dea00000600655680d8d726b7177a80000600755680d8d726b7177a80000600855680d8d726b7177a80000600955680d8d726b7177a80000600a556001600b556064600c60006101000a81548167ffffffffffffffff021916908367ffffffffffffffff1602179055503480156200008657600080fd5b5060405162006ffe38038062006ffe8339818101604052810190620000ac91906200031f565b6000620000be620002a860201b60201c565b9050806000806101000a81548173ffffffffffffffffffffffffffffffffffffffff021916908373ffffffffffffffffffffffffffffffffffffffff1602179055508073ffffffffffffffffffffffffffffffffffffffff16600073ffffffffffffffffffffffffffffffffffffffff167f8be0079c531659141344cd1fd0a4f28419497f9722a3daafe3b4186f6b6457e060405160405180910390a35060018081905550620001b7600a54620001a36009546200018f600854600754620002b060201b620025d51790919060201c565b620002b060201b620025d51790919060201c565b620002b060201b620025d51790919060201c565b60065414620001fd576040517f08c379a0000000000000000000000000000000000000000000000000000000008152600401620001f49062000417565b60405180910390fd5b80600260006101000a81548173ffffffffffffffffffffffffffffffffffffffff021916908373ffffffffffffffffffffffffffffffffffffffff160217905550600d819080600181540180825580915050600190039060005260206000200160009091909190916101000a81548173ffffffffffffffffffffffffffffffffffffffff021916908373ffffffffffffffffffffffffffffffffffffffff1602179055505062000498565b600033905090565b600080828401905083811015620002fe576040517f08c379a0000000000000000000000000000000000000000000000000000000008152600401620002f590620003f5565b60405180910390fd5b8091505092915050565b60008151905062000319816200047e565b92915050565b6000602082840312156200033257600080fd5b6000620003428482850162000308565b91505092915050565b60006200035a601b8362000439565b91507f536166654d6174683a206164646974696f6e206f766572666c6f7700000000006000830152602082019050919050565b60006200039c602c8362000439565b91507f5374616b696e6720706172616d65746572732073686f756c64206d617463682060008301527f6f6e2073756d6d6174696f6e00000000000000000000000000000000000000006020830152604082019050919050565b6000602082019050818103600083015262000410816200034b565b9050919050565b6000602082019050818103600083015262000432816200038d565b9050919050565b600082825260208201905092915050565b600062000457826200045e565b9050919050565b600073ffffffffffffffffffffffffffffffffffffffff82169050919050565b62000489816200044a565b81146200049557600080fd5b50565b616b5680620004a86000396000f3fe60806040523480156200001157600080fd5b5060043610620001545760003560e01c80638b8e530911620000c9578063cbe230c31162000087578063cbe230c314620003c9578063db69a46214620003ff578063f2c0dfd41462000421578063f2fde38b1462000457578063f38815891462000477578063f700839e14620004835762000154565b80638b8e530914620002e35780638da5cb5b1462000305578063a3f5cadf1462000327578063ab9a81a5146200035d578063b290508e14620003935762000154565b80635f635ce111620001175780635f635ce1146200022557806366a0428e14620002615780636d5faa171462000297578063715018a614620002b75780637afb4c0a14620002c35762000154565b80630df0bfc61462000159578063171e44ea146200018f57806322f3c33c14620001af5780632575d7ca14620001cf5780635e5f2e2614620001ef575b600080fd5b62000177600480360381019062000171919062002b63565b620004ac565b6040516200018691906200379c565b60405180910390f35b620001ad6004803603810190620001a7919062002b0b565b620005ce565b005b620001cd6004803603810190620001c7919062002ba4565b62000705565b005b620001ed6004803603810190620001e7919062002b0b565b62000b82565b005b6200020d600480360381019062000207919062002d50565b62000ec6565b6040516200021c9190620036d4565b60405180910390f35b6200024360048036038101906200023d919062002b0b565b62000f03565b60405162000258979695949392919062003b2f565b60405180910390f35b6200027f600480360381019062000279919062002cd4565b62000f45565b6040516200028e9190620036d4565b60405180910390f35b620002b56004803603810190620002af919062002da8565b620011e8565b005b620002c1620013a1565b005b620002e16004803603810190620002db919062002ba4565b620014e3565b005b620002ed6200176c565b604051620002fc9190620036d4565b60405180910390f35b6200030f62001792565b6040516200031e9190620036d4565b60405180910390f35b6200034560048036038101906200033f919062002bfa565b620017bb565b60405162000354919062003803565b60405180910390f35b6200037b600480360381019062000375919062002bfa565b62001807565b6040516200038a91906200379c565b60405180910390f35b620003b16004803603810190620003ab919062002b0b565b62001872565b604051620003c091906200379c565b60405180910390f35b620003e76004803603810190620003e1919062002b0b565b62001a22565b604051620003f691906200379c565b60405180910390f35b6200040962001ac9565b604051620004189190620037e6565b60405180910390f35b6200043f600480360381019062000439919062002b0b565b62001aef565b6040516200044e919062003778565b60405180910390f35b6200047560048036038101906200046f919062002b0b565b62002087565b005b620004816200223b565b005b6200048d62002312565b604051620004a398979695949392919062003bac565b60405180910390f35b600080600090505b600e60008573ffffffffffffffffffffffffffffffffffffffff1673ffffffffffffffffffffffffffffffffffffffff16815260200190815260200160002080549050811015620005c2578273ffffffffffffffffffffffffffffffffffffffff16600e60008673ffffffffffffffffffffffffffffffffffffffff1673ffffffffffffffffffffffffffffffffffffffff16815260200190815260200160002082815481106200056157fe5b9060005260206000200160009054906101000a900473ffffffffffffffffffffffffffffffffffffffff1673ffffffffffffffffffffffffffffffffffffffff161415620005b4576001915050620005c8565b8080600101915050620004b4565b50600090505b92915050565b620005d862002364565b73ffffffffffffffffffffffffffffffffffffffff16620005f862001792565b73ffffffffffffffffffffffffffffffffffffffff161462000651576040517f08c379a0000000000000000000000000000000000000000000000000000000008152600401620006489062003a1b565b60405180910390fd5b6200065c8162001a22565b156200069f576040517f08c379a0000000000000000000000000000000000000000000000000000000008152600401620006969062003971565b60405180910390fd5b600d819080600181540180825580915050600190039060005260206000200160009091909190916101000a81548173ffffffffffffffffffffffffffffffffffffffff021916908373ffffffffffffffffffffffffffffffffffffffff16021790555050565b600360009054906101000a900473ffffffffffffffffffffffffffffffffffffffff1673ffffffffffffffffffffffffffffffffffffffff163373ffffffffffffffffffffffffffffffffffffffff161462000798576040517f08c379a00000000000000000000000000000000000000000000000000000000081526004016200078f90620039b5565b60405180910390fd5b60026001541415620007e1576040517f08c379a0000000000000000000000000000000000000000000000000000000008152600401620007d89062003aa3565b60405180910390fd5b60026001819055506000600560008573ffffffffffffffffffffffffffffffffffffffff1673ffffffffffffffffffffffffffffffffffffffff168152602001908152602001600020905080600701600083815260200190815260200160002060009054906101000a900460ff161562000892576040517f08c379a00000000000000000000000000000000000000000000000000000000081526004016200088990620038c7565b60405180910390fd5b600181600701600084815260200190815260200160002060006101000a81548160ff021916908315150217905550620008dd816002015482600001546200236c90919063ffffffff16565b816000018190555062000938838260050154600260009054906101000a900473ffffffffffffffffffffffffffffffffffffffff1673ffffffffffffffffffffffffffffffffffffffff16620023bf9092919063ffffffff16565b620009946200094662001792565b8260030154600260009054906101000a900473ffffffffffffffffffffffffffffffffffffffff1673ffffffffffffffffffffffffffffffffffffffff16620023bf9092919063ffffffff16565b62000ae98473ffffffffffffffffffffffffffffffffffffffff1663a224ee9c6040518163ffffffff1660e01b815260040160206040518083038186803b158015620009df57600080fd5b505afa158015620009f4573d6000803e3d6000fd5b505050506040513d601f19601f8201168201806040525081019062000a1a919062002b37565b73ffffffffffffffffffffffffffffffffffffffff16638da5cb5b6040518163ffffffff1660e01b815260040160206040518083038186803b15801562000a6057600080fd5b505afa15801562000a75573d6000803e3d6000fd5b505050506040513d601f19601f8201168201806040525081019062000a9b919062002b37565b8260040154600260009054906101000a900473ffffffffffffffffffffffffffffffffffffffff1673ffffffffffffffffffffffffffffffffffffffff16620023bf9092919063ffffffff16565b62000af8816006015462002449565b8273ffffffffffffffffffffffffffffffffffffffff168473ffffffffffffffffffffffffffffffffffffffff167f826cb0a7342bbb8cfd359b578a84d13c8d382259a596846313632ea4f8a9e0df836005015484600301548560040154866006015460405162000b6d949392919062003ae2565b60405180910390a35060018081905550505050565b600360009054906101000a900473ffffffffffffffffffffffffffffffffffffffff1673ffffffffffffffffffffffffffffffffffffffff163373ffffffffffffffffffffffffffffffffffffffff161462000c15576040517f08c379a000000000000000000000000000000000000000000000000000000000815260040162000c0c90620039b5565b60405180910390fd5b6002600154141562000c5e576040517f08c379a000000000000000000000000000000000000000000000000000000000815260040162000c559062003aa3565b60405180910390fd5b60026001819055506000600560008373ffffffffffffffffffffffffffffffffffffffff1673ffffffffffffffffffffffffffffffffffffffff16815260200190815260200160002090506000816000015490506000811162000cf8576040517f08c379a000000000000000000000000000000000000000000000000000000000815260040162000cef9062003a5f565b60405180910390fd5b6000826000018190555062000dd28373ffffffffffffffffffffffffffffffffffffffff16638da5cb5b6040518163ffffffff1660e01b815260040160206040518083038186803b15801562000d4d57600080fd5b505afa15801562000d62573d6000803e3d6000fd5b505050506040513d601f19601f8201168201806040525081019062000d88919062002b37565b82600260009054906101000a900473ffffffffffffffffffffffffffffffffffffffff1673ffffffffffffffffffffffffffffffffffffffff16620023bf9092919063ffffffff16565b8273ffffffffffffffffffffffffffffffffffffffff16638da5cb5b6040518163ffffffff1660e01b815260040160206040518083038186803b15801562000e1957600080fd5b505afa15801562000e2e573d6000803e3d6000fd5b505050506040513d601f19601f8201168201806040525081019062000e54919062002b37565b73ffffffffffffffffffffffffffffffffffffffff168373ffffffffffffffffffffffffffffffffffffffff167f526b43222b64bfcfeed3563208adb6adf96643dbe2b032bf8c1db565f648066b8360405162000eb2919062003ac5565b60405180910390a350506001808190555050565b600d818154811062000ed457fe5b906000526020600020016000915054906101000a900473ffffffffffffffffffffffffffffffffffffffff1681565b60056020528060005260406000206000915090508060000154908060010154908060020154908060030154908060040154908060050154908060060154905087565b6000600360009054906101000a900473ffffffffffffffffffffffffffffffffffffffff1673ffffffffffffffffffffffffffffffffffffffff1663c4277a7b336040518263ffffffff1660e01b815260040162000fa49190620036f1565b60206040518083038186803b15801562000fbd57600080fd5b505afa15801562000fd2573d6000803e3d6000fd5b505050506040513d601f19601f8201168201806040525081019062000ff8919062002c7c565b6200103a576040517f08c379a0000000000000000000000000000000000000000000000000000000008152600401620010319062003883565b60405180910390fd5b6000858585856040516200104e90620029bb565b6200105d949392919062003820565b604051809103906000f0801580156200107a573d6000803e3d6000fd5b5090508073ffffffffffffffffffffffffffffffffffffffff16632f2ff15d8273ffffffffffffffffffffffffffffffffffffffff1663d53913936040518163ffffffff1660e01b815260040160206040518083038186803b158015620010e057600080fd5b505afa158015620010f5573d6000803e3d6000fd5b505050506040513d601f19601f820116820180604052508101906200111b919062002ca8565b336040518363ffffffff1660e01b81526004016200113b929190620037b9565b600060405180830381600087803b1580156200115657600080fd5b505af11580156200116b573d6000803e3d6000fd5b505050503373ffffffffffffffffffffffffffffffffffffffff168173ffffffffffffffffffffffffffffffffffffffff167f775642c5d9d0b2d22469762e2d60401339c2c949c17073f300875b9d519542d588888888604051620011d4949392919062003820565b60405180910390a380915050949350505050565b620011f262002364565b73ffffffffffffffffffffffffffffffffffffffff166200121262001792565b73ffffffffffffffffffffffffffffffffffffffff16146200126b576040517f08c379a0000000000000000000000000000000000000000000000000000000008152600401620012629062003a1b565b60405180910390fd5b876004819055508660068190555085600781905550846008819055508360098190555082600a8190555081600b8190555080600c60006101000a81548167ffffffffffffffff021916908367ffffffffffffffff1602179055506200130a600a54620012fb600954620012ec600854600754620025d590919063ffffffff16565b620025d590919063ffffffff16565b620025d590919063ffffffff16565b6006541462001350576040517f08c379a000000000000000000000000000000000000000000000000000000000815260040162001347906200394f565b60405180910390fd5b7fb09d30c4aaefab365024a041e5b601eeca44d6a96afd45a8603275c8830af5eb88888888888888886040516200138f98979695949392919062003bac565b60405180910390a15050505050505050565b620013ab62002364565b73ffffffffffffffffffffffffffffffffffffffff16620013cb62001792565b73ffffffffffffffffffffffffffffffffffffffff161462001424576040517f08c379a00000000000000000000000000000000000000000000000000000000081526004016200141b9062003a1b565b60405180910390fd5b600073ffffffffffffffffffffffffffffffffffffffff166000809054906101000a900473ffffffffffffffffffffffffffffffffffffffff1673ffffffffffffffffffffffffffffffffffffffff167f8be0079c531659141344cd1fd0a4f28419497f9722a3daafe3b4186f6b6457e060405160405180910390a360008060006101000a81548173ffffffffffffffffffffffffffffffffffffffff021916908373ffffffffffffffffffffffffffffffffffffffff160217905550565b600360009054906101000a900473ffffffffffffffffffffffffffffffffffffffff1673ffffffffffffffffffffffffffffffffffffffff163373ffffffffffffffffffffffffffffffffffffffff161462001576576040517f08c379a00000000000000000000000000000000000000000000000000000000081526004016200156d90620039b5565b60405180910390fd5b60026001541415620015bf576040517f08c379a0000000000000000000000000000000000000000000000000000000008152600401620015b69062003aa3565b60405180910390fd5b60026001819055506000620015e0826006546200262d90919063ffffffff16565b905062001633843083600260009054906101000a900473ffffffffffffffffffffffffffffffffffffffff1673ffffffffffffffffffffffffffffffffffffffff16620026a3909392919063ffffffff16565b6040518060e001604052808281526020018381526020016006548152602001600754815260200160085481526020016009548152602001600a54815250600560008573ffffffffffffffffffffffffffffffffffffffff1673ffffffffffffffffffffffffffffffffffffffff168152602001908152602001600020600082015181600001556020820151816001015560408201518160020155606082015181600301556080820151816004015560a0820151816005015560c082015181600601559050508373ffffffffffffffffffffffffffffffffffffffff168373ffffffffffffffffffffffffffffffffffffffff167fbed8b484d876a51d8bc97cdb1cf64b989bd09f01fa27c956ed58b2eebc7524d98360405162001757919062003ac5565b60405180910390a35060018081905550505050565b600260009054906101000a900473ffffffffffffffffffffffffffffffffffffffff1681565b60008060009054906101000a900473ffffffffffffffffffffffffffffffffffffffff16905090565b600e6020528160005260406000208181548110620017d557fe5b906000526020600020016000915091509054906101000a900473ffffffffffffffffffffffffffffffffffffffff1681565b6000600560008473ffffffffffffffffffffffffffffffffffffffff1673ffffffffffffffffffffffffffffffffffffffff168152602001908152602001600020600701600083815260200190815260200160002060009054906101000a900460ff16905092915050565b6000600360009054906101000a900473ffffffffffffffffffffffffffffffffffffffff1673ffffffffffffffffffffffffffffffffffffffff1663c4277a7b336040518263ffffffff1660e01b8152600401620018d19190620036f1565b60206040518083038186803b158015620018ea57600080fd5b505afa158015620018ff573d6000803e3d6000fd5b505050506040513d601f19601f8201168201806040525081019062001925919062002c7c565b62001967576040517f08c379a00000000000000000000000000000000000000000000000000000000081526004016200195e9062003883565b60405180910390fd5b620019738233620004ac565b62001a1957600e60008373ffffffffffffffffffffffffffffffffffffffff1673ffffffffffffffffffffffffffffffffffffffff168152602001908152602001600020339080600181540180825580915050600190039060005260206000200160009091909190916101000a81548173ffffffffffffffffffffffffffffffffffffffff021916908373ffffffffffffffffffffffffffffffffffffffff1602179055505b60019050919050565b600080600090505b600d8054905081101562001abe578273ffffffffffffffffffffffffffffffffffffffff16600d828154811062001a5d57fe5b9060005260206000200160009054906101000a900473ffffffffffffffffffffffffffffffffffffffff1673ffffffffffffffffffffffffffffffffffffffff16141562001ab057600191505062001ac4565b808060010191505062001a2a565b50600090505b919050565b600360009054906101000a900473ffffffffffffffffffffffffffffffffffffffff1681565b606060006040518060400160405280600681526020017f6e616d6528290000000000000000000000000000000000000000000000000000815250805190602001209050600080905060008090505b600e60008673ffffffffffffffffffffffffffffffffffffffff1673ffffffffffffffffffffffffffffffffffffffff1681526020019081526020016000208054905081101562001ca9576000600e60008773ffffffffffffffffffffffffffffffffffffffff1673ffffffffffffffffffffffffffffffffffffffff168152602001908152602001600020828154811062001bd557fe5b9060005260206000200160009054906101000a900473ffffffffffffffffffffffffffffffffffffffff16905062001c988173ffffffffffffffffffffffffffffffffffffffff1663b7bc347e6040518163ffffffff1660e01b815260040160206040518083038186803b15801562001c4d57600080fd5b505afa15801562001c62573d6000803e3d6000fd5b505050506040513d601f19601f8201168201806040525081019062001c88919062002d7c565b84620025d590919063ffffffff16565b925050808060010191505062001b3d565b5060608167ffffffffffffffff8111801562001cc457600080fd5b5060405190808252806020026020018201604052801562001d0257816020015b62001cee620029c9565b81526020019060019003908162001ce45790505b509050600080905060008090505b600e60008873ffffffffffffffffffffffffffffffffffffffff1673ffffffffffffffffffffffffffffffffffffffff168152602001908152602001600020805490508110156200207a576000600e60008973ffffffffffffffffffffffffffffffffffffffff1673ffffffffffffffffffffffffffffffffffffffff168152602001908152602001600020828154811062001da857fe5b9060005260206000200160009054906101000a900473ffffffffffffffffffffffffffffffffffffffff16905060008090505b8173ffffffffffffffffffffffffffffffffffffffff1663b7bc347e6040518163ffffffff1660e01b815260040160206040518083038186803b15801562001e2257600080fd5b505afa15801562001e37573d6000803e3d6000fd5b505050506040513d601f19601f8201168201806040525081019062001e5d919062002d7c565b8110156200206a576000808373ffffffffffffffffffffffffffffffffffffffff166357ac94f08c856040518363ffffffff1660e01b815260040162001ea59291906200374b565b604080518083038186803b15801562001ebd57600080fd5b505afa15801562001ed2573d6000803e3d6000fd5b505050506040513d601f19601f8201168201806040525081019062001ef8919062002c3b565b9150915060608273ffffffffffffffffffffffffffffffffffffffff168a604051602401604051602081830303815290604052907bffffffffffffffffffffffffffffffffffffffffffffffffffffffff19166020820180517bffffffffffffffffffffffffffffffffffffffffffffffffffffffff838183161783525050505060405162001f889190620036bb565b600060405180830381855afa9150503d806000811462001fc5576040519150601f19603f3d011682016040523d82523d6000602084013e62001fca565b606091505b5091505062001fd8620029c9565b60405180608001604052808773ffffffffffffffffffffffffffffffffffffffff1681526020018481526020018381526020018573ffffffffffffffffffffffffffffffffffffffff168152509050808989815181106200203557fe5b602002602001018190525062002056600189620025d590919063ffffffff16565b975050505050808060010191505062001ddb565b5050808060010191505062001d10565b5081945050505050919050565b6200209162002364565b73ffffffffffffffffffffffffffffffffffffffff16620020b162001792565b73ffffffffffffffffffffffffffffffffffffffff16146200210a576040517f08c379a0000000000000000000000000000000000000000000000000000000008152600401620021019062003a1b565b60405180910390fd5b600073ffffffffffffffffffffffffffffffffffffffff168173ffffffffffffffffffffffffffffffffffffffff1614156200217d576040517f08c379a00000000000000000000000000000000000000000000000000000000081526004016200217490620038a5565b60405180910390fd5b8073ffffffffffffffffffffffffffffffffffffffff166000809054906101000a900473ffffffffffffffffffffffffffffffffffffffff1673ffffffffffffffffffffffffffffffffffffffff167f8be0079c531659141344cd1fd0a4f28419497f9722a3daafe3b4186f6b6457e060405160405180910390a3806000806101000a81548173ffffffffffffffffffffffffffffffffffffffff021916908373ffffffffffffffffffffffffffffffffffffffff16021790555050565b600073ffffffffffffffffffffffffffffffffffffffff16600360009054906101000a900473ffffffffffffffffffffffffffffffffffffffff1673ffffffffffffffffffffffffffffffffffffffff1614620022cf576040517f08c379a0000000000000000000000000000000000000000000000000000000008152600401620022c69062003993565b60405180910390fd5b33600360006101000a81548173ffffffffffffffffffffffffffffffffffffffff021916908373ffffffffffffffffffffffffffffffffffffffff160217905550565b60008060008060008060008060045497506006549650600754955060085494506009549350600a549250600b549150600c60009054906101000a900467ffffffffffffffff1690509091929394959697565b600033905090565b600082821115620023b4576040517f08c379a0000000000000000000000000000000000000000000000000000000008152600401620023ab906200390b565b60405180910390fd5b818303905092915050565b620024448363a9059cbb60e01b8484604051602401620023e19291906200374b565b604051602081830303815290604052907bffffffffffffffffffffffffffffffffffffffffffffffffffffffff19166020820180517bffffffffffffffffffffffffffffffffffffffffffffffffffffffff838183161783525050505062002730565b505050565b60006040518060400160405280600d81526020017f6275726e2875696e7432353629000000000000000000000000000000000000008152508051906020012090506000600260009054906101000a900473ffffffffffffffffffffffffffffffffffffffff1673ffffffffffffffffffffffffffffffffffffffff168284604051602401620024d9919062003ac5565b604051602081830303815290604052907bffffffffffffffffffffffffffffffffffffffffffffffffffffffff19166020820180517bffffffffffffffffffffffffffffffffffffffffffffffffffffffff8381831617835250505050604051620025459190620036bb565b6000604051808303816000865af19150503d806000811462002584576040519150601f19603f3d011682016040523d82523d6000602084013e62002589565b606091505b5050905080620025d0576040517f08c379a0000000000000000000000000000000000000000000000000000000008152600401620025c790620039d7565b60405180910390fd5b505050565b60008082840190508381101562002623576040517f08c379a00000000000000000000000000000000000000000000000000000000081526004016200261a90620038e9565b60405180910390fd5b8091505092915050565b6000808314156200264257600090506200269d565b60008284029050828482816200265457fe5b041462002698576040517f08c379a00000000000000000000000000000000000000000000000000000000081526004016200268f90620039f9565b60405180910390fd5b809150505b92915050565b6200272a846323b872dd60e01b858585604051602401620026c7939291906200370e565b604051602081830303815290604052907bffffffffffffffffffffffffffffffffffffffffffffffffffffffff19166020820180517bffffffffffffffffffffffffffffffffffffffffffffffffffffffff838183161783525050505062002730565b50505050565b606062002794826040518060400160405280602081526020017f5361666545524332303a206c6f772d6c6576656c2063616c6c206661696c65648152508573ffffffffffffffffffffffffffffffffffffffff16620027ff9092919063ffffffff16565b9050600081511115620027fa5780806020019051810190620027b7919062002c7c565b620027f9576040517f08c379a0000000000000000000000000000000000000000000000000000000008152600401620027f09062003a81565b60405180910390fd5b5b505050565b606062002810848460008562002819565b90509392505050565b60608247101562002861576040517f08c379a000000000000000000000000000000000000000000000000000000000815260040162002858906200392d565b60405180910390fd5b6200286c856200293c565b620028ae576040517f08c379a0000000000000000000000000000000000000000000000000000000008152600401620028a59062003a3d565b60405180910390fd5b600060608673ffffffffffffffffffffffffffffffffffffffff168587604051620028da9190620036bb565b60006040518083038185875af1925050503d806000811462002919576040519150601f19603f3d011682016040523d82523d6000602084013e6200291e565b606091505b5091509150620029308282866200294f565b92505050949350505050565b600080823b905060008111915050919050565b606083156200296157829050620029b4565b600083511115620029755782518084602001fd5b816040517f08c379a0000000000000000000000000000000000000000000000000000000008152600401620029ab91906200385f565b60405180910390fd5b9392505050565b612c9e8062003e8383390190565b6040518060800160405280600073ffffffffffffffffffffffffffffffffffffffff1681526020016000815260200160608152602001600073ffffffffffffffffffffffffffffffffffffffff1681525090565b60008135905062002a2e8162003e00565b92915050565b60008151905062002a458162003e00565b92915050565b60008151905062002a5c8162003e1a565b92915050565b60008151905062002a738162003e34565b92915050565b60008083601f84011262002a8c57600080fd5b8235905067ffffffffffffffff81111562002aa657600080fd5b60208301915083600182028301111562002abf57600080fd5b9250929050565b60008135905062002ad78162003e4e565b92915050565b60008151905062002aee8162003e4e565b92915050565b60008135905062002b058162003e68565b92915050565b60006020828403121562002b1e57600080fd5b600062002b2e8482850162002a1d565b91505092915050565b60006020828403121562002b4a57600080fd5b600062002b5a8482850162002a34565b91505092915050565b6000806040838503121562002b7757600080fd5b600062002b878582860162002a1d565b925050602062002b9a8582860162002a1d565b9150509250929050565b60008060006060848603121562002bba57600080fd5b600062002bca8682870162002a1d565b935050602062002bdd8682870162002a1d565b925050604062002bf08682870162002ac6565b9150509250925092565b6000806040838503121562002c0e57600080fd5b600062002c1e8582860162002a1d565b925050602062002c318582860162002ac6565b9150509250929050565b6000806040838503121562002c4f57600080fd5b600062002c5f8582860162002a34565b925050602062002c728582860162002add565b9150509250929050565b60006020828403121562002c8f57600080fd5b600062002c9f8482850162002a4b565b91505092915050565b60006020828403121562002cbb57600080fd5b600062002ccb8482850162002a62565b91505092915050565b6000806000806040858703121562002ceb57600080fd5b600085013567ffffffffffffffff81111562002d0657600080fd5b62002d148782880162002a79565b9450945050602085013567ffffffffffffffff81111562002d3457600080fd5b62002d428782880162002a79565b925092505092959194509250565b60006020828403121562002d6357600080fd5b600062002d738482850162002ac6565b91505092915050565b60006020828403121562002d8f57600080fd5b600062002d9f8482850162002add565b91505092915050565b600080600080600080600080610100898b03121562002dc657600080fd5b600062002dd68b828c0162002ac6565b985050602062002de98b828c0162002ac6565b975050604062002dfc8b828c0162002ac6565b965050606062002e0f8b828c0162002ac6565b955050608062002e228b828c0162002ac6565b94505060a062002e358b828c0162002ac6565b93505060c062002e488b828c0162002ac6565b92505060e062002e5b8b828c0162002af4565b9150509295985092959890939650565b600062002e7983836200361d565b905092915050565b62002e8c8162003d1e565b82525050565b62002e9d8162003cb6565b82525050565b62002eae8162003cb6565b82525050565b600062002ec18262003c4a565b62002ecd818562003c78565b93508360208202850162002ee18562003c3a565b8060005b8581101562002f23578484038952815162002f01858262002e6b565b945062002f0e8362003c6b565b925060208a0199505060018101905062002ee5565b50829750879550505050505092915050565b62002f408162003cca565b82525050565b62002f518162003cd6565b82525050565b600062002f648262003c55565b62002f70818562003c89565b935062002f8281856020860162003db9565b80840191505092915050565b62002f998162003d32565b82525050565b62002faa8162003d5a565b82525050565b600062002fbe838562003ca5565b935062002fcd83858462003daa565b62002fd88362003def565b840190509392505050565b600062002ff08262003c60565b62002ffc818562003c94565b93506200300e81856020860162003db9565b620030198162003def565b840191505092915050565b6000620030318262003c60565b6200303d818562003ca5565b93506200304f81856020860162003db9565b6200305a8162003def565b840191505092915050565b60006200307460188362003ca5565b91507f4f6e6c7920666f72207265676973746572656420534c417300000000000000006000830152602082019050919050565b6000620030b660268362003ca5565b91507f4f776e61626c653a206e6577206f776e657220697320746865207a65726f206160008301527f64647265737300000000000000000000000000000000000000000000000000006020830152604082019050919050565b60006200311e60228362003ca5565b91507f506572696f64207265776172647320616c72656164792064697374726962757460008301527f65640000000000000000000000000000000000000000000000000000000000006020830152604082019050919050565b600062003186601b8362003ca5565b91507f536166654d6174683a206164646974696f6e206f766572666c6f7700000000006000830152602082019050919050565b6000620031c8601e8362003ca5565b91507f536166654d6174683a207375627472616374696f6e206f766572666c6f7700006000830152602082019050919050565b60006200320a60268362003ca5565b91507f416464726573733a20696e73756666696369656e742062616c616e636520666f60008301527f722063616c6c00000000000000000000000000000000000000000000000000006020830152604082019050919050565b600062003272602c8362003ca5565b91507f5374616b696e6720706172616d65746572732073686f756c64206d617463682060008301527f6f6e2073756d6d6174696f6e00000000000000000000000000000000000000006020830152604082019050919050565b6000620032da60138362003ca5565b91507f746f6b656e20616c7265616479206164646564000000000000000000000000006000830152602082019050919050565b60006200331c60288362003ca5565b91507f534c41526567697374727920616464726573732068617320616c72656164792060008301527f6265656e207365740000000000000000000000000000000000000000000000006020830152604082019050919050565b60006200338460218362003ca5565b91507f43616e206f6e6c792062652063616c6c656420627920534c415265676973747260008301527f79000000000000000000000000000000000000000000000000000000000000006020830152604082019050919050565b6000620033ec60248362003ca5565b91507f44534c41206275726e2070726f6365737320776173206e6f742073756363657360008301527f7366756c000000000000000000000000000000000000000000000000000000006020830152604082019050919050565b60006200345460218362003ca5565b91507f536166654d6174683a206d756c7469706c69636174696f6e206f766572666c6f60008301527f77000000000000000000000000000000000000000000000000000000000000006020830152604082019050919050565b6000620034bc60208362003ca5565b91507f4f776e61626c653a2063616c6c6572206973206e6f7420746865206f776e65726000830152602082019050919050565b6000620034fe601d8362003ca5565b91507f416464726573733a2063616c6c20746f206e6f6e2d636f6e74726163740000006000830152602082019050919050565b60006200354060158362003ca5565b91507f6c6f636b65642076616c756520697320656d70747900000000000000000000006000830152602082019050919050565b600062003582602a8362003ca5565b91507f5361666545524332303a204552433230206f7065726174696f6e20646964206e60008301527f6f742073756363656564000000000000000000000000000000000000000000006020830152604082019050919050565b6000620035ea601f8362003ca5565b91507f5265656e7472616e637947756172643a207265656e7472616e742063616c6c006000830152602082019050919050565b600060808301600083015162003637600086018262002e92565b5060208301516200364c602086018262003688565b506040830151848203604086015262003666828262002fe3565b91505060608301516200367d606086018262002e92565b508091505092915050565b620036938162003d00565b82525050565b620036a48162003d00565b82525050565b620036b58162003d0a565b82525050565b6000620036c9828462002f57565b915081905092915050565b6000602082019050620036eb600083018462002ea3565b92915050565b600060208201905062003708600083018462002e81565b92915050565b600060608201905062003725600083018662002ea3565b62003734602083018562002ea3565b62003743604083018462003699565b949350505050565b600060408201905062003762600083018562002ea3565b62003771602083018462003699565b9392505050565b6000602082019050818103600083015262003794818462002eb4565b905092915050565b6000602082019050620037b3600083018462002f35565b92915050565b6000604082019050620037d0600083018562002f46565b620037df602083018462002e81565b9392505050565b6000602082019050620037fd600083018462002f8e565b92915050565b60006020820190506200381a600083018462002f9f565b92915050565b600060408201905081810360008301526200383d81868862002fb0565b905081810360208301526200385481848662002fb0565b905095945050505050565b600060208201905081810360008301526200387b818462003024565b905092915050565b600060208201905081810360008301526200389e8162003065565b9050919050565b60006020820190508181036000830152620038c081620030a7565b9050919050565b60006020820190508181036000830152620038e2816200310f565b9050919050565b60006020820190508181036000830152620039048162003177565b9050919050565b600060208201905081810360008301526200392681620031b9565b9050919050565b600060208201905081810360008301526200394881620031fb565b9050919050565b600060208201905081810360008301526200396a8162003263565b9050919050565b600060208201905081810360008301526200398c81620032cb565b9050919050565b60006020820190508181036000830152620039ae816200330d565b9050919050565b60006020820190508181036000830152620039d08162003375565b9050919050565b60006020820190508181036000830152620039f281620033dd565b9050919050565b6000602082019050818103600083015262003a148162003445565b9050919050565b6000602082019050818103600083015262003a3681620034ad565b9050919050565b6000602082019050818103600083015262003a5881620034ef565b9050919050565b6000602082019050818103600083015262003a7a8162003531565b9050919050565b6000602082019050818103600083015262003a9c8162003573565b9050919050565b6000602082019050818103600083015262003abe81620035db565b9050919050565b600060208201905062003adc600083018462003699565b92915050565b600060808201905062003af9600083018762003699565b62003b08602083018662003699565b62003b17604083018562003699565b62003b26606083018462003699565b95945050505050565b600060e08201905062003b46600083018a62003699565b62003b55602083018962003699565b62003b64604083018862003699565b62003b73606083018762003699565b62003b82608083018662003699565b62003b9160a083018562003699565b62003ba060c083018462003699565b98975050505050505050565b60006101008201905062003bc4600083018b62003699565b62003bd3602083018a62003699565b62003be2604083018962003699565b62003bf1606083018862003699565b62003c00608083018762003699565b62003c0f60a083018662003699565b62003c1e60c083018562003699565b62003c2d60e0830184620036aa565b9998505050505050505050565b6000819050602082019050919050565b600081519050919050565b600081519050919050565b600081519050919050565b6000602082019050919050565b600082825260208201905092915050565b600081905092915050565b600082825260208201905092915050565b600082825260208201905092915050565b600062003cc38262003ce0565b9050919050565b60008115159050919050565b6000819050919050565b600073ffffffffffffffffffffffffffffffffffffffff82169050919050565b6000819050919050565b600067ffffffffffffffff82169050919050565b600062003d2b8262003d82565b9050919050565b600062003d3f8262003d46565b9050919050565b600062003d538262003ce0565b9050919050565b600062003d678262003d6e565b9050919050565b600062003d7b8262003ce0565b9050919050565b600062003d8f8262003d96565b9050919050565b600062003da38262003ce0565b9050919050565b82818337600083830152505050565b60005b8381101562003dd957808201518184015260208101905062003dbc565b8381111562003de9576000848401525b50505050565b6000601f19601f8301169050919050565b62003e0b8162003cb6565b811462003e1757600080fd5b50565b62003e258162003cca565b811462003e3157600080fd5b50565b62003e3f8162003cd6565b811462003e4b57600080fd5b50565b62003e598162003d00565b811462003e6557600080fd5b50565b62003e738162003d0a565b811462003e7f57600080fd5b5056fe60806040523480156200001157600080fd5b5060405162002c9e38038062002c9e833981810160405260408110156200003757600080fd5b81019080805160405193929190846401000000008211156200005857600080fd5b838201915060208201858111156200006f57600080fd5b82518660018202830111640100000000821117156200008d57600080fd5b8083526020830192505050908051906020019080838360005b83811015620000c3578082015181840152602081019050620000a6565b50505050905090810190601f168015620000f15780820380516001836020036101000a031916815260200191505b50604052602001805160405193929190846401000000008211156200011557600080fd5b838201915060208201858111156200012c57600080fd5b82518660018202830111640100000000821117156200014a57600080fd5b8083526020830192505050908051906020019080838360005b838110156200018057808201518184015260208101905062000163565b50505050905090810190601f168015620001ae5780820380516001836020036101000a031916815260200191505b5060405250505081818160049080519060200190620001cf92919062000490565b508060059080519060200190620001e892919062000490565b506012600660006101000a81548160ff021916908360ff16021790555050506000600660016101000a81548160ff021916908315150217905550620002466000801b6200023a620002fa60201b60201c565b6200030260201b60201c565b6200029c60405180807f4d494e5445525f524f4c45000000000000000000000000000000000000000000815250600b019050604051809103902062000290620002fa60201b60201c565b6200030260201b60201c565b620002f260405180807f5041555345525f524f4c45000000000000000000000000000000000000000000815250600b0190506040518091039020620002e6620002fa60201b60201c565b6200030260201b60201c565b50506200053f565b600033905090565b6200031482826200031860201b60201c565b5050565b6200034681600080858152602001908152602001600020600001620003bb60201b620020cc1790919060201c565b15620003b7576200035c620002fa60201b60201c565b73ffffffffffffffffffffffffffffffffffffffff168173ffffffffffffffffffffffffffffffffffffffff16837f2f8788117e7eff1d82e926ec794901d17c78024a50270940304540a733656f0d60405160405180910390a45b5050565b6000620003eb836000018373ffffffffffffffffffffffffffffffffffffffff1660001b620003f360201b60201c565b905092915050565b60006200040783836200046d60201b60201c565b6200046257826000018290806001815401808255809150506001900390600052602060002001600090919091909150558260000180549050836001016000848152602001908152602001600020819055506001905062000467565b600090505b92915050565b600080836001016000848152602001908152602001600020541415905092915050565b828054600181600116156101000203166002900490600052602060002090601f016020900481019282601f10620004d357805160ff191683800117855562000504565b8280016001018555821562000504579182015b8281111562000503578251825591602001919060010190620004e6565b5b50905062000513919062000517565b5090565b6200053c91905b80821115620005385760008160009055506001016200051e565b5090565b90565b61274f806200054f6000396000f3fe608060405234801561001057600080fd5b50600436106101a95760003560e01c806370a08231116100f9578063a457c2d711610097578063d539139311610071578063d539139314610888578063d547741f146108a6578063dd62ed3e146108f4578063e63ab1e91461096c576101a9565b8063a457c2d71461077a578063a9059cbb146107e0578063ca15c87314610846576101a9565b80639010d07c116100d35780639010d07c146105fb57806391d148541461067357806395d89b41146106d9578063a217fddf1461075c576101a9565b806370a082311461054b57806379cc6790146105a35780638456cb59146105f1576101a9565b8063313ce567116101665780633f4ba83a116101405780633f4ba83a146104a357806340c10f19146104ad57806342966c68146104fb5780635c975abb14610529576101a9565b8063313ce567146103cb57806336568abe146103ef578063395093511461043d576101a9565b806306fdde03146101ae578063095ea7b31461023157806318160ddd1461029757806323b872dd146102b5578063248a9ca31461033b5780632f2ff15d1461037d575b600080fd5b6101b661098a565b6040518080602001828103825283818151815260200191508051906020019080838360005b838110156101f65780820151818401526020810190506101db565b50505050905090810190601f1680156102235780820380516001836020036101000a031916815260200191505b509250505060405180910390f35b61027d6004803603604081101561024757600080fd5b81019080803573ffffffffffffffffffffffffffffffffffffffff16906020019092919080359060200190929190505050610a2c565b604051808215151515815260200191505060405180910390f35b61029f610a4a565b6040518082815260200191505060405180910390f35b610321600480360360608110156102cb57600080fd5b81019080803573ffffffffffffffffffffffffffffffffffffffff169060200190929190803573ffffffffffffffffffffffffffffffffffffffff16906020019092919080359060200190929190505050610a54565b604051808215151515815260200191505060405180910390f35b6103676004803603602081101561035157600080fd5b8101908080359060200190929190505050610b2d565b6040518082815260200191505060405180910390f35b6103c96004803603604081101561039357600080fd5b8101908080359060200190929190803573ffffffffffffffffffffffffffffffffffffffff169060200190929190505050610b4c565b005b6103d3610bd5565b604051808260ff1660ff16815260200191505060405180910390f35b61043b6004803603604081101561040557600080fd5b8101908080359060200190929190803573ffffffffffffffffffffffffffffffffffffffff169060200190929190505050610bec565b005b6104896004803603604081101561045357600080fd5b81019080803573ffffffffffffffffffffffffffffffffffffffff16906020019092919080359060200190929190505050610c85565b604051808215151515815260200191505060405180910390f35b6104ab610d38565b005b6104f9600480360360408110156104c357600080fd5b81019080803573ffffffffffffffffffffffffffffffffffffffff16906020019092919080359060200190929190505050610ddd565b005b6105276004803603602081101561051157600080fd5b8101908080359060200190929190505050610e86565b005b610531610e9a565b604051808215151515815260200191505060405180910390f35b61058d6004803603602081101561056157600080fd5b81019080803573ffffffffffffffffffffffffffffffffffffffff169060200190929190505050610eb1565b6040518082815260200191505060405180910390f35b6105ef600480360360408110156105b957600080fd5b81019080803573ffffffffffffffffffffffffffffffffffffffff16906020019092919080359060200190929190505050610efa565b005b6105f9610f5c565b005b6106316004803603604081101561061157600080fd5b810190808035906020019092919080359060200190929190505050611001565b604051808273ffffffffffffffffffffffffffffffffffffffff1673ffffffffffffffffffffffffffffffffffffffff16815260200191505060405180910390f35b6106bf6004803603604081101561068957600080fd5b8101908080359060200190929190803573ffffffffffffffffffffffffffffffffffffffff169060200190929190505050611032565b604051808215151515815260200191505060405180910390f35b6106e1611063565b6040518080602001828103825283818151815260200191508051906020019080838360005b83811015610721578082015181840152602081019050610706565b50505050905090810190601f16801561074e5780820380516001836020036101000a031916815260200191505b509250505060405180910390f35b610764611105565b6040518082815260200191505060405180910390f35b6107c66004803603604081101561079057600080fd5b81019080803573ffffffffffffffffffffffffffffffffffffffff1690602001909291908035906020019092919050505061110c565b604051808215151515815260200191505060405180910390f35b61082c600480360360408110156107f657600080fd5b81019080803573ffffffffffffffffffffffffffffffffffffffff169060200190929190803590602001909291905050506111d9565b604051808215151515815260200191505060405180910390f35b6108726004803603602081101561085c57600080fd5b81019080803590602001909291905050506111f7565b6040518082815260200191505060405180910390f35b61089061121d565b6040518082815260200191505060405180910390f35b6108f2600480360360408110156108bc57600080fd5b8101908080359060200190929190803573ffffffffffffffffffffffffffffffffffffffff169060200190929190505050611256565b005b6109566004803603604081101561090a57600080fd5b81019080803573ffffffffffffffffffffffffffffffffffffffff169060200190929190803573ffffffffffffffffffffffffffffffffffffffff1690602001909291905050506112df565b6040518082815260200191505060405180910390f35b610974611366565b6040518082815260200191505060405180910390f35b606060048054600181600116156101000203166002900480601f016020809104026020016040519081016040528092919081815260200182805460018160011615610100020316600290048015610a225780601f106109f757610100808354040283529160200191610a22565b820191906000526020600020905b815481529060010190602001808311610a0557829003601f168201915b5050505050905090565b6000610a40610a3961139f565b84846113a7565b6001905092915050565b6000600354905090565b6000610a6184848461159e565b610b2284610a6d61139f565b610b1d8560405180606001604052806028815260200161257960289139600260008b73ffffffffffffffffffffffffffffffffffffffff1673ffffffffffffffffffffffffffffffffffffffff1681526020019081526020016000206000610ad361139f565b73ffffffffffffffffffffffffffffffffffffffff1673ffffffffffffffffffffffffffffffffffffffff168152602001908152602001600020546118639092919063ffffffff16565b6113a7565b600190509392505050565b6000806000838152602001908152602001600020600201549050919050565b610b7260008084815260200190815260200160002060020154610b6d61139f565b611032565b610bc7576040517f08c379a000000000000000000000000000000000000000000000000000000000815260040180806020018281038252602f815260200180612477602f913960400191505060405180910390fd5b610bd1828261191d565b5050565b6000600660009054906101000a900460ff16905090565b610bf461139f565b73ffffffffffffffffffffffffffffffffffffffff168173ffffffffffffffffffffffffffffffffffffffff1614610c77576040517f08c379a000000000000000000000000000000000000000000000000000000000815260040180806020018281038252602f8152602001806126c1602f913960400191505060405180910390fd5b610c8182826119b0565b5050565b6000610d2e610c9261139f565b84610d298560026000610ca361139f565b73ffffffffffffffffffffffffffffffffffffffff1673ffffffffffffffffffffffffffffffffffffffff16815260200190815260200160002060008973ffffffffffffffffffffffffffffffffffffffff1673ffffffffffffffffffffffffffffffffffffffff16815260200190815260200160002054611a4390919063ffffffff16565b6113a7565b6001905092915050565b610d7e60405180807f5041555345525f524f4c45000000000000000000000000000000000000000000815250600b0190506040518091039020610d7961139f565b611032565b610dd3576040517f08c379a00000000000000000000000000000000000000000000000000000000081526004018080602001828103825260398152602001806124c86039913960400191505060405180910390fd5b610ddb611acb565b565b610e2360405180807f4d494e5445525f524f4c45000000000000000000000000000000000000000000815250600b0190506040518091039020610e1e61139f565b611032565b610e78576040517f08c379a00000000000000000000000000000000000000000000000000000000081526004018080602001828103825260368152602001806125a16036913960400191505060405180910390fd5b610e828282611bcc565b5050565b610e97610e9161139f565b82611d95565b50565b6000600660019054906101000a900460ff16905090565b6000600160008373ffffffffffffffffffffffffffffffffffffffff1673ffffffffffffffffffffffffffffffffffffffff168152602001908152602001600020549050919050565b6000610f39826040518060600160405280602481526020016125d760249139610f2a86610f2561139f565b6112df565b6118639092919063ffffffff16565b9050610f4d83610f4761139f565b836113a7565b610f578383611d95565b505050565b610fa260405180807f5041555345525f524f4c45000000000000000000000000000000000000000000815250600b0190506040518091039020610f9d61139f565b611032565b610ff7576040517f08c379a00000000000000000000000000000000000000000000000000000000081526004018080602001828103825260378152602001806126656037913960400191505060405180910390fd5b610fff611f5b565b565b600061102a8260008086815260200190815260200160002060000161205d90919063ffffffff16565b905092915050565b600061105b8260008086815260200190815260200160002060000161207790919063ffffffff16565b905092915050565b606060058054600181600116156101000203166002900480601f0160208091040260200160405190810160405280929190818152602001828054600181600116156101000203166002900480156110fb5780601f106110d0576101008083540402835291602001916110fb565b820191906000526020600020905b8154815290600101906020018083116110de57829003601f168201915b5050505050905090565b6000801b81565b60006111cf61111961139f565b846111ca8560405180606001604052806025815260200161269c602591396002600061114361139f565b73ffffffffffffffffffffffffffffffffffffffff1673ffffffffffffffffffffffffffffffffffffffff16815260200190815260200160002060008a73ffffffffffffffffffffffffffffffffffffffff1673ffffffffffffffffffffffffffffffffffffffff168152602001908152602001600020546118639092919063ffffffff16565b6113a7565b6001905092915050565b60006111ed6111e661139f565b848461159e565b6001905092915050565b60006112166000808481526020019081526020016000206000016120a7565b9050919050565b60405180807f4d494e5445525f524f4c45000000000000000000000000000000000000000000815250600b019050604051809103902081565b61127c6000808481526020019081526020016000206002015461127761139f565b611032565b6112d1576040517f08c379a00000000000000000000000000000000000000000000000000000000081526004018080602001828103825260308152602001806125496030913960400191505060405180910390fd5b6112db82826119b0565b5050565b6000600260008473ffffffffffffffffffffffffffffffffffffffff1673ffffffffffffffffffffffffffffffffffffffff16815260200190815260200160002060008373ffffffffffffffffffffffffffffffffffffffff1673ffffffffffffffffffffffffffffffffffffffff16815260200190815260200160002054905092915050565b60405180807f5041555345525f524f4c45000000000000000000000000000000000000000000815250600b019050604051809103902081565b600033905090565b600073ffffffffffffffffffffffffffffffffffffffff168373ffffffffffffffffffffffffffffffffffffffff16141561142d576040517f08c379a00000000000000000000000000000000000000000000000000000000081526004018080602001828103825260248152602001806126416024913960400191505060405180910390fd5b600073ffffffffffffffffffffffffffffffffffffffff168273ffffffffffffffffffffffffffffffffffffffff1614156114b3576040517f08c379a00000000000000000000000000000000000000000000000000000000081526004018080602001828103825260228152602001806125016022913960400191505060405180910390fd5b80600260008573ffffffffffffffffffffffffffffffffffffffff1673ffffffffffffffffffffffffffffffffffffffff16815260200190815260200160002060008473ffffffffffffffffffffffffffffffffffffffff1673ffffffffffffffffffffffffffffffffffffffff168152602001908152602001600020819055508173ffffffffffffffffffffffffffffffffffffffff168373ffffffffffffffffffffffffffffffffffffffff167f8c5be1e5ebec7d5bd14f71427d1e84f3dd0314c0f7b2291e5b200ac8c7c3b925836040518082815260200191505060405180910390a3505050565b600073ffffffffffffffffffffffffffffffffffffffff168373ffffffffffffffffffffffffffffffffffffffff161415611624576040517f08c379a000000000000000000000000000000000000000000000000000000000815260040180806020018281038252602581526020018061261c6025913960400191505060405180910390fd5b600073ffffffffffffffffffffffffffffffffffffffff168273ffffffffffffffffffffffffffffffffffffffff1614156116aa576040517f08c379a00000000000000000000000000000000000000000000000000000000081526004018080602001828103825260238152602001806124546023913960400191505060405180910390fd5b6116b58383836120bc565b6117218160405180606001604052806026815260200161252360269139600160008773ffffffffffffffffffffffffffffffffffffffff1673ffffffffffffffffffffffffffffffffffffffff168152602001908152602001600020546118639092919063ffffffff16565b600160008573ffffffffffffffffffffffffffffffffffffffff1673ffffffffffffffffffffffffffffffffffffffff168152602001908152602001600020819055506117b681600160008573ffffffffffffffffffffffffffffffffffffffff1673ffffffffffffffffffffffffffffffffffffffff16815260200190815260200160002054611a4390919063ffffffff16565b600160008473ffffffffffffffffffffffffffffffffffffffff1673ffffffffffffffffffffffffffffffffffffffff168152602001908152602001600020819055508173ffffffffffffffffffffffffffffffffffffffff168373ffffffffffffffffffffffffffffffffffffffff167fddf252ad1be2c89b69c2b068fc378daa952ba7f163c4a11628f55a4df523b3ef836040518082815260200191505060405180910390a3505050565b6000838311158290611910576040517f08c379a00000000000000000000000000000000000000000000000000000000081526004018080602001828103825283818151815260200191508051906020019080838360005b838110156118d55780820151818401526020810190506118ba565b50505050905090810190601f1680156119025780820380516001836020036101000a031916815260200191505b509250505060405180910390fd5b5082840390509392505050565b611944816000808581526020019081526020016000206000016120cc90919063ffffffff16565b156119ac5761195161139f565b73ffffffffffffffffffffffffffffffffffffffff168173ffffffffffffffffffffffffffffffffffffffff16837f2f8788117e7eff1d82e926ec794901d17c78024a50270940304540a733656f0d60405160405180910390a45b5050565b6119d7816000808581526020019081526020016000206000016120fc90919063ffffffff16565b15611a3f576119e461139f565b73ffffffffffffffffffffffffffffffffffffffff168173ffffffffffffffffffffffffffffffffffffffff16837ff6391f5c32d9c69d2a47ea670b442974b53935d1edc7fd64eb21e047a839171b60405160405180910390a45b5050565b600080828401905083811015611ac1576040517f08c379a000000000000000000000000000000000000000000000000000000000815260040180806020018281038252601b8152602001807f536166654d6174683a206164646974696f6e206f766572666c6f77000000000081525060200191505060405180910390fd5b8091505092915050565b611ad3610e9a565b611b45576040517f08c379a00000000000000000000000000000000000000000000000000000000081526004018080602001828103825260148152602001807f5061757361626c653a206e6f742070617573656400000000000000000000000081525060200191505060405180910390fd5b6000600660016101000a81548160ff0219169083151502179055507f5db9ee0a495bf2e6ff9c91a7834c1ba4fdd244a5e8aa4e537bd38aeae4b073aa611b8961139f565b604051808273ffffffffffffffffffffffffffffffffffffffff1673ffffffffffffffffffffffffffffffffffffffff16815260200191505060405180910390a1565b600073ffffffffffffffffffffffffffffffffffffffff168273ffffffffffffffffffffffffffffffffffffffff161415611c6f576040517f08c379a000000000000000000000000000000000000000000000000000000000815260040180806020018281038252601f8152602001807f45524332303a206d696e7420746f20746865207a65726f20616464726573730081525060200191505060405180910390fd5b611c7b600083836120bc565b611c9081600354611a4390919063ffffffff16565b600381905550611ce881600160008573ffffffffffffffffffffffffffffffffffffffff1673ffffffffffffffffffffffffffffffffffffffff16815260200190815260200160002054611a4390919063ffffffff16565b600160008473ffffffffffffffffffffffffffffffffffffffff1673ffffffffffffffffffffffffffffffffffffffff168152602001908152602001600020819055508173ffffffffffffffffffffffffffffffffffffffff16600073ffffffffffffffffffffffffffffffffffffffff167fddf252ad1be2c89b69c2b068fc378daa952ba7f163c4a11628f55a4df523b3ef836040518082815260200191505060405180910390a35050565b600073ffffffffffffffffffffffffffffffffffffffff168273ffffffffffffffffffffffffffffffffffffffff161415611e1b576040517f08c379a00000000000000000000000000000000000000000000000000000000081526004018080602001828103825260218152602001806125fb6021913960400191505060405180910390fd5b611e27826000836120bc565b611e93816040518060600160405280602281526020016124a660229139600160008673ffffffffffffffffffffffffffffffffffffffff1673ffffffffffffffffffffffffffffffffffffffff168152602001908152602001600020546118639092919063ffffffff16565b600160008473ffffffffffffffffffffffffffffffffffffffff1673ffffffffffffffffffffffffffffffffffffffff16815260200190815260200160002081905550611eeb8160035461212c90919063ffffffff16565b600381905550600073ffffffffffffffffffffffffffffffffffffffff168273ffffffffffffffffffffffffffffffffffffffff167fddf252ad1be2c89b69c2b068fc378daa952ba7f163c4a11628f55a4df523b3ef836040518082815260200191505060405180910390a35050565b611f63610e9a565b15611fd6576040517f08c379a00000000000000000000000000000000000000000000000000000000081526004018080602001828103825260108152602001807f5061757361626c653a207061757365640000000000000000000000000000000081525060200191505060405180910390fd5b6001600660016101000a81548160ff0219169083151502179055507f62e78cea01bee320cd4e420270b5ea74000d11b0c9f74754ebdbfc544b05a25861201a61139f565b604051808273ffffffffffffffffffffffffffffffffffffffff1673ffffffffffffffffffffffffffffffffffffffff16815260200191505060405180910390a1565b600061206c83600001836121af565b60001c905092915050565b600061209f836000018373ffffffffffffffffffffffffffffffffffffffff1660001b612232565b905092915050565b60006120b582600001612255565b9050919050565b6120c7838383612266565b505050565b60006120f4836000018373ffffffffffffffffffffffffffffffffffffffff1660001b6122d4565b905092915050565b6000612124836000018373ffffffffffffffffffffffffffffffffffffffff1660001b612344565b905092915050565b6000828211156121a4576040517f08c379a000000000000000000000000000000000000000000000000000000000815260040180806020018281038252601e8152602001807f536166654d6174683a207375627472616374696f6e206f766572666c6f77000081525060200191505060405180910390fd5b818303905092915050565b600081836000018054905011612210576040517f08c379a00000000000000000000000000000000000000000000000000000000081526004018080602001828103825260228152602001806124326022913960400191505060405180910390fd5b82600001828154811061221f57fe5b9060005260206000200154905092915050565b600080836001016000848152602001908152602001600020541415905092915050565b600081600001805490509050919050565b61227183838361242c565b612279610e9a565b156122cf576040517f08c379a000000000000000000000000000000000000000000000000000000000815260040180806020018281038252602a8152602001806126f0602a913960400191505060405180910390fd5b505050565b60006122e08383612232565b61233957826000018290806001815401808255809150506001900390600052602060002001600090919091909150558260000180549050836001016000848152602001908152602001600020819055506001905061233e565b600090505b92915050565b60008083600101600084815260200190815260200160002054905060008114612420576000600182039050600060018660000180549050039050600086600001828154811061238f57fe5b90600052602060002001549050808760000184815481106123ac57fe5b90600052602060002001819055506001830187600101600083815260200190815260200160002081905550866000018054806123e457fe5b60019003818190600052602060002001600090559055866001016000878152602001908152602001600020600090556001945050505050612426565b60009150505b92915050565b50505056fe456e756d657261626c655365743a20696e646578206f7574206f6620626f756e647345524332303a207472616e7366657220746f20746865207a65726f2061646472657373416363657373436f6e74726f6c3a2073656e646572206d75737420626520616e2061646d696e20746f206772616e7445524332303a206275726e20616d6f756e7420657863656564732062616c616e636545524332305072657365744d696e7465725061757365723a206d75737420686176652070617573657220726f6c6520746f20756e706175736545524332303a20617070726f766520746f20746865207a65726f206164647265737345524332303a207472616e7366657220616d6f756e7420657863656564732062616c616e6365416363657373436f6e74726f6c3a2073656e646572206d75737420626520616e2061646d696e20746f207265766f6b6545524332303a207472616e7366657220616d6f756e74206578636565647320616c6c6f77616e636545524332305072657365744d696e7465725061757365723a206d7573742068617665206d696e74657220726f6c6520746f206d696e7445524332303a206275726e20616d6f756e74206578636565647320616c6c6f77616e636545524332303a206275726e2066726f6d20746865207a65726f206164647265737345524332303a207472616e736665722066726f6d20746865207a65726f206164647265737345524332303a20617070726f76652066726f6d20746865207a65726f206164647265737345524332305072657365744d696e7465725061757365723a206d75737420686176652070617573657220726f6c6520746f20706175736545524332303a2064656372656173656420616c6c6f77616e63652062656c6f77207a65726f416363657373436f6e74726f6c3a2063616e206f6e6c792072656e6f756e636520726f6c657320666f722073656c6645524332305061757361626c653a20746f6b656e207472616e73666572207768696c6520706175736564a26469706673582212200d1861a2ec59a17e110f1b0443e4520bc1b677f2169bca86d324bc11bb72194464736f6c63430006060033a2646970667358221220ca2092263fa1a9bfc68aed1d8dd1716a836a70b822aaeed6c458dd8ee12e7a7864736f6c63430006060033",
  "immutableReferences": {},
  "source": "// SPDX-License-Identifier: MIT\npragma solidity 0.6.6;\npragma experimental ABIEncoderV2;\n\nimport \"@openzeppelin/contracts/access/Ownable.sol\";\nimport \"@openzeppelin/contracts/math/SafeMath.sol\";\nimport \"@openzeppelin/contracts/presets/ERC20PresetMinterPauser.sol\";\nimport \"@openzeppelin/contracts/token/ERC20/SafeERC20.sol\";\nimport \"@openzeppelin/contracts/token/ERC20/ERC20.sol\";\nimport \"@openzeppelin/contracts/utils/ReentrancyGuard.sol\";\nimport \"./SLA.sol\";\nimport \"./messenger/IMessenger.sol\";\nimport \"./SLARegistry.sol\";\nimport \"./StringUtils.sol\";\n\n/**\n * @title StakeRegistry\n * @dev StakeRegistry is a contract to register the staking activity of the platform, along\n with controlling certain admin privileged parameters\n */\ncontract StakeRegistry is Ownable, ReentrancyGuard {\n    using SafeERC20 for ERC20;\n    using SafeMath for uint256;\n\n    /// @dev struct to return on getActivePool function.\n    struct ActivePool {\n        address SLAAddress;\n        uint256 stake;\n        string assetName;\n        address assetAddress;\n    }\n\n    struct LockedValue {\n        uint256 lockedValue;\n        uint256 slaPeriodIdsLength;\n        uint256 dslaDepositByPeriod;\n        uint256 dslaPlatformReward;\n        uint256 dslaMessengerReward;\n        uint256 dslaUserReward;\n        uint256 dslaBurnedByVerification;\n        mapping(uint256 => bool) verifiedPeriods;\n    }\n\n    address public DSLATokenAddress;\n    SLARegistry public slaRegistry;\n\n    //______ onlyOwner modifiable parameters ______\n\n    /// @dev corresponds to the burn rate of DSLA tokens, but divided by 1000 i.e burn percentage = DSLAburnRate/1000 %\n    uint256 private _DSLAburnRate = 3;\n    /// @dev (ownerAddress => slaAddress => LockedValue) stores the locked value by the staker\n    mapping(address => LockedValue) public slaLockedValue;\n    /// @dev DSLA deposit by period to create SLA\n    uint256 private _dslaDepositByPeriod = 1000 ether;\n    /// @dev DSLA rewarded to the foundation\n    uint256 private _dslaPlatformReward = 250 ether;\n    /// @dev DSLA rewarded to the Messenger creator\n    uint256 private _dslaMessengerReward = 250 ether;\n    /// @dev DSLA rewarded to user calling the period verification\n    uint256 private _dslaUserReward = 250 ether;\n    /// @dev DSLA burned after every period verification\n    uint256 private _dslaBurnedByVerification = 250 ether;\n    /// @dev max token length for allowedTokens array of Staking contracts\n    uint256 private _maxTokenLength = 1;\n    /// @dev max times of hedge leverage\n    uint64 private _maxLeverage = 100;\n\n    /// @dev array with the allowed tokens addresses of the StakeRegistry\n    address[] public allowedTokens;\n\n    /// @dev (userAddress => SLA[]) with user staked SLAs to get tokenPool\n    mapping(address => SLA[]) public userStakedSlas;\n\n    /**\n     * @dev event to log a verifiation reward distributed\n     * @param sla 1. The address of the created service level agreement contract\n     * @param requester 2. -\n     * @param userReward 3. -\n     * @param platformReward 4. -\n     * @param messengerReward 5. -\n     * @param burnedDSLA 6. -\n     */\n    event VerificationRewardDistributed(\n        address indexed sla,\n        address indexed requester,\n        uint256 userReward,\n        uint256 platformReward,\n        uint256 messengerReward,\n        uint256 burnedDSLA\n    );\n\n    /**\n     * @dev event to log modifications on the staking parameters\n     *@param DSLAburnRate 1. (DSLAburnRate/1000)% of DSLA to be burned after a reward/compensation is paid\n     *@param dslaDepositByPeriod 2. DSLA deposit by period to create SLA\n     *@param dslaPlatformReward 3. DSLA rewarded to Stacktical team\n     *@param dslaUserReward 4. DSLA rewarded to user calling the period verification\n     *@param dslaBurnedByVerification 5. DSLA burned after every period verification\n     */\n    event StakingParametersModified(\n        uint256 DSLAburnRate,\n        uint256 dslaDepositByPeriod,\n        uint256 dslaPlatformReward,\n        uint256 dslaMessengerReward,\n        uint256 dslaUserReward,\n        uint256 dslaBurnedByVerification,\n        uint256 maxTokenLength,\n        uint64 maxLeverage\n    );\n\n    /**\n     * @dev event to log modifications on the staking parameters\n     *@param sla 1. -\n     *@param owner 2. -\n     *@param amount 3. -\n     */\n\n    event LockedValueReturned(\n        address indexed sla,\n        address indexed owner,\n        uint256 amount\n    );\n\n    /**\n     * @dev event to log modifications on the staking parameters\n     *@param dTokenAddress 1. -\n     *@param sla 2. -\n     *@param name 3. -\n     *@param symbol 4. -\n     */\n    event DTokenCreated(\n        address indexed dTokenAddress,\n        address indexed sla,\n        string name,\n        string symbol\n    );\n\n    /**\n     * @dev event to log modifications on the staking parameters\n     *@param sla 1. -\n     *@param owner 2. -\n     *@param amount 3. -\n     */\n    event ValueLocked(\n        address indexed sla,\n        address indexed owner,\n        uint256 amount\n    );\n\n    /**\n     * @param _dslaTokenAddress 1. DSLA Token\n     */\n    constructor(address _dslaTokenAddress) public {\n        require(\n            _dslaDepositByPeriod ==\n                _dslaPlatformReward\n                    .add(_dslaMessengerReward)\n                    .add(_dslaUserReward)\n                    .add(_dslaBurnedByVerification),\n            \"Staking parameters should match on summation\"\n        );\n        DSLATokenAddress = _dslaTokenAddress;\n        allowedTokens.push(_dslaTokenAddress);\n    }\n\n    /// @dev Throws if called by any address other than the SLARegistry contract or Chainlink Oracle.\n    modifier onlySLARegistry() {\n        require(\n            msg.sender == address(slaRegistry),\n            \"Can only be called by SLARegistry\"\n        );\n        _;\n    }\n\n    /**\n     * @dev sets the SLARegistry contract address and can only be called\n     * once\n     */\n    function setSLARegistry() external {\n        // Only able to trigger this function once\n        require(\n            address(slaRegistry) == address(0),\n            \"SLARegistry address has already been set\"\n        );\n\n        slaRegistry = SLARegistry(msg.sender);\n    }\n\n    /**\n     *@dev add a token to ve allowed for staking\n     *@param _tokenAddress 1. address of the new allowed token\n     */\n    function addAllowedTokens(address _tokenAddress) external onlyOwner {\n        require(!isAllowedToken(_tokenAddress), \"token already added\");\n        allowedTokens.push(_tokenAddress);\n    }\n\n    function isAllowedToken(address _tokenAddress) public view returns (bool) {\n        for (uint256 index = 0; index < allowedTokens.length; index++) {\n            if (allowedTokens[index] == _tokenAddress) {\n                return true;\n            }\n        }\n        return false;\n    }\n\n    /**\n     *@dev public view function that returns true if the _owner has staked on _sla\n     *@param _user 1. address to check\n     *@param _sla 2. sla to check\n     *@return bool, true if _sla was staked by _user\n     */\n\n    function slaWasStakedByUser(address _user, address _sla)\n        public\n        view\n        returns (bool)\n    {\n        for (uint256 index = 0; index < userStakedSlas[_user].length; index++) {\n            if (address(userStakedSlas[_user][index]) == _sla) {\n                return true;\n            }\n        }\n        return false;\n    }\n\n    /**\n     *@dev register the sending SLA contract as staked by _owner\n     *@param _owner 1. SLA contract to stake\n     */\n    function registerStakedSla(address _owner) external returns (bool) {\n        require(\n            slaRegistry.isRegisteredSLA(msg.sender),\n            \"Only for registered SLAs\"\n        );\n        if (!slaWasStakedByUser(_owner, msg.sender)) {\n            userStakedSlas[_owner].push(SLA(msg.sender));\n        }\n        return true;\n    }\n\n    /**\n     *@dev to create dTokens for staking\n     *@param _name 1. token name\n     *@param _symbol 2. token symbol\n     */\n    function createDToken(string calldata _name, string calldata _symbol)\n        external\n        returns (address)\n    {\n        require(\n            slaRegistry.isRegisteredSLA(msg.sender),\n            \"Only for registered SLAs\"\n        );\n        ERC20PresetMinterPauser dToken =\n            new ERC20PresetMinterPauser(_name, _symbol);\n        dToken.grantRole(dToken.MINTER_ROLE(), msg.sender);\n        emit DTokenCreated(address(dToken), msg.sender, _name, _symbol);\n        return address(dToken);\n    }\n\n    function lockDSLAValue(\n        address _slaOwner,\n        address _sla,\n        uint256 _periodIdsLength\n    ) external onlySLARegistry nonReentrant {\n        uint256 lockedValue = _dslaDepositByPeriod.mul(_periodIdsLength);\n        ERC20(DSLATokenAddress).safeTransferFrom(\n            _slaOwner,\n            address(this),\n            lockedValue\n        );\n        slaLockedValue[_sla] = LockedValue({\n            lockedValue: lockedValue,\n            slaPeriodIdsLength: _periodIdsLength,\n            dslaDepositByPeriod: _dslaDepositByPeriod,\n            dslaPlatformReward: _dslaPlatformReward,\n            dslaMessengerReward: _dslaMessengerReward,\n            dslaUserReward: _dslaUserReward,\n            dslaBurnedByVerification: _dslaBurnedByVerification\n        });\n        emit ValueLocked(_sla, _slaOwner, lockedValue);\n    }\n\n    function distributeVerificationRewards(\n        address _sla,\n        address _verificationRewardReceiver,\n        uint256 _periodId\n    ) external onlySLARegistry nonReentrant {\n        LockedValue storage _lockedValue = slaLockedValue[_sla];\n        require(\n            !_lockedValue.verifiedPeriods[_periodId],\n            \"Period rewards already distributed\"\n        );\n        _lockedValue.verifiedPeriods[_periodId] = true;\n        _lockedValue.lockedValue = _lockedValue.lockedValue.sub(\n            _lockedValue.dslaDepositByPeriod\n        );\n        ERC20(DSLATokenAddress).safeTransfer(\n            _verificationRewardReceiver,\n            _lockedValue.dslaUserReward\n        );\n        ERC20(DSLATokenAddress).safeTransfer(\n            owner(),\n            _lockedValue.dslaPlatformReward\n        );\n        ERC20(DSLATokenAddress).safeTransfer(\n            IMessenger(SLA(_sla).messengerAddress()).owner(),\n            _lockedValue.dslaMessengerReward\n        );\n        _burnDSLATokens(_lockedValue.dslaBurnedByVerification);\n        emit VerificationRewardDistributed(\n            _sla,\n            _verificationRewardReceiver,\n            _lockedValue.dslaUserReward,\n            _lockedValue.dslaPlatformReward,\n            _lockedValue.dslaMessengerReward,\n            _lockedValue.dslaBurnedByVerification\n        );\n    }\n\n    function returnLockedValue(address _sla)\n        external\n        onlySLARegistry\n        nonReentrant\n    {\n        LockedValue storage _lockedValue = slaLockedValue[_sla];\n        uint256 remainingBalance = _lockedValue.lockedValue;\n        require(remainingBalance > 0, \"locked value is empty\");\n        _lockedValue.lockedValue = 0;\n        ERC20(DSLATokenAddress).safeTransfer(\n            SLA(_sla).owner(),\n            remainingBalance\n        );\n        emit LockedValueReturned(_sla, SLA(_sla).owner(), remainingBalance);\n    }\n\n    function _burnDSLATokens(uint256 _amount) internal {\n        bytes4 BURN_SELECTOR = bytes4(keccak256(bytes(\"burn(uint256)\")));\n        (bool _success, ) =\n            DSLATokenAddress.call(\n                abi.encodeWithSelector(BURN_SELECTOR, _amount)\n            );\n        require(_success, \"DSLA burn process was not successful\");\n    }\n\n    /**\n     * @dev returns the active pools owned by a user.\n     * @param _slaOwner 1. owner of the active pool\n     * @return ActivePool[], array of structs: {SLAAddress,stake,assetName}\n     */\n    function getActivePool(address _slaOwner)\n        external\n        view\n        returns (ActivePool[] memory)\n    {\n        bytes4 NAME_SELECTOR = bytes4(keccak256(bytes(\"name()\")));\n        uint256 stakeCounter = 0;\n        // Count the stakes of the user, checking every SLA staked\n        for (\n            uint256 index = 0;\n            index < userStakedSlas[_slaOwner].length;\n            index++\n        ) {\n            SLA currentSLA = SLA(userStakedSlas[_slaOwner][index]);\n            stakeCounter = stakeCounter.add(\n                currentSLA.getAllowedTokensLength()\n            );\n        }\n\n        ActivePool[] memory activePools = new ActivePool[](stakeCounter);\n        // to insert on activePools array\n        uint256 stakePosition = 0;\n        for (\n            uint256 index = 0;\n            index < userStakedSlas[_slaOwner].length;\n            index++\n        ) {\n            SLA currentSLA = userStakedSlas[_slaOwner][index];\n            for (\n                uint256 tokenIndex = 0;\n                tokenIndex < currentSLA.getAllowedTokensLength();\n                tokenIndex++\n            ) {\n                (address tokenAddress, uint256 stake) =\n                    currentSLA.getTokenStake(_slaOwner, tokenIndex);\n                (, bytes memory tokenNameBytes) =\n                    tokenAddress.staticcall(\n                        abi.encodeWithSelector(NAME_SELECTOR)\n                    );\n                ActivePool memory currentActivePool =\n                    ActivePool({\n                        SLAAddress: address(currentSLA),\n                        stake: stake,\n                        assetName: string(tokenNameBytes),\n                        assetAddress: tokenAddress\n                    });\n                activePools[stakePosition] = currentActivePool;\n                stakePosition = stakePosition.add(1);\n            }\n        }\n        return activePools;\n    }\n\n    //_______ OnlyOwner functions _______\n    function setStakingParameters(\n        uint256 DSLAburnRate,\n        uint256 dslaDepositByPeriod,\n        uint256 dslaPlatformReward,\n        uint256 dslaMessengerReward,\n        uint256 dslaUserReward,\n        uint256 dslaBurnedByVerification,\n        uint256 maxTokenLength,\n        uint64 maxLeverage\n    ) external onlyOwner {\n        _DSLAburnRate = DSLAburnRate;\n        _dslaDepositByPeriod = dslaDepositByPeriod;\n        _dslaPlatformReward = dslaPlatformReward;\n        _dslaMessengerReward = dslaMessengerReward;\n        _dslaUserReward = dslaUserReward;\n        _dslaBurnedByVerification = dslaBurnedByVerification;\n        _maxTokenLength = maxTokenLength;\n        _maxLeverage = maxLeverage;\n        require(\n            _dslaDepositByPeriod ==\n                _dslaPlatformReward\n                    .add(_dslaMessengerReward)\n                    .add(_dslaUserReward)\n                    .add(_dslaBurnedByVerification),\n            \"Staking parameters should match on summation\"\n        );\n        emit StakingParametersModified(\n            DSLAburnRate,\n            dslaDepositByPeriod,\n            dslaPlatformReward,\n            dslaMessengerReward,\n            dslaUserReward,\n            dslaBurnedByVerification,\n            maxTokenLength,\n            maxLeverage\n        );\n    }\n\n    function getStakingParameters()\n        external\n        view\n        returns (\n            uint256 DSLAburnRate,\n            uint256 dslaDepositByPeriod,\n            uint256 dslaPlatformReward,\n            uint256 dslaMessengerReward,\n            uint256 dslaUserReward,\n            uint256 dslaBurnedByVerification,\n            uint256 maxTokenLength,\n            uint64 maxLeverage\n        )\n    {\n        DSLAburnRate = _DSLAburnRate;\n        dslaDepositByPeriod = _dslaDepositByPeriod;\n        dslaPlatformReward = _dslaPlatformReward;\n        dslaMessengerReward = _dslaMessengerReward;\n        dslaUserReward = _dslaUserReward;\n        dslaBurnedByVerification = _dslaBurnedByVerification;\n        maxTokenLength = _maxTokenLength;\n        maxLeverage = _maxLeverage;\n    }\n\n    function periodIsVerified(address _sla, uint256 _periodId)\n        external\n        view\n        returns (bool)\n    {\n        return slaLockedValue[_sla].verifiedPeriods[_periodId];\n    }\n}\n",
  "sourcePath": "@stacktical/dsla-protocol/contracts/StakeRegistry.sol",
  "compiler": {
    "name": "solc",
    "version": "0.6.6+commit.6c089d02.Emscripten.clang"
  },
  "schemaVersion": "3.3.4",
  "updatedAt": "2021-05-05T23:57:45.214Z",
  "devdoc": {
    "details": "StakeRegistry is a contract to register the staking activity of the platform, along with controlling certain admin privileged parameters",
    "methods": {
      "constructor": {
        "params": {
          "_dslaTokenAddress": "1. DSLA Token"
        }
      },
      "getActivePool(address)": {
        "details": "returns the active pools owned by a user.",
        "params": {
          "_slaOwner": "1. owner of the active pool"
        },
        "returns": {
          "_0": "ActivePool[], array of structs: {SLAAddress,stake,assetName}"
        }
      },
      "owner()": {
        "details": "Returns the address of the current owner."
      },
      "renounceOwnership()": {
        "details": "Leaves the contract without owner. It will not be possible to call `onlyOwner` functions anymore. Can only be called by the current owner.     * NOTE: Renouncing ownership will leave the contract without an owner, thereby removing any functionality that is only available to the owner."
      },
      "setSLARegistry()": {
        "details": "sets the SLARegistry contract address and can only be called once"
      },
      "transferOwnership(address)": {
        "details": "Transfers ownership of the contract to a new account (`newOwner`). Can only be called by the current owner."
      }
    },
    "title": "StakeRegistry"
  },
  "userdoc": {
    "methods": {
      "addAllowedTokens(address)": {
        "notice": "dev add a token to ve allowed for staking param _tokenAddress 1. address of the new allowed token"
      },
      "createDToken(string,string)": {
        "notice": "dev to create dTokens for staking param _name 1. token name param _symbol 2. token symbol"
      },
      "registerStakedSla(address)": {
        "notice": "dev register the sending SLA contract as staked by _owner param _owner 1. SLA contract to stake"
      },
      "slaWasStakedByUser(address,address)": {
        "notice": "dev public view function that returns true if the _owner has staked on _sla param _user 1. address to check param _sla 2. sla to check return bool, true if _sla was staked by _user"
      }
    }
  }
}